:020000040002F8
:106000000000042061BF030089BF03008BBF0300B1
:106010008DBF03008FBF030091BF0300000000008D
:1060200000000000000000000000000093BF03001B
:1060300095BF03000000000097BF030099BF030055
:106040009BBF03009BBF030001BE0300C5BD03004F
:10605000D9BD03009BBF030009B203009BBF03002F
:1060600055BA03005DBA030065BA03009BBF030085
:106070009BBF03009BBF03009BBF03009BBF0300AC
:106080009BBF03009BBF03009BBF03009BBF03009C
:106090009BBF03009BBF03009BBF03009BBF03008C
:1060A0009BBF03009BBF03006DBA030075BA0300DA
:1060B0009BBF03009BBF0300000000000000000026
:1060C0009BBF03009BBF03009BBF0300EDBD03000C
:1060D0009BBF03009BBF03009BBF03009BBF03004C
:1060E00029BE03009BBF03009BBF0300000000000C
:1060F000000000009BBF03000000000015BE03006D
:10610000000000000000000000000000000000008F
:10611000000000000000000000000000000000007F
:10612000000000000000000000000000000000006F
:10613000000000000000000000000000000000005F
:10614000000000000000000000000000000000004F
:10615000000000000000000000000000000000003F
:10616000000000000000000000000000000000002F
:10617000000000000000000000000000000000001F
:10618000000000000000000000000000000000000F
:1061900000000000000000000000000000000000FF
:1061A00000000000000000000000000000000000EF
:1061B00000000000000000000000000000000000DF
:1061C00000000000000000000000000000000000CF
:1061D00000000000000000000000000000000000BF
:1061E00000000000000000000000000000000000AF
:1061F000000000000000000000000000000000009F
:106200007CB0EE877CB0EE87FF00FF00FF00FF0050
:10621000FF00FF00FF00FF00FF00FF00FF00FF0086
:10622000FF00FF00FF00FF00FF00FF00FF00FF0076
:10623000FF00FF00FF00FF002DE9F04F85B0039144
:106240000778A7F10903042B044607F07F0200F149
:106250000100F5D9202AF3D02B2F04BF677804461C
:106260002D2F75D09FED427B8DED007B4FF0000808
:106270004FF000099FB34FF0000C25464FF0000A85
:10628000DFF8FCB0644619E018F0BAFC8046894695
:10629000304618F04BFC42464B4618F0FBFA52468B
:1062A000804689465B46DDE900013CB318F0D2FD2B
:1062B000CDE90001A44615F8017F7FB1A7F13006B2
:1062C000092E52465B4640464946DDD9CCB92E2FB1
:1062D00017D115F8017F0124002FEFD12C4642463B
:1062E0004B46DDE9000118F08BFC80468946039B94
:1062F000404649461C6005B0BDE8F08F4FF0010CE8
:10630000D9E72C46BCF1000F29D042464B46DDE9C7
:10631000000118F075FC07F0DF07452F804689461D
:10632000E5D10399681C0A2218F098FA144902462C
:10633000002019F015F802460B464046494618F071
:106340005FFC804689464046494605B0BDE8F08F6F
:106350009FED097B67788DED007B013486E7DFF8E0
:1063600024904FF000084046494605B0BDE8F08F44
:10637000000000000000F03F000000000000F0BF3F
:10638000000024400000F87F2DE9F0470023144668
:1063900000228046894618F0A5FE28B109F1004385
:1063A00099462D232370013400220023404649469C
:1063B00018F08EFE28B13022002322706370BDE8F1
:1063C000F0874046494616F007FE18F0C9FE73A351
:1063D000D3E9002307464946404618F083FE0028CB
:1063E0004ED170A3D3E900234046494618F098FEE9
:1063F000002845D10E2F07F1010540F3B980A7F120
:106400000E0632460020624918F0AAFF02460B46EB
:106410004046494618F01EFD00225E4B18F03AFA3D
:1064200018F0DAFF002DA7F10F0E4FF0010C4DDD33
:10643000594FDFF87881012245F6F3294FF02E0AF3
:10644000494508BF40454FF030030AD3B0EB080080
:1064500061EB0901494508BF404503F10103F5D24D
:10646000DBB2237050EA010304F101084AD19542DE
:1064700052DD0132102A4FD0444677E90289DFE726
:10648000002F33DB3A460020414918F069FF0246ED
:106490000B464046494618F0DDFC3BA3D3E90023F8
:1064A00080468946012500264046494618F0A8FB4B
:1064B0000022384B18F0EEF918F08EFF002DBC4684
:1064C0004FF0FF3E37464FF00006B1DC2346302246
:1064D0004FF02E0803F8022B84F80180FC4345D0CE
:1064E0001C4403F8012BA342FBD1A1E77A42002010
:1064F000274918F035FF02460B464046494618F03A
:106500007FFBCAE7954202F1010204BF84F801A0B3
:1065100004F10208102AAFD16EB14246302102F8D0
:10652000011BC2F1010373444344002BF7DC2EEA44
:10653000EE7301339844BCF1010F12D0BCF1000F8F
:106540004FF0650388F80030C5BF2B2388F8013071
:1065500008F1010108F102016046BDE8F04710F0C2
:1065600061BA002388F80030BDE8F0871C465FE779
:10657000C7F10E020020064918F0F2FE3E46024620
:106580000B46012790E700BF0000901EC4BCD64216
:10659000000024400000E03F00FF03008DEDB5A0A7
:1065A000F7C6B03E50EFE2D6E41A4B4400407A10F2
:1065B00070B54FF0FF3006F017FA04466FF07F40D9
:1065C00006F012FA0646204618F0A0FA00220C4BFC
:1065D00018F016FB044630460D4618F097FA06A34D
:1065E000D3E9002318F036FC02460B462046294624
:1065F00018F050F970BD00BF0000E0DFFFFF6F43EF
:106600000000F03D000000002DE9F04F1D46138909
:10661000AB4288BF536885B004468CBF53F8250051
:10662000002090468A4606F053FE0022904B18F058
:10663000E7FA18F095FDB8F808206B1C9A4288BF5D
:10664000D8F8042006468CBF52F82300002006F03C
:106650003FFE0022864B18F0D3FA18F081FDB8F8FF
:1066600008300235AB4288BFD8F8043007468CBFEB
:1066700053F82500002006F02BFE002EC4E9006729
:1066800040F3E280002F40F3DF8071A3D3E90023C1
:10669000002584F8285016F0C1FB00220023804614
:1066A000894618F01FFD40B14046494668A3D3E92A
:1066B000002318F0EFF88046894667A3D3E900234A
:1066C0004046494618F02CFDC0B165A3D3E900232C
:1066D0004046494618F010FD80B101234046494626
:1066E00084F8283060A3D3E9002318F0D3F858A326
:1066F000D3E9002316F092FB8046894600225D4BC9
:106700004046494618F07CFA16F0BCF801F1004307
:1067100000221946564B18F073FA18F021FD49462D
:106720000546404616F06AF80022514B18F068FA08
:1067300018F016FDDAF804304F49B3F80CB0B3F88E
:106740000AA0A56007FB0BF303EB010806FB0AF6A2
:10675000019388FB05234FEA124C00960E444CEA45
:10676000034C06EA010383FB009A06EB0C0E0EEACB
:10677000010ED346CA468EFB00675246CDE902673A
:10678000120C42EA0B42DDE902AB0CEA010C8CFB75
:1067900000674FEA164956460A40360C46EA0B4651
:1067A00049EA074982FB05AB5F46C144B0445646FF
:1067B000CDE90267039FE060360C09EA010908EAA7
:1067C000010846EA074689FB05AB334488FB0556BA
:1067D000CDE9025655462D0C45EA0B45DDE902ABE5
:1067E0000B40AC4403EAE3770CEA010C554623EA7C
:1067F000E37367454FEA154502EAE276A8BF6746AC
:1068000045EA0B45634522EAE272B8BF6346AE44EF
:106810004E450EEA010EA8BF4E464A45B8BF4A464D
:106820007745A8BF77467345B8BF73464645A8BFAE
:106830004646C4E905634245B8BF424600980199FF
:10684000206261622761E261204605B0BDE8F08FF9
:10685000EA2E4454FB211940F4D64354FB21F93F5E
:10686000320D337F7CD91240EA2E4454FB2109407B
:106870000000F0400000E03F0000FFFF00000000CB
:1068800008B511F097FBDFED0C7A07EE100A67EE02
:10689000277A17EE900A18F05BF905A3D3E90023D5
:1068A00018F0D8FA18F05CFC08BD00BFAFF3008008
:1068B000EA2E4454FB2119400000B44300000000BC
:1068C00008B511F08BFBDFED0C7A07EE100A67EECE
:1068D000277A17EE900A18F03BF905A3D3E90023B5
:1068E00018F0B8FA18F03CFC08BD00BFAFF3008008
:1068F000EA2E4454FB2119400000B443000000007C
:10690000494A21F0004393422DE9704304460D4665
:1069100049DC464A93420E460EDC3FA3D3E90023EE
:1069200017F0B8FF0022424B18F0FAFB00284AD0BB
:1069300020462946BDE870833E4A934239DCB3F1D4
:10694000804F40DD15F056FF2246804689462B4693
:106950002046294618F054F90022354B17F09AFFCB
:1069600016F05EFE42464B4617F094FF02460B4679
:1069700000202F4918F06EFA424604460D464B4659
:106980004046494617F086FF02460B4620462946F8
:1069900017F080FF02F040F8002E08DC01F1004300
:1069A0001946BDE8708302460B4617F073FFBDE839
:1069B000708315F01FFF02F02FF819A3D3E900230D
:1069C00017F068FFE8E722462B462046294618F0D4
:1069D00017F9804689462046294615F00BFF00220C
:1069E00004460D46124B4046494617F053FF16F039
:1069F00017FE00220E4B17F04DFF02460B46404695
:106A0000494618F027FA22462B4617F043FF00F0BC
:106A1000A7FAC1E7AFF300809C7500883CE4377E9D
:106A2000EF39FAFE422EE63FFFFFEF7FFFFF2F3EDA
:106A30000000F03F0000B0412DE9F84FBE4B21F0BF
:106A400000469E4204460D468A460EDDBB4B9E42E2
:106A500000F3B18000F0AC80BAF1000F40F3EA809F
:106A600099A1D1E90001BDE8F88FB54B9E4200F332
:106A7000BA80A3F1DE739E4240F3A5804FF0FF3B46
:106A800022462B462046294618F0BAF802460B4605
:106A90008046894618F0B4F88DA3D3E90023064652
:106AA0000F4618F0ADF88CA3D3E9002317F0F2FEDF
:106AB00032463B4618F0A4F889A3D3E9002317F027
:106AC000E9FE32463B4618F09BF887A3D3E9002342
:106AD00017F0E0FE32463B4618F092F884A3D3E963
:106AE000002317F0D7FE32463B4618F089F882A300
:106AF000D3E9002317F0CEFE42464B4618F080F84B
:106B00007FA3D3E90023804689463046394618F0F2
:106B100077F87DA3D3E9002317F0BAFE32463B464F
:106B200018F06EF87AA3D3E9002317F0B1FE3246CD
:106B30003B4618F065F878A3D3E9002317F0A8FEC8
:106B400032463B4618F05CF875A3D3E9002317F0F2
:106B50009FFE32463B4618F053F802460B4640462D
:106B6000494617F097FE22462B4618F049F8BBF12C
:106B7000FF3F02460B4661D0724B734E4FEACB0B80
:106B80005B44D3E9002317F083FE22462B4617F01F
:106B90007FFEB34402460B46DBE9000117F078FEA6
:106BA000BAF1000F0DDA01F100431946BDE8F88F84
:106BB00000283FF451AF22462B462046294617F0C5
:106BC00069FEBDE8F88F58A3D3E9002317F062FEF1
:106BD00000225E4B18F0A4FA00283FF44FAF204685
:106BE0002946BDE8F88F15F005FE594B9E42044634
:106BF0000D4629DCA3F550239E424EDC02460B468F
:106C000017F048FE0022514B17F042FE00220646C4
:106C10000F464FF080432046294617F03BFE0246C0
:106C20000B463046394618F015F94FF0000B044674
:106C30000D4625E73EA1D1E90001C2E720462946DD
:106C400017F026FEBDE8F88F424B9E421ADC002268
:106C5000414B17F01DFE002206460F463E4B2046D4
:106C6000294617F0CDFF0022384B17F013FE0246DD
:106C70000B463046394618F0EDF84FF0020B04464B
:106C80000D46FDE602460B460020344918F0E2F8B6
:106C90004FF0030B04460D46F2E600222B4B17F093
:106CA000F7FD002206460F46284B2046294617F0DE
:106CB000F1FD02460B463046394618F0CBF84FF04E
:106CC000010B04460D46DBE6182D4454FB21F93F29
:106CD00011DA22E33AAD903FEB0D76244B7BA93FCE
:106CE000513DD0A0660DB13F6E204CC5CD45B73F9C
:106CF000FF8300922449C23F0D5555555555D53F48
:106D00002F6C6A2C44B4A2BF9AFDDE522DDEAD3F3B
:106D10006D9A74AFF2B0B33F711623FEC671BC3FDB
:106D2000C4EB98999999C93F9C7500883CE4377EDB
:106D3000182D4454FB21F9BFFFFF0F440000F07FE2
:106D4000FFFFDB3F28FF030008FF03000000F03FC8
:106D5000FFFFF23FFF7F03400000F83F0000F0BF5D
:106D60002DE9F041C1F30A57A7F2FF35132D024672
:106D70000B460C468846064620DC002D4ADB364F83
:106D80002F4101EA070C5CEA000C1CD030A3D3E9C8
:106D9000002317F07FFD0022002318F0C1F948B14D
:106DA000002C04DD4FF4801343FA05F5A84428EACB
:106DB0000704002621463046BDE8F081332D06DD6C
:106DC000B5F5806F38D010461946BDE8F081A7F2BE
:106DD00013474FF0FF3C2CFA07F70742F3D01CA3F0
:106DE000D3E9002317F056FD0022002318F098F98C
:106DF0000028DFD0002C09DD142D22D00123C5F19D
:106E0000340503FA05F5AE1928BF984426EA0706AB
:106E10004446CFE70EA3D3E9002317F03BFD002241
:106E2000002318F07DF90028C4D0002C0CDB264389
:106E300005D00026094CBDE717F02CFDC5E7344608
:106E4000B8E704F10108E1E700264FF00044B1E79C
:106E50009C7500883CE4377EFFFF0F000000F03F88
:106E60002DE9F041C1F30A57A7F2FF35132D024671
:106E70000B460C46884606461DDC002D3CDB364F93
:106E80002F4101EA070C5CEA000C19D030A3D3E9CA
:106E9000002317F0FFFC0022002318F041F9C8B3CB
:106EA000002C04DA4FF4801343FA05F5A84428EACD
:106EB000070400262EE0332D06DDB5F5806F2DD0BA
:106EC00010461946BDE8F081A7F213474FF0FF3C8A
:106ED0002CFA07F70742F3D01DA3D3E9002317F0DC
:106EE000D9FC0022002318F01BF998B1002C21DBFB
:106EF00026EA070644460DE015A3D3E9002317F060
:106F0000C9FC0022002318F00BF918B1002C08DB93
:106F10000026344621463046BDE8F08117F0BAFC21
:106F2000D0E724F000430D4A1E43002E18BF14463C
:106F30000026EFE7142D08D00123C5F1340503FA2C
:106F400005F5AE1928BF9844D2E704F10108CFE750
:106F50009C7500883CE4377EFFFF0F000000F0BF07
:106F60002DE9F04FD84B994287B08046894643DDE2
:106F7000D64B99420E4600F3F480D54B994240F32C
:106F80002D819FEDBB7B8DED047B4FEA215A04469A
:106F9000AAF2FF3ACF4BC6F313069E4246F07F5546
:106FA00000F3128145F44015204629460022CA4BC1
:106FB00017F06EFC002204460D46C84B17F020FE69
:106FC00022462B4617F01CFEA046CDE90201A94639
:106FD000CDE90001002E3AD10022002320462946A7
:106FE00018F076F8002800F01B81BAF1000F40F08D
:106FF000858100200021B8E0B94B21F000449C427B
:107000000A460FDD0022B74B18F062F8002800F0A6
:10701000AF80002200230020B34917F01BFF07B008
:10702000BDE8F08FB14B9C4240F3AF80B04B1A44A7
:107030009A4240F2D3800022A84B17F0E1FD42466D
:107040004B4617F0DDFDCDE900014FF0000A0022AC
:107050004FF080434046494617F01CFC02460B4661
:107060004046494617F0F6FE02460B4606460F46D6
:1070700017F0C6FD80A3D3E9002304460D4617F0A0
:10708000BFFD7FA3D3E9002317F004FC22462B4663
:1070900017F0B6FD7CA3D3E9002317F0FBFB2246D3
:1070A0002B4617F0ADFD7AA3D3E9002317F0F2FBCE
:1070B00022462B4617F0A4FD77A3D3E9002317F04F
:1070C000E9FB22462B4617F09BFD75A3D3E900236D
:1070D00017F0E0FB22462B4617F092FD72A3D3E98E
:1070E000002317F0D7FB22462B4617F089FDDDE978
:1070F000002317F0CFFB32463B4617F081FD0446D4
:107100000D46BAF1000F00F0A880504617F00EFDB2
:1071100067A3D3E9002382468B4617F071FD66A36F
:10712000D3E9002306460F465046594617F068FD3E
:10713000DDE9042317F0AEFB22462B4617F0AAFB2D
:1071400002460B46DDE9000117F0A2FB42464B4622
:1071500017F09EFB02460B463046394617F098FB67
:1071600003E002460B4617F095FB07B0BDE8F08F31
:1071700042464B464046494617F08AFB02460B46BC
:1071800017F068FE07B0BDE8F08F0022594B17F0EA
:1071900081FB0022002317F0C3FF10B1564B9C4225
:1071A00062DD42464B464046494617F029FD002223
:1071B0004A4B17F025FD02460B464046494617F05C
:1071C00067FB07B0BDE8F08F45F40015C6F58016E3
:1071D00020462946B6100AF1010AE7E600223E4B96
:1071E0004046494617F056FB4FEA215AAAF2FF3AA9
:1071F000BAF1000F04460D460E4640F3BD804246EC
:107200004B4617F045FB02460B460020324917F06B
:107210003FFB22462B4617F01DFECDE90401B9E6DF
:1072200027A3D3E900232046294617F0E9FC0246AC
:107230000B460020284917F02BFBDDE9022317F04D
:10724000DFFC06460F46BAF1000F75D102460B4629
:107250002046294617F01CFB87E702460B46DDE96E
:10726000000117F015FBA6E7404649467DE700BF41
:10727000000000000000000044523EDF12F1C23F57
:107280009FC678D0099AC33FDE03CB966446C73FBA
:10729000AF788E1DC571CC3F599322942449D23FBB
:1072A00004FA97999999D93F935555555555E53F06
:1072B0000000E0FE422EE63F763C7935EF39EA3DAC
:1072C000555555555555E53F7982DA3FFFFFEF7F1C
:1072D000FFFF3F439DA006000000F03F0000E03F9D
:1072E000FFFFEF3F0000F0BF000050C3FFFF1F3E55
:1072F0003C412D4000005043FFFF8F3C504617F0AB
:1073000015FC24A3D3E9002306460F4617F078FCAA
:10731000DDE9042317F0BEFA20A3D3E900230446D5
:107320000D463046394617F06BFC02460B462046A8
:10733000294617F0AFFA18E7504617F0F7FB17A3E6
:10734000D3E9002382468B4617F05AFC11A3D3E9F8
:107350000023804689465046594617F051FCDDE926
:10736000042317F097FA02460B463046394617F0C9
:107370008FFA22462B4674E70022054B17F088FA55
:1073800002460B464046494617F082FA41E700BFE5
:107390000000F03F763C7935EF39EA3D0000E0FE31
:1073A000422EE63F0000000008B515F097FD04A34B
:1073B000D3E9002317F04EFD08BD00BFAFF30080F6
:1073C000EF39FAFE422EE63F2DE9F043DFF8B480B4
:1073D0008BB004460D4601F0F7F898F90030013300
:1073E00006460F462CD022462B462046294617F04B
:1073F000A1FE814620BB2046294615F0FBF91FA3BC
:10740000D3E9002317F08CFED0B1194A98F9003067
:10741000CDF820900321CDE90445CDE90245CDE921
:10742000001293B113490020022BCDE9060111D1BE
:1074300017F0BCF922230360089B9BB9DDE90667BE
:10744000304639460BB0BDE8F0830B4B4FF060423D
:10745000CDE90623684617F025F80028E8D0089BF8
:10746000002BEBD017F0A2F9089B0360E6E700BF02
:10747000381104000000F07FFFFFEF477DF8B98F5F
:10748000CE338640FF8100202DE9F043DFF8E48011
:107490008BB004460D4601F047F998F900300133EE
:1074A00006460F4633D02046294616F0F5FF70B346
:1074B0002CA3D3E900232046294617F031FE81464C
:1074C00050BB2AA3D3E900232046294617F00AFE21
:1074D000E8B198F90030204ACDF820900020002132
:1074E0000426022BCDE90445CDE902450096CDE9FD
:1074F0000601019229D0684616F0D4FF28B3089BF4
:107500001BB117F053F9089B0360DDE906673046AD
:1075100039460BB0BDE8F0830F4A98F9003001926C
:1075200003210022CDE90445CDE9024500910892EE
:107530002BB90A4B4FF06042CDE90623DBE708493F
:107540000020022BCDE90601D5D117F02FF9222317
:107550000360D4E7AFF3008040110400FFFFEF4762
:107560000000F07FEF39FAFE422E864051302DD5D3
:10757000104987C0FF8100202DE9F04FDFF82C93E0
:107580008DB006460F4614461D4601F09DFC99F944
:107590000080B8F1FF3FCDE9000136D022462B46EE
:1075A0002046294617F0C6FD834670BB32463B464F
:1075B0003046394617F0BEFD8246002840F0A280D2
:1075C000304639460022002317F082FD10B3002216
:1075D00000232046294617F07BFD8346002867D00C
:1075E0009FEDA77B0122AC4BCDF828A00292CDE9FC
:1075F0000467CDE906458DED087B0393B8F1000FD4
:1076000041D09FEDA17B8DED007BDDE900010DB048
:10761000BDE8F08FDDE9000116F03EFF804600284E
:1076200000F08D804FF0000A4FF0000BDDE9000103
:1076300052465B4617F04CFD0028E6D030463946EE
:1076400016F02AFF0028E0D02046294616F024FF35
:107650000028DAD099F900308F4A039204210022E1
:10766000022BCDE90467CDE90645CDE908AB0291CF
:107670000A9203D002A816F015FF50B917F096F839
:107680002223036005E002A816F00CFF002800F09A
:107690009B800A9B1BB117F089F80A9B03609DED44
:1076A000087B8DED007BDDE900010DB0BDE8F08FBA
:1076B0002046294616F0F0FE0028A6D0002200231E
:1076C0002046294617F00EFD00289ED0724A99F9EF
:1076D0000030CDF828B00121CDE90467CDE9064599
:1076E000CDE90212002B74D06C490020022BCDE9A9
:1076F000080172D117F05AF8212303600A9B002B6E
:10770000CDD0C8E7002200232046294617F0E0FC30
:1077100000283FF47AAF624B5F49CDF828B00022D1
:107720000120B8F1020FCDE904670290CDE90645CA
:10773000CDE908230391A6D1CDE9002365E73046C2
:10774000394616F0A9FE00283FF46CAF20462946C2
:1077500016F0A2FE00283FF465AFDDE900231046D5
:10776000194617F0E7FC99F900A000286BD1032314
:10777000DFF824C10A902946204602930022494B93
:10778000CDF80CC0CDE90645CDE9046717F038FA0D
:1077900004460D46BAF1000F25D1DFF814B14FF0C1
:1077A000604A0022002330463946CDE908AB17F085
:1077B00099FC38BB02A816F075FE00289ED116F081
:1077C000F5FF2223036099E716F0F0FF2123036001
:1077D0005FE79FED2B7B8DED087B02A816F062FE24
:1077E00000288BD186E79FED2A7B002200233046BC
:1077F00039468DED087B17F075FCA0B9BAF1020F80
:10780000DDD0D7E72046294616F054FE22462B4607
:1078100017F05EFCA0B9244B99F900A04FF060422C
:10782000CDE90823EAE72046294616F043FE224622
:107830002B4617F04DFC18B9184B0022CDE9082350
:1078400099F900A0DAE70122134BCDF828800292C3
:10785000CDE90467CDE906450393BAF1000FB8D02E
:10786000002200231046194617F0F4FABAF1020F6D
:10787000CDE908013FF43EAFAFE700BFAFF30080B2
:107880000000000000000000000000000000F03FC9
:10789000000000000000F07F581104000000F0FF1D
:1078A0000000F03F0000E03FFFFFEFC7FF81002036
:1078B000FFFFEF47000000002DE9F84FC44E21F014
:1078C0000043B34204460D460DDD03F1404303F58A
:1078D0008013034340F0B980002940F34081002029
:1078E0000021BDE8F88FBB4EB34208DCBA4A934290
:1078F00000F3B5809CA1D1E90001BDE8F88F002913
:10790000C0F2708102460B460020B44916F0C0FF59
:107910000022B34B17F074F904460D4615F080FEB3
:1079200093A3D3E90023894680462946204617F0D1
:1079300067F991A3D3E9002316F0ACFF22462B464A
:1079400017F05EF98EA3D3E9002316F0A1FF2246BB
:107950002B4617F055F98CA3D3E9002316F09AFFB4
:1079600022462B4617F04CF989A3D3E9002316F0E1
:107970008FFF22462B4617F043F987A3D3E9002354
:1079800016F088FF22462B4617F03AF984A3D3E974
:10799000002382468B462046294617F031F982A300
:1079A000D3E9002316F074FF22462B4617F028F97E
:1079B0007FA3D3E9002316F06DFF22462B4617F074
:1079C0001FF97DA3D3E9002316F062FF22462B4660
:1079D00017F016F90022814B16F05CFF02460B46A9
:1079E0005046594617F036FA42464B4617F008F90A
:1079F000002682468B4632464B463046494617F0B3
:107A0000FFF802460B462046294616F041FF324653
:107A100004460D464B464046494616F03BFF02469B
:107A20000B462046294617F015FA02460B465046EB
:107A3000594616F02FFF32464B4616F02BFF0246F2
:107A40000B4616F027FFBDE8F88F02460B4616F0EE
:107A50001FFF02460B4617F0FDF9BDE8F88F0246FE
:107A60000B4617F0CDF842A3D3E9002306460F4694
:107A700017F0C6F840A3D3E9002316F00BFF3246F7
:107A80003B4617F0BDF83EA3D3E9002316F000FFF4
:107A900032463B4617F0B4F83BA3D3E9002316F077
:107AA000F9FE32463B4617F0ABF839A3D3E9002381
:107AB00016F0EEFE32463B4617F0A2F836A3D3E9A5
:107AC000002316F0E7FE32463B4617F099F834A340
:107AD000D3E90023804689463046394617F090F8AE
:107AE00031A3D3E9002316F0D3FE32463B4617F00C
:107AF00087F82FA3D3E9002316F0CCFE32463B468D
:107B000017F07EF82CA3D3E9002316F0C1FE32460D
:107B10003B4617F075F80022304B16F0BBFE0246CC
:107B20000B464046494617F095F922462B4617F07A
:107B300067F802460B4622A1D1E9000116F0A8FE23
:107B400002460B462046294616F0A2FE02460B4688
:107B500005A1D1E9000116F09BFEBDE8F88F1AA13E
:107B6000D1E9000179E700BF182D4454FB21F93F0A
:107B700009F7FD0DE13D023F88B20175E0EF493F95
:107B80003B8F68B52882A43F5544880E55C1C93F34
:107B90007D6FEB0312D6D43F555555555555C53F0E
:107BA00082922EB1C5B8B33F59018D1B6C06E63FDA
:107BB000C88A599CE52A00404B2D8A1C273A03406D
:107BC000075C143326A6913C182D4454FB21094030
:107BD000FFFFEF3FFFFFDF3F0000603C0000F03F92
:107BE0000000E03F00225C4B16F054FE00225B4B8D
:107BF00017F006F840A3D3E9002304460D4616F01B
:107C0000FFFF3FA3D3E9002316F044FE22462B4694
:107C100016F0F6FF3CA3D3E9002316F039FE224606
:107C20002B4616F0EDFF3AA3D3E9002316F032FEFF
:107C300022462B4616F0E4FF37A3D3E9002316F0C3
:107C400027FE22462B4616F0DBFF35A3D3E900239F
:107C500016F020FE22462B4616F0D2FF80468946BB
:107C60002046294615F0DCFC2FA3D3E90023064665
:107C70000F462046294616F0C3FF2DA3D3E9002363
:107C800016F006FE22462B4616F0BAFF2AA3D3E9C9
:107C9000002316F0FFFD22462B4616F0B1FF28A365
:107CA000D3E9002316F0F4FD22462B4616F0A8FF78
:107CB0000022294B16F0EEFD02460B46404649468F
:107CC00017F0C8F832463B4616F09AFF1EA3D3E9D8
:107CD000002316F0DDFD32463B4616F0DBFD024682
:107CE0000B4616F0D7FD02460B4619A1D1E900015B
:107CF00016F0CEFDB1E600BF09F7FD0DE13D023FF4
:107D000088B20175E0EF493F3B8F68B52882A43FF8
:107D10005544880E55C1C93F7D6FEB0312D6D43F41
:107D2000555555555555C53F82922EB1C5B8B33FEF
:107D300059018D1B6C06E63FC88A599CE52A004014
:107D40004B2D8A1C273A0340075C143326A6913C2E
:107D5000182D4454FB2109400000F03F0000E03F93
:107D6000414A91422DE9F84304460D4637DD3F4A2A
:107D700091420B4608DD02F1795291423DDD024607
:107D800016F088FDBDE8F88301F1404202F580124B
:107D900002432ED0B1F1804F37DC0022344B16F075
:107DA00077FD02460B4604460D4616F073FD22464B
:107DB00006460F462B462046294616F021FF02466E
:107DC0000B463046394616F065FD15F029FC224673
:107DD0002B4616F05FFDBDE8F843FFF7C1B8024639
:107DE0000B4616F055FD02460B4617F033F8BDE87A
:107DF000F88300200021BDE8F88300F00DFE18A3F1
:107E0000D3E9002316F046FDF1E7024616F0F8FE2E
:107E10000022174B16F03CFD15F002FC224680466E
:107E200089462B462046294616F034FD2246064652
:107E30000F462B464046494616F02CFD02460B469F
:107E400000200B4917F006F80B460246394630462B
:107E500016F01EFDBDE8F84300F0DEBDAFF3008074
:107E6000EF39FAFE422EE63FFFFFEF3FFFFFAF4143
:107E70000000F03F000000002DE9F04FAE4B21F074
:107E800000479F4287B004460D4611DD07F1404789
:107E900007F5801703463B4321D002460B4616F0F8
:107EA000F7FC02460B4616F0D5FF07B0BDE8F08F91
:107EB000A24B9F420E4629DCB7F1795F80F24681E2
:107EC00081A3D3E9002316F0E5FC00229C4B17F0B8
:107ED00027F9D8B12046294607B0BDE8F08F7CA32A
:107EE000D3E9002316F08CFE7BA3D3E900230646DA
:107EF0000F462046294616F083FE02460B463046C2
:107F0000394616F0C7FC07B0BDE8F08F2046294679
:107F100014F070FC02460B460020894916F0B8FCAC
:107F20000022884B16F06CFE6DA3D3E900230446B3
:107F30000D4616F065FE6CA3D3E9002316F0AAFCEB
:107F400022462B4616F05CFE69A3D3E9002316F007
:107F50009FFC22462B4616F053FE67A3D3E900236D
:107F600016F098FC22462B4616F04AFE64A3D3E98D
:107F7000002316F08DFC22462B4616F041FE62A32C
:107F8000D3E9002316F086FC22462B4616F038FE75
:107F90005FA3D3E90023CDE900012046294616F06E
:107FA0002FFE5DA3D3E9002316F072FC22462B4678
:107FB00016F026FE5AA3D3E9002316F06BFC2246E6
:107FC0002B4616F01DFE58A3D3E9002316F060FCE3
:107FD00022462B4616F014FE594B002216F05AFC8E
:107FE00082468B4620462946CDE902AB15F018FBA8
:107FF000554B9F428046894600F3198102460B4645
:1080000016F048FCDDE90223CDE90401DDE90001B9
:1080100016F020FF02460B46DDE9040116F0F0FDE4
:108020004FF0000ACDE9000152464B465046494602
:1080300016F0E6FD02460B462046294616F028FCBF
:10804000524604460D464B464046494616F022FC31
:1080500002460B462046294616F0FCFE02460B4619
:1080600016F018FC02460B461BA1D1E9000116F0E0
:108070000FFC02460B46DDE9000116F009FC5246F2
:1080800004460D464B465046494616F003FC024650
:108090000B4627A1D1E9000116F0FAFB02460B4678
:1080A0002046294616F0F4FB02460B4620A1D1E9F2
:1080B000000116F0EDFB002E3FF7F7AE01F1004393
:1080C0001946F2E6AFF300809C7500883CE4377EE9
:1080D000182D4454FB21F93F075C143326A6913C2C
:1080E00009F7FD0DE13D023F88B20175E0EF493F20
:1080F0003B8F68B52882A43F5544880E55C1C93FBF
:108100007D6FEB0312D6D43F555555555555C53F98
:1081100082922EB1C5B8B33F59018D1B6C06E63F64
:10812000C88A599CE52A00404B2D8A1C273A0340F7
:10813000182D4454FB21E93FFFFFEF3FFFFFDF3FD6
:108140000000F03F0000E03F3233EF3F02460B46B5
:1081500016F056FD4BA3D3E9002306460F4616F052
:108160004FFD4AA3D3E9002316F094FB32463B4669
:1081700016F046FD47A3D3E9002316F089FB3246EB
:108180003B4616F03DFD45A3D3E9002316F082FBE4
:1081900032463B4616F034FD42A3D3E9002316F0E5
:1081A00077FB32463B4616F02BFD40A3D3E9002374
:1081B00016F070FB32463B4616F022FD3DA3D3E994
:1081C0000023804689463046394616F019FD3BA308
:1081D000D3E9002316F05CFB32463B4616F010FD57
:1081E00038A3D3E9002316F055FB32463B4616F080
:1081F00007FD36A3D3E9002316F04AFB32463B467F
:1082000016F0FEFC00221E4B16F044FB02460B4605
:108210004046494616F01EFE22462B4616F0F0FC5C
:1082200022462B4616F036FB07B0BDE8F08F5246CB
:108230005B46DDE9000116F00DFE42464B4616F0A6
:10824000DFFC42464B4616F025FB02460B4616F075
:1082500021FB07A3D3E9002316F01AFB02460B46C5
:1082600005A1D1E9000116F013FB24E7AFF300806C
:10827000075C143326A6913C182D4454FB21F93F8A
:108280000000F03F09F7FD0DE13D023F88B20175A6
:10829000E0EF493F3B8F68B52882A43F5544880EE4
:1082A00055C1C93F7D6FEB0312D6D43F5555555587
:1082B0005555C53F82922EB1C5B8B33F59018D1BAC
:1082C0006C06E63FC88A599CE52A00404B2D8A1C63
:1082D000273A0340000000002DE9F84F1D465342A5
:1082E000134325F00049DFF8C8C149EAD373634559
:1082F000144606460F4626D8C0F1000848EA000892
:1083000021F0004A4AEAD878E04503468B461AD85D
:1083100005F1404808F5801858EA0208AE4643D0F7
:108320004FEAA57808F002085AEA030348EAD17830
:1083300011D1B8F1020F55D0B8F1030F09D14AA1FC
:10834000D1E9000105E032463B462046294616F0B9
:10835000A1FABDE8F88F59EA020329D0E1452ED0F1
:10836000E24525D0AAEB09094FEA2959B9F13C0F9A
:108370003CDC002D3EDA19F13C0F3BDA00200021F5
:10838000B8F1010F4ED0B8F1020F3ED0B8F1000F96
:10839000DFD037A3D3E9002316F07AFA36A3D3E966
:1083A000002316F075FAD4E7BDE8F84FFEF744BB9A
:1083B000BBF1000F12DB32A1D1E90001C9E7CA45C8
:1083C00034D0B8F1020F0DD0B8F1030FB7D0B8F127
:1083D000010F4FF0000036D00021BAE72AA1D1E901
:1083E0000001B6E724A1D1E90001B2E724A1D1E957
:1083F0000001C5E722462B463046394616F02AFDD5
:1084000014F0F8F9FEF718FBBAE719A3D3E9002333
:1084100016F03EFA02460B4617A1D1E9000116F00C
:1084200037FA96E701F10043194692E7B8F1020FD7
:1084300014D0B8F1030F0DD0B8F1010F06D014A17C
:10844000D1E9000185E74FF0004182E712A1D1E9AF
:1084500000017EE712A1D1E900017AE712A1D1E97A
:10846000000176E7AFF30080182D4454FB2109C0CA
:10847000075C143326A6A13C182D4454FB21094067
:10848000182D4454FB21F93F182D4454FB21F9BF0A
:10849000182D4454FB21E93F182D4454FB21E9BF1A
:1084A000D221337F7CD902C0D221337F7CD90240D4
:1084B0000000F07F0000000043422DE9F047034335
:1084C00021F000463C4A46EAD373934204460D46E7
:1084D0002AD8964240D0394B9E428A462EDD384BF0
:1084E0009E4235463FDD33460246314616F0D2F90C
:1084F000224606460F462B4600202F4916F0C8F9A3
:1085000002460B463046394616F0A4FCFEF728FD1D
:1085100000222C4B16F074FBBAF1000F0CDA01F1BB
:1085200000431946BDE8F08702460B4616F0B0F945
:1085300002460B4616F08EFCBDE8F0871CA3D3E97B
:10854000002316F0A7F90022002316F0E9FD48B138
:1085500020462946BDE8F0870022002316F07AFC69
:10856000BDE8F087354622462B462046294616F0C0
:1085700091F922462B4606460F4616F041FB22464D
:10858000804689462B4600200B4916F081F90246A9
:108590000B464046494616F05DFC32463B4616F017
:1085A00079F9FEF7DDFC0022064B16F029FBB3E754
:1085B0009C7500883CE4377E0000F03FFFFF2F3EB3
:1085C000FFFFDF3F0000E03F2DE9F8434E4B21F075
:1085D00000449C4206460F461BDC4C4B9C4222DD6D
:1085E0004B4B9C4254DD4B4B9C4246DD4A4B9C42DC
:1085F0006FDD01339C4269D041A3D3E900231046CB
:10860000194616F0FDFA06460F4630463946BDE8D3
:10861000F88302460B4616F0F3FA06460F4630463C
:108620003946BDE8F88314F0E5F802F04DFC00226D
:108630003A4B8046894616F02DF9B4F1725F064632
:108640000F46ECDB42464B464046494616F0D8FA08
:1086500032463B4604460D463046394616F01AF976
:1086600002460B462046294616F0F4FB00222B4B0F
:1086700016F010F906460F46D1E714F0BBF800F0EB
:1086800053F80022264B16F0BBFA06460F46C6E703
:1086900014F0B0F800F048F80022214B06460F46CF
:1086A00016F0AEFA324604460D463B4600201C4901
:1086B00016F0D0FB02460B462046294616F0EAF893
:1086C00006460F4630463946BDE8F883154B9842BA
:1086D00092D83046394614F08DF80022104B16F02F
:1086E0008FFA00F021F8002204460D460C4B16F0DC
:1086F00087FA22462B4616F083FA06460F468EE787
:108700009C7500883CE4377EFFFFEF7F422ED63F0A
:10871000FFFF3540412E8640CD3386400000F03FBC
:108720000000E03F7DF8B98F2DE9F047B04F21F010
:108730000042BA4284B004460D464FEAD17610D9C1
:10874000AC4FBA4240F28A80C1F31303034302469E
:1087500040F0F180002E7ED00020002104B0BDE862
:10876000F087A54B9A4200F2B680A44B9A4240F2A1
:10877000D1804FF0000A22462B462046294616F0AB
:108780003FFA85A3D3E9002306460F4616F038FAD0
:1087900083A3D3E9002316F07BF832463B4616F05C
:1087A0002FFA81A3D3E9002316F074F832463B4632
:1087B00016F026FA7EA3D3E9002316F069F83246B4
:1087C0003B4616F01DFA7CA3D3E9002316F062F8AD
:1087D00032463B4616F014FA02460B46204629461E
:1087E00016F056F802460B4606460F462046294626
:1087F00016F006FA80468946BAF1000F00F0AB8009
:1088000032463B4600204FF0804116F041F80246C8
:108810000B464046494616F01DFB02460B46DDE975
:10882000020116F035F8DDE9002316F031F80B46A9
:1088300002467349002016F02BF86FF47F739A45B7
:1088400080F2A3800AF57A7A01EB0A5100224FF0F8
:10885000B87316F0D5F904B0BDE8F08758A3D3E992
:10886000002316F05DFC00286BD157A3D3E9002349
:108870002046294616F036FC00287FF46DAF61498A
:1088800053A3D3E9002301EBC6062046294616F080
:10889000B7F9D6E9002315F0FDFF16F061FC82461A
:1088A00016F044F94CA3D3E9002306460F4616F010
:1088B000A7F902460B462046294615F0E9FF48A3D2
:1088C000D3E90023CDE900013046394616F098F986
:1088D000CDE9020115E04C4B9A42D0D84B4BF40045
:1088E0002344D3E9002315F0D3FF494B234493EDF0
:1088F000007BCDE900018DED027BC6F1010AAAEBF8
:10890000060ADDE90223DDE9000115F0C1FF044696
:108910000D4630E734A3D3E9002315F0BBFF002256
:10892000374B16F0FDFBA8B3204629460022344BF6
:1089300015F0B0FF8FE70B4615F0ACFF04B0BDE8B3
:10894000F08729A3D3E900231046194616F058F9F9
:1089500004B0BDE8F0873046394600224FF080432E
:1089600015F096FF02460B464046494616F072FA4D
:1089700022462B4615F08CFF02460B46002020496C
:1089800015F086FF04B0BDE8F08701EB0A5104B092
:10899000BDE8F0878246EEE6D0A4BE726937663E37
:1089A000F16BD2C541BDBB3E2CDE25AF6A56113FEF
:1089B00093BDBE166CC1663F3E5555555555C53FD6
:1089C000EF39FAFE422E864051302DD5104987C02E
:1089D000FE822B654715F73F0000E0FE422EE63F82
:1089E000763C7935EF39EA3D9C7500883CE4377E6A
:1089F000412E8640FFFFEF7F422ED63FFFFF2F3EE6
:108A00000000F03F48FF0300B1A2F03F58FF030011
:108A100068FF0300000000002DE9F04FB1F5801F52
:108A200085B006460F460B4680F2D08021F000420A
:108A3000024300F0DA800029C0F2E9800022D64B20
:108A400016F0DEF8D54A0B46934206460F466FF005
:108A5000350E00F3C180C3F3130505F5152C0CF694
:108A6000647C0CF4801C8CF07F5282F440121C1544
:108A700042EA0507A4F2FF3474440022C84B304692
:108A8000394604EB1C5415F003FFAB1CC3F313036E
:108A9000022B82468B464FF0000240F3AF804FF02E
:108AA000804315F0F7FE02460B465046594616F035
:108AB000D1F9064620460F4616F038F83246CDE981
:108AC00002013B4630463946CDE9006716F098F87A
:108AD00002460B468046894616F092F89AA3D3E9DF
:108AE000002306460F4616F08BF899A3D3E900231E
:108AF00015F0D0FE32463B4616F082F896A3D3E935
:108B0000002315F0C7FE32463B4616F079F894A3D1
:108B1000D3E9002315F0BEFE42464B4616F070F82E
:108B200091A3D3E90023804689463046394616F0A2
:108B300067F88FA3D3E9002315F0ACFE32463B461D
:108B400016F05EF88CA3D3E9002315F0A3FE32469D
:108B50003B4616F055F80B4602464946404615F08E
:108B600099FEA5F5C223C5F5D725A3F27A43513561
:108B70001D43002D06460F4640F387800022894B97
:108B80005046594616F03CF852465B4616F038F807
:108B900002460B46804689463046394615F07AFE35
:108BA000DDE9002316F02CF806460F46002C40F0B5
:108BB000818002460B464046494615F069FE024652
:108BC0000B465046594615F063FE0BE0734A93423C
:108BD0004FF0000E7FF73FAF32463B4630463946F6
:108BE00015F058FE05B0BDE8F08F002200230020EC
:108BF0006D4916F02FF905B0BDE8F08F002316F08F
:108C000067FA60B1002C7CD100200021EAE702461F
:108C100015F03EFE0022002316F01CF9E2E758A3EF
:108C2000D3E900235046594615F0EAFF02460B46A9
:108C300000205C4915F02CFE524606460F465B4666
:108C40005046594615F0DCFF02460B463046394681
:108C500015F0D6FF06460F462CB3204615F066FFEA
:108C600049A3D3E900238046894615F0C9FF48A3EC
:108C7000D3E9002304460D464046494615F0C0FF9F
:108C800002460B46304639462CE002460B4650461B
:108C9000594615F0FDFDDDE9002315F0B1FF06464C
:108CA0000F46002C47D132463B465046594615F0F8
:108CB000EFFD97E734A3D3E90023DDE9020115F0C6
:108CC0009FFF33A3D3E9002304460D46DDE90201EB
:108CD00015F096FF32463B4615F0DCFD02460B468A
:108CE0004046494615F0D4FD52465B4615F0D0FD8E
:108CF00002460B462046294615F0CAFD05B0BDE8E0
:108D0000F08F204615F012FF1FA3D3E9002306467B
:108D10000F4615F075FF1EA3D3E9002304460D4648
:108D20003046394615F06CFF02460B462046294670
:108D300015F0B0FD56E7DDE9028913A3D3E900235E
:108D40004046494691E700BF44523EDF12F1C23F20
:108D5000DE03CB966446C73F599322942449D23F01
:108D6000935555555555E53F9FC678D0099AC33F51
:108D7000AF788E1DC571CC3F04FA97999999D93F68
:108D8000555555555555D53F0000E0FE422EE63F5E
:108D9000763C7935EF39EA3D00005043FFFFEF7F25
:108DA0000000F03F0000E03F000050C30000000062
:108DB000B1F5801F2DE9F84304460D460B4619DA3C
:108DC00021F00042024359D000295FDB00223A4BD8
:108DD00015F016FF394A0D462B46934204466FF0B4
:108DE00035010CDD22462B462046294615F052FD62
:108DF000BDE8F883314A93424FF00001F2DC1815C8
:108E0000A0F2FF3008444FEAD0794844C3F3130876
:108E100015F08CFEC9F57F73033348EA0355064607
:108E20000F4620462946FFF7F7FD1DA3D3E900238F
:108E3000804689463046394615F0E2FE1AA3D3E94A
:108E4000002304460D464046494615F0D9FE024629
:108E50000B462046294615F01DFD15A3D3E9002336
:108E600004460D463046394615F0CAFE02460B460A
:108E70002046294615F00EFDBDE8F88300220023A8
:108E800000200F4915F0E6FFBDE8F883024615F013
:108E9000FFFC0022002315F0DDFFA9E7AFF30080FF
:108EA000362BF111F3FE593D0EE526157BCBDB3F4A
:108EB00000609F501344D33F00005043FFFFEF7FFB
:108EC000000050C3000000002DE9F04F23F00045E2
:108ED00055EA020493B00DD06B4E21F00044B44229
:108EE0000F4682460BDD04F1404404F5801454EA39
:108EF0000A0350D16549002013B0BDE8F08F9B46AE
:108F0000944647D0B542EEDC5F4EB5425DD0002FAF
:108F100080468946CDE900235BDB0026BCF1000FCB
:108F20000ED1594B9D423FD0584B9D4200F0888056
:108F3000BBF1804F00F09C80554B9B4500F0B883FF
:108F40004046494613F056FCBAF1000F06D1002CFA
:108F500059D04E4B27F040429A4254D0FF0F013F68
:108F600056EA070373D04B4B9D4240F39B8003F1BD
:108F700004739D4240F33E84474B9C4272DDBBF13B
:108F8000000F72DD3EA3D3E900231046194615F009
:108F900037FEB1E728B1414813B0BDE8F04F15F0F6
:108FA00083BAA542F7DCAFE704F1404303F5801331
:108FB00053EA0A039ED0384B9C4240F38383BBF1B3
:108FC000000F52DBDDE9000196E7BCF1000F9ED0F7
:108FD00089E7334B9D4231DCA3F154739D429CDD04
:108FE0002B15A3F2FF33142B40F3A583C3F13403F5
:108FF0002CFA03F202FA03F363458ED102F0010268
:10900000C2F102068AE7BBF1000F05DA02460B4601
:1090100000201E4915F01EFF002FBFF66DAF04F1B2
:10902000404404F5801454EA060300F03F84012E06
:109030007FF462AF01F1004319465DE702266DE758
:10904000BBF1000FC0F248834046494654E7424610
:109050004B461046194615F01BFC02460B4615F010
:10906000F9FE49E7BBF1000F8CDB0020002143E74C
:1090700042464B464046494615F0C2FD3CE700BF1C
:109080009C7500883CE4377E0000F07F0000F03FD4
:109090000000E03F0000E041FFFFEF3F88070400D1
:1090A000FFFF3F43B4F5801F80F261830022D24B63
:1090B00015F0A6FD6FF0340C0C462315CF4DC4F30C
:1090C0001302A3F2FF3342F07F546344AA420B938E
:1090D00044F4401440F33F83C94B9A4240F3048464
:1090E0009FEDAF7B8DED087B8DED107B9FEDAE7B13
:1090F0000B9B8DED067B01330B93A4F580140025AB
:10910000DDE906232146824615F0C2FBA346DDE9D0
:1091100006238046894650462146CDE90CAB15F022
:10912000B9FB02460B460020B64915F093FE0A46ED
:109130000146CDE90E12134649460246404615F057
:109140005FFD631043F0005382468B4603F5002316
:109150008C46CDE904AB5919D3460023CDE902BCB6
:109160000293DDE902AB002004460D4602460B46A1
:109170005046594615F044FD02460B4640464946C6
:1091800015F086FBDDE90623804689462046294600
:1091900015F07EFB02460B46DDE90C0115F078FB6D
:1091A00052465B4615F02CFD02460B4640464946AA
:1091B00015F06EFBDDE90E2315F022FDDDE9044517
:1091C000CDE9060122462B462046294615F018FD1A
:1091D00077A3D3E9002304460D4615F011FD76A3CD
:1091E000D3E9002315F056FB22462B4615F008FD67
:1091F00073A3D3E9002315F04DFB22462B4615F04F
:10920000FFFC71A3D3E9002315F044FB22462B4653
:1092100015F0F6FC6EA3D3E9002315F03BFB2246C4
:109220002B4615F0EDFC6CA3D3E9002315F032FBBF
:109230002246804689462B462046294615F0E0FC0A
:1092400002460B464046494615F0DAFC52460446B3
:109250000D465B46DDE9040115F01CFBDDE9062344
:1092600015F0CEFC22462B4615F014FB52468046E4
:1092700089465B465046594615F0C2FC0022624BB7
:10928000CDE90C0115F006FB42464B4615F002FBFA
:1092900002980D46044622462B465046594615F084
:1092A000AFFC002282468B46574B2046294615F0DC
:1092B000EFFADDE90C2315F0EBFA02460B464046C7
:1092C000494615F0E5FADDE9042315F099FC22463C
:1092D000804689462B46DDE9060115F091FC0246E1
:1092E0000B464046494615F0D5FA80468946024667
:1092F0000B465046594615F0CDFA029838A3D3E9EB
:10930000002304460D4615F07BFC5246CDE90401CE
:109310005B462046294615F0BBFA02460B464046FE
:10932000494615F0B5FA30A3D3E9002315F068FCDF
:109330002FA3D3E90023804689462046294615F00D
:109340005FFC02460B464046494615F0A3FADDE9AC
:10935000102315F09FFA80460B98894615F0E6FB1E
:10936000424682468B464B46DDE9040115F092FAEF
:10937000DDE9082315F08EFA52465B4615F08AFAAD
:10938000029852465B4604460D4615F081FADDE927
:10939000082315F07DFADDE9042337E0AFF3008000
:1093A0000000000000000000000000000000F03F8E
:1093B000EF4E454A287ECA3F65DBC9934A86CD3FBA
:1093C00001411DA96074D13F4D268F515555D53FA0
:1093D000FFAB6FDBB66DDB3F033333333333E33F38
:1093E000000000E009C7EE3FFD033ADC09C7EE3F8D
:1093F000F5015B14E02F3EBE000040438E98030051
:1094000079B60B000000F03F0000084015F040FA6C
:109410000B4602464946404615F03AFA013E56EAE6
:10942000070382468B4600F05E819FEDD37B8DED76
:10943000047BDDE9001200230E461746CDE90267E2
:109440000293DDE9026708463B461146324615F0B5
:109450001FFA22462B4615F0D3FBDDE90023804698
:1094600089465046594615F0CBFB02460B4640460E
:10947000494615F00FFA3246804689463B4620465B
:109480002946CDE9008915F0BBFB0B46024606468E
:109490000F464046494615F0FDF9D14B9942044626
:1094A0000D468A4640F3248101F13F4303F5E00372
:1094B000034340F0FF81B2A3D3E90023DDE90001BB
:1094C00015F0E8F93246804689463B462046294653
:1094D00015F0DEF902460B464046494615F020FEDF
:1094E000002840F0E781A8464FEA2853A3F2FE3255
:1094F0004FF4801313415344C3F30A52B94DA2F2FF
:10950000FF321541C3F3130423EA05010020C2F121
:10951000140B44F48014BAF1000F02460B4644FACF
:109520000BFB30463946B8BFCBF1000B15F0B0F954
:1095300006460F463246DDE900013B4615F0AAF922
:109540004FEA0B5A0D4600248FA3D3E9002320468F
:10955000294615F055FB3246804689463B46204653
:10956000294615F095F902460B46DDE9000115F094
:109570008FF987A3D3E9002315F042FB86A3D3E933
:10958000002306460F462046294615F039FB0246C1
:109590000B463046394615F07DF906460F46024621
:1095A0000B464046494615F075F942464B4604467F
:1095B0000D4615F06DF902460B463046394615F05A
:1095C00067F92246804689462B462046294615F0F3
:1095D00017FB73A3D3E9002306460F4615F010FBD3
:1095E00071A3D3E9002315F053F932463B4615F039
:1095F00007FB6FA3D3E9002315F04CF932463B4635
:1096000015F0FEFA6CA3D3E9002315F041F93246B8
:109610003B4615F0F5FA6AA3D3E9002315F03AF9B1
:1096200032463B4615F0ECFA02460B4620462946E8
:1096300015F02EF906460F4602460B4620462946EF
:1096400015F0DEFA0022CDE900014FF080433046EC
:10965000394615F01DF902460B46DDE9000115F00B
:10966000F9FB424606460F464B462046294615F072
:10967000C7FA42464B4615F00DF902460B463046F6
:10968000394615F005F922462B4615F001F9024638
:109690000B460020544915F0FBF88A44BAF5801FA8
:1096A000C0F232815146DDE9042315F0A9FA23E422
:1096B000002FFFF645AC4046494613B0BDE8F04FD9
:1096C00013F0AEBFBBF1000FBFF6CFACDDE9003445
:1096D000184604F100410FE442464B46002042493F
:1096E00015F0B8FB08E49FED387B8DED047BA0E618
:1096F0003E4B21F00048984540F3EA803C4B0B4438
:1097000003430AD132463B4615F0C2F8DDE9002397
:1097100015F0FCFC00283FF4E7AEDDE904012CA3C2
:10972000D3E9002315F06CFA29A3D3E9002315F03F
:1097300067FAFFF7E1BBBCF1000F40F0D280C3F144
:10974000140345FA03F202FA03F3AB4200F0E0809F
:109750006646FFF7E9BB9FED207B8DED087B8DED25
:10976000107B9FED057B00258DED067BC8E44FF057
:10977000000CA2E4AFF30080000000000000F03F06
:10978000FE822B654715973C00000000432EE63F04
:10979000EF39FAFE422EE63F396CA80C615C20BE20
:1097A000D0A4BE726937663EF16BD2C541BDBB3EE7
:1097B0002CDE25AF6A56113F93BDBE166CC1663FC5
:1097C0003E5555555555C53F000000000000F0BFFF
:1097D00059F3F8C21F6EA501000000000000000050
:1097E000FFFF8F40FFFF0F000000F03FFFCB9040D6
:1097F00000346F3F5A4B9C427FF734AC594B9C422C
:109800003FF7BDAB0022574B15F042F844A3D3E914
:10981000002304460D4615F0F3F943A3D3E90023D2
:1098200082468B462046294615F0EAF90022CDE90A
:1098300002014D4B2046294615F0E2F902460B463F
:109840003BA1D1E9000115F023F822462B4615F083
:10985000D7F902460B460020444915F019F8224674
:10986000804689462B462046294615F0C9F902460E
:109870000B464046494615F0C3F92FA3D3E9002310
:1098800015F0BEF902460B46DDE9020115F000F8BD
:1098900002460B46804689465046594614F0FAFF68
:1098A000002004460D4652465B46AFE502460B4695
:1098B000FFF7CFBBDDE9040121A3D3E9002315F0B5
:1098C0009FF91FA3D3E9002315F09AF9FFF714BB02
:1098D000264B98453FF708AEDDE9022392469346B2
:1098E00031E60026FFF72CBB9FED177B8DED087B43
:1098F0009FED177B8DED107B9FED177B4FF480253F
:109900008DED067BFFF7FCBB5A4601F029FDCAE648
:1099100002F00102C2F10206FFF706BBAFF30080BE
:10992000000000604715F73F44DF5DF80BAE543E82
:10993000555555555555D53FFE822B654715F73F73
:109940009C7500883CE4377E0000004003B8E23F8D
:1099500006D0CF43EBFD4C3E000000000000F83F76
:10996000FEFFEF3F0000F03F0000D03F0000E03F6F
:109970002DE9F047CA4B21F000479F4290B0804646
:10998000894640F38F80C74B9F420C46924626DCA7
:109990000029B9A3D3E9002340F38F8014F078FFA6
:1099A000C14B9F4204460D4600F04781B4A3D3E962
:1099B000002314F06DFF02460B46CAE9002320463F
:1099C000294614F065FFAEA3D3E9002314F060FF2D
:1099D0000125CAE90201284610B0BDE8F087B34B63
:1099E0009F4240F38980B24B9F4200F31C813D159A
:1099F000A5F21645A7EB055319461F46064615F076
:109A0000AFFB15F093F88046894642464B463046F8
:109A10003946CDE90A8914F03BFF0022A54B15F029
:109A2000EFF88946804615F09BFB15F07FF8064657
:109A30000F4632463B4640464946CDE90C6714F096
:109A400027FF00229B4B15F0DBF800220023CDE915
:109A50000E0115F03DFB002800F060810023304628
:109A60003946002215F034FB002814BF01230223DD
:109A7000914A019202212A4600910AA8514600F01B
:109A800087FB002C054614DADAF80420DAF80C30EB
:109A900002F1004203F100434542CAF80420CAF82B
:109AA0000C3006E000200021C2E90089C2E9020171
:109AB0000025284610B0BDE8F08714F0EBFE7A4B85
:109AC0009F4204460D4600F00B816DA3D3E90023AD
:109AD00014F0E0FE02460B46CAE900232946204660
:109AE00014F0D6FE66A3D3E9002314F0D3FE4FF0A2
:109AF000FF35CAE90201DCE712F07CFE62A3D3E97C
:109B000000238046894615F07BF800226B4B14F049
:109B1000C1FE15F025FB054615F008F856A3D3E95C
:109B20000023CDE9060115F06BF802460B464046CE
:109B3000494614F0ADFE52A3D3E90023804689467E
:109B4000DDE90601CDE9028915F05AF81F2D02461C
:109B50000B46CDE9042340F3B380DDE90423DDE9BE
:109B6000020114F095FE804689463F15C9F30A5359
:109B7000FB1A102B40F3B18045A3D3E90023DDE9A4
:109B8000060115F03DF88046894602460B46DDE9A0
:109B9000020114F07DFE02460B46DDE90201CDE92B
:109BA000082314F075FE42464B4614F071FE3AA3AA
:109BB000D3E9002380468946DDE9060115F020F847
:109BC00042464B4614F064FE0B46CDE904010246C2
:109BD000DDE9080114F05CFEC1F30A53FF1A312FCE
:109BE0008046894600F39C809DED087BCAE9008988
:109BF0008DED027B42464B46DDE9020114F048FE42
:109C0000DDE9042314F044FE002CCAE90201BFF68A
:109C100050AF09F1004401F100436D42CAE90084EC
:109C2000CAE9020345E702460B4614F031FE00255F
:109C3000CAE90201CAE900013BE715A3D3E9002301
:109C400014F026FE14A3D3E900230D46044614F0B5
:109C50001FFE02460B46CAE900232946204614F09F
:109C600017FE0DA3D3E9002314F012FE0125CAE963
:109C700002011EE7AFF3008000004054FB21F93FD2
:109C80003163621A61B4D03D83C8C96D305FE43F6F
:109C90000000601A61B4D03D7370032E8A19A33B93
:109CA000FB21E93F7BD90240FB21F93FFB213941F0
:109CB000FFFFEF7F00007041FC1104000000E03F57
:109CC0004046494614F0E4FD394B6A1E804653F87D
:109CD0002230BB4289463FF448AFCAE9008989E790
:109CE0002BA3D3E9002314F0D5FD2BA3D3E9002344
:109CF0000D46044614F0CEFD02460B46CAE9002389
:109D00002946204614F0C4FD23A3D3E9002314F010
:109D1000C1FD4FF0FF35CAE90201CAE60323A7E6F9
:109D20001FA3D3E90023DDE9060114F069FF06460D
:109D30000F4602460B46DDE9080114F0A9FD8046F6
:109D4000894602460B46DDE90801CDE9028914F097
:109D50009FFD32463B4614F09BFD13A3D3E900233D
:109D600006460F46DDE9060114F04AFF32463B463F
:109D700014F08EFD02460B4640464946CDE90423C9
:109D800014F086FD80468946A7E700BFAFF3008048
:109D90000000601A61B4D03D7370032E8A19A33B92
:109DA0000000002E8A19A33BC14920259A837B39E4
:109DB0007C11040000000000574A2DE9F84F21F003
:109DC0000048904506460F462CDC544B0029B4BF92
:109DD000534D544D98454FF0000411DC524B9845BB
:109DE00026DC4BA3D3E9002314F054FD00224F4B93
:109DF00015F096F9002840D030463946BDE8F88F76
:109E00004B4B984530DD4B4B984568DD0133984509
:109E100062D0304639463EA3D3E9002314F0F0FE69
:109E2000BDE8F88F02460B4614F034FDBDE8F88F0C
:109E300012F0E0FC01F048F83F4B984506460F460B
:109E400023DD0022394B14F025FD02460B46304637
:109E5000394614F0FFFF32463B4614F01BFD224604
:109E60002B4614F0CDFEE1E712F0C4FCFEF75CFCDB
:109E700022462B4614F0C4FED8E73046394612F08D
:109E8000B9FC01F021F806460F4632463B46304603
:109E9000394614F0FFFC324682468B463B4630463C
:109EA000394614F0ADFE0022804689461F4B3046ED
:109EB000394614F0EFFC02460B464046494614F082
:109EC000C9FF02460B465046594614F0E1FC2246B3
:109ED0002B4614F095FEA9E7184B984299D83046C6
:109EE000394612F087FC00220E4B14F089FEFEF773
:109EF0001BFC06460F4602460B462046294614F038
:109F00007FFE32463B4614F07BFE8FE7AFF30080C6
:109F10003374AC3C1F7BAC7FFFFFEF7FFFFF35400E
:109F20000000E0BF0000E03FFFFF2F3E0000F03FD9
:109F3000412E8640CD338640FFFFEF3F7DF8B98F3D
:109F40002DE9F04F21F00048B8F1795F85B0064661
:109F50000F4692469B466BDA15F002F9002800F096
:109F6000E18032463B463046394614F049FE74A340
:109F7000D3E9002304460D4614F042FE72A3D3E950
:109F8000002314F087FC22462B4614F039FE70A300
:109F9000D3E9002314F07CFC22462B4614F030FE5B
:109FA0006DA3D3E9002314F075FC22462B4614F070
:109FB00027FE6BA3D3E9002314F06AFC22462B464C
:109FC00014F01EFE68A3D3E9002314F063FC2246BC
:109FD0002B4614F015FECDE900010022664B204609
:109FE000294614F00DFEDDE900238046894620460F
:109FF000294614F005FE524604460D465B4630469F
:10A00000394614F0FDFD02460B462046294614F061
:10A010003FFC02460B464046494614F039FC0246D6
:10A020000B460020554914F033FC05B0BDE8F08F15
:10A0300002460B4614F0E4FD41A3D3E90023044695
:10A040000D4614F0DDFD40A3D3E9002314F022FCFB
:10A0500022462B4614F0D4FD3DA3D3E9002314F08F
:10A0600017FC22462B4614F0CBFD3BA3D3E900237B
:10A0700014F010FC22462B4614F0C2FD38A3D3E99D
:10A08000002314F005FC22462B4614F0B9FD36A33C
:10A09000D3E9002314F0FEFB2B46224614F0B0FD5A
:10A0A000374B9845CDE9000197DD364B98453EDCAE
:10A0B000A8F500130022002030499046994614F07C
:10A0C000E7FBCDE9020100222B4B2046294614F084
:10A0D00097FD42464B4614F0DBFBDDE9002380464A
:10A0E00089462046294614F08BFD524604460D460B
:10A0F0005B463046394614F083FD02460B46204647
:10A10000294614F0C5FB02460B464046494614F06A
:10A11000BFFB02460B46DDE9020114F0B9FB05B0B6
:10A12000BDE8F08F1549002005B0BDE8F08F9FED28
:10A13000107B4FF000088DED027BDFF84C90C2E7FA
:10A14000D43888BEE9FAA8BDC4B1B4BD9EEE213EA4
:10A15000AD529C804F7E923E9015CB19A001FA3EE5
:10A160007751C1166CC1563F4C5555555555A53FB5
:10A17000000000000000E73F0000E03F0000F03F6B
:10A180003233D33F0000E93F0000D23F000000001F
:10A190002DE9F04FADF5197DBE4CA29EBE4D54F891
:10A1A00026600793D41E85FB0475E417C4EBA50451
:10A1B00024EAE4741D46631CA3EB8303013D02EB18
:10A1C000C3030593731904960994019503900B91A9
:10A1D000A4EB05071AD43B44002400255E1C0DF1B6
:10A1E0008008DDF88C9208E059F8270014F09EFCF6
:10A1F0000137B742E8E8020108D0002FF4DA01374E
:10A2000020462946B742E8E80201F6D1049B002B1C
:10A21000079B4FEAC30302932ADB039A20A902EBB0
:10A22000030801EB0309049B72AA02EBC30B0DF5B3
:10A23000E07A019B002B4FF000064FF0000711DB86
:10A24000039C4D4675E90223F4E8020114F0D8FCA2
:10A2500002460B463046394614F01CFB4445064680
:10A260000F46EFD1EAE80267DA4509F10809E0D1C3
:10A27000DDE90204049920448B0082460BA8A3F177
:10A280000802C31808930CAB13440A938B4698AB8F
:10A2900003EBCB03BBF1000F53E9284529DD70AB7D
:10A2A00003EBCB080DF1300900227C4B20462946F8
:10A2B00014F0A6FC14F054FF14F038FC0022784B84
:10A2C00006460F4614F09CFC02460B4620462946E3
:10A2D00014F0DEFA14F044FF78E9022349F8040B85
:10A2E0003946304614F0D6FA70AB984504460D4610
:10A2F000DAD1DDF81490204629464A4601F030F8BC
:10A3000000224FF07F5304460D4614F079FCFCF711
:10A31000A7FD0022634B14F073FC02460B46204657
:10A32000294614F0B5FA0D46044614F019FF80468C
:10A3300014F0FCFB0B4602462946204614F0A8FA0E
:10A340004B46002B06460F4640F3E1800BF1FF32EF
:10A350000CA9C9F1180351F8225045FA03F101FA8A
:10A3600003F30CA8EB1A40F82230C9F11705884412
:10A3700043FA05F5002D2CDDBBF1000F08F10108B3
:10A3800040F381820C9C002C40F0A780BBF1010FB0
:10A390000AD00CA9012251F8044F531C002C40F0A4
:10A3A0009E809B451A46F6D1059B002B0EDD012BA6
:10A3B00000F0D980022B09D10BF1FF320CAB0CA9B4
:10A3C00053F82230C3F3150341F82230022D00F078
:10A3D000AF80002200233046394614F079FE002871
:10A3E00000F05382049B0BF1FF394B4510DC0BF15D
:10A3F00080430CAA013B089802EB8303002253F828
:10A400000419834242EA0102F9D1002A40F0B680E1
:10A41000049B0CAA013B52F82330002B40F0A18092
:10A420000A9A012352F8041901330029FAD05B4437
:10A430000BF10109994506934CDC099A079909EB40
:10A44000020801EB0B0508F1804802EB030BA39B0C
:10A4500008F1FF3803EB880870AB03EBC909A39B35
:10A4600020A903EB8B0301EBC505029358F8040FF9
:10A4700014F05CFB0B4601990246002905F1080B1C
:10A48000C5E900234FF000064FF000071CDB039CDA
:10A490000CE000BF9C160400ABAAAA2A0000703E84
:10A4A000000070410000204075E90223F4E8020139
:10A4B00014F0A6FB02460B463046394614F0EAF982
:10A4C000544506460F46EFD1029B9845E9E80267DE
:10A4D0005D46CBD1DDF818B0D9E6012300220CA9E6
:10A4E000C4F180749B4541F822400EDD51F82320D1
:10A4F00001EB8B0001EB83036FF07F4100E01A68F2
:10A500008A1A43F8042B8342F9D101244CE706D17F
:10A510000BF1FF330CAA52F82350ED152AE7002265
:10A520007B4B14F0F3FD002840F0A381054650E773
:10A5300032463B460020774914F0AAF906460F46FA
:10A54000002C3FF446AF059A7249002000F008FF46
:10A5500002460B463046394614F09AF906460F4635
:10A5600037E7012363E70BF1FF320CAB0CA953F87B
:10A570002230C3F3160341F8223027E70CAB059ACB
:10A5800053F82930183ACDE9068505926BB909F1DF
:10A590008043013B0CA901EB830353F8041909F133
:10A5A000FF39183A0029F8D00592059A5949002038
:10A5B00000F0D6FEB9F1000F04460D46C0F2C0818E
:10A5C0004FEAC90370AA02EB030808930CAB03EB34
:10A5D0008906DFF844B14FF0000A08F10807043695
:10A5E00056F8040D14F0A2FA22462B4614F008FB8C
:10A5F0005B4667E9020152462046294614F000FBFB
:10A600000CAB9E4204460D46EAD148AB039301933E
:10A61000CDF8149009F10103DDF810900293C346C0
:10A620004FF0000AB9F1000FC0F22A81DFF8EC8088
:10A630005D4635A3D3E9002300260027002403E06C
:10A64000544510DCF8E80223F5E8020114F0D8FACA
:10A6500002460B463046394614F01CF90134A14538
:10A6600006460F46ECDA019BE3E802670193029B82
:10A670000AF1010A9A45ABF1080BD3D1A29BDDF890
:10A680001490032B39D8DFE813F0D9000600060038
:10A690004D0048AB0393B9F1000F4FF000004FF0AD
:10A6A000000109DB039D05EBC904083474E90223AA
:10A6B00014F0F0F8A542F9D1079B002B40F01E8161
:10A6C0000B9BC3E900010B4603990246D1E9000147
:10A6D00014F0DEF8B9F1000F0CDD4AAD01240134AD
:10A6E000F5E8022314F0D6F8A145F8DA079B002B11
:10A6F00040F014810B9BC3E90201069B03F00700A5
:10A700000DF5197DBDE8F08F00000040FB21F93FF9
:10A710000000E03F0000F03F0000703E90FF0300AB
:10A7200048AB0393B9F1000F40F32781039ACDF8AA
:10A7300010904FEAC9030193D318D3E900AB09F194
:10A740000053013B02EBC9080293914678E9026786
:10A7500052465B463046394614F09CF804460D4696
:10A7600002460B463046394614F092F852465B4694
:10A7700014F090F8C145A246AB46C8E90201C8E909
:10A780000045E3D1DDF81090B9F1010F40F3F580F9
:10A79000019B039A02991344C900D3E9006701F1B0
:10A7A000080A019192440DF5947B7AE902893246B8
:10A7B0003B464046494614F06DF804460D460246B5
:10A7C0000B464046494614F063F832463B4614F0C7
:10A7D00061F8D34526462F46CAE90201CAE9004579
:10A7E000E3D1019C039B1034002000211C4403F1A1
:10A7F000100574E9022314F04DF8A542F9D1039C29
:10A80000079ED4E90023D4E90245002E00F08A8097
:10A8100003F1004701F100430B99C1E90403069BD2
:10A820002646944605F1004403F00700C1E900C73D
:10A83000C1E902640DF5197DBDE8F08F089C039D08
:10A840000834002000212C4474E9022314F022F87B
:10A85000A542F9D1079B13B101F1004319460B9BA7
:10A86000C3E90001069B03F007000DF5197DBDE863
:10A87000F08FBBF1000F08F1010874DD022581E5BE
:10A8800000260027EFE600248EE5CDE90685059D2C
:10A89000304639466A4200F063FD0022384B0646D6
:10A8A0000F4614F033FC00B30022364B30463946D5
:10A8B00014F0A6F914F054FC044614F037F9002201
:10A8C0002F4B14F09DF90B4602463946304613F0E3
:10A8D000DFFF14F045FC0BF101090CAB183543F810
:10A8E0002B00059543F829405FE63046394614F0C1
:10A8F00037FC0CABD94643F82B0056E60B9C01F114
:10A900000043C4E900030B4603990246D1E9000164
:10A9100013F0BEFFB9F1000F3FF7DFAE01F10043C6
:10A920001946E7E60B9EC6E90023069BC6E904012B
:10A9300003F00700C6E902450DF5197DBDE8F08F6B
:10A94000A29B032B3FF6D9AE01A252F823F000BF21
:10A9500061A9020093A6020093A6020021A70200AB
:10A960000020002176E732463B460020064913F0DE
:10A970008FFF022506460F462BE5002000213EE70B
:10A98000000070410000703E0000F03F0000000039
:10A990002DE9F04F21F00046B6F1795F85B004460D
:10A9A0000D469046994604DA14F0DAFB002800F0D0
:10A9B000858022462B462046294614F021F906467A
:10A9C0000F4602460B462046294614F019F941A3CA
:10A9D000D3E9002382468B463046394614F010F9FD
:10A9E0003EA3D3E9002313F053FF32463B4614F055
:10A9F00007F93CA3D3E9002313F04CFF32463B4652
:10AA000014F0FEF839A3D3E9002313F041FF3246D6
:10AA10003B4614F0F5F837A3D3E9002313F03AFFCF
:10AA20000E9BCDE900019BB30022294B40464946CD
:10AA300014F0E6F8DDE90023CDE90201504659465D
:10AA400014F0DEF802460B46DDE9020113F020FFA8
:10AA500032463B4614F0D4F842464B4613F018FFFA
:10AA600019A3D3E9002306460F465046594614F071
:10AA7000C7F802460B463046394613F00BFF024634
:10AA80000B462046294613F003FF05B0BDE8F08FC2
:10AA900002460B463046394614F0B2F80AA3D3E911
:10AAA000002313F0F5FE52465B4614F0A9F8224647
:10AAB0002B4613F0EFFE05B0BDE8F08F2046294687
:10AAC00005B0BDE8F08F00BF495555555555C53FF8
:10AAD0000000E03F7CD5CF5A3AD9E53DEB9C2B8A6C
:10AAE000E6E55A3E7DFEB157E31DC73ED561C1196B
:10AAF000A0012A3FA6F810111111813F00000000AB
:10AB00002DE9F04FC04C21F0004687B0A6428246A6
:10AB10008B460F46CDE900231ADC14F021FB0028F8
:10AB20003FD1109B524601331343334300F0B781AA
:10AB3000109B012B00F0C0815B460020B34914F04C
:10AB400089F904460D462046294607B0BDE8F08F36
:10AB5000AF4B9E4225DD002909DADDE9004522469A
:10AB600005F10043CDE900230BF100418B4652462D
:10AB70005B4685A1D1E9000113F08AFEDDE90023DF
:10AB800004460D4682A1D1E9000113F081FE9FED3C
:10AB9000827B22462B468DED007B13F07BFE8246A6
:10ABA0008B4652465B465046594614F029F80246F9
:10ABB0000B468046894614F023F8424604460D466B
:10ABC0004B465046594614F01BF875A3D3E90023B1
:10ABD000CDE902012046294614F012F872A3D3E908
:10ABE000002313F057FE22462B4614F009F870A3F9
:10ABF000D3E9002313F04EFE22462B4614F000F852
:10AC00006DA3D3E9002313F045FE22462B4613F033
:10AC1000F7FF6BA3D3E9002313F03CFE22462B463B
:10AC200013F0EEFF68A3D3E9002313F033FE42468E
:10AC30004B4613F0E5FF66A3D3E90023CDE90401F9
:10AC40002046294613F0DCFF63A3D3E9002313F069
:10AC500021FE22462B4613F0D3FF61A3D3E9002344
:10AC600013F018FE22462B4613F0CAFF5EA3D3E969
:10AC7000002313F00FFE22462B4613F0C1FF5CA306
:10AC8000D3E9002313F006FE22462B4613F0B8FF4B
:10AC900059A3D3E9002313F0FDFD02460B46DDE97D
:10ACA000040113F0F7FDDDE9022313F0A9FFDDE94C
:10ACB000004522462B4613F0EDFD42464B4613F06D
:10ACC0009FFF22462B4613F0E5FD4DA3D3E9002359
:10ACD00004460D46DDE9020113F092FF22462B46A1
:10ACE00013F0D8FD0B460246804689465046594629
:10ACF00013F0D0FD464B9E4204460D4600F38C8077
:10AD0000109B012B3BD002460B4600203F4914F01C
:10AD1000A1F8002406460F462046294652465B46C7
:10AD2000CDE90067CDE90201009413F0B1FDDDE942
:10AD300000AB02460B464046494613F0A9FD524679
:10AD40005B4613F05DFF524604460D465B46DDE967
:10AD5000020113F055FF00222E4B13F09BFD02461B
:10AD60000B462046294613F095FD32463B4613F02C
:10AD700047FF52465B4613F08DFD04460D462046C4
:10AD8000294607B0BDE8F08F182D4454FB21E93F58
:10AD9000075C143326A6813C000000000000000080
:10ADA000D47ABF74702AFB3EE9A7F0320FB8123F85
:10ADB00068108D1AF726303F1583E0FEC8DB573F39
:10ADC00093846EE9E326823FFE41B31BBAA1AB3FF9
:10ADD000735360DBCB75F3BEA69237A0887E143F19
:10ADE0000165F2F2D844433F280356C9226D6D3FF6
:10ADF00037D60684F464963F7AFE10111111C13FD4
:10AE0000635555555555D53FFFFF2F3E0000F0BF08
:10AE10002794E53F0000F03F109813F087FE22468C
:10AE2000CDE900012B462046294613F0E9FEDDE975
:10AE30000023CDE902012046294613F02BFD0246EE
:10AE40000B46DDE9020114F005F842464B4613F0CB
:10AE50001FFD02460B465046594613F019FD0246A7
:10AE60000B4613F017FD02460B46DDE9000113F017
:10AE70000FFD0446B81700F00200C0F101000D46B6
:10AE800013F054FE02460B462046294613F0B8FE46
:10AE900004460D462046294607B0BDE8F08F5046CF
:10AEA000594611F0A7FC02460B460020044913F056
:10AEB000D1FF04460D4662E754465D465FE700BF9A
:10AEC0000000F03F000000002DE9F04FCC4A21F0D7
:10AED0000043934285B082468B460C4620D9C94A2E
:10AEE000934200F2D780002C80F2A481ACA3D3E976
:10AEF00000235046594613F0CDFC0022002314F0E5
:10AF0000F1F8002840F0D180A7A3D3E900235046F0
:10AF1000594613F075FE02460B460020BA4994E1EB
:10AF2000BA4A934200F2E580B94A934240F22E8138
:10AF3000002301930022B74B5046594613F060FEA0
:10AF400006460F4602460B465046594613F058FE39
:10AF500097A3D3E9002304460D4613F051FE96A3B0
:10AF6000D3E9002313F096FC22462B4613F048FE4B
:10AF700093A3D3E9002313F08BFC22462B4613F056
:10AF80003FFE91A3D3E9002313F084FC22462B4615
:10AF900013F036FE8EA3D3E9002313F079FC22468A
:10AFA0002B4613F02DFE00229B4B13F073FC8046C2
:10AFB000894602460B463046394613F021FE0246CA
:10AFC0000B460020954913F063FC064602460B46EB
:10AFD0000F464046494613F05BFC324680468946A0
:10AFE0003B465046594613F00BFE02460B460020E6
:10AFF0008B4913F04DFC02460B464046494613F080
:10B0000029FF22462B4613F0FBFD019E02460B460C
:10B01000002E4DD0DDE9026732463B4613F038FC86
:10B0200052465B4613F0ECFD32463B4613F030FCD3
:10B030002B46224613F02CFC019B013306460F469B
:10B0400000F02381019B012B7BD0019A531C392BEB
:10B050004FEA025500F22881019A132A40F35581E4
:10B06000019BC3F57F7403340022230513F012FC07
:10B0700002460B465046594613F00AFC0022664B26
:10B0800013F008FC824605EB010B5046594605B00B
:10B09000BDE8F08F634A93421BD9C1F31303034306
:10B0A000024640F012810029EFDA00205E490DE0EF
:10B0B0005046594613F0A4FD22462B4613F0E8FBF8
:10B0C00002460B465046594613F0E2FB05B0BDE878
:10B0D000F08F41A3D3E9002314F022F800283FF4B5
:10B0E00002AF3FA3D3E900231046194613F088FDB1
:10B0F000ECE74E4A934200F2EC8000293AA3D3E9F0
:10B10000002339DA13F0C6FB39A7D7E900674FF0FF
:10B11000FF3380468946019332463B4640464946C6
:10B1200013F0B6FB02460B4682468B464046494624
:10B1300013F0AEFB32463B4613F0AAFBCDE9020109
:10B14000F8E600223A4B5046594613F0CBFF002850
:10B1500000F0CC805046594600222E4B13F09AFB4B
:10B1600002460B463046394613F092FB00224FF060
:10B17000404313F045FDA9E713F08AFB0123804605
:10B18000894601931CA7D7E90067C5E714A3D3E953
:10B19000002313F07FFB02460B468FE7AFF30080DE
:10B1A00059F3F8C21F6EA501FE822B654715F73FC4
:10B1B0002DC3096EB7FD8ABE3952E686CACFD03E8E
:10B1C000B7DBAA9E19CE143F8555FE19A0015A3F40
:10B1D000F41011111111A13FEF39FAFE422E8640F1
:10B1E0009C7500883CE4377E0000E0FE422EE63F7E
:10B1F000763C7935EF39EABD763C7935EF39EA3D71
:10B2000079684340412E86400000E0BF422ED63F81
:10B21000FFFF8F3C0000E03F0000F03F00000840CF
:10B2200000001840FFFFEF7F0000F0BFB1A2F03F29
:10B230000000D0BF44A3D3E900235046594613F081
:10B24000DFFC02460B460020414913F023FB13F0BC
:10B2500087FF019013F06AFC37A3D3E90023064669
:10B260000F4613F0CDFC02460B465046594613F0EC
:10B270000FFB33A3D3E90023804689463046394685
:10B2800013F0BEFC06460F4646E702460B46504604
:10B29000594613F0FDFA00222D4B13F0B1FC0022A9
:10B2A0002B4B13F0F5FA11E752465B4613F0F0FA18
:10B2B00002460B460020274913F0EAFA6B1819469C
:10B2C0000022244B13F0E4FA00E70B4613F0E2FAF5
:10B2D000FCE61DA3D3E9002313F092FC002C0246E8
:10B2E0000B464FF00000AFDA1B49AEE732463B4653
:10B2F0005046594613F0CCFA02460B4613F0CAFAF0
:10B300000022144B13F0C6FAE0E64FF4001343FAA0
:10B3100002F452465B4613F0BBFAC4F17F57002695
:10B3200007F5401702460B463046394613F0B0FA8F
:10B33000A8E600BFAFF300800000E0FE422EE63F2B
:10B34000763C7935EF39EA3DFE822B654715F73FAC
:10B350000000E03F0000F03F0000E0BF0000000000
:10B36000F8B5C1F30A5304460D460E4617460BBB0B
:10B3700021F00046034633431BD0354B002213F027
:10B380003FFC344B9F4204460D4635DBC1F30A5364
:10B390000E46363B3B4440F2FE72934232DC002BB9
:10B3A00011DD26F0FF4626F4E00646EA0355204666
:10B3B0002946F8BD40F2FF729342EBD102460B469C
:10B3C00013F068FAF8BD13F1350F28DA4CF2503358
:10B3D0009F4222462B460ADD19A1D1E9000113F054
:10B3E000C9F917A3D3E9002313F00AFCF8BD16A18D
:10B3F000D1E9000113F0BEF913A3D3E9002313F040
:10B40000FFFBF8BD22462B460DA1D1E9000113F048
:10B41000B1F90BA3D3E9002313F0F2FBF8BD26F03A
:10B42000FF4626F4E006363346EA03552046294611
:10B430000022094B13F0E4FBF8BD00BFAFF300801E
:10B440009C7500883CE4377E59F3F8C21F6EA50155
:10B4500000005043B03CFFFF0000903C10B5054C8D
:10B46000237833B9044B13B10448AFF300800123B0
:10B47000237010BD1085002000000000F4170400A8
:10B4800008B5034B1BB103490348AFF3008008BD67
:10B490000000000014850020F4170400154B002B59
:10B4A00008BF134B9D46A3F5803A00218B460F46FB
:10B4B0001348144A121A09F005F90F4B002B00D05B
:10B4C00098470E4B002B00D0984700200021040025
:10B4D0000D000D48002802D00C48AFF3008013F097
:10B4E0007FF92000290005F025F913F065F900BF68
:10B4F0000000080000000420000000000000000020
:10B5000000840020808C002000000000000000006B
:10B5100070B504460E4600F047FA88B10368DB6A4E
:10B5200005469847082C0CD0A4F10903012B14D927
:10B530003246214610230D20BDE8704004F058B873
:10B5400070BD2B6828465B6A98470228F0DC2B68A0
:10B5500028461B6A04219847EAE72B6828465B6A5D
:10B5600098470528E4DC2B6828461B6A0821984781
:10B57000DEE700BF38B52DED028B054600F014FA6A
:10B58000044640B10368DB6A9847032D03D8DFE81F
:10B5900005F02F363D06BDEC028B002038BD20465D
:10B5A0000CF080FC07EE900A2046F8EEE78A0CF0DB
:10B5B00089FC07EE900A2046B8EEE78A0CF092FC70
:10B5C00068EE087A07EE100AE8EEA87AB8EEC77AB5
:10B5D000E7EE077AF5EE407AF1EE10FAB1EEE78A7F
:10B5E0001BD4FDEEC87ABDEC028B17EE900A38BD75
:10B5F000BDEC028B2046BDE838400CF053BCBDECDE
:10B60000028B2046BDE838400CF05CBCBDEC028BE0
:10B610002046BDE838400CF065BC17EE900A11F0EA
:10B6200099FEDEE738B5044600F0BEF958B103686C
:10B63000DB6A0546984744B1012C04D12846BDE891
:10B640003840FBF73DB9002038BD2846BDE83840FA
:10B65000FBF716B910B5044600F0A6F928B1036847
:10B6600021461B6ABDE81040184710BD00487047CE
:10B6700016FCFFFF704700BF10B5034B0360044684
:10B680000CF0ECF9204610BD0C0D040010B5054B74
:10B69000036004460CF0E2F9204614F039F8204625
:10B6A00010BD00BF0C0D04002DE9F041032184B052
:10B6B0000546512001F0DAFCDFF8E8C2AE4B044643
:10B6C00004F00F06C4F3031714F4807408BF634634
:10B6D000AA4831463A460BF0A1FB221C18BF0122B2
:10B6E00031463B4628460EF0D3FC0023AB60A4480D
:10B6F0000BF094FB4FF0FF31032001F0B7FCC0B218
:10B7000004F08CFA4FF0FF310446022001F0AEFC49
:10B71000C0B204F083FA002C3BD0002839D0014697
:10B72000204604F041F8064600284DD04FF0FF3186
:10B73000462001F09BFC322804464ED04BDD3828D1
:10B7400000F0B18068285FD14FF0FF31012001F097
:10B750008DFCC0B204F062FA80464C2013F0E1FF89
:10B76000052301934246009431462B4607460DF0CF
:10B77000F5FBAF603B6838469B6A9847A86803684A
:10B78000DB6A98477F480BF049FB284604B0BDE8C8
:10B79000F0817D480BF042FB4FF0FF31192001F0A2
:10B7A00065FCC0B204F03AFA4FF0FF3104461820AD
:10B7B00001F05CFCC0B204F031FA0146204603F00F
:10B7C000F3FF06460028B1D170480BF027FB28464E
:10B7D00004B0BDE8F081302816D14FF0FF310120D0
:10B7E00001F044FCC0B204F019FA80464C2013F07A
:10B7F00098FFA4B2074605230193424600943146C0
:10B800002B460DF061F9B4E701243268CDE900441C
:10B810000023176AAB600F220DF10F03322130466F
:10B82000B847002800F085803368CDE900440F2236
:10B830001F6A30210DF10F033046B84700284AD067
:10B840003368CDE900440D221F6A38210DF10F0342
:10B850003046B847002872D03268CDE900440DF177
:10B860000F03176A682175223046B847002845D172
:10B87000682147480BF0D2FA4FF0FF31204601F023
:10B88000F5FBC0B204F0CAF980464C2013F049FF22
:10B8900005246823CDE90034424631462B4607464D
:10B8A0000DF05CFB65E74FF0FF31012001F0DEFB9E
:10B8B000C0B204F0B3F98046442013F032FF0523F0
:10B8C0000746019342462B46009431460DF09EFAFE
:10B8D000304B3B604DE730212D480BF09FFA302470
:10B8E0004FF0FF31012001F0C1FBC0B204F096F926
:10B8F00080464C2013F015FF07467CE726480BF0E6
:10B900008DFAAF68002F7FF435AF4FF0FF31032081
:10B9100001F0ACFBC0B204F081F930B11F480BF06C
:10B920007DFA284604B0BDE8F0811D480BF076FA98
:10B930004DE7322116480BF071FA3224D0E7382156
:10B9400013480BF06BFA4FF0FF31204601F08EFBED
:10B95000C0B204F063F98046442013F0E2FE0524EF
:10B9600038230746CDE9003442462B4631460DF0D8
:10B970004DFA084B3B60FCE6140004002400040070
:10B9800044000400040104005400040068000400A2
:10B9900094000400E0FF030080000400A8000400FD
:10B9A000E40004001C00040038B5114C23680BB1FE
:10B9B000986838BD4FF0FF31012001F057FBC0B24D
:10B9C00004F02CF940B10C2013F0ABFE0546FFF754
:10B9D0006BFE2560A86838BD4FF0FF31032001F0F1
:10B9E00045FBC0B204F01AF90028ECD138BD00BF05
:10B9F0002C85002008B501F06BFCFBF7D5FCBDE8F9
:10BA0000084001F0C5B900BF08B501F061FCFBF7C3
:10BA10003BFDBDE8084001F0BBB900BF08B501F02F
:10BA200057FC10F05DFFBDE8084001F0B1B900BF60
:10BA300008B501F04DFC11F04FFBBDE8084001F0E6
:10BA4000A7B900BF08B501F043FCFBF7BDFCBDE89A
:10BA5000084001F09DB900BF08B501F039FC11F0B4
:10BA600071F9BDE8084001F093B900BF08B501F0D5
:10BA70002FFCFAF745FFBDE8084001F089B900BF87
:10BA800008B501F025FC11F0B3F8BDE8084001F05D
:10BA90007FB900BF70B5049E96420C4624DB154664
:10BAA0006BB9042A19D0022A02D110F0010310D078
:10BAB00001462A46204607F073FC002070BD104462
:10BAC0000D4410F8013D01F8013B8D42F9D10020F1
:10BAD00070BD02880A80184670BD10F00303E7D1DC
