:1000000000000220856C0100AD6C0100AF6C0100A6
:10001000B16C0100B36C0100B56C01000000000080
:10002000000000000000000000000000B76C0100AC
:10003000B96C010000000000BB6C0100BD6C010048
:10004000BF6C0100A95C0100256B0100E96A010099
:10005000FD6A0100BF6C0100C5550100DD720100A1
:10006000C1660100C9660100D1660100BF6C0100D4
:10007000BF6C0100BF6C0100BF6C0100BF6C0100D0
:10008000BF6C0100BF6C0100BF6C0100BF6C0100C0
:10009000BF6C0100BF6C0100BF6C0100BF6C0100B0
:1000A000BF6C0100BF6C0100D9660100E166010070
:1000B000BF6C0100BF6C01000000000000000000E8
:1000C000BF6C0100BF6C0100BF6C0100116B01002F
:1000D000BF6C0100BF6C0100BF6C0100BF6C010070
:1000E0004D6B010000000000000000000000000057
:1000F00000000000BF6C010000000000396B01002F
:1001000000000000000000000000000000000000EF
:1001100000000000000000000000000000000000DF
:1001200000000000000000000000000000000000CF
:1001300000000000000000000000000000000000BF
:1001400000000000000000000000000000000000AF
:10015000000000000000000000000000000000009F
:10016000000000000000000000000000000000008F
:10017000000000000000000000000000000000007F
:10018000000000000000000000000000000000006F
:10019000000000000000000000000000000000005F
:1001A000000000000000000000000000000000004F
:1001B000000000000000000000000000000000003F
:1001C000000000000000000000000000000000002F
:1001D000000000000000000000000000000000001F
:1001E000000000000000000000000000000000000F
:1001F00000000000000000000000000000000000FF
:100200007CB0EE877CB0EE87FF00FF00FF00FF00B0
:10021000FF00FF00FF00FF00FF00FF00FF00FF00E6
:10022000FF00FF00FF00FF00FF00FF00FF00FF00D6
:10023000FF00FF00FF00FF002DE9F04F85B00391A4
:100240000778A7F10903042B044607F07F0200F1A9
:100250000100F5D9202AF3D02B2F04BF677804467C
:100260002D2F75D09FED427B8DED007B4FF0000868
:100270004FF000099FB34FF0000C25464FF0000AE5
:10028000DFF8FCB0644619E019F0E8FD80468946C5
:10029000304619F079FD42464B4619F029FC52468A
:1002A000804689465B46DDE900013CB319F000FF5A
:1002B000CDE90001A44615F8017F7FB1A7F1300612
:1002C000092E52465B4640464946DDD9CCB92E2F11
:1002D00017D115F8017F0124002FEFD12C4642469B
:1002E0004B46DDE9000119F0B9FD80468946039BC4
:1002F000404649461C6005B0BDE8F08F4FF0010C48
:10030000D9E72C46BCF1000F29D042464B46DDE927
:10031000000119F0A3FD07F0DF07452F804689464D
:10032000E5D10399681C0A2219F0C6FB144902465C
:1003300000201AF043F902460B464046494619F0A0
:100340008DFD804689464046494605B0BDE8F08FA0
:100350009FED097B67788DED007B013486E7DFF840
:1003600024904FF000084046494605B0BDE8F08FA4
:10037000000000000000F03F000000000000F0BF9F
:10038000000024400000F87F2DE9F04700231446C8
:1003900000228046894619F0D3FF28B109F10043B5
:1003A00099462D23237001340022002340464946FC
:1003B00019F0BCFF28B13022002322706370BDE821
:1003C000F0874046494618F0BBF819F0F7FF73A3D1
:1003D000D3E9002307464946404619F0B1FF0028FB
:1003E0004ED170A3D3E900234046494619F0C6FF19
:1003F000002845D10E2F07F1010540F3B980A7F180
:100400000E063246002062491AF0D8F802460B4622
:100410004046494619F04CFE00225E4B19F068FB3D
:100420001AF008F9002DA7F10F0E4FF0010C4DDD69
:10043000594FDFF87881012245F6F3294FF02E0A53
:10044000494508BF40454FF030030AD3B0EB0800E0
:1004500061EB0901494508BF404503F10103F5D2AD
:10046000DBB2237050EA010304F101084AD195423E
:1004700052DD0132102A4FD0444677E90289DFE786
:10048000002F33DB3A46002041491AF097F8024624
:100490000B464046494619F00BFE3BA3D3E9002327
:1004A00080468946012500264046494619F0D6FC7B
:1004B0000022384B19F01CFB1AF0BCF8002DBC468A
:1004C0004FF0FF3E37464FF00006B1DC23463022A6
:1004D0004FF02E0803F8022B84F80180FC4345D02E
:1004E0001C4403F8012BA342FBD1A1E77A42002070
:1004F00027491AF063F802460B464046494619F070
:10050000ADFCCAE7954202F1010204BF84F801A0E4
:1005100004F10208102AAFD16EB14246302102F830
:10052000011BC2F1010373444344002BF7DC2EEAA4
:10053000EE7301339844BCF1010F12D0BCF1000FEF
:100540004FF0650388F80030C5BF2B2388F80130D1
:1005500008F1010108F102016046BDE8F04710F022
:1005600013BB002388F80030BDE8F0871C465FE726
:10057000C7F10E02002006491AF020F83E46024656
:100580000B46012790E700BF0000901EC4BCD64276
:10059000000024400000E03F60B101008DEDB5A0F7
:1005A000F7C6B03E50EFE2D6E41A4B4400407A1052
:1005B00070B54FF0FF3006F097FA04466FF07F40B9
:1005C00006F092FA0646204619F0CEFB00220C4BAC
:1005D00019F044FC044630460D4619F0C5FB06A34D
:1005E000D3E9002319F064FD02460B462046294654
:1005F00019F07EFA70BD00BF0000E0DFFFFF6F431F
:100600000000F03D000000002DE9F04F1D46138969
:10061000AB4288BF536885B004468CBF53F82500B1
:10062000002090468A4606F0D3FE0022904B19F037
:1006300015FC19F0C3FEB8F808206B1C9A4288BF5D
:10064000D8F8042006468CBF52F82300002006F09C
:10065000BFFE0022864B19F001FC19F0AFFEB8F87E
:1006600008300235AB4288BFD8F8043007468CBF4B
:1006700053F82500002006F0ABFE002EC4E9006709
:1006800040F3E280002F40F3DF8071A3D3E9002321
:10069000002584F8285017F075FE002200238046BC
:1006A000894619F04DFE40B14046494668A3D3E95A
:1006B000002319F01DFA8046894667A3D3E9002379
:1006C0004046494619F05AFEC0B165A3D3E900235C
:1006D0004046494619F03EFE80B101234046494656
:1006E00084F8283060A3D3E9002319F001FA58A355
:1006F000D3E9002317F046FE8046894600225D4B71
:100700004046494619F0AAFB17F070FB01F100437F
:1007100000221946564B19F0A1FB19F04FFE49462D
:100720000546404617F01EFB0022514B19F096FB80
:1007300019F044FEDAF804304F49B3F80CB0B3F8BE
:100740000AA0A56007FB0BF303EB010806FB0AF602
:10075000019388FB05234FEA124C00960E444CEAA5
:10076000034C06EA010383FB009A06EB0C0E0EEA2B
:10077000010ED346CA468EFB00675246CDE902679A
:10078000120C42EA0B42DDE902AB0CEA010C8CFBD5
:1007900000674FEA164956460A40360C46EA0B46B1
:1007A00049EA074982FB05AB5F46C144B04456465F
:1007B000CDE90267039FE060360C09EA010908EA07
:1007C000010846EA074689FB05AB334488FB05561A
:1007D000CDE9025655462D0C45EA0B45DDE902AB45
:1007E0000B40AC4403EAE3770CEA010C554623EADC
:1007F000E37367454FEA154502EAE276A8BF67460C
:1008000045EA0B45634522EAE272B8BF6346AE444F
:100810004E450EEA010EA8BF4E464A45B8BF4A46AD
:100820007745A8BF77467345B8BF73464645A8BF0E
:100830004646C4E905634245B8BF4246009801995F
:10084000206261622761E261204605B0BDE8F08F59
:10085000EA2E4454FB211940F4D64354FB21F93FBE
:10086000320D337F7CD91240EA2E4454FB210940DB
:100870000000F0400000E03F0000FFFF000000002B
:100880002DE9F04F2DED028B044683B0C06819F0BE
:100890007BFA80462069894619F076FA82466069BB
:1008A0008B4619F071FA024601F1004306460F46E5
:1008B0004046494617F0F8FC19F0C8FDE0620546CD
:1008C00017F0AAFB0190284617F05AFB019B05463A
:1008D000184619F06BFA42464B4619F0BFFA8046AB
:1008E0002846894619F062FA32463B4619F0B6FAB4
:1008F00002460B464046494619F0F8F802460B46B8
:100900005046594617F0D0FC19F0A0FD002208EE21
:10091000100A00233046394619F030FD28B3B5EEF1
:10092000C08AF1EE10FA1CDD11A7D7E9006718EEB6
:10093000100A19F03BFA02460B463046394619F0C8
:10094000D5F832463B4619F0D3F819F07FFDA06286
:10095000E38843F00203E38003B0BDEC028BBDE803
:10096000F08F05A7D7E90067E1E784ED0A8AEFE792
:10097000EA2E4454FB21F93FEA2E4454FB21F9BFEF
:1009800008B511F0F5FBDFED0C7A07EE100A67EE03
:10099000277A17EE900A19F009FA05A3D3E9002384
:1009A00019F086FB19F00AFD08BD00BFAFF3008007
:1009B000EA2E4454FB2119400000B443000000001B
:1009C00008B511F0E9FBDFED0C7A07EE100A67EECF
:1009D000277A17EE900A19F0E9F905A3D3E9002365
:1009E00019F066FB19F0EAFC08BD00BFAFF3008008
:1009F000EA2E4454FB2119400000B44300000000DB
:100A0000494A21F0004393422DE9704304460D46C4
:100A100049DC464A93420E460EDC3FA3D3E900234D
:100A200019F066F80022424B19F0A8FC00284AD0C1
:100A300020462946BDE870833E4A934239DCB3F133
:100A4000804F40DD17F08AF92246804689462B46C2
:100A50002046294619F002FA0022354B19F048F8D1
:100A600018F018F842464B4619F042F802460B4679
:100A700000202F4919F01CFB424604460D464B4608
:100A80004046494619F034F802460B4620462946AE
:100A900019F02EF802F040F8002E08DC01F10043B6
:100AA0001946BDE8708302460B4619F021F8BDE8EF
:100AB000708317F053F902F02FF819A3D3E900233C
:100AC00019F016F8E8E722462B462046294619F089
:100AD000C5F9804689462046294617F03FF900228D
:100AE00004460D46124B4046494619F001F817F0EE
:100AF000D1FF00220E4B18F0FBFF02460B4640468A
:100B0000494619F0D5FA22462B4618F0F1FF00F0BD
:100B1000A7FAC1E7AFF300809C7500883CE4377EFC
:100B2000EF39FAFE422EE63FFFFFEF7FFFFF2F3E39
:100B30000000F03F0000B0412DE9F84FBE4B21F01E
:100B400000469E4204460D468A460EDDBB4B9E4241
:100B500000F3B18000F0AC80BAF1000F40F3EA80FE
:100B600099A1D1E90001BDE8F88FB54B9E4200F391
:100B7000BA80A3F1DE739E4240F3A5804FF0FF3BA5
:100B800022462B462046294619F068F902460B46B4
:100B90008046894619F062F98DA3D3E90023064601
:100BA0000F4619F05BF98CA3D3E9002318F0A0FFDE
:100BB00032463B4619F052F989A3D3E9002318F0D5
:100BC00097FF32463B4619F049F987A3D3E9002342
:100BD00018F08EFF32463B4619F040F984A3D3E962
:100BE000002318F085FF32463B4619F037F982A3FF
:100BF000D3E9002318F07CFF42464B4619F02EF94A
:100C00007FA3D3E90023804689463046394619F050
:100C100025F97DA3D3E9002318F068FF32463B464F
:100C200019F01CF97AA3D3E9002318F05FFF3246CC
:100C30003B4619F013F978A3D3E9002318F056FFC7
:100C400032463B4619F00AF975A3D3E9002318F0A0
:100C50004DFF32463B4619F001F902460B4640462D
:100C6000494618F045FF22462B4619F0F7F8BBF12C
:100C7000FF3F02460B4661D0724B734E4FEACB0BDF
:100C80005B44D3E9002318F031FF22462B4618F0CD
:100C90002DFFB34402460B46DBE9000118F026FFA6
:100CA000BAF1000F0DDA01F100431946BDE8F88FE3
:100CB00000283FF451AF22462B462046294618F023
:100CC00017FFBDE8F88F58A3D3E9002318F010FFF1
:100CD00000225E4B19F052FB00283FF44FAF204634
:100CE0002946BDE8F88F17F039F8594B9E42044663
:100CF0000D4629DCA3F550239E424EDC02460B46EE
:100D000018F0F6FE0022514B18F0F0FE00220646C5
:100D10000F464FF080432046294618F0E9FE024670
:100D20000B463046394619F0C3F94FF0000B044624
:100D30000D4625E73EA1D1E90001C2E7204629463C
:100D400018F0D4FEBDE8F88F424B9E421ADC002218
:100D5000414B18F0CBFE002206460F463E4B204684
:100D6000294619F07BF80022384B18F0C1FE0246E4
:100D70000B463046394619F09BF94FF0020B0446FA
:100D80000D46FDE602460B460020344919F090F965
:100D90004FF0030B04460D46F2E600222B4B18F0F1
:100DA000A5FE002206460F46284B2046294618F08D
:100DB0009FFE02460B463046394619F079F94FF04E
:100DC000010B04460D46DBE6182D4454FB21F93F88
:100DD00011DA22E33AAD903FEB0D76244B7BA93F2D
:100DE000513DD0A0660DB13F6E204CC5CD45B73FFB
:100DF000FF8300922449C23F0D5555555555D53FA7
:100E00002F6C6A2C44B4A2BF9AFDDE522DDEAD3F9A
:100E10006D9A74AFF2B0B33F711623FEC671BC3F3A
:100E2000C4EB98999999C93F9C7500883CE4377E3A
:100E3000182D4454FB21F9BFFFFF0F440000F07F41
:100E4000FFFFDB3F88B1010068B101000000F03F07
:100E5000FFFFF23FFF7F03400000F83F0000F0BFBC
:100E60002DE9F041C1F30A57A7F2FF35132D0246D1
:100E70000B460C468846064620DC002D4ADB364FE2
:100E80002F4101EA070C5CEA000C1CD030A3D3E927
:100E9000002318F02DFE0022002319F06FFA48B14C
:100EA000002C04DD4FF4801343FA05F5A84428EA2A
:100EB0000704002621463046BDE8F081332D06DDCB
:100EC000B5F5806F38D010461946BDE8F081A7F21D
:100ED00013474FF0FF3C2CFA07F70742F3D01CA34F
:100EE000D3E9002318F004FE0022002319F046FA8B
:100EF0000028DFD0002C09DD142D22D00123C5F1FC
:100F0000340503FA05F5AE1928BF984426EA07060A
:100F10004446CFE70EA3D3E9002318F0E9FD0022F1
:100F2000002319F02BFA0028C4D0002C0CDB264338
:100F300005D00026094CBDE718F0DAFDC5E73446B8
:100F4000B8E704F10108E1E700264FF00044B1E7FB
:100F50009C7500883CE4377EFFFF0F000000F03FE7
:100F60002DE9F041C1F30A57A7F2FF35132D0246D0
:100F70000B460C46884606461DDC002D3CDB364FF2
:100F80002F4101EA070C5CEA000C19D030A3D3E929
:100F9000002318F0ADFD0022002319F0EFF9C8B3CB
:100FA000002C04DA4FF4801343FA05F5A84428EA2C
:100FB000070400262EE0332D06DDB5F5806F2DD019
:100FC00010461946BDE8F081A7F213474FF0FF3CE9
:100FD0002CFA07F70742F3D01DA3D3E9002318F03A
:100FE00087FD0022002319F0C9F998B1002C21DBFC
:100FF00026EA070644460DE015A3D3E9002318F0BE
:1010000077FD0022002319F0B9F918B1002C08DB94
:101010000026344621463046BDE8F08118F068FDD0
:10102000D0E724F000430D4A1E43002E18BF14469B
:101030000026EFE7142D08D00123C5F1340503FA8B
:1010400005F5AE1928BF9844D2E704F10108CFE7AF
:101050009C7500883CE4377EFFFF0F000000F0BF66
:101060002DE9F04FD84B994287B08046894643DD41
:10107000D64B99420E4600F3F480D54B994240F38B
:101080002D819FEDBB7B8DED047B4FEA215A0446F9
:10109000AAF2FF3ACF4BC6F313069E4246F07F55A5
:1010A00000F3128145F44015204629460022CA4B20
:1010B00018F01CFD002204460D46C84B18F0CEFE69
:1010C00022462B4618F0CAFEA046CDE90201A946E9
:1010D000CDE90001002E3AD1002200232046294606
:1010E00019F024F9002800F01B81BAF1000F40F03C
:1010F000858100200021B8E0B94B21F000449C42DA
:101100000A460FDD0022B74B19F010F9002800F055
:10111000AF80002200230020B34918F0C9FF07B0B8
:10112000BDE8F08FB14B9C4240F3AF80B04B1A4406
:101130009A4240F2D3800022A84B18F08FFE42461C
:101140004B4618F08BFECDE900014FF0000A00225B
:101150004FF080434046494618F0CAFC02460B4611
:101160004046494618F0A4FF02460B4606460F4685
:1011700018F074FE80A3D3E9002304460D4618F04E
:101180006DFE7FA3D3E9002318F0B2FC22462B4664
:1011900018F064FE7CA3D3E9002318F0A9FC2246D2
:1011A0002B4618F05BFE7AA3D3E9002318F0A0FCCD
:1011B00022462B4618F052FE77A3D3E9002318F0FD
:1011C00097FC22462B4618F049FE75A3D3E900236D
:1011D00018F08EFC22462B4618F040FE72A3D3E98D
:1011E000002318F085FC22462B4618F037FEDDE977
:1011F000002318F07DFC32463B4618F02FFE0446D3
:101200000D46BAF1000F00F0A880504618F0BCFD62
:1012100067A3D3E9002382468B4618F01FFE66A31E
:10122000D3E9002306460F465046594618F016FEED
:10123000DDE9042318F05CFC22462B4618F058FC2C
:1012400002460B46DDE9000118F050FC42464B46D1
:1012500018F04CFC02460B463046394618F046FC66
:1012600003E002460B4618F043FC07B0BDE8F08FE0
:1012700042464B464046494618F038FC02460B466B
:1012800018F016FF07B0BDE8F08F0022594B18F098
:101290002FFC0022002319F071F810B1564B9C422C
:1012A00062DD42464B464046494618F0D7FD0022D3
:1012B0004A4B18F0D3FD02460B464046494618F00B
:1012C00015FC07B0BDE8F08F45F40015C6F5801693
:1012D00020462946B6100AF1010AE7E600223E4BF5
:1012E0004046494618F004FC4FEA215AAAF2FF3A58
:1012F000BAF1000F04460D460E4640F3BD8042464B
:101300004B4618F0F3FB02460B460020324918F01A
:10131000EDFB22462B4618F0CBFECDE90401B9E6E1
:1013200027A3D3E900232046294618F097FD02465B
:101330000B460020284918F0D9FBDDE9022318F0FC
:101340008DFD06460F46BAF1000F75D102460B46D9
:101350002046294618F0CAFB87E702460B46DDE91E
:10136000000118F0C3FBA6E7404649467DE700BFF1
:10137000000000000000000044523EDF12F1C23FB6
:101380009FC678D0099AC33FDE03CB966446C73F19
:10139000AF788E1DC571CC3F599322942449D23F1A
:1013A00004FA97999999D93F935555555555E53F65
:1013B0000000E0FE422EE63F763C7935EF39EA3D0B
:1013C000555555555555E53F7982DA3FFFFFEF7F7B
:1013D000FFFF3F439DA006000000F03F0000E03FFC
:1013E000FFFFEF3F0000F0BF000050C3FFFF1F3EB4
:1013F0003C412D4000005043FFFF8F3C504618F009
:10140000C3FC24A3D3E9002306460F4618F026FDAB
:10141000DDE9042318F06CFB20A3D3E90023044684
:101420000D463046394618F019FD02460B46204657
:10143000294618F05DFB18E7504618F0A5FC17A3E5
:10144000D3E9002382468B4618F008FD11A3D3E9A7
:101450000023804689465046594618F0FFFCDDE9D6
:10146000042318F045FB02460B463046394618F077
:101470003DFB22462B4674E70022054B18F036FB55
:1014800002460B464046494618F030FB41E700BF94
:101490000000F03F763C7935EF39EA3D0000E0FE90
:1014A000422EE63F0000000008B516F0CBFF04A373
:1014B000D3E9002318F0FCFD08BD00BFAFF30080A6
:1014C000EF39FAFE422EE63F2DE9F043DFF8B48013
:1014D0008BB004460D4601F0F7F898F9003001335F
:1014E00006460F462CD022462B462046294618F0A9
:1014F0004FFF814620BB2046294616F02FFC1FA334
:10150000D3E9002318F03AFFD0B1194A98F9003016
:10151000CDF820900321CDE90445CDE90245CDE980
:10152000001293B113490020022BCDE9060111D11D
:1015300018F06AFA22230360089B9BB9DDE906676D
:10154000304639460BB0BDE8F0830B4B4FF060429C
:10155000CDE90623684618F0D3F80028E8D0089BA8
:10156000002BEBD018F050FA089B0360E6E700BFB1
:1015700048C401000000F07FFFFFEF477DF8B98FFE
:10158000CE338640FB0100202DE9F043DFF8E480F4
:101590008BB004460D4601F047F998F9003001334D
:1015A00006460F4633D02046294618F0A3F870B3FC
:1015B0002CA3D3E900232046294618F0DFFE8146FC
:1015C00050BB2AA3D3E900232046294618F0B8FED1
:1015D000E8B198F90030204ACDF820900020002191
:1015E0000426022BCDE90445CDE902450096CDE95C
:1015F0000601019229D0684618F082F828B3089BAA
:101600001BB118F001FA089B0360DDE9066730465C
:1016100039460BB0BDE8F0830F4A98F900300192CB
:1016200003210022CDE90445CDE90245009108924D
:101630002BB90A4B4FF06042CDE90623DBE708499E
:101640000020022BCDE90601D5D118F0DDF92223C7
:101650000360D4E7AFF3008050C40100FFFFEF4701
:101660000000F07FEF39FAFE422E864051302DD532
:10167000104987C0FB0100202DE9F04FDFF82C93C3
:101680008DB006460F4614461D4601F09DFC99F9A3
:101690000080B8F1FF3FCDE9000136D022462B464D
:1016A0002046294618F074FE834670BB32463B46FE
:1016B0003046394618F06CFE8246002840F0A28081
:1016C000304639460022002318F030FE10B30022C5
:1016D00000232046294618F029FE8346002867D0BB
:1016E0009FEDA77B0122AC4BCDF828A00292CDE95B
:1016F0000467CDE906458DED087B0393B8F1000F33
:1017000041D09FEDA17B8DED007BDDE900010DB0A7
:10171000BDE8F08FDDE9000117F0ECFF80460028FE
:1017200000F08D804FF0000A4FF0000BDDE9000162
:1017300052465B4618F0FAFD0028E6D0304639469E
:1017400017F0D8FF0028E0D02046294617F0D2FF36
:101750000028DAD099F900308F4A03920421002240
:10176000022BCDE90467CDE90645CDE908AB02912E
:101770000A9203D002A817F0C3FF50B918F044F939
:101780002223036005E002A817F0BAFF002800F04A
:101790009B800A9B1BB118F037F90A9B03609DEDF3
:1017A000087B8DED007BDDE900010DB0BDE8F08F19
:1017B0002046294617F09EFF0028A6D000220023CD
:1017C0002046294618F0BCFD00289ED0724A99F99F
:1017D0000030CDF828B00121CDE90467CDE90645F8
:1017E000CDE90212002B74D06C490020022BCDE908
:1017F000080172D118F008F9212303600A9B002B1D
:10180000CDD0C8E7002200232046294618F08EFDDF
:1018100000283FF47AAF624B5F49CDF828B0002230
:101820000120B8F1020FCDE904670290CDE9064529
:10183000CDE908230391A6D1CDE9002365E7304621
:10184000394617F057FF00283FF46CAF2046294671
:1018500017F050FF00283FF465AFDDE90023104684
:10186000194618F095FD99F900A000286BD10323C3
:10187000DFF824C10A902946204602930022494BF2
:10188000CDF80CC0CDE90645CDE9046718F0E6FABD
:1018900004460D46BAF1000F25D1DFF814B14FF020
:1018A000604A0022002330463946CDE908AB18F0E3
:1018B00047FD38BB02A817F023FF00289ED118F07F
:1018C000A3F82223036099E718F09EF82123036010
:1018D0005FE79FED2B7B8DED087B02A817F010FFD3
:1018E00000288BD186E79FED2A7B0022002330461B
:1018F00039468DED087B18F023FDA0B9BAF1020F2F
:10190000DDD0D7E72046294617F002FF22462B46B6
:1019100018F00CFDA0B9244B99F900A04FF06042DB
:10192000CDE90823EAE72046294617F0F1FE2246D2
:101930002B4618F0FBFC18B9184B0022CDE9082300
:1019400099F900A0DAE70122134BCDF82880029222
:10195000CDE90467CDE906450393BAF1000FB8D08D
:10196000002200231046194618F0A2FBBAF1020F1C
:10197000CDE908013FF43EAFAFE700BFAFF3008011
:101980000000000000000000000000000000F03F28
:10199000000000000000F07F68C401000000F0FFBC
:1019A0000000F03F0000E03FFFFFEFC7FB01002019
:1019B000FFFFEF47000000002DE9F84FC44E21F073
:1019C0000043B34204460D460DDD03F1404303F5E9
:1019D0008013034340F0B980002940F34081002088
:1019E0000021BDE8F88FBB4EB34208DCBA4A9342EF
:1019F00000F3B5809CA1D1E90001BDE8F88F002972
:101A0000C0F2708102460B460020B44918F06EF80F
:101A10000022B34B18F022FA04460D4617F03AF8AC
:101A200093A3D3E90023894680462946204618F02F
:101A300015FA91A3D3E9002318F05AF822462B4651
:101A400018F00CFA8EA3D3E9002318F04FF82246C1
:101A50002B4618F003FA8CA3D3E9002318F048F8BA
:101A600022462B4618F0FAF989A3D3E9002318F08F
:101A70003DF822462B4618F0F1F987A3D3E900235D
:101A800018F036F822462B4618F0E8F984A3D3E97B
:101A9000002382468B462046294618F0DFF982A3B0
:101AA000D3E9002318F022F822462B4618F0D6F985
:101AB0007FA3D3E9002318F01BF822462B4618F029
:101AC000CDF97DA3D3E9002318F010F822462B4668
:101AD00018F0C4F90022814B18F00AF802460B46B0
:101AE0005046594618F0E4FA42464B4618F0B6F90B
:101AF000002682468B4632464B463046494618F011
:101B0000ADF902460B462046294617F0EFFF324654
:101B100004460D464B464046494617F0E9FF02464B
:101B20000B462046294618F0C3FA02460B4650469B
:101B3000594617F0DDFF32464B4617F0D9FF0246F3
:101B40000B4617F0D5FFBDE8F88F02460B4617F09D
:101B5000CDFF02460B4618F0ABFABDE8F88F0246FF
:101B60000B4618F07BF942A3D3E9002306460F4643
:101B700018F074F940A3D3E9002317F0B9FF3246F7
:101B80003B4618F06BF93EA3D3E9002317F0AEFFF4
:101B900032463B4618F062F93BA3D3E9002317F025
:101BA000A7FF32463B4618F059F939A3D3E9002381
:101BB00017F09CFF32463B4618F050F936A3D3E9A4
:101BC000002317F095FF32463B4618F047F934A33F
:101BD000D3E90023804689463046394618F03EF95D
:101BE00031A3D3E9002317F081FF32463B4618F0BA
:101BF00035F92FA3D3E9002317F07AFF32463B468D
:101C000018F02CF92CA3D3E9002317F06FFF32460C
:101C10003B4618F023F90022304B17F069FF0246CB
:101C20000B464046494618F043FA22462B4618F028
:101C300015F902460B4622A1D1E9000117F056FF23
:101C400002460B462046294617F050FF02460B4637
:101C500005A1D1E9000117F049FFBDE8F88F1AA1ED
:101C6000D1E9000179E700BF182D4454FB21F93F69
:101C700009F7FD0DE13D023F88B20175E0EF493FF4
:101C80003B8F68B52882A43F5544880E55C1C93F93
:101C90007D6FEB0312D6D43F555555555555C53F6D
:101CA00082922EB1C5B8B33F59018D1B6C06E63F39
:101CB000C88A599CE52A00404B2D8A1C273A0340CC
:101CC000075C143326A6913C182D4454FB2109408F
:101CD000FFFFEF3FFFFFDF3F0000603C0000F03FF1
:101CE0000000E03F00225C4B17F002FF00225B4B3C
:101CF00018F0B4F840A3D3E9002304460D4618F0C9
:101D0000ADF83FA3D3E9002317F0F2FE22462B469D
:101D100018F0A4F83CA3D3E9002317F0E7FE22460D
:101D20002B4618F09BF83AA3D3E9002317F0E0FE06
:101D300022462B4618F092F837A3D3E9002317F078
:101D4000D5FE22462B4618F089F835A3D3E90023A7
:101D500017F0CEFE22462B4618F080F880468946C2
:101D60002046294616F096FE2FA3D3E90023064607
:101D70000F462046294618F071F82DA3D3E9002319
:101D800017F0B4FE22462B4618F068F82AA3D3E9D0
:101D9000002317F0ADFE22462B4618F05FF828A36B
:101DA000D3E9002317F0A2FE22462B4618F056F87E
:101DB0000022294B17F09CFE02460B46404649463E
:101DC00018F076F932463B4618F048F81EA3D3E9DE
:101DD000002317F08BFE32463B4617F089FE024681
:101DE0000B4617F085FE02460B4619A1D1E900010A
:101DF00017F07CFEB1E600BF09F7FD0DE13D023FA3
:101E000088B20175E0EF493F3B8F68B52882A43F57
:101E10005544880E55C1C93F7D6FEB0312D6D43FA0
:101E2000555555555555C53F82922EB1C5B8B33F4E
:101E300059018D1B6C06E63FC88A599CE52A004073
:101E40004B2D8A1C273A0340075C143326A6913C8D
:101E5000182D4454FB2109400000F03F0000E03FF2
:101E6000414A91422DE9F84304460D4637DD3F4A89
:101E700091420B4608DD02F1795291423DDD024666
:101E800017F036FEBDE8F88301F1404202F58012FA
:101E900002432ED0B1F1804F37DC0022344B17F0D3
:101EA00025FE02460B4604460D4617F021FE22464B
:101EB00006460F462B462046294617F0CFFF02461E
:101EC0000B463046394617F013FE16F0E3FD224666
:101ED0002B4617F00DFEBDE8F843FFF7C1B80246E8
:101EE0000B4617F003FE02460B4618F0E1F8BDE87A
:101EF000F88300200021BDE8F88300F00DFE18A350
:101F0000D3E9002317F0F4FDF1E7024617F0A6FF2E
:101F10000022174B17F0EAFD16F0BCFD2246804662
:101F200089462B462046294617F0E2FD2246064602
:101F30000F462B464046494617F0DAFD02460B464F
:101F400000200B4918F0B4F80B46024639463046DB
:101F500017F0CCFDBDE8F84300F0DEBDAFF3008024
:101F6000EF39FAFE422EE63FFFFFEF3FFFFFAF41A2
:101F70000000F03F000000002DE9F04FAE4B21F0D3
:101F800000479F4287B004460D4611DD07F14047E8
:101F900007F5801703463B4321D002460B4617F056
:101FA000A5FD02460B4618F083F807B0BDE8F08F98
:101FB000A24B9F420E4629DCB7F1795F80F2468141
:101FC00081A3D3E9002317F093FD00229C4B18F066
:101FD000D5F9D8B12046294607B0BDE8F08F7CA3DB
:101FE000D3E9002317F03AFF7BA3D3E90023064689
:101FF0000F462046294617F031FF02460B46304671
:10200000394617F075FD07B0BDE8F08F2046294628
:1020100015F0A4FE02460B460020894917F066FD24
:102020000022884B17F01AFF6DA3D3E90023044662
:102030000D4617F013FF6CA3D3E9002317F058FDEA
:1020400022462B4617F00AFF69A3D3E9002317F0B5
:102050004DFD22462B4617F001FF67A3D3E900236D
:1020600017F046FD22462B4617F0F8FE64A3D3E98D
:10207000002317F03BFD22462B4617F0EFFE62A32C
:10208000D3E9002317F034FD22462B4617F0E6FE75
:102090005FA3D3E90023CDE900012046294617F0CC
:1020A000DDFE5DA3D3E9002317F020FD22462B4679
:1020B00017F0D4FE5AA3D3E9002317F019FD2246E6
:1020C0002B4617F0CBFE58A3D3E9002317F00EFDE3
:1020D00022462B4617F0C2FE594B002217F008FD8E
:1020E00082468B4620462946CDE902AB16F0D2FC4B
:1020F000554B9F428046894600F3198102460B46A4
:1021000017F0F6FCDDE90223CDE90401DDE9000169
:1021100017F0CEFF02460B46DDE9040117F09EFEE4
:102120004FF0000ACDE9000152464B465046494661
:1021300017F094FE02460B462046294617F0D6FCBF
:10214000524604460D464B464046494617F0D0FCE1
:1021500002460B462046294617F0AAFF02460B46C8
:1021600017F0C6FC02460B461BA1D1E9000117F08F
:10217000BDFC02460B46DDE9000117F0B7FC5246F4
:1021800004460D464B465046494617F0B1FC024600
:102190000B4627A1D1E9000117F0A8FC02460B4627
:1021A0002046294617F0A2FC02460B4620A1D1E9A1
:1021B000000117F09BFC002E3FF7F7AE01F1004342
:1021C0001946F2E6AFF300809C7500883CE4377E48
:1021D000182D4454FB21F93F075C143326A6913C8B
:1021E00009F7FD0DE13D023F88B20175E0EF493F7F
:1021F0003B8F68B52882A43F5544880E55C1C93F1E
:102200007D6FEB0312D6D43F555555555555C53FF7
:1022100082922EB1C5B8B33F59018D1B6C06E63FC3
:10222000C88A599CE52A00404B2D8A1C273A034056
:10223000182D4454FB21E93FFFFFEF3FFFFFDF3F35
:102240000000F03F0000E03F3233EF3F02460B4614
:1022500017F004FE4BA3D3E9002306460F4617F000
:10226000FDFD4AA3D3E9002317F042FC32463B466A
:1022700017F0F4FD47A3D3E9002317F037FC3246EB
:102280003B4617F0EBFD45A3D3E9002317F030FCE4
:1022900032463B4617F0E2FD42A3D3E9002317F094
:1022A00025FC32463B4617F0D9FD40A3D3E9002375
:1022B00017F01EFC32463B4617F0D0FD3DA3D3E994
:1022C0000023804689463046394617F0C7FD3BA3B8
:1022D000D3E9002317F00AFC32463B4617F0BEFD57
:1022E00038A3D3E9002317F003FC32463B4617F02E
:1022F000B5FD36A3D3E9002317F0F8FB32463B4681
:1023000017F0ACFD00221E4B17F0F2FB02460B4605
:102310004046494617F0CCFE22462B4617F09EFD5C
:1023200022462B4617F0E4FB07B0BDE8F08F52467B
:102330005B46DDE9000117F0BBFE42464B4617F055
:102340008DFD42464B4617F0D3FB02460B4617F075
:10235000CFFB07A3D3E9002317F0C8FB02460B46C7
:1023600005A1D1E9000117F0C1FB24E7AFF300801C
:10237000075C143326A6913C182D4454FB21F93FE9
:102380000000F03F09F7FD0DE13D023F88B2017505
:10239000E0EF493F3B8F68B52882A43F5544880E43
:1023A00055C1C93F7D6FEB0312D6D43F55555555E6
:1023B0005555C53F82922EB1C5B8B33F59018D1B0B
:1023C0006C06E63FC88A599CE52A00404B2D8A1CC2
:1023D000273A0340000000002DE9F84F1D46534204
:1023E000134325F00049DFF8C8C149EAD3736345B8
:1023F000144606460F4626D8C0F1000848EA0008F1
:1024000021F0004A4AEAD878E04503468B461AD8BC
:1024100005F1404808F5801858EA0208AE4643D056
:102420004FEAA57808F002085AEA030348EAD1788F
:1024300011D1B8F1020F55D0B8F1030F09D14AA15B
:10244000D1E9000105E032463B462046294617F017
:102450004FFBBDE8F88F59EA020329D0E1452ED0A1
:10246000E24525D0AAEB09094FEA2959B9F13C0FF9
:102470003CDC002D3EDA19F13C0F3BDA0020002154
:10248000B8F1010F4ED0B8F1020F3ED0B8F1000FF5
:10249000DFD037A3D3E9002317F028FB36A3D3E915
:1024A000002317F023FBD4E7BDE8F84FFEF744BB49
:1024B000BBF1000F12DB32A1D1E90001C9E7CA4527
:1024C00034D0B8F1020F0DD0B8F1030FB7D0B8F186
:1024D000010F4FF0000036D00021BAE72AA1D1E960
:1024E0000001B6E724A1D1E90001B2E724A1D1E9B6
:1024F0000001C5E722462B463046394617F0D8FD85
:1025000015F02CFCFEF718FBBAE719A3D3E900235A
:1025100017F0ECFA02460B4617A1D1E9000117F0BB
:10252000E5FA96E701F10043194692E7B8F1020F88
:1025300014D0B8F1030F0DD0B8F1010F06D014A1DB
:10254000D1E9000185E74FF0004182E712A1D1E90E
:1025500000017EE712A1D1E900017AE712A1D1E9D9
:10256000000176E7AFF30080182D4454FB2109C029
:10257000075C143326A6A13C182D4454FB210940C6
:10258000182D4454FB21F93F182D4454FB21F9BF69
:10259000182D4454FB21E93F182D4454FB21E9BF79
:1025A000D221337F7CD902C0D221337F7CD9024033
:1025B0000000F07F0000000043422DE9F047034394
:1025C00021F000463C4A46EAD373934204460D4646
:1025D0002AD8964240D0394B9E428A462EDD384B4F
:1025E0009E4235463FDD33460246314617F080FABB
:1025F000224606460F462B4600202F4917F076FA52
:1026000002460B463046394617F052FDFEF728FDCC
:1026100000222C4B17F022FCBAF1000F0CDA01F16A
:1026200000431946BDE8F08702460B4617F05EFAF4
:1026300002460B4617F03CFDBDE8F0871CA3D3E92A
:10264000002317F055FA0022002317F097FE48B137
:1026500020462946BDE8F0870022002317F028FD18
:10266000BDE8F087354622462B462046294617F01E
:102670003FFA22462B4606460F4617F0EFFB22464E
:10268000804689462B4600200B4917F02FFA024658
:102690000B464046494617F00BFD32463B4617F0C5
:1026A00027FAFEF7DDFC0022064B17F0D7FBB3E755
:1026B0009C7500883CE4377E0000F03FFFFF2F3E12
:1026C000FFFFDF3F0000E03F2DE9F8434E4B21F0D4
:1026D00000449C4206460F461BDC4C4B9C4222DDCC
:1026E0004B4B9C4254DD4B4B9C4246DD4A4B9C423B
:1026F0006FDD01339C4269D041A3D3E9002310462A
:10270000194617F0ABFB06460F4630463946BDE882
:10271000F88302460B4617F0A1FB06460F463046EB
:102720003946BDE8F88315F019FB02F04DFC002294
:102730003A4B8046894617F0DBF9B4F1725F0646E2
:102740000F46ECDB42464B464046494617F086FBB7
:1027500032463B4604460D463046394617F0C8F926
:1027600002460B462046294617F0A2FC00222B4BBE
:1027700017F0BEF906460F46D1E715F0EFFA00F064
:1027800053F80022264B17F069FB06460F46C6E7B2
:1027900015F0E4FA00F048F80022214B06460F46F7
:1027A00017F05CFB324604460D463B4600201C49B0
:1027B00017F07EFC02460B462046294617F098F992
:1027C00006460F4630463946BDE8F883154B984219
:1027D00092D83046394615F0C1FA0022104B17F056
:1027E0003DFB00F021F8002204460D460C4B17F08B
:1027F00035FB22462B4617F031FB06460F468EE787
:102800009C7500883CE4377EFFFFEF7F422ED63F69
:10281000FFFF3540412E8640CD3386400000F03F1B
:102820000000E03F7DF8B98F2DE9F047B04F21F06F
:102830000042BA4284B004460D464FEAD17610D920
:10284000AC4FBA4240F28A80C1F3130303430246FD
:1028500040F0F180002E7ED00020002104B0BDE8C1
:10286000F087A54B9A4200F2B680A44B9A4240F200
:10287000D1804FF0000A22462B462046294617F009
:10288000EDFA85A3D3E9002306460F4617F0E6FAD2
:1028900083A3D3E9002317F029F932463B4617F00A
:1028A000DDFA81A3D3E9002317F022F932463B4633
:1028B00017F0D4FA7EA3D3E9002317F017F93246B4
:1028C0003B4617F0CBFA7CA3D3E9002317F010F9AD
:1028D00032463B4617F0C2FA02460B4620462946CE
:1028E00017F004F902460B4606460F4620462946D5
:1028F00017F0B4FA80468946BAF1000F00F0AB80B9
:1029000032463B4600204FF0804117F0EFF8024678
:102910000B464046494617F0CBFB02460B46DDE925
:10292000020117F0E3F8DDE9002317F0DFF80B46AA
:1029300002467349002017F0D9F86FF47F739A4567
:1029400080F2A3800AF57A7A01EB0A5100224FF057
:10295000B87317F083FA04B0BDE8F08758A3D3E941
:10296000002317F00BFD00286BD157A3D3E90023F8
:102970002046294617F0E4FC00287FF46DAF61493A
:1029800053A3D3E9002301EBC6062046294617F0DE
:1029900065FAD6E9002317F0ABF817F00FFD824671
:1029A00017F0F2F94CA3D3E9002306460F4617F0BF
:1029B00055FA02460B462046294617F097F848A3D9
:1029C000D3E90023CDE900013046394617F046FA35
:1029D000CDE9020115E04C4B9A42D0D84B4BF400A4
:1029E0002344D3E9002317F081F8494B234493EDA6
:1029F000007BCDE900018DED027BC6F1010AAAEB57
:102A0000060ADDE90223DDE9000117F06FF804464C
:102A10000D4630E734A3D3E9002317F069F800220C
:102A2000374B17F0ABFCA8B3204629460022344BA5
:102A300017F05EF88FE70B4617F05AF804B0BDE8C0
:102A4000F08729A3D3E900231046194617F006FAA8
:102A500004B0BDE8F0873046394600224FF080438D
:102A600017F044F802460B464046494617F020FB53
:102A700022462B4617F03AF802460B460020204922
:102A800017F034F804B0BDE8F08701EB0A5104B048
:102A9000BDE8F0878246EEE6D0A4BE726937663E96
:102AA000F16BD2C541BDBB3E2CDE25AF6A56113F4E
:102AB00093BDBE166CC1663F3E5555555555C53F35
:102AC000EF39FAFE422E864051302DD5104987C08D
:102AD000FE822B654715F73F0000E0FE422EE63FE1
:102AE000763C7935EF39EA3D9C7500883CE4377EC9
:102AF000412E8640FFFFEF7F422ED63FFFFF2F3E45
:102B00000000F03FA8B10100B1A2F03FB8B1010050
:102B1000C8B10100000000002DE9F04FB1F5801FA1
:102B200085B006460F460B4680F2D08021F0004269
:102B3000024300F0DA800029C0F2E9800022D64B7F
:102B400017F08CF9D54A0B46934206460F466FF0B4
:102B5000350E00F3C180C3F3130505F5152C0CF6F3
:102B6000647C0CF4801C8CF07F5282F440121C15A3
:102B700042EA0507A4F2FF3474440022C84B3046F1
:102B8000394604EB1C5416F0B1FFAB1CC3F313031E
:102B9000022B82468B464FF0000240F3AF804FF08D
:102BA000804316F0A5FF02460B465046594617F0E3
:102BB0007FFA064620460F4617F0E6F83246CDE982
:102BC00002013B4630463946CDE9006717F046F929
:102BD00002460B468046894617F040F99AA3D3E98E
:102BE000002306460F4617F039F999A3D3E90023CD
:102BF00016F07EFF32463B4617F030F996A3D3E934
:102C0000002316F075FF32463B4617F027F994A3D0
:102C1000D3E9002316F06CFF42464B4617F01EF92D
:102C200091A3D3E90023804689463046394617F000
:102C300015F98FA3D3E9002316F05AFF32463B461D
:102C400017F00CF98CA3D3E9002316F051FF32469C
:102C50003B4617F003F90B4602464946404616F03C
:102C600047FFA5F5C223C5F5D725A3F27A43513511
:102C70001D43002D06460F4640F387800022894BF6
:102C80005046594617F0EAF852465B4617F0E6F808
:102C900002460B46804689463046394616F028FFE4
:102CA000DDE9002317F0DAF806460F46002C40F065
:102CB000818002460B464046494616F017FF024601
:102CC0000B465046594616F011FF0BE0734A9342EB
:102CD0004FF0000E7FF73FAF32463B463046394655
:102CE00016F006FF05B0BDE8F08F0022002300209B
:102CF0006D4917F0DDF905B0BDE8F08F002317F03E
:102D000015FB60B1002C7CD100200021EAE70246CF
:102D100016F0ECFE0022002317F0CAF9E2E758A3F0
:102D2000D3E900235046594617F098F802460B465F
:102D300000205C4916F0DAFE524606460F465B4616
:102D40005046594617F08AF802460B463046394637
:102D500017F084F806460F462CB3204617F014F8F7
:102D600049A3D3E900238046894617F077F848A3A2
:102D7000D3E9002304460D464046494617F06EF855
:102D800002460B46304639462CE002460B4650467A
:102D9000594616F0ABFEDDE9002317F05FF8064652
:102DA0000F46002C47D132463B465046594616F056
:102DB0009DFE97E734A3D3E90023DDE9020117F074
:102DC0004DF833A3D3E9002304460D46DDE90201A3
:102DD00017F044F832463B4616F08AFE02460B4690
:102DE0004046494616F082FE52465B4616F07EFE8D
:102DF00002460B462046294616F078FE05B0BDE88F
:102E0000F08F204616F0C0FF1FA3D3E9002306462B
:102E10000F4617F023F81EA3D3E9002304460D46FE
:102E20003046394617F01AF802460B462046294626
:102E300016F05EFE56E7DDE9028913A3D3E900230D
:102E40004046494691E700BF44523EDF12F1C23F7F
:102E5000DE03CB966446C73F599322942449D23F60
:102E6000935555555555E53F9FC678D0099AC33FB0
:102E7000AF788E1DC571CC3F04FA97999999D93FC7
:102E8000555555555555D53F0000E0FE422EE63FBD
:102E9000763C7935EF39EA3D00005043FFFFEF7F84
:102EA0000000F03F0000E03F000050C300000000C1
:102EB000B1F5801F2DE9F84304460D460B4619DA9B
:102EC00021F00042024359D000295FDB00223A4B37
:102ED00016F0C4FF394A0D462B46934204466FF064
:102EE00035010CDD22462B462046294616F000FE11
:102EF000BDE8F883314A93424FF00001F2DC181527
:102F0000A0F2FF3008444FEAD0794844C3F31308D5
:102F100016F03AFFC9F57F73033348EA03550646B6
:102F20000F4620462946FFF7F7FD1DA3D3E90023EE
:102F3000804689463046394616F090FF1AA3D3E9F9
:102F4000002304460D464046494616F087FF0246D8
:102F50000B462046294616F0CBFD15A3D3E90023E6
:102F600004460D463046394616F078FF02460B46B9
:102F70002046294616F0BCFDBDE8F8830022002358
:102F800000200F4917F094F8BDE8F883024616F0C8
:102F9000ADFD0022002317F08BF8A9E7AFF3008006
:102FA000362BF111F3FE593D0EE526157BCBDB3FA9
:102FB00000609F501344D33F00005043FFFFEF7F5A
:102FC000000050C3000000002DE9F04F23F0004541
:102FD00055EA020493B00DD06B4E21F00044B44288
:102FE0000F4682460BDD04F1404404F5801454EA98
:102FF0000A0350D16549002013B0BDE8F08F9B460D
:10300000944647D0B542EEDC5F4EB5425DD0002F0E
:1030100080468946CDE900235BDB0026BCF1000F2A
:103020000ED1594B9D423FD0584B9D4200F08880B5
:10303000BBF1804F00F09C80554B9B4500F0B8835E
:103040004046494614F08AFEBAF1000F06D1002C22
:1030500059D04E4B27F040429A4254D0FF0F013FC7
:1030600056EA070373D04B4B9D4240F39B8003F11C
:1030700004739D4240F33E84474B9C4272DDBBF19A
:10308000000F72DD3EA3D3E900231046194616F067
:10309000E5FEB1E728B1414813B0BDE8F04F16F0A6
:1030A00031BBA542F7DCAFE704F1404303F58013E1
:1030B00053EA0A039ED0384B9C4240F38383BBF112
:1030C000000F52DBDDE9000196E7BCF1000F9ED056
:1030D00089E7334B9D4231DCA3F154739D429CDD63
:1030E0002B15A3F2FF33142B40F3A583C3F1340354
:1030F0002CFA03F202FA03F363458ED102F00102C7
:10310000C2F102068AE7BBF1000F05DA02460B4660
:1031100000201E4916F0CCFF002FBFF66DAF04F162
:10312000404404F5801454EA060300F03F84012E65
:103130007FF462AF01F1004319465DE702266DE7B7
:10314000BBF1000FC0F248834046494654E742466F
:103150004B461046194616F0C9FC02460B4616F0BF
:10316000A7FF49E7BBF1000F8CDB0020002143E7FC
:1031700042464B464046494616F070FE3CE700BFCB
:103180009C7500883CE4377E0000F07F0000F03F33
:103190000000E03F0000E041FFFFEF3FD0B9010039
:1031A000FFFF3F43B4F5801F80F261830022D24BC2
:1031B00016F054FE6FF0340C0C462315CF4DC4F3BB
:1031C0001302A3F2FF3342F07F546344AA420B93ED
:1031D00044F4401440F33F83C94B9A4240F30484C3
:1031E0009FEDAF7B8DED087B8DED107B9FEDAE7B72
:1031F0000B9B8DED067B01330B93A4F5801400250A
:10320000DDE906232146824616F070FCA346DDE97F
:1032100006238046894650462146CDE90CAB16F080
:1032200067FC02460B460020B64916F041FF0A46ED
:103230000146CDE90E12134649460246404616F0B5
:103240000DFE631043F0005382468B4603F50023C6
:103250008C46CDE904AB5919D3460023CDE902BC15
:103260000293DDE902AB002004460D4602460B4600
:103270005046594616F0F2FD02460B464046494676
:1032800016F034FCDDE906238046894620462946AF
:1032900016F02CFC02460B46DDE90C0116F026FC6C
:1032A00052465B4616F0DAFD02460B46404649465A
:1032B00016F01CFCDDE90E2316F0D0FDDDE9044517
:1032C000CDE9060122462B462046294616F0C6FDCA
:1032D00077A3D3E9002304460D4616F0BFFD76A37D
:1032E000D3E9002316F004FC22462B4616F0B6FD67
:1032F00073A3D3E9002316F0FBFB22462B4616F0FE
:10330000ADFD71A3D3E9002316F0F2FB22462B4654
:1033100016F0A4FD6EA3D3E9002316F0E9FB2246C4
:103320002B4616F09BFD6CA3D3E9002316F0E0FBBF
:103330002246804689462B462046294616F08EFDB9
:1033400002460B464046494616F088FD5246044662
:103350000D465B46DDE9040116F0CAFBDDE90623F4
:1033600016F07CFD22462B4616F0C2FB52468046E4
:1033700089465B465046594616F070FD0022624B66
:10338000CDE90C0116F0B4FB42464B4616F0B0FBFB
:1033900002980D46044622462B465046594616F0E2
:1033A0005DFD002282468B46574B2046294616F08B
:1033B0009DFBDDE90C2316F099FB02460B464046C7
:1033C000494616F093FBDDE9042316F047FD22463B
:1033D000804689462B46DDE9060116F03FFD024690
:1033E0000B464046494616F083FB80468946024616
:1033F0000B465046594616F07BFB029838A3D3E99A
:10340000002304460D4616F029FD5246CDE904017D
:103410005B462046294616F069FB02460B464046AD
:10342000494616F063FB30A3D3E9002316F016FDDE
:103430002FA3D3E90023804689462046294616F06B
:103440000DFD02460B464046494616F051FBDDE9AC
:10345000102316F04DFB80460B98894616F094FC1D
:10346000424682468B464B46DDE9040116F040FB9E
:10347000DDE9082316F03CFB52465B4616F038FBAC
:10348000029852465B4604460D4616F02FFBDDE9D6
:10349000082316F02BFBDDE9042337E0AFF30080AF
:1034A0000000000000000000000000000000F03FED
:1034B000EF4E454A287ECA3F65DBC9934A86CD3F19
:1034C00001411DA96074D13F4D268F515555D53FFF
:1034D000FFAB6FDBB66DDB3F033333333333E33F97
:1034E000000000E009C7EE3FFD033ADC09C7EE3FEC
:1034F000F5015B14E02F3EBE000040438E980300B0
:1035000079B60B000000F03F0000084016F0EEFA1C
:103510000B4602464946404616F0E8FA013E56EA96
:10352000070382468B4600F05E819FEDD37B8DEDD5
:10353000047BDDE9001200230E461746CDE9026741
:103540000293DDE9026708463B461146324616F013
:10355000CDFA22462B4616F081FCDDE90023804699
:1035600089465046594616F079FC02460B464046BD
:10357000494616F0BDFA3246804689463B4620460B
:103580002946CDE9008916F069FC0B46024606463D
:103590000F464046494616F0ABFAD14B99420446D5
:1035A0000D468A4640F3248101F13F4303F5E003D1
:1035B000034340F0FF81B2A3D3E90023DDE900011A
:1035C00016F096FA3246804689463B462046294602
:1035D00016F08CFA02460B464046494616F0CEFEDF
:1035E000002840F0E781A8464FEA2853A3F2FE32B4
:1035F0004FF4801313415344C3F30A52B94DA2F25E
:10360000FF321541C3F3130423EA05010020C2F180
:10361000140B44F48014BAF1000F02460B4644FA2E
:103620000BFB30463946B8BFCBF1000B16F05EFA03
:1036300006460F463246DDE900013B4616F058FAD1
:103640004FEA0B5A0D4600248FA3D3E900232046EE
:10365000294616F003FC3246804689463B46204602
:10366000294616F043FA02460B46DDE9000116F042
:103670003DFA87A3D3E9002316F0F0FB86A3D3E934
:10368000002306460F462046294616F0E7FB024671
:103690000B463046394616F02BFA06460F460246D0
:1036A0000B464046494616F023FA42464B4604462E
:1036B0000D4616F01BFA02460B463046394616F008
:1036C00015FA2246804689462B462046294616F0A2
:1036D000C5FB73A3D3E9002306460F4616F0BEFBD5
:1036E00071A3D3E9002316F001FA32463B4616F0E7
:1036F000B5FB6FA3D3E9002316F0FAF932463B4637
:1037000016F0ACFB6CA3D3E9002316F0EFF93246B8
:103710003B4616F0A3FB6AA3D3E9002316F0E8F9B1
:1037200032463B4616F09AFB02460B462046294697
:1037300016F0DCF906460F4602460B46204629469F
:1037400016F08CFB0022CDE900014FF0804330469B
:10375000394616F0CBF902460B46DDE9000116F0BA
:10376000A7FC424606460F464B462046294616F021
:1037700075FB42464B4616F0BBF902460B463046F7
:10378000394616F0B3F922462B4616F0AFF9024639
:103790000B460020544916F0A9F98A44BAF5801F57
:1037A000C0F232815146DDE9042316F057FB23E4D1
:1037B000002FFFF645AC4046494613B0BDE8F04F38
:1037C00015F068B9BBF1000FBFF6CFACDDE90034EE
:1037D000184604F100410FE442464B46002042499E
:1037E00016F066FC08E49FED387B8DED047BA0E6C7
:1037F0003E4B21F00048984540F3EA803C4B0B4497
:1038000003430AD132463B4616F070F9DDE9002346
:1038100016F0AAFD00283FF4E7AEDDE904012CA371
:10382000D3E9002316F01AFB29A3D3E9002316F0ED
:1038300015FBFFF7E1BBBCF1000F40F0D280C3F1F4
:10384000140345FA03F202FA03F3AB4200F0E080FE
:103850006646FFF7E9BB9FED207B8DED087B8DED84
:10386000107B9FED057B00258DED067BC8E44FF0B6
:10387000000CA2E4AFF30080000000000000F03F65
:10388000FE822B654715973C00000000432EE63F63
:10389000EF39FAFE422EE63F396CA80C615C20BE7F
:1038A000D0A4BE726937663EF16BD2C541BDBB3E46
:1038B0002CDE25AF6A56113F93BDBE166CC1663F24
:1038C0003E5555555555C53F000000000000F0BF5E
:1038D00059F3F8C21F6EA5010000000000000000AF
:1038E000FFFF8F40FFFF0F000000F03FFFCB904035
:1038F00000346F3F5A4B9C427FF734AC594B9C428B
:103900003FF7BDAB0022574B16F0F0F844A3D3E9C4
:10391000002304460D4616F0A1FA43A3D3E9002381
:1039200082468B462046294616F098FA0022CDE9B9
:1039300002014D4B2046294616F090FA02460B46EE
:103940003BA1D1E9000116F0D1F822462B4616F032
:1039500085FA02460B460020444916F0C7F8224675
:10396000804689462B462046294616F077FA0246BD
:103970000B464046494616F071FA2FA3D3E90023BF
:1039800016F06CFA02460B46DDE9020116F0AEF8BD
:1039900002460B46804689465046594616F0A8F81E
:1039A000002004460D4652465B46AFE502460B46F4
:1039B000FFF7CFBBDDE9040121A3D3E9002316F013
:1039C0004DFA1FA3D3E9002316F048FAFFF714BB02
:1039D000264B98453FF708AEDDE902239246934611
:1039E00031E60026FFF72CBB9FED177B8DED087BA2
:1039F0009FED177B8DED107B9FED177B4FF480259E
:103A00008DED067BFFF7FCBB5A4601F029FDCAE6A7
:103A100002F00102C2F10206FFF706BBAFF300801D
:103A2000000000604715F73F44DF5DF80BAE543EE1
:103A3000555555555555D53FFE822B654715F73FD2
:103A40009C7500883CE4377E0000004003B8E23FEC
:103A500006D0CF43EBFD4C3E000000000000F83FD5
:103A6000FEFFEF3F0000F03F0000D03F0000E03FCE
:103A70002DE9F047CA4B21F000479F4290B08046A5
:103A8000894640F38F80C74B9F420C46924626DC06
:103A90000029B9A3D3E9002340F38F8016F026F85C
:103AA000C14B9F4204460D4600F04781B4A3D3E9C1
:103AB000002316F01BF802460B46CAE900232046F5
:103AC000294616F013F8AEA3D3E9002316F00EF83A
:103AD0000125CAE90201284610B0BDE8F087B34BC2
:103AE0009F4240F38980B24B9F4200F31C813D15F9
:103AF000A5F21645A7EB055319461F46064616F0D4
:103B00005DFC16F041F98046894642464B463046F8
:103B10003946CDE90A8915F0E9FF0022A54B16F0D8
:103B20009DF98946804616F049FC16F02DF90646A7
:103B30000F4632463B4640464946CDE90C6715F0F4
:103B4000D5FF00229B4B16F089F900220023CDE916
:103B50000E0116F0EBFB002800F0608100233046D8
:103B60003946002216F0E2FB002814BF012302238D
:103B7000914A019202212A4600910AA8514600F07A
:103B800087FB002C054614DADAF80420DAF80C304A
:103B900002F1004203F100434542CAF80420CAF88A
:103BA0000C3006E000200021C2E90089C2E90201D0
:103BB0000025284610B0BDE8F08715F099FF7A4B34
:103BC0009F4204460D4600F00B816DA3D3E900230C
:103BD00015F08EFF02460B46CAE90023294620460F
:103BE00015F084FF66A3D3E9002315F081FF4FF0A1
:103BF000FF35CAE90201DCE714F0B0F862A3D3E9AB
:103C000000238046894616F029F900226B4B15F0F7
:103C10006FFF16F0D3FB054616F0B6F856A3D3E9AE
:103C20000023CDE9060116F019F902460B4640467D
:103C3000494615F05BFF52A3D3E90023804689462D
:103C4000DDE90601CDE9028916F008F91F2D0246CB
:103C50000B46CDE9042340F3B380DDE90423DDE91D
:103C6000020115F043FF804689463F15C9F30A5308
:103C7000FB1A102B40F3B18045A3D3E90023DDE903
:103C8000060116F0EBF88046894602460B46DDE950
:103C9000020115F02BFF02460B46DDE90201CDE9DA
:103CA000082315F023FF42464B4615F01FFF3AA3A9
:103CB000D3E9002380468946DDE9060116F0CEF8F7
:103CC00042464B4615F012FF0B46CDE90401024671
:103CD000DDE9080115F00AFFC1F30A53FF1A312F7D
:103CE0008046894600F39C809DED087BCAE90089E7
:103CF0008DED027B42464B46DDE9020115F0F6FEF2
:103D0000DDE9042315F0F2FE002CCAE90201BFF63A
:103D100050AF09F1004401F100436D42CAE900844B
:103D2000CAE9020345E702460B4615F0DFFE00250F
:103D3000CAE90201CAE900013BE715A3D3E9002360
:103D400015F0D4FE14A3D3E900230D46044615F064
:103D5000CDFE02460B46CAE900232946204615F04F
:103D6000C5FE0DA3D3E9002315F0C0FE0125CAE965
:103D700002011EE7AFF3008000004054FB21F93F31
:103D80003163621A61B4D03D83C8C96D305FE43FCE
:103D90000000601A61B4D03D7370032E8A19A33BF2
:103DA000FB21E93F7BD90240FB21F93FFB2139414F
:103DB000FFFFEF7F0000704104C501000000E03FFD
:103DC0004046494615F092FE394B6A1E804653F82C
:103DD0002230BB4289463FF448AFCAE9008989E7EF
:103DE0002BA3D3E9002315F083FE2BA3D3E90023F3
:103DF0000D46044615F07CFE02460B46CAE9002338
:103E00002946204615F072FE23A3D3E9002315F0BE
:103E10006FFE4FF0FF35CAE90201CAE60323A7E6A9
:103E20001FA3D3E90023DDE9060116F017F80646C3
:103E30000F4602460B46DDE9080115F057FE8046A5
:103E4000894602460B46DDE90801CDE9028915F0F5
:103E50004DFE32463B4615F049FE13A3D3E900233D
:103E600006460F46DDE9060115F0F8FF32463B46EF
:103E700015F03CFE02460B4640464946CDE9042378
:103E800015F034FE80468946A7E700BFAFF30080F7
:103E90000000601A61B4D03D7370032E8A19A33BF1
:103EA0000000002E8A19A33BC14920259A837B3943
:103EB00084C4010000000000574A2DE9F84F21F0AA
:103EC0000048904506460F462CDC544B0029B4BFF1
:103ED000534D544D98454FF0000411DC524B98451A
:103EE00026DC4BA3D3E9002315F002FE00224F4B42
:103EF00016F044FA002840D030463946BDE8F88F25
:103F00004B4B984530DD4B4B984568DD0133984568
:103F100062D0304639463EA3D3E9002315F09EFF18
:103F2000BDE8F88F02460B4615F0E2FDBDE8F88FBC
:103F300013F014FF01F048F83F4B984506460F4632
:103F400023DD0022394B15F0D3FD02460B463046E7
:103F5000394616F0ADF832463B4615F0C9FD22460B
:103F60002B4615F07BFFE1E713F0F8FEFEF75CFC53
:103F700022462B4615F072FFD8E73046394613F03B
:103F8000EDFE01F021F806460F4632463B4630462C
:103F9000394615F0ADFD324682468B463B463046EB
:103FA000394615F05BFF0022804689461F4B30469C
:103FB000394615F09DFD02460B464046494616F02F
:103FC00077F802460B465046594615F08FFD2246BB
:103FD0002B4615F043FFA9E7184B984299D8304675
:103FE000394613F0BBFE00220E4B15F037FFFEF7EB
:103FF0001BFC06460F4602460B462046294615F096
:104000002DFF32463B4615F029FF8FE7AFF30080C6
:104010003374AC3C1F7BAC7FFFFFEF7FFFFF35406D
:104020000000E0BF0000E03FFFFF2F3E0000F03F38
:10403000412E8640CD338640FFFFEF3F7DF8B98F9C
:104040002DE9F04F21F00048B8F1795F85B00646C0
:104050000F4692469B466BDA16F0B0F9002800F046
:10406000E18032463B463046394615F0F7FE74A3F0
:10407000D3E9002304460D4615F0F0FE72A3D3E900
:10408000002315F035FD22462B4615F0E7FE70A300
:10409000D3E9002315F02AFD22462B4615F0DEFE5B
:1040A0006DA3D3E9002315F023FD22462B4615F01E
:1040B000D5FE6BA3D3E9002315F018FD22462B464D
:1040C00015F0CCFE68A3D3E9002315F011FD2246BC
:1040D0002B4615F0C3FECDE900010022664B2046B9
:1040E000294615F0BBFEDDE90023804689462046BF
:1040F000294615F0B3FE524604460D465B4630464F
:10410000394615F0ABFE02460B462046294615F00F
:10411000EDFC02460B464046494615F0E7FC0246D8
:104120000B460020554915F0E1FC05B0BDE8F08FC5
:1041300002460B4615F092FE41A3D3E90023044644
:104140000D4615F08BFE40A3D3E9002315F0D0FCFB
:1041500022462B4615F082FE3DA3D3E9002315F03D
:10416000C5FC22462B4615F079FE3BA3D3E900237C
:1041700015F0BEFC22462B4615F070FE38A3D3E99D
:10418000002315F0B3FC22462B4615F067FE36A33C
:10419000D3E9002315F0ACFC2B46224615F05EFE59
:1041A000374B9845CDE9000197DD364B98453EDC0D
:1041B000A8F500130022002030499046994615F0DA
:1041C00095FCCDE9020100222B4B2046294615F033
:1041D00045FE42464B4615F089FCDDE9002380464A
:1041E00089462046294615F039FE524604460D46BA
:1041F0005B463046394615F031FE02460B462046F6
:10420000294615F073FC02460B464046494615F018
:104210006DFC02460B46DDE9020115F067FC05B0B6
:10422000BDE8F08F1549002005B0BDE8F08F9FED87
:10423000107B4FF000088DED027BDFF84C90C2E759
:10424000D43888BEE9FAA8BDC4B1B4BD9EEE213E03
:10425000AD529C804F7E923E9015CB19A001FA3E44
:104260007751C1166CC1563F4C5555555555A53F14
:10427000000000000000E73F0000E03F0000F03FCA
:104280003233D33F0000E93F0000D23F000000007E
:104290002DE9F04FADF5197DBE4CA29EBE4D54F8F0
:1042A00026600793D41E85FB0475E417C4EBA504B0
:1042B00024EAE4741D46631CA3EB8303013D02EB77
:1042C000C3030593731904960994019503900B9108
:1042D000A4EB05071AD43B44002400255E1C0DF115
:1042E0008008DDF88C9208E059F8270015F04CFDA5
:1042F0000137B742E8E8020108D0002FF4DA0137AD
:1043000020462946B742E8E80201F6D1049B002B7B
:10431000079B4FEAC30302932ADB039A20A902EB0F
:10432000030801EB0309049B72AA02EBC30B0DF512
:10433000E07A019B002B4FF000064FF0000711DBE5
:10434000039C4D4675E90223F4E8020115F086FD51
:1043500002460B463046394615F0CAFB4445064630
:104360000F46EFD1EAE80267DA4509F10809E0D122
:10437000DDE90204049920448B0082460BA8A3F1D6
:104380000802C31808930CAB13440A938B4698ABEE
:1043900003EBCB03BBF1000F53E9284529DD70ABDC
:1043A00003EBCB080DF1300900227C4B2046294657
:1043B00015F054FD16F002F815F0E6FC0022784BDB
:1043C00006460F4615F04AFD02460B462046294692
:1043D00015F08CFB15F0F2FF78E9022349F8040B85
:1043E0003946304615F084FB70AB984504460D46BF
:1043F000DAD1DDF81490204629464A4601F030F81B
:1044000000224FF07F5304460D4615F027FDFCF7C0
:10441000A7FD0022634B15F021FD02460B46204606
:10442000294615F063FB0D46044615F0C7FF80468C
:1044300015F0AAFC0B4602462946204615F056FB0D
:104440004B46002B06460F4640F3E1800BF1FF324E
:104450000CA9C9F1180351F8225045FA03F101FAE9
:1044600003F30CA8EB1A40F82230C9F11705884471
:1044700043FA05F5002D2CDDBBF1000F08F1010812
:1044800040F381820C9C002C40F0A780BBF1010F0F
:104490000AD00CA9012251F8044F531C002C40F003
:1044A0009E809B451A46F6D1059B002B0EDD012B05
:1044B00000F0D980022B09D10BF1FF320CAB0CA913
:1044C00053F82230C3F3150341F82230022D00F0D7
:1044D000AF80002200233046394615F027FF002820
:1044E00000F05382049B0BF1FF394B4510DC0BF1BC
:1044F00080430CAA013B089802EB8303002253F887
:104500000419834242EA0102F9D1002A40F0B68040
:10451000049B0CAA013B52F82330002B40F0A180F1
:104520000A9A012352F8041901330029FAD05B4496
:104530000BF10109994506934CDC099A079909EB9F
:10454000020801EB0B0508F1804802EB030BA39B6B
:1045500008F1FF3803EB880870AB03EBC909A39B94
:1045600020A903EB8B0301EBC505029358F8040F58
:1045700015F00AFC0B4601990246002905F1080BCB
:10458000C5E900234FF000064FF000071CDB039C39
:104590000CE000BFA4C90100ABAAAA2A0000703E2B
:1045A000000070410000204075E90223F4E8020198
:1045B00015F054FC02460B463046394615F098FA81
:1045C000544506460F46EFD1029B9845E9E802673D
:1045D0005D46CBD1DDF818B0D9E6012300220CA945
:1045E000C4F180749B4541F822400EDD51F8232030
:1045F00001EB8B0001EB83036FF07F4100E01A6851
:104600008A1A43F8042B8342F9D101244CE706D1DE
:104610000BF1FF330CAA52F82350ED152AE70022C4
:104620007B4B15F0A1FE002840F0A381054650E722
:1046300032463B460020774915F058FA06460F46A9
:10464000002C3FF446AF059A7249002000F008FFA5
:1046500002460B463046394615F048FA06460F46E4
:1046600037E7012363E70BF1FF320CAB0CA953F8DA
:104670002230C3F3160341F8223027E70CAB059A2A
:1046800053F82930183ACDE9068505926BB909F13E
:104690008043013B0CA901EB830353F8041909F192
:1046A000FF39183A0029F8D00592059A5949002097
:1046B00000F0D6FEB9F1000F04460D46C0F2C081ED
:1046C0004FEAC90370AA02EB030808930CAB03EB93
:1046D0008906DFF844B14FF0000A08F108070436F4
:1046E00056F8040D15F050FB22462B4615F0B6FB8C
:1046F0005B4667E9020152462046294615F0AEFBAB
:104700000CAB9E4204460D46EAD148AB039301939D
:10471000CDF8149009F10103DDF810900293C3461F
:104720004FF0000AB9F1000FC0F22A81DFF8EC80E7
:104730005D4635A3D3E9002300260027002403E0CB
:10474000544510DCF8E80223F5E8020115F086FB79
:1047500002460B463046394615F0CAF90134A145E8
:1047600006460F46ECDA019BE3E802670193029BE1
:104770000AF1010A9A45ABF1080BD3D1A29BDDF8EF
:104780001490032B39D8DFE813F0D9000600060097
:104790004D0048AB0393B9F1000F4FF000004FF00C
:1047A000000109DB039D05EBC904083474E9022309
:1047B00015F09EF9A542F9D1079B002B40F01E8110
:1047C0000B9BC3E900010B4603990246D1E90001A6
:1047D00015F08CF9B9F1000F0CDD4AAD012401345C
:1047E000F5E8022315F084F9A145F8DA079B002BC0
:1047F00040F014810B9BC3E90201069B03F0070004
:104800000DF5197DBDE8F08F00000040FB21F93F58
:104810000000E03F0000F03F0000703EF0B10100FA
:1048200048AB0393B9F1000F40F32781039ACDF809
:1048300010904FEAC9030193D318D3E900AB09F1F3
:104840000053013B02EBC9080293914678E90267E5
:1048500052465B463046394615F04AF904460D4645
:1048600002460B463046394615F040F952465B4643
:1048700015F03EF9C145A246AB46C8E90201C8E9B8
:104880000045E3D1DDF81090B9F1010F40F3F58058
:10489000019B039A02991344C900D3E9006701F10F
:1048A000080A019192440DF5947B7AE90289324617
:1048B0003B464046494615F01BF904460D46024664
:1048C0000B464046494615F011F932463B4615F075
:1048D0000FF9D34526462F46CAE90201CAE9004529
:1048E000E3D1019C039B1034002000211C4403F100
:1048F000100574E9022315F0FBF8A542F9D1039CD9
:10490000079ED4E90023D4E90245002E00F08A80F6
:1049100003F1004701F100430B99C1E90403069B31
:104920002646944605F1004403F00700C1E900C79C
:10493000C1E902640DF5197DBDE8F08F089C039D67
:104940000834002000212C4474E9022315F0D0F82B
:10495000A542F9D1079B13B101F1004319460B9B06
:10496000C3E90001069B03F007000DF5197DBDE8C2
:10497000F08FBBF1000F08F1010874DD022581E51D
:1049800000260027EFE600248EE5CDE90685059D8B
:10499000304639466A4200F063FD0022384B064635
:1049A0000F4615F0E1FC00B30022364B3046394685
:1049B00015F054FA15F002FD044615F0E5F9002251
:1049C0002F4B15F04BFA0B4602463946304615F090
:1049D0008DF815F0F3FC0BF101090CAB183543F819
:1049E0002B00059543F829405FE63046394615F01F
:1049F000E5FC0CABD94643F82B0056E60B9C01F1C5
:104A00000043C4E900030B4603990246D1E90001C3
:104A100015F06CF8B9F1000F3FF7DFAE01F100437C
:104A20001946E7E60B9EC6E90023069BC6E904018A
:104A300003F00700C6E902450DF5197DBDE8F08FCA
:104A4000A29B032B3FF6D9AE01A252F823F000BF80
:104A5000614A00009347000093470000214800008E
:104A60000020002176E732463B460020064915F03B
:104A70003DF8022506460F462BE5002000213EE7C3
:104A8000000070410000703E0000F03F0000000098
:104A90002DE9F04F21F00046B6F1795F85B004466C
:104AA0000D469046994604DA15F088FC002800F07F
:104AB000858022462B462046294615F0CFF906462A
:104AC0000F4602460B462046294615F0C7F941A37A
:104AD000D3E9002382468B463046394615F0BEF9AD
:104AE0003EA3D3E9002315F001F832463B4615F00A
:104AF000B5F93CA3D3E9002314F0FAFF32463B4654
:104B000015F0ACF939A3D3E9002314F0EFFF3246D6
:104B10003B4615F0A3F937A3D3E9002314F0E8FFCF
:104B20000E9BCDE900019BB30022294B404649462C
:104B300015F094F9DDE90023CDE90201504659460C
:104B400015F08CF902460B46DDE9020114F0CEFFA8
:104B500032463B4615F082F942464B4614F0C6FFFA
:104B600019A3D3E9002306460F465046594615F0CF
:104B700075F902460B463046394614F0B9FF024635
:104B80000B462046294614F0B1FF05B0BDE8F08F72
:104B900002460B463046394615F060F90AA3D3E9C0
:104BA000002314F0A3FF52465B4615F057F9224646
:104BB0002B4614F09DFF05B0BDE8F08F2046294636
:104BC00005B0BDE8F08F00BF495555555555C53F57
:104BD0000000E03F7CD5CF5A3AD9E53DEB9C2B8ACB
:104BE000E6E55A3E7DFEB157E31DC73ED561C119CA
:104BF000A0012A3FA6F810111111813F000000000A
:104C00002DE9F04FC04C21F0004687B0A642824605
:104C10008B460F46CDE900231ADC15F0CFFB0028A8
:104C20003FD1109B524601331343334300F0B78109
:104C3000109B012B00F0C0815B460020B34915F0AA
:104C400037FA04460D462046294607B0BDE8F08FE6
:104C5000AF4B9E4225DD002909DADDE900452246F9
:104C600005F10043CDE900230BF100418B4652468C
:104C70005B4685A1D1E9000114F038FFDDE900238E
:104C800004460D4682A1D1E9000114F02FFF9FEDEB
:104C9000827B22462B468DED007B14F029FF824655
:104CA0008B4652465B465046594615F0D7F80246A9
:104CB0000B468046894615F0D1F8424604460D461B
:104CC0004B465046594615F0C9F875A3D3E9002361
:104CD000CDE902012046294615F0C0F872A3D3E9B8
:104CE000002314F005FF22462B4615F0B7F870A3F9
:104CF000D3E9002314F0FCFE22462B4615F0AEF853
:104D00006DA3D3E9002314F0F3FE22462B4615F0E1
:104D1000A5F86BA3D3E9002314F0EAFE22462B4644
:104D200015F09CF868A3D3E9002314F0E1FE424695
:104D30004B4615F093F866A3D3E90023CDE90401AF
:104D40002046294615F08AF863A3D3E9002314F01E
:104D5000CFFE22462B4615F081F861A3D3E900234C
:104D600014F0C6FE22462B4615F078F85EA3D3E970
:104D7000002314F0BDFE22462B4615F06FF85CA30D
:104D8000D3E9002314F0B4FE22462B4615F066F852
:104D900059A3D3E9002314F0ABFE02460B46DDE92C
:104DA000040114F0A5FEDDE9022315F057F8DDE952
:104DB000004522462B4614F09BFE42464B4615F01A
:104DC0004DF822462B4614F093FE4DA3D3E9002361
:104DD00004460D46DDE9020115F040F822462B4657
:104DE00014F086FE0B4602468046894650465946D8
:104DF00014F07EFE464B9E4204460D4600F38C8026
:104E0000109B012B3BD002460B4600203F4915F07A
:104E10004FF9002406460F462046294652465B4677
:104E2000CDE90067CDE90201009414F05FFEDDE9F1
:104E300000AB02460B464046494614F057FE524628
:104E40005B4615F00BF8524604460D465B46DDE91D
:104E5000020115F003F800222E4B14F049FE024621
:104E60000B462046294614F043FE32463B4614F0DA
:104E7000F5FF52465B4614F03BFE04460D462046C5
:104E8000294607B0BDE8F08F182D4454FB21E93FB7
:104E9000075C143326A6813C0000000000000000DF
:104EA000D47ABF74702AFB3EE9A7F0320FB8123FE4
:104EB00068108D1AF726303F1583E0FEC8DB573F98
:104EC00093846EE9E326823FFE41B31BBAA1AB3F58
:104ED000735360DBCB75F3BEA69237A0887E143F78
:104EE0000165F2F2D844433F280356C9226D6D3F55
:104EF00037D60684F464963F7AFE10111111C13F33
:104F0000635555555555D53FFFFF2F3E0000F0BF67
:104F10002794E53F0000F03F109814F035FF22463B
:104F2000CDE900012B462046294614F097FFDDE924
:104F30000023CDE902012046294614F0D9FD02469E
:104F40000B46DDE9020115F0B3F842464B4614F07A
:104F5000CDFD02460B465046594614F0C7FD0246A9
:104F60000B4614F0C5FD02460B46DDE9000114F0C6
:104F7000BDFD0446B81700F00200C0F101000D4667
:104F800014F002FF02460B462046294614F066FF45
:104F900004460D462046294607B0BDE8F08F50462E
:104FA000594612F0DBFE02460B460020044915F07C
:104FB0007FF804460D4662E754465D465FE700BF52
:104FC0000000F03F000000002DE9F04FCC4A21F036
:104FD0000043934285B082468B460C4620D9C94A8D
:104FE000934200F2D780002C80F2A481ACA3D3E9D5
:104FF00000235046594614F07BFD0022002315F093
:105000009FF9002840F0D180A7A3D3E900235046A0
:10501000594614F023FF02460B460020BA4994E19A
:10502000BA4A934200F2E580B94A934240F22E8197
:10503000002301930022B74B5046594614F00EFF4F
:1050400006460F4602460B465046594614F006FFE8
:1050500097A3D3E9002304460D4614F0FFFE96A360
:10506000D3E9002314F044FD22462B4614F0F6FE4B
:1050700093A3D3E9002314F039FD22462B4614F004
:10508000EDFE91A3D3E9002314F032FD22462B4616
:1050900014F0E4FE8EA3D3E9002314F027FD22468A
:1050A0002B4614F0DBFE00229B4B14F021FD8046C2
:1050B000894602460B463046394614F0CFFE02467A
:1050C0000B460020954914F011FD064602460B469A
:1050D0000F464046494614F009FD3246804689464F
:1050E0003B465046594614F0B9FE02460B46002096
:1050F0008B4914F0FBFC02460B464046494614F02F
:10510000D7FF22462B4614F0A9FE019E02460B460D
:10511000002E4DD0DDE9026732463B4614F0E6FC36
:1051200052465B4614F09AFE32463B4614F0DEFCD3
:105130002B46224614F0DAFC019B013306460F464B
:1051400000F02381019B012B7BD0019A531C392B4A
:105150004FEA025500F22881019A132A40F3558143
:10516000019BC3F57F7403340022230514F0C0FCB7
:1051700002460B465046594614F0B8FC0022664BD6
:1051800014F0B6FC824605EB010B5046594605B0BB
:10519000BDE8F08F634A93421BD9C1F31303034365
:1051A000024640F012810029EFDA00205E490DE04E
:1051B0005046594614F052FE22462B4614F096FCF7
:1051C00002460B465046594614F090FC05B0BDE827
:1051D000F08F41A3D3E9002315F0D0F800283FF465
:1051E00002AF3FA3D3E900231046194614F036FE60
:1051F000ECE74E4A934200F2EC8000293AA3D3E94F
:10520000002339DA14F074FC39A7D7E900674FF0AE
:10521000FF3380468946019332463B464046494625
:1052200014F064FC02460B4682468B4640464946D3
:1052300014F05CFC32463B4614F058FCCDE9020108
:10524000F8E600223A4B5046594615F079F8002806
:1052500000F0CC805046594600222E4B14F048FCFA
:1052600002460B463046394614F040FC00224FF00F
:10527000404314F0F3FDA9E714F038FC0123804605
:10528000894601931CA7D7E90067C5E714A3D3E9B2
:10529000002314F02DFC02460B468FE7AFF300808D
:1052A00059F3F8C21F6EA501FE822B654715F73F23
:1052B0002DC3096EB7FD8ABE3952E686CACFD03EED
:1052C000B7DBAA9E19CE143F8555FE19A0015A3F9F
:1052D000F41011111111A13FEF39FAFE422E864050
:1052E0009C7500883CE4377E0000E0FE422EE63FDD
:1052F000763C7935EF39EABD763C7935EF39EA3DD0
:1053000079684340412E86400000E0BF422ED63FE0
:10531000FFFF8F3C0000E03F0000F03F000008402E
:1053200000001840FFFFEF7F0000F0BFB1A2F03F88
:105330000000D0BF44A3D3E900235046594614F0DF
:105340008DFD02460B460020414914F0D1FB15F0BB
:1053500035F8019014F018FD37A3D3E90023064671
:105360000F4614F07BFD02460B465046594614F09A
:10537000BDFB33A3D3E90023804689463046394636
:1053800014F06CFD06460F4646E702460B465046B3
:10539000594614F0ABFB00222D4B14F05FFD0022A8
:1053A0002B4B14F0A3FB11E752465B4614F09EFB17
:1053B00002460B460020274914F098FB6B1819464B
:1053C0000022244B14F092FB00E70B4614F090FBF4
:1053D000FCE61DA3D3E9002314F040FD002C024697
:1053E0000B464FF00000AFDA1B49AEE732463B46B2
:1053F0005046594614F07AFB02460B4614F078FBEF
:105400000022144B14F074FBE0E64FF4001343FA4F
:1054100002F452465B4614F069FBC4F17F57002644
:1054200007F5401702460B463046394614F05EFB3E
:10543000A8E600BFAFF300800000E0FE422EE63F8A
:10544000763C7935EF39EA3DFE822B654715F73F0B
:105450000000E03F0000F03F0000E0BF000000005F
:10546000F8B5C1F30A5304460D460E4617460BBB6A
:1054700021F00046034633431BD0354B002214F085
:10548000EDFC344B9F4204460D4635DBC1F30A5315
:105490000E46363B3B4440F2FE72934232DC002B18
:1054A00011DD26F0FF4626F4E00646EA03552046C5
:1054B0002946F8BD40F2FF729342EBD102460B46FB
:1054C00014F016FBF8BD13F1350F28DA4CF2503307
:1054D0009F4222462B460ADD19A1D1E9000114F0B2
:1054E00077FA17A3D3E9002314F0B8FCF8BD16A18E
:1054F000D1E9000114F06CFA13A3D3E9002314F0EE
:10550000ADFCF8BD22462B460DA1D1E9000114F0F7
:105510005FFA0BA3D3E9002314F0A0FCF8BD26F03A
:10552000FF4626F4E006363346EA03552046294670
:105530000022094B14F092FCF8BD00BFAFF30080CD
:105540009C7500883CE4377E59F3F8C21F6EA501B4
:1055500000005043B03CFFFF0000903C10B5054CEC
:10556000237833B9044B13B10448AFF3008001230F
:10557000237010BD1005002000000000FCCA0100CF
:1055800008B5034B1BB103490348AFF3008008BDC6
:105590000000000014050020FCCA0100154B002B80
:1055A00008BF134B9D46A3F5803A00218B460F465A
:1055B0001348144A121A09F0B7F90F4B002B00D008
:1055C00098470E4B002B00D0984700200021040084
:1055D0000D000D48002802D00C48AFF3008014F0F5
:1055E0002DFA2000290005F0B9F814F013FA00BFD5
:1055F0000000080000000220000000000000000081
:1056000000040020A80C00200000000000000000A2
:1056100070B504460E4600F047FA88B103681B6B6C
:1056200005469847082C0CD0A4F10903012B14D986
:105630003246214610230D20BDE8704004F07AB8B0
:1056400070BD2B6828469B6A98470228F0DC2B68BF
:1056500028465B6A04219847EAE72B6828469B6A3C
:1056600098470528E4DC2B6828465B6A08219847A0
:10567000DEE700BF38B52DED028B054600F014FAC9
:10568000044640B103681B6B9847032D03D8DFE83D
:1056900005F02F363D06BDEC028B002038BD2046BC
:1056A0000CF03CFD07EE900A2046F8EEE78A0CF07D
:1056B00043FD07EE900A2046B8EEE78A0CF04AFD5B
:1056C00068EE087A07EE100AE8EEA87AB8EEC77A14
:1056D000E7EE077AF5EE407AF1EE10FAB1EEE78ADE
:1056E0001BD4FDEEC87ABDEC028B17EE900A38BDD4
:1056F000BDEC028B2046BDE838400CF00FBDBDEC80
:10570000028B2046BDE838400CF016BDBDEC028B84
:105710002046BDE838400CF01DBD17EE900A13F08E
:1057200053F8DEE738B5044600F0BEF958B1036817
:105730001B6B0546984744B1012C04D12846BDE8AF
:105740003840FBF73DB9002038BD2846BDE8384059
:10575000FBF716B910B5044600F0A6F928B10368A6
:1057600021465B6ABDE81040184710BD00487047ED
:1057700016FCFFFF704700BF10B5034B03600446E3
:105780000CF0C8FA204610BD74BF010010B5054BDF
:10579000036004460CF0BEFA204615F0E7F82046F8
:1057A00010BD00BF74BF01002DE9F041032184B09A
:1057B0000546512001F0DAFCDFF8E8C2AE4B0446A2
:1057C00004F00F06C4F3031714F4807408BF634693
:1057D000AA4831463A460BF027FC221C18BF01228A
:1057E00031463B4628460EF0CFFB0023AB60A44871
:1057F0000BF01AFC4FF0FF31032001F0B7FCC0B2F0
:1058000004F052FA4FF0FF310446022001F0AEFCE2
:10581000C0B204F049FA002C3BD0002839D0014630
:10582000204604F063F8064600284DD04FF0FF31C3
:10583000462001F09BFC322804464ED04BDD382830
:1058400000F0B18068285FD14FF0FF31012001F0F6
:105850008DFCC0B204F028FA80465C2015F08FF869
:10586000052301934246009431462B4607460DF02E
:105870008DFBAF603B683846DB6A9847A8680368D1
:105880001B6B98477F480BF0CFFB284604B0BDE860
:10589000F0817D480BF0C8FB4FF0FF31192001F07B
:1058A00065FCC0B204F000FA4FF0FF310446182046
:1058B00001F05CFCC0B204F0F7F90146204604F0A8
:1058C00015F806460028B1D170480BF0ADFB28460C
:1058D00004B0BDE8F081302816D14FF0FF3101202F
:1058E00001F044FCC0B204F0DFF98046502015F00E
:1058F00046F8A4B207460523019342460094314678
:105900002B460DF0EDF8B4E701243268CDE90044F0
:105910000023576AAB600F220DF10F03322130468E
:10592000B847002800F085803368CDE900440F2295
:105930005F6A30210DF10F033046B84700284AD086
:105940003368CDE900440D225F6A38210DF10F0361
:105950003046B847002872D03268CDE900440DF1D6
:105960000F03576A682175223046B847002845D191
:10597000682147480BF058FB4FF0FF31204601F0FB
:10598000F5FBC0B204F090F980465C2014F0F7FFFC
:1059900005246823CDE90034424631462B460746AC
:1059A0000DF0F4FA65E74FF0FF31012001F0DEFB66
:1059B000C0B204F079F98046502014F0E0FF0523CE
:1059C0000746019342462B46009431460DF0BEF93E
:1059D000304B3B604DE730212D480BF025FB302448
:1059E0004FF0FF31012001F0C1FBC0B204F05CF9BF
:1059F0008046502014F0C3FF07467CE726480BF092
:105A000013FBAF68002F7FF435AF4FF0FF31032059
:105A100001F0ACFBC0B204F047F930B11F480BF005
:105A200003FB284604B0BDE8F0811D480BF0FCFAEA
:105A30004DE7322116480BF0F7FA3224D0E738212F
:105A400013480BF0F1FA4FF0FF31204601F08EFBC6
:105A5000C0B204F029F98046502014F090FF0524CC
:105A600038230746CDE9003442462B4631460DF037
:105A70006DF9084B3B60FCE678B2010088B201008A
:105A8000A8B2010068B30100B8B20100CCB20100B5
:105A9000F8B2010040B20100E4B201000CB3010011
:105AA00048B3010080B2010038B5114C23680BB136
:105AB000986838BD4FF0FF31012001F057FBC0B2AC
:105AC00004F0F2F840B10C2014F059FF0546FFF73E
:105AD0006BFE2560A86838BD4FF0FF31032001F050
