:020000040002F8
:106000000000042009C0030031C0030033C00300B6
:1060100035C0030037C0030039C003000000000092
:106020000000000000000000000000003BC0030072
:106030003DC00300000000003FC0030041C003005A
:1060400043C0030043C00300A9BE03006DBE0300AC
:1060500081BE030043C00300B1B2030043C003008C
:10606000FDBA030005BB03000DBB030043C00300E2
:1060700043C0030043C0030043C0030043C0030008
:1060800043C0030043C0030043C0030043C00300F8
:1060900043C0030043C0030043C0030043C00300E8
:1060A00043C0030043C0030015BB03001DBB030036
:1060B00043C0030043C003000000000000000000D4
:1060C00043C0030043C0030043C0030095BE030068
:1060D00043C0030043C0030043C0030043C00300A8
:1060E000D1BE030043C0030043C003000000000012
:1060F0000000000043C0030000000000BDBE03001C
:10610000000000000000000000000000000000008F
:10611000000000000000000000000000000000007F
:10612000000000000000000000000000000000006F
:10613000000000000000000000000000000000005F
:10614000000000000000000000000000000000004F
:10615000000000000000000000000000000000003F
:10616000000000000000000000000000000000002F
:10617000000000000000000000000000000000001F
:10618000000000000000000000000000000000000F
:1061900000000000000000000000000000000000FF
:1061A00000000000000000000000000000000000EF
:1061B00000000000000000000000000000000000DF
:1061C00000000000000000000000000000000000CF
:1061D00000000000000000000000000000000000BF
:1061E00000000000000000000000000000000000AF
:1061F000000000000000000000000000000000009F
:106200007CB0EE877CB0EE87FF00FF00FF00FF0050
:10621000FF00FF00FF00FF00FF00FF00FF00FF0086
:10622000FF00FF00FF00FF00FF00FF00FF00FF0076
:10623000FF00FF00FF00FF002DE9F04F85B0039144
:106240000778A7F10903042B044607F07F0200F149
:106250000100F5D9202AF3D02B2F04BF677804461C
:106260002D2F75D09FED427B8DED007B4FF0000808
:106270004FF000099FB34FF0000C25464FF0000A85
:10628000DFF8FCB0644619E018F080FB80468946D0
:10629000304618F011FB42464B4618F0C1F9524601
:1062A000804689465B46DDE900013CB318F098FC66
:1062B000CDE90001A44615F8017F7FB1A7F13006B2
:1062C000092E52465B4640464946DDD9CCB92E2FB1
:1062D00017D115F8017F0124002FEFD12C4642463B
:1062E0004B46DDE9000118F051FB80468946039BCF
:1062F000404649461C6005B0BDE8F08F4FF0010CE8
:10630000D9E72C46BCF1000F29D042464B46DDE9C7
:10631000000118F03BFB07F0DF07452F8046894658
:10632000E5D10399681C0A2218F05EF91449024667
:10633000002018F0DBFE02460B464046494618F0A6
:1063400025FB804689464046494605B0BDE8F08FAA
:106350009FED097B67788DED007B013486E7DFF8E0
:1063600024904FF000084046494605B0BDE8F08F44
:10637000000000000000F03F000000000000F0BF3F
:10638000000024400000F87F2DE9F0470023144668
:1063900000228046894618F06BFD28B109F10043C0
:1063A00099462D232370013400220023404649469C
:1063B00018F054FD28B13022002322706370BDE82C
:1063C000F0874046494616F053FE18F08FFD73A340
:1063D000D3E9002307464946404618F049FD002806
:1063E0004ED170A3D3E900234046494618F05EFD24
:1063F000002845D10E2F07F1010540F3B980A7F120
:106400000E0632460020624918F070FE02460B4626
:106410004046494618F0E4FB00225E4B18F000F9B4
:1064200018F0A0FE002DA7F10F0E4FF0010C4DDD6E
:10643000594FDFF87881012245F6F3294FF02E0AF3
:10644000494508BF40454FF030030AD3B0EB080080
:1064500061EB0901494508BF404503F10103F5D24D
:10646000DBB2237050EA010304F101084AD19542DE
:1064700052DD0132102A4FD0444677E90289DFE726
:10648000002F33DB3A460020414918F02FFE024628
:106490000B464046494618F0A3FB3BA3D3E9002333
:1064A00080468946012500264046494618F06EFA86
:1064B0000022384B18F0B4F818F054FE002DBC46FA
:1064C0004FF0FF3E37464FF00006B1DC2346302246
:1064D0004FF02E0803F8022B84F80180FC4345D0CE
:1064E0001C4403F8012BA342FBD1A1E77A42002010
:1064F000274918F0FBFD02460B464046494618F076
:1065000045FACAE7954202F1010204BF84F801A0EE
:1065100004F10208102AAFD16EB14246302102F8D0
:10652000011BC2F1010373444344002BF7DC2EEA44
:10653000EE7301339844BCF1010F12D0BCF1000F8F
:106540004FF0650388F80030C5BF2B2388F8013071
:1065500008F1010108F102016046BDE8F04710F0C2
:10656000E5BC002388F80030BDE8F0871C465FE7F3
:10657000C7F10E020020064918F0B8FD3E4602465B
:106580000B46012790E700BF0000901EC4BCD64216
:10659000000024400000E03F80FC03008DEDB5A02A
:1065A000F7C6B03E50EFE2D6E41A4B4400407A10F2
:1065B00070B54FF0FF3006F017FA04466FF07F40D9
:1065C00006F012FA0646204618F066F900220C4B37
:1065D00018F0DCF9044630460D4618F05DF906A3C4
:1065E000D3E9002318F0FCFA02460B462046294660
:1065F00018F016F870BD00BF0000E0DFFFFF6F432A
:106600000000F03D000000002DE9F04F1D46138909
:10661000AB4288BF536885B004468CBF53F8250051
:10662000002090468A4606F053FE0022904B18F058
:10663000ADF918F05BFCB8F808206B1C9A4288BFD3
:10664000D8F8042006468CBF52F82300002006F03C
:106650003FFE0022864B18F099F918F047FCB8F875
:1066600008300235AB4288BFD8F8043007468CBFEB
:1066700053F82500002006F02BFE002EC4E9006729
:1066800040F3E280002F40F3DF8071A3D3E90023C1
:10669000002584F8285016F00DFC002200238046C7
:1066A000894618F0E5FB40B14046494668A3D3E966
:1066B000002317F0B5FF8046894667A3D3E900237E
:1066C0004046494618F0F2FBC0B165A3D3E9002368
:1066D0004046494618F0D6FB80B101234046494662
:1066E00084F8283060A3D3E9002317F099FF58A35A
:1066F000D3E9002316F0DEFB8046894600225D4B7D
:106700004046494618F042F916F008F901F10043F5
:1067100000221946564B18F039F918F0E7FB4946A4
:106720000546404616F0B6F80022514B18F02EF9F7
:1067300018F0DCFBDAF804304F49B3F80CB0B3F8CA
:106740000AA0A56007FB0BF303EB010806FB0AF6A2
:10675000019388FB05234FEA124C00960E444CEA45
:10676000034C06EA010383FB009A06EB0C0E0EEACB
:10677000010ED346CA468EFB00675246CDE902673A
:10678000120C42EA0B42DDE902AB0CEA010C8CFB75
:1067900000674FEA164956460A40360C46EA0B4651
:1067A00049EA074982FB05AB5F46C144B0445646FF
:1067B000CDE90267039FE060360C09EA010908EAA7
:1067C000010846EA074689FB05AB334488FB0556BA
:1067D000CDE9025655462D0C45EA0B45DDE902ABE5
:1067E0000B40AC4403EAE3770CEA010C554623EA7C
:1067F000E37367454FEA154502EAE276A8BF6746AC
:1068000045EA0B45634522EAE272B8BF6346AE44EF
:106810004E450EEA010EA8BF4E464A45B8BF4A464D
:106820007745A8BF77467345B8BF73464645A8BFAE
:106830004646C4E905634245B8BF424600980199FF
:10684000206261622761E261204605B0BDE8F08FF9
:10685000EA2E4454FB211940F4D64354FB21F93F5E
:10686000320D337F7CD91240EA2E4454FB2109407B
:106870000000F0400000E03F0000FFFF00000000CB
:1068800008B511F01BFEDFED0C7A07EE100A67EE7B
:10689000277A17EE900A18F021F805A3D3E9002310
:1068A00018F09EF918F022FB08BD00BFAFF300807E
:1068B000EA2E4454FB2119400000B44300000000BC
:1068C00008B511F00FFEDFED0C7A07EE100A67EE47
:1068D000277A17EE900A18F001F805A3D3E90023F0
:1068E00018F07EF918F002FB08BD00BFAFF300807E
:1068F000EA2E4454FB2119400000B443000000007C
:10690000494A21F0004393422DE9704304460D4665
:1069100049DC464A93420E460EDC3FA3D3E90023EE
:1069200017F07EFE0022424B18F0C0FA00284AD031
:1069300020462946BDE870833E4A934239DCB3F1D4
:10694000804F40DD15F0A2FF2246804689462B4647
:106950002046294618F01AF80022354B17F060FE41
:1069600016F030FE42464B4617F05AFE02460B46E2
:1069700000202F4918F034F9424604460D464B4694
:106980004046494617F04CFE02460B462046294633
:1069900017F046FE02F040F8002E08DC01F100433B
:1069A0001946BDE8708302460B4617F039FEBDE874
:1069B000708315F06BFF02F02FF819A3D3E90023C1
:1069C00017F02EFEE8E722462B462046294617F010
:1069D000DDFF804689462046294615F057FF0022F4
:1069E00004460D46124B4046494617F019FE16F074
:1069F000E9FD00220E4B17F013FE02460B464046FF
:106A0000494618F0EDF822462B4617F009FE00F033
:106A1000A7FAC1E7AFF300809C7500883CE4377E9D
:106A2000EF39FAFE422EE63FFFFFEF7FFFFF2F3EDA
:106A30000000F03F0000B0412DE9F84FBE4B21F0BF
:106A400000469E4204460D468A460EDDBB4B9E42E2
:106A500000F3B18000F0AC80BAF1000F40F3EA809F
:106A600099A1D1E90001BDE8F88FB54B9E4200F332
:106A7000BA80A3F1DE739E4240F3A5804FF0FF3B46
:106A800022462B462046294617F080FF02460B4639
:106A90008046894617F07AFF8DA3D3E90023064686
:106AA0000F4617F073FF8CA3D3E9002317F0B8FD4E
:106AB00032463B4617F06AFF89A3D3E9002317F05B
:106AC000AFFD32463B4617F061FF87A3D3E90023B1
:106AD00017F0A6FD32463B4617F058FF84A3D3E9D2
:106AE000002317F09DFD32463B4617F04FFF82A36F
:106AF000D3E9002317F094FD42464B4617F046FFBA
:106B00007FA3D3E90023804689463046394617F0F3
:106B10003DFF7DA3D3E9002317F080FD32463B46BD
:106B200017F034FF7AA3D3E9002317F077FD32463C
:106B30003B4617F02BFF78A3D3E9002317F06EFD37
:106B400032463B4617F022FF75A3D3E9002317F026
:106B500065FD32463B4617F019FF02460B4640469C
:106B6000494617F05DFD22462B4617F00FFFBBF19B
:106B7000FF3F02460B4661D0724B734E4FEACB0B80
:106B80005B44D3E9002317F049FD22462B4617F05A
:106B900045FDB34402460B46DBE9000117F03EFD1C
:106BA000BAF1000F0DDA01F100431946BDE8F88F84
:106BB00000283FF451AF22462B462046294617F0C5
:106BC0002FFDBDE8F88F58A3D3E9002317F028FD67
:106BD00000225E4B18F06AF900283FF44FAF2046C0
:106BE0002946BDE8F88F15F051FE594B9E420446E8
:106BF0000D4629DCA3F550239E424EDC02460B468F
:106C000017F00EFD0022514B17F008FD002206463A
:106C10000F464FF080432046294617F001FD0246FB
:106C20000B463046394617F0DBFF4FF0000B0446A9
:106C30000D4625E73EA1D1E90001C2E720462946DD
:106C400017F0ECFCBDE8F88F424B9E421ADC0022A4
:106C5000414B17F0E3FC002206460F463E4B204610
:106C6000294617F093FE0022384B17F0D9FC024654
:106C70000B463046394617F0B3FF4FF0020B04467F
:106C80000D46FDE602460B460020344917F0A8FFEA
:106C90004FF0030B04460D46F2E600222B4B17F093
:106CA000BDFC002206460F46284B2046294617F019
:106CB000B7FC02460B463046394617F091FF4FF0BD
:106CC000010B04460D46DBE6182D4454FB21F93F29
:106CD00011DA22E33AAD903FEB0D76244B7BA93FCE
:106CE000513DD0A0660DB13F6E204CC5CD45B73F9C
:106CF000FF8300922449C23F0D5555555555D53F48
:106D00002F6C6A2C44B4A2BF9AFDDE522DDEAD3F3B
:106D10006D9A74AFF2B0B33F711623FEC671BC3FDB
:106D2000C4EB98999999C93F9C7500883CE4377EDB
:106D3000182D4454FB21F9BFFFFF0F440000F07FE2
:106D4000FFFFDB3FA8FC030088FC03000000F03FCE
:106D5000FFFFF23FFF7F03400000F83F0000F0BF5D
:106D60002DE9F041C1F30A57A7F2FF35132D024672
:106D70000B460C468846064620DC002D4ADB364F83
:106D80002F4101EA070C5CEA000C1CD030A3D3E9C8
:106D9000002317F045FC0022002318F087F848B1C3
:106DA000002C04DD4FF4801343FA05F5A84428EACB
:106DB0000704002621463046BDE8F081332D06DD6C
:106DC000B5F5806F38D010461946BDE8F081A7F2BE
:106DD00013474FF0FF3C2CFA07F70742F3D01CA3F0
:106DE000D3E9002317F01CFC0022002318F05EF802
:106DF0000028DFD0002C09DD142D22D00123C5F19D
:106E0000340503FA05F5AE1928BF984426EA0706AB
:106E10004446CFE70EA3D3E9002317F001FC00227C
:106E2000002318F043F80028C4D0002C0CDB2643C4
:106E300005D00026094CBDE717F0F2FBC5E7344644
:106E4000B8E704F10108E1E700264FF00044B1E79C
:106E50009C7500883CE4377EFFFF0F000000F03F88
:106E60002DE9F041C1F30A57A7F2FF35132D024671
:106E70000B460C46884606461DDC002D3CDB364F93
:106E80002F4101EA070C5CEA000C19D030A3D3E9CA
:106E9000002317F0C5FB0022002318F007F8C8B341
:106EA000002C04DA4FF4801343FA05F5A84428EACD
:106EB000070400262EE0332D06DDB5F5806F2DD0BA
:106EC00010461946BDE8F081A7F213474FF0FF3C8A
:106ED0002CFA07F70742F3D01DA3D3E9002317F0DC
:106EE0009FFB0022002317F0E1FF98B1002C21DB6B
:106EF00026EA070644460DE015A3D3E9002317F060
:106F00008FFB0022002317F0D1FF18B1002C08DB03
:106F10000026344621463046BDE8F08117F080FB5C
:106F2000D0E724F000430D4A1E43002E18BF14463C
:106F30000026EFE7142D08D00123C5F1340503FA2C
:106F400005F5AE1928BF9844D2E704F10108CFE750
:106F50009C7500883CE4377EFFFF0F000000F0BF07
:106F60002DE9F04FD84B994287B08046894643DDE2
:106F7000D64B99420E4600F3F480D54B994240F32C
:106F80002D819FEDBB7B8DED047B4FEA215A04469A
:106F9000AAF2FF3ACF4BC6F313069E4246F07F5546
:106FA00000F3128145F44015204629460022CA4BC1
:106FB00017F034FB002204460D46C84B17F0E6FCE0
:106FC00022462B4617F0E2FCA046CDE90201A94675
:106FD000CDE90001002E3AD10022002320462946A7
:106FE00017F03CFF002800F01B81BAF1000F40F0C1
:106FF000858100200021B8E0B94B21F000449C427B
:107000000A460FDD0022B74B17F028FF002800F0DA
:10701000AF80002200230020B34917F0E1FD07B044
:10702000BDE8F08FB14B9C4240F3AF80B04B1A44A7
:107030009A4240F2D3800022A84B17F0A7FC4246A8
:107040004B4617F0A3FCCDE900014FF0000A0022E7
:107050004FF080434046494617F0E2FA02460B469D
:107060004046494617F0BCFD02460B4606460F4611
:1070700017F08CFC80A3D3E9002304460D4617F0DB
:1070800085FC7FA3D3E9002317F0CAFA22462B46DA
:1070900017F07CFC7CA3D3E9002317F0C1FA224649
:1070A0002B4617F073FC7AA3D3E9002317F0B8FA44
:1070B00022462B4617F06AFC77A3D3E9002317F08A
:1070C000AFFA22462B4617F061FC75A3D3E90023E3
:1070D00017F0A6FA22462B4617F058FC72A3D3E904
:1070E000002317F09DFA22462B4617F04FFCDDE9EE
:1070F000002317F095FA32463B4617F047FC04464A
:107100000D46BAF1000F00F0A880504617F0D4FBEE
:1071100067A3D3E9002382468B4617F037FC66A3AA
:10712000D3E9002306460F465046594617F02EFC79
:10713000DDE9042317F074FA22462B4617F070FAA3
:1071400002460B46DDE9000117F068FA42464B465D
:1071500017F064FA02460B463046394617F05EFADD
:1071600003E002460B4617F05BFA07B0BDE8F08F6C
:1071700042464B464046494617F050FA02460B46F7
:1071800017F02EFD07B0BDE8F08F0022594B17F025
:1071900047FA0022002317F089FE10B1564B9C429B
:1071A00062DD42464B464046494617F0EFFB00225F
:1071B0004A4B17F0EBFB02460B464046494617F098
:1071C0002DFA07B0BDE8F08F45F40015C6F580161E
:1071D00020462946B6100AF1010AE7E600223E4B96
:1071E0004046494617F01CFA4FEA215AAAF2FF3AE4
:1071F000BAF1000F04460D460E4640F3BD804246EC
:107200004B4617F00BFA02460B460020324917F0A6
:1072100005FA22462B4617F0E3FCCDE90401B9E656
:1072200027A3D3E900232046294617F0AFFB0246E7
:107230000B460020284917F0F1F9DDE9022317F089
:10724000A5FB06460F46BAF1000F75D102460B4664
:107250002046294617F0E2F987E702460B46DDE9AA
:10726000000117F0DBF9A6E7404649467DE700BF7D
:10727000000000000000000044523EDF12F1C23F57
:107280009FC678D0099AC33FDE03CB966446C73FBA
:10729000AF788E1DC571CC3F599322942449D23FBB
:1072A00004FA97999999D93F935555555555E53F06
:1072B0000000E0FE422EE63F763C7935EF39EA3DAC
:1072C000555555555555E53F7982DA3FFFFFEF7F1C
:1072D000FFFF3F439DA006000000F03F0000E03F9D
:1072E000FFFFEF3F0000F0BF000050C3FFFF1F3E55
:1072F0003C412D4000005043FFFF8F3C504617F0AB
:10730000DBFA24A3D3E9002306460F4617F03EFB21
:10731000DDE9042317F084F920A3D3E90023044610
:107320000D463046394617F031FB02460B462046E3
:10733000294617F075F918E7504617F0BDFA17A35C
:10734000D3E9002382468B4617F020FB11A3D3E933
:107350000023804689465046594617F017FBDDE961
:10736000042317F05DF902460B463046394617F004
:1073700055F922462B4674E70022054B17F04EF9CB
:1073800002460B464046494617F048F941E700BF20
:107390000000F03F763C7935EF39EA3D0000E0FE31
:1073A000422EE63F0000000008B515F0E3FD04A3FF
:1073B000D3E9002317F014FC08BD00BFAFF3008031
:1073C000EF39FAFE422EE63F2DE9F043DFF8B480B4
:1073D0008BB004460D4601F0F7F898F90030013300
:1073E00006460F462CD022462B462046294617F04B
:1073F00067FD814620BB2046294615F047FA1FA3AA
:10740000D3E9002317F052FDD0B1194A98F90030A2
:10741000CDF820900321CDE90445CDE90245CDE921
:10742000001293B113490020022BCDE9060111D1BE
:1074300017F082F822230360089B9BB9DDE90667F9
:10744000304639460BB0BDE8F0830B4B4FF060423D
:10745000CDE90623684616F0EBFE0028E8D0089B2D
:10746000002BEBD017F068F8089B0360E6E700BF3D
:10747000400E04000000F07FFFFFEF477DF8B98F5A
:10748000CE338640FB8100202DE9F043DFF8E48015
:107490008BB004460D4601F047F998F900300133EE
:1074A00006460F4633D02046294616F0BBFE70B381
:1074B0002CA3D3E900232046294617F0F7FC814688
:1074C00050BB2AA3D3E900232046294617F0D0FC5D
:1074D000E8B198F90030204ACDF820900020002132
:1074E0000426022BCDE90445CDE902450096CDE9FD
:1074F0000601019229D0684616F09AFE28B3089B2F
:107500001BB117F019F8089B0360DDE906673046E8
:1075100039460BB0BDE8F0830F4A98F9003001926C
:1075200003210022CDE90445CDE9024500910892EE
:107530002BB90A4B4FF06042CDE90623DBE708493F
:107540000020022BCDE90601D5D116F0F5FF22234C
:107550000360D4E7AFF30080480E0400FFFFEF475D
:107560000000F07FEF39FAFE422E864051302DD5D3
:10757000104987C0FB8100202DE9F04FDFF82C93E4
:107580008DB006460F4614461D4601F09DFC99F944
:107590000080B8F1FF3FCDE9000136D022462B46EE
:1075A0002046294617F08CFC834670BB32463B468A
:1075B0003046394617F084FC8246002840F0A2800D
:1075C000304639460022002317F048FC10B3002251
:1075D00000232046294617F041FC8346002867D047
:1075E0009FEDA77B0122AC4BCDF828A00292CDE9FC
:1075F0000467CDE906458DED087B0393B8F1000FD4
:1076000041D09FEDA17B8DED007BDDE900010DB048
:10761000BDE8F08FDDE9000116F004FE8046002889
:1076200000F08D804FF0000A4FF0000BDDE9000103
:1076300052465B4617F012FC0028E6D03046394629
:1076400016F0F0FD0028E0D02046294616F0EAFDAD
:107650000028DAD099F900308F4A039204210022E1
:10766000022BCDE90467CDE90645CDE908AB0291CF
:107670000A9203D002A816F0DBFD50B916F05CFFA9
:107680002223036005E002A816F0D2FD002800F0D6
:107690009B800A9B1BB116F04FFF0A9B03609DED78
:1076A000087B8DED007BDDE900010DB0BDE8F08FBA
:1076B0002046294616F0B6FD0028A6D00022002359
:1076C0002046294617F0D4FB00289ED0724A99F92B
:1076D0000030CDF828B00121CDE90467CDE9064599
:1076E000CDE90212002B74D06C490020022BCDE9A9
:1076F000080172D116F020FF212303600A9B002BA2
:10770000CDD0C8E7002200232046294617F0A6FB6B
:1077100000283FF47AAF624B5F49CDF828B00022D1
:107720000120B8F1020FCDE904670290CDE90645CA
:10773000CDE908230391A6D1CDE9002365E73046C2
:10774000394616F06FFD00283FF46CAF20462946FD
:1077500016F068FD00283FF465AFDDE90023104610
:10776000194617F0ADFB99F900A000286BD103234F
:10777000DFF824C10A902946204602930022494B93
:10778000CDF80CC0CDE90645CDE9046717F0FEF849
:1077900004460D46BAF1000F25D1DFF814B14FF0C1
:1077A000604A0022002330463946CDE908AB17F085
:1077B0005FFB38BB02A816F03BFD00289ED116F0F7
:1077C000BBFE2223036099E716F0B6FE2123036077
:1077D0005FE79FED2B7B8DED087B02A816F028FD5F
:1077E00000288BD186E79FED2A7B002200233046BC
:1077F00039468DED087B17F03BFBA0B9BAF1020FBB
:10780000DDD0D7E72046294616F01AFD22462B4642
:1078100017F024FBA0B9244B99F900A04FF0604267
:10782000CDE90823EAE72046294616F009FD22465D
:107830002B4617F013FB18B9184B0022CDE908238B
:1078400099F900A0DAE70122134BCDF828800292C3
:10785000CDE90467CDE906450393BAF1000FB8D02E
:10786000002200231046194617F0BAF9BAF1020FA8
:10787000CDE908013FF43EAFAFE700BFAFF30080B2
:107880000000000000000000000000000000F03FC9
:10789000000000000000F07F600E04000000F0FF18
:1078A0000000F03F0000E03FFFFFEFC7FB8100203A
:1078B000FFFFEF47000000002DE9F84FC44E21F014
:1078C0000043B34204460D460DDD03F1404303F58A
:1078D0008013034340F0B980002940F34081002029
:1078E0000021BDE8F88FBB4EB34208DCBA4A934290
:1078F00000F3B5809CA1D1E90001BDE8F88F002913
:10790000C0F2708102460B460020B44916F086FE94
:107910000022B34B17F03AF804460D4615F052FE1C
:1079200093A3D3E90023894680462946204617F0D1
:107930002DF891A3D3E9002316F072FE22462B46C0
:1079400017F024F88EA3D3E9002316F067FE224631
:107950002B4617F01BF88CA3D3E9002316F060FE2A
:1079600022462B4617F012F889A3D3E9002316F01C
:1079700055FE22462B4617F009F887A3D3E90023CA
:1079800016F04EFE22462B4617F000F884A3D3E9EA
:10799000002382468B462046294616F0F7FF82A335
:1079A000D3E9002316F03AFE22462B4616F0EEFFEE
:1079B0007FA3D3E9002316F033FE22462B4616F0B0
:1079C000E5FF7DA3D3E9002316F028FE22462B46CF
:1079D00016F0DCFF0022814B16F022FE02460B4619
:1079E0005046594617F0FCF842464B4616F0CEFF7B
:1079F000002682468B4632464B463046494616F0B4
:107A0000C5FF02460B462046294616F007FE3246C1
:107A100004460D464B464046494616F001FE0246D6
:107A20000B462046294617F0DBF802460B46504627
:107A3000594616F0F5FD32464B4616F0F1FD02466A
:107A40000B4616F0EDFDBDE8F88F02460B4616F02A
:107A5000E5FD02460B4617F0C3F8BDE8F88F024675
:107A60000B4616F093FF42A3D3E9002306460F46C8
:107A700016F08CFF40A3D3E9002316F0D1FD324667
:107A80003B4616F083FF3EA3D3E9002316F0C6FD64
:107A900032463B4616F07AFF3BA3D3E9002316F0AB
:107AA000BFFD32463B4616F071FF39A3D3E90023F0
:107AB00016F0B4FD32463B4616F068FF36A3D3E914
:107AC000002316F0ADFD32463B4616F05FFF34A3AF
:107AD000D3E90023804689463046394616F056FFE2
:107AE00031A3D3E9002316F099FD32463B4616F048
:107AF0004DFF2FA3D3E9002316F092FD32463B46FB
:107B000016F044FF2CA3D3E9002316F087FD32467C
:107B10003B4616F03BFF0022304B16F081FD02463B
:107B20000B464046494617F05BF822462B4616F0B6
:107B30002DFF02460B4622A1D1E9000116F06EFD91
:107B400002460B462046294616F068FD02460B46C3
:107B500005A1D1E9000116F061FDBDE8F88F1AA179
:107B6000D1E9000179E700BF182D4454FB21F93F0A
:107B700009F7FD0DE13D023F88B20175E0EF493F95
:107B80003B8F68B52882A43F5544880E55C1C93F34
:107B90007D6FEB0312D6D43F555555555555C53F0E
:107BA00082922EB1C5B8B33F59018D1B6C06E63FDA
:107BB000C88A599CE52A00404B2D8A1C273A03406D
:107BC000075C143326A6913C182D4454FB21094030
:107BD000FFFFEF3FFFFFDF3F0000603C0000F03F92
:107BE0000000E03F00225C4B16F01AFD00225B4BC8
:107BF00016F0CCFE40A3D3E9002304460D4616F050
:107C0000C5FE3FA3D3E9002316F00AFD22462B460A
:107C100016F0BCFE3CA3D3E9002316F0FFFC22467D
:107C20002B4616F0B3FE3AA3D3E9002316F0F8FC76
:107C300022462B4616F0AAFE37A3D3E9002316F0FE
:107C4000EDFC22462B4616F0A1FE35A3D3E9002316
:107C500016F0E6FC22462B4616F098FE8046894632
:107C60002046294615F0AEFC2FA3D3E90023064693
:107C70000F462046294616F089FE2DA3D3E900239E
:107C800016F0CCFC22462B4616F080FE2AA3D3E940
:107C9000002316F0C5FC22462B4616F077FE28A3DB
:107CA000D3E9002316F0BAFC22462B4616F06EFEEE
:107CB0000022294B16F0B4FC02460B4640464946CA
:107CC00016F08EFF32463B4616F060FE1EA3D3E947
:107CD000002316F0A3FC32463B4616F0A1FC0246F8
:107CE0000B4616F09DFC02460B4619A1D1E9000196
:107CF00016F094FCB1E600BF09F7FD0DE13D023F2F
:107D000088B20175E0EF493F3B8F68B52882A43FF8
:107D10005544880E55C1C93F7D6FEB0312D6D43F41
:107D2000555555555555C53F82922EB1C5B8B33FEF
:107D300059018D1B6C06E63FC88A599CE52A004014
:107D40004B2D8A1C273A0340075C143326A6913C2E
:107D5000182D4454FB2109400000F03F0000E03F93
:107D6000414A91422DE9F84304460D4637DD3F4A2A
:107D700091420B4608DD02F1795291423DDD024607
:107D800016F04EFCBDE8F88301F1404202F5801286
:107D900002432ED0B1F1804F37DC0022344B16F075
:107DA0003DFC02460B4604460D4616F039FC2246C1
:107DB00006460F462B462046294616F0E7FD0246AA
:107DC0000B463046394616F02BFC15F0FBFB2246DD
:107DD0002B4616F025FCBDE8F843FFF7C1B8024674
:107DE0000B4616F01BFC02460B4616F0F9FEBDE8EA
:107DF000F88300200021BDE8F88300F00DFE18A3F1
:107E0000D3E9002316F00CFCF1E7024616F0BEFDA4
:107E10000022174B16F002FC15F0D4FB22468046D8
:107E200089462B462046294616F0FAFB224606468E
:107E30000F462B464046494616F0F2FB02460B46DB
:107E400000200B4916F0CCFE0B4602463946304660
:107E500016F0E4FBBDE8F84300F0DEBDAFF30080B0
:107E6000EF39FAFE422EE63FFFFFEF3FFFFFAF4143
:107E70000000F03F000000002DE9F04FAE4B21F074
:107E800000479F4287B004460D4611DD07F1404789
:107E900007F5801703463B4321D002460B4616F0F8
:107EA000BDFB02460B4616F09BFE07B0BDE8F08F07
:107EB000A24B9F420E4629DCB7F1795F80F24681E2
:107EC00081A3D3E9002316F0ABFB00229C4B16F0F4
:107ED000EDFFD8B12046294607B0BDE8F08F7CA35E
:107EE000D3E9002316F052FD7BA3D3E90023064615
:107EF0000F462046294616F049FD02460B463046FD
:107F0000394616F08DFB07B0BDE8F08F20462946B4
:107F100014F0BCFC02460B460020894916F07EFB9B
:107F20000022884B16F032FD6DA3D3E900230446EE
:107F30000D4616F02BFD6CA3D3E9002316F070FB61
:107F400022462B4616F022FD69A3D3E9002316F042
:107F500065FB22462B4616F019FD67A3D3E90023E3
:107F600016F05EFB22462B4616F010FD64A3D3E903
:107F7000002316F053FB22462B4616F007FD62A3A2
:107F8000D3E9002316F04CFB22462B4616F0FEFCEC
:107F90005FA3D3E90023CDE900012046294616F06E
:107FA000F5FC5DA3D3E9002316F038FB22462B46EF
:107FB00016F0ECFC5AA3D3E9002316F031FB22465D
:107FC0002B4616F0E3FC58A3D3E9002316F026FB5A
:107FD00022462B4616F0DAFC594B002216F020FB05
:107FE00082468B4620462946CDE902AB15F0EAFAD7
:107FF000554B9F428046894600F3198102460B4645
:1080000016F00EFBDDE90223CDE90401DDE90001F4
:1080100016F0E6FD02460B46DDE9040116F0B6FC5B
:108020004FF0000ACDE9000152464B465046494602
:1080300016F0ACFC02460B462046294616F0EEFA36
:10804000524604460D464B464046494616F0E8FA6D
:1080500002460B462046294616F0C2FD02460B4654
:1080600016F0DEFA02460B461BA1D1E9000116F01C
:10807000D5FA02460B46DDE9000116F0CFFA52466A
:1080800004460D464B465046494616F0C9FA02468C
:108090000B4627A1D1E9000116F0C0FA02460B46B3
:1080A0002046294616F0BAFA02460B4620A1D1E92D
:1080B000000116F0B3FA002E3FF7F7AE01F10043CE
:1080C0001946F2E6AFF300809C7500883CE4377EE9
:1080D000182D4454FB21F93F075C143326A6913C2C
:1080E00009F7FD0DE13D023F88B20175E0EF493F20
:1080F0003B8F68B52882A43F5544880E55C1C93FBF
:108100007D6FEB0312D6D43F555555555555C53F98
:1081100082922EB1C5B8B33F59018D1B6C06E63F64
:10812000C88A599CE52A00404B2D8A1C273A0340F7
:10813000182D4454FB21E93FFFFFEF3FFFFFDF3FD6
:108140000000F03F0000E03F3233EF3F02460B46B5
:1081500016F01CFC4BA3D3E9002306460F4616F08D
:1081600015FC4AA3D3E9002316F05AFA32463B46DF
:1081700016F00CFC47A3D3E9002316F04FFA324661
:108180003B4616F003FC45A3D3E9002316F048FA5A
:1081900032463B4616F0FAFB42A3D3E9002316F021
:1081A0003DFA32463B4616F0F1FB40A3D3E90023EB
:1081B00016F036FA32463B4616F0E8FB3DA3D3E90B
:1081C0000023804689463046394616F0DFFB3BA344
:1081D000D3E9002316F022FA32463B4616F0D6FBCE
:1081E00038A3D3E9002316F01BFA32463B4616F0BB
:1081F000CDFB36A3D3E9002316F010FA32463B46F6
:1082000016F0C4FB00221E4B16F00AFA02460B467B
:108210004046494616F0E4FC22462B4616F0B6FBD3
:1082200022462B4616F0FCF907B0BDE8F08F524607
:108230005B46DDE9000116F0D3FC42464B4616F0E2
:10824000A5FB42464B4616F0EBF902460B4616F0EC
:10825000E7F907A3D3E9002316F0E0F902460B463D
:1082600005A1D1E9000116F0D9F924E7AFF30080A8
:10827000075C143326A6913C182D4454FB21F93F8A
:108280000000F03F09F7FD0DE13D023F88B20175A6
:10829000E0EF493F3B8F68B52882A43F5544880EE4
:1082A00055C1C93F7D6FEB0312D6D43F5555555587
:1082B0005555C53F82922EB1C5B8B33F59018D1BAC
:1082C0006C06E63FC88A599CE52A00404B2D8A1C63
:1082D000273A0340000000002DE9F84F1D465342A5
:1082E000134325F00049DFF8C8C149EAD373634559
:1082F000144606460F4626D8C0F1000848EA000892
:1083000021F0004A4AEAD878E04503468B461AD85D
:1083100005F1404808F5801858EA0208AE4643D0F7
:108320004FEAA57808F002085AEA030348EAD17830
:1083300011D1B8F1020F55D0B8F1030F09D14AA1FC
:10834000D1E9000105E032463B462046294616F0B9
:1083500067F9BDE8F88F59EA020329D0E1452ED02C
:10836000E24525D0AAEB09094FEA2959B9F13C0F9A
:108370003CDC002D3EDA19F13C0F3BDA00200021F5
:10838000B8F1010F4ED0B8F1020F3ED0B8F1000F96
:10839000DFD037A3D3E9002316F040F936A3D3E9A1
:1083A000002316F03BF9D4E7BDE8F84FFEF744BBD5
:1083B000BBF1000F12DB32A1D1E90001C9E7CA45C8
:1083C00034D0B8F1020F0DD0B8F1030FB7D0B8F127
:1083D000010F4FF0000036D00021BAE72AA1D1E901
:1083E0000001B6E724A1D1E90001B2E724A1D1E957
:1083F0000001C5E722462B463046394616F0F0FB11
:1084000014F044FAFEF718FBBAE719A3D3E90023E6
:1084100016F004F902460B4617A1D1E9000116F047
:10842000FDF896E701F10043194692E7B8F1020F13
:1084300014D0B8F1030F0DD0B8F1010F06D014A17C
:10844000D1E9000185E74FF0004182E712A1D1E9AF
:1084500000017EE712A1D1E900017AE712A1D1E97A
:10846000000176E7AFF30080182D4454FB2109C0CA
:10847000075C143326A6A13C182D4454FB21094067
:10848000182D4454FB21F93F182D4454FB21F9BF0A
:10849000182D4454FB21E93F182D4454FB21E9BF1A
:1084A000D221337F7CD902C0D221337F7CD90240D4
:1084B0000000F07F0000000043422DE9F047034335
:1084C00021F000463C4A46EAD373934204460D46E7
:1084D0002AD8964240D0394B9E428A462EDD384BF0
:1084E0009E4235463FDD33460246314616F098F847
:1084F000224606460F462B4600202F4916F08EF8DE
:1085000002460B463046394616F06AFBFEF728FD58
:1085100000222C4B16F03AFABAF1000F0CDA01F1F6
:1085200000431946BDE8F08702460B4616F076F880
:1085300002460B4616F054FBBDE8F0871CA3D3E9B6
:10854000002316F06DF80022002316F0AFFC48B1AE
:1085500020462946BDE8F0870022002316F040FBA4
:10856000BDE8F087354622462B462046294616F0C0
:1085700057F822462B4606460F4616F007FA2246C3
:10858000804689462B4600200B4916F047F80246E4
:108590000B464046494616F023FB32463B4616F052
:1085A0003FF8FEF7DDFC0022064B16F0EFF9B3E7CB
:1085B0009C7500883CE4377E0000F03FFFFF2F3EB3
:1085C000FFFFDF3F0000E03F2DE9F8434E4B21F075
:1085D00000449C4206460F461BDC4C4B9C4222DD6D
:1085E0004B4B9C4254DD4B4B9C4246DD4A4B9C42DC
:1085F0006FDD01339C4269D041A3D3E900231046CB
:10860000194616F0C3F906460F4630463946BDE80E
:10861000F88302460B4616F0B9F906460F46304677
:108620003946BDE8F88314F031F902F04DFC002220
:108630003A4B8046894615F0F3FFB4F1725F064667
:108640000F46ECDB42464B464046494616F09EF943
:1086500032463B4604460D463046394615F0E0FFAB
:1086600002460B462046294616F0BAFA00222B4B4A
:1086700015F0D6FF06460F46D1E714F007F900F0D3
:1086800053F80022264B16F081F906460F46C6E73E
:1086900014F0FCF800F048F80022214B06460F4683
:1086A00016F074F9324604460D463B4600201C493C
:1086B00016F096FA02460B462046294615F0B0FF02
:1086C00006460F4630463946BDE8F883154B9842BA
:1086D00092D83046394614F0D9F80022104B16F0E3
:1086E00055F900F021F8002204460D460C4B16F017
:1086F0004DF922462B4616F049F906460F468EE7FD
:108700009C7500883CE4377EFFFFEF7F422ED63F0A
:10871000FFFF3540412E8640CD3386400000F03FBC
:108720000000E03F7DF8B98F2DE9F047B04F21F010
:108730000042BA4284B004460D464FEAD17610D9C1
:10874000AC4FBA4240F28A80C1F31303034302469E
:1087500040F0F180002E7ED00020002104B0BDE862
:10876000F087A54B9A4200F2B680A44B9A4240F2A1
:10877000D1804FF0000A22462B462046294616F0AB
:1087800005F985A3D3E9002306460F4616F0FEF847
:1087900083A3D3E9002315F041FF32463B4616F090
:1087A000F5F881A3D3E9002315F03AFF32463B46A2
:1087B00016F0ECF87EA3D3E9002315F02FFF324624
:1087C0003B4616F0E3F87CA3D3E9002315F028FF1D
:1087D00032463B4616F0DAF802460B46204629465A
:1087E00015F01CFF02460B4606460F46204629465A
:1087F00016F0CCF880468946BAF1000F00F0AB8045
:1088000032463B4600204FF0804115F007FF0246FC
:108810000B464046494616F0E3F902460B46DDE9B1
:10882000020115F0FBFEDDE9002315F0F7FE0B4613
:1088300002467349002015F0F1FE6FF47F739A45EC
:1088400080F2A3800AF57A7A01EB0A5100224FF0F8
:10885000B87316F09BF804B0BDE8F08758A3D3E9CD
:10886000002316F023FB00286BD157A3D3E9002384
:108870002046294616F0FCFA00287FF46DAF6149C6
:1088800053A3D3E9002301EBC6062046294616F080
:108890007DF8D6E9002315F0C3FE16F027FB8246CB
:1088A00016F00AF84CA3D3E9002306460F4616F04B
:1088B0006DF802460B462046294615F0AFFE48A348
:1088C000D3E90023CDE900013046394616F05EF8C1
:1088D000CDE9020115E04C4B9A42D0D84B4BF40045
:1088E0002344D3E9002315F099FE494B234493ED2B
:1088F000007BCDE900018DED027BC6F1010AAAEBF8
:10890000060ADDE90223DDE9000115F087FE0446D1
:108910000D4630E734A3D3E9002315F081FE002291
:10892000374B16F0C3FAA8B3204629460022344B31
:1089300015F076FE8FE70B4615F072FE04B0BDE829
:10894000F08729A3D3E900231046194616F01EF834
:1089500004B0BDE8F0873046394600224FF080432E
:1089600015F05CFE02460B464046494616F038F9C3
:1089700022462B4615F052FE02460B4600202049A7
:1089800015F04CFE04B0BDE8F08701EB0A5104B0CD
:10899000BDE8F0878246EEE6D0A4BE726937663E37
:1089A000F16BD2C541BDBB3E2CDE25AF6A56113FEF
:1089B00093BDBE166CC1663F3E5555555555C53FD6
:1089C000EF39FAFE422E864051302DD5104987C02E
:1089D000FE822B654715F73F0000E0FE422EE63F82
:1089E000763C7935EF39EA3D9C7500883CE4377E6A
:1089F000412E8640FFFFEF7F422ED63FFFFF2F3EE6
:108A00000000F03FC8FC0300B1A2F03FD8FC030017
:108A1000E8FC0300000000002DE9F04FB1F5801FD5
:108A200085B006460F460B4680F2D08021F000420A
:108A3000024300F0DA800029C0F2E9800022D64B20
:108A400015F0A4FFD54A0B46934206460F466FF039
:108A5000350E00F3C180C3F3130505F5152C0CF694
:108A6000647C0CF4801C8CF07F5282F440121C1544
:108A700042EA0507A4F2FF3474440022C84B304692
:108A8000394604EB1C5415F0C9FDAB1CC3F31303AA
:108A9000022B82468B464FF0000240F3AF804FF02E
:108AA000804315F0BDFD02460B465046594616F070
:108AB00097F8064620460F4615F0FEFE3246CDE9F1
:108AC00002013B4630463946CDE9006715F05EFFAE
:108AD00002460B468046894615F058FF9AA3D3E913
:108AE000002306460F4615F051FF99A3D3E9002352
:108AF00015F096FD32463B4615F048FF96A3D3E9A4
:108B0000002315F08DFD32463B4615F03FFF94A340
:108B1000D3E9002315F084FD42464B4615F036FF9D
:108B200091A3D3E90023804689463046394615F0A3
:108B30002DFF8FA3D3E9002315F072FD32463B468B
:108B400015F024FF8CA3D3E9002315F069FD32460C
:108B50003B4615F01BFF0B4602464946404615F0C2
:108B60005FFDA5F5C223C5F5D725A3F27A4351359C
:108B70001D43002D06460F4640F387800022894B97
:108B80005046594615F002FF52465B4615F0FEFE70
:108B900002460B46804689463046394615F040FD70
:108BA000DDE9002315F0F2FE06460F46002C40F0EA
:108BB000818002460B464046494615F02FFD02468D
:108BC0000B465046594615F029FD0BE0734A934277
:108BD0004FF0000E7FF73FAF32463B4630463946F6
:108BE00015F01EFD05B0BDE8F08F00220023002027
:108BF0006D4915F0F5FF05B0BDE8F08F002316F0C4
:108C00002DF960B1002C7CD100200021EAE702465A
:108C100015F004FD0022002315F0E2FFE2E758A35F
:108C2000D3E900235046594615F0B0FE02460B46E4
:108C300000205C4915F0F2FC524606460F465B46A2
:108C40005046594615F0A2FE02460B4630463946BC
:108C500015F09CFE06460F462CB3204615F02CFE60
:108C600049A3D3E900238046894615F08FFE48A327
:108C7000D3E9002304460D464046494615F086FEDA
:108C800002460B46304639462CE002460B4650461B
:108C9000594615F0C3FCDDE9002315F077FE0646C2
:108CA0000F46002C47D132463B465046594615F0F8
:108CB000B5FC97E734A3D3E90023DDE9020115F001
:108CC00065FE33A3D3E9002304460D46DDE9020126
:108CD00015F05CFE32463B4615F0A2FC02460B4600
:108CE0004046494615F09AFC52465B4615F096FC04
:108CF00002460B462046294615F090FC05B0BDE81B
:108D0000F08F204615F0D8FD1FA3D3E900230646B7
:108D10000F4615F03BFE1EA3D3E9002304460D4683
:108D20003046394615F032FE02460B4620462946AB
:108D300015F076FC56E7DDE9028913A3D3E9002399
:108D40004046494691E700BF44523EDF12F1C23F20
:108D5000DE03CB966446C73F599322942449D23F01
:108D6000935555555555E53F9FC678D0099AC33F51
:108D7000AF788E1DC571CC3F04FA97999999D93F68
:108D8000555555555555D53F0000E0FE422EE63F5E
:108D9000763C7935EF39EA3D00005043FFFFEF7F25
:108DA0000000F03F0000E03F000050C30000000062
:108DB000B1F5801F2DE9F84304460D460B4619DA3C
:108DC00021F00042024359D000295FDB00223A4BD8
:108DD00015F0DCFD394A0D462B46934204466FF0F0
:108DE00035010CDD22462B462046294615F018FC9D
:108DF000BDE8F883314A93424FF00001F2DC1815C8
:108E0000A0F2FF3008444FEAD0794844C3F3130876
:108E100015F052FDC9F57F73033348EA0355064642
:108E20000F4620462946FFF7F7FD1DA3D3E900238F
:108E3000804689463046394615F0A8FD1AA3D3E985
:108E4000002304460D464046494615F09FFD024664
:108E50000B462046294615F0E3FB15A3D3E9002372
:108E600004460D463046394615F090FD02460B4645
:108E70002046294615F0D4FBBDE8F88300220023E4
:108E800000200F4915F0ACFEBDE8F883024615F04E
:108E9000C5FB0022002315F0A3FEA9E7AFF3008075
:108EA000362BF111F3FE593D0EE526157BCBDB3F4A
:108EB00000609F501344D33F00005043FFFFEF7FFB
:108EC000000050C3000000002DE9F04F23F00045E2
:108ED00055EA020493B00DD06B4E21F00044B44229
:108EE0000F4682460BDD04F1404404F5801454EA39
:108EF0000A0350D16549002013B0BDE8F08F9B46AE
:108F0000944647D0B542EEDC5F4EB5425DD0002FAF
:108F100080468946CDE900235BDB0026BCF1000FCB
:108F20000ED1594B9D423FD0584B9D4200F0888056
:108F3000BBF1804F00F09C80554B9B4500F0B883FF
:108F40004046494613F0A2FCBAF1000F06D1002CAE
:108F500059D04E4B27F040429A4254D0FF0F013F68
:108F600056EA070373D04B4B9D4240F39B8003F1BD
:108F700004739D4240F33E84474B9C4272DDBBF13B
:108F8000000F72DD3EA3D3E900231046194615F009
:108F9000FDFCB1E728B1414813B0BDE8F04F15F032
:108FA00049B9A542F7DCAFE704F1404303F580136C
:108FB00053EA0A039ED0384B9C4240F38383BBF1B3
:108FC000000F52DBDDE9000196E7BCF1000F9ED0F7
:108FD00089E7334B9D4231DCA3F154739D429CDD04
:108FE0002B15A3F2FF33142B40F3A583C3F13403F5
:108FF0002CFA03F202FA03F363458ED102F0010268
:10900000C2F102068AE7BBF1000F05DA02460B4601
:1090100000201E4915F0E4FD002FBFF66DAF04F1EE
:10902000404404F5801454EA060300F03F84012E06
:109030007FF462AF01F1004319465DE702266DE758
:10904000BBF1000FC0F248834046494654E7424610
:109050004B461046194615F0E1FA02460B4615F04C
:10906000BFFD49E7BBF1000F8CDB0020002143E787
:1090700042464B464046494615F088FC3CE700BF57
:109080009C7500883CE4377E0000F07F0000F03FD4
:109090000000E03F0000E041FFFFEF3F0805040053
:1090A000FFFF3F43B4F5801F80F261830022D24B63
:1090B00015F06CFC6FF0340C0C462315CF4DC4F347
:1090C0001302A3F2FF3342F07F546344AA420B938E
:1090D00044F4401440F33F83C94B9A4240F3048464
:1090E0009FEDAF7B8DED087B8DED107B9FEDAE7B13
:1090F0000B9B8DED067B01330B93A4F580140025AB
:10910000DDE906232146824615F088FAA346DDE90B
:1091100006238046894650462146CDE90CAB15F022
:109120007FFA02460B460020B64915F059FD0A4663
:109130000146CDE90E12134649460246404615F057
:1091400025FC631043F0005382468B4603F5002351
:109150008C46CDE904AB5919D3460023CDE902BCB6
:109160000293DDE902AB002004460D4602460B46A1
:109170005046594615F00AFC02460B464046494601
:1091800015F04CFADDE9062380468946204629463B
:1091900015F044FA02460B46DDE90C0115F03EFAE3
:1091A00052465B4615F0F2FB02460B4640464946E6
:1091B00015F034FADDE90E2315F0E8FBDDE904458E
:1091C000CDE9060122462B462046294615F0DEFB56
:1091D00077A3D3E9002304460D4615F0D7FB76A309
:1091E000D3E9002315F01CFA22462B4615F0CEFBDE
:1091F00073A3D3E9002315F013FA22462B4615F08A
:10920000C5FB71A3D3E9002315F00AFA22462B46C9
:1092100015F0BCFB6EA3D3E9002315F001FA22463A
:109220002B4615F0B3FB6CA3D3E9002315F0F8F936
:109230002246804689462B462046294615F0A6FB45
:1092400002460B464046494615F0A0FB52460446EE
:109250000D465B46DDE9040115F0E2F9DDE9062380
:1092600015F094FB22462B4615F0DAF9524680465B
:1092700089465B465046594615F088FB0022624BF2
:10928000CDE90C0115F0CCF942464B4615F0C8F972
:1092900002980D46044622462B465046594615F084
:1092A00075FB002282468B46574B2046294615F017
:1092B000B5F9DDE90C2315F0B1F902460B4640463D
:1092C000494615F0ABF9DDE9042315F05FFB2246B2
:1092D000804689462B46DDE9060115F057FB02461C
:1092E0000B464046494615F09BF9804689460246A2
:1092F0000B465046594615F093F9029838A3D3E926
:10930000002304460D4615F041FB5246CDE9040109
:109310005B462046294615F081F902460B46404639
:10932000494615F07BF930A3D3E9002315F02EFB55
:109330002FA3D3E90023804689462046294615F00D
:1093400025FB02460B464046494615F069F9DDE922
:10935000102315F065F980460B98894615F0ACFA94
:10936000424682468B464B46DDE9040115F058F92A
:10937000DDE9082315F054F952465B4615F050F923
:10938000029852465B4604460D4615F047F9DDE962
:10939000082315F043F9DDE9042337E0AFF300803B
:1093A0000000000000000000000000000000F03F8E
:1093B000EF4E454A287ECA3F65DBC9934A86CD3FBA
:1093C00001411DA96074D13F4D268F515555D53FA0
:1093D000FFAB6FDBB66DDB3F033333333333E33F38
:1093E000000000E009C7EE3FFD033ADC09C7EE3F8D
:1093F000F5015B14E02F3EBE000040438E98030051
:1094000079B60B000000F03F0000084015F006F9A7
:109410000B4602464946404615F000F9013E56EA21
:10942000070382468B4600F05E819FEDD37B8DED76
:10943000047BDDE9001200230E461746CDE90267E2
:109440000293DDE9026708463B461146324615F0B5
:10945000E5F822462B4615F099FADDE9002380460F
:1094600089465046594615F091FA02460B46404649
:10947000494615F0D5F83246804689463B46204697
:109480002946CDE9008915F081FA0B4602460646C9
:109490000F464046494615F0C3F8D14B9942044661
:1094A0000D468A4640F3248101F13F4303F5E00372
:1094B000034340F0FF81B2A3D3E90023DDE90001BB
:1094C00015F0AEF83246804689463B46204629468E
:1094D00015F0A4F802460B464046494615F0E6FC56
:1094E000002840F0E781A8464FEA2853A3F2FE3255
:1094F0004FF4801313415344C3F30A52B94DA2F2FF
:10950000FF321541C3F3130423EA05010020C2F121
:10951000140B44F48014BAF1000F02460B4644FACF
:109520000BFB30463946B8BFCBF1000B15F076F88F
:1095300006460F463246DDE900013B4615F070F85D
:109540004FEA0B5A0D4600248FA3D3E9002320468F
:10955000294615F01BFA3246804689463B4620468E
:10956000294615F05BF802460B46DDE9000115F0CF
:1095700055F887A3D3E9002315F008FA86A3D3E9A9
:10958000002306460F462046294615F0FFF90246FD
:109590000B463046394615F043F806460F4602465C
:1095A0000B464046494615F03BF842464B460446BA
:1095B0000D4615F033F802460B463046394615F095
:1095C0002DF82246804689462B462046294615F02E
:1095D000DDF973A3D3E9002306460F4615F0D6F94B
:1095E00071A3D3E9002315F019F832463B4615F074
:1095F000CDF96FA3D3E9002315F012F832463B46AC
:1096000015F0C4F96CA3D3E9002315F007F832462E
:109610003B4615F0BBF96AA3D3E9002315F000F827
:1096200032463B4615F0B2F902460B462046294623
:1096300014F0F4FF06460F4602460B462046294624
:1096400015F0A4F90022CDE900014FF08043304627
:10965000394614F0E3FF02460B46DDE9000115F040
:10966000BFFA424606460F464B462046294615F0AD
:109670008DF942464B4614F0D3FF02460B46304666
:10968000394614F0CBFF22462B4614F0C7FF0246A2
:109690000B460020544914F0C1FF8A44BAF5801FDC
:1096A000C0F232815146DDE9042315F06FF923E45D
:1096B000002FFFF645AC4046494613B0BDE8F04FD9
:1096C00013F080BFBBF1000FBFF6CFACDDE9003473
:1096D000184604F100410FE442464B46002042493F
:1096E00015F07EFA08E49FED387B8DED047BA0E653
:1096F0003E4B21F00048984540F3EA803C4B0B4438
:1097000003430AD132463B4614F088FFDDE90023CB
:1097100015F0C2FB00283FF4E7AEDDE904012CA3FD
:10972000D3E9002315F032F929A3D3E9002315F07A
:109730002DF9FFF7E1BBBCF1000F40F0D280C3F17F
:10974000140345FA03F202FA03F3AB4200F0E0809F
:109750006646FFF7E9BB9FED207B8DED087B8DED25
:10976000107B9FED057B00258DED067BC8E44FF057
:10977000000CA2E4AFF30080000000000000F03F06
:10978000FE822B654715973C00000000432EE63F04
:10979000EF39FAFE422EE63F396CA80C615C20BE20
:1097A000D0A4BE726937663EF16BD2C541BDBB3EE7
:1097B0002CDE25AF6A56113F93BDBE166CC1663FC5
:1097C0003E5555555555C53F000000000000F0BFFF
:1097D00059F3F8C21F6EA501000000000000000050
:1097E000FFFF8F40FFFF0F000000F03FFFCB9040D6
:1097F00000346F3F5A4B9C427FF734AC594B9C422C
:109800003FF7BDAB0022574B14F008FF44A3D3E948
:10981000002304460D4615F0B9F843A3D3E900230D
:1098200082468B462046294615F0B0F80022CDE945
:1098300002014D4B2046294615F0A8F802460B467A
:109840003BA1D1E9000114F0E9FE22462B4615F0B8
:109850009DF802460B460020444914F0DFFE2246E4
:10986000804689462B462046294615F08FF8024649
:109870000B464046494615F089F82FA3D3E900234B
:1098800015F084F802460B46DDE9020114F0C6FE2D
:1098900002460B46804689465046594614F0C0FEA3
:1098A000002004460D4652465B46AFE502460B4695
:1098B000FFF7CFBBDDE9040121A3D3E9002315F0B5
:1098C00065F81FA3D3E9002315F060F8FFF714BB78
:1098D000264B98453FF708AEDDE9022392469346B2
:1098E00031E60026FFF72CBB9FED177B8DED087B43
:1098F0009FED177B8DED107B9FED177B4FF480253F
:109900008DED067BFFF7FCBB5A4601F029FDCAE648
:1099100002F00102C2F10206FFF706BBAFF30080BE
:10992000000000604715F73F44DF5DF80BAE543E82
:10993000555555555555D53FFE822B654715F73F73
:109940009C7500883CE4377E0000004003B8E23F8D
:1099500006D0CF43EBFD4C3E000000000000F83F76
:10996000FEFFEF3F0000F03F0000D03F0000E03F6F
:109970002DE9F047CA4B21F000479F4290B0804646
:10998000894640F38F80C74B9F420C46924626DCA7
:109990000029B9A3D3E9002340F38F8014F03EFEE1
:1099A000C14B9F4204460D4600F04781B4A3D3E962
:1099B000002314F033FE02460B46CAE9002320467A
:1099C000294614F02BFEAEA3D3E9002314F026FEA3
:1099D0000125CAE90201284610B0BDE8F087B34B63
:1099E0009F4240F38980B24B9F4200F31C813D159A
:1099F000A5F21645A7EB055319461F46064615F076
:109A000075FA14F059FF8046894642464B46304667
:109A10003946CDE90A8914F001FE0022A54B14F065
:109A2000B5FF8946804615F061FA14F045FF0646F9
:109A30000F4632463B4640464946CDE90C6714F096
:109A4000EDFD00229B4B14F0A1FF00220023CDE985
:109A50000E0115F003FA002800F060810023304663
:109A60003946002215F0FAF9002814BF0123022319
:109A7000914A019202212A4600910AA8514600F01B
:109A800087FB002C054614DADAF80420DAF80C30EB
:109A900002F1004203F100434542CAF80420CAF82B
:109AA0000C3006E000200021C2E90089C2E9020171
:109AB0000025284610B0BDE8F08714F0B1FD7A4BC0
:109AC0009F4204460D4600F00B816DA3D3E90023AD
:109AD00014F0A6FD02460B46CAE90023294620469B
:109AE00014F09CFD66A3D3E9002314F099FD4FF018
:109AF000FF35CAE90201DCE712F0C8FE62A3D3E930
:109B000000238046894614F041FF00226B4B14F07D
:109B100087FD15F0EBF9054614F0CEFE56A3D3E908
:109B20000023CDE9060114F031FF02460B46404602
:109B3000494614F073FD52A3D3E9002380468946B9
:109B4000DDE90601CDE9028914F020FF1F2D024650
:109B50000B46CDE9042340F3B380DDE90423DDE9BE
:109B6000020114F05BFD804689463F15C9F30A5394
:109B7000FB1A102B40F3B18045A3D3E90023DDE9A4
:109B8000060114F003FF8046894602460B46DDE9D4
:109B9000020114F043FD02460B46DDE90201CDE966
:109BA000082314F03BFD42464B4614F037FD3AA320
:109BB000D3E9002380468946DDE9060114F0E6FE7C
:109BC00042464B4614F02AFD0B46CDE904010246FD
:109BD000DDE9080114F022FDC1F30A53FF1A312F09
:109BE0008046894600F39C809DED087BCAE9008988
:109BF0008DED027B42464B46DDE9020114F00EFD7D
:109C0000DDE9042314F00AFD002CCAE90201BFF6C5
:109C100050AF09F1004401F100436D42CAE90084EC
:109C2000CAE9020345E702460B4614F0F7FC00259B
:109C3000CAE90201CAE900013BE715A3D3E9002301
:109C400014F0ECFC14A3D3E900230D46044614F0F1
:109C5000E5FC02460B46CAE900232946204614F0DB
:109C6000DDFC0DA3D3E9002314F0D8FC0125CAE9DB
:109C700002011EE7AFF3008000004054FB21F93FD2
:109C80003163621A61B4D03D83C8C96D305FE43F6F
:109C90000000601A61B4D03D7370032E8A19A33B93
:109CA000FB21E93F7BD90240FB21F93FFB213941F0
:109CB000FFFFEF7F00007041FC0E04000000E03F5A
:109CC0004046494614F0AAFC394B6A1E804653F8B8
:109CD0002230BB4289463FF448AFCAE9008989E790
:109CE0002BA3D3E9002314F09BFC2BA3D3E900237F
:109CF0000D46044614F094FC02460B46CAE90023C4
:109D00002946204614F08AFC23A3D3E9002314F04B
:109D100087FC4FF0FF35CAE90201CAE60323A7E634
:109D20001FA3D3E90023DDE9060114F02FFE064648
:109D30000F4602460B46DDE9080114F06FFC804631
:109D4000894602460B46DDE90801CDE9028914F097
:109D500065FC32463B4614F061FC13A3D3E90023B3
:109D600006460F46DDE9060114F010FE32463B467A
:109D700014F054FC02460B4640464946CDE9042304
:109D800014F04CFC80468946A7E700BFAFF3008083
:109D90000000601A61B4D03D7370032E8A19A33B92
:109DA0000000002E8A19A33BC14920259A837B39E4
:109DB0007C0E040000000000574A2DE9F84F21F006
:109DC0000048904506460F462CDC544B0029B4BF92
:109DD000534D544D98454FF0000411DC524B9845BB
:109DE00026DC4BA3D3E9002314F01AFC00224F4BCE
:109DF00015F05CF8002840D030463946BDE8F88FB1
:109E00004B4B984530DD4B4B984568DD0133984509
:109E100062D0304639463EA3D3E9002314F0B6FDA4
:109E2000BDE8F88F02460B4614F0FAFBBDE8F88F48
:109E300012F02CFD01F048F83F4B984506460F46BE
:109E400023DD0022394B14F0EBFB02460B46304673
:109E5000394614F0C5FE32463B4614F0E1FB22467B
:109E60002B4614F093FDE1E712F010FDFEF75CFCC9
:109E700022462B4614F08AFDD8E73046394612F0C8
:109E800005FD01F021F806460F4632463B463046B6
:109E9000394614F0C5FB324682468B463B46304677
:109EA000394614F073FD0022804689461F4B304628
:109EB000394614F0B5FB02460B464046494614F0BD
:109EC0008FFE02460B465046594614F0A7FB224629
:109ED0002B4614F05BFDA9E7184B984299D8304601
:109EE000394612F0D3FC00220E4B14F04FFDFEF762
:109EF0001BFC06460F4602460B462046294614F038
:109F000045FD32463B4614F041FD8FE7AFF300803C
:109F10003374AC3C1F7BAC7FFFFFEF7FFFFF35400E
:109F20000000E0BF0000E03FFFFF2F3E0000F03FD9
:109F3000412E8640CD338640FFFFEF3F7DF8B98F3D
:109F40002DE9F04F21F00048B8F1795F85B0064661
:109F50000F4692469B466BDA14F0C8FF002800F0CB
:109F6000E18032463B463046394614F00FFD74A37B
:109F7000D3E9002304460D4614F008FD72A3D3E98B
:109F8000002314F04DFB22462B4614F0FFFC70A377
:109F9000D3E9002314F042FB22462B4614F0F6FCD2
:109FA0006DA3D3E9002314F03BFB22462B4614F0AB
:109FB000EDFC6BA3D3E9002314F030FB22462B46C3
:109FC00014F0E4FC68A3D3E9002314F029FB224633
:109FD0002B4614F0DBFCCDE900010022664B204645
:109FE000294614F0D3FCDDE900238046894620464B
:109FF000294614F0CBFC524604460D465B463046DB
:10A00000394614F0C3FC02460B462046294614F09C
:10A0100005FB02460B464046494614F0FFFA02464D
:10A020000B460020554914F0F9FA05B0BDE8F08F51
:10A0300002460B4614F0AAFC41A3D3E900230446D0
:10A040000D4614F0A3FC40A3D3E9002314F0E8FA72
:10A0500022462B4614F09AFC3DA3D3E9002314F0CA
:10A06000DDFA22462B4614F091FC3BA3D3E90023F2
:10A0700014F0D6FA22462B4614F088FC38A3D3E914
:10A08000002314F0CBFA22462B4614F07FFC36A3B3
:10A09000D3E9002314F0C4FA2B46224614F076FCD0
:10A0A000374B9845CDE9000197DD364B98453EDCAE
:10A0B000A8F500130022002030499046994614F07C
:10A0C000ADFACDE9020100222B4B2046294614F0BF
:10A0D0005DFC42464B4614F0A1FADDE900238046C0
:10A0E00089462046294614F051FC524604460D4646
:10A0F0005B463046394614F049FC02460B46204682
:10A10000294614F08BFA02460B464046494614F0A5
:10A1100085FA02460B46DDE9020114F07FFA05B02C
:10A12000BDE8F08F1549002005B0BDE8F08F9FED28
:10A13000107B4FF000088DED027BDFF84C90C2E7FA
:10A14000D43888BEE9FAA8BDC4B1B4BD9EEE213EA4
:10A15000AD529C804F7E923E9015CB19A001FA3EE5
:10A160007751C1166CC1563F4C5555555555A53FB5
:10A17000000000000000E73F0000E03F0000F03F6B
:10A180003233D33F0000E93F0000D23F000000001F
:10A190002DE9F04FADF5197DBE4CA29EBE4D54F891
:10A1A00026600793D41E85FB0475E417C4EBA50451
:10A1B00024EAE4741D46631CA3EB8303013D02EB18
:10A1C000C3030593731904960994019503900B91A9
:10A1D000A4EB05071AD43B44002400255E1C0DF1B6
:10A1E0008008DDF88C9208E059F8270014F064FB31
:10A1F0000137B742E8E8020108D0002FF4DA01374E
:10A2000020462946B742E8E80201F6D1049B002B1C
:10A21000079B4FEAC30302932ADB039A20A902EBB0
:10A22000030801EB0309049B72AA02EBC30B0DF5B3
:10A23000E07A019B002B4FF000064FF0000711DB86
:10A24000039C4D4675E90223F4E8020114F09EFBDD
:10A2500002460B463046394614F0E2F944450646BC
:10A260000F46EFD1EAE80267DA4509F10809E0D1C3
:10A27000DDE90204049920448B0082460BA8A3F177
:10A280000802C31808930CAB13440A938B4698AB8F
:10A2900003EBCB03BBF1000F53E9284529DD70AB7D
:10A2A00003EBCB080DF1300900227C4B20462946F8
:10A2B00014F06CFB14F01AFE14F0FEFA0022784B36
:10A2C00006460F4614F062FB02460B46204629461E
:10A2D00014F0A4F914F00AFE78E9022349F8040BFB
:10A2E0003946304614F09CF970AB984504460D464B
:10A2F000DAD1DDF81490204629464A4601F030F8BC
:10A3000000224FF07F5304460D4614F03FFBFCF74C
:10A31000A7FD0022634B14F039FB02460B46204692
:10A32000294614F07BF90D46044614F0DFFD804603
:10A3300014F0C2FA0B4602462946204614F06EF984
:10A340004B46002B06460F4640F3E1800BF1FF32EF
:10A350000CA9C9F1180351F8225045FA03F101FA8A
:10A3600003F30CA8EB1A40F82230C9F11705884412
:10A3700043FA05F5002D2CDDBBF1000F08F10108B3
:10A3800040F381820C9C002C40F0A780BBF1010FB0
:10A390000AD00CA9012251F8044F531C002C40F0A4
:10A3A0009E809B451A46F6D1059B002B0EDD012BA6
:10A3B00000F0D980022B09D10BF1FF320CAB0CA9B4
:10A3C00053F82230C3F3150341F82230022D00F078
:10A3D000AF80002200233046394614F03FFD0028AC
:10A3E00000F05382049B0BF1FF394B4510DC0BF15D
:10A3F00080430CAA013B089802EB8303002253F828
:10A400000419834242EA0102F9D1002A40F0B680E1
:10A41000049B0CAA013B52F82330002B40F0A18092
:10A420000A9A012352F8041901330029FAD05B4437
:10A430000BF10109994506934CDC099A079909EB40
:10A44000020801EB0B0508F1804802EB030BA39B0C
:10A4500008F1FF3803EB880870AB03EBC909A39B35
:10A4600020A903EB8B0301EBC505029358F8040FF9
:10A4700014F022FA0B4601990246002905F1080B57
:10A48000C5E900234FF000064FF000071CDB039CDA
:10A490000CE000BF9C130400ABAAAA2A0000703E87
:10A4A000000070410000204075E90223F4E8020139
:10A4B00014F06CFA02460B463046394614F0B0F8F8
:10A4C000544506460F46EFD1029B9845E9E80267DE
:10A4D0005D46CBD1DDF818B0D9E6012300220CA9E6
:10A4E000C4F180749B4541F822400EDD51F82320D1
:10A4F00001EB8B0001EB83036FF07F4100E01A68F2
:10A500008A1A43F8042B8342F9D101244CE706D17F
:10A510000BF1FF330CAA52F82350ED152AE7002265
:10A520007B4B14F0B9FC002840F0A381054650E7AE
:10A5300032463B460020774914F070F806460F4635
:10A54000002C3FF446AF059A7249002000F008FF46
:10A5500002460B463046394614F060F806460F4670
:10A5600037E7012363E70BF1FF320CAB0CA953F87B
:10A570002230C3F3160341F8223027E70CAB059ACB
:10A5800053F82930183ACDE9068505926BB909F1DF
:10A590008043013B0CA901EB830353F8041909F133
:10A5A000FF39183A0029F8D00592059A5949002038
:10A5B00000F0D6FEB9F1000F04460D46C0F2C0818E
:10A5C0004FEAC90370AA02EB030808930CAB03EB34
:10A5D0008906DFF844B14FF0000A08F10807043695
:10A5E00056F8040D14F068F922462B4614F0CEF903
:10A5F0005B4667E9020152462046294614F0C6F937
:10A600000CAB9E4204460D46EAD148AB039301933E
:10A61000CDF8149009F10103DDF810900293C346C0
:10A620004FF0000AB9F1000FC0F22A81DFF8EC8088
:10A630005D4635A3D3E9002300260027002403E06C
:10A64000544510DCF8E80223F5E8020114F09EF905
:10A6500002460B463046394613F0E2FF0134A1456D
:10A6600006460F46ECDA019BE3E802670193029B82
:10A670000AF1010A9A45ABF1080BD3D1A29BDDF890
:10A680001490032B39D8DFE813F0D9000600060038
:10A690004D0048AB0393B9F1000F4FF000004FF0AD
:10A6A000000109DB039D05EBC904083474E90223AA
:10A6B00013F0B6FFA542F9D1079B002B40F01E8195
:10A6C0000B9BC3E900010B4603990246D1E9000147
:10A6D00013F0A4FFB9F1000F0CDD4AAD01240134E1
:10A6E000F5E8022313F09CFFA145F8DA079B002B45
:10A6F00040F014810B9BC3E90201069B03F00700A5
:10A700000DF5197DBDE8F08F00000040FB21F93FF9
:10A710000000E03F0000F03F0000703E10FD03002D
:10A7200048AB0393B9F1000F40F32781039ACDF8AA
:10A7300010904FEAC9030193D318D3E900AB09F194
:10A740000053013B02EBC9080293914678E9026786
:10A7500052465B463046394613F062FF04460D46CA
:10A7600002460B463046394613F058FF52465B46C8
:10A7700013F056FFC145A246AB46C8E90201C8E93D
:10A780000045E3D1DDF81090B9F1010F40F3F580F9
:10A79000019B039A02991344C900D3E9006701F1B0
:10A7A000080A019192440DF5947B7AE902893246B8
:10A7B0003B464046494613F033FF04460D460246E9
:10A7C0000B464046494613F029FF32463B4613F0FC
:10A7D00027FFD34526462F46CAE90201CAE90045AC
:10A7E000E3D1019C039B1034002000211C4403F1A1
:10A7F000100574E9022313F013FFA542F9D1039C5D
:10A80000079ED4E90023D4E90245002E00F08A8097
:10A8100003F1004701F100430B99C1E90403069BD2
:10A820002646944605F1004403F00700C1E900C73D
:10A83000C1E902640DF5197DBDE8F08F089C039D08
:10A840000834002000212C4474E9022313F0E8FEB0
:10A85000A542F9D1079B13B101F1004319460B9BA7
:10A86000C3E90001069B03F007000DF5197DBDE863
:10A87000F08FBBF1000F08F1010874DD022581E5BE
:10A8800000260027EFE600248EE5CDE90685059D2C
:10A89000304639466A4200F063FD0022384B0646D6
:10A8A0000F4614F0F9FA00B30022364B3046394611
:10A8B00014F06CF814F01AFB044613F0FDFF0022AC
:10A8C0002F4B14F063F80B4602463946304613F01E
:10A8D000A5FE14F00BFB0BF101090CAB183543F886
:10A8E0002B00059543F829405FE63046394614F0C1
:10A8F000FDFA0CABD94643F82B0056E60B9C01F150
:10A900000043C4E900030B4603990246D1E9000164
:10A9100013F084FEB9F1000F3FF7DFAE01F1004301
:10A920001946E7E60B9EC6E90023069BC6E904012B
:10A9300003F00700C6E902450DF5197DBDE8F08F6B
:10A94000A29B032B3FF6D9AE01A252F823F000BF21
:10A9500061A9020093A6020093A6020021A70200AB
:10A960000020002176E732463B460020064913F0DE
:10A9700055FE022506460F462BE5002000213EE746
:10A98000000070410000703E0000F03F0000000039
:10A990002DE9F04F21F00046B6F1795F85B004460D
:10A9A0000D469046994604DA14F0A0FA002800F00B
:10A9B000858022462B462046294613F0E7FF0646AF
:10A9C0000F4602460B462046294613F0DFFF41A3FF
:10A9D000D3E9002382468B463046394613F0D6FF32
:10A9E0003EA3D3E9002313F019FE32463B4613F091
:10A9F000CDFF3CA3D3E9002313F012FE32463B46C1
:10AA000013F0C4FF39A3D3E9002313F007FE324645
:10AA10003B4613F0BBFF37A3D3E9002313F000FE3E
:10AA20000E9BCDE900019BB30022294B40464946CD
:10AA300013F0ACFFDDE90023CDE902015046594691
:10AA400013F0A4FF02460B46DDE9020113F0E6FD18
:10AA500032463B4613F09AFF42464B4613F0DEFD6A
:10AA600019A3D3E9002306460F465046594613F072
:10AA70008DFF02460B463046394613F0D1FD0246A3
:10AA80000B462046294613F0C9FD05B0BDE8F08FFE
:10AA900002460B463046394613F078FF0AA3D3E945
:10AAA000002313F0BBFD52465B4613F06FFF2246B6
:10AAB0002B4613F0B5FD05B0BDE8F08F20462946C2
:10AAC00005B0BDE8F08F00BF495555555555C53FF8
:10AAD0000000E03F7CD5CF5A3AD9E53DEB9C2B8A6C
:10AAE000E6E55A3E7DFEB157E31DC73ED561C1196B
:10AAF000A0012A3FA6F810111111813F00000000AB
:10AB00002DE9F04FC04C21F0004687B0A6428246A6
:10AB10008B460F46CDE900231ADC14F0E7F9002834
:10AB20003FD1109B524601331343334300F0B781AA
:10AB3000109B012B00F0C0815B460020B34914F04C
:10AB40004FF804460D462046294607B0BDE8F08F71
:10AB5000AF4B9E4225DD002909DADDE9004522469A
:10AB600005F10043CDE900230BF100418B4652462D
:10AB70005B4685A1D1E9000113F050FDDDE900231A
:10AB800004460D4682A1D1E9000113F047FD9FED77
:10AB9000827B22462B468DED007B13F041FD8246E1
:10ABA0008B4652465B465046594613F0EFFE02462E
:10ABB0000B468046894613F0E9FE424604460D46A0
:10ABC0004B465046594613F0E1FE75A3D3E90023E6
:10ABD000CDE902012046294613F0D8FE72A3D3E93D
:10ABE000002313F01DFD22462B4613F0CFFE70A369
:10ABF000D3E9002313F014FD22462B4613F0C6FEC2
:10AC00006DA3D3E9002313F00BFD22462B4613F06E
:10AC1000BDFE6BA3D3E9002313F002FD22462B46B1
:10AC200013F0B4FE68A3D3E9002313F0F9FC424605
:10AC30004B4613F0ABFE66A3D3E90023CDE9040134
:10AC40002046294613F0A2FE63A3D3E9002313F0A4
:10AC5000E7FC22462B4613F099FE61A3D3E90023BB
:10AC600013F0DEFC22462B4613F090FE5EA3D3E9E0
:10AC7000002313F0D5FC22462B4613F087FE5CA37D
:10AC8000D3E9002313F0CCFC22462B4613F07EFEC2
:10AC900059A3D3E9002313F0C3FC02460B46DDE9B8
:10ACA000040113F0BDFCDDE9022313F06FFEDDE9C2
:10ACB000004522462B4613F0B3FC42464B4613F0A8
:10ACC00065FE22462B4613F0ABFC4DA3D3E90023CF
:10ACD00004460D46DDE9020113F058FE22462B46DC
:10ACE00013F09EFC0B460246804689465046594664
:10ACF00013F096FC464B9E4204460D4600F38C80B2
:10AD0000109B012B3BD002460B4600203F4913F01D
:10AD100067FF002406460F462046294652465B46FA
:10AD2000CDE90067CDE90201009413F077FCDDE97D
:10AD300000AB02460B464046494613F06FFC5246B4
:10AD40005B4613F023FE524604460D465B46DDE9A2
:10AD5000020113F01BFE00222E4B13F061FC024691
:10AD60000B462046294613F05BFC32463B4613F067
:10AD70000DFE52465B4613F053FC04460D4620463A
:10AD8000294607B0BDE8F08F182D4454FB21E93F58
:10AD9000075C143326A6813C000000000000000080
:10ADA000D47ABF74702AFB3EE9A7F0320FB8123F85
:10ADB00068108D1AF726303F1583E0FEC8DB573F39
:10ADC00093846EE9E326823FFE41B31BBAA1AB3FF9
:10ADD000735360DBCB75F3BEA69237A0887E143F19
:10ADE0000165F2F2D844433F280356C9226D6D3FF6
:10ADF00037D60684F464963F7AFE10111111C13FD4
:10AE0000635555555555D53FFFFF2F3E0000F0BF08
:10AE10002794E53F0000F03F109813F04DFD2246C7
:10AE2000CDE900012B462046294613F0AFFDDDE9B0
:10AE30000023CDE902012046294613F0F1FB02462A
:10AE40000B46DDE9020113F0CBFE42464B4613F000
:10AE5000E5FB02460B465046594613F0DFFB02461F
:10AE60000B4613F0DDFB02460B46DDE9000113F053
:10AE7000D5FB0446B81700F00200C0F101000D46F2
:10AE800013F01AFD02460B462046294613F07EFDBC
:10AE900004460D462046294607B0BDE8F08F5046CF
:10AEA000594611F0F3FC02460B460020044913F00A
:10AEB00097FE04460D4662E754465D465FE700BFD5
:10AEC0000000F03F000000002DE9F04FCC4A21F0D7
:10AED0000043934285B082468B460C4620D9C94A2E
:10AEE000934200F2D780002C80F2A481ACA3D3E976
:10AEF00000235046594613F093FB0022002313F021
:10AF0000B7FF002840F0D180A7A3D3E90023504623
:10AF1000594613F03BFD02460B460020BA4994E126
:10AF2000BA4A934200F2E580B94A934240F22E8138
:10AF3000002301930022B74B5046594613F026FDDB
:10AF400006460F4602460B465046594613F01EFD74
:10AF500097A3D3E9002304460D4613F017FD96A3EB
:10AF6000D3E9002313F05CFB22462B4613F00EFDC1
:10AF700093A3D3E9002313F051FB22462B4613F091
:10AF800005FD91A3D3E9002313F04AFB22462B468B
:10AF900013F0FCFC8EA3D3E9002313F03FFB224601
:10AFA0002B4613F0F3FC00229B4B13F039FB804639
:10AFB000894602460B463046394613F0E7FC024606
:10AFC0000B460020954913F029FB064602460B4626
:10AFD0000F464046494613F021FB324680468946DB
:10AFE0003B465046594613F0D1FC02460B46002022
:10AFF0008B4913F013FB02460B464046494613F0BB
:10B00000EFFD22462B4613F0C1FC019E02460B4683
:10B01000002E4DD0DDE9026732463B4613F0FEFAC2
:10B0200052465B4613F0B2FC32463B4613F0F6FA4A
:10B030002B46224613F0F2FA019B013306460F46D7
:10B0400000F02381019B012B7BD0019A531C392BEB
:10B050004FEA025500F22881019A132A40F35581E4
:10B06000019BC3F57F7403340022230513F0D8FA43
:10B0700002460B465046594613F0D0FA0022664B62
:10B0800013F0CEFA824605EB010B5046594605B047
:10B09000BDE8F08F634A93421BD9C1F31303034306
:10B0A000024640F012810029EFDA00205E490DE0EF
:10B0B0005046594613F06AFC22462B4613F0AEFA6E
:10B0C00002460B465046594613F0A8FA05B0BDE8B3
:10B0D000F08F41A3D3E9002313F0E8FE00283FF4EA
:10B0E00002AF3FA3D3E900231046194613F04EFCEC
:10B0F000ECE74E4A934200F2EC8000293AA3D3E9F0
:10B10000002339DA13F08CFA39A7D7E900674FF03A
:10B11000FF3380468946019332463B4640464946C6
:10B1200013F07CFA02460B4682468B46404649465F
:10B1300013F074FA32463B4613F070FACDE902017F
:10B14000F8E600223A4B5046594613F091FE00288B
:10B1500000F0CC805046594600222E4B13F060FA86
:10B1600002460B463046394613F058FA00224FF09B
:10B17000404313F00BFCA9E713F050FA012380467B
:10B18000894601931CA7D7E90067C5E714A3D3E953
:10B19000002313F045FA02460B468FE7AFF3008019
:10B1A00059F3F8C21F6EA501FE822B654715F73FC4
:10B1B0002DC3096EB7FD8ABE3952E686CACFD03E8E
:10B1C000B7DBAA9E19CE143F8555FE19A0015A3F40
:10B1D000F41011111111A13FEF39FAFE422E8640F1
:10B1E0009C7500883CE4377E0000E0FE422EE63F7E
:10B1F000763C7935EF39EABD763C7935EF39EA3D71
:10B2000079684340412E86400000E0BF422ED63F81
:10B21000FFFF8F3C0000E03F0000F03F00000840CF
:10B2200000001840FFFFEF7F0000F0BFB1A2F03F29
:10B230000000D0BF44A3D3E900235046594613F081
:10B24000A5FB02460B460020414913F0E9F913F033
:10B250004DFE019013F030FB37A3D3E900230646DF
:10B260000F4613F093FB02460B465046594613F027
:10B27000D5F933A3D3E900238046894630463946C1
:10B2800013F084FB06460F4646E702460B4650463F
:10B29000594613F0C3F900222D4B13F077FB00221F
:10B2A0002B4B13F0BBF911E752465B4613F0B6F98E
:10B2B00002460B460020274913F0B0F96B181946D7
:10B2C0000022244B13F0AAF900E70B4613F0A8F96B
:10B2D000FCE61DA3D3E9002313F058FB002C024623
:10B2E0000B464FF00000AFDA1B49AEE732463B4653
:10B2F0005046594613F092F902460B4613F090F966
:10B300000022144B13F08CF9E0E64FF4001343FADB
:10B3100002F452465B4613F081F9C4F17F570026D0
:10B3200007F5401702460B463046394613F076F9CA
:10B33000A8E600BFAFF300800000E0FE422EE63F2B
:10B34000763C7935EF39EA3DFE822B654715F73FAC
:10B350000000E03F0000F03F0000E0BF0000000000
:10B36000F8B5C1F30A5304460D460E4617460BBB0B
:10B3700021F00046034633431BD0354B002213F027
:10B3800005FB344B9F4204460D4635DBC1F30A539F
:10B390000E46363B3B4440F2FE72934232DC002BB9
:10B3A00011DD26F0FF4626F4E00646EA0355204666
:10B3B0002946F8BD40F2FF729342EBD102460B469C
:10B3C00013F02EF9F8BD13F1350F28DA4CF2503393
:10B3D0009F4222462B460ADD19A1D1E9000113F054
:10B3E0008FF817A3D3E9002313F0D0FAF8BD16A104
:10B3F000D1E9000113F084F813A3D3E9002313F07B
:10B40000C5FAF8BD22462B460DA1D1E9000113F083
:10B4100077F80BA3D3E9002313F0B8FAF8BD26F0B0
:10B42000FF4626F4E006363346EA03552046294611
:10B430000022094B13F0AAFAF8BD00BFAFF3008059
:10B440009C7500883CE4377E59F3F8C21F6EA50155
:10B4500000005043B03CFFFF0000903C10B5054C8D
:10B46000237833B9044B13B10448AFF300800123B0
:10B47000237010BD1085002000000000F4140400AB
:10B4800008B5034B1BB103490348AFF3008008BD67
:10B490000000000014850020F4140400154B002B5C
:10B4A00008BF134B9D46A3F5803A00218B460F46FB
:10B4B0001348144A121A09F005F90F4B002B00D05B
:10B4C00098470E4B002B00D0984700200021040025
:10B4D0000D000D48002802D00C48AFF3008013F097
:10B4E00045F82000290005F025F913F02BF800BFDE
:10B4F0000000080000000420000000000000000020
:10B50000008400207C8C002000000000000000006F
:10B5100070B504460E4600F047FA88B10368DB6A4E
:10B5200005469847082C0CD0A4F10903012B14D927
:10B530003246214610230D20BDE8704004F058B873
:10B5400070BD2B6828465B6A98470228F0DC2B68A0
:10B5500028461B6A04219847EAE72B6828465B6A5D
:10B5600098470528E4DC2B6828461B6A0821984781
:10B57000DEE700BF38B52DED028B054600F014FA6A
:10B58000044640B10368DB6A9847032D03D8DFE81F
:10B5900005F02F363D06BDEC028B002038BD20465D
:10B5A0000CF004FF07EE900A2046F8EEE78A0CF054
:10B5B0000DFF07EE900A2046B8EEE78A0CF016FF62
:10B5C00068EE087A07EE100AE8EEA87AB8EEC77AB5
:10B5D000E7EE077AF5EE407AF1EE10FAB1EEE78A7F
:10B5E0001BD4FDEEC87ABDEC028B17EE900A38BD75
:10B5F000BDEC028B2046BDE838400CF0D7BEBDEC58
:10B60000028B2046BDE838400CF0E0BEBDEC028B5A
:10B610002046BDE838400CF0E9BE17EE900A11F064
:10B620006BFEDEE738B5044600F0BEF958B103689A
:10B63000DB6A0546984744B1012C04D12846BDE891
:10B640003840FBF73DB9002038BD2846BDE83840FA
:10B65000FBF716B910B5044600F0A6F928B1036847
:10B6600021461B6ABDE81040184710BD00487047CE
:10B6700016FCFFFF704700BF10B5034B0360044684
:10B680000CF070FC204610BD640A040010B5054B98
:10B69000036004460CF066FC204613F0FFFE2046D3
:10B6A00010BD00BF640A04002DE9F041032184B0FD
:10B6B0000546512001F0DAFCDFF8E8C2AE4B044643
:10B6C00004F00F06C4F3031714F4807408BF634634
:10B6D000AA4831463A460BF025FE221C18BF01222B
:10B6E00031463B4628460EF063FD0023AB60A4487C
:10B6F0000BF018FE4FF0FF31032001F0B7FCC0B291
:10B7000004F08CFA4FF0FF310446022001F0AEFC49
:10B71000C0B204F083FA002C3BD0002839D0014697
:10B72000204604F041F8064600284DD04FF0FF3186
:10B73000462001F09BFC322804464ED04BDD3828D1
:10B7400000F0B18068285FD14FF0FF31012001F097
:10B750008DFCC0B204F062FA80464C2013F0A7FEC4
:10B76000052301934246009431462B4607460DF0CF
:10B7700015FDAF603B6838469B6A9847A868036828
:10B78000DB6A98477F480BF0CDFD284604B0BDE842
:10B79000F0817D480BF0C6FD4FF0FF31192001F01C
:10B7A00065FCC0B204F03AFA4FF0FF3104461820AD
:10B7B00001F05CFCC0B204F031FA0146204603F00F
:10B7C000F3FF06460028B1D170480BF0ABFD2846C8
:10B7D00004B0BDE8F081302816D14FF0FF310120D0
:10B7E00001F044FCC0B204F019FA80464C2013F07A
:10B7F0005EFEA4B2074605230193424600943146FB
:10B800002B460DF081FAB4E701243268CDE90044FB
:10B810000023176AAB600F220DF10F03322130466F
:10B82000B847002800F085803368CDE900440F2236
:10B830001F6A30210DF10F033046B84700284AD067
:10B840003368CDE900440D221F6A38210DF10F0342
:10B850003046B847002872D03268CDE900440DF177
:10B860000F03176A682175223046B847002845D172
:10B87000682147480BF056FD4FF0FF31204601F09C
:10B88000F5FBC0B204F0CAF980464C2013F00FFE5D
:10B8900005246823CDE90034424631462B4607464D
:10B8A0000DF07CFC65E74FF0FF31012001F0DEFB7D
:10B8B000C0B204F0B3F98046442013F0F8FD05232C
:10B8C0000746019342462B46009431460DF0BEFBDD
:10B8D000304B3B604DE730212D480BF023FD3024E9
:10B8E0004FF0FF31012001F0C1FBC0B204F096F926
:10B8F00080464C2013F0DBFD07467CE726480BF022
:10B9000011FDAF68002F7FF435AF4FF0FF310320FA
:10B9100001F0ACFBC0B204F081F930B11F480BF06C
:10B9200001FD284604B0BDE8F0811D480BF0FAFC8B
:10B930004DE7322116480BF0F5FC3224D0E73821D0
:10B9400013480BF0EFFC4FF0FF31204601F08EFB67
:10B95000C0B204F063F98046442013F0A8FD05242A
:10B9600038230746CDE9003442462B4631460DF0D8
:10B970006DFB084B3B60FCE694FD0300A4FD030057
:10B98000C4FD030084FE0300D4FD0300E8FD0300B2
:10B9900014FE030060FD030000FE030028FE030008
:10B9A00064FE03009CFD030038B5114C23680BB105
:10B9B000986838BD4FF0FF31012001F057FBC0B24D
:10B9C00004F02CF940B10C2013F071FD0546FFF78F
:10B9D0006BFE2560A86838BD4FF0FF31032001F0F1
:10B9E00045FBC0B204F01AF90028ECD138BD00BF05
:10B9F0002C85002008B501F06BFCFBF7D5FCBDE8F9
:10BA0000084001F0C5B900BF08B501F061FCFBF7C3
:10BA10003BFDBDE8084001F0BBB900BF08B501F02F
:10BA200057FC10F0A9FFBDE8084001F0B1B900BF14
:10BA300008B501F04DFC11F09BFBBDE8084001F09A
:10BA4000A7B900BF08B501F043FCFBF7BDFCBDE89A
:10BA5000084001F09DB900BF08B501F039FC11F0B4
:10BA6000BDF9BDE8084001F093B900BF08B501F089
:10BA70002FFCFAF745FFBDE8084001F089B900BF87
:10BA800008B501F025FC11F0FFF8BDE8084001F011
:10BA90007FB900BF70B5049E96420C4624DB154664
:10BAA0006BB9042A19D0022A02D110F0010310D078
:10BAB00001462A46204607F073FC002070BD104462
:10BAC0000D4410F8013D01F8013B8D42F9D10020F1
:10BAD00070BD02880A80184670BD10F00303E7D1DC
