:020000040002F8
:1060000000000420F9CA030021CB030023CB0300C6
:1060100025CB030027CB030029CB030000000000A1
:106020000000000000000000000000002BCB030077
:106030002DCB0300000000002FCB030031CB030069
:1060400033CB030033CB030099C903005DC90300C0
:1060500071C9030033CB03008DB7030033CB0300BA
:1060600085C503008DC5030095C5030033CB030030
:1060700033CB030033CB030033CB030033CB03001C
:1060800033CB030033CB030033CB030033CB03000C
:1060900033CB030033CB030033CB030033CB0300FC
:1060A00033CB030033CB03009DC50300A5C503001C
:1060B00033CB030033CB03000000000000000000DE
:1060C00033CB030033CB030033CB030085C903007C
:1060D00033CB030033CB030033CB030033CB0300BC
:1060E000C1C9030033CB030033CB03000000000021
:1060F0000000000033CB030000000000ADC9030026
:10610000000000000000000000000000000000008F
:10611000000000000000000000000000000000007F
:10612000000000000000000000000000000000006F
:10613000000000000000000000000000000000005F
:10614000000000000000000000000000000000004F
:10615000000000000000000000000000000000003F
:10616000000000000000000000000000000000002F
:10617000000000000000000000000000000000001F
:10618000000000000000000000000000000000000F
:1061900000000000000000000000000000000000FF
:1061A00000000000000000000000000000000000EF
:1061B00000000000000000000000000000000000DF
:1061C00000000000000000000000000000000000CF
:1061D00000000000000000000000000000000000BF
:1061E00000000000000000000000000000000000AF
:1061F000000000000000000000000000000000009F
:106200007CB0EE877CB0EE87FF00FF00FF00FF0050
:10621000FF00FF00FF00FF00FF00FF00FF00FF0086
:10622000FF00FF00FF00FF00FF00FF00FF00FF0076
:10623000FF00FF00FF00FF002DE9F04F85B0039144
:106240000778A7F10903042B044607F07F0200F149
:106250000100F5D9202AF3D02B2F04BF677804461C
:106260002D2F75D09FED427B8DED007B4FF0000808
:106270004FF000099FB34FF0000C25464FF0000A85
:10628000DFF8FCB0644619E019F000F98046894651
:10629000304619F091F842464B4618F041FF5246FD
:1062A000804689465B46DDE900013CB319F018FAE7
:1062B000CDE90001A44615F8017F7FB1A7F13006B2
:1062C000092E52465B4640464946DDD9CCB92E2FB1
:1062D00017D115F8017F0124002FEFD12C4642463B
:1062E0004B46DDE9000119F0D1F880468946039B51
:1062F000404649461C6005B0BDE8F08F4FF0010CE8
:10630000D9E72C46BCF1000F29D042464B46DDE9C7
:10631000000119F0BBF807F0DF07452F80468946DA
:10632000E5D10399681C0A2218F0DEFE14490246E2
:10633000002019F05BFC02460B464046494619F026
:10634000A5F8804689464046494605B0BDE8F08F2D
:106350009FED097B67788DED007B013486E7DFF8E0
:1063600024904FF000084046494605B0BDE8F08F44
:10637000000000000000F03F000000000000F0BF3F
:10638000000024400000F87F2DE9F0470023144668
:1063900000228046894619F0EBFA28B109F1004342
:1063A00099462D232370013400220023404649469C
:1063B00019F0D4FA28B13022002322706370BDE8AE
:1063C000F0874046494617F0D3FB19F00FFB73A343
:1063D000D3E9002307464946404619F0C9FA002888
:1063E0004ED170A3D3E900234046494619F0DEFAA6
:1063F000002845D10E2F07F1010540F3B980A7F120
:106400000E0632460020624919F0F0FB02460B46A8
:106410004046494619F064F900225E4B18F080FEB0
:1064200019F020FC002DA7F10F0E4FF0010C4DDDEF
:10643000594FDFF87881012245F6F3294FF02E0AF3
:10644000494508BF40454FF030030AD3B0EB080080
:1064500061EB0901494508BF404503F10103F5D24D
:10646000DBB2237050EA010304F101084AD19542DE
:1064700052DD0132102A4FD0444677E90289DFE726
:10648000002F33DB3A460020414919F0AFFB0246AA
:106490000B464046494619F023F93BA3D3E90023B4
:1064A00080468946012500264046494618F0EEFF01
:1064B0000022384B18F034FE19F0D4FB002DBC46F6
:1064C0004FF0FF3E37464FF00006B1DC2346302246
:1064D0004FF02E0803F8022B84F80180FC4345D0CE
:1064E0001C4403F8012BA342FBD1A1E77A42002010
:1064F000274919F07BFB02460B464046494618F0F7
:10650000C5FFCAE7954202F1010204BF84F801A069
:1065100004F10208102AAFD16EB14246302102F8D0
:10652000011BC2F1010373444344002BF7DC2EEA44
:10653000EE7301339844BCF1010F12D0BCF1000F8F
:106540004FF0650388F80030C5BF2B2388F8013071
:1065500008F1010108F102016046BDE8F04710F0C2
:10656000BFBA002388F80030BDE8F0871C465FE71B
:10657000C7F10E020020064919F038FB3E460246DC
:106580000B46012790E700BF0000901EC4BCD64216
:10659000000024400000E03FA00704008DEDB5A0FE
:1065A000F7C6B03E50EFE2D6E41A4B4400407A10F2
:1065B00070B54FF0FF3006F017FA04466FF07F40D9
:1065C00006F012FA0646204618F0E6FE00220C4BB2
:1065D00018F05CFF044630460D4618F0DDFE06A3B9
:1065E000D3E9002319F07CF802460B4620462946E1
:1065F00018F096FD70BD00BF0000E0DFFFFF6F43A5
:106600000000F03D000000002DE9F04F1D46138909
:10661000AB4288BF536885B004468CBF53F8250051
:10662000002090468A4606F053FE0022904B18F058
:106630002DFF19F0DBF9B8F808206B1C9A4288BFCF
:10664000D8F8042006468CBF52F82300002006F03C
:106650003FFE0022864B18F019FF19F0C7F9B8F871
:1066600008300235AB4288BFD8F8043007468CBFEB
:1066700053F82500002006F02BFE002EC4E9006729
:1066800040F3E280002F40F3DF8071A3D3E90023C1
:10669000002584F8285017F08DF900220023804649
:1066A000894619F065F940B14046494668A3D3E9E7
:1066B000002318F035FD8046894667A3D3E90023FF
:1066C0004046494619F072F9C0B165A3D3E90023E9
:1066D0004046494619F056F980B1012340464946E3
:1066E00084F8283060A3D3E9002318F019FD58A3DB
:1066F000D3E9002317F05EF98046894600225D4BFE
:106700004046494618F0C2FE16F088FE01F10043EB
:1067100000221946564B18F0B9FE19F067F94946A0
:106720000546404616F036FE0022514B18F0AEFEEC
:1067300019F05CF9DAF804304F49B3F80CB0B3F84B
:106740000AA0A56007FB0BF303EB010806FB0AF6A2
:10675000019388FB05234FEA124C00960E444CEA45
:10676000034C06EA010383FB009A06EB0C0E0EEACB
:10677000010ED346CA468EFB00675246CDE902673A
:10678000120C42EA0B42DDE902AB0CEA010C8CFB75
:1067900000674FEA164956460A40360C46EA0B4651
:1067A00049EA074982FB05AB5F46C144B0445646FF
:1067B000CDE90267039FE060360C09EA010908EAA7
:1067C000010846EA074689FB05AB334488FB0556BA
:1067D000CDE9025655462D0C45EA0B45DDE902ABE5
:1067E0000B40AC4403EAE3770CEA010C554623EA7C
:1067F000E37367454FEA154502EAE276A8BF6746AC
:1068000045EA0B45634522EAE272B8BF6346AE44EF
:106810004E450EEA010EA8BF4E464A45B8BF4A464D
:106820007745A8BF77467345B8BF73464645A8BFAE
:106830004646C4E905634245B8BF424600980199FF
:10684000206261622761E261204605B0BDE8F08FF9
:10685000EA2E4454FB211940F4D64354FB21F93F5E
:10686000320D337F7CD91240EA2E4454FB2109407B
:106870000000F0400000E03F0000FFFF00000000CB
:1068800008B511F0F5FBDFED0C7A07EE100A67EEA4
:10689000277A17EE900A18F0A1FD05A3D3E900238B
:1068A00018F01EFF19F0A2F808BD00BFAFF300807A
:1068B000EA2E4454FB2119400000B44300000000BC
:1068C00008B511F0E9FBDFED0C7A07EE100A67EE70
:1068D000277A17EE900A18F081FD05A3D3E900236B
:1068E00018F0FEFE19F082F808BD00BFAFF300807B
:1068F000EA2E4454FB2119400000B443000000007C
:10690000494A21F0004393422DE9704304460D4665
:1069100049DC464A93420E460EDC3FA3D3E90023EE
:1069200018F0FEFB0022424B19F040F800284AD034
:1069300020462946BDE870833E4A934239DCB3F1D4
:10694000804F40DD16F022FD2246804689462B46C8
:106950002046294618F09AFD0022354B18F0E0FB3E
:1069600017F0B0FB42464B4618F0DAFB02460B46E6
:1069700000202F4918F0B4FE424604460D464B460F
:106980004046494618F0CCFB02460B4620462946B5
:1069900018F0C6FB02F040F8002E08DC01F10043BD
:1069A0001946BDE8708302460B4618F0B9FBBDE8F6
:1069B000708316F0EBFC02F02FF819A3D3E9002343
:1069C00018F0AEFBE8E722462B462046294618F091
:1069D0005DFD804689462046294616F0D7FC0022F8
:1069E00004460D46124B4046494618F099FB17F0F5
:1069F00069FB00220E4B18F093FB02460B46404603
:106A0000494618F06DFE22462B4618F089FB00F02F
:106A1000A7FAC1E7AFF300809C7500883CE4377E9D
:106A2000EF39FAFE422EE63FFFFFEF7FFFFF2F3EDA
:106A30000000F03F0000B0412DE9F84FBE4B21F0BF
:106A400000469E4204460D468A460EDDBB4B9E42E2
:106A500000F3B18000F0AC80BAF1000F40F3EA809F
:106A600099A1D1E90001BDE8F88FB54B9E4200F332
:106A7000BA80A3F1DE739E4240F3A5804FF0FF3B46
:106A800022462B462046294618F000FD02460B46BA
:106A90008046894618F0FAFC8DA3D3E90023064608
:106AA0000F4618F0F3FC8CA3D3E9002318F038FB51
:106AB00032463B4618F0EAFC89A3D3E9002318F0DC
:106AC0002FFB32463B4618F0E1FC87A3D3E90023B5
:106AD00018F026FB32463B4618F0D8FC84A3D3E9D5
:106AE000002318F01DFB32463B4618F0CFFC82A372
:106AF000D3E9002318F014FB42464B4618F0C6FCBD
:106B00007FA3D3E90023804689463046394618F0F2
:106B1000BDFC7DA3D3E9002318F000FB32463B46C1
:106B200018F0B4FC7AA3D3E9002318F0F7FA324640
:106B30003B4618F0ABFC78A3D3E9002318F0EEFA3B
:106B400032463B4618F0A2FC75A3D3E9002318F0A7
:106B5000E5FA32463B4618F099FC02460B464046A1
:106B6000494618F0DDFA22462B4618F08FFCBBF19F
:106B7000FF3F02460B4661D0724B734E4FEACB0B80
:106B80005B44D3E9002318F0C9FA22462B4618F0DB
:106B9000C5FAB34402460B46DBE9000118F0BEFA21
:106BA000BAF1000F0DDA01F100431946BDE8F88F84
:106BB00000283FF451AF22462B462046294618F0C4
:106BC000AFFABDE8F88F58A3D3E9002318F0A8FA6C
:106BD00000225E4B18F0EAFE00283FF44FAF20463B
:106BE0002946BDE8F88F16F0D1FB594B9E4204466A
:106BF0000D4629DCA3F550239E424EDC02460B468F
:106C000018F08EFA0022514B18F088FA002206463E
:106C10000F464FF080432046294618F081FA02467D
:106C20000B463046394618F05BFD4FF0000B04462A
:106C30000D4625E73EA1D1E90001C2E720462946DD
:106C400018F06CFABDE8F88F424B9E421ADC002225
:106C5000414B18F063FA002206460F463E4B204691
:106C6000294618F013FC0022384B18F059FA024656
:106C70000B463046394618F033FD4FF0020B044600
:106C80000D46FDE602460B460020344918F028FD6B
:106C90004FF0030B04460D46F2E600222B4B18F092
:106CA0003DFA002206460F46284B2046294618F09A
:106CB00037FA02460B463046394618F011FD4FF0C0
:106CC000010B04460D46DBE6182D4454FB21F93F29
:106CD00011DA22E33AAD903FEB0D76244B7BA93FCE
:106CE000513DD0A0660DB13F6E204CC5CD45B73F9C
:106CF000FF8300922449C23F0D5555555555D53F48
:106D00002F6C6A2C44B4A2BF9AFDDE522DDEAD3F3B
:106D10006D9A74AFF2B0B33F711623FEC671BC3FDB
:106D2000C4EB98999999C93F9C7500883CE4377EDB
:106D3000182D4454FB21F9BFFFFF0F440000F07FE2
:106D4000FFFFDB3FC8070400A80704000000F03F76
:106D5000FFFFF23FFF7F03400000F83F0000F0BF5D
:106D60002DE9F041C1F30A57A7F2FF35132D024672
:106D70000B460C468846064620DC002D4ADB364F83
:106D80002F4101EA070C5CEA000C1CD030A3D3E9C8
:106D9000002318F0C5F90022002318F007FE48B1BF
:106DA000002C04DD4FF4801343FA05F5A84428EACB
:106DB0000704002621463046BDE8F081332D06DD6C
:106DC000B5F5806F38D010461946BDE8F081A7F2BE
:106DD00013474FF0FF3C2CFA07F70742F3D01CA3F0
:106DE000D3E9002318F09CF90022002318F0DEFDFF
:106DF0000028DFD0002C09DD142D22D00123C5F19D
:106E0000340503FA05F5AE1928BF984426EA0706AB
:106E10004446CFE70EA3D3E9002318F081F90022FE
:106E2000002318F0C3FD0028C4D0002C0CDB26433F
:106E300005D00026094CBDE718F072F9C5E73446C5
:106E4000B8E704F10108E1E700264FF00044B1E79C
:106E50009C7500883CE4377EFFFF0F000000F03F88
:106E60002DE9F041C1F30A57A7F2FF35132D024671
:106E70000B460C46884606461DDC002D3CDB364F93
:106E80002F4101EA070C5CEA000C19D030A3D3E9CA
:106E9000002318F045F90022002318F087FDC8B33D
:106EA000002C04DA4FF4801343FA05F5A84428EACD
:106EB000070400262EE0332D06DDB5F5806F2DD0BA
:106EC00010461946BDE8F081A7F213474FF0FF3C8A
:106ED0002CFA07F70742F3D01DA3D3E9002318F0DB
:106EE0001FF90022002318F061FD98B1002C21DB6E
:106EF00026EA070644460DE015A3D3E9002318F05F
:106F00000FF90022002318F051FD18B1002C08DB06
:106F10000026344621463046BDE8F08118F000F9DD
:106F2000D0E724F000430D4A1E43002E18BF14463C
:106F30000026EFE7142D08D00123C5F1340503FA2C
:106F400005F5AE1928BF9844D2E704F10108CFE750
:106F50009C7500883CE4377EFFFF0F000000F0BF07
:106F60002DE9F04FD84B994287B08046894643DDE2
:106F7000D64B99420E4600F3F480D54B994240F32C
:106F80002D819FEDBB7B8DED047B4FEA215A04469A
:106F9000AAF2FF3ACF4BC6F313069E4246F07F5546
:106FA00000F3128145F44015204629460022CA4BC1
:106FB00018F0B4F8002204460D46C84B18F066FAE3
:106FC00022462B4618F062FAA046CDE90201A946F6
:106FD000CDE90001002E3AD10022002320462946A7
:106FE00018F0BCFC002800F01B81BAF1000F40F043
:106FF000858100200021B8E0B94B21F000449C427B
:107000000A460FDD0022B74B18F0A8FC002800F05C
:10701000AF80002200230020B34918F061FB07B0C5
:10702000BDE8F08FB14B9C4240F3AF80B04B1A44A7
:107030009A4240F2D3800022A84B18F027FA424629
:107040004B4618F023FACDE900014FF0000A002268
:107050004FF080434046494618F062F802460B461E
:107060004046494618F03CFB02460B4606460F4692
:1070700018F00CFA80A3D3E9002304460D4618F05B
:1070800005FA7FA3D3E9002318F04AF822462B46DD
:1070900018F0FCF97CA3D3E9002318F041F822464C
:1070A0002B4618F0F3F97AA3D3E9002318F038F847
:1070B00022462B4618F0EAF977A3D3E9002318F00B
:1070C0002FF822462B4618F0E1F975A3D3E90023E7
:1070D00018F026F822462B4618F0D8F972A3D3E907
:1070E000002318F01DF822462B4618F0CFF9DDE9F1
:1070F000002318F015F832463B4618F0C7F904464D
:107100000D46BAF1000F00F0A880504618F054F96F
:1071100067A3D3E9002382468B4618F0B7F966A32C
:10712000D3E9002306460F465046594618F0AEF9FB
:10713000DDE9042317F0F4FF22462B4617F0F0FF99
:1071400002460B46DDE9000117F0E8FF42464B46D8
:1071500017F0E4FF02460B463046394617F0DEFFD3
:1071600003E002460B4617F0DBFF07B0BDE8F08FE7
:1071700042464B464046494617F0D0FF02460B4672
:1071800018F0AEFA07B0BDE8F08F0022594B17F0A7
:10719000C7FF0022002318F009FC10B1564B9C4297
:1071A00062DD42464B464046494618F06FF90022E0
:1071B0004A4B18F06BF902460B464046494617F019
:1071C000ADFF07B0BDE8F08F45F40015C6F5801699
:1071D00020462946B6100AF1010AE7E600223E4B96
:1071E0004046494617F09CFF4FEA215AAAF2FF3A5F
:1071F000BAF1000F04460D460E4640F3BD804246EC
:107200004B4617F08BFF02460B460020324917F021
:1072100085FF22462B4618F063FACDE90401B9E652
:1072200027A3D3E900232046294618F02FF9024668
:107230000B460020284917F071FFDDE9022318F002
:1072400025F906460F46BAF1000F75D102460B46E6
:107250002046294617F062FF87E702460B46DDE924
:10726000000117F05BFFA6E7404649467DE700BFF7
:10727000000000000000000044523EDF12F1C23F57
:107280009FC678D0099AC33FDE03CB966446C73FBA
:10729000AF788E1DC571CC3F599322942449D23FBB
:1072A00004FA97999999D93F935555555555E53F06
:1072B0000000E0FE422EE63F763C7935EF39EA3DAC
:1072C000555555555555E53F7982DA3FFFFFEF7F1C
:1072D000FFFF3F439DA006000000F03F0000E03F9D
:1072E000FFFFEF3F0000F0BF000050C3FFFF1F3E55
:1072F0003C412D4000005043FFFF8F3C504618F0AA
:107300005BF824A3D3E9002306460F4618F0BEF825
:10731000DDE9042317F004FF20A3D3E9002304468A
:107320000D463046394618F0B1F802460B46204665
:10733000294617F0F5FE18E7504618F03DF817A358
:10734000D3E9002382468B4618F0A0F811A3D3E9B5
:107350000023804689465046594618F097F8DDE9E3
:10736000042317F0DDFE02460B463046394617F07F
:10737000D5FE22462B4674E70022054B17F0CEFEC1
:1073800002460B464046494617F0C8FE41E700BF9B
:107390000000F03F763C7935EF39EA3D0000E0FE31
:1073A000422EE63F0000000008B516F063FB04A380
:1073B000D3E9002318F094F908BD00BFAFF30080B3
:1073C000EF39FAFE422EE63F2DE9F043DFF8B480B4
:1073D0008BB004460D4601F0F7F898F90030013300
:1073E00006460F462CD022462B462046294618F04A
:1073F000E7FA814620BB2046294615F0C7FF1FA3A8
:10740000D3E9002318F0D2FAD0B1194A98F9003024
:10741000CDF820900321CDE90445CDE90245CDE921
:10742000001293B113490020022BCDE9060111D1BE
:1074300017F002FE22230360089B9BB9DDE9066773
:10744000304639460BB0BDE8F0830B4B4FF060423D
:10745000CDE90623684617F06BFC0028E8D0089BAE
:10746000002BEBD017F0E8FD089B0360E6E700BFB8
:10747000DC1904000000F07FFFFFEF477DF8B98FB3
:10748000CE338640FF8100202DE9F043DFF8E48011
:107490008BB004460D4601F047F998F900300133EE
:1074A00006460F4633D02046294617F03BFC70B302
:1074B0002CA3D3E900232046294618F077FA814609
:1074C00050BB2AA3D3E900232046294618F050FADE
:1074D000E8B198F90030204ACDF820900020002132
:1074E0000426022BCDE90445CDE902450096CDE9FD
:1074F0000601019229D0684617F01AFC28B3089BB0
:107500001BB117F099FD089B0360DDE90667304663
:1075100039460BB0BDE8F0830F4A98F9003001926C
:1075200003210022CDE90445CDE9024500910892EE
:107530002BB90A4B4FF06042CDE90623DBE708493F
:107540000020022BCDE90601D5D117F075FD2223CD
:107550000360D4E7AFF30080E4190400FFFFEF47B6
:107560000000F07FEF39FAFE422E864051302DD5D3
:10757000104987C0FF8100202DE9F04FDFF82C93E0
:107580008DB006460F4614461D4601F09DFC99F944
:107590000080B8F1FF3FCDE9000136D022462B46EE
:1075A0002046294618F00CFA834670BB32463B460B
:1075B0003046394618F004FA8246002840F0A2808E
:1075C000304639460022002318F0C8F910B30022D3
:1075D00000232046294618F0C1F98346002867D0C9
:1075E0009FEDA77B0122AC4BCDF828A00292CDE9FC
:1075F0000467CDE906458DED087B0393B8F1000FD4
:1076000041D09FEDA17B8DED007BDDE900010DB048
:10761000BDE8F08FDDE9000117F084FB804600280B
:1076200000F08D804FF0000A4FF0000BDDE9000103
:1076300052465B4618F092F90028E6D030463946AB
:1076400017F070FB0028E0D02046294617F06AFBAF
:107650000028DAD099F900308F4A039204210022E1
:10766000022BCDE90467CDE90645CDE908AB0291CF
:107670000A9203D002A817F05BFB50B917F0DCFCAC
:107680002223036005E002A817F052FB002800F057
:107690009B800A9B1BB117F0CFFC0A9B03609DEDFA
:1076A000087B8DED007BDDE900010DB0BDE8F08FBA
:1076B0002046294617F036FB0028A6D000220023DA
:1076C0002046294618F054F900289ED0724A99F9AC
:1076D0000030CDF828B00121CDE90467CDE9064599
:1076E000CDE90212002B74D06C490020022BCDE9A9
:1076F000080172D117F0A0FC212303600A9B002B24
:10770000CDD0C8E7002200232046294618F026F9EC
:1077100000283FF47AAF624B5F49CDF828B00022D1
:107720000120B8F1020FCDE904670290CDE90645CA
:10773000CDE908230391A6D1CDE9002365E73046C2
:10774000394617F0EFFA00283FF46CAF204629467F
:1077500017F0E8FA00283FF465AFDDE90023104692
:10776000194618F02DF999F900A000286BD10323D0
:10777000DFF824C10A902946204602930022494B93
:10778000CDF80CC0CDE90645CDE9046717F07EFEC3
:1077900004460D46BAF1000F25D1DFF814B14FF0C1
:1077A000604A0022002330463946CDE908AB18F084
:1077B000DFF838BB02A817F0BBFA00289ED117F0FB
:1077C0003BFC2223036099E717F036FC212303607A
:1077D0005FE79FED2B7B8DED087B02A817F0A8FAE1
:1077E00000288BD186E79FED2A7B002200233046BC
:1077F00039468DED087B18F0BBF8A0B9BAF1020F3D
:10780000DDD0D7E72046294617F09AFA22462B46C4
:1078100018F0A4F8A0B9244B99F900A04FF06042E9
:10782000CDE90823EAE72046294617F089FA2246DF
:107830002B4618F093F818B9184B0022CDE908230D
:1078400099F900A0DAE70122134BCDF828800292C3
:10785000CDE90467CDE906450393BAF1000FB8D02E
:10786000002200231046194617F03AFFBAF1020F22
:10787000CDE908013FF43EAFAFE700BFAFF30080B2
:107880000000000000000000000000000000F03FC9
:10789000000000000000F07FFC1904000000F0FF71
:1078A0000000F03F0000E03FFFFFEFC7FF81002036
:1078B000FFFFEF47000000002DE9F84FC44E21F014
:1078C0000043B34204460D460DDD03F1404303F58A
:1078D0008013034340F0B980002940F34081002029
:1078E0000021BDE8F88FBB4EB34208DCBA4A934290
:1078F00000F3B5809CA1D1E90001BDE8F88F002913
:10790000C0F2708102460B460020B44917F006FC15
:107910000022B34B17F0BAFD04460D4616F0D2FB19
:1079200093A3D3E90023894680462946204617F0D1
:10793000ADFD91A3D3E9002317F0F2FB22462B46BD
:1079400017F0A4FD8EA3D3E9002317F0E7FB22462E
:107950002B4617F09BFD8CA3D3E9002317F0E0FB27
:1079600022462B4617F092FD89A3D3E9002317F096
:10797000D5FB22462B4617F089FD87A3D3E90023C8
:1079800017F0CEFB22462B4617F080FD84A3D3E9E7
:10799000002382468B462046294617F077FD82A3B6
:1079A000D3E9002317F0BAFB22462B4617F06EFDF1
:1079B0007FA3D3E9002317F0B3FB22462B4617F031
:1079C00065FD7DA3D3E9002317F0A8FB22462B46D3
:1079D00017F05CFD0022814B17F0A2FB02460B461C
:1079E0005046594617F07CFE42464B4617F04EFD76
:1079F000002682468B4632464B463046494617F0B3
:107A000045FD02460B462046294617F087FB3246C5
:107A100004460D464B464046494617F081FB024658
:107A20000B462046294617F05BFE02460B465046A1
:107A3000594617F075FB32464B4617F071FB02466C
:107A40000B4617F06DFBBDE8F88F02460B4617F0AA
:107A500065FB02460B4617F043FEBDE8F88F024671
:107A60000B4617F013FD42A3D3E9002306460F4649
:107A700017F00CFD40A3D3E9002317F051FB324669
:107A80003B4617F003FD3EA3D3E9002317F046FB66
:107A900032463B4617F0FAFC3BA3D3E9002317F02C
:107AA0003FFB32463B4617F0F1FC39A3D3E90023F4
:107AB00017F034FB32463B4617F0E8FC36A3D3E917
:107AC000002317F02DFB32463B4617F0DFFC34A3B2
:107AD000D3E90023804689463046394617F0D6FC64
:107AE00031A3D3E9002317F019FB32463B4617F0C8
:107AF000CDFC2FA3D3E9002317F012FB32463B46FF
:107B000017F0C4FC2CA3D3E9002317F007FB32467F
:107B10003B4617F0BBFC0022304B17F001FB02463E
:107B20000B464046494617F0DBFD22462B4617F030
:107B3000ADFC02460B4622A1D1E9000117F0EEFA96
:107B400002460B462046294617F0E8FA02460B4645
:107B500005A1D1E9000117F0E1FABDE8F88F1AA1FB
:107B6000D1E9000179E700BF182D4454FB21F93F0A
:107B700009F7FD0DE13D023F88B20175E0EF493F95
:107B80003B8F68B52882A43F5544880E55C1C93F34
:107B90007D6FEB0312D6D43F555555555555C53F0E
:107BA00082922EB1C5B8B33F59018D1B6C06E63FDA
:107BB000C88A599CE52A00404B2D8A1C273A03406D
:107BC000075C143326A6913C182D4454FB21094030
:107BD000FFFFEF3FFFFFDF3F0000603C0000F03F92
:107BE0000000E03F00225C4B17F09AFA00225B4B4A
:107BF00017F04CFC40A3D3E9002304460D4617F0D0
:107C000045FC3FA3D3E9002317F08AFA22462B460E
:107C100017F03CFC3CA3D3E9002317F07FFA22467F
:107C20002B4617F033FC3AA3D3E9002317F078FA78
:107C300022462B4617F02AFC37A3D3E9002317F07E
:107C40006DFA22462B4617F021FC35A3D3E9002319
:107C500017F066FA22462B4617F018FC8046894634
:107C60002046294616F02EFA2FA3D3E90023064614
:107C70000F462046294617F009FC2DA3D3E900231F
:107C800017F04CFA22462B4617F000FC2AA3D3E942
:107C9000002317F045FA22462B4617F0F7FB28A3DE
:107CA000D3E9002317F03AFA22462B4617F0EEFBF1
:107CB0000022294B17F034FA02460B46404649464B
:107CC00017F00EFD32463B4617F0E0FB1EA3D3E94A
:107CD000002317F023FA32463B4617F021FA0246FA
:107CE0000B4617F01DFA02460B4619A1D1E9000117
:107CF00017F014FAB1E600BF09F7FD0DE13D023FB0
:107D000088B20175E0EF493F3B8F68B52882A43FF8
:107D10005544880E55C1C93F7D6FEB0312D6D43F41
:107D2000555555555555C53F82922EB1C5B8B33FEF
:107D300059018D1B6C06E63FC88A599CE52A004014
:107D40004B2D8A1C273A0340075C143326A6913C2E
:107D5000182D4454FB2109400000F03F0000E03F93
:107D6000414A91422DE9F84304460D4637DD3F4A2A
:107D700091420B4608DD02F1795291423DDD024607
:107D800017F0CEF9BDE8F88301F1404202F5801208
:107D900002432ED0B1F1804F37DC0022344B17F074
:107DA000BDF902460B4604460D4617F0B9F92246C6
:107DB00006460F462B462046294617F067FB02462B
:107DC0000B463046394617F0ABF916F07BF92246E0
:107DD0002B4617F0A5F9BDE8F843FFF7C1B80246F6
:107DE0000B4617F09BF902460B4617F079FCBDE8ED
:107DF000F88300200021BDE8F88300F00DFE18A3F1
:107E0000D3E9002317F08CF9F1E7024617F03EFBA7
:107E10000022174B17F082F916F054F922468046DB
:107E200089462B462046294617F07AF9224606460F
:107E30000F462B464046494617F072F902460B465C
:107E400000200B4917F04CFC0B46024639463046E1
:107E500017F064F9BDE8F84300F0DEBDAFF3008031
:107E6000EF39FAFE422EE63FFFFFEF3FFFFFAF4143
:107E70000000F03F000000002DE9F04FAE4B21F074
:107E800000479F4287B004460D4611DD07F1404789
:107E900007F5801703463B4321D002460B4617F0F7
:107EA0003DF902460B4617F01BFC07B0BDE8F08F0A
:107EB000A24B9F420E4629DCB7F1795F80F24681E2
:107EC00081A3D3E9002317F02BF900229C4B17F074
:107ED0006DFDD8B12046294607B0BDE8F08F7CA3E0
:107EE000D3E9002317F0D2FA7BA3D3E90023064697
:107EF0000F462046294617F0C9FA02460B4630467F
:107F0000394617F00DF907B0BDE8F08F2046294635
:107F100015F03CFA02460B460020894917F0FEF89E
:107F20000022884B17F0B2FA6DA3D3E90023044670
:107F30000D4617F0ABFA6CA3D3E9002317F0F0F865
:107F400022462B4617F0A2FA69A3D3E9002317F0C3
:107F5000E5F822462B4617F099FA67A3D3E90023E8
:107F600017F0DEF822462B4617F090FA64A3D3E907
:107F7000002317F0D3F822462B4617F087FA62A3A6
:107F8000D3E9002317F0CCF822462B4617F07EFAEF
:107F90005FA3D3E90023CDE900012046294617F06D
:107FA00075FA5DA3D3E9002317F0B8F822462B46F3
:107FB00017F06CFA5AA3D3E9002317F0B1F8224660
:107FC0002B4617F063FA58A3D3E9002317F0A6F85D
:107FD00022462B4617F05AFA594B002217F0A0F808
:107FE00082468B4620462946CDE902AB16F06AF858
:107FF000554B9F428046894600F3198102460B4645
:1080000017F08EF8DDE90223CDE90401DDE9000176
:1080100017F066FB02460B46DDE9040117F036FA5D
:108020004FF0000ACDE9000152464B465046494602
:1080300017F02CFA02460B462046294617F06EF838
:10804000524604460D464B464046494617F068F8EE
:1080500002460B462046294617F042FB02460B46D5
:1080600017F05EF802460B461BA1D1E9000117F09C
:1080700055F802460B46DDE9000117F04FF852466D
:1080800004460D464B465046494617F049F802460D
:108090000B4627A1D1E9000117F040F802460B4634
:1080A0002046294617F03AF802460B4620A1D1E9AE
:1080B000000117F033F8002E3FF7F7AE01F100434F
:1080C0001946F2E6AFF300809C7500883CE4377EE9
:1080D000182D4454FB21F93F075C143326A6913C2C
:1080E00009F7FD0DE13D023F88B20175E0EF493F20
:1080F0003B8F68B52882A43F5544880E55C1C93FBF
:108100007D6FEB0312D6D43F555555555555C53F98
:1081100082922EB1C5B8B33F59018D1B6C06E63F64
:10812000C88A599CE52A00404B2D8A1C273A0340F7
:10813000182D4454FB21E93FFFFFEF3FFFFFDF3FD6
:108140000000F03F0000E03F3233EF3F02460B46B5
:1081500017F09CF94BA3D3E9002306460F4617F00E
:1081600095F94AA3D3E9002316F0DAFF32463B46DD
:1081700017F08CF947A3D3E9002316F0CFFF32465E
:108180003B4617F083F945A3D3E9002316F0C8FF57
:1081900032463B4617F07AF942A3D3E9002316F0A2
:1081A000BDFF32463B4617F071F940A3D3E90023E7
:1081B00016F0B6FF32463B4617F068F93DA3D3E907
:1081C0000023804689463046394617F05FF93BA3C5
:1081D000D3E9002316F0A2FF32463B4617F056F9CA
:1081E00038A3D3E9002316F09BFF32463B4617F035
:1081F0004DF936A3D3E9002316F090FF32463B46F3
:1082000017F044F900221E4B16F08AFF02460B4677
:108210004046494617F064FA22462B4617F036F9D5
:1082200022462B4616F07CFF07B0BDE8F08F524681
:108230005B46DDE9000117F053FA42464B4617F062
:1082400025F942464B4616F06BFF02460B4616F0E8
:1082500067FF07A3D3E9002316F060FF02460B4631
:1082600005A1D1E9000116F059FF24E7AFF3008022
:10827000075C143326A6913C182D4454FB21F93F8A
:108280000000F03F09F7FD0DE13D023F88B20175A6
:10829000E0EF493F3B8F68B52882A43F5544880EE4
:1082A00055C1C93F7D6FEB0312D6D43F5555555587
:1082B0005555C53F82922EB1C5B8B33F59018D1BAC
:1082C0006C06E63FC88A599CE52A00404B2D8A1C63
:1082D000273A0340000000002DE9F84F1D465342A5
:1082E000134325F00049DFF8C8C149EAD373634559
:1082F000144606460F4626D8C0F1000848EA000892
:1083000021F0004A4AEAD878E04503468B461AD85D
:1083100005F1404808F5801858EA0208AE4643D0F7
:108320004FEAA57808F002085AEA030348EAD17830
:1083300011D1B8F1020F55D0B8F1030F09D14AA1FC
:10834000D1E9000105E032463B462046294616F0B9
:10835000E7FEBDE8F88F59EA020329D0E1452ED0A7
:10836000E24525D0AAEB09094FEA2959B9F13C0F9A
:108370003CDC002D3EDA19F13C0F3BDA00200021F5
:10838000B8F1010F4ED0B8F1020F3ED0B8F1000F96
:10839000DFD037A3D3E9002316F0C0FE36A3D3E91C
:1083A000002316F0BBFED4E7BDE8F84FFEF744BB50
:1083B000BBF1000F12DB32A1D1E90001C9E7CA45C8
:1083C00034D0B8F1020F0DD0B8F1030FB7D0B8F127
:1083D000010F4FF0000036D00021BAE72AA1D1E901
:1083E0000001B6E724A1D1E90001B2E724A1D1E957
:1083F0000001C5E722462B463046394617F070F992
:1084000014F0C4FFFEF718FBBAE719A3D3E9002361
:1084100016F084FE02460B4617A1D1E9000116F0C2
:108420007DFE96E701F10043194692E7B8F1020F8D
:1084300014D0B8F1030F0DD0B8F1010F06D014A17C
:10844000D1E9000185E74FF0004182E712A1D1E9AF
:1084500000017EE712A1D1E900017AE712A1D1E97A
:10846000000176E7AFF30080182D4454FB2109C0CA
:10847000075C143326A6A13C182D4454FB21094067
:10848000182D4454FB21F93F182D4454FB21F9BF0A
:10849000182D4454FB21E93F182D4454FB21E9BF1A
:1084A000D221337F7CD902C0D221337F7CD90240D4
:1084B0000000F07F0000000043422DE9F047034335
:1084C00021F000463C4A46EAD373934204460D46E7
:1084D0002AD8964240D0394B9E428A462EDD384BF0
:1084E0009E4235463FDD33460246314616F018FEC1
:1084F000224606460F462B4600202F4916F00EFE58
:1085000002460B463046394617F0EAF8FEF728FDDA
:1085100000222C4B16F0BAFFBAF1000F0CDA01F171
:1085200000431946BDE8F08702460B4616F0F6FDFB
:1085300002460B4617F0D4F8BDE8F0871CA3D3E938
:10854000002316F0EDFD0022002317F02FFA48B1AA
:1085500020462946BDE8F0870022002317F0C0F826
:10856000BDE8F087354622462B462046294616F0C0
:10857000D7FD22462B4606460F4616F087FF2246B9
:10858000804689462B4600200B4916F0C7FD02465F
:108590000B464046494617F0A3F832463B4616F0D4
:1085A000BFFDFEF7DDFC0022064B16F06FFFB3E7C0
:1085B0009C7500883CE4377E0000F03FFFFF2F3EB3
:1085C000FFFFDF3F0000E03F2DE9F8434E4B21F075
:1085D00000449C4206460F461BDC4C4B9C4222DD6D
:1085E0004B4B9C4254DD4B4B9C4246DD4A4B9C42DC
:1085F0006FDD01339C4269D041A3D3E900231046CB
:10860000194616F043FF06460F4630463946BDE888
:10861000F88302460B4616F039FF06460F463046F1
:108620003946BDE8F88314F0B1FE02F04DFC00229B
:108630003A4B8046894616F073FDB4F1725F0646E8
:108640000F46ECDB42464B464046494616F01EFFBD
:1086500032463B4604460D463046394616F060FD2C
:1086600002460B462046294617F03AF800222B4BCB
:1086700016F056FD06460F46D1E714F087FE00F0CF
:1086800053F80022264B16F001FF06460F46C6E7B8
:1086900014F07CFE00F048F80022214B06460F46FD
:1086A00016F0F4FE324604460D463B4600201C49B7
:1086B00017F016F802460B462046294616F030FD04
:1086C00006460F4630463946BDE8F883154B9842BA
:1086D00092D83046394614F059FE0022104B16F05D
:1086E000D5FE00F021F8002204460D460C4B16F092
:1086F000CDFE22462B4616F0C9FE06460F468EE7F3
:108700009C7500883CE4377EFFFFEF7F422ED63F0A
:10871000FFFF3540412E8640CD3386400000F03FBC
:108720000000E03F7DF8B98F2DE9F047B04F21F010
:108730000042BA4284B004460D464FEAD17610D9C1
:10874000AC4FBA4240F28A80C1F31303034302469E
:1087500040F0F180002E7ED00020002104B0BDE862
:10876000F087A54B9A4200F2B680A44B9A4240F2A1
:10877000D1804FF0000A22462B462046294616F0AB
:1087800085FE85A3D3E9002306460F4616F07EFE3C
:1087900083A3D3E9002316F0C1FC32463B4616F012
:1087A00075FE81A3D3E9002316F0BAFC32463B469E
:1087B00016F06CFE7EA3D3E9002316F0AFFC324620
:1087C0003B4616F063FE7CA3D3E9002316F0A8FC19
:1087D00032463B4616F05AFE02460B4620462946D4
:1087E00016F09CFC02460B4606460F4620462946DC
:1087F00016F04CFE80468946BAF1000F00F0AB80BF
:1088000032463B4600204FF0804116F087FC02467E
:108810000B464046494616F063FF02460B46DDE92B
:10882000020116F07BFCDDE9002316F077FC0B4615
:1088300002467349002016F071FC6FF47F739A456D
:1088400080F2A3800AF57A7A01EB0A5100224FF0F8
:10885000B87316F01BFE04B0BDE8F08758A3D3E947
:10886000002317F0A3F800286BD157A3D3E9002306
:108870002046294617F07CF800287FF46DAF614947
:1088800053A3D3E9002301EBC6062046294616F080
:10889000FDFDD6E9002316F043FC17F0A7F8824649
:1088A00016F08AFD4CA3D3E9002306460F4616F0C6
:1088B000EDFD02460B462046294616F02FFC48A344
:1088C000D3E90023CDE900013046394616F0DEFD3C
:1088D000CDE9020115E04C4B9A42D0D84B4BF40045
:1088E0002344D3E9002316F019FC494B234493EDAC
:1088F000007BCDE900018DED027BC6F1010AAAEBF8
:10890000060ADDE90223DDE9000116F007FC044652
:108910000D4630E734A3D3E9002316F001FC002212
:10892000374B17F043F8A8B3204629460022344BB2
:1089300016F0F6FB8FE70B4616F0F2FB04B0BDE82D
:10894000F08729A3D3E900231046194616F09EFDAF
:1089500004B0BDE8F0873046394600224FF080432E
:1089600016F0DCFB02460B464046494616F0B8FEC0
:1089700022462B4616F0D2FB02460B460020204929
:1089800016F0CCFB04B0BDE8F08701EB0A5104B04F
:10899000BDE8F0878246EEE6D0A4BE726937663E37
:1089A000F16BD2C541BDBB3E2CDE25AF6A56113FEF
:1089B00093BDBE166CC1663F3E5555555555C53FD6
:1089C000EF39FAFE422E864051302DD5104987C02E
:1089D000FE822B654715F73F0000E0FE422EE63F82
:1089E000763C7935EF39EA3D9C7500883CE4377E6A
:1089F000412E8640FFFFEF7F422ED63FFFFF2F3EE6
:108A00000000F03FE8070400B1A2F03FF8070400BF
:108A100008080400000000002DE9F04FB1F5801FA8
:108A200085B006460F460B4680F2D08021F000420A
:108A3000024300F0DA800029C0F2E9800022D64B20
:108A400016F024FDD54A0B46934206460F466FF0BA
:108A5000350E00F3C180C3F3130505F5152C0CF694
:108A6000647C0CF4801C8CF07F5282F440121C1544
:108A700042EA0507A4F2FF3474440022C84B304692
:108A8000394604EB1C5416F049FBAB1CC3F313032B
:108A9000022B82468B464FF0000240F3AF804FF02E
:108AA000804316F03DFB02460B465046594616F0F1
:108AB00017FE064620460F4616F07EFC3246CDE9EC
:108AC00002013B4630463946CDE9006716F0DEFC30
:108AD00002460B468046894616F0D8FC9AA3D3E995
:108AE000002306460F4616F0D1FC99A3D3E90023D4
:108AF00016F016FB32463B4616F0C8FC96A3D3E9A7
:108B0000002316F00DFB32463B4616F0BFFC94A343
:108B1000D3E9002316F004FB42464B4616F0B6FCA0
:108B200091A3D3E90023804689463046394616F0A2
:108B3000ADFC8FA3D3E9002316F0F2FA32463B4690
:108B400016F0A4FC8CA3D3E9002316F0E9FA324610
:108B50003B4616F09BFC0B4602464946404616F043
:108B6000DFFAA5F5C223C5F5D725A3F27A4351351F
:108B70001D43002D06460F4640F387800022894B97
:108B80005046594616F082FC52465B4616F07EFC73
:108B900002460B46804689463046394616F0C0FAF2
:108BA000DDE9002316F072FC06460F46002C40F06B
:108BB000818002460B464046494616F0AFFA02460F
:108BC0000B465046594616F0A9FA0BE0734A9342F9
:108BD0004FF0000E7FF73FAF32463B4630463946F6
:108BE00016F09EFA05B0BDE8F08F002200230020A9
:108BF0006D4916F075FD05B0BDE8F08F002316F045
:108C0000ADFE60B1002C7CD100200021EAE70246D5
:108C100016F084FA0022002316F062FDE2E758A362
:108C2000D3E900235046594616F030FC02460B4665
:108C300000205C4916F072FA524606460F465B4623
:108C40005046594616F022FC02460B46304639463D
:108C500016F01CFC06460F462CB3204616F0ACFB63
:108C600049A3D3E900238046894616F00FFC48A3A8
:108C7000D3E9002304460D464046494616F006FC5B
:108C800002460B46304639462CE002460B4650461B
:108C9000594616F043FADDE9002316F0F7FB0646C5
:108CA0000F46002C47D132463B465046594616F0F7
:108CB00035FA97E734A3D3E90023DDE9020116F082
:108CC000E5FB33A3D3E9002304460D46DDE90201A9
:108CD00016F0DCFB32463B4616F022FA02460B4603
:108CE0004046494616F01AFA52465B4616F016FA06
:108CF00002460B462046294616F010FA05B0BDE89C
:108D0000F08F204616F058FB1FA3D3E90023064638
:108D10000F4616F0BBFB1EA3D3E9002304460D4605
:108D20003046394616F0B2FB02460B46204629462D
:108D300016F0F6F956E7DDE9028913A3D3E900231B
:108D40004046494691E700BF44523EDF12F1C23F20
:108D5000DE03CB966446C73F599322942449D23F01
:108D6000935555555555E53F9FC678D0099AC33F51
:108D7000AF788E1DC571CC3F04FA97999999D93F68
:108D8000555555555555D53F0000E0FE422EE63F5E
:108D9000763C7935EF39EA3D00005043FFFFEF7F25
:108DA0000000F03F0000E03F000050C30000000062
:108DB000B1F5801F2DE9F84304460D460B4619DA3C
:108DC00021F00042024359D000295FDB00223A4BD8
:108DD00016F05CFB394A0D462B46934204466FF071
:108DE00035010CDD22462B462046294616F098F91F
:108DF000BDE8F883314A93424FF00001F2DC1815C8
:108E0000A0F2FF3008444FEAD0794844C3F3130876
:108E100016F0D2FAC9F57F73033348EA03550646C4
:108E20000F4620462946FFF7F7FD1DA3D3E900238F
:108E3000804689463046394616F028FB1AA3D3E906
:108E4000002304460D464046494616F01FFB0246E5
:108E50000B462046294616F063F915A3D3E90023F3
:108E600004460D463046394616F010FB02460B46C6
:108E70002046294616F054F9BDE8F8830022002365
:108E800000200F4916F02CFCBDE8F883024616F0CE
:108E900045F90022002316F023FCA9E7AFF3008078
:108EA000362BF111F3FE593D0EE526157BCBDB3F4A
:108EB00000609F501344D33F00005043FFFFEF7FFB
:108EC000000050C3000000002DE9F04F23F00045E2
:108ED00055EA020493B00DD06B4E21F00044B44229
:108EE0000F4682460BDD04F1404404F5801454EA39
:108EF0000A0350D16549002013B0BDE8F08F9B46AE
:108F0000944647D0B542EEDC5F4EB5425DD0002FAF
:108F100080468946CDE900235BDB0026BCF1000FCB
:108F20000ED1594B9D423FD0584B9D4200F0888056
:108F3000BBF1804F00F09C80554B9B4500F0B883FF
:108F40004046494614F022FABAF1000F06D1002C2F
:108F500059D04E4B27F040429A4254D0FF0F013F68
:108F600056EA070373D04B4B9D4240F39B8003F1BD
:108F700004739D4240F33E84474B9C4272DDBBF13B
:108F8000000F72DD3EA3D3E900231046194616F008
:108F90007DFAB1E728B1414813B0BDE8F04F15F0B4
:108FA000C9BEA542F7DCAFE704F1404303F58013E7
:108FB00053EA0A039ED0384B9C4240F38383BBF1B3
:108FC000000F52DBDDE9000196E7BCF1000F9ED0F7
:108FD00089E7334B9D4231DCA3F154739D429CDD04
:108FE0002B15A3F2FF33142B40F3A583C3F13403F5
:108FF0002CFA03F202FA03F363458ED102F0010268
:10900000C2F102068AE7BBF1000F05DA02460B4601
:1090100000201E4916F064FB002FBFF66DAF04F16F
:10902000404404F5801454EA060300F03F84012E06
:109030007FF462AF01F1004319465DE702266DE758
:10904000BBF1000FC0F248834046494654E7424610
:109050004B461046194616F061F802460B4616F0CC
:109060003FFB49E7BBF1000F8CDB0020002143E709
:1090700042464B464046494616F008FA3CE700BFD8
:109080009C7500883CE4377E0000F07F0000F03FD4
:109090000000E03F0000E041FFFFEF3F2810040028
:1090A000FFFF3F43B4F5801F80F261830022D24B63
:1090B00016F0ECF96FF0340C0C462315CF4DC4F3C9
:1090C0001302A3F2FF3342F07F546344AA420B938E
:1090D00044F4401440F33F83C94B9A4240F3048464
:1090E0009FEDAF7B8DED087B8DED107B9FEDAE7B13
:1090F0000B9B8DED067B01330B93A4F580140025AB
:10910000DDE906232146824616F008F8A346DDE98C
:1091100006238046894650462146CDE90CAB15F022
:10912000FFFF02460B460020B64916F0D9FA0A4660
:109130000146CDE90E12134649460246404616F056
:10914000A5F9631043F0005382468B4603F50023D4
:109150008C46CDE904AB5919D3460023CDE902BCB6
:109160000293DDE902AB002004460D4602460B46A1
:109170005046594616F08AF902460B464046494683
:1091800015F0CCFFDDE906238046894620462946B6
:1091900015F0C4FF02460B46DDE90C0115F0BEFFD9
:1091A00052465B4616F072F902460B464046494667
:1091B00015F0B4FFDDE90E2316F068F9DDE904458A
:1091C000CDE9060122462B462046294616F05EF9D7
:1091D00077A3D3E9002304460D4616F057F976A38A
:1091E000D3E9002315F09CFF22462B4616F04EF9DA
:1091F00073A3D3E9002315F093FF22462B4616F004
:1092000045F971A3D3E9002315F08AFF22462B46C6
:1092100016F03CF96EA3D3E9002315F081FF224636
:109220002B4616F033F96CA3D3E9002315F078FF31
:109230002246804689462B462046294616F026F9C6
:1092400002460B464046494616F020F9524604466F
:109250000D465B46DDE9040115F062FFDDE90623FA
:1092600016F014F922462B4615F05AFF5246804656
:1092700089465B465046594616F008F90022624B73
:10928000CDE90C0115F04CFF42464B4615F048FF66
:1092900002980D46044622462B465046594616F083
:1092A000F5F8002282468B46574B2046294615F09A
:1092B00035FFDDE90C2315F031FF02460B46404631
:1092C000494615F02BFFDDE9042316F0DFF82246AE
:1092D000804689462B46DDE9060116F0D7F802469E
:1092E0000B464046494615F01BFF8046894602461C
:1092F0000B465046594615F013FF029838A3D3E9A0
:10930000002304460D4616F0C1F85246CDE904018B
:109310005B462046294615F001FF02460B464046B3
:10932000494615F0FBFE30A3D3E9002316F0AEF852
:109330002FA3D3E90023804689462046294616F00C
:10934000A5F802460B464046494615F0E9FEDDE920
:10935000102315F0E5FE80460B98894616F02CF890
:10936000424682468B464B46DDE9040115F0D8FEA5
:10937000DDE9082315F0D4FE52465B4615F0D0FE19
:10938000029852465B4604460D4615F0C7FEDDE9DD
:10939000082315F0C3FEDDE9042337E0AFF30080B6
:1093A0000000000000000000000000000000F03F8E
:1093B000EF4E454A287ECA3F65DBC9934A86CD3FBA
:1093C00001411DA96074D13F4D268F515555D53FA0
:1093D000FFAB6FDBB66DDB3F033333333333E33F38
:1093E000000000E009C7EE3FFD033ADC09C7EE3F8D
:1093F000F5015B14E02F3EBE000040438E98030051
:1094000079B60B000000F03F0000084015F086FE22
:109410000B4602464946404615F080FE013E56EA9C
:10942000070382468B4600F05E819FEDD37B8DED76
:10943000047BDDE9001200230E461746CDE90267E2
:109440000293DDE9026708463B461146324615F0B5
:1094500065FE22462B4616F019F8DDE9002380460A
:1094600089465046594616F011F802460B464046CA
:10947000494615F055FE3246804689463B46204611
:109480002946CDE9008916F001F80B46024606464A
:109490000F464046494615F043FED14B99420446DB
:1094A0000D468A4640F3248101F13F4303F5E00372
:1094B000034340F0FF81B2A3D3E90023DDE90001BB
:1094C00015F02EFE3246804689463B462046294608
:1094D00015F024FE02460B464046494616F066FA51
:1094E000002840F0E781A8464FEA2853A3F2FE3255
:1094F0004FF4801313415344C3F30A52B94DA2F2FF
:10950000FF321541C3F3130423EA05010020C2F121
:10951000140B44F48014BAF1000F02460B4644FACF
:109520000BFB30463946B8BFCBF1000B15F0F6FD0A
:1095300006460F463246DDE900013B4615F0F0FDD8
:109540004FEA0B5A0D4600248FA3D3E9002320468F
:10955000294615F09BFF3246804689463B46204609
:10956000294615F0DBFD02460B46DDE9000115F04A
:10957000D5FD87A3D3E9002315F088FF86A3D3E99F
:10958000002306460F462046294615F07FFF024677
:109590000B463046394615F0C3FD06460F460246D7
:1095A0000B464046494615F0BBFD42464B46044635
:1095B0000D4615F0B3FD02460B463046394615F010
:1095C000ADFD2246804689462B462046294615F0A9
:1095D0005DFF73A3D3E9002306460F4615F056FF3F
:1095E00071A3D3E9002315F099FD32463B4615F0EF
:1095F0004DFF6FA3D3E9002315F092FD32463B46A1
:1096000015F044FF6CA3D3E9002315F087FD324623
:109610003B4615F03BFF6AA3D3E9002315F080FD1C
:1096200032463B4615F032FF02460B46204629469D
:1096300015F074FD06460F4602460B4620462946A5
:1096400015F024FF0022CDE900014FF080433046A1
:10965000394615F063FD02460B46DDE9000116F0C0
:109660003FF8424606460F464B462046294615F02F
:109670000DFF42464B4615F053FD02460B46304661
:10968000394615F04BFD22462B4615F047FD0246A4
:109690000B460020544915F041FD8A44BAF5801F5D
:1096A000C0F232815146DDE9042315F0EFFE23E4D8
:1096B000002FFFF645AC4046494613B0BDE8F04FD9
:1096C00014F000BDBBF1000FBFF6CFACDDE90034F4
:1096D000184604F100410FE442464B46002042493F
:1096E00015F0FEFF08E49FED387B8DED047BA0E6CE
:1096F0003E4B21F00048984540F3EA803C4B0B4438
:1097000003430AD132463B4615F008FDDDE900234C
:1097100016F042F900283FF4E7AEDDE904012CA37E
:10972000D3E9002315F0B2FE29A3D3E9002315F0F5
:10973000ADFEFFF7E1BBBCF1000F40F0D280C3F1FA
:10974000140345FA03F202FA03F3AB4200F0E0809F
:109750006646FFF7E9BB9FED207B8DED087B8DED25
:10976000107B9FED057B00258DED067BC8E44FF057
:10977000000CA2E4AFF30080000000000000F03F06
:10978000FE822B654715973C00000000432EE63F04
:10979000EF39FAFE422EE63F396CA80C615C20BE20
:1097A000D0A4BE726937663EF16BD2C541BDBB3EE7
:1097B0002CDE25AF6A56113F93BDBE166CC1663FC5
:1097C0003E5555555555C53F000000000000F0BFFF
:1097D00059F3F8C21F6EA501000000000000000050
:1097E000FFFF8F40FFFF0F000000F03FFFCB9040D6
:1097F00000346F3F5A4B9C427FF734AC594B9C422C
:109800003FF7BDAB0022574B15F088FC44A3D3E9CA
:10981000002304460D4615F039FE43A3D3E9002387
:1098200082468B462046294615F030FE0022CDE9BF
:1098300002014D4B2046294615F028FE02460B46F4
:109840003BA1D1E9000115F069FC22462B4615F039
:109850001DFE02460B460020444915F05FFC2246DF
:10986000804689462B462046294615F00FFE0246C3
:109870000B464046494615F009FE2FA3D3E90023C5
:1098800015F004FE02460B46DDE9020115F046FC28
:1098900002460B46804689465046594615F040FC24
:1098A000002004460D4652465B46AFE502460B4695
:1098B000FFF7CFBBDDE9040121A3D3E9002315F0B5
:1098C000E5FD1FA3D3E9002315F0E0FDFFF714BB6E
:1098D000264B98453FF708AEDDE9022392469346B2
:1098E00031E60026FFF72CBB9FED177B8DED087B43
:1098F0009FED177B8DED107B9FED177B4FF480253F
:109900008DED067BFFF7FCBB5A4601F029FDCAE648
:1099100002F00102C2F10206FFF706BBAFF30080BE
:10992000000000604715F73F44DF5DF80BAE543E82
:10993000555555555555D53FFE822B654715F73F73
:109940009C7500883CE4377E0000004003B8E23F8D
:1099500006D0CF43EBFD4C3E000000000000F83F76
:10996000FEFFEF3F0000F03F0000D03F0000E03F6F
:109970002DE9F047CA4B21F000479F4290B0804646
:10998000894640F38F80C74B9F420C46924626DCA7
:109990000029B9A3D3E9002340F38F8015F0BEFB63
:1099A000C14B9F4204460D4600F04781B4A3D3E962
:1099B000002315F0B3FB02460B46CAE900232046FC
:1099C000294615F0ABFBAEA3D3E9002315F0A6FBA7
:1099D0000125CAE90201284610B0BDE8F087B34B63
:1099E0009F4240F38980B24B9F4200F31C813D159A
:1099F000A5F21645A7EB055319461F46064615F076
:109A0000F5FF15F0D9FC8046894642464B46304664
:109A10003946CDE90A8915F081FB0022A54B15F0E6
:109A200035FD8946804615F0E1FF15F0C5FC064678
:109A30000F4632463B4640464946CDE90C6715F095
:109A40006DFB00229B4B15F021FD00220023CDE988
:109A50000E0115F083FF002800F0608100233046DE
:109A60003946002215F07AFF002814BF0123022393
:109A7000914A019202212A4600910AA8514600F01B
:109A800087FB002C054614DADAF80420DAF80C30EB
:109A900002F1004203F100434542CAF80420CAF82B
:109AA0000C3006E000200021C2E90089C2E9020171
:109AB0000025284610B0BDE8F08715F031FB7A4B41
:109AC0009F4204460D4600F00B816DA3D3E90023AD
:109AD00015F026FB02460B46CAE90023294620461C
:109AE00015F01CFB66A3D3E9002315F019FB4FF01A
:109AF000FF35CAE90201DCE713F048FC62A3D3E9B1
:109B000000238046894615F0C1FC00226B4B15F0FE
:109B100007FB15F06BFF054615F04EFC56A3D3E985
:109B20000023CDE9060115F0B1FC02460B46404684
:109B3000494615F0F3FA52A3D3E90023804689463B
:109B4000DDE90601CDE9028915F0A0FC1F2D0246D2
:109B50000B46CDE9042340F3B380DDE90423DDE9BE
:109B6000020115F0DBFA804689463F15C9F30A5316
:109B7000FB1A102B40F3B18045A3D3E90023DDE9A4
:109B8000060115F083FC8046894602460B46DDE956
:109B9000020115F0C3FA02460B46DDE90201CDE9E8
:109BA000082315F0BBFA42464B4615F0B7FA3AA324
:109BB000D3E9002380468946DDE9060115F066FCFD
:109BC00042464B4615F0AAFA0B46CDE9040102467F
:109BD000DDE9080115F0A2FAC1F30A53FF1A312F8B
:109BE0008046894600F39C809DED087BCAE9008988
:109BF0008DED027B42464B46DDE9020115F08EFAFF
:109C0000DDE9042315F08AFA002CCAE90201BFF647
:109C100050AF09F1004401F100436D42CAE90084EC
:109C2000CAE9020345E702460B4615F077FA00251C
:109C3000CAE90201CAE900013BE715A3D3E9002301
:109C400015F06CFA14A3D3E900230D46044615F071
:109C500065FA02460B46CAE900232946204615F05C
:109C60005DFA0DA3D3E9002315F058FA0125CAE9DE
:109C700002011EE7AFF3008000004054FB21F93FD2
:109C80003163621A61B4D03D83C8C96D305FE43F6F
:109C90000000601A61B4D03D7370032E8A19A33B93
:109CA000FB21E93F7BD90240FB21F93FFB213941F0
:109CB000FFFFEF7F00007041981A04000000E03FB2
:109CC0004046494615F02AFA394B6A1E804653F839
:109CD0002230BB4289463FF448AFCAE9008989E790
:109CE0002BA3D3E9002315F01BFA2BA3D3E9002300
:109CF0000D46044615F014FA02460B46CAE9002345
:109D00002946204615F00AFA23A3D3E9002315F0CB
:109D100007FA4FF0FF35CAE90201CAE60323A7E6B6
:109D20001FA3D3E90023DDE9060115F0AFFB0646CA
:109D30000F4602460B46DDE9080115F0EFF98046B3
:109D4000894602460B46DDE90801CDE9028915F096
:109D5000E5F932463B4615F0E1F913A3D3E90023B8
:109D600006460F46DDE9060115F090FB32463B46FC
:109D700015F0D4F902460B4640464946CDE9042386
:109D800015F0CCF980468946A7E700BFAFF3008005
:109D90000000601A61B4D03D7370032E8A19A33B92
:109DA0000000002E8A19A33BC14920259A837B39E4
:109DB000181A040000000000574A2DE9F84F21F05E
:109DC0000048904506460F462CDC544B0029B4BF92
:109DD000534D544D98454FF0000411DC524B9845BB
:109DE00026DC4BA3D3E9002315F09AF900224F4B50
:109DF00015F0DCFD002840D030463946BDE8F88F2C
:109E00004B4B984530DD4B4B984568DD0133984509
:109E100062D0304639463EA3D3E9002315F036FB25
:109E2000BDE8F88F02460B4615F07AF9BDE8F88FC9
:109E300013F0ACFA01F048F83F4B984506460F4640
:109E400023DD0022394B15F06BF902460B463046F4
:109E5000394615F045FC32463B4615F061F922467D
:109E60002B4615F013FBE1E713F090FAFEF75CFCCC
:109E700022462B4615F00AFBD8E73046394613F048
:109E800085FA01F021F806460F4632463B46304639
:109E9000394615F045F9324682468B463B463046F8
:109EA000394615F0F3FA0022804689461F4B3046AA
:109EB000394615F035F902460B464046494615F03D
:109EC0000FFC02460B465046594615F027F922462C
:109ED0002B4615F0DBFAA9E7184B984299D8304683
:109EE000394613F053FA00220E4B15F0CFFAFEF765
:109EF0001BFC06460F4602460B462046294615F037
:109F0000C5FA32463B4615F0C1FA8FE7AFF3008041
:109F10003374AC3C1F7BAC7FFFFFEF7FFFFF35400E
:109F20000000E0BF0000E03FFFFF2F3E0000F03FD9
:109F3000412E8640CD338640FFFFEF3F7DF8B98F3D
:109F40002DE9F04F21F00048B8F1795F85B0064661
:109F50000F4692469B466BDA15F048FD002800F04C
:109F6000E18032463B463046394615F08FFA74A3FD
:109F7000D3E9002304460D4615F088FA72A3D3E90D
:109F8000002315F0CDF822462B4615F07FFA70A37A
:109F9000D3E9002315F0C2F822462B4615F076FAD5
:109FA0006DA3D3E9002315F0BBF822462B4615F02C
:109FB0006DFA6BA3D3E9002315F0B0F822462B46C7
:109FC00015F064FA68A3D3E9002315F0A9F8224636
:109FD0002B4615F05BFACDE900010022664B2046C6
:109FE000294615F053FADDE90023804689462046CC
:109FF000294615F04BFA524604460D465B4630465C
:10A00000394615F043FA02460B462046294615F01C
:10A0100085F802460B464046494615F07FF8024651
:10A020000B460020554915F079F805B0BDE8F08FD2
:10A0300002460B4615F02AFA41A3D3E90023044651
:10A040000D4615F023FA40A3D3E9002315F068F874
:10A0500022462B4615F01AFA3DA3D3E9002315F04A
:10A060005DF822462B4615F011FA3BA3D3E90023F5
:10A0700015F056F822462B4615F008FA38A3D3E916
:10A08000002315F04BF822462B4615F0FFF936A3B6
:10A09000D3E9002315F044F82B46224615F0F6F9D3
:10A0A000374B9845CDE9000197DD364B98453EDCAE
:10A0B000A8F500130022002030499046994615F07B
:10A0C0002DF8CDE9020100222B4B2046294615F040
:10A0D000DDF942464B4615F021F8DDE900238046C4
:10A0E00089462046294615F0D1F9524604460D46C8
:10A0F0005B463046394615F0C9F902460B46204604
:10A10000294615F00BF802460B464046494615F025
:10A1100005F802460B46DDE9020114F0FFFF05B029
:10A12000BDE8F08F1549002005B0BDE8F08F9FED28
:10A13000107B4FF000088DED027BDFF84C90C2E7FA
:10A14000D43888BEE9FAA8BDC4B1B4BD9EEE213EA4
:10A15000AD529C804F7E923E9015CB19A001FA3EE5
:10A160007751C1166CC1563F4C5555555555A53FB5
:10A17000000000000000E73F0000E03F0000F03F6B
:10A180003233D33F0000E93F0000D23F000000001F
:10A190002DE9F04FADF5197DBE4CA29EBE4D54F891
:10A1A00026600793D41E85FB0475E417C4EBA50451
:10A1B00024EAE4741D46631CA3EB8303013D02EB18
:10A1C000C3030593731904960994019503900B91A9
:10A1D000A4EB05071AD43B44002400255E1C0DF1B6
:10A1E0008008DDF88C9208E059F8270015F0E4F8B3
:10A1F0000137B742E8E8020108D0002FF4DA01374E
:10A2000020462946B742E8E80201F6D1049B002B1C
:10A21000079B4FEAC30302932ADB039A20A902EBB0
:10A22000030801EB0309049B72AA02EBC30B0DF5B3
:10A23000E07A019B002B4FF000064FF0000711DB86
:10A24000039C4D4675E90223F4E8020115F01EF95E
:10A2500002460B463046394614F062FF4445064636
:10A260000F46EFD1EAE80267DA4509F10809E0D1C3
:10A27000DDE90204049920448B0082460BA8A3F177
:10A280000802C31808930CAB13440A938B4698AB8F
:10A2900003EBCB03BBF1000F53E9284529DD70AB7D
:10A2A00003EBCB080DF1300900227C4B20462946F8
:10A2B00015F0ECF815F09AFB15F07EF80022784BBB
:10A2C00006460F4615F0E2F802460B4620462946A0
:10A2D00014F024FF15F08AFB78E9022349F8040BF7
:10A2E0003946304614F01CFF70AB984504460D46C5
:10A2F000DAD1DDF81490204629464A4601F030F8BC
:10A3000000224FF07F5304460D4615F0BFF8FCF7CE
:10A31000A7FD0022634B15F0B9F802460B46204614
:10A32000294614F0FBFE0D46044615F05FFB8046FF
:10A3300015F042F80B4602462946204614F0EEFE80
:10A340004B46002B06460F4640F3E1800BF1FF32EF
:10A350000CA9C9F1180351F8225045FA03F101FA8A
:10A3600003F30CA8EB1A40F82230C9F11705884412
:10A3700043FA05F5002D2CDDBBF1000F08F10108B3
:10A3800040F381820C9C002C40F0A780BBF1010FB0
:10A390000AD00CA9012251F8044F531C002C40F0A4
:10A3A0009E809B451A46F6D1059B002B0EDD012BA6
:10A3B00000F0D980022B09D10BF1FF320CAB0CA9B4
:10A3C00053F82230C3F3150341F82230022D00F078
:10A3D000AF80002200233046394615F0BFFA00282E
:10A3E00000F05382049B0BF1FF394B4510DC0BF15D
:10A3F00080430CAA013B089802EB8303002253F828
:10A400000419834242EA0102F9D1002A40F0B680E1
:10A41000049B0CAA013B52F82330002B40F0A18092
:10A420000A9A012352F8041901330029FAD05B4437
:10A430000BF10109994506934CDC099A079909EB40
:10A44000020801EB0B0508F1804802EB030BA39B0C
:10A4500008F1FF3803EB880870AB03EBC909A39B35
:10A4600020A903EB8B0301EBC505029358F8040FF9
:10A4700014F0A2FF0B4601990246002905F1080BD2
:10A48000C5E900234FF000064FF000071CDB039CDA
:10A490000CE000BF381F0400ABAAAA2A0000703EDF
:10A4A000000070410000204075E90223F4E8020139
:10A4B00014F0ECFF02460B463046394614F030FEED
:10A4C000544506460F46EFD1029B9845E9E80267DE
:10A4D0005D46CBD1DDF818B0D9E6012300220CA9E6
:10A4E000C4F180749B4541F822400EDD51F82320D1
:10A4F00001EB8B0001EB83036FF07F4100E01A68F2
:10A500008A1A43F8042B8342F9D101244CE706D17F
:10A510000BF1FF330CAA52F82350ED152AE7002265
:10A520007B4B15F039FA002840F0A381054650E72F
:10A5300032463B460020774914F0F0FD06460F46B0
:10A54000002C3FF446AF059A7249002000F008FF46
:10A5500002460B463046394614F0E0FD06460F46EB
:10A5600037E7012363E70BF1FF320CAB0CA953F87B
:10A570002230C3F3160341F8223027E70CAB059ACB
:10A5800053F82930183ACDE9068505926BB909F1DF
:10A590008043013B0CA901EB830353F8041909F133
:10A5A000FF39183A0029F8D00592059A5949002038
:10A5B00000F0D6FEB9F1000F04460D46C0F2C0818E
:10A5C0004FEAC90370AA02EB030808930CAB03EB34
:10A5D0008906DFF844B14FF0000A08F10807043695
:10A5E00056F8040D14F0E8FE22462B4614F04EFFF8
:10A5F0005B4667E9020152462046294614F046FFB1
:10A600000CAB9E4204460D46EAD148AB039301933E
:10A61000CDF8149009F10103DDF810900293C346C0
:10A620004FF0000AB9F1000FC0F22A81DFF8EC8088
:10A630005D4635A3D3E9002300260027002403E06C
:10A64000544510DCF8E80223F5E8020114F01EFF7F
:10A6500002460B463046394614F062FD0134A145EE
:10A6600006460F46ECDA019BE3E802670193029B82
:10A670000AF1010A9A45ABF1080BD3D1A29BDDF890
:10A680001490032B39D8DFE813F0D9000600060038
:10A690004D0048AB0393B9F1000F4FF000004FF0AD
:10A6A000000109DB039D05EBC904083474E90223AA
:10A6B00014F036FDA542F9D1079B002B40F01E8116
:10A6C0000B9BC3E900010B4603990246D1E9000147
:10A6D00014F024FDB9F1000F0CDD4AAD0124013462
:10A6E000F5E8022314F01CFDA145F8DA079B002BC6
:10A6F00040F014810B9BC3E90201069B03F00700A5
:10A700000DF5197DBDE8F08F00000040FB21F93FF9
:10A710000000E03F0000F03F0000703E3008040001
:10A7200048AB0393B9F1000F40F32781039ACDF8AA
:10A7300010904FEAC9030193D318D3E900AB09F194
:10A740000053013B02EBC9080293914678E9026786
:10A7500052465B463046394614F0E2FC04460D464C
:10A7600002460B463046394614F0D8FC52465B464A
:10A7700014F0D6FCC145A246AB46C8E90201C8E9BF
:10A780000045E3D1DDF81090B9F1010F40F3F580F9
:10A79000019B039A02991344C900D3E9006701F1B0
:10A7A000080A019192440DF5947B7AE902893246B8
:10A7B0003B464046494614F0B3FC04460D4602466B
:10A7C0000B464046494614F0A9FC32463B4614F07D
:10A7D000A7FCD34526462F46CAE90201CAE900452F
:10A7E000E3D1019C039B1034002000211C4403F1A1
:10A7F000100574E9022314F093FCA542F9D1039CDF
:10A80000079ED4E90023D4E90245002E00F08A8097
:10A8100003F1004701F100430B99C1E90403069BD2
:10A820002646944605F1004403F00700C1E900C73D
:10A83000C1E902640DF5197DBDE8F08F089C039D08
:10A840000834002000212C4474E9022314F068FC31
:10A85000A542F9D1079B13B101F1004319460B9BA7
:10A86000C3E90001069B03F007000DF5197DBDE863
:10A87000F08FBBF1000F08F1010874DD022581E5BE
:10A8800000260027EFE600248EE5CDE90685059D2C
:10A89000304639466A4200F063FD0022384B0646D6
:10A8A0000F4615F079F800B30022364B3046394692
:10A8B00014F0ECFD15F09AF8044614F07DFD00222A
:10A8C0002F4B14F0E3FD0B4602463946304614F098
:10A8D00025FC15F08BF80BF101090CAB183543F88A
:10A8E0002B00059543F829405FE63046394615F0C0
:10A8F0007DF80CABD94643F82B0056E60B9C01F1D2
:10A900000043C4E900030B4603990246D1E9000164
:10A9100014F004FCB9F1000F3FF7DFAE01F1004382
:10A920001946E7E60B9EC6E90023069BC6E904012B
:10A9300003F00700C6E902450DF5197DBDE8F08F6B
:10A94000A29B032B3FF6D9AE01A252F823F000BF21
:10A9500061A9020093A6020093A6020021A70200AB
:10A960000020002176E732463B460020064914F0DD
:10A97000D5FB022506460F462BE5002000213EE7C9
:10A98000000070410000703E0000F03F0000000039
:10A990002DE9F04F21F00046B6F1795F85B004460D
:10A9A0000D469046994604DA15F020F8002800F08C
:10A9B000858022462B462046294614F067FD064630
:10A9C0000F4602460B462046294614F05FFD41A380
:10A9D000D3E9002382468B463046394614F056FDB3
:10A9E0003EA3D3E9002314F099FB32463B4614F012
:10A9F0004DFD3CA3D3E9002314F092FB32463B46C5
:10AA000014F044FD39A3D3E9002314F087FB324648
:10AA10003B4614F03BFD37A3D3E9002314F080FB41
:10AA20000E9BCDE900019BB30022294B40464946CD
:10AA300014F02CFDDDE90023CDE902015046594612
:10AA400014F024FD02460B46DDE9020114F066FB1A
:10AA500032463B4614F01AFD42464B4614F05EFB6C
:10AA600019A3D3E9002306460F465046594614F071
:10AA70000DFD02460B463046394614F051FB0246A6
:10AA80000B462046294614F049FB05B0BDE8F08F7F
:10AA900002460B463046394614F0F8FC0AA3D3E9C7
:10AAA000002314F03BFB52465B4614F0EFFC2246B9
:10AAB0002B4614F035FB05B0BDE8F08F2046294643
:10AAC00005B0BDE8F08F00BF495555555555C53FF8
:10AAD0000000E03F7CD5CF5A3AD9E53DEB9C2B8A6C
:10AAE000E6E55A3E7DFEB157E31DC73ED561C1196B
:10AAF000A0012A3FA6F810111111813F00000000AB
:10AB00002DE9F04FC04C21F0004687B0A6428246A6
:10AB10008B460F46CDE900231ADC14F067FF0028AE
:10AB20003FD1109B524601331343334300F0B781AA
:10AB3000109B012B00F0C0815B460020B34914F04C
:10AB4000CFFD04460D462046294607B0BDE8F08FEC
:10AB5000AF4B9E4225DD002909DADDE9004522469A
:10AB600005F10043CDE900230BF100418B4652462D
:10AB70005B4685A1D1E9000114F0D0FADDE900239C
:10AB800004460D4682A1D1E9000114F0C7FA9FEDF9
:10AB9000827B22462B468DED007B14F0C1FA824663
:10ABA0008B4652465B465046594614F06FFC0246AF
:10ABB0000B468046894614F069FC424604460D4621
:10ABC0004B465046594614F061FC75A3D3E9002367
:10ABD000CDE902012046294614F058FC72A3D3E9BE
:10ABE000002314F09DFA22462B4614F04FFC70A36C
:10ABF000D3E9002314F094FA22462B4614F046FCC5
:10AC00006DA3D3E9002314F08BFA22462B4614F0EF
:10AC10003DFC6BA3D3E9002314F082FA22462B46B5
:10AC200014F034FC68A3D3E9002314F079FA424607
:10AC30004B4614F02BFC66A3D3E90023CDE90401B5
:10AC40002046294614F022FC63A3D3E9002314F024
:10AC500067FA22462B4614F019FC61A3D3E90023BE
:10AC600014F05EFA22462B4614F010FC5EA3D3E9E2
:10AC7000002314F055FA22462B4614F007FC5CA37F
:10AC8000D3E9002314F04CFA22462B4614F0FEFBC5
:10AC900059A3D3E9002314F043FA02460B46DDE939
:10ACA000040114F03DFADDE9022314F0EFFBDDE9C5
:10ACB000004522462B4614F033FA42464B4614F028
:10ACC000E5FB22462B4614F02BFA4DA3D3E90023D3
:10ACD00004460D46DDE9020114F0D8FB22462B465E
:10ACE00014F01EFA0B4602468046894650465946E5
:10ACF00014F016FA464B9E4204460D4600F38C8033
:10AD0000109B012B3BD002460B4600203F4914F01C
:10AD1000E7FC002406460F462046294652465B467D
:10AD2000CDE90067CDE90201009414F0F7F9DDE9FF
:10AD300000AB02460B464046494614F0EFF9524636
:10AD40005B4614F0A3FB524604460D465B46DDE924
:10AD5000020114F09BFB00222E4B14F0E1F9024695
:10AD60000B462046294614F0DBF932463B4614F0E8
:10AD70008DFB52465B4614F0D3F904460D4620463F
:10AD8000294607B0BDE8F08F182D4454FB21E93F58
:10AD9000075C143326A6813C000000000000000080
:10ADA000D47ABF74702AFB3EE9A7F0320FB8123F85
:10ADB00068108D1AF726303F1583E0FEC8DB573F39
:10ADC00093846EE9E326823FFE41B31BBAA1AB3FF9
:10ADD000735360DBCB75F3BEA69237A0887E143F19
:10ADE0000165F2F2D844433F280356C9226D6D3FF6
:10ADF00037D60684F464963F7AFE10111111C13FD4
:10AE0000635555555555D53FFFFF2F3E0000F0BF08
:10AE10002794E53F0000F03F109814F0CDFA224649
:10AE2000CDE900012B462046294614F02FFBDDE931
:10AE30000023CDE902012046294614F071F90246AB
:10AE40000B46DDE9020114F04BFC42464B4614F080
:10AE500065F902460B465046594614F05FF9024622
:10AE60000B4614F05DF902460B46DDE9000114F0D3
:10AE700055F90446B81700F00200C0F101000D4674
:10AE800014F09AFA02460B462046294614F0FEFAC0
:10AE900004460D462046294607B0BDE8F08F5046CF
:10AEA000594612F073FA02460B460020044914F08A
:10AEB00017FC04460D4662E754465D465FE700BF57
:10AEC0000000F03F000000002DE9F04FCC4A21F0D7
:10AED0000043934285B082468B460C4620D9C94A2E
:10AEE000934200F2D780002C80F2A481ACA3D3E976
:10AEF00000235046594614F013F90022002314F0A1
:10AF000037FD002840F0D180A7A3D3E900235046A5
:10AF1000594614F0BBFA02460B460020BA4994E1A8
:10AF2000BA4A934200F2E580B94A934240F22E8138
:10AF3000002301930022B74B5046594614F0A6FA5D
:10AF400006460F4602460B465046594614F09EFAF6
:10AF500097A3D3E9002304460D4614F097FA96A36D
:10AF6000D3E9002314F0DCF822462B4614F08EFAC5
:10AF700093A3D3E9002314F0D1F822462B4614F012
:10AF800085FA91A3D3E9002314F0CAF822462B4690
:10AF900014F07CFA8EA3D3E9002314F0BFF8224604
:10AFA0002B4614F073FA00229B4B14F0B9F880463C
:10AFB000894602460B463046394614F067FA024687
:10AFC0000B460020954914F0A9F8064602460B46A8
:10AFD0000F464046494614F0A1F83246804689465D
:10AFE0003B465046594614F051FA02460B460020A3
:10AFF0008B4914F093F802460B464046494614F03C
:10B000006FFB22462B4614F041FA019E02460B4686
:10B01000002E4DD0DDE9026732463B4614F07EF843
:10B0200052465B4614F032FA32463B4614F076F84C
:10B030002B46224614F072F8019B013306460F4658
:10B0400000F02381019B012B7BD0019A531C392BEB
:10B050004FEA025500F22881019A132A40F35581E4
:10B06000019BC3F57F7403340022230514F058F8C4
:10B0700002460B465046594614F050F80022664BE3
:10B0800014F04EF8824605EB010B5046594605B0C8
:10B09000BDE8F08F634A93421BD9C1F31303034306
:10B0A000024640F012810029EFDA00205E490DE0EF
:10B0B0005046594614F0EAF922462B4614F02EF871
:10B0C00002460B465046594614F028F805B0BDE834
:10B0D000F08F41A3D3E9002314F068FC00283FF46B
:10B0E00002AF3FA3D3E900231046194614F0CEF96E
:10B0F000ECE74E4A934200F2EC8000293AA3D3E9F0
:10B10000002339DA14F00CF839A7D7E900674FF0BB
:10B11000FF3380468946019332463B4640464946C6
:10B1200013F0FCFF02460B4682468B4640464946DA
:10B1300013F0F4FF32463B4613F0F0FFCDE9020175
:10B14000F8E600223A4B5046594614F011FC00280C
:10B1500000F0CC805046594600222E4B13F0E0FF01
:10B1600002460B463046394613F0D8FF00224FF016
:10B17000404314F08BF9A9E713F0D0FF0123804678
:10B18000894601931CA7D7E90067C5E714A3D3E953
:10B19000002313F0C5FF02460B468FE7AFF3008094
:10B1A00059F3F8C21F6EA501FE822B654715F73FC4
:10B1B0002DC3096EB7FD8ABE3952E686CACFD03E8E
:10B1C000B7DBAA9E19CE143F8555FE19A0015A3F40
:10B1D000F41011111111A13FEF39FAFE422E8640F1
:10B1E0009C7500883CE4377E0000E0FE422EE63F7E
:10B1F000763C7935EF39EABD763C7935EF39EA3D71
:10B2000079684340412E86400000E0BF422ED63F81
:10B21000FFFF8F3C0000E03F0000F03F00000840CF
:10B2200000001840FFFFEF7F0000F0BFB1A2F03F29
:10B230000000D0BF44A3D3E900235046594614F080
:10B2400025F902460B460020414913F069FF14F02E
:10B25000CDFB019014F0B0F837A3D3E900230646E4
:10B260000F4614F013F902460B465046594613F0A8
:10B2700055FF33A3D3E9002380468946304639463B
:10B2800014F004F906460F4646E702460B465046C0
:10B29000594613F043FF00222D4B14F0F7F800221B
:10B2A0002B4B13F03BFF11E752465B4613F036FF82
:10B2B00002460B460020274913F030FF6B18194651
:10B2C0000022244B13F02AFF00E70B4613F028FF5F
:10B2D000FCE61DA3D3E9002314F0D8F8002C0246A5
:10B2E0000B464FF00000AFDA1B49AEE732463B4653
:10B2F0005046594613F012FF02460B4613F010FF5A
:10B300000022144B13F00CFFE0E64FF4001343FA55
:10B3100002F452465B4613F001FFC4F17F5700264A
:10B3200007F5401702460B463046394613F0F6FE45
:10B33000A8E600BFAFF300800000E0FE422EE63F2B
:10B34000763C7935EF39EA3DFE822B654715F73FAC
:10B350000000E03F0000F03F0000E0BF0000000000
:10B36000F8B5C1F30A5304460D460E4617460BBB0B
:10B3700021F00046034633431BD0354B002214F026
:10B3800085F8344B9F4204460D4635DBC1F30A5322
:10B390000E46363B3B4440F2FE72934232DC002BB9
:10B3A00011DD26F0FF4626F4E00646EA0355204666
:10B3B0002946F8BD40F2FF729342EBD102460B469C
:10B3C00013F0AEFEF8BD13F1350F28DA4CF250330E
:10B3D0009F4222462B460ADD19A1D1E9000113F054
:10B3E0000FFE17A3D3E9002314F050F8F8BD16A1FF
:10B3F000D1E9000113F004FE13A3D3E9002314F0F4
:10B4000045F8F8BD22462B460DA1D1E9000113F005
:10B41000F7FD0BA3D3E9002314F038F8F8BD26F0AC
:10B42000FF4626F4E006363346EA03552046294611
:10B430000022094B14F02AF8F8BD00BFAFF30080DA
:10B440009C7500883CE4377E59F3F8C21F6EA50155
:10B4500000005043B03CFFFF0000903C10B5054C8D
:10B46000237833B9044B13B10448AFF300800123B0
:10B47000237010BD10850020000000009020040003
:10B4800008B5034B1BB103490348AFF3008008BD67
:10B49000000000001485002090200400154B002BB4
:10B4A00008BF134B9D46A3F5803A00218B460F46FB
:10B4B0001348144A121A09F005F90F4B002B00D05B
:10B4C00098470E4B002B00D0984700200021040025
:10B4D0000D000D48002802D00C48AFF3008013F097
:10B4E000C5FD2000290005F025F913F0ABFD00BFD4
:10B4F0000000080000000420000000000000000020
:10B5000000840020848C0020000000000000000067
:10B5100070B504460E4600F047FA88B10368DB6A4E
:10B5200005469847082C0CD0A4F10903012B14D927
:10B530003246214610230D20BDE8704004F058B873
:10B5400070BD2B6828465B6A98470228F0DC2B68A0
:10B5500028461B6A04219847EAE72B6828465B6A5D
:10B5600098470528E4DC2B6828461B6A0821984781
:10B57000DEE700BF38B52DED028B054600F014FA6A
:10B58000044640B10368DB6A9847032D03D8DFE81F
:10B5900005F02F363D06BDEC028B002038BD20465D
:10B5A0000CF0DEFC07EE900A2046F8EEE78A0CF07D
:10B5B000E7FC07EE900A2046B8EEE78A0CF0F0FCB4
:10B5C00068EE087A07EE100AE8EEA87AB8EEC77AB5
:10B5D000E7EE077AF5EE407AF1EE10FAB1EEE78A7F
:10B5E0001BD4FDEEC87ABDEC028B17EE900A38BD75
:10B5F000BDEC028B2046BDE838400CF0B1BCBDEC80
:10B60000028B2046BDE838400CF0BABCBDEC028B82
:10B610002046BDE838400CF0C3BC17EE900A12F08B
:10B62000EBFBDEE738B5044600F0BEF958B103681D
:10B63000DB6A0546984744B1012C04D12846BDE891
:10B640003840FBF73DB9002038BD2846BDE83840FA
:10B65000FBF716B910B5044600F0A6F928B1036847
:10B6600021461B6ABDE81040184710BD00487047CE
:10B6700016FCFFFF704700BF10B5034B0360044684
:10B680000CF04AFA204610BDC015040010B5054B59
:10B69000036004460CF040FA204614F07FFC20467C
:10B6A00010BD00BFC01504002DE9F041032184B096
:10B6B0000546512001F0DAFCDFF8E8C2AE4B044643
:10B6C00004F00F06C4F3031714F4807408BF634634
:10B6D000AA4831463A460BF0FFFB221C18BF012254
:10B6E00031463B4628460EF033FF0023AB60A448AA
:10B6F0000BF0F2FB4FF0FF31032001F0B7FCC0B2BA
:10B7000004F08CFA4FF0FF310446022001F0AEFC49
:10B71000C0B204F083FA002C3BD0002839D0014697
:10B72000204604F041F8064600284DD04FF0FF3186
:10B73000462001F09BFC322804464ED04BDD3828D1
:10B7400000F0B18068285FD14FF0FF31012001F097
:10B750008DFCC0B204F062FA80464C2014F027FC45
:10B76000052301934246009431462B4607460DF0CF
:10B77000E5FEAF603B6838469B6A9847A868036857
:10B78000DB6A98477F480BF0A7FB284604B0BDE86A
:10B79000F0817D480BF0A0FB4FF0FF31192001F044
:10B7A00065FCC0B204F03AFA4FF0FF3104461820AD
:10B7B00001F05CFCC0B204F031FA0146204603F00F
:10B7C000F3FF06460028B1D170480BF085FB2846F0
:10B7D00004B0BDE8F081302816D14FF0FF310120D0
:10B7E00001F044FCC0B204F019FA80464C2014F079
:10B7F000DEFBA4B20746052301934246009431467E
:10B800002B460DF051FCB4E701243268CDE9004429
:10B810000023176AAB600F220DF10F03322130466F
:10B82000B847002800F085803368CDE900440F2236
:10B830001F6A30210DF10F033046B84700284AD067
:10B840003368CDE900440D221F6A38210DF10F0342
:10B850003046B847002872D03268CDE900440DF177
:10B860000F03176A682175223046B847002845D172
:10B87000682147480BF030FB4FF0FF31204601F0C4
:10B88000F5FBC0B204F0CAF980464C2014F08FFBDF
:10B8900005246823CDE90034424631462B4607464D
:10B8A0000DF04CFE65E74FF0FF31012001F0DEFBAB
:10B8B000C0B204F0B3F98046442014F078FB0523AD
:10B8C0000746019342462B46009431460DF08EFD0B
:10B8D000304B3B604DE730212D480BF0FDFA302412
:10B8E0004FF0FF31012001F0C1FBC0B204F096F926
:10B8F00080464C2014F05BFB07467CE726480BF0A3
:10B90000EBFAAF68002F7FF435AF4FF0FF31032023
:10B9100001F0ACFBC0B204F081F930B11F480BF06C
:10B92000DBFA284604B0BDE8F0811D480BF0D4FADC
:10B930004DE7322116480BF0CFFA3224D0E73821F8
:10B9400013480BF0C9FA4FF0FF31204601F08EFB8F
:10B95000C0B204F063F98046442014F028FB0524AB
:10B9600038230746CDE9003442462B4631460DF0D8
:10B970003DFD084B3B60FCE6B4080400C40804002D
:10B98000E4080400A4090400F40804000809040001
:10B990003409040080080400200904004809040058
:10B9A00084090400BC08040038B5114C23680BB1AD
:10B9B000986838BD4FF0FF31012001F057FBC0B24D
:10B9C00004F02CF940B10C2014F0F1FA0546FFF711
:10B9D0006BFE2560A86838BD4FF0FF31032001F0F1
:10B9E00045FBC0B204F01AF90028ECD138BD00BF05
:10B9F0002C85002008B501F06BFCFBF7D5FCBDE8F9
:10BA0000084001F0C5B900BF08B501F061FCFBF7C3
:10BA10003BFDBDE8084001F0BBB900BF08B501F02F
:10BA200057FC11F029FDBDE8084001F0B1B900BF95
:10BA300008B501F04DFC12F01BF9BDE8084001F01B
:10BA4000A7B900BF08B501F043FCFBF7BDFCBDE89A
:10BA5000084001F09DB900BF08B501F039FC11F0B4
:10BA60003DFFBDE8084001F093B900BF08B501F003
:10BA70002FFCFAF745FFBDE8084001F089B900BF87
:10BA800008B501F025FC11F07FFEBDE8084001F08B
:10BA90007FB900BF70B5049E96420C4624DB154664
:10BAA0006BB9042A19D0022A02D110F0010310D078
:10BAB00001462A46204607F073FC002070BD104462
:10BAC0000D4410F8013D01F8013B8D42F9D10020F1
:10BAD00070BD02880A80184670BD10F00303E7D1DC
