:1040000000000320E5520100E152010001DC000044
:10401000E1520100E1520100E15201000000000004
:10402000000000000000000000000000E15201005C
:10403000E152010000000000E1520100E1520100E4
:10404000E1520100E1520100E1520100E1520100A0
:10405000E1520100E1520100E1520100E152010090
:10406000E1520100E1520100E1520100E152010080
:1040700045EA01004DEA010055EA01005DEA010050
:1040800065EA01006DEA010075EA01007DEA0100C0
:1040900085EA01008DEA010095EA01009DEA010030
:1040A000A5EA0100ADEA0100B5EA0100BDEA0100A0
:1040B000E1520100E1520100E1520100F9E4010086
:1040C000FDE4010001E5010005E5010009E501004D
:1040D000E1520100E1520100E1520100E152010010
:1040E000E1520100E1520100E1520100E152010000
:1040F00000000000E152010071E001007DE00100DC
:1041000081E0010085E0010089E0010095E0010007
:1041100099E001009DE00100A1E00100ADE0010097
:10412000B1E00100B5E00100B9E00100C5E0010027
:10413000C9E00100CDE00100D1E00100DDE00100B7
:10414000E1E00100E5E00100E9E00100F5E0010047
:10415000F9E00100FDE001000000000000000000A7
:10416000000000000000000000000000000000004F
:10417000000000000000000000000000000000003F
:1041800055B301005DB3010061B3010059B30100F3
:1041900000000000E1520100E1520100E152010083
:1041A000E1520100E1520100E1520100E15201003F
:1041B000E1520100E1520100E1520100E15201002F
:1041C000E1520100E1520100E1520100E15201001F
:1041D000E1520100E1520100E1520100E15201000F
:1041E000E1520100E1520100E15201004DD4010011
:1041F00055D401005DD4010065D401006DD40100E7
:1042000075D401000000000000000000E152010030
:10421000E1520100E1520100E1520100E1520100CE
:10422000E1520100E1520100E1520100E1520100BE
:10423000E1520100E1520100E1520100E1520100AE
:10424000E1520100E1520100E1520100E15201009E
:10425000E1520100E1520100E1520100E15201008E
:10426000000000007CB0EE877CB0EE87FF00FF000E
:10427000FF00FF00FF00FF00FF00FF00FF00FF0046
:10428000FF00FF00FF00FF00FF00FF00FF00FF0036
:10429000FF00FF00FF00FF00FF00FF000000000024
:1042A0002DE9F04F85B003910778A7F10903042B9E
:1042B000044607F07F0200F10100F5D9202AF3D06F
:1042C0002B2F04BF677804462D2F75D09FED427BBE
:1042D0008DED007B4FF000084FF000099FB34FF0C9
:1042E000000C25464FF0000ADFF8FCB0644619E0E8
:1042F0001AF0B2FE8046894630461AF043FE424626
:104300004B461AF0F3FC5246804689465B46DDE98F
:1043100000013CB31AF0CAFFCDE90001A44615F82C
:10432000017F7FB1A7F13006092E52465B46404619
:104330004946DDD9CCB92E2F17D115F8017F0124BC
:10434000002FEFD12C4642464B46DDE900011AF022
:1043500083FE80468946039B404649461C6005B063
:10436000BDE8F08F4FF0010CD9E72C46BCF1000FEF
:1043700029D042464B46DDE900011AF06DFE07F0F8
:10438000DF07452F80468946E5D10399681C0A223C
:104390001DF000FD1449024600201BF00DFA0246F4
:1043A0000B46404649461AF057FE8046894640462D
:1043B000494605B0BDE8F08F9FED097B67788DED2C
:1043C000007B013486E7DFF824904FF00008404678
:1043D000494605B0BDE8F08F000000000000F03F46
:1043E000000000000000F0BF000024400000F87F43
:1043F0002DE9F047002314460022804689461BF031
:104400009DF828B109F1004399462D23237001340A
:1044100000220023404649461BF086F828B130228E
:10442000002322706370BDE8F087404649461BF0C8
:10443000BFFF1BF0C1F873A3D3E900230746494629
:1044400040461BF07BF800284ED170A3D3E900232F
:10445000404649461BF090F8002845D10E2F07F141
:10446000010540F3B980A7F10E06324600206249EB
:104470001BF0A2F902460B46404649461AF016FFC9
:1044800000225E4B1AF032FC1BF0D2F9002DA7F18E
:104490000F0E4FF0010C4DDD594FDFF878810122EE
:1044A00045F6F3294FF02E0A494508BF40454FF025
:1044B00030030AD3B0EB080061EB0901494508BF9E
:1044C000404503F10103F5D2DBB2237050EA01034A
:1044D00004F101084AD1954252DD0132102A4FD031
:1044E000444677E90289DFE7002F33DB3A460020B4
:1044F00041491BF061F902460B46404649461AF015
:10450000D5FE3BA3D3E9002380468946012500263A
:10451000404649461AF0A0FD0022384B1AF0E6FB4F
:104520001BF086F9002DBC464FF0FF3E37464FF09A
:104530000006B1DC234630224FF02E0803F8022B90
:1045400084F80180FC4345D01C4403F8012BA342AE
:10455000FBD1A1E77A42002027491BF02DF9024642
:104560000B46404649461AF077FDCAE7954202F1EC
:10457000010204BF84F801A004F10208102AAFD19F
:104580006EB14246302102F8011BC2F101037344AF
:104590004344002BF7DC2EEAEE7301339844BCF160
:1045A000010F12D0BCF1000F4FF0650388F8003006
:1045B000C5BF2B2388F8013008F1010108F1020181
:1045C0006046BDE8F04710F0FBBE002388F80030DD
:1045D000BDE8F0871C465FE7C7F10E0200200649E0
:1045E0001BF0EAF83E4602460B46012790E700BF63
:1045F0000000901EC4BCD642000024400000E03FF2
:10460000502E02008DEDB5A0F7C6B03E50EFE2D6B9
:10461000E41A4B4400407A1070B54FF0FF3006F0BA
:1046200039F904466FF07F4006F034F9064620461B
:104630001AF098FC00220C4B1AF00EFD044630468E
:104640000D461AF08FFC06A3D3E900231AF02EFEC4
:1046500002460B46204629461AF048FB70BD00BFB3
:104660000000E0DFFFFF6F430000F03D00000000AE
:104670002DE9F04F1D461389AB4288BF536885B0C2
:1046800004468CBF53F82500002090468A4606F069
:1046900077FD0022904B1AF0DFFC1AF08DFFB8F87E
:1046A00008206B1C9A4288BFD8F8042006468CBFAD
:1046B00052F82300002006F063FD0022864B1AF01A
:1046C000CBFC1AF079FFB8F808300235AB4288BF4E
:1046D000D8F8043007468CBF53F82500002006F0B8
:1046E0004FFD002EC4E9006740F3E280002F40F345
:1046F000DF8071A3D3E90023002584F828501BF044
:104700007BFD00220023804689461AF017FF40B146
:104710004046494668A3D3E900231AF0E7FA8046E9
:10472000894667A3D3E90023404649461AF024FF8F
:10473000C0B165A3D3E90023404649461AF008FFFB
:1047400080B101234046494684F8283060A3D3E96C
:1047500000231AF0CBFA58A3D3E900231BF04CFD39
:104760008046894600225D4B404649461AF074FC5B
:104770001BF07AFA01F1004300221946564B1AF059
:104780006BFC1AF019FF4946054640461BF028FA13
:104790000022514B1AF060FC1AF00EFFDAF80430D8
:1047A0004F49B3F80CB0B3F80AA0A56007FB0BF3B0
:1047B00003EB010806FB0AF6019388FB05234FEA89
:1047C000124C00960E444CEA034C06EA010383FBAC
:1047D000009A06EB0C0E0EEA010ED346CA468EFB7B
:1047E00000675246CDE90267120C42EA0B42DDE94E
:1047F00002AB0CEA010C8CFB00674FEA16495646E7
:104800000A40360C46EA0B4649EA074982FB05ABEB
:104810005F46C144B0445646CDE90267039FE0605D
:10482000360C09EA010908EA010846EA074689FB4D
:1048300005AB334488FB0556CDE9025655462D0C91
:1048400045EA0B45DDE902AB0B40AC4403EAE377F4
:104850000CEA010C554623EAE37367454FEA154518
:1048600002EAE276A8BF674645EA0B45634522EABD
:10487000E272B8BF6346AE444E450EEA010EA8BFD1
:104880004E464A45B8BF4A467745A8BF7746734566
:10489000B8BF73464645A8BF4646C4E905634245CE
:1048A000B8BF424600980199206261622761E261C7
:1048B000204605B0BDE8F08FEA2E4454FB21194094
:1048C000F4D64354FB21F93F320D337F7CD912409B
:1048D000EA2E4454FB2109400000F0400000E03F74
:1048E0000000FFFF0000000008B512F039F8DFED0E
:1048F0000C7A07EE100A67EE277A17EE900A1AF084
:1049000053FB05A3D3E900231AF0D0FC1AF054FEA0
:1049100008BD00BFAFF30080EA2E4454FB211940CC
:104920000000B4430000000008B512F02DF8DFEDE0
:104930000C7A07EE100A67EE277A17EE900A1AF043
:1049400033FB05A3D3E900231AF0B0FC1AF034FEC0
:1049500008BD00BFAFF30080EA2E4454FB2119408C
:104960000000B443000000002DE9F04F046985B059
:10497000E3699B07FCD12368C3F3400BBBF1000F35
:1049800040F0AF80B0F80CA015468046BAF1000F99
:1049900023D0BAF1010F62D0BAF1020F40F0A48027
:1049A0005500E1685448C5F53B438033B3FBF5F54A
:1049B0002A0421F47F0102F47F020A43E260E268E4
:1049C0006B00A0FB03135B0822F07F4242EA036303
:1049D0005846E36005B0BDE8F08FE2684BF6803BD7
:1049E00005EB850022F0FF03ABEB400001931AF0CA
:1049F000B9FA0646B8F80E000F461AF0C3FA3CA3FF
:104A0000D3E900231AF028FB80460BFB05F089460A
:104A10001AF0A8FA02460B46404649461AF01CFB1B
:104A200002460B46304639461AF05EF906466800E3
:104A30000F461AF097FA02460B46304639461AF0EE
:104A400035FC1AF0E1FD019BC0B21843E060E36859
:104A5000504623F47F43E36005B0BDE8F08FE26881
:104A60004BF6803A05EB850022F0FF03AAEB4000ED
:104A700001931AF077FACDE90201B8F80E001AF0A6
:104A800081FA1BA3D3E900231AF0E6FA06460AFBD3
:104A900005F00F461AF066FA02460B4630463946D4
:104AA0001AF0DAFA02460B46DDE902011AF01CF9A7
:104AB000064668000F461AF055FA02460B46304685
:104AC00039461AF0F3FB1AF09FFD019BC0B2184360
:104AD000E060E368584623F47F43E36005B0BDE837
:104AE000F08F6FF0100075E76FF00C0072E700BFF9
:104AF00095D626E80B2E113EABAAAAAA000000000C
:104B00004F4A21F0004393422DE970430D4604467D
:104B10004DDC4C4A93420E460FDC45A3D3E90023FB
:104B20001AF0E4F80022484B1AF026FD002854D071
:104B30002B4620461946BDE87083444A934240DC28
:104B4000B3F1804F49DD1BF047F822468046894685
:104B50002B46204629461AF07FFA00223A4B1AF0DB
:104B6000C5F81CF059F842464B461AF0BFF8024609
:104B70000B46002034491AF099FB424604460D4684
:104B80004B46404649461AF0B1F80B4602462946C4
:104B900020461AF0ABF801F0C7FE04460B46002E83
:104BA0000BDC03F1004320461946BDE870830B4639
:104BB00002461AF09BF804460B4620461946BDE80B
:104BC00070831BF009F801F0AFFE1BA3D3E90023AB
:104BD0001AF08CF804460B46E1E722462B462046A5
:104BE00029461AF039FA80468946204629461AF0A5
:104BF000F3FF00220446144B0D46404649461AF086
:104C000075F81CF009F800220F4B1AF06FF80246F5
:104C10000B46404649461AF049FB22462B461AF0FD
:104C200065F800F0B1FA04460B46B8E7AFF3008030
:104C30009C7500883CE4377EEF39FAFE422EE63F51
:104C4000FFFFEF7FFFFF2F3E0000F03F0000B0416D
:104C50002DE9F84FB84B21F000469E420D468A469A
:104C600004460EDDB54B9E4200F3B08000F0AB80F1
:104C7000B34BB449B448BAF1000FC8BF1946BDE8F8
:104C8000F88FB24B9E4200F3B980A3F1DE739E42CF
:104C900040F3A4804FF0FF3B22462B462046294696
:104CA0001AF0DAF902460B46804689461AF0D4F922
:104CB00089A3D3E9002306460F461AF0CDF988A34D
:104CC000D3E900231AF012F832463B461AF0C4F931
:104CD00085A3D3E900231AF009F832463B461AF0BF
:104CE000BBF983A3D3E900231AF000F832463B4610
:104CF0001AF0B2F980A3D3E9002319F0F7FF324686
:104D00003B461AF0A9F97EA3D3E9002319F0EEFF80
:104D100042464B461AF0A0F97BA3D3E90023804614
:104D20008946304639461AF097F979A3D3E900232A
:104D300019F0DAFF32463B461AF08EF976A3D3E932
:104D4000002319F0D1FF32463B461AF085F974A3CF
:104D5000D3E9002319F0C8FF32463B461AF07CF92C
:104D600071A3D3E9002319F0BFFF32463B461AF086
:104D700073F902460B464046494619F0B7FF2246F2
:104D80002B461AF069F9BBF1FF3F02460B465CD097
:104D90006F4B704E4FEACB0B5B44D3E9002319F005
:104DA000A3FF22462B4619F09FFFB34402460B4651
:104DB000DBE9000119F098FFBAF1000F0CDA01F1FC
:104DC0000041BDE8F88F00283FF452AF224620464C
:104DD0002B46294619F08AFFBDE8F88F54A3D3E982
:104DE000002319F083FF00225B4B1AF0C5FB00285B
:104DF0003FF450AF20462946BDE8F88F1AF0ECFE8C
:104E0000564B9E4204460D4625DCA3F550239E4298
:104E10004ADC02460B4619F069FF00224E4B19F09E
:104E200063FF002206460F464FF080432046294686
:104E300019F05CFF02460B46304639461AF036FA46
:104E40004FF0000B04460D4626E72046294619F090
:104E50004BFFBDE8F88F424B9E421ADC0022414BCB
:104E600019F042FF002206460F463E4B20462946D7
:104E70001AF0F2F80022384B19F038FF02460B46C0
:104E8000304639461AF012FA4FF0020B04460D462E
:104E900002E702460B46002033491AF007FA4FF0AA
:104EA000030B04460D46F7E600222B4B19F01CFFBE
:104EB000002206460F46284B2046294619F016FFC9
:104EC00002460B46304639461AF0F0F94FF0010B16
:104ED00004460D46E0E600BF11DA22E33AAD903F0A
:104EE000EB0D76244B7BA93F513DD0A0660DB13F21
:104EF0006E204CC5CD45B73FFF8300922449C23F89
:104F00000D5555555555D53F2F6C6A2C44B4A2BF4D
:104F10009AFDDE522DDEAD3F6D9A74AFF2B0B33F15
:104F2000711623FEC671BC3FC4EB98999999C93F8D
:104F30009C7500883CE4377EFFFF0F440000F07F43
:104F4000FB21F93FFB21F9BF182D4454FFFFDB3F44
:104F5000782E0200582E02000000F03FFFFFF23FC3
:104F6000FF7F03400000F83F0000F0BF000000009A
:104F7000C1F30A522DE9F843A2F2FF36132E0B4675
:104F80000D4604468846074621DC002E4CDB3A4A93
:104F900042FA06F901EA090202431DD034A3D3E91B
:104FA000002319F0A3FE002200231AF0E5FA48B10D
:104FB000002D04DD4FF4801343FA06F6B04428EACE
:104FC000090500273C4629462046BDE8F883332ED4
:104FD00006DDB6F5806F3AD019462046BDE8F88365
:104FE000A2F213424FF0FF3929FA02F919EA000F31
:104FF000F2D01FA3D3E9002319F078FE002200238A
:105000001AF0BAFA0028DDD0002D09DD142E25D0C3
:105010000123C6F1340603FA06F6371928BF98446F
:1050200027EA09074546CDE711A3D3E9002319F084
:105030005DFE002200231AF09FFA0028C2D0002D46
:105040000FDB55EA040707D000270C4DBAE70246EC
:1050500019F04CFE0446C0E73D46B3E705F10108F0
:10506000DEE700274FF00045ACE700BFAFF300805C
:105070009C7500883CE4377EFFFF0F000000F03F86
:10508000C1F30A522DE9F843A2F2FF36132E0B4664
:105090000D460446884607461DDC002E3DDB384A97
:1050A00042FA06F901EA0902024319D032A3D3E910
:1050B000002319F01BFE002200231AF05DFAD0B382
:1050C000002D04DA4FF4801343FA06F6B04428EAC0
:1050D000090500272FE0332E06DDB6F5806F2FD0AF
:1050E00019462046BDE8F883A2F213424FF0FF397B
:1050F00029FA02F919EA000FF2D01FA3D3E900231D
:1051000019F0F4FD002200231AF036FA98B1002DB0
:1051100024DB27EA090745460DE017A3D3E900235E
:1051200019F0E4FD002200231AF026FA18B1002D30
:105130000BDB00273D463C4629462046BDE8F88368
:10514000024619F0D3FD0446CBE725F000430D4A93
:105150001F43002F18BF15460027ECE7142E08D078
:105160000123C6F1340603FA06F6371928BF98441E
:10517000CFE705F10108CCE79C7500883CE4377E59
:10518000FFFF0F000000F0BF2DE9F04FD84B994210
:1051900087B00E46074643DDD64B99428A4600F358
:1051A000F680D54B994240F330810B15A3F2FF3BBB
:1051B00000220023CDE902230446D04BCAF3130A90
:1051C0009A454AF07F5500F3158145F44015204675
:1051D00029460022CA4B19F087FD002204460D46DD
:1051E000C84B19F039FF22462B4619F035FF80468F
:1051F000894627462E46CDE90089BAF1000F3AD1FB
:1052000000220023204629461AF08EF9002800F0DB
:105210001D81BBF1000F40F0858100200146BAE0FE
:10522000B94B21F000449C420A460FDD0022B74BE7
:105230001AF07AF9002800F0B18000220023002043
:10524000B3491AF033F807B0BDE8F08FB14B9C4278
:1052500040F3B180B04B1A449A4240F2D68000220B
:10526000A84B19F0F9FE3A46334619F0F5FECDE9A0
:1052700000014FF0000B00224FF0804338463146CA
:1052800019F034FD02460B46384631461AF00EF846
:1052900002460B468046894619F0DEFE80A3D3E91C
:1052A000002304460D4619F0D7FE7FA3D3E900235F
:1052B00019F01CFD22462B4619F0CEFE7CA3D3E943
:1052C000002319F013FD22462B4619F0C5FE7AA3E0
:1052D000D3E9002319F00AFD22462B4619F0BCFE43
:1052E00077A3D3E9002319F001FD22462B4619F0DC
:1052F000B3FE75A3D3E9002319F0F8FC22462B4630
:1053000019F0AAFE72A3D3E9002319F0EFFC22469C
:105310002B4619F0A1FEDDE9004522462B4619F087
:10532000E5FC42464B4619F097FECDE90401BBF17E
:10533000000F00F0A880584619F024FE66A3D3E9B8
:1053400000238046894619F087FE65A3D3E9002330
:1053500004460D464046494619F07EFEDDE902232B
:1053600019F0C4FCDDE9042319F0C0FC02460B4629
:10537000DDE9000119F0B8FC3A46334619F0B4FCF7
:1053800002460B462046294619F0AEFC03E00246D1
:105390000B4619F0ABFC07B0BDE8F08F3A46334638
:1053A0003846314619F0A0FC02460B4619F07EFF44
:1053B00007B0BDE8F08F0022584B19F097FC00228F
:1053C00000231AF0D9F810B1554B9C4262DD3A46E1
:1053D00033463846314619F03FFE0022494B19F05A
:1053E0003BFE02460B463846314619F07DFC07B0BD
:1053F000BDE8F08F45F40015CAF5801A204629460D
:105400004FEAAA0A0BF1010BE3E63D4B3846314661
:10541000002219F06BFC0B15A3F2FF3BBBF1000F50
:1054200004460D468A4640F3C3803A46334619F097
:105430005BFC02460B460020314919F055FC224620
:105440002B4619F033FFCDE90201B6E626A3D3E9D6
:1054500000232046294619F0FFFD02460B46002096
:10546000274919F041FC42464B4619F0F5FD064626
:105470000F46BBF1000F73D102460B46204629466A
:1054800019F032FC87E702460B462046294619F000
:105490002BFCA6E7384631467DE700BFAFF300801E
:1054A00044523EDF12F1C23F9FC678D0099AC33FF3
:1054B000DE03CB966446C73FAF788E1DC571CC3FE7
:1054C000599322942449D23F04FA97999999D93F44
:1054D000935555555555E53F0000E0FE422EE63FF9
:1054E000763C7935EF39EA3D555555555555E53FEB
:1054F0007982DA3FFFFFEF7FFFFF3F439DA0060069
:105500000000F03F0000E03FFFFFEF3F0000F0BF72
:10551000000050C3FFFF1F3E3C412D4000005043A0
:10552000FFFF8F3C584619F02DFD27A3D3E9002338
:1055300006460F4619F090FDDDE9022319F0D6FB6F
:1055400023A3D3E9002304460D463046394619F01B
:1055500083FD02460B462046294619F0C7FB1AE791
:10556000584619F00FFD1AA3D3E9002382468B4653
:1055700019F072FD14A3D3E90023804689465046F2
:10558000594619F069FDDDE9022319F0AFFB024627
:105590000B463046394619F0A7FB22462B4619F038
:1055A000A3FB02460B464046494619F09DFBF2E636
:1055B0000022094B19F098FB02460B46384631464B
:1055C00019F092FB3BE700BF763C7935EF39EA3DB5
:1055D0000000E0FE422EE63F0000F03F0000000029
:1055E00008B51AF069FE04A3D3E9002319F05EFEA2
:1055F00008BD00BFAFF30080EF39FAFE422EE63F50
:105600002DE9F043DFF8B4808BB004460D4600F07E
:1056100057FF98F90030013306460F462CD022463A
:105620002B462046294619F0B1FF814620BB204673
:1056300029461AF0D1FA1CA3D3E9002319F09CFFE4
:10564000D0B11B4A98F90030CDF820900321CDE964
:105650000445CDE90245CDE9001293B1154900207A
:10566000022BCDE9060111D11CF050FB222303606F
:10567000089B9BB9DDE90667304639460BB0BDE8AB
:10568000F0830D4B4FF06042CDE9062368461CF0D5
:10569000EDF90028E8D0089B002BEBD01CF036FB7E
:1056A000089B0360E6E700BF7DF8B98FCE338640E4
:1056B000504602000000F07FFFFFEF471E0200206F
:1056C0002DE9F043DFF8E4808BB004460D4600F08E
:1056D000A3FF98F90030013306460F4633D0204629
:1056E00029461CF0BDF970B329A3D3E90023204655
:1056F000294619F041FF814650BB27A3D3E9002377
:105700002046294619F01AFFE8B198F90030244ADA
:10571000CDF82090042600200021022BCDE904457D
:10572000CDE90245CDE90062CDE9060129D0684600
:105730001CF09CF928B3089B1BB11CF0E7FA089BEE
:105740000360DDE90667304639460BB0BDE8F083FB
:10575000134A98F90030019203210022CDE9044553
:10576000CDE90245009108922BB90E4B4FF06042F3
:10577000CDE90623DBE70C490020022BCDE9060129
:10578000D5D11CF0C3FA22230360D4E7AFF3008025
:10579000EF39FAFE422E864051302DD5104987C090
:1057A00058460200FFFFEF470000F07F1E02002076
:1057B0002DE9F84FC44E21F00043B3420C46054694
:1057C0000DDD03F1404303F58013034340F0B9803E
:1057D000002940F3408100200021BDE8F88FBB4E36
:1057E000B34208DCBA4A934200F3B5809CA1D1E9E8
:1057F0000001BDE8F88F0029C0F2708102460B4617
:105800000020B44919F070FA0022B34B19F024FCBF
:1058100004460D461BF000FA93A3D3E90023894602
:1058200080462946204619F017FC91A3D3E90023AE
:1058300019F05CFA22462B4619F00EFC8EA3D3E930
:10584000002319F051FA22462B4619F005FC8CA3CF
:10585000D3E9002319F04AFA22462B4619F0FCFB43
:1058600089A3D3E9002319F03FFA22462B4619F009
:10587000F3FB87A3D3E9002319F038FA22462B461D
:1058800019F0EAFB84A3D3E9002382468B46204625
:10589000294619F0E1FB82A3D3E9002319F024FA89
:1058A00022462B4619F0D8FB7FA3D3E9002319F039
:1058B0001DFA22462B4619F0CFFB7DA3D3E9002326
:1058C00019F012FA22462B4619F0C6FB0022814B32
:1058D00019F00CFA02460B465046594619F0E6FC00
:1058E00042464B4619F0B8FB002682468B463246AC
:1058F0004B463046494619F0AFFB02460B46204660
:10590000294619F0F1F9324604460D464B46404609
:10591000494619F0EBF902460B462046294619F094
:10592000C5FC02460B465046594619F0DFF932468F
:105930004B4619F0DBF902460B4619F0D7F9BDE8E2
:10594000F88F02460B4619F0CFF902460B4619F0C4
:10595000ADFCBDE8F88F02460B4619F07DFB42A373
:10596000D3E9002306460F4619F076FB40A3D3E99E
:10597000002319F0BBF932463B4619F06DFB3EA3FC
:10598000D3E9002319F0B0F932463B4619F064FB25
:105990003BA3D3E9002319F0A9F932463B4619F09D
:1059A0005BFB39A3D3E9002319F09EF932463B464D
:1059B00019F052FB36A3D3E9002319F097F93246C8
:1059C0003B4619F049FB34A3D3E9002380468946BE
:1059D0003046394619F040FB31A3D3E9002319F0D2
:1059E00083F932463B4619F037FB2FA3D3E9002356
:1059F00019F07CF932463B4619F02EFB2CA3D3E973
:105A0000002319F071F932463B4619F025FB0022BC
:105A1000304B19F06BF902460B464046494619F0E7
:105A200045FC2A46234619F017FB02460B4622A1E5
:105A3000D1E9000119F058F902460B4628462146E3
:105A400019F052F902460B4605A1D1E9000119F0FF
:105A50004BF9BDE8F88F1AA1D1E9000179E700BF41
:105A6000182D4454FB21F93F09F7FD0DE13D023F9C
:105A700088B20175E0EF493F3B8F68B52882A43FAB
:105A80005544880E55C1C93F7D6FEB0312D6D43FF4
:105A9000555555555555C53F82922EB1C5B8B33FA2
:105AA00059018D1B6C06E63FC88A599CE52A0040C7
:105AB0004B2D8A1C273A0340075C143326A6913CE1
:105AC000182D4454FB210940FFFFEF3FFFFFDF3F4C
:105AD0000000603C0000F03F0000E03F00225C4B13
:105AE00019F004F900225B4B19F0B6FA40A3D3E990
:105AF000002304460D4619F0AFFA3FA3D3E9002373
:105B000019F0F4F822462B4619F0A6FA3CA3D3E983
:105B1000002319F0E9F822462B4619F09DFA3AA322
:105B2000D3E9002319F0E2F822462B4619F094FA43
:105B300037A3D3E9002319F0D7F822462B4619F0F2
:105B40008BFA35A3D3E9002319F0D0F822462B466F
:105B500019F082FA80468946204629461BF05CF8F7
:105B60002FA3D3E9002306460F462046294619F005
:105B700073FA2DA3D3E9002319F0B6F822462B4679
:105B800019F06AFA2AA3D3E9002319F0AFF82246E4
:105B90002B4619F061FA28A3D3E9002319F0A4F8E1
:105BA00022462B4619F058FA0022294B19F09EF88C
:105BB00002460B464046494619F078FB32463B46C2
:105BC00019F04AFA1EA3D3E9002319F08DF83246E2
:105BD0003B4619F08BF802460B4619F087F802464F
:105BE0000B4619A1D1E9000119F07EF8B1E600BF1A
:105BF00009F7FD0DE13D023F88B20175E0EF493F35
:105C00003B8F68B52882A43F5544880E55C1C93FD3
:105C10007D6FEB0312D6D43F555555555555C53FAD
:105C200082922EB1C5B8B33F59018D1B6C06E63F79
:105C3000C88A599CE52A00404B2D8A1C273A03400C
:105C4000075C143326A6913C182D4454FB210940CF
:105C50000000F03F0000E03F414A91422DE9F84347
:105C60000C46054637DD3F4A914209DD02F1795283
:105C700091423EDD02460B4619F038F8BDE8F88344
:105C800001F1404202F5801202432ED0B1F1804F63
:105C900037DC0022344B19F027F802460B46044645
:105CA0000D4619F023F8224606460F462B4620469D
:105CB000294619F0D1F902460B463046394619F00B
:105CC00015F81AF0A9FF22462B4619F00FF8BDE887
:105CD000F843FFF759BA02460B4619F005F8024699
:105CE0000B4619F0E3FABDE8F88300200021BDE877
:105CF000F88300F019FE18A3D3E9002318F0F6FF8B
:105D0000F1E702460B4619F0A7F90022164B18F0EE
:105D1000EBFF1AF081FF2A46804689462346284633
:105D2000214618F0E3FF2A4606460F462346404622
:105D3000494618F0DBFF02460B4600200A4919F0DD
:105D4000B5FA0B4602463946304618F0CDFFBDE89D
:105D5000F84300F0E9BD00BFEF39FAFE422EE63FFE
:105D6000FFFFEF3FFFFFAF410000F03F00000000EA
:105D70002DE9F04FB24B21F000479F4287B00D460E
:105D8000044615DD07F1404707F5801703463B43FE
:105D900026D002460B4618F0A7FF0B46024619F024
:105DA00085FA04460B462046194607B0BDE8F08F39
:105DB000A44B9F420E462EDCB7F1795F80F24A81F8
:105DC00083A3D3E9002318F091FF00229E4B19F022
:105DD000D3FB00B32B462046194607B0BDE8F08F31
:105DE0007DA3D3E9002319F037F97DA3D3E900237C
:105DF00006460F462046294619F02EF902460B4664
:105E00003046394618F072FF04460B4620461946C4
:105E100007B0BDE8F08F2046294619F0DDFE0246A6
:105E20000B460020884918F05FFF0022874B19F0CD
:105E300013F96DA3D3E9002304460D4619F00CF9BC
:105E40006BA3D3E9002318F051FF22462B4619F02B
:105E500003F969A3D3E9002318F046FF22462B4635
:105E600019F0FAF866A3D3E9002318F03FFF2246A1
:105E70002B4619F0F1F864A3D3E9002318F034FF9E
:105E800022462B4619F0E8F861A3D3E9002318F065
:105E90002DFF22462B4619F0DFF85FA3D3E900233C
:105EA000CDE900012046294619F0D6F85CA3D3E9D4
:105EB000002318F019FF22462B4619F0CDF85AA3FB
:105EC000D3E9002318F012FF22462B4619F0C4F83C
:105ED00057A3D3E9002318F007FF22462B4619F0F9
:105EE000BBF8594B002218F001FF82468B46204632
:105EF0002946CDE902AB1AF08FFE554B9F428046F2
:105F0000894600F31C8102460B4618F0EFFEDDE9DE
:105F10000223CDE90401DDE9000119F0C7F90246C9
:105F20000B46DDE9040119F097F84FF0000ACDE9BE
:105F3000000152464B465046494619F08DF802463C
:105F40000B462046294618F0CFFE524604460D4621
:105F50004B464046494618F0C9FE02460B462046CD
:105F6000294619F0A3F902460B4618F0BFFE024677
:105F70000B461BA1D1E9000118F0B6FE02460B4604
:105F8000DDE9000118F0B0FE524604460D464B46CE
:105F90005046494618F0AAFE02460B4626A1D1E912
:105FA000000118F0A1FE02460B462046294618F0D3
:105FB0009BFE0B46024620A1D1E9000118F094FE99
:105FC00004460B46002E3FF7EEAE03F10043EAE62F
:105FD0009C7500883CE4377E182D4454FB21F93F22
:105FE000075C143326A6913C09F7FD0DE13D023F05
:105FF00088B20175E0EF493F3B8F68B52882A43F26
:106000005544880E55C1C93F7D6FEB0312D6D43F6E
:10601000555555555555C53F82922EB1C5B8B33F1C
:1060200059018D1B6C06E63FC88A599CE52A004041
:106030004B2D8A1C273A0340182D4454FB21E93F7D
:10604000FFFFEF3FFFFFDF3F0000F03F0000E03FBA
:106050003233EF3F02460B4618F0FEFF48A3D3E968
:10606000002306460F4618F0F7FF47A3D3E90023A5
:1060700018F03CFE32463B4618F0EEFF44A3D3E94D
:10608000002318F031FE32463B4618F0E5FF42A3EC
:10609000D3E9002318F02AFE32463B4618F0DCFF15
:1060A0003FA3D3E9002318F01FFE32463B4618F009
:1060B000D3FF3DA3D3E9002318F018FE32463B4638
:1060C00018F0CAFF3AA3D3E9002380468946304638
:1060D000394618F0C1FF38A3D3E9002318F004FEB5
:1060E00032463B4618F0B8FF35A3D3E9002318F039
:1060F000FDFD32463B4618F0AFFF33A3D3E9002342
:1061000018F0F2FD32463B4618F0A6FF0022344B51
:1061100018F0ECFD02460B464046494619F0C6F819
:1061200022462B4618F098FF22462B4618F0DEFD3B
:1061300004460B462046194607B0BDE8F08F52468C
:106140005B46DDE9000119F0B1F842464B4618F014
:1061500083FF42464B4618F0C9FD02460B4618F035
:10616000C5FD1BA3D3E9002318F0BEFD0B46024674
:1061700019A1D1E9000118F0B7FD04460B4621E74B
:1061800009F7FD0DE13D023F88B20175E0EF493F9F
:106190003B8F68B52882A43F5544880E55C1C93F3E
:1061A0007D6FEB0312D6D43F555555555555C53F18
:1061B00082922EB1C5B8B33F59018D1B6C06E63FE4
:1061C000C88A599CE52A00404B2D8A1C273A034077
:1061D000075C143326A6913C182D4454FB21F93F4B
:1061E0000000F03F000000002DE9F84F5442144336
:1061F00023F00048684E48EAD474B44284460F46FF
:106200001FD84442044321F0004A4AEAD474B442FD
:106210008B4616D803F1404404F5801414439E467F
:106220003DD09C1704F0020444EAD1745AEA0001FC
:106230000FD1022C50D0032C3CD145A1D1E9000153
:1062400005E01046194662463B4618F04FFDBDE892
:10625000F88F58EA020126D0B0452DD0B24522D0A1
:10626000AAEB08084FEA2858B8F13C0F38DC002B9D
:106270003ADA18F13C0F37DA00200021012C49D01E
:10628000022C3AD0002CE2D033A3D3E9002318F03B
:106290002BFD33A3D3E9002318F026FDD7E7BDE893
:1062A000F84FFEF7D5BCBBF1000F11DB2EA1D1E9F1
:1062B0000001CCE73946CAE7C2452FD0022C0BD0EB
:1062C000032CBAD0012C4FF0000031D00021BEE7E2
:1062D00027A1D1E90001BAE721A1D1E90001B6E780
:1062E00021A1D1E90001C9E76046394618F0DEFF77
:1062F00019F072FCFEF7ACFCC0E717A3D3E900234A
:1063000018F0F2FC02460B4615A1D1E9000118F085
:10631000EBFC9CE701F10043194698E7022C12D0F0
:10632000032C0CD0012C06D013A1D1E900018EE77B
:106330004FF000418BE712A1D1E9000187E712A1DC
:10634000D1E9000183E712A1D1E900017FE700BF95
:10635000182D4454FB2109C0075C143326A6A13C28
:10636000182D4454FB210940182D4454FB21F93FBA
:10637000182D4454FB21F9BF182D4454FB21E93F4B
:10638000182D4454FB21E9BFD221337F7CD902C0B0
:10639000D221337F7CD902400000F07F0000000052
:1063A00043422DE9F047034321F00048404A48EAC0
:1063B000D37393420F462ED890454AD03D4B984513
:1063C0008A4636DD3C4B9845044645464CDD024640
:1063D0004346414618F08AFC224606460F4643468D
:1063E0000020334918F080FC02460B4630463946FF
:1063F00018F05CFFFEF7C8FE304B002218F02CFEB0
:10640000BAF1000F04460B460FDA01F100432046B3
:106410001946BDE8F08702460B4618F065FC0B46AE
:10642000024618F043FF04460B4620461946BDE8D5
:10643000F0871DA3D3E90023044618F057FC00227F
:10644000002319F099F870B13B4620461946BDE883
:10645000F0870022002318F029FF04460B4620464F
:106460001946BDE8F087454622462B462046294678
:1064700018F03CFC22462B4606460F4618F0ECFD71
:106480002246804689462B460020094918F02CFCFC
:1064900002460B464046494618F008FF32463B4646
:1064A00018F024FCA6E700BF9C7500883CE4377E0A
:1064B0000000F03FFFFF2F3EFFFFDF3F0000E03F07
:1064C0004D4A2DE9F84321F0004494420B4606461C
:1064D0001BDC4A4A944224DD494A944256DD494A2B
:1064E000944248DD484A944271DD013294426BD0B7
:1064F0003FA3D3E900231046194618F0ADFD064628
:106500000F4630463946BDE8F88304460D4622461C
:106510002B4618F0A1FD06460F4630463946BDE829
:10652000F88319F059FB02F06FFC0022374B8046CC
:10653000894618F0DBFBB4F1725F06460F46ECDBD0
:1065400042464B464046494618F086FD32463B4699
:1065500004460D463046394618F0C8FB02460B4645
:106560002046294618F0A2FE0022284B18F0BEFB58
:1065700006460F46D1E719F02FFB00F04DF8002238
:10658000234B18F069FD06460F46C6E719F024FBB9
:1065900000F042F800221E4B06460F4618F05CFD44
:1065A000324604460D463B460020194918F07EFE4F
:1065B00002460B462046294618F098FB06460F4631
:1065C00030463946BDE8F883124A904290D83046AA
:1065D000194619F001FB00220D4B18F03DFD00F0AB
:1065E0001BF800220A4B04460D4618F035FD8EE7D5
:1065F0009C7500883CE4377EFFFFEF7F422ED63F3C
:10660000FFFF3540412E8640CD3386400000F03FED
:106610000000E03F7DF8B98F2DE9F047B84F21F039
:106620000042BA4284B00C464FEAD176054612D9F0
:10663000B44FBA4240F28E80C1F3130303430246C3
:1066400040F0F780002E00F0818000252946284682
:1066500004B0BDE8F087AC4B9A4200F2B880AB4B77
:106660009A4240F2D3804FF0000A2A462346284639
:10667000214618F0F1FC8CA3D3E9002306460F460F
:1066800018F0EAFC8AA3D3E9002318F02DFB324668
:106690003B4618F0E1FC88A3D3E9002318F026FB61
:1066A00032463B4618F0D8FC85A3D3E9002318F006
:1066B0001BFB32463B4618F0CFFC83A3D3E90023F3
:1066C00018F014FB32463B4618F0C6FC02460B4657
:1066D0002846214618F008FB02460B4606460F46A0
:1066E0002846214618F0B8FC80468946BAF1000FCA
:1066F00000F0B38032463B4600204FF0804118F056
:10670000F3FA02460B464046494618F0CFFD0246D2
:106710000B46DDE9020118F0E7FADDE9002318F085
:10672000E3FA0B4602467A49002018F0DDFA6FF4CE
:106730007F739A4580F2AD800AF57A7A01EB0A51AF
:1067400000224FF0B87318F087FC0546284604B0C5
:10675000BDE8F0875EA3D3E9002318F00DFF002801
:106760006FD1284621465CA3D3E9002318F0E6FE4A
:1067700000287FF46AAF674B284603EBC606214624
:1067800057A3D3E9002318F067FCD6E9002318F0DB
:10679000ADFA18F011FF824618F0F4FB52A3D3E9CA
:1067A000002306460F4618F057FC02460B462846C3
:1067B000214618F099FA4EA3D3E90023CDE9000150
:1067C0003046394618F048FCCDE9020115E0524B3D
:1067D0009A42D0D8514BF4002344D3E9002318F057
:1067E00083FA4F4B2344D3E90034CDE90001CDE9CE
:1067F0000234C6F1010AAAEB060ADDE90223DDE94B
:10680000000118F071FA05460C462EE73AA3D3E9C9
:10681000002318F06BFA00223D4B18F0ADFE002863
:106820003ED0284621460022394B18F05FFA054633
:106830008CE70B4618F05AFA0546284604B0BDE826
:10684000F0872DA3D3E900231046194618F004FC65
:106850000546284604B0BDE8F08730463946002298
:106860004FF0804318F040FA02460B464046494636
:1068700018F01CFD2A46234618F036FA02460B464D
:106880000020234918F030FA0546284604B0BDE838
:10689000F087054601EB0A51284604B0BDE8F087B1
:1068A0008246E2E6AFF30080D0A4BE726937663E4E
:1068B000F16BD2C541BDBB3E2CDE25AF6A56113F00
:1068C00093BDBE166CC1663F3E5555555555C53FE7
:1068D000EF39FAFE422E864051302DD5104987C03F
:1068E000FE822B654715F73F0000E0FE422EE63F93
:1068F000763C7935EF39EA3D9C7500883CE4377E7B
:10690000412E8640FFFFEF7F422ED63FFFFF2F3EF6
:106910000000F03F982E0200B1A2F03FA82E020026
:10692000B82E0200000000002DE9F04FB1F5801FE5
:1069300085B006460F460B4680F2D08021F000421B
:10694000024300F0DA800029C0F2E9800022D64B31
:1069500018F082FBD54A0B46934206460F466FF06D
:10696000350E00F3C180C3F3130505F5152C0CF6A5
:10697000647C0CF4801C8CF07F5282F440121C1555
:1069800042EA0507A4F2FF3474440022C84B3046A3
:10699000394604EB1C5418F0A7F9AB1CC3F31303DE
:1069A000022B82468B464FF0000240F3AF804FF03F
:1069B000804318F09BF902460B465046594618F0A2
:1069C00075FC064620460F4618F0DCFA3246CDE943
:1069D00002013B4630463946CDE9006718F03CFBE2
:1069E00002460B468046894618F036FB9AA3D3E947
:1069F000002306460F4618F02FFB99A3D3E9002386
:106A000018F074F932463B4618F026FB96A3D3E9FA
:106A1000002318F06BF932463B4618F01DFB94A397
:106A2000D3E9002318F062F942464B4618F014FBF4
:106A300091A3D3E90023804689463046394618F0B1
:106A40000BFB8FA3D3E9002318F050F932463B46E5
:106A500018F002FB8CA3D3E9002318F047F9324663
:106A60003B4618F0F9FA0B4602464946404618F0F4
:106A70003DF9A5F5C223C5F5D725A3F27A435135D3
:106A80001D43002D06460F4640F387800022894BA8
:106A90005046594618F0E0FA52465B4618F0DCFAC8
:106AA00002460B46804689463046394618F01EF9A4
:106AB000DDE9002318F0D0FA06460F46002C40F01E
:106AC000818002460B464046494618F00DF90246C1
:106AD0000B465046594618F007F90BE0734A9342AB
:106AE0004FF0000E7FF73FAF32463B463046394607
:106AF00018F0FCF805B0BDE8F08F0022002300205C
:106B00006D4918F0D3FB05B0BDE8F08F002318F0F5
:106B10000BFD60B1002C7CD100200021EAE7024689
:106B200018F0E2F80022002318F0C0FBE2E758A3B7
:106B3000D3E900235046594618F08EFA02460B4618
:106B400000205C4918F0D0F8524606460F465B46D6
:106B50005046594618F080FA02460B4630463946F0
:106B600018F07AFA06460F462CB3204618F00AFAB7
:106B700049A3D3E900238046894618F06DFA48A35B
:106B8000D3E9002304460D464046494618F064FA0E
:106B900002460B46304639462CE002460B4650462C
:106BA000594618F0A1F8DDE9002318F055FA064619
:106BB0000F46002C47D132463B465046594618F006
:106BC00093F897E734A3D3E90023DDE9020118F035
:106BD00043FA33A3D3E9002304460D46DDE902015D
:106BE00018F03AFA32463B4618F080F802460B4657
:106BF0004046494618F078F852465B4618F074F85B
:106C000002460B462046294618F06EF805B0BDE84E
:106C1000F08F204618F0B6F91FA3D3E900230646EB
:106C20000F4618F019FA1EA3D3E9002304460D46B7
:106C30003046394618F010FA02460B4620462946DF
:106C400018F054F856E7DDE9028913A3D3E90023CD
:106C50004046494691E700BF44523EDF12F1C23F31
:106C6000DE03CB966446C73F599322942449D23F12
:106C7000935555555555E53F9FC678D0099AC33F62
:106C8000AF788E1DC571CC3F04FA97999999D93F79
:106C9000555555555555D53F0000E0FE422EE63F6F
:106CA000763C7935EF39EA3D00005043FFFFEF7F36
:106CB0000000F03F0000E03F000050C30000000073
:106CC000B1F5801F2DE9F84304460D460B4619DA4D
:106CD00021F00042024359D000295FDB00223A4BE9
:106CE00018F0BAF9394A0B4693420D4604466FF044
:106CF00035010CDD22462B462046294617F0F6FFCB
:106D0000BDE8F883314A93424FF00001F2DC1815D8
:106D1000A0F2FF3008444FEAD0794844C3F3130887
:106D200018F030F9C9F57F73033348EA0355064676
:106D30000F4620462946FFF7F7FD1DA3D3E90023A0
:106D4000804689463046394618F086F91AA3D3E9B9
:106D5000002304460D464046494618F07DF9024698
:106D60000B462046294617F0C1FF15A3D3E900239F
:106D700004460D463046394618F06EF902460B4679
:106D80002046294617F0B2FFBDE8F8830022002311
:106D900000200F4918F08AFABDE8F883024617F080
:106DA000A3FF0022002318F081FAA9E7AFF30080C7
:106DB000362BF111F3FE593D0EE526157BCBDB3F5B
:106DC00000609F501344D33F00005043FFFFEF7F0C
:106DD000000050C3000000002DE9F04F23F00045F3
:106DE00055EA020493B00DD0794E21F00044B4422C
:106DF0000F4682460FDD04F1404404F5801454EA46
:106E00000A035BD1734C0023CDE90034DDE90001B6
:106E100013B0BDE8F08F984694464ED0B542EADCF8
:106E20006B4EB54266D0002F8B468146CDE90223DA
:106E300064DB0026BCF1000F0ED1654B9D4246D0AD
:106E4000644B9D4200F09780B8F1804F00F0B28013
:106E5000614B984500F0CC834846594618F0BCFE7B
:106E6000CDE90001BAF1000F06D1002C60D0594BDA
:106E700027F040429A425BD0FF0F013F56EA0703DA
:106E800000F08280554B9D4240F3B08003F10473C3
:106E90009D4240F34184524B9C4240F38280B8F1C2
:106EA000000F40F3828048A3D3E90023104619461F
:106EB00018F0D2F8CDE90001A8E728B1494813B08D
:106EC000BDE8F04F1AF0D4BDA542F7DCA8E704F105
:106ED000404303F5801353EA0A0393D0404B9C428E
:106EE00040F39083B8F1000F5FDBDDE90234CDE9B8
:106EF00000348BE7BCF1000F95D07CE73A4B9D4204
:106F000037DCA3F154739D4293DD2B15A3F2FF33BD
:106F1000142B40F3E983C3F134032CFA03F202FA91
:106F200003F3634585D102F00102C2F1020681E755
:106F3000B8F1000F07DADDE900230020254918F039
:106F4000B5F9CDE90001002FBFF660AF04F1404470
:106F500004F5801454EA060300F03C84012E7FF40B
:106F600055AFDDE90045224605F10043CDE9002398
:106F70004CE702265EE7B8F1000FC0F24F834846A7
:106F80005946CDE9000141E74A4648465B46594625
:106F900017F0AAFE02460B4618F088F9CDE9000169
:106FA00034E7B8F1000FFFF67EAF00230024CDE9EF
:106FB00000342BE74A4648465B46594618F04CF8E1
:106FC000CDE9000122E700BF9C7500883CE4377ED4
:106FD0000000F07F0000F03F0000E03F0000E041D3
:106FE000FFFFEF3FA4370200FFFF3F43B4F5801FD0
:106FF00080F28F83DDE900010022CF4B18F02CF8DE
:10700000CDE900010C466FF0340C2315CB4DC4F3D1
:107010001302A3F2FF3342F07F5403EB0C01AA42A8
:107020000B9144F4401440F36F83C54B9A4240F3F4
:10703000F38300220023CDE9082301310B91A4F54D
:107040008014CDE91023BF4B0022CDE90623002593
:10705000DDE90001DDE906232146824617F044FE02
:10706000A346DDE906238046894650462146CDE900
:107070000CAB17F03BFE02460B460020B14918F05E
:1070800015F90A460146CDE90E1213464946024655
:10709000404617F0E1FF631043F0005382468B46F1
:1070A00003F500238C46CDE904AB5919D3460023E0
:1070B000CDE900BC0093DDE900AB002004460D469D
:1070C00002460B465046594617F0C6FF02460B468D
:1070D0004046494617F008FEDDE90623804689460A
:1070E0002046294617F000FE02460B46DDE90C015A
:1070F00017F0FAFD52465B4617F0AEFF02460B460C
:107100004046494617F0F0FDDDE90E2317F0A4FFD5
:10711000DDE90445CDE9060122462B4620462946F5
:1071200017F09AFF72A3D3E9002304460D4617F027
:1071300093FF71A3D3E9002317F0D8FD22462B4615
:1071400017F08AFF6EA3D3E9002317F0CFFD224684
:107150002B4617F081FF6CA3D3E9002317F0C6FD7F
:1071600022462B4617F078FF69A3D3E9002317F0D6
:10717000BDFD22462B4617F06FFF67A3D3E900231E
:1071800017F0B4FD2246804689462B462046294604
:1071900017F062FF02460B464046494617F05CFF77
:1071A000524604460D465B46DDE9040117F09EFD9C
:1071B000DDE9062317F050FF22462B4617F096FD17
:1071C0005246804689465B465046594617F044FF72
:1071D00000225D4BCDE90C0117F088FD42464B467D
:1071E00017F084FD00980D46044622462B46504673
:1071F000594617F031FF002282468B46524B2046FB
:10720000294617F071FDDDE90C2317F06DFD0246EC
:107210000B464046494617F067FDDDE9042317F0A9
:107220001BFF2246804689462B46DDE9060117F002
:1072300013FF02460B464046494617F057FD80466D
:10724000894602460B465046594617F04FFD0098B6
:1072500033A3D3E9002304460D4617F0FDFE524642
:10726000CDE904015B462046294617F03DFD024664
:107270000B464046494617F037FD2BA3D3E90023C0
:1072800017F0EAFE2AA3D3E9002380468946204668
:10729000294617F0E1FE02460B464046494617F0E4
:1072A00025FDDDE9102317F021FD80460B98894666
:1072B00017F068FE424682468B464B46DDE90401E4
:1072C00017F014FDDDE9082317F010FD52465B4668
:1072D00017F00CFD009852465B4604460D4617F029
:1072E00003FDDDE9082317F0FFFCDDE904232DE0B1
:1072F000EF4E454A287ECA3F65DBC9934A86CD3F9B
:1073000001411DA96074D13F4D268F515555D53F80
:10731000FFAB6FDBB66DDB3F033333333333E33F18
:10732000000000E009C7EE3FFD033ADC09C7EE3F6D
:10733000F5015B14E02F3EBE000040438E98030031
:1073400079B60B000000F03F0000084017F0CCFCBD
:107350000B4602464946404617F0C6FC013E56EA37
:10736000070382468B46DDE9020114BFD84BD94B97
:107370000022CDE9042302460B46CDE90023002379
:107380000093DDE9006732463B4617F0ADFC22462C
:107390002B4617F061FEDDE9022380468946504600
:1073A000594617F059FE02460B464046494617F02B
:1073B0009DFC3246804689463B4620462946CDE91B
:1073C000028917F049FE0B46024606460F46404624
:1073D000494617F08BFCC04B994204460D468A463D
:1073E00040F3268101F13F4303F5E003034340F0FE
:1073F000F781A3A3D3E90023DDE9020117F076FCAE
:107400003246804689463B462046294617F06CFCAA
:1074100002460B464046494618F0AEF8002840F0B8
:10742000DF81A8464FEA2853A3F2FE324FF48013BF
:1074300013415344C3F30A52A84DA2F2FF3215413F
:10744000C3F3130423EA05010020C2F1140B44F432
:107450008014BAF1000F02460B4644FA0BFB30468B
:107460003946B8BFCBF1000B17F03EFC02460B4685
:1074700006460F46DDE9020117F038FC4FEA0B5AC9
:107480000D46002480A3D3E900232046294617F0A7
:10749000E3FD3246804689463B462046294617F0A2
:1074A00023FC02460B46DDE9020117F01DFC78A320
:1074B000D3E9002317F0D0FD77A3D3E900230646D4
:1074C0000F462046294617F0C7FD02460B463046B8
:1074D000394617F00BFC06460F4602460B4640465F
:1074E000494617F003FC42464B4604460D4617F04A
:1074F000FBFB02460B463046394617F0F5FB2246A9
:10750000804689462B462046294617F0A5FD64A3F0
:10751000D3E9002306460F4617F09EFD62A3D3E988
:10752000002317F0E1FB32463B4617F095FD60A3C0
:10753000D3E9002317F0DAFB32463B4617F08CFD07
:107540005DA3D3E9002317F0CFFB32463B4617F08B
:1075500083FD5BA3D3E9002317F0C8FB32463B460B
:1075600017F07AFD02460B462046294617F0BCFB71
:1075700006460F4602460B462046294617F06CFD8C
:107580000022CDE900014FF080433046394617F024
:10759000ABFB02460B46DDE9000117F087FE4246D1
:1075A00006460F464B462046294617F055FD4246F3
:1075B0004B4617F09BFB02460B463046394617F008
:1075C00093FB22462B4617F08FFB02460B4600200A
:1075D0003F4917F089FB8A44BAF5801FC0F22D811C
:1075E0005146DDE9042317F037FDCDE900010DE434
:1075F000002FFFF631AC4846594613B0BDE8F04FB6
:1076000019F00ABBB8F1000FBFF6CFACDDE90234C8
:10761000009304F100430193FFF7F8BB4A465B4631
:1076200000202B4917F042FECDE90001FFF7EEBB29
:107630002B4B21F00048984540F3E280294B0B4446
:1076400003430AD132463B4617F04EFBDDE90223E5
:1076500017F088FF00283FF4E5AE1BA3D3E9002311
:10766000DDE9040117F0F8FC17A3D3E9002317F0B4
:10767000F3FCCDE90001FFF7C9BB00BFAFF3008009
:10768000FE822B654715973C00000000432EE63F25
:10769000EF39FAFE422EE63F396CA80C615C20BE41
:1076A000D0A4BE726937663EF16BD2C541BDBB3E08
:1076B0002CDE25AF6A56113F93BDBE166CC1663FE6
:1076C0003E5555555555C53F59F3F8C21F6EA50196
:1076D0000000F03F0000F0BFFFFF8F40FFFF0F00F2
:1076E000FFCB904000346F3FBCF1000F40F0918021
:1076F000C3F1140345FA03F202FA03F3AB4200F0BC
:10770000A0806646FFF79CBB00220023CDE908233A
:1077100097E44FF0000C78E45B4B9C427FF741AC60
:107720005A4B9C423FF7BBABDDE900010022574BAF
:1077300017F0DAFA46A3D3E9002304460D4617F002
:107740008BFC45A3D3E9002382468B46204629467D
:1077500017F082FC0022CDE900014D4B204629465E
:1077600017F07AFC02460B463DA1D1E9000117F063
:10777000BBFA22462B4617F06FFC02460B46002050
:10778000444917F0B1FA2246804689462B462046E6
:10779000294617F061FC02460B464046494617F061
:1077A0005BFC31A3D3E9002317F056FC02460B46DD
:1077B000DDE9000117F098FA02460B46804689463B
:1077C0005046594617F092FA002004460D4652469C
:1077D0005B46BBE5DDE9002310461946FFF7D8BB41
:1077E00023A3D3E90023DDE9040117F035FC20A32E
:1077F000D3E9002317F030FCCDE90001FFF706BB09
:10780000244B98453FF70EAEDDE9002392469346A0
:1078100037E60026FFF720BB17A3D3E90023CDE905
:10782000082317A3D3E90023CDE910231A4B002224
:107830004FF48025CDE906230AE45A4601F02CFDD9
:10784000CFE602F00102C2F10206FFF7F9BA00BF6B
:10785000000000604715F73F44DF5DF80BAE543E73
:10786000555555555555D53FFE822B654715F73F64
:107870009C7500883CE4377E0000004003B8E23F7E
:1078800006D0CF43EBFD4C3EFEFFEF3F0000F03F44
:107890000000D03F0000E03F0000F83F0000000083
:1078A0002DE9F04FC84E21F00047B7428FB00B468C
:1078B00040F38F809246C54A97420C4626DC002949
:1078C000B7A3D3E9002340F38F8017F00DFAC04B24
:1078D0009F4204460D4600F04681B3A3D3E900233E
:1078E00017F002FA02460B46CAE900232046294651
:1078F00017F0FAF9ACA3D3E9002317F0F5F9012545
:10790000CAE9020128460FB0BDE8F08FB14A97429C
:1079100040F38980B04A974200F31C813D15A5F2DF
:107920001645A7EB055319461F46064617F044FEB9
:1079300017F028FB8046894602460B4630463946FA
:10794000CDE9088917F0D0F90022A44B17F084FB89
:107950008946804617F030FE17F014FB02460B46AE
:1079600006460F4640464946CDE90A6717F0BCF97E
:1079700000229A4B17F070FB00220023CDE90C0186
:1079800017F0D2FD002800F05D8100233046394613
:10799000002217F0C9FD002814BF01230223904ADA
:1079A000019202212A46009108A8514600F080FB6E
:1079B000002C054614DADAF80420DAF80C3002F16B
:1079C000004203F100434542CAF80420CAF80C30D3
:1079D00006E0C2E9000100250024C2E902450025B5
:1079E00028460FB0BDE8F08F17F080F9784B9F4222
:1079F00004460D4600F008816BA3D3E9002317F07D
:107A000075F902460B46CAE900232946204617F0BD
:107A10006BF965A3D3E9002317F068F94FF0FF3540
:107A2000CAE90201DCE718F0D7F861A3D3E9002323
:107A30008046894617F010FB00226A4B17F056F972
:107A400017F0BAFD054617F09DFA55A3D3E90023B8
:107A5000CDE9040117F000FB02460B4640464946BB
:107A600017F042F950A3D3E90023CDE90201DDE983
:107A7000040117F0F1FA1F2D8046894602460B4695
:107A8000DDE9020140F3B08017F02EF983460E467F
:107A90003F15C6F30A53FB1A102B40F3B08046A3E0
:107AA000D3E90023DDE9040117F0D6FA80468946C0
:107AB00002460B46DDE9020117F016F902460B46B5
:107AC000DDE90201CDE9062317F00EF942464B46E7
:107AD00017F00AF93AA3D3E9002380468946DDE985
:107AE000040117F0B9FA42464B4617F0FDF80B4671
:107AF000024680468946DDE9060117F0F5F8C1F334
:107B00000A53FF1A312F83460E4600F39D8002462A
:107B10000B46CAE90023DDE90623CDE902235A46D4
:107B20003346DDE9020117F0DFF842464B4617F015
:107B3000DBF8002C02460B46CAE90223BFF650AF21
:107B400006F1004601F10041CAE900B6CAE90201A6
:107B50006D4245E7024617F0C7F80025CAE9020161
:107B6000CAE900013CE714A3D3E9002317F0BCF8ED
:107B700013A3D3E900230D46044617F0B5F80246D7
:107B80000B46CAE900232946204617F0ADF80CA39E
:107B9000D3E9002317F0A8F80125CAE902011FE77D
:107BA00000004054FB21F93F3163621A61B4D03DBB
:107BB00083C8C96D305FE43F0000601A61B4D03DF6
:107BC0007370032E8A19A33BFB21E93F7BD9024046
:107BD000FB21F93FFB213941FFFFEF7F000070419E
:107BE0000C4702000000E03F17F07EF83A4B6A1E97
:107BF000834653F82230BB420E463FF449AF5A4603
:107C00003346CAE900238AE72BA3D3E9002317F000
:107C10006DF82BA3D3E900230D46044617F066F850
:107C200002460B46CAE900232946204617F05CF8B5
:107C300023A3D3E9002317F059F84FF0FF35CAE921
:107C40000201CDE60323AAE61FA3D3E90023DDE961
:107C5000040117F001FADDE9068906460F460246DF
:107C60000B464046494617F03FF802460B46404651
:107C70004946CDE9022317F037F832463B4617F064
:107C800033F813A3D3E9002306460F46DDE90401C8
:107C900017F0E2F932463B4617F026F802460B464B
:107CA00080468946DDE9020117F01EF883460E463C
:107CB000A5E700BFAFF300800000601A61B4D03DBB
:107CC0007370032E8A19A33B0000002E8A19A33B70
:107CD000C14920259A837B398C46020000000000B0
:107CE000574A2DE9F84F21F0004890450E460746C7
:107CF0002CDC544B0029B4BF534D544D98454FF0E4
:107D0000000411DC524B984526DC4BA3D3E9002339
:107D100016F0ECFF00224F4B17F02EFC002840D04D
:107D200038463146BDE8F88F4B4B984530DD4B4B1C
:107D3000984568DD0133984562D0384631463EA308
:107D4000D3E9002317F088F9BDE8F88F02460B4607
:107D500016F0CCFFBDE8F88F17F03EFF01F054F8A5
:107D60003F4B984506460F4623DD0022394B16F05F
:107D7000BDFF02460B463046394617F097FA3246A9
:107D80003B4616F0B3FF22462B4617F065F9E1E7B4
:107D900017F022FFFEF740FC22462B4617F05CF955
:107DA000D8E73846314617F017FF01F02DF80646A0
:107DB0000F4632463B463046394616F097FF32466C
:107DC00082468B463B463046394617F045F900223D
:107DD000804689461F4B3046394616F087FF0246DB
:107DE0000B464046494617F061FA02460B4650469C
:107DF000594616F079FF22462B4617F02DF9A9E7D0
:107E0000184B984299D83846314617F0E5FE0022C3
:107E10000E4B17F021F9FEF7FFFB06460F46024610
:107E20000B462046294617F017F932463B4617F015
:107E300013F98FE7AFF300803374AC3C1F7BAC7F4A
:107E4000FFFFEF7FFFFF35400000E0BF0000E03F95
:107E5000FFFF2F3E0000F03F412E8640CD3386408D
:107E6000FFFFEF3F7DF8B98F2DE9F04F21F000467D
:107E7000B6F1795F85B00C4692469B4605466BDAB3
:107E800017F09AFB002800F0E2802A462346284695
:107E9000214617F0E1F874A3D3E900238046894610
:107EA00017F0DAF872A3D3E9002316F01FFF424659
:107EB0004B4617F0D1F870A3D3E9002316F014FF56
:107EC00042464B4617F0C8F86DA3D3E9002316F0DD
:107ED0000DFF42464B4617F0BFF86BA3D3E90023D2
:107EE00016F002FF42464B4617F0B6F868A3D3E9F6
:107EF000002316F0FBFE42464B4617F0ADF8CDE9E5
:107F000000010022644B4046494617F0A5F8DDE920
:107F1000002306460F464046494617F09DF8524654
:107F2000804689465B462846214617F095F802466A
:107F30000B464046494616F0D7FE02460B463046F1
:107F4000394616F0D1FE02460B460020534916F082
:107F5000CBFE05B0BDE8F08F02460B4617F07CF86B
:107F600041A3D3E900238046894617F075F840A362
:107F7000D3E9002316F0BAFE42464B4617F06CF8E0
:107F80003DA3D3E9002316F0AFFE42464B4617F05F
:107F900063F83BA3D3E9002316F0A8FE42464B4604
:107FA00017F05AF838A3D3E9002316F09DFE424695
:107FB0004B4617F051F836A3D3E9002316F096FE8E
:107FC0004B46424617F048F8354B9E42CDE900013A
:107FD00097DD344B9E424FF000023DDCA6F50013C6
:107FE00000202E4916461F4616F07EFECDE90201FE
:107FF0000022294B4046494617F02EF832463B46B0
:1080000016F072FEDDE9002306460F46404649465B
:1080100017F022F85246804689465B46284621469C
:1080200017F01AF802460B464046494616F05CFE29
:1080300002460B463046394616F056FE02460B46BF
:10804000DDE9020116F050FE05B0BDE8F08F1349DE
:10805000002005B0BDE8F08F134B144FCDE902238B
:108060000026C5E7AFF30080D43888BEE9FAA8BD82
:10807000C4B1B4BD9EEE213EAD529C804F7E923E77
:108080009015CB19A001FA3E7751C1166CC1563F2D
:108090004C5555555555A53F0000E03F0000F03FB9
:1080A0003233D33F0000E93F0000E73F0000D23FFA
:1080B0002DE9F04FADF5197DBE4CA29EBE4D54F892
:1080C00026700793D41E85FB0465E417C4EBA50452
:1080D00024EAE4741D46631CA3EB8303013D02EB19
:1080E000C30305937B1909940497019506460B91E8
:1080F000A4EB05041BD423445D1C20AF4FF0000803
:108100004FF00009DDF88CA208E05AF8240016F0C0
:1081100039FF0134AC42E7E8020108D0002CF4DA60
:10812000013440464946AC42E7E80201F6D1049BDF
:10813000002BC0F2B083079BA6F10802DB001146BA
:10814000039220AA02EB0309029301EB0308049BAC
:1081500072AA02EBC30B0DF5E07A019B002BC0F273
:108160009581039C4D460026002775E90223F4E91A
:10817000020116F071FF02460B463046394616F0F2
:10818000B5FD444506460F46EFD1EAE80267DA45F9
:1081900009F10809E1D1DDE90204049920448B00CA
:1081A00082460BA8A3F10802C31808930CAB134432
:1081B0000A938B4698AB03EBCB03BBF1000F53E95B
:1081C000284529DD70AB03EBCB080DF13009002207
:1081D0007A4B2046294616F03FFF17F0EDF916F0CE
:1081E000D1FE0022764B06460F4616F035FF0246BA
:1081F0000B462046294616F077FD17F0DDF978E9A1
:10820000022349F8040B3946304616F06FFD70AB77
:10821000984504460D46DAD1DDF8149020462946EB
:108220004A4601F039F800224FF07F5304460D46CC
:1082300016F012FFFCF724FF0022624B16F00CFF31
:1082400002460B462046294616F04EFD0D460446D2
:1082500017F0B2F9804616F095FE0B460246294605
:10826000204616F041FD4B46002B06460F4640F3D4
:10827000E1800BF1FF320CA9C9F1180351F822502B
:1082800045FA03F101FA03F30CA8EB1A40F8223087
:10829000C9F11705884443FA05F5002D2CDDBBF123
:1082A000000F08F1010840F394820C9C002C40F070
:1082B000A780BBF1010F0AD00CA9012251F8044F8D
:1082C000531C002C40F09E809B451A46F6D1059B1E
:1082D000002B0EDD012B00F09C81022B09D10BF14C
:1082E000FF320CAB0CA953F82230C3F3150341F84D
:1082F0002230022D00F0AF800022002330463946A4
:1083000017F012F9002800F06682049B0BF1FF3988
:108310004B4510DC0BF180430CAA013B089802EBA3
:108320008303002253F80419834242EA0102F9D17F
:10833000002A40F0B580049B0CAA013B52F8233080
:10834000002B40F0A1800A9A012352F8041901334E
:108350000029FAD05B440BF101099945069349DCE9
:10836000099A079909EB020801EB0B0508F180480F
:1083700002EB030BA39B08F1FF3803EB880870ABFB
:1083800003EBC909A39B20A903EB8B0301EBC505F4
:10839000029358F8040F16F0F5FD019B002BC5E978
:1083A000000105F1080B28DB083D039C002600278F
:1083B0000CE000BFAC4B0200ABAAAA2A0000703E42
:1083C000000070410000204075E80201F4E902233A
:1083D00016F042FE02460B463046394616F086FC41
:1083E000544506460F46EFD1029B9845E9E80267DF
:1083F0005D46CED1DDF818B0DCE600260027F3E7B5
:10840000012300220CA9C4F180749B4541F822404D
:108410000EDD51F8232001EB8B0001EB83036FF09D
:108420007F4100E01A688A1A43F8042B8342F9D18D
:1084300001244CE706D10BF1FF330CAA52F823506C
:10844000ED152AE70022BE4B17F08CF8002840F00B
:10845000B981054650E732463B460020B94916F03F
:1084600043FC06460F46002C3FF446AF059AB5493B
:10847000002000F011FF02460B463046394616F048
:1084800033FC06460F4637E7012363E70026002743
:10849000EAE80267DA4509F108097FF45EAE7AE698
:1084A0000CAB059A53F82930183ACDE906850592A8
:1084B0006BB909F18043013B0CA901EB830353F82D
:1084C000041909F1FF39183A0029F8D00592059AE4
:1084D0009C49002000F0E0FEB9F1000F04460D4673
:1084E000C0F2E0814FEAC90370AA02EB03080893C7
:1084F0000CAB03EB8906DFF850B208F1080704362D
:108500004FF0000A56F8040D16F03CFD22462B46AB
:1085100016F0A2FD5B4667E9020152462046294655
:1085200016F09AFD0CAB9E4204460D46EAD148ABCC
:1085300003930193CDF8149009F10103DDF8109035
:108540000293C3464FF0000AB9F1000FC0F2378121
:10855000DFF8F8815D4678A3D3E9002300260027E1
:10856000002403E0544510DCF8E80223F5E802019A
:1085700016F072FD02460B463046394616F0B6FB41
:108580000134A14506460F46ECDA019BE3E8026799
:108590000193029B0AF1010A9A45ABF1080BD3D172
:1085A000A29BDDF81490032B2CD8DFE813F0E80031
:1085B000D300D3003F00079B00200146002B40F072
:1085C00043810D460B460B990446C1E900450399CA
:1085D0000246D1E9000116F087FBB9F1000F0CDD6E
:1085E000039D0124F5E90223013416F07FFBA14528
:1085F000F8DA079B002B40F037810B460B990246B7
:10860000C1E90223069B03F007000DF5197DBDE8C3
:10861000F08F0BF1FF320CAB0CA953F82230C3F3EF
:10862000160341F8223064E648AB0393B9F1000F1A
:1086300040F35581039ACDF808904FEAC90302EB45
:108640000308D8E900AB0193914658E90267524606
:108650005B463046394616F049FB04460D46024655
:108660000B463046394616F03FFB52465B4616F045
:108670003DFBC8E9000168E90245C145A246AB4699
:10868000E3D1DDF80890B9F1010F40F32881019B97
:10869000039A1344D3E9006701939A460DF5947B3E
:1086A0005AE9028932463B464046494616F01EFBCF
:1086B00004460D4602460B464046494616F014FB5A
:1086C00032463B4616F012FBCAE900016AE9024550
:1086D000D34526462F46E3D10399019C002301F19F
:1086E0001005083419461E46304674E9022316F078
:1086F000FDFAA5420346F6D10A460399D1E9008C5A
:10870000D1E902E90799002900F0B1800B9C2361AF
:10871000069BC4F800800CF1004009F1004102F111
:108720000042606003F00700E1606261C4F808E0A5
:108730000DF5197DBDE8F08F00000040FB21F93FE9
:108740000000E03F0000F03F0000703EE02E02001D
:1087500048AB0393B9F1000FFFF62DAF039F002044
:1087600007EBC9060836014676E9022316F0BEFA81
:10877000B742F9D1079B002B3FF423AF64E0089C7C
:10878000039D083400222C4411461646304674E9F5
:10879000022316F0ABFAA5420246F6D10B46079922
:1087A00009B103F1004319460B9B1046C3E90001D0
:1087B000069B03F007000DF5197DBDE8F08F00263C
:1087C0000027E2E6BBF1000F08F101087DDD02257C
:1087D0006BE500247BE5CDE90685059D30463946ED
:1087E0006A4200F059FD00223E4B06460F4616F045
:1087F000B9FE00B300223C4B3046394616F02CFC43
:1088000016F0DAFE044616F0BDFB0022354B16F0DA
:1088100023FC0B4602463946304616F065FA16F040
:10882000CBFE0BF101090CAB183543F82B00059575
:1088300043F829404BE63046394616F0BDFE0CABF6
:10884000D94643F82B0042E60B9C0B4601F1004150
:10885000C4E9000103990246D1E9000116F044FA87
:10886000B9F1000F3FF7BCAE01F10041C5E6184673
:108870000B9B4646744667464D461146C3E90401C4
:10888000C3E90067C3E90245069B03F007000DF545
:10889000197DBDE8F08FA6F108030393079BDB0069
:1088A000029378E4A29B032B3FF6ACAE01A252F8F0
:1088B00023F000BFC58800005187000051870000E9
:1088C000298600000022134669E732463B46002015
:1088D000064916F009FA022506460F460CE5002364
:1088E0001A460AE7000070410000703E0000F03FA9
:1088F0002DE9F04F21F00046B6F1795F85B00C46C6
:1089000090469946054604DA16F056FE002800F017
:1089100085802A4623462846214616F09DFB0646BA
:108920000F4602460B462846214616F095FB3EA30D
:10893000D3E9002382468B463046394616F08CFB3D
:108940003BA3D3E9002316F0CFF932463B4616F09D
:1089500083FB39A3D3E9002316F0C8F932463B461E
:1089600016F07AFB36A3D3E9002316F0BDF93246A0
:108970003B4616F071FB34A3D3E9002316F0B6F999
:108980000E9BCDE900019BB30022334B4046494684
:1089900016F062FBDDE90023CDE90201504659469D
:1089A00016F05AFB02460B46DDE9020116F09CF96F
:1089B00032463B4616F050FB42464B4616F094F9C1
:1089C00023A3D3E9002306460F465046594616F026
:1089D00043FB02460B463046394616F087F90246FD
:1089E0000B462846214616F07FF905B0BDE8F08F0A
:1089F00002460B463046394616F02EFB14A3D3E947
:108A0000002316F071F952465B4616F025FB2A4604
:108A1000234616F06BF905B0BDE8F08F28462146D5
:108A200005B0BDE8F08F00BF7CD5CF5A3AD9E53DFF
:108A3000EB9C2B8AE6E55A3E7DFEB157E31DC73E0F
:108A4000D561C119A0012A3FA6F810111111813F6B
:108A5000495555555555C53F0000E03F0000000001
:108A60002DE9F04FDA4C21F00046A64287B08A4645
:108A700089461746984683461BDC16F09DFD002864
:108A800039D1109B5A4601331343334300F0A88178
:108A9000109B012B00F0B1815A4653460020CD496E
:108AA00016F004FC04460D462046294607B0BDE8F2
:108AB000F08FC94B9E421EDD002904DA01F100430C
:108AC00008F100489A465A465346A3A1D1E900014D
:108AD00016F00AF93A46434604460D46A0A1D1E9EC
:108AE000000116F001F922462B4616F0FFF8002788
:108AF00083468A46B8465A4653465846514616F06B
:108B0000ABFA03460C46CDE9003402460B4616F09C
:108B1000A3FADDE9002304460D465846514616F0F7
:108B20009BFA91A3D3E90023CDE90201204629460F
:108B300016F092FA8EA3D3E9002316F0D7F8224656
:108B40002B4616F089FA8CA3D3E9002316F0CEF851
:108B500022462B4616F080FA89A3D3E9002316F0AB
:108B6000C5F822462B4616F077FA87A3D3E90023EF
:108B700016F0BCF822462B4616F06EFA84A3D3E911
:108B8000002316F0B3F8DDE9002316F065FA82A39E
:108B9000D3E90023CDE904012046294616F05CFA0A
:108BA0007FA3D3E9002316F0A1F822462B4616F046
:108BB00053FA7DA3D3E9002316F098F822462B46FA
:108BC00016F04AFA7AA3D3E9002316F08FF822466A
:108BD0002B4616F041FA78A3D3E9002316F086F865
:108BE00022462B4616F038FA75A3D3E9002316F077
:108BF0007DF802460B46DDE9040116F077F8DDE961
:108C0000022316F029FA3A46434616F06FF8DDE9DA
:108C1000002316F021FA3A46434616F067F86AA395
:108C2000D3E9002304460D46DDE9020116F014FAEB
:108C300022462B4616F05AF8CDE900010B460246B3
:108C40005146584616F052F8634B9E4204460D4674
:108C50003EDC109B012B36D002460B4600205D49BE
:108C600016F024FB00240F4606465A46534620467B
:108C7000294616F039F8A04602460B46DDE9000108
:108C800016F032F842463B4616F0E6F9A94604468D
:108C90000D4642463B464046494616F0DDF9002265
:108CA0004E4B16F023F802460B462046294616F096
:108CB0001DF832463B4616F0CFF942463B4616F0C9
:108CC00015F804460D462046294607B0BDE8F08F4A
:108CD000109816F057F9224606460F462B462046B6
:108CE000294616F0B9F93246CDE902013B46204645
:108CF000294615F0FBFF02460B46DDE9020116F09E
:108D0000D5FADDE9002315F0EFFF02460B46584681
:108D1000514615F0E9FF02460B4615F0E7FF024603
:108D20000B463046394615F0DFFF04464FEAA9707E
:108D300000F00200C0F101000D4616F023F90246D2
:108D40000B462046294616F087F904460D46204674
:108D5000294607B0BDE8F08F182D4454FB21E93FA8
:108D6000075C143326A6813CD47ABF74702AFB3E7C
:108D7000E9A7F0320FB8123F68108D1AF726303F7E
:108D80001583E0FEC8DB573F93846EE9E326823FFC
:108D9000FE41B31BBAA1AB3F735360DBCB75F3BE8F
:108DA000A69237A0887E143F0165F2F2D844433F73
:108DB000280356C9226D6D3F37D60684F464963F6A
:108DC0007AFE10111111C13F635555555555D53FC8
:108DD000FFFF2F3E0000F0BF2794E53F0000F03F6B
:108DE0005846514616F0F8FE02460B46002004494C
:108DF00016F05CFA04460D4665E75C46554662E7A8
:108E00000000F03F000000002DE9F04FCA4A21F0B9
:108E10000043934285B00C460E46054620D9C74A0A
:108E2000934200F2D480002E80F2A081AAA3D3E95D
:108E300000232846214615F059FF0022002316F092
:108E40007DFB002840F0CE80A5A3D3E9002328466F
:108E5000214616F001F902460B460020B84990E180
:108E6000B84A934200F2E280B74A934240F22B8123
:108E7000002301930022B54B2846214616F0ECF85A
:108E800006460F4602460B462846214616F0E4F8F1
:108E900095A3D3E9002382468B4616F0DDF894A310
:108EA000D3E9002315F022FF52465B4616F0D4F8B2
:108EB00091A3D3E9002315F017FF52465B4616F045
:108EC000CBF88FA3D3E9002315F010FF52465B4681
:108ED00016F0C2F88CA3D3E9002315F005FF524623
:108EE0005B4616F0B9F80022994B15F0FFFE80465C
:108EF000894602460B463046394616F0ADF8024622
:108F00000B460020934915F0EFFE064602460B463D
:108F10000F464046494615F0E7FE324680468946F0
:108F20003B462846214616F097F802460B4600209D
:108F3000894915F0D9FE02460B464046494616F0CF
:108F4000B5F952465B4616F087F8019E02460B467D
:108F5000002E4AD0DDE9026732463B4615F0C4FEDA
:108F60002A46234616F078F832463B4615F0BCFEFA
:108F70005B46524615F0B8FE019B013306460F468C
:108F800000F01F81019B012B78D0019A531C392BD3
:108F90004FEA025600F22481019F132F40F35181C2
:108FA000019BC3F57F7A0AF1030A00224FEA0A53B4
:108FB00015F09CFE02460B462846214615F094FE0D
:108FC0000022634B15F092FE731819461BE0634AAA
:108FD00093421BD9C1F313030343024640F01181AE
:108FE000002910DA00205E490DE02846214616F0DF
:108FF00033F852465B4615F077FE02460B4628468C
:10900000214615F071FE05B0BDE8F08F40A3D3E90D
:10901000002316F0B1FA00283FF405AF3EA3D3E9D0
:1090200000231046194616F017F8ECE74D4A934214
:1090300000F2EB8000293AA3D3E9002339DA15F0D6
:1090400055FE39A7D7E900674FF0FF3380468946C0
:10905000019332463B464046494615F045FE0246DE
:109060000B4605460C464046494615F03DFE324645
:109070003B4615F039FECDE90201FBE628462146C4
:109080000022394B16F05AFA002800F0CB8028460F
:10909000214600222D4B15F029FE02460B46304694
:1090A000394615F021FE00224FF0404315F0D4FF61
:1090B000A9E715F019FE01238046894601931CA7F4
:1090C000D7E90067C5E714A3D3E9002315F00EFE26
:1090D00002460B468FE700BF59F3F8C21F6EA50189
:1090E000FE822B654715F73F2DC3096EB7FD8ABE7B
:1090F0003952E686CACFD03EB7DBAA9E19CE143FBE
:109100008555FE19A0015A3FF41011111111A13F0C
:10911000EF39FAFE422E86409C7500883CE4377E8B
:109120000000E0FE422EE63F763C7935EF39EABD9D
:10913000763C7935EF39EA3D79684340412E8640E7
:109140000000E0BF422ED63FFFFF8F3C0000E03F13
:109150000000F03F0000084000001840FFFFEF7FD4
:109160000000F0BFB1A2F03F0000D0BF40A3D3E9A0
:1091700000232846214615F06FFF02460B460020CB
:10918000414915F0B3FD16F017FA019015F0FAFEFB
:1091900039A3D3E9002306460F4615F05DFF0246CA
:1091A0000B462846214615F09FFD35A3D3E9002341
:1091B000804689463046394615F04EFF06460F4632
:1091C00047E732463B462846214615F08DFD0022F2
:1091D0002D4B15F041FF00222B4B15F085FD12E7BA
:1091E0002A46234615F080FD02460B4600202749FB
:1091F00015F07AFD731819460022244B15F074FD02
:1092000001E70B4615F072FDFDE619A3D3E9002333
:1092100015F022FF002C02460B464FF00000AFDA9B
:109220001B49AEE732463B462846214615F05CFD19
:1092300002460B4615F05AFD0022144B15F056FD60
:10924000E1E64FF4001C2A4623464CFA07FA15F0D3
:109250004BFDCAF17F594FF0000809F5401902464D
:109260000B464046494615F03FFDADE6AFF30080A2
:10927000FE822B654715F73F0000E0FE422EE63FD9
:10928000763C7935EF39EA3D0000E03F0000F03FE1
:109290000000E0BF00000000F8B5C1F30A53044627
:1092A0000D460E4617460BBB21F0004603463343DE
:1092B0001BD0354B002215F0CFFE344B9F420446A5
:1092C0000D4635DBC1F30A530E46363B3B4440F2B4
:1092D000FE72934232DC002B11DD26F0FF4626F4AD
:1092E000E00646EA035520462946F8BD40F2FF72E3
:1092F0009342EBD102460B4615F0F8FCF8BD13F192
:10930000350F28DA4CF250339F4222462B460ADDB5
:1093100019A1D1E9000118F0DDFC17A3D3E900235E
:1093200015F09AFEF8BD16A1D1E9000118F0D2FCA3
:1093300013A3D3E9002315F08FFEF8BD22462B4678
:109340000DA1D1E9000118F0C5FC0BA3D3E900235E
:1093500015F082FEF8BD26F0FF4626F4E00636330F
:1093600046EA0355204629460022094B15F074FEB3
:10937000F8BD00BFAFF300809C7500883CE4377EE9
:1093800059F3F8C21F6EA50100005043B03CFFFF27
:109390000000903C10B5054C237833B9044B13B151
:1093A0000448AFF300800123237010BD3002002079
:1093B00000000000384D020008B5034B1BB1034903
:1093C0000348AFF3008008BD000000003402002015
:1093D000384D020070B504460E4600F03DFA88B1E3
:1093E0000368DB6A05469847082C0CD0A4F10903F2
:1093F000012B14D93246214610230D20BDE87040C0
:1094000004F04EB870BD2B6828465B6A9847022866
:10941000F0DC2B6828461B6A04219847EAE72B6892
:1094200028465B6A98470528E4DC2B6828461B6AB7
:1094300008219847DEE700BF38B52DED028B0546C1
:1094400000F00AFA044640B10368DB6A9847032D2E
:1094500003D8DFE805F02F363D06BDEC028B002077
:1094600038BD20460DF0F4F907EE900A2046F8EEDC
:10947000E78A0DF0FDF907EE900A2046B8EEE78A7C
:109480000DF006FA68EE087A07EE100AE8EEA87A00
:10949000B8EEC77AE7EE077AF5EE407AF1EE10FA09
:1094A000B1EEE78A1BD4FDEEC87ABDEC028B17EE55
:1094B000900A38BDBDEC028B2046BDE838400DF067
:1094C000C7B9BDEC028B2046BDE838400DF0D0B9DD
:1094D000BDEC028B2046BDE838400DF0D9B917EE3F
:1094E000900A17F031FADEE738B5044600F0B4F917
:1094F00058B10368DB6A0546984744B1012C04D192
:109500002846BDE83840FBF70FBA002038BD284692
:10951000BDE83840FBF7E8B910B5044600F09CF907
:1095200028B1036821461B6ABDE81040184710BDEA
:109530000048704716FCFFFF704700BF10B5034B93
:10954000036004460CF060FF204610BD1C3F020083
:1095500010B5054B036004460CF056FF204619F089
:1095600056F8204610BD00BF1C3F02002DE9F04117
:10957000032184B00546512001F0D0FCDFF8D4C2AD
:10958000A94B044604F00F06C4F3031714F48074C7
:1095900008BF6346A54831463A460CF00DF9221C37
:1095A00018BF012231463B46284610F065FA0023D9
:1095B000AB609F480CF000F94FF0FF31032001F041
:1095C000ADFC04F00FFD4FF0FF310446022001F026
:1095D000A5FC04F007FD002C3AD0002838D0014645
:1095E000204604F059FB064600284AD04FF0FF31D0
:1095F000462001F093FC322804464BD048DD382841
:1096000000F0AC8068285BD14FF0FF31012001F001
:1096100085FC04F0E7FC80464C2019F001F8052396
:1096200001934246009431462B4607460FF01AFA42
:10963000AF603B6838469B6A9847A8680368DB6A56
:1096400098477C480CF0B8F8284604B0BDE8F08193
:1096500079480CF0B1F84FF0FF31192001F05EFCB1
:1096600004F0C0FC4FF0FF310446182001F056FC16
:1096700004F0B8FC0146204604F00EFB0646002824
:10968000B4D16E480CF098F8284604B0BDE8F081DB
:10969000302815D14FF0FF31012001F03FFC04F0DC
:1096A000A1FC80464C2018F0BBFFA4B2074605235E
:1096B00001934246009431462B460EF089FFB7E7EE
:1096C00001243268CDE900440023176AAB600F2201
:1096D0000DF10F0332213046B847002800F0818099
:1096E0003368CDE900440F221F6A30210DF10F03CA
:1096F0003046B847002848D03368CDE900440D22F1
:109700001F6A38210DF10F033046B84700286ED08C
:109710003268CDE900440DF10F03176A6821752204
:109720003046B847002842D1682145480CF044F83B
:109730004FF0FF31204601F0F1FB04F053FC80466E
:109740004C2018F06DFF05246823CDE90034424613
:1097500031462B4607460FF085F969E74FF0FF3198
:10976000012001F0DBFB04F03DFC8046442018F0B2
:1097700057FF05230746019342462B460094314686
:109780000FF0C8F82F4B3B6052E730212C480CF00B
:1097900013F830244FF0FF31012001F0BFFB04F03B
:1097A00021FC80464C2018F03BFF07467FE7264807
:1097B0000CF002F8AF68002F7FF43BAF4FF0FF31A1
:1097C000032001F0ABFB04F00DFC30B11F480BF09F
:1097D000F3FF284604B0BDE8F0811D480BF0ECFF14
:1097E00052E7322116480BF0E7FF3224D2E7382146
:1097F00013480BF0E1FF4FF0FF31204601F08EFBE4
:1098000004F0F0FB8046442018F00AFF05243823BA
:109810000746CDE9003442462B4631460FF07AF830
:10982000084B3B6004E700BF642F0200742F020066
:10983000942F020054300200A42F0200B82F02001F
:10984000E42F0200302F0200D02F0200F82F020078
:10985000343002006C2F020038B5104C23680BB175
:10986000986838BD4FF0FF31012001F057FB04F03C
:10987000B9FB40B10C2018F0D3FE0546FFF776FE89
:109880002560A86838BD4FF0FF31032001F046FB8A
:1098900004F0A8FB0028EDD138BD00BF4C02002029
:1098A00008B501F06DFCFBF79BFEBDE8084001F038
:1098B000C5B900BF08B501F063FCFBF701FFBDE8C7
:1098C000084001F0BBB900BF08B501F059FC16F023
:1098D000F9F9BDE8084001F0B1B900BF08B501F0E1
:1098E0004FFC16F06DFFBDE8084001F0A7B900BFBE
:1098F00008B501F045FCFBF783FEBDE8084001F028
:109900009DB900BF08B501F03BFC16F009FCBDE8AD
:10991000084001F093B900BF08B501F031FCFBF736
:10992000EFF8BDE8084001F089B900BF08B501F0C3
:1099300027FC16F04BFBBDE8084001F07FB900BFE3
:1099400070B5049E96420C4624DB15466BB9042A7A
:1099500019D0022A02D110F0010310D001462A4684
:10996000204608F067F8002070BD10440D4410F840
:10997000013D01F8013B8D42F9D1002070BD028804
:109980000A80184670BD10F00303E7D102680A6030
:10999000184670BD0846002109F0DEF94FF0FF308F
:1099A00070BD00BF0830704740B1002905DB436837
:1099B0008B4202DD0844007A70470020704700BFE8
:1099C00030B1002904DB43688B42C4BF40180272E7
:1099D000704700BF40B1002905DB4368994202DAB5
:1099E0000844007A70470020704700BF830704D105
:1099F000030F0CBF0120002070470120704700BFFB
:109A000030B1002904DB43689942BCBF40180272A0
:109A1000704700BFF8B5002B20DB00291EDB46682D
:109A20008E421BDB5468761AE51AB542A8BF35464C
:109A3000002D13DB824202F108070C4600F10806F4
:109A40002A4605D0F918301907F0F4FF0020F8BDB8
:109A5000F118381918F017FE0020F8BD4FF0FF304C
:109A6000F8BD00BF4068704710B4141E10DB426898
:109A7000A2420DDB33EA230328BF1346121B083032
:109A80009A422044A8BF1A465DF8044B09F064B915
:109A90005DF8044B704700BF10B443688B4200F17F
:109AA00008041846A8BF084632EA220128BF194612
:109AB0001B1A99422044A8BF19465DF8044B00F0D8
:109AC000B5BE00BF70B5002BBCBF43689B1A002A0F
:109AD0000E4620DB44689918A1421CDC91421ADB37
