:1000000000000220A9690100D1690100D369010043
:10001000D5690100D7690100D9690100000000001D
:10002000000000000000000000000000DB6901008B
:10003000DD69010000000000DF690100E1690100E5
:10004000E3690100E3690100496801000D680100EE
:1000500021680100E3690100F1580100017001000D
:10006000E5630100ED630100F5630100E369010050
:10007000E3690100E3690100E3690100E36901004C
:10008000E3690100E3690100E3690100E36901003C
:10009000E3690100E3690100E3690100E36901002C
:1000A000E3690100E3690100FD63010005640100EB
:1000B000E3690100E36901000000000000000000A6
:1000C000E3690100E3690100E369010035680100AB
:1000D000E3690100E3690100E3690100E3690100EC
:1000E0007168010000000000000000000000000036
:1000F00000000000E3690100000000005D680100ED
:1001000000000000000000000000000000000000EF
:1001100000000000000000000000000000000000DF
:1001200000000000000000000000000000000000CF
:1001300000000000000000000000000000000000BF
:1001400000000000000000000000000000000000AF
:10015000000000000000000000000000000000009F
:10016000000000000000000000000000000000008F
:10017000000000000000000000000000000000007F
:10018000000000000000000000000000000000006F
:10019000000000000000000000000000000000005F
:1001A000000000000000000000000000000000004F
:1001B000000000000000000000000000000000003F
:1001C000000000000000000000000000000000002F
:1001D000000000000000000000000000000000001F
:1001E000000000000000000000000000000000000F
:1001F00000000000000000000000000000000000FF
:100200007CB0EE877CB0EE87FF00FF00FF00FF00B0
:10021000FF00FF00FF00FF00FF00FF00FF00FF00E6
:10022000FF00FF00FF00FF00FF00FF00FF00FF00D6
:10023000FF00FF00FF00FF002DE9F04F85B00391A4
:100240000778A7F10903042B044607F07F0200F1A9
:100250000100F5D9202AF3D02B2F04BF677804467C
:100260002D2F75D09FED427B8DED007B4FF0000868
:100270004FF000099FB34FF0000C25464FF0000AE5
:10028000DFF8FCB0644619E019F008FE80468946A4
:10029000304619F099FD42464B4619F049FC52464A
:1002A000804689465B46DDE900013CB319F020FF3A
:1002B000CDE90001A44615F8017F7FB1A7F1300612
:1002C000092E52465B4640464946DDD9CCB92E2F11
:1002D00017D115F8017F0124002FEFD12C4642469B
:1002E0004B46DDE9000119F0D9FD80468946039BA4
:1002F000404649461C6005B0BDE8F08F4FF0010C48
:10030000D9E72C46BCF1000F29D042464B46DDE927
:10031000000119F0C3FD07F0DF07452F804689462D
:10032000E5D10399681C0A2219F0E6FB144902463C
:1003300000201AF063F902460B464046494619F080
:10034000ADFD804689464046494605B0BDE8F08F80
:100350009FED097B67788DED007B013486E7DFF840
:1003600024904FF000084046494605B0BDE8F08FA4
:10037000000000000000F03F000000000000F0BF9F
:10038000000024400000F87F2DE9F04700231446C8
:1003900000228046894619F0F3FF28B109F1004395
:1003A00099462D23237001340022002340464946FC
:1003B00019F0DCFF28B13022002322706370BDE801
:1003C000F0874046494617F055FF1AF017F873A317
:1003D000D3E9002307464946404619F0D1FF0028DB
:1003E0004ED170A3D3E900234046494619F0E6FFF9
:1003F000002845D10E2F07F1010540F3B980A7F180
:100400000E063246002062491AF0F8F802460B4602
:100410004046494619F06CFE00225E4B19F088FBFD
:100420001AF028F9002DA7F10F0E4FF0010C4DDD49
:10043000594FDFF87881012245F6F3294FF02E0A53
:10044000494508BF40454FF030030AD3B0EB0800E0
:1004500061EB0901494508BF404503F10103F5D2AD
:10046000DBB2237050EA010304F101084AD195423E
:1004700052DD0132102A4FD0444677E90289DFE786
:10048000002F33DB3A46002041491AF0B7F8024604
:100490000B464046494619F02BFE3BA3D3E9002307
:1004A00080468946012500264046494619F0F6FC5B
:1004B0000022384B19F03CFB1AF0DCF8002DBC464A
:1004C0004FF0FF3E37464FF00006B1DC23463022A6
:1004D0004FF02E0803F8022B84F80180FC4345D02E
:1004E0001C4403F8012BA342FBD1A1E77A42002070
:1004F00027491AF083F802460B464046494619F050
:10050000CDFCCAE7954202F1010204BF84F801A0C4
:1005100004F10208102AAFD16EB14246302102F830
:10052000011BC2F1010373444344002BF7DC2EEAA4
:10053000EE7301339844BCF1010F12D0BCF1000FEF
:100540004FF0650388F80030C5BF2B2388F80130D1
:1005500008F1010108F102016046BDE8F04710F022
:1005600085BA002388F80030BDE8F0871C465FE7B5
:10057000C7F10E02002006491AF040F83E46024636
:100580000B46012790E700BF0000901EC4BCD64276
:10059000000024400000E03FA0B101008DEDB5A0B7
:1005A000F7C6B03E50EFE2D6E41A4B4400407A1052
:1005B00070B54FF0FF3006F097FA04466FF07F40B9
:1005C00006F092FA0646204619F0EEFB00220C4B8C
:1005D00019F064FC044630460D4619F0E5FB06A30D
:1005E000D3E9002319F084FD02460B462046294634
:1005F00019F09EFA70BD00BF0000E0DFFFFF6F43FF
:100600000000F03D000000002DE9F04F1D46138969
:10061000AB4288BF536885B004468CBF53F82500B1
:10062000002090468A4606F0D3FE0022904B19F037
:1006300035FC19F0E3FEB8F808206B1C9A4288BF1D
:10064000D8F8042006468CBF52F82300002006F09C
:10065000BFFE0022864B19F021FC19F0CFFEB8F83E
:1006600008300235AB4288BFD8F8043007468CBF4B
:1006700053F82500002006F0ABFE002EC4E9006709
:1006800040F3E280002F40F3DF8071A3D3E9002321
:10069000002584F8285017F00FFD00220023804623
:1006A000894619F06DFE40B14046494668A3D3E93A
:1006B000002319F03DFA8046894667A3D3E9002359
:1006C0004046494619F07AFEC0B165A3D3E900233C
:1006D0004046494619F05EFE80B101234046494636
:1006E00084F8283060A3D3E9002319F021FA58A335
:1006F000D3E9002317F0E0FC8046894600225D4BD9
:100700004046494619F0CAFB17F00AFA01F10043C6
:1007100000221946564B19F0C1FB19F06FFE4946ED
:100720000546404617F0B8F90022514B19F0B6FBC8
:1007300019F064FEDAF804304F49B3F80CB0B3F89E
:100740000AA0A56007FB0BF303EB010806FB0AF602
:10075000019388FB05234FEA124C00960E444CEAA5
:10076000034C06EA010383FB009A06EB0C0E0EEA2B
:10077000010ED346CA468EFB00675246CDE902679A
:10078000120C42EA0B42DDE902AB0CEA010C8CFBD5
:1007900000674FEA164956460A40360C46EA0B46B1
:1007A00049EA074982FB05AB5F46C144B04456465F
:1007B000CDE90267039FE060360C09EA010908EA07
:1007C000010846EA074689FB05AB334488FB05561A
:1007D000CDE9025655462D0C45EA0B45DDE902AB45
:1007E0000B40AC4403EAE3770CEA010C554623EADC
:1007F000E37367454FEA154502EAE276A8BF67460C
:1008000045EA0B45634522EAE272B8BF6346AE444F
:100810004E450EEA010EA8BF4E464A45B8BF4A46AD
:100820007745A8BF77467345B8BF73464645A8BF0E
:100830004646C4E905634245B8BF4246009801995F
:10084000206261622761E261204605B0BDE8F08F59
:10085000EA2E4454FB211940F4D64354FB21F93FBE
:10086000320D337F7CD91240EA2E4454FB210940DB
:100870000000F0400000E03F0000FFFF000000002B
:100880002DE9F04F2DED028B044683B0C06819F0BE
:100890009BFA80462069894619F096FA824660697B
:1008A0008B4619F091FA024601F1004306460F46C5
:1008B0004046494617F092FB19F0E8FDE062054614
:1008C00017F044FA0190284617F0F4F9019B054609
:1008D000184619F08BFA42464B4619F0DFFA80466B
:1008E0002846894619F082FA32463B4619F0D6FA74
:1008F00002460B464046494619F018F902460B4697
:100900005046594617F06AFB19F0C0FD002208EE68
:10091000100A00233046394619F050FD28B3B5EED1
:10092000C08AF1EE10FA1CDD11A7D7E9006718EEB6
:10093000100A19F05BFA02460B463046394619F0A8
:10094000F5F832463B4619F0F3F819F09FFDA06226
:10095000E38843F00203E38003B0BDEC028BBDE803
:10096000F08F05A7D7E90067E1E784ED0A8AEFE792
:10097000EA2E4454FB21F93FEA2E4454FB21F9BFEF
:1009800008B511F067FBDFED0C7A07EE100A67EE91
:10099000277A17EE900A19F029FA05A3D3E9002364
:1009A00019F0A6FB19F02AFD08BD00BFAFF30080C7
:1009B000EA2E4454FB2119400000B443000000001B
:1009C00008B511F05BFBDFED0C7A07EE100A67EE5D
:1009D000277A17EE900A19F009FA05A3D3E9002344
:1009E00019F086FB19F00AFD08BD00BFAFF30080C7
:1009F000EA2E4454FB2119400000B44300000000DB
:100A0000494A21F0004393422DE9704304460D46C4
:100A100049DC464A93420E460EDC3FA3D3E900234D
:100A200019F086F80022424B19F0C8FC00284AD081
:100A300020462946BDE870833E4A934239DCB3F133
:100A4000804F40DD17F024F82246804689462B4629
:100A50002046294619F022FA0022354B19F068F891
:100A600017F02CFF42464B4619F062F802460B463F
:100A700000202F4919F03CFB424604460D464B46E8
:100A80004046494619F054F802460B46204629468E
:100A900019F04EF802F040F8002E08DC01F1004396
:100AA0001946BDE8708302460B4619F041F8BDE8CF
:100AB000708316F0EDFF02F02FF819A3D3E900239D
:100AC00019F036F8E8E722462B462046294619F069
:100AD000E5F9804689462046294616F0D9FF0022CE
:100AE00004460D46124B4046494619F021F817F0CE
:100AF000E5FE00220E4B19F01BF802460B4640465D
:100B0000494619F0F5FA22462B4619F011F800F083
:100B1000A7FAC1E7AFF300809C7500883CE4377EFC
:100B2000EF39FAFE422EE63FFFFFEF7FFFFF2F3E39
:100B30000000F03F0000B0412DE9F84FBE4B21F01E
:100B400000469E4204460D468A460EDDBB4B9E4241
:100B500000F3B18000F0AC80BAF1000F40F3EA80FE
:100B600099A1D1E90001BDE8F88FB54B9E4200F391
:100B7000BA80A3F1DE739E4240F3A5804FF0FF3BA5
:100B800022462B462046294619F088F902460B4694
:100B90008046894619F082F98DA3D3E900230646E1
:100BA0000F4619F07BF98CA3D3E9002318F0C0FF9E
:100BB00032463B4619F072F989A3D3E9002318F0B5
:100BC000B7FF32463B4619F069F987A3D3E9002302
:100BD00018F0AEFF32463B4619F060F984A3D3E922
:100BE000002318F0A5FF32463B4619F057F982A3BF
:100BF000D3E9002318F09CFF42464B4619F04EF90A
:100C00007FA3D3E90023804689463046394619F050
:100C100045F97DA3D3E9002318F088FF32463B460F
:100C200019F03CF97AA3D3E9002318F07FFF32468C
:100C30003B4619F033F978A3D3E9002318F076FF87
:100C400032463B4619F02AF975A3D3E9002318F080
:100C50006DFF32463B4619F021F902460B464046ED
:100C6000494618F065FF22462B4619F017F9BBF1EB
:100C7000FF3F02460B4661D0724B734E4FEACB0BDF
:100C80005B44D3E9002318F051FF22462B4618F0AD
:100C90004DFFB34402460B46DBE9000118F046FF66
:100CA000BAF1000F0DDA01F100431946BDE8F88FE3
:100CB00000283FF451AF22462B462046294618F023
:100CC00037FFBDE8F88F58A3D3E9002318F030FFB1
:100CD00000225E4B19F072FB00283FF44FAF204614
:100CE0002946BDE8F88F16F0D3FE594B9E420446C4
:100CF0000D4629DCA3F550239E424EDC02460B46EE
:100D000018F016FF0022514B18F010FF0022064683
:100D10000F464FF080432046294618F009FF02464F
:100D20000B463046394619F0E3F94FF0000B044604
:100D30000D4625E73EA1D1E90001C2E7204629463C
:100D400018F0F4FEBDE8F88F424B9E421ADC0022F8
:100D5000414B18F0EBFE002206460F463E4B204664
:100D6000294619F09BF80022384B18F0E1FE0246A4
:100D70000B463046394619F0BBF94FF0020B0446DA
:100D80000D46FDE602460B460020344919F0B0F945
:100D90004FF0030B04460D46F2E600222B4B18F0F1
:100DA000C5FE002206460F46284B2046294618F06D
:100DB000BFFE02460B463046394619F099F94FF00E
:100DC000010B04460D46DBE6182D4454FB21F93F88
:100DD00011DA22E33AAD903FEB0D76244B7BA93F2D
:100DE000513DD0A0660DB13F6E204CC5CD45B73FFB
:100DF000FF8300922449C23F0D5555555555D53FA7
:100E00002F6C6A2C44B4A2BF9AFDDE522DDEAD3F9A
:100E10006D9A74AFF2B0B33F711623FEC671BC3F3A
:100E2000C4EB98999999C93F9C7500883CE4377E3A
:100E3000182D4454FB21F9BFFFFF0F440000F07F41
:100E4000FFFFDB3FC8B10100A8B101000000F03F87
:100E5000FFFFF23FFF7F03400000F83F0000F0BFBC
:100E60002DE9F041C1F30A57A7F2FF35132D0246D1
:100E70000B460C468846064620DC002D4ADB364FE2
:100E80002F4101EA070C5CEA000C1CD030A3D3E927
:100E9000002318F04DFE0022002319F08FFA48B10C
:100EA000002C04DD4FF4801343FA05F5A84428EA2A
:100EB0000704002621463046BDE8F081332D06DDCB
:100EC000B5F5806F38D010461946BDE8F081A7F21D
:100ED00013474FF0FF3C2CFA07F70742F3D01CA34F
:100EE000D3E9002318F024FE0022002319F066FA4B
:100EF0000028DFD0002C09DD142D22D00123C5F1FC
:100F0000340503FA05F5AE1928BF984426EA07060A
:100F10004446CFE70EA3D3E9002318F009FE0022D0
:100F2000002319F04BFA0028C4D0002C0CDB264318
:100F300005D00026094CBDE718F0FAFDC5E7344698
:100F4000B8E704F10108E1E700264FF00044B1E7FB
:100F50009C7500883CE4377EFFFF0F000000F03FE7
:100F60002DE9F041C1F30A57A7F2FF35132D0246D0
:100F70000B460C46884606461DDC002D3CDB364FF2
:100F80002F4101EA070C5CEA000C19D030A3D3E929
:100F9000002318F0CDFD0022002319F00FFAC8B38A
:100FA000002C04DA4FF4801343FA05F5A84428EA2C
:100FB000070400262EE0332D06DDB5F5806F2DD019
:100FC00010461946BDE8F081A7F213474FF0FF3CE9
:100FD0002CFA07F70742F3D01DA3D3E9002318F03A
:100FE000A7FD0022002319F0E9F998B1002C21DBBC
:100FF00026EA070644460DE015A3D3E9002318F0BE
:1010000097FD0022002319F0D9F918B1002C08DB54
:101010000026344621463046BDE8F08118F088FDB0
:10102000D0E724F000430D4A1E43002E18BF14469B
:101030000026EFE7142D08D00123C5F1340503FA8B
:1010400005F5AE1928BF9844D2E704F10108CFE7AF
:101050009C7500883CE4377EFFFF0F000000F0BF66
:101060002DE9F04FD84B994287B08046894643DD41
:10107000D64B99420E4600F3F480D54B994240F38B
:101080002D819FEDBB7B8DED047B4FEA215A0446F9
:10109000AAF2FF3ACF4BC6F313069E4246F07F55A5
:1010A00000F3128145F44015204629460022CA4B20
:1010B00018F03CFD002204460D46C84B18F0EEFE29
:1010C00022462B4618F0EAFEA046CDE90201A946C9
:1010D000CDE90001002E3AD1002200232046294606
:1010E00019F044F9002800F01B81BAF1000F40F01C
:1010F000858100200021B8E0B94B21F000449C42DA
:101100000A460FDD0022B74B19F030F9002800F035
:10111000AF80002200230020B34918F0E9FF07B098
:10112000BDE8F08FB14B9C4240F3AF80B04B1A4406
:101130009A4240F2D3800022A84B18F0AFFE4246FC
:101140004B4618F0ABFECDE900014FF0000A00223B
:101150004FF080434046494618F0EAFC02460B46F1
:101160004046494618F0C4FF02460B4606460F4665
:1011700018F094FE80A3D3E9002304460D4618F02E
:101180008DFE7FA3D3E9002318F0D2FC22462B4624
:1011900018F084FE7CA3D3E9002318F0C9FC224692
:1011A0002B4618F07BFE7AA3D3E9002318F0C0FC8D
:1011B00022462B4618F072FE77A3D3E9002318F0DD
:1011C000B7FC22462B4618F069FE75A3D3E900232D
:1011D00018F0AEFC22462B4618F060FE72A3D3E94D
:1011E000002318F0A5FC22462B4618F057FEDDE937
:1011F000002318F09DFC32463B4618F04FFE044693
:101200000D46BAF1000F00F0A880504618F0DCFD42
:1012100067A3D3E9002382468B4618F03FFE66A3FE
:10122000D3E9002306460F465046594618F036FECD
:10123000DDE9042318F07CFC22462B4618F078FCEC
:1012400002460B46DDE9000118F070FC42464B46B1
:1012500018F06CFC02460B463046394618F066FC26
:1012600003E002460B4618F063FC07B0BDE8F08FC0
:1012700042464B464046494618F058FC02460B464B
:1012800018F036FF07B0BDE8F08F0022594B18F078
:101290004FFC0022002319F091F810B1564B9C42EC
:1012A00062DD42464B464046494618F0F7FD0022B3
:1012B0004A4B18F0F3FD02460B464046494618F0EB
:1012C00035FC07B0BDE8F08F45F40015C6F5801673
:1012D00020462946B6100AF1010AE7E600223E4BF5
:1012E0004046494618F024FC4FEA215AAAF2FF3A38
:1012F000BAF1000F04460D460E4640F3BD8042464B
:101300004B4618F013FC02460B460020324918F0F9
:101310000DFC22462B4618F0EBFECDE90401B9E6A0
:1013200027A3D3E900232046294618F0B7FD02463B
:101330000B460020284918F0F9FBDDE9022318F0DC
:10134000ADFD06460F46BAF1000F75D102460B46B9
:101350002046294618F0EAFB87E702460B46DDE9FE
:10136000000118F0E3FBA6E7404649467DE700BFD1
:10137000000000000000000044523EDF12F1C23FB6
:101380009FC678D0099AC33FDE03CB966446C73F19
:10139000AF788E1DC571CC3F599322942449D23F1A
:1013A00004FA97999999D93F935555555555E53F65
:1013B0000000E0FE422EE63F763C7935EF39EA3D0B
:1013C000555555555555E53F7982DA3FFFFFEF7F7B
:1013D000FFFF3F439DA006000000F03F0000E03FFC
:1013E000FFFFEF3F0000F0BF000050C3FFFF1F3EB4
:1013F0003C412D4000005043FFFF8F3C504618F009
:10140000E3FC24A3D3E9002306460F4618F046FD6B
:10141000DDE9042318F08CFB20A3D3E90023044664
:101420000D463046394618F039FD02460B46204637
:10143000294618F07DFB18E7504618F0C5FC17A3A5
:10144000D3E9002382468B4618F028FD11A3D3E987
:101450000023804689465046594618F01FFDDDE9B5
:10146000042318F065FB02460B463046394618F057
:101470005DFB22462B4674E70022054B18F056FB15
:1014800002460B464046494618F050FB41E700BF74
:101490000000F03F763C7935EF39EA3D0000E0FE90
:1014A000422EE63F0000000008B516F065FE04A3DA
:1014B000D3E9002318F01CFE08BD00BFAFF3008085
:1014C000EF39FAFE422EE63F2DE9F043DFF8B48013
:1014D0008BB004460D4601F0F7F898F9003001335F
:1014E00006460F462CD022462B462046294618F0A9
:1014F0006FFF814620BB2046294616F0C9FA1FA37C
:10150000D3E9002318F05AFFD0B1194A98F90030F6
:10151000CDF820900321CDE90445CDE90245CDE980
:10152000001293B113490020022BCDE9060111D11D
:1015300018F08AFA22230360089B9BB9DDE906674D
:10154000304639460BB0BDE8F0830B4B4FF060429C
:10155000CDE90623684618F0F3F80028E8D0089B88
:10156000002BEBD018F070FA089B0360E6E700BF91
:1015700094C401000000F07FFFFFEF477DF8B98FB2
:10158000CE338640FF0100202DE9F043DFF8E480F0
:101590008BB004460D4601F047F998F9003001334D
:1015A00006460F4633D02046294618F0C3F870B3DC
:1015B0002CA3D3E900232046294618F0FFFE8146DC
:1015C00050BB2AA3D3E900232046294618F0D8FEB1
:1015D000E8B198F90030204ACDF820900020002191
:1015E0000426022BCDE90445CDE902450096CDE95C
:1015F0000601019229D0684618F0A2F828B3089B8A
:101600001BB118F021FA089B0360DDE9066730463C
:1016100039460BB0BDE8F0830F4A98F900300192CB
:1016200003210022CDE90445CDE90245009108924D
:101630002BB90A4B4FF06042CDE90623DBE708499E
:101640000020022BCDE90601D5D118F0FDF92223A7
:101650000360D4E7AFF300809CC40100FFFFEF47B5
:101660000000F07FEF39FAFE422E864051302DD532
:10167000104987C0FF0100202DE9F04FDFF82C93BF
:101680008DB006460F4614461D4601F09DFC99F9A3
:101690000080B8F1FF3FCDE9000136D022462B464D
:1016A0002046294618F094FE834670BB32463B46DE
:1016B0003046394618F08CFE8246002840F0A28061
:1016C000304639460022002318F050FE10B30022A5
:1016D00000232046294618F049FE8346002867D09B
:1016E0009FEDA77B0122AC4BCDF828A00292CDE95B
:1016F0000467CDE906458DED087B0393B8F1000F33
:1017000041D09FEDA17B8DED007BDDE900010DB0A7
:10171000BDE8F08FDDE9000118F00CF880460028E4
:1017200000F08D804FF0000A4FF0000BDDE9000162
:1017300052465B4618F01AFE0028E6D0304639467D
:1017400017F0F8FF0028E0D02046294617F0F2FFF6
:101750000028DAD099F900308F4A03920421002240
:10176000022BCDE90467CDE90645CDE908AB02912E
:101770000A9203D002A817F0E3FF50B918F064F9F9
:101780002223036005E002A817F0DAFF002800F02A
:101790009B800A9B1BB118F057F90A9B03609DEDD3
:1017A000087B8DED007BDDE900010DB0BDE8F08F19
:1017B0002046294617F0BEFF0028A6D000220023AD
:1017C0002046294618F0DCFD00289ED0724A99F97F
:1017D0000030CDF828B00121CDE90467CDE90645F8
:1017E000CDE90212002B74D06C490020022BCDE908
:1017F000080172D118F028F9212303600A9B002BFD
:10180000CDD0C8E7002200232046294618F0AEFDBF
:1018100000283FF47AAF624B5F49CDF828B0002230
:101820000120B8F1020FCDE904670290CDE9064529
:10183000CDE908230391A6D1CDE9002365E7304621
:10184000394617F077FF00283FF46CAF2046294651
:1018500017F070FF00283FF465AFDDE90023104664
:10186000194618F0B5FD99F900A000286BD10323A3
:10187000DFF824C10A902946204602930022494BF2
:10188000CDF80CC0CDE90645CDE9046718F006FB9C
:1018900004460D46BAF1000F25D1DFF814B14FF020
:1018A000604A0022002330463946CDE908AB18F0E3
:1018B00067FD38BB02A817F043FF00289ED118F03F
:1018C000C3F82223036099E718F0BEF821230360D0
:1018D0005FE79FED2B7B8DED087B02A817F030FFB3
:1018E00000288BD186E79FED2A7B0022002330461B
:1018F00039468DED087B18F043FDA0B9BAF1020F0F
:10190000DDD0D7E72046294617F022FF22462B4696
:1019100018F02CFDA0B9244B99F900A04FF06042BB
:10192000CDE90823EAE72046294617F011FF2246B1
:101930002B4618F01BFD18B9184B0022CDE90823DF
:1019400099F900A0DAE70122134BCDF82880029222
:10195000CDE90467CDE906450393BAF1000FB8D08D
:10196000002200231046194618F0C2FBBAF1020FFC
:10197000CDE908013FF43EAFAFE700BFAFF3008011
:101980000000000000000000000000000000F03F28
:10199000000000000000F07FB4C401000000F0FF70
:1019A0000000F03F0000E03FFFFFEFC7FF01002015
:1019B000FFFFEF47000000002DE9F84FC44E21F073
:1019C0000043B34204460D460DDD03F1404303F5E9
:1019D0008013034340F0B980002940F34081002088
:1019E0000021BDE8F88FBB4EB34208DCBA4A9342EF
:1019F00000F3B5809CA1D1E90001BDE8F88F002972
:101A0000C0F2708102460B460020B44918F08EF8EF
:101A10000022B34B18F042FA04460D4616F04EFF72
:101A200093A3D3E90023894680462946204618F02F
:101A300035FA91A3D3E9002318F07AF822462B4611
:101A400018F02CFA8EA3D3E9002318F06FF8224681
:101A50002B4618F023FA8CA3D3E9002318F068F87A
:101A600022462B4618F01AFA89A3D3E9002318F06E
:101A70005DF822462B4618F011FA87A3D3E900231C
:101A800018F056F822462B4618F008FA84A3D3E93A
:101A9000002382468B462046294618F0FFF982A390
:101AA000D3E9002318F042F822462B4618F0F6F945
:101AB0007FA3D3E9002318F03BF822462B4618F009
:101AC000EDF97DA3D3E9002318F030F822462B4628
:101AD00018F0E4F90022814B18F02AF802460B4670
:101AE0005046594618F004FB42464B4618F0D6F9CA
:101AF000002682468B4632464B463046494618F011
:101B0000CDF902460B462046294618F00FF832461A
:101B100004460D464B464046494618F009F8024631
:101B20000B462046294618F0E3FA02460B4650467B
:101B3000594617F0FDFF32464B4617F0F9FF0246B3
:101B40000B4617F0F5FFBDE8F88F02460B4617F07D
:101B5000EDFF02460B4618F0CBFABDE8F88F0246BF
:101B60000B4618F09BF942A3D3E9002306460F4623
:101B700018F094F940A3D3E9002317F0D9FF3246B7
:101B80003B4618F08BF93EA3D3E9002317F0CEFFB4
:101B900032463B4618F082F93BA3D3E9002317F005
:101BA000C7FF32463B4618F079F939A3D3E9002341
:101BB00017F0BCFF32463B4618F070F936A3D3E964
:101BC000002317F0B5FF32463B4618F067F934A3FF
:101BD000D3E90023804689463046394618F05EF93D
:101BE00031A3D3E9002317F0A1FF32463B4618F09A
:101BF00055F92FA3D3E9002317F09AFF32463B464D
:101C000018F04CF92CA3D3E9002317F08FFF3246CC
:101C10003B4618F043F90022304B17F089FF02468B
:101C20000B464046494618F063FA22462B4618F008
:101C300035F902460B4622A1D1E9000117F076FFE3
:101C400002460B462046294617F070FF02460B4617
:101C500005A1D1E9000117F069FFBDE8F88F1AA1CD
:101C6000D1E9000179E700BF182D4454FB21F93F69
:101C700009F7FD0DE13D023F88B20175E0EF493FF4
:101C80003B8F68B52882A43F5544880E55C1C93F93
:101C90007D6FEB0312D6D43F555555555555C53F6D
:101CA00082922EB1C5B8B33F59018D1B6C06E63F39
:101CB000C88A599CE52A00404B2D8A1C273A0340CC
:101CC000075C143326A6913C182D4454FB2109408F
:101CD000FFFFEF3FFFFFDF3F0000603C0000F03FF1
:101CE0000000E03F00225C4B17F022FF00225B4B1C
:101CF00018F0D4F840A3D3E9002304460D4618F0A9
:101D0000CDF83FA3D3E9002317F012FF22462B465C
:101D100018F0C4F83CA3D3E9002317F007FF2246CC
:101D20002B4618F0BBF83AA3D3E9002317F000FFC5
:101D300022462B4618F0B2F837A3D3E9002317F058
:101D4000F5FE22462B4618F0A9F835A3D3E9002367
:101D500017F0EEFE22462B4618F0A0F88046894682
:101D60002046294616F0AAFD2FA3D3E900230646F4
:101D70000F462046294618F091F82DA3D3E90023F9
:101D800017F0D4FE22462B4618F088F82AA3D3E990
:101D9000002317F0CDFE22462B4618F07FF828A32B
:101DA000D3E9002317F0C2FE22462B4618F076F83E
:101DB0000022294B17F0BCFE02460B46404649461E
:101DC00018F096F932463B4618F068F81EA3D3E99E
:101DD000002317F0ABFE32463B4617F0A9FE024641
:101DE0000B4617F0A5FE02460B4619A1D1E90001EA
:101DF00017F09CFEB1E600BF09F7FD0DE13D023F83
:101E000088B20175E0EF493F3B8F68B52882A43F57
:101E10005544880E55C1C93F7D6FEB0312D6D43FA0
:101E2000555555555555C53F82922EB1C5B8B33F4E
:101E300059018D1B6C06E63FC88A599CE52A004073
:101E40004B2D8A1C273A0340075C143326A6913C8D
:101E5000182D4454FB2109400000F03F0000E03FF2
:101E6000414A91422DE9F84304460D4637DD3F4A89
:101E700091420B4608DD02F1795291423DDD024666
:101E800017F056FEBDE8F88301F1404202F58012DA
:101E900002432ED0B1F1804F37DC0022344B17F0D3
:101EA00045FE02460B4604460D4617F041FE22460B
:101EB00006460F462B462046294617F0EFFF0246FE
:101EC0000B463046394617F033FE16F0F7FC224633
:101ED0002B4617F02DFEBDE8F843FFF7C1B80246C8
:101EE0000B4617F023FE02460B4618F001F9BDE839
:101EF000F88300200021BDE8F88300F00DFE18A350
:101F0000D3E9002317F014FEF1E7024617F0C6FFED
:101F10000022174B17F00AFE16F0D0FC224680462E
:101F200089462B462046294617F002FE22460646E1
:101F30000F462B464046494617F0FAFD02460B462F
:101F400000200B4918F0D4F80B46024639463046BB
:101F500017F0ECFDBDE8F84300F0DEBDAFF3008004
:101F6000EF39FAFE422EE63FFFFFEF3FFFFFAF41A2
:101F70000000F03F000000002DE9F04FAE4B21F0D3
:101F800000479F4287B004460D4611DD07F14047E8
:101F900007F5801703463B4321D002460B4617F056
:101FA000C5FD02460B4618F0A3F807B0BDE8F08F58
:101FB000A24B9F420E4629DCB7F1795F80F2468141
:101FC00081A3D3E9002317F0B3FD00229C4B18F046
:101FD000F5F9D8B12046294607B0BDE8F08F7CA3BB
:101FE000D3E9002317F05AFF7BA3D3E90023064669
:101FF0000F462046294617F051FF02460B46304651
:10200000394617F095FD07B0BDE8F08F2046294608
:1020100015F03EFD02460B460020894917F086FD6B
:102020000022884B17F03AFF6DA3D3E90023044642
:102030000D4617F033FF6CA3D3E9002317F078FDAA
:1020400022462B4617F02AFF69A3D3E9002317F095
:102050006DFD22462B4617F021FF67A3D3E900232D
:1020600017F066FD22462B4617F018FF64A3D3E94C
:10207000002317F05BFD22462B4617F00FFF62A3EB
:10208000D3E9002317F054FD22462B4617F006FF34
:102090005FA3D3E90023CDE900012046294617F0CC
:1020A000FDFE5DA3D3E9002317F040FD22462B4639
:1020B00017F0F4FE5AA3D3E9002317F039FD2246A6
:1020C0002B4617F0EBFE58A3D3E9002317F02EFDA3
:1020D00022462B4617F0E2FE594B002217F028FD4E
:1020E00082468B4620462946CDE902AB16F0E6FB38
:1020F000554B9F428046894600F3198102460B46A4
:1021000017F016FDDDE90223CDE90401DDE9000148
:1021100017F0EEFF02460B46DDE9040117F0BEFEA4
:102120004FF0000ACDE9000152464B465046494661
:1021300017F0B4FE02460B462046294617F0F6FC7F
:10214000524604460D464B464046494617F0F0FCC1
:1021500002460B462046294617F0CAFF02460B46A8
:1021600017F0E6FC02460B461BA1D1E9000117F06F
:10217000DDFC02460B46DDE9000117F0D7FC5246B4
:1021800004460D464B465046494617F0D1FC0246E0
:102190000B4627A1D1E9000117F0C8FC02460B4607
:1021A0002046294617F0C2FC02460B4620A1D1E981
:1021B000000117F0BBFC002E3FF7F7AE01F1004322
:1021C0001946F2E6AFF300809C7500883CE4377E48
:1021D000182D4454FB21F93F075C143326A6913C8B
:1021E00009F7FD0DE13D023F88B20175E0EF493F7F
:1021F0003B8F68B52882A43F5544880E55C1C93F1E
:102200007D6FEB0312D6D43F555555555555C53FF7
:1022100082922EB1C5B8B33F59018D1B6C06E63FC3
:10222000C88A599CE52A00404B2D8A1C273A034056
:10223000182D4454FB21E93FFFFFEF3FFFFFDF3F35
:102240000000F03F0000E03F3233EF3F02460B4614
:1022500017F024FE4BA3D3E9002306460F4617F0E0
:102260001DFE4AA3D3E9002317F062FC32463B4629
:1022700017F014FE47A3D3E9002317F057FC3246AA
:102280003B4617F00BFE45A3D3E9002317F050FCA3
:1022900032463B4617F002FE42A3D3E9002317F073
:1022A00045FC32463B4617F0F9FD40A3D3E9002335
:1022B00017F03EFC32463B4617F0F0FD3DA3D3E954
:1022C0000023804689463046394617F0E7FD3BA398
:1022D000D3E9002317F02AFC32463B4617F0DEFD17
:1022E00038A3D3E9002317F023FC32463B4617F00E
:1022F000D5FD36A3D3E9002317F018FC32463B4640
:1023000017F0CCFD00221E4B17F012FC02460B46C4
:102310004046494617F0ECFE22462B4617F0BEFD1C
:1023200022462B4617F004FC07B0BDE8F08F52465A
:102330005B46DDE9000117F0DBFE42464B4617F035
:10234000ADFD42464B4617F0F3FB02460B4617F035
:10235000EFFB07A3D3E9002317F0E8FB02460B4687
:1023600005A1D1E9000117F0E1FB24E7AFF30080FC
:10237000075C143326A6913C182D4454FB21F93FE9
:102380000000F03F09F7FD0DE13D023F88B2017505
:10239000E0EF493F3B8F68B52882A43F5544880E43
:1023A00055C1C93F7D6FEB0312D6D43F55555555E6
:1023B0005555C53F82922EB1C5B8B33F59018D1B0B
:1023C0006C06E63FC88A599CE52A00404B2D8A1CC2
:1023D000273A0340000000002DE9F84F1D46534204
:1023E000134325F00049DFF8C8C149EAD3736345B8
:1023F000144606460F4626D8C0F1000848EA0008F1
:1024000021F0004A4AEAD878E04503468B461AD8BC
:1024100005F1404808F5801858EA0208AE4643D056
:102420004FEAA57808F002085AEA030348EAD1788F
:1024300011D1B8F1020F55D0B8F1030F09D14AA15B
:10244000D1E9000105E032463B462046294617F017
:102450006FFBBDE8F88F59EA020329D0E1452ED081
:10246000E24525D0AAEB09094FEA2959B9F13C0FF9
:102470003CDC002D3EDA19F13C0F3BDA0020002154
:10248000B8F1010F4ED0B8F1020F3ED0B8F1000FF5
:10249000DFD037A3D3E9002317F048FB36A3D3E9F5
:1024A000002317F043FBD4E7BDE8F84FFEF744BB29
:1024B000BBF1000F12DB32A1D1E90001C9E7CA4527
:1024C00034D0B8F1020F0DD0B8F1030FB7D0B8F186
:1024D000010F4FF0000036D00021BAE72AA1D1E960
:1024E0000001B6E724A1D1E90001B2E724A1D1E9B6
:1024F0000001C5E722462B463046394617F0F8FD65
:1025000015F0C6FAFEF718FBBAE719A3D3E90023C2
:1025100017F00CFB02460B4617A1D1E9000117F09A
:1025200005FB96E701F10043194692E7B8F1020F67
:1025300014D0B8F1030F0DD0B8F1010F06D014A1DB
:10254000D1E9000185E74FF0004182E712A1D1E90E
:1025500000017EE712A1D1E900017AE712A1D1E9D9
:10256000000176E7AFF30080182D4454FB2109C029
:10257000075C143326A6A13C182D4454FB210940C6
:10258000182D4454FB21F93F182D4454FB21F9BF69
:10259000182D4454FB21E93F182D4454FB21E9BF79
:1025A000D221337F7CD902C0D221337F7CD9024033
:1025B0000000F07F0000000043422DE9F047034394
:1025C00021F000463C4A46EAD373934204460D4646
:1025D0002AD8964240D0394B9E428A462EDD384B4F
:1025E0009E4235463FDD33460246314617F0A0FA9B
:1025F000224606460F462B4600202F4917F096FA32
:1026000002460B463046394617F072FDFEF728FDAC
:1026100000222C4B17F042FCBAF1000F0CDA01F14A
:1026200000431946BDE8F08702460B4617F07EFAD4
:1026300002460B4617F05CFDBDE8F0871CA3D3E90A
:10264000002317F075FA0022002317F0B7FE48B1F7
:1026500020462946BDE8F0870022002317F048FDF8
:10266000BDE8F087354622462B462046294617F01E
:102670005FFA22462B4606460F4617F00FFC22460D
:10268000804689462B4600200B4917F04FFA024638
:102690000B464046494617F02BFD32463B4617F0A5
:1026A00047FAFEF7DDFC0022064B17F0F7FBB3E715
:1026B0009C7500883CE4377E0000F03FFFFF2F3E12
:1026C000FFFFDF3F0000E03F2DE9F8434E4B21F0D4
:1026D00000449C4206460F461BDC4C4B9C4222DDCC
:1026E0004B4B9C4254DD4B4B9C4246DD4A4B9C423B
:1026F0006FDD01339C4269D041A3D3E9002310462A
:10270000194617F0CBFB06460F4630463946BDE862
:10271000F88302460B4617F0C1FB06460F463046CB
:102720003946BDE8F88315F0B3F902F04DFC0022FC
:102730003A4B8046894617F0FBF9B4F1725F0646C2
:102740000F46ECDB42464B464046494617F0A6FB97
:1027500032463B4604460D463046394617F0E8F906
:1027600002460B462046294617F0C2FC00222B4B9E
:1027700017F0DEF906460F46D1E715F089F900F0AB
:1027800053F80022264B17F089FB06460F46C6E792
:1027900015F07EF900F048F80022214B06460F465E
:1027A00017F07CFB324604460D463B4600201C4990
:1027B00017F09EFC02460B462046294617F0B8F952
:1027C00006460F4630463946BDE8F883154B984219
:1027D00092D83046394615F05BF90022104B17F0BD
:1027E0005DFB00F021F8002204460D460C4B17F06B
:1027F00055FB22462B4617F051FB06460F468EE747
:102800009C7500883CE4377EFFFFEF7F422ED63F69
:10281000FFFF3540412E8640CD3386400000F03F1B
:102820000000E03F7DF8B98F2DE9F047B04F21F06F
:102830000042BA4284B004460D464FEAD17610D920
:10284000AC4FBA4240F28A80C1F3130303430246FD
:1028500040F0F180002E7ED00020002104B0BDE8C1
:10286000F087A54B9A4200F2B680A44B9A4240F200
:10287000D1804FF0000A22462B462046294617F009
:102880000DFB85A3D3E9002306460F4617F006FB90
:1028900083A3D3E9002317F049F932463B4617F0EA
:1028A000FDFA81A3D3E9002317F042F932463B46F3
:1028B00017F0F4FA7EA3D3E9002317F037F9324674
:1028C0003B4617F0EBFA7CA3D3E9002317F030F96D
:1028D00032463B4617F0E2FA02460B4620462946AE
:1028E00017F024F902460B4606460F4620462946B5
:1028F00017F0D4FA80468946BAF1000F00F0AB8099
:1029000032463B4600204FF0804117F00FF9024657
:102910000B464046494617F0EBFB02460B46DDE905
:10292000020117F003F9DDE9002317F0FFF80B4669
:1029300002467349002017F0F9F86FF47F739A4547
:1029400080F2A3800AF57A7A01EB0A5100224FF057
:10295000B87317F0A3FA04B0BDE8F08758A3D3E921
:10296000002317F02BFD00286BD157A3D3E90023D8
:102970002046294617F004FD00287FF46DAF614919
:1029800053A3D3E9002301EBC6062046294617F0DE
:1029900085FAD6E9002317F0CBF817F02FFD824611
:1029A00017F012FA4CA3D3E9002306460F4617F09E
:1029B00075FA02460B462046294617F0B7F848A399
:1029C000D3E90023CDE900013046394617F066FA15
:1029D000CDE9020115E04C4B9A42D0D84B4BF400A4
:1029E0002344D3E9002317F0A1F8494B234493ED86
:1029F000007BCDE900018DED027BC6F1010AAAEB57
:102A0000060ADDE90223DDE9000117F08FF804462C
:102A10000D4630E734A3D3E9002317F089F80022EC
:102A2000374B17F0CBFCA8B3204629460022344B85
:102A300017F07EF88FE70B4617F07AF804B0BDE880
:102A4000F08729A3D3E900231046194617F026FA88
:102A500004B0BDE8F0873046394600224FF080438D
:102A600017F064F802460B464046494617F040FB13
:102A700022462B4617F05AF802460B460020204902
:102A800017F054F804B0BDE8F08701EB0A5104B028
:102A9000BDE8F0878246EEE6D0A4BE726937663E96
:102AA000F16BD2C541BDBB3E2CDE25AF6A56113F4E
:102AB00093BDBE166CC1663F3E5555555555C53F35
:102AC000EF39FAFE422E864051302DD5104987C08D
:102AD000FE822B654715F73F0000E0FE422EE63FE1
:102AE000763C7935EF39EA3D9C7500883CE4377EC9
:102AF000412E8640FFFFEF7F422ED63FFFFF2F3E45
:102B00000000F03FE8B10100B1A2F03FF8B10100D0
:102B100008B20100000000002DE9F04FB1F5801F60
:102B200085B006460F460B4680F2D08021F0004269
:102B3000024300F0DA800029C0F2E9800022D64B7F
:102B400017F0ACF9D54A0B46934206460F466FF094
:102B5000350E00F3C180C3F3130505F5152C0CF6F3
:102B6000647C0CF4801C8CF07F5282F440121C15A3
:102B700042EA0507A4F2FF3474440022C84B3046F1
:102B8000394604EB1C5416F0D1FFAB1CC3F31303FE
:102B9000022B82468B464FF0000240F3AF804FF08D
:102BA000804316F0C5FF02460B465046594617F0C3
:102BB0009FFA064620460F4617F006F93246CDE941
:102BC00002013B4630463946CDE9006717F066F909
:102BD00002460B468046894617F060F99AA3D3E96E
:102BE000002306460F4617F059F999A3D3E90023AD
:102BF00016F09EFF32463B4617F050F996A3D3E9F4
:102C0000002316F095FF32463B4617F047F994A390
:102C1000D3E9002316F08CFF42464B4617F03EF9ED
:102C200091A3D3E90023804689463046394617F000
:102C300035F98FA3D3E9002316F07AFF32463B46DD
:102C400017F02CF98CA3D3E9002316F071FF32465C
:102C50003B4617F023F90B4602464946404616F01C
:102C600067FFA5F5C223C5F5D725A3F27A435135F1
:102C70001D43002D06460F4640F387800022894BF6
:102C80005046594617F00AF952465B4617F006F9C6
:102C900002460B46804689463046394616F048FFC4
:102CA000DDE9002317F0FAF806460F46002C40F045
:102CB000818002460B464046494616F037FF0246E1
:102CC0000B465046594616F031FF0BE0734A9342CB
:102CD0004FF0000E7FF73FAF32463B463046394655
:102CE00016F026FF05B0BDE8F08F0022002300207B
:102CF0006D4917F0FDF905B0BDE8F08F002317F01E
:102D000035FB60B1002C7CD100200021EAE70246AF
:102D100016F00CFF0022002317F0EAF9E2E758A3AF
:102D2000D3E900235046594617F0B8F802460B463F
:102D300000205C4916F0FAFE524606460F465B46F6
:102D40005046594617F0AAF802460B463046394617
:102D500017F0A4F806460F462CB3204617F034F8B7
:102D600049A3D3E900238046894617F097F848A382
:102D7000D3E9002304460D464046494617F08EF835
:102D800002460B46304639462CE002460B4650467A
:102D9000594616F0CBFEDDE9002317F07FF8064612
:102DA0000F46002C47D132463B465046594616F056
:102DB000BDFE97E734A3D3E90023DDE9020117F054
:102DC0006DF833A3D3E9002304460D46DDE9020183
:102DD00017F064F832463B4616F0AAFE02460B4650
:102DE0004046494616F0A2FE52465B4616F09EFE4D
:102DF00002460B462046294616F098FE05B0BDE86F
:102E0000F08F204616F0E0FF1FA3D3E9002306460B
:102E10000F4617F043F81EA3D3E9002304460D46DE
:102E20003046394617F03AF802460B462046294606
:102E300016F07EFE56E7DDE9028913A3D3E90023ED
:102E40004046494691E700BF44523EDF12F1C23F7F
:102E5000DE03CB966446C73F599322942449D23F60
:102E6000935555555555E53F9FC678D0099AC33FB0
:102E7000AF788E1DC571CC3F04FA97999999D93FC7
:102E8000555555555555D53F0000E0FE422EE63FBD
:102E9000763C7935EF39EA3D00005043FFFFEF7F84
:102EA0000000F03F0000E03F000050C300000000C1
:102EB000B1F5801F2DE9F84304460D460B4619DA9B
:102EC00021F00042024359D000295FDB00223A4B37
:102ED00016F0E4FF394A0D462B46934204466FF044
:102EE00035010CDD22462B462046294616F020FEF1
:102EF000BDE8F883314A93424FF00001F2DC181527
:102F0000A0F2FF3008444FEAD0794844C3F31308D5
:102F100016F05AFFC9F57F73033348EA0355064696
:102F20000F4620462946FFF7F7FD1DA3D3E90023EE
:102F3000804689463046394616F0B0FF1AA3D3E9D9
:102F4000002304460D464046494616F0A7FF0246B8
:102F50000B462046294616F0EBFD15A3D3E90023C6
:102F600004460D463046394616F098FF02460B4699
:102F70002046294616F0DCFDBDE8F8830022002338
:102F800000200F4917F0B4F8BDE8F883024616F0A8
:102F9000CDFD0022002317F0ABF8A9E7AFF30080C6
:102FA000362BF111F3FE593D0EE526157BCBDB3FA9
:102FB00000609F501344D33F00005043FFFFEF7F5A
:102FC000000050C3000000002DE9F04F23F0004541
:102FD00055EA020493B00DD06B4E21F00044B44288
:102FE0000F4682460BDD04F1404404F5801454EA98
:102FF0000A0350D16549002013B0BDE8F08F9B460D
:10300000944647D0B542EEDC5F4EB5425DD0002F0E
:1030100080468946CDE900235BDB0026BCF1000F2A
:103020000ED1594B9D423FD0584B9D4200F08880B5
:10303000BBF1804F00F09C80554B9B4500F0B8835E
:103040004046494614F024FDBAF1000F06D1002C89
:1030500059D04E4B27F040429A4254D0FF0F013FC7
:1030600056EA070373D04B4B9D4240F39B8003F11C
:1030700004739D4240F33E84474B9C4272DDBBF19A
:10308000000F72DD3EA3D3E900231046194616F067
:1030900005FFB1E728B1414813B0BDE8F04F16F085
:1030A00051BBA542F7DCAFE704F1404303F58013C1
:1030B00053EA0A039ED0384B9C4240F38383BBF112
:1030C000000F52DBDDE9000196E7BCF1000F9ED056
:1030D00089E7334B9D4231DCA3F154739D429CDD63
:1030E0002B15A3F2FF33142B40F3A583C3F1340354
:1030F0002CFA03F202FA03F363458ED102F00102C7
:10310000C2F102068AE7BBF1000F05DA02460B4660
:1031100000201E4916F0ECFF002FBFF66DAF04F142
:10312000404404F5801454EA060300F03F84012E65
:103130007FF462AF01F1004319465DE702266DE7B7
:10314000BBF1000FC0F248834046494654E742466F
:103150004B461046194616F0E9FC02460B4616F09F
:10316000C7FF49E7BBF1000F8CDB0020002143E7DC
:1031700042464B464046494616F090FE3CE700BFAB
:103180009C7500883CE4377E0000F07F0000F03F33
:103190000000E03F0000E041FFFFEF3F10BA0100F8
:1031A000FFFF3F43B4F5801F80F261830022D24BC2
:1031B00016F074FE6FF0340C0C462315CF4DC4F39B
:1031C0001302A3F2FF3342F07F546344AA420B93ED
:1031D00044F4401440F33F83C94B9A4240F30484C3
:1031E0009FEDAF7B8DED087B8DED107B9FEDAE7B72
:1031F0000B9B8DED067B01330B93A4F5801400250A
:10320000DDE906232146824616F090FCA346DDE95F
:1032100006238046894650462146CDE90CAB16F080
:1032200087FC02460B460020B64916F061FF0A46AD
:103230000146CDE90E12134649460246404616F0B5
:103240002DFE631043F0005382468B4603F50023A6
:103250008C46CDE904AB5919D3460023CDE902BC15
:103260000293DDE902AB002004460D4602460B4600
:103270005046594616F012FE02460B464046494655
:1032800016F054FCDDE9062380468946204629468F
:1032900016F04CFC02460B46DDE90C0116F046FC2C
:1032A00052465B4616F0FAFD02460B46404649463A
:1032B00016F03CFCDDE90E2316F0F0FDDDE90445D7
:1032C000CDE9060122462B462046294616F0E6FDAA
:1032D00077A3D3E9002304460D4616F0DFFD76A35D
:1032E000D3E9002316F024FC22462B4616F0D6FD27
:1032F00073A3D3E9002316F01BFC22462B4616F0DD
:10330000CDFD71A3D3E9002316F012FC22462B4613
:1033100016F0C4FD6EA3D3E9002316F009FC224683
:103320002B4616F0BBFD6CA3D3E9002316F000FC7E
:103330002246804689462B462046294616F0AEFD99
:1033400002460B464046494616F0A8FD5246044642
:103350000D465B46DDE9040116F0EAFBDDE90623D4
:1033600016F09CFD22462B4616F0E2FB52468046A4
:1033700089465B465046594616F090FD0022624B46
:10338000CDE90C0116F0D4FB42464B4616F0D0FBBB
:1033900002980D46044622462B465046594616F0E2
:1033A0007DFD002282468B46574B2046294616F06B
:1033B000BDFBDDE90C2316F0B9FB02460B46404687
:1033C000494616F0B3FBDDE9042316F067FD2246FB
:1033D000804689462B46DDE9060116F05FFD024670
:1033E0000B464046494616F0A3FB804689460246F6
:1033F0000B465046594616F09BFB029838A3D3E97A
:10340000002304460D4616F049FD5246CDE904015D
:103410005B462046294616F089FB02460B4640468D
:10342000494616F083FB30A3D3E9002316F036FD9E
:103430002FA3D3E90023804689462046294616F06B
:103440002DFD02460B464046494616F071FBDDE96C
:10345000102316F06DFB80460B98894616F0B4FCDD
:10346000424682468B464B46DDE9040116F060FB7E
:10347000DDE9082316F05CFB52465B4616F058FB6C
:10348000029852465B4604460D4616F04FFBDDE9B6
:10349000082316F04BFBDDE9042337E0AFF300808F
:1034A0000000000000000000000000000000F03FED
:1034B000EF4E454A287ECA3F65DBC9934A86CD3F19
:1034C00001411DA96074D13F4D268F515555D53FFF
:1034D000FFAB6FDBB66DDB3F033333333333E33F97
:1034E000000000E009C7EE3FFD033ADC09C7EE3FEC
:1034F000F5015B14E02F3EBE000040438E980300B0
:1035000079B60B000000F03F0000084016F00EFBFB
:103510000B4602464946404616F008FB013E56EA75
:10352000070382468B4600F05E819FEDD37B8DEDD5
:10353000047BDDE9001200230E461746CDE9026741
:103540000293DDE9026708463B461146324616F013
:10355000EDFA22462B4616F0A1FCDDE90023804659
:1035600089465046594616F099FC02460B4640469D
:10357000494616F0DDFA3246804689463B462046EB
:103580002946CDE9008916F089FC0B46024606461D
:103590000F464046494616F0CBFAD14B99420446B5
:1035A0000D468A4640F3248101F13F4303F5E003D1
:1035B000034340F0FF81B2A3D3E90023DDE900011A
:1035C00016F0B6FA3246804689463B4620462946E2
:1035D00016F0ACFA02460B464046494616F0EEFE9F
:1035E000002840F0E781A8464FEA2853A3F2FE32B4
:1035F0004FF4801313415344C3F30A52B94DA2F25E
:10360000FF321541C3F3130423EA05010020C2F180
:10361000140B44F48014BAF1000F02460B4644FA2E
:103620000BFB30463946B8BFCBF1000B16F07EFAE3
:1036300006460F463246DDE900013B4616F078FAB1
:103640004FEA0B5A0D4600248FA3D3E900232046EE
:10365000294616F023FC3246804689463B462046E2
:10366000294616F063FA02460B46DDE9000116F022
:103670005DFA87A3D3E9002316F010FC86A3D3E9F3
:10368000002306460F462046294616F007FC024650
:103690000B463046394616F04BFA06460F460246B0
:1036A0000B464046494616F043FA42464B4604460E
:1036B0000D4616F03BFA02460B463046394616F0E8
:1036C00035FA2246804689462B462046294616F082
:1036D000E5FB73A3D3E9002306460F4616F0DEFB95
:1036E00071A3D3E9002316F021FA32463B4616F0C7
:1036F000D5FB6FA3D3E9002316F01AFA32463B46F6
:1037000016F0CCFB6CA3D3E9002316F00FFA324677
:103710003B4616F0C3FB6AA3D3E9002316F008FA70
:1037200032463B4616F0BAFB02460B462046294677
:1037300016F0FCF906460F4602460B46204629467F
:1037400016F0ACFB0022CDE900014FF0804330467B
:10375000394616F0EBF902460B46DDE9000116F09A
:10376000C7FC424606460F464B462046294616F001
:1037700095FB42464B4616F0DBF902460B463046B7
:10378000394616F0D3F922462B4616F0CFF90246F9
:103790000B460020544916F0C9F98A44BAF5801F37
:1037A000C0F232815146DDE9042316F077FB23E4B1
:1037B000002FFFF645AC4046494613B0BDE8F04F38
:1037C00015F07CB8BBF1000FBFF6CFACDDE90034DB
:1037D000184604F100410FE442464B46002042499E
:1037E00016F086FC08E49FED387B8DED047BA0E6A7
:1037F0003E4B21F00048984540F3EA803C4B0B4497
:1038000003430AD132463B4616F090F9DDE9002326
:1038100016F0CAFD00283FF4E7AEDDE904012CA351
:10382000D3E9002316F03AFB29A3D3E9002316F0CD
:1038300035FBFFF7E1BBBCF1000F40F0D280C3F1D4
:10384000140345FA03F202FA03F3AB4200F0E080FE
:103850006646FFF7E9BB9FED207B8DED087B8DED84
:10386000107B9FED057B00258DED067BC8E44FF0B6
:10387000000CA2E4AFF30080000000000000F03F65
:10388000FE822B654715973C00000000432EE63F63
:10389000EF39FAFE422EE63F396CA80C615C20BE7F
:1038A000D0A4BE726937663EF16BD2C541BDBB3E46
:1038B0002CDE25AF6A56113F93BDBE166CC1663F24
:1038C0003E5555555555C53F000000000000F0BF5E
:1038D00059F3F8C21F6EA5010000000000000000AF
:1038E000FFFF8F40FFFF0F000000F03FFFCB904035
:1038F00000346F3F5A4B9C427FF734AC594B9C428B
:103900003FF7BDAB0022574B16F010F944A3D3E9A3
:10391000002304460D4616F0C1FA43A3D3E9002361
:1039200082468B462046294616F0B8FA0022CDE999
:1039300002014D4B2046294616F0B0FA02460B46CE
:103940003BA1D1E9000116F0F1F822462B4616F012
:10395000A5FA02460B460020444916F0E7F8224635
:10396000804689462B462046294616F097FA02469D
:103970000B464046494616F091FA2FA3D3E900239F
:1039800016F08CFA02460B46DDE9020116F0CEF87D
:1039900002460B46804689465046594616F0C8F8FE
:1039A000002004460D4652465B46AFE502460B46F4
:1039B000FFF7CFBBDDE9040121A3D3E9002316F013
:1039C0006DFA1FA3D3E9002316F068FAFFF714BBC2
:1039D000264B98453FF708AEDDE902239246934611
:1039E00031E60026FFF72CBB9FED177B8DED087BA2
:1039F0009FED177B8DED107B9FED177B4FF480259E
:103A00008DED067BFFF7FCBB5A4601F029FDCAE6A7
:103A100002F00102C2F10206FFF706BBAFF300801D
:103A2000000000604715F73F44DF5DF80BAE543EE1
:103A3000555555555555D53FFE822B654715F73FD2
:103A40009C7500883CE4377E0000004003B8E23FEC
:103A500006D0CF43EBFD4C3E000000000000F83FD5
:103A6000FEFFEF3F0000F03F0000D03F0000E03FCE
:103A70002DE9F047CA4B21F000479F4290B08046A5
:103A8000894640F38F80C74B9F420C46924626DC06
:103A90000029B9A3D3E9002340F38F8016F046F83C
:103AA000C14B9F4204460D4600F04781B4A3D3E9C1
:103AB000002316F03BF802460B46CAE900232046D5
:103AC000294616F033F8AEA3D3E9002316F02EF8FA
:103AD0000125CAE90201284610B0BDE8F087B34BC2
:103AE0009F4240F38980B24B9F4200F31C813D15F9
:103AF000A5F21645A7EB055319461F46064616F0D4
:103B00007DFC16F061F98046894642464B463046B8
:103B10003946CDE90A8916F009F80022A54B16F0BE
:103B2000BDF98946804616F069FC16F04DF9064647
:103B30000F4632463B4640464946CDE90C6715F0F4
:103B4000F5FF00229B4B16F0A9F900220023CDE9D6
:103B50000E0116F00BFC002800F0608100233046B7
:103B60003946002216F002FC002814BF012302236C
:103B7000914A019202212A4600910AA8514600F07A
:103B800087FB002C054614DADAF80420DAF80C304A
:103B900002F1004203F100434542CAF80420CAF88A
:103BA0000C3006E000200021C2E90089C2E90201D0
:103BB0000025284610B0BDE8F08715F0B9FF7A4B14
:103BC0009F4204460D4600F00B816DA3D3E900230C
:103BD00015F0AEFF02460B46CAE9002329462046EF
:103BE00015F0A4FF66A3D3E9002315F0A1FF4FF061
:103BF000FF35CAE90201DCE713F04AFF62A3D3E90B
:103C000000238046894616F049F900226B4B15F0D7
:103C10008FFF16F0F3FB054616F0D6F856A3D3E94E
:103C20000023CDE9060116F039F902460B4640465D
:103C3000494615F07BFF52A3D3E90023804689460D
:103C4000DDE90601CDE9028916F028F91F2D0246AB
:103C50000B46CDE9042340F3B380DDE90423DDE91D
:103C6000020115F063FF804689463F15C9F30A53E8
:103C7000FB1A102B40F3B18045A3D3E90023DDE903
:103C8000060116F00BF98046894602460B46DDE92F
:103C9000020115F04BFF02460B46DDE90201CDE9BA
:103CA000082315F043FF42464B4615F03FFF3AA369
:103CB000D3E9002380468946DDE9060116F0EEF8D7
:103CC00042464B4615F032FF0B46CDE90401024651
:103CD000DDE9080115F02AFFC1F30A53FF1A312F5D
:103CE0008046894600F39C809DED087BCAE90089E7
:103CF0008DED027B42464B46DDE9020115F016FFD1
:103D0000DDE9042315F012FF002CCAE90201BFF619
:103D100050AF09F1004401F100436D42CAE900844B
:103D2000CAE9020345E702460B4615F0FFFE0025EF
:103D3000CAE90201CAE900013BE715A3D3E9002360
:103D400015F0F4FE14A3D3E900230D46044615F044
:103D5000EDFE02460B46CAE900232946204615F02F
:103D6000E5FE0DA3D3E9002315F0E0FE0125CAE925
:103D700002011EE7AFF3008000004054FB21F93F31
:103D80003163621A61B4D03D83C8C96D305FE43FCE
:103D90000000601A61B4D03D7370032E8A19A33BF2
:103DA000FB21E93F7BD90240FB21F93FFB2139414F
:103DB000FFFFEF7F0000704158C501000000E03FA9
:103DC0004046494615F0B2FE394B6A1E804653F80C
:103DD0002230BB4289463FF448AFCAE9008989E7EF
:103DE0002BA3D3E9002315F0A3FE2BA3D3E90023D3
:103DF0000D46044615F09CFE02460B46CAE9002318
:103E00002946204615F092FE23A3D3E9002315F09E
:103E10008FFE4FF0FF35CAE90201CAE60323A7E689
:103E20001FA3D3E90023DDE9060116F037F80646A3
:103E30000F4602460B46DDE9080115F077FE804685
:103E4000894602460B46DDE90801CDE9028915F0F5
:103E50006DFE32463B4615F069FE13A3D3E90023FD
:103E600006460F46DDE9060116F018F832463B46D5
:103E700015F05CFE02460B4640464946CDE9042358
:103E800015F054FE80468946A7E700BFAFF30080D7
:103E90000000601A61B4D03D7370032E8A19A33BF1
:103EA0000000002E8A19A33BC14920259A837B3943
:103EB000D8C4010000000000574A2DE9F84F21F056
:103EC0000048904506460F462CDC544B0029B4BFF1
:103ED000534D544D98454FF0000411DC524B98451A
:103EE00026DC4BA3D3E9002315F022FE00224F4B22
:103EF00016F064FA002840D030463946BDE8F88F05
:103F00004B4B984530DD4B4B984568DD0133984568
:103F100062D0304639463EA3D3E9002315F0BEFFF8
:103F2000BDE8F88F02460B4615F002FEBDE8F88F9B
:103F300013F0AEFD01F048F83F4B984506460F469A
:103F400023DD0022394B15F0F3FD02460B463046C7
:103F5000394616F0CDF832463B4615F0E9FD2246CB
:103F60002B4615F09BFFE1E713F092FDFEF75CFC9A
:103F700022462B4615F092FFD8E73046394613F01B
:103F800087FD01F021F806460F4632463B46304693
:103F9000394615F0CDFD324682468B463B463046CB
:103FA000394615F07BFF0022804689461F4B30467C
:103FB000394615F0BDFD02460B464046494616F00F
:103FC00097F802460B465046594615F0AFFD22467B
:103FD0002B4615F063FFA9E7184B984299D8304655
:103FE000394613F055FD00220E4B15F057FFFEF732
:103FF0001BFC06460F4602460B462046294615F096
:104000004DFF32463B4615F049FF8FE7AFF3008086
:104010003374AC3C1F7BAC7FFFFFEF7FFFFF35406D
:104020000000E0BF0000E03FFFFF2F3E0000F03F38
:10403000412E8640CD338640FFFFEF3F7DF8B98F9C
:104040002DE9F04F21F00048B8F1795F85B00646C0
:104050000F4692469B466BDA16F0D0F9002800F026
:10406000E18032463B463046394615F017FF74A3CF
:10407000D3E9002304460D4615F010FF72A3D3E9DF
:10408000002315F055FD22462B4615F007FF70A3BF
:10409000D3E9002315F04AFD22462B4615F0FEFE1B
:1040A0006DA3D3E9002315F043FD22462B4615F0FE
:1040B000F5FE6BA3D3E9002315F038FD22462B460D
:1040C00015F0ECFE68A3D3E9002315F031FD22467C
:1040D0002B4615F0E3FECDE900010022664B204699
:1040E000294615F0DBFEDDE900238046894620469F
:1040F000294615F0D3FE524604460D465B4630462F
:10410000394615F0CBFE02460B462046294615F0EF
:104110000DFD02460B464046494615F007FD024696
:104120000B460020554915F001FD05B0BDE8F08FA4
:1041300002460B4615F0B2FE41A3D3E90023044624
:104140000D4615F0ABFE40A3D3E9002315F0F0FCBB
:1041500022462B4615F0A2FE3DA3D3E9002315F01D
:10416000E5FC22462B4615F099FE3BA3D3E900233C
:1041700015F0DEFC22462B4615F090FE38A3D3E95D
:10418000002315F0D3FC22462B4615F087FE36A3FC
:10419000D3E9002315F0CCFC2B46224615F07EFE19
:1041A000374B9845CDE9000197DD364B98453EDC0D
:1041B000A8F500130022002030499046994615F0DA
:1041C000B5FCCDE9020100222B4B2046294615F013
:1041D00065FE42464B4615F0A9FCDDE9002380460A
:1041E00089462046294615F059FE524604460D469A
:1041F0005B463046394615F051FE02460B462046D6
:10420000294615F093FC02460B464046494615F0F8
:104210008DFC02460B46DDE9020115F087FC05B076
:10422000BDE8F08F1549002005B0BDE8F08F9FED87
:10423000107B4FF000088DED027BDFF84C90C2E759
:10424000D43888BEE9FAA8BDC4B1B4BD9EEE213E03
:10425000AD529C804F7E923E9015CB19A001FA3E44
:104260007751C1166CC1563F4C5555555555A53F14
:10427000000000000000E73F0000E03F0000F03FCA
:104280003233D33F0000E93F0000D23F000000007E
:104290002DE9F04FADF5197DBE4CA29EBE4D54F8F0
:1042A00026600793D41E85FB0475E417C4EBA504B0
:1042B00024EAE4741D46631CA3EB8303013D02EB77
:1042C000C3030593731904960994019503900B9108
:1042D000A4EB05071AD43B44002400255E1C0DF115
:1042E0008008DDF88C9208E059F8270015F06CFD85
:1042F0000137B742E8E8020108D0002FF4DA0137AD
:1043000020462946B742E8E80201F6D1049B002B7B
:10431000079B4FEAC30302932ADB039A20A902EB0F
:10432000030801EB0309049B72AA02EBC30B0DF512
:10433000E07A019B002B4FF000064FF0000711DBE5
:10434000039C4D4675E90223F4E8020115F0A6FD31
:1043500002460B463046394615F0EAFB4445064610
:104360000F46EFD1EAE80267DA4509F10809E0D122
:10437000DDE90204049920448B0082460BA8A3F1D6
:104380000802C31808930CAB13440A938B4698ABEE
:1043900003EBCB03BBF1000F53E9284529DD70ABDC
:1043A00003EBCB080DF1300900227C4B2046294657
:1043B00015F074FD16F022F815F006FD0022784B7A
:1043C00006460F4615F06AFD02460B462046294672
:1043D00015F0ACFB16F012F878E9022349F8040B4B
:1043E0003946304615F0A4FB70AB984504460D469F
:1043F000DAD1DDF81490204629464A4601F030F81B
:1044000000224FF07F5304460D4615F047FDFCF7A0
:10441000A7FD0022634B15F041FD02460B462046E6
:10442000294615F083FB0D46044615F0E7FF80464C
:1044300015F0CAFC0B4602462946204615F076FBCD
:104440004B46002B06460F4640F3E1800BF1FF324E
:104450000CA9C9F1180351F8225045FA03F101FAE9
:1044600003F30CA8EB1A40F82230C9F11705884471
:1044700043FA05F5002D2CDDBBF1000F08F1010812
:1044800040F381820C9C002C40F0A780BBF1010F0F
:104490000AD00CA9012251F8044F531C002C40F003
:1044A0009E809B451A46F6D1059B002B0EDD012B05
:1044B00000F0D980022B09D10BF1FF320CAB0CA913
:1044C00053F82230C3F3150341F82230022D00F0D7
:1044D000AF80002200233046394615F047FF002800
:1044E00000F05382049B0BF1FF394B4510DC0BF1BC
:1044F00080430CAA013B089802EB8303002253F887
:104500000419834242EA0102F9D1002A40F0B68040
:10451000049B0CAA013B52F82330002B40F0A180F1
:104520000A9A012352F8041901330029FAD05B4496
:104530000BF10109994506934CDC099A079909EB9F
:10454000020801EB0B0508F1804802EB030BA39B6B
:1045500008F1FF3803EB880870AB03EBC909A39B94
:1045600020A903EB8B0301EBC505029358F8040F58
:1045700015F02AFC0B4601990246002905F1080BAB
:10458000C5E900234FF000064FF000071CDB039C39
:104590000CE000BFF8C90100ABAAAA2A0000703ED7
:1045A000000070410000204075E90223F4E8020198
:1045B00015F074FC02460B463046394615F0B8FA41
:1045C000544506460F46EFD1029B9845E9E802673D
:1045D0005D46CBD1DDF818B0D9E6012300220CA945
:1045E000C4F180749B4541F822400EDD51F8232030
:1045F00001EB8B0001EB83036FF07F4100E01A6851
:104600008A1A43F8042B8342F9D101244CE706D1DE
:104610000BF1FF330CAA52F82350ED152AE70022C4
:104620007B4B15F0C1FE002840F0A381054650E702
:1046300032463B460020774915F078FA06460F4689
:10464000002C3FF446AF059A7249002000F008FFA5
:1046500002460B463046394615F068FA06460F46C4
:1046600037E7012363E70BF1FF320CAB0CA953F8DA
:104670002230C3F3160341F8223027E70CAB059A2A
:1046800053F82930183ACDE9068505926BB909F13E
:104690008043013B0CA901EB830353F8041909F192
:1046A000FF39183A0029F8D00592059A5949002097
:1046B00000F0D6FEB9F1000F04460D46C0F2C081ED
:1046C0004FEAC90370AA02EB030808930CAB03EB93
:1046D0008906DFF844B14FF0000A08F108070436F4
:1046E00056F8040D15F070FB22462B4615F0D6FB4C
:1046F0005B4667E9020152462046294615F0CEFB8B
:104700000CAB9E4204460D46EAD148AB039301939D
:10471000CDF8149009F10103DDF810900293C3461F
:104720004FF0000AB9F1000FC0F22A81DFF8EC80E7
:104730005D4635A3D3E9002300260027002403E0CB
:10474000544510DCF8E80223F5E8020115F0A6FB59
:1047500002460B463046394615F0EAF90134A145C8
:1047600006460F46ECDA019BE3E802670193029BE1
:104770000AF1010A9A45ABF1080BD3D1A29BDDF8EF
:104780001490032B39D8DFE813F0D9000600060097
:104790004D0048AB0393B9F1000F4FF000004FF00C
:1047A000000109DB039D05EBC904083474E9022309
:1047B00015F0BEF9A542F9D1079B002B40F01E81F0
:1047C0000B9BC3E900010B4603990246D1E90001A6
:1047D00015F0ACF9B9F1000F0CDD4AAD012401343C
:1047E000F5E8022315F0A4F9A145F8DA079B002BA0
:1047F00040F014810B9BC3E90201069B03F0070004
:104800000DF5197DBDE8F08F00000040FB21F93F58
:104810000000E03F0000F03F0000703E30B20100B9
:1048200048AB0393B9F1000F40F32781039ACDF809
:1048300010904FEAC9030193D318D3E900AB09F1F3
:104840000053013B02EBC9080293914678E90267E5
:1048500052465B463046394615F06AF904460D4625
:1048600002460B463046394615F060F952465B4623
:1048700015F05EF9C145A246AB46C8E90201C8E998
:104880000045E3D1DDF81090B9F1010F40F3F58058
:10489000019B039A02991344C900D3E9006701F10F
:1048A000080A019192440DF5947B7AE90289324617
:1048B0003B464046494615F03BF904460D46024644
:1048C0000B464046494615F031F932463B4615F055
:1048D0002FF9D34526462F46CAE90201CAE9004509
:1048E000E3D1019C039B1034002000211C4403F100
:1048F000100574E9022315F01BF9A542F9D1039CB8
:10490000079ED4E90023D4E90245002E00F08A80F6
:1049100003F1004701F100430B99C1E90403069B31
:104920002646944605F1004403F00700C1E900C79C
:10493000C1E902640DF5197DBDE8F08F089C039D67
:104940000834002000212C4474E9022315F0F0F80B
:10495000A542F9D1079B13B101F1004319460B9B06
:10496000C3E90001069B03F007000DF5197DBDE8C2
:10497000F08FBBF1000F08F1010874DD022581E51D
:1049800000260027EFE600248EE5CDE90685059D8B
:10499000304639466A4200F063FD0022384B064635
:1049A0000F4615F001FD00B30022364B3046394664
:1049B00015F074FA15F022FD044615F005FA0022F0
:1049C0002F4B15F06BFA0B4602463946304615F070
:1049D000ADF815F013FD0BF101090CAB183543F8D8
:1049E0002B00059543F829405FE63046394615F01F
:1049F00005FD0CABD94643F82B0056E60B9C01F1A4
:104A00000043C4E900030B4603990246D1E90001C3
:104A100015F08CF8B9F1000F3FF7DFAE01F100435C
:104A20001946E7E60B9EC6E90023069BC6E904018A
:104A300003F00700C6E902450DF5197DBDE8F08FCA
:104A4000A29B032B3FF6D9AE01A252F823F000BF80
:104A5000614A00009347000093470000214800008E
:104A60000020002176E732463B460020064915F03B
:104A70005DF8022506460F462BE5002000213EE7A3
:104A8000000070410000703E0000F03F0000000098
:104A90002DE9F04F21F00046B6F1795F85B004466C
:104AA0000D469046994604DA15F0A8FC002800F05F
:104AB000858022462B462046294615F0EFF906460A
:104AC0000F4602460B462046294615F0E7F941A35A
:104AD000D3E9002382468B463046394615F0DEF98D
:104AE0003EA3D3E9002315F021F832463B4615F0EA
:104AF000D5F93CA3D3E9002315F01AF832463B461A
:104B000015F0CCF939A3D3E9002315F00FF832469C
:104B10003B4615F0C3F937A3D3E9002315F008F895
:104B20000E9BCDE900019BB30022294B404649462C
:104B300015F0B4F9DDE90023CDE9020150465946EC
:104B400015F0ACF902460B46DDE9020114F0EEFF68
:104B500032463B4615F0A2F942464B4614F0E6FFBA
:104B600019A3D3E9002306460F465046594615F0CF
:104B700095F902460B463046394614F0D9FF0246F5
:104B80000B462046294614F0D1FF05B0BDE8F08F52
:104B900002460B463046394615F080F90AA3D3E9A0
:104BA000002314F0C3FF52465B4615F077F9224606
:104BB0002B4614F0BDFF05B0BDE8F08F2046294616
:104BC00005B0BDE8F08F00BF495555555555C53F57
:104BD0000000E03F7CD5CF5A3AD9E53DEB9C2B8ACB
:104BE000E6E55A3E7DFEB157E31DC73ED561C119CA
:104BF000A0012A3FA6F810111111813F000000000A
:104C00002DE9F04FC04C21F0004687B0A642824605
:104C10008B460F46CDE900231ADC15F0EFFB002888
:104C20003FD1109B524601331343334300F0B78109
:104C3000109B012B00F0C0815B460020B34915F0AA
:104C400057FA04460D462046294607B0BDE8F08FC6
:104C5000AF4B9E4225DD002909DADDE900452246F9
:104C600005F10043CDE900230BF100418B4652468C
:104C70005B4685A1D1E9000114F058FFDDE900236E
:104C800004460D4682A1D1E9000114F04FFF9FEDCB
:104C9000827B22462B468DED007B14F049FF824635
:104CA0008B4652465B465046594615F0F7F8024689
:104CB0000B468046894615F0F1F8424604460D46FB
:104CC0004B465046594615F0E9F875A3D3E9002341
:104CD000CDE902012046294615F0E0F872A3D3E998
:104CE000002314F025FF22462B4615F0D7F870A3B9
:104CF000D3E9002314F01CFF22462B4615F0CEF812
:104D00006DA3D3E9002314F013FF22462B4615F0C0
:104D1000C5F86BA3D3E9002314F00AFF22462B4603
:104D200015F0BCF868A3D3E9002314F001FF424654
:104D30004B4615F0B3F866A3D3E90023CDE904018F
:104D40002046294615F0AAF863A3D3E9002314F0FE
:104D5000EFFE22462B4615F0A1F861A3D3E900230C
:104D600014F0E6FE22462B4615F098F85EA3D3E930
:104D7000002314F0DDFE22462B4615F08FF85CA3CD
:104D8000D3E9002314F0D4FE22462B4615F086F812
:104D900059A3D3E9002314F0CBFE02460B46DDE90C
:104DA000040114F0C5FEDDE9022315F077F8DDE912
:104DB000004522462B4614F0BBFE42464B4615F0FA
:104DC0006DF822462B4614F0B3FE4DA3D3E9002321
:104DD00004460D46DDE9020115F060F822462B4637
:104DE00014F0A6FE0B4602468046894650465946B8
:104DF00014F09EFE464B9E4204460D4600F38C8006
:104E0000109B012B3BD002460B4600203F4915F07A
:104E10006FF9002406460F462046294652465B4657
:104E2000CDE90067CDE90201009414F07FFEDDE9D1
:104E300000AB02460B464046494614F077FE524608
:104E40005B4615F02BF8524604460D465B46DDE9FD
:104E5000020115F023F800222E4B14F069FE0246E1
:104E60000B462046294614F063FE32463B4615F0B9
:104E700015F852465B4614F05BFE04460D4620468C
:104E8000294607B0BDE8F08F182D4454FB21E93FB7
:104E9000075C143326A6813C0000000000000000DF
:104EA000D47ABF74702AFB3EE9A7F0320FB8123FE4
:104EB00068108D1AF726303F1583E0FEC8DB573F98
:104EC00093846EE9E326823FFE41B31BBAA1AB3F58
:104ED000735360DBCB75F3BEA69237A0887E143F78
:104EE0000165F2F2D844433F280356C9226D6D3F55
:104EF00037D60684F464963F7AFE10111111C13F33
:104F0000635555555555D53FFFFF2F3E0000F0BF67
:104F10002794E53F0000F03F109814F055FF22461B
:104F2000CDE900012B462046294614F0B7FFDDE904
:104F30000023CDE902012046294614F0F9FD02467E
:104F40000B46DDE9020115F0D3F842464B4614F05A
:104F5000EDFD02460B465046594614F0E7FD024669
:104F60000B4614F0E5FD02460B46DDE9000114F0A6
:104F7000DDFD0446B81700F00200C0F101000D4647
:104F800014F022FF02460B462046294614F086FF05
:104F900004460D462046294607B0BDE8F08F50462E
:104FA000594612F075FD02460B460020044915F0E3
:104FB0009FF804460D4662E754465D465FE700BF32
:104FC0000000F03F000000002DE9F04FCC4A21F036
:104FD0000043934285B082468B460C4620D9C94A8D
:104FE000934200F2D780002C80F2A481ACA3D3E9D5
:104FF00000235046594614F09BFD0022002315F073
:10500000BFF9002840F0D180A7A3D3E90023504680
:10501000594614F043FF02460B460020BA4994E17A
:10502000BA4A934200F2E580B94A934240F22E8197
:10503000002301930022B74B5046594614F02EFF2F
:1050400006460F4602460B465046594614F026FFC8
:1050500097A3D3E9002304460D4614F01FFF96A33F
:10506000D3E9002314F064FD22462B4614F016FF0A
:1050700093A3D3E9002314F059FD22462B4614F0E4
:105080000DFF91A3D3E9002314F052FD22462B46D5
:1050900014F004FF8EA3D3E9002314F047FD224649
:1050A0002B4614F0FBFE00229B4B14F041FD804682
:1050B000894602460B463046394614F0EFFE02465A
:1050C0000B460020954914F031FD064602460B467A
:1050D0000F464046494614F029FD3246804689462F
:1050E0003B465046594614F0D9FE02460B46002076
:1050F0008B4914F01BFD02460B464046494614F00E
:10510000F7FF22462B4614F0C9FE019E02460B46CD
:10511000002E4DD0DDE9026732463B4614F006FD15
:1051200052465B4614F0BAFE32463B4614F0FEFC93
:105130002B46224614F0FAFC019B013306460F462B
:1051400000F02381019B012B7BD0019A531C392B4A
:105150004FEA025500F22881019A132A40F3558143
:10516000019BC3F57F7403340022230514F0E0FC97
:1051700002460B465046594614F0D8FC0022664BB6
:1051800014F0D6FC824605EB010B5046594605B09B
:10519000BDE8F08F634A93421BD9C1F31303034365
:1051A000024640F012810029EFDA00205E490DE04E
:1051B0005046594614F072FE22462B4614F0B6FCB7
:1051C00002460B465046594614F0B0FC05B0BDE807
:1051D000F08F41A3D3E9002315F0F0F800283FF445
:1051E00002AF3FA3D3E900231046194614F056FE40
:1051F000ECE74E4A934200F2EC8000293AA3D3E94F
:10520000002339DA14F094FC39A7D7E900674FF08E
:10521000FF3380468946019332463B464046494625
:1052200014F084FC02460B4682468B4640464946B3
:1052300014F07CFC32463B4614F078FCCDE90201C8
:10524000F8E600223A4B5046594615F099F80028E6
:1052500000F0CC805046594600222E4B14F068FCDA
:1052600002460B463046394614F060FC00224FF0EF
:10527000404314F013FEA9E714F058FC01238046C4
:10528000894601931CA7D7E90067C5E714A3D3E9B2
:10529000002314F04DFC02460B468FE7AFF300806D
:1052A00059F3F8C21F6EA501FE822B654715F73F23
:1052B0002DC3096EB7FD8ABE3952E686CACFD03EED
:1052C000B7DBAA9E19CE143F8555FE19A0015A3F9F
:1052D000F41011111111A13FEF39FAFE422E864050
:1052E0009C7500883CE4377E0000E0FE422EE63FDD
:1052F000763C7935EF39EABD763C7935EF39EA3DD0
:1053000079684340412E86400000E0BF422ED63FE0
:10531000FFFF8F3C0000E03F0000F03F000008402E
:1053200000001840FFFFEF7F0000F0BFB1A2F03F88
:105330000000D0BF44A3D3E900235046594614F0DF
:10534000ADFD02460B460020414914F0F1FB15F07B
:1053500055F8019014F038FD37A3D3E90023064631
:105360000F4614F09BFD02460B465046594614F07A
:10537000DDFB33A3D3E90023804689463046394616
:1053800014F08CFD06460F4646E702460B46504693
:10539000594614F0CBFB00222D4B14F07FFD002268
:1053A0002B4B14F0C3FB11E752465B4614F0BEFBD7
:1053B00002460B460020274914F0B8FB6B1819462B
:1053C0000022244B14F0B2FB00E70B4614F0B0FBB4
:1053D000FCE61DA3D3E9002314F060FD002C024677
:1053E0000B464FF00000AFDA1B49AEE732463B46B2
:1053F0005046594614F09AFB02460B4614F098FBAF
:105400000022144B14F094FBE0E64FF4001343FA2F
:1054100002F452465B4614F089FBC4F17F57002624
:1054200007F5401702460B463046394614F07EFB1E
:10543000A8E600BFAFF300800000E0FE422EE63F8A
:10544000763C7935EF39EA3DFE822B654715F73F0B
:105450000000E03F0000F03F0000E0BF000000005F
:10546000F8B5C1F30A5304460D460E4617460BBB6A
:1054700021F00046034633431BD0354B002214F085
:105480000DFD344B9F4204460D4635DBC1F30A53F4
:105490000E46363B3B4440F2FE72934232DC002B18
:1054A00011DD26F0FF4626F4E00646EA03552046C5
:1054B0002946F8BD40F2FF729342EBD102460B46FB
:1054C00014F036FBF8BD13F1350F28DA4CF25033E7
:1054D0009F4222462B460ADD19A1D1E9000114F0B2
:1054E00097FA17A3D3E9002314F0D8FCF8BD16A14E
:1054F000D1E9000114F08CFA13A3D3E9002314F0CE
:10550000CDFCF8BD22462B460DA1D1E9000114F0D7
:105510007FFA0BA3D3E9002314F0C0FCF8BD26F0FA
:10552000FF4626F4E006363346EA03552046294670
:105530000022094B14F0B2FCF8BD00BFAFF30080AD
:105540009C7500883CE4377E59F3F8C21F6EA501B4
:1055500000005043B03CFFFF0000903C10B5054CEC
:10556000237833B9044B13B10448AFF3008001230F
:10557000237010BD100500200000000050CB01007A
:1055800008B5034B1BB103490348AFF3008008BDC6
:10559000000000001405002050CB0100154B002B2B
:1055A00008BF134B9D46A3F5803A00218B460F465A
:1055B0001348144A121A09F0A7F80F4B002B00D019
:1055C00098470E4B002B00D0984700200021040084
:1055D0000D000D48002802D00C48AFF3008014F0F5
:1055E0004DFA2000290005F0B9F814F033FA00BF95
:1055F0000000080000000220000000000000000081
:1056000000040020A00C00200000000000000000AA
:1056100070B504460E4600F047FA88B103681B6B6C
:1056200005469847082C0CD0A4F10903012B14D986
:105630003246214610230D20BDE8704004F07AB8B0
:1056400070BD2B6828469B6A98470228F0DC2B68BF
:1056500028465B6A04219847EAE72B6828469B6A3C
:1056600098470528E4DC2B6828465B6A08219847A0
:10567000DEE700BF38B52DED028B054600F014FAC9
:10568000044640B103681B6B9847032D03D8DFE83D
:1056900005F02F363D06BDEC028B002038BD2046BC
:1056A0000CF0AEFC07EE900A2046F8EEE78A0CF00C
:1056B000B5FC07EE900A2046B8EEE78A0CF0BCFC79
:1056C00068EE087A07EE100AE8EEA87AB8EEC77A14
:1056D000E7EE077AF5EE407AF1EE10FAB1EEE78ADE
:1056E0001BD4FDEEC87ABDEC028B17EE900A38BDD4
:1056F000BDEC028B2046BDE838400CF081BCBDEC0F
:10570000028B2046BDE838400CF088BCBDEC028B13
:105710002046BDE838400CF08FBC17EE900A12F01E
:1057200067FFDEE738B5044600F0BEF958B10368FC
:105730001B6B0546984744B1012C04D12846BDE8AF
:105740003840FBF73DB9002038BD2846BDE8384059
:10575000FBF716B910B5044600F0A6F928B10368A6
:1057600021465B6ABDE81040184710BD00487047ED
:1057700016FCFFFF704700BF10B5034B03600446E3
:105780000CF03AFA204610BDE0BF010010B5054B01
:10579000036004460CF030FA204615F007F9204665
:1057A00010BD00BFE0BF01002DE9F041032184B02E
:1057B0000546512001F0DAFCDFF8E8C2AE4B0446A2
:1057C00004F00F06C4F3031714F4807408BF634693
:1057D000AA4831463A460BF099FB221C18BF012219
:1057E00031463B4628460EF039FD0023AB60A44805
:1057F0000BF08CFB4FF0FF31032001F0B7FCC0B27F
:1058000004F052FA4FF0FF310446022001F0AEFCE2
:10581000C0B204F049FA002C3BD0002839D0014630
:10582000204604F063F8064600284DD04FF0FF31C3
:10583000462001F09BFC322804464ED04BDD382830
:1058400000F0B18068285FD14FF0FF31012001F0F6
:105850008DFCC0B204F028FA80465C2015F0AFF849
:10586000052301934246009431462B4607460DF02E
:1058700067FCAF603B683846DB6A9847A8680368F6
:105880001B6B98477F480BF041FB284604B0BDE8EE
:10589000F0817D480BF03AFB4FF0FF31192001F009
:1058A00065FCC0B204F000FA4FF0FF310446182046
:1058B00001F05CFCC0B204F0F7F90146204604F0A8
:1058C00015F806460028B1D170480BF01FFB28469A
:1058D00004B0BDE8F081302816D14FF0FF3101202F
:1058E00001F044FCC0B204F0DFF98046502015F00E
:1058F00066F8A4B207460523019342460094314658
:105900002B460DF0C7F9B4E701243268CDE9004415
:105910000023576AAB600F220DF10F03322130468E
:10592000B847002800F085803368CDE900440F2295
:105930005F6A30210DF10F033046B84700284AD086
:105940003368CDE900440D225F6A38210DF10F0361
:105950003046B847002872D03268CDE900440DF1D6
:105960000F03576A682175223046B847002845D191
:10597000682147480BF0CAFA4FF0FF31204601F08A
:10598000F5FBC0B204F090F980465C2015F017F8E2
:1059900005246823CDE90034424631462B460746AC
:1059A0000DF0CEFB65E74FF0FF31012001F0DEFB8B
:1059B000C0B204F079F98046502015F000F80523B4
:1059C0000746019342462B46009431460DF098FA63
:1059D000304B3B604DE730212D480BF097FA3024D7
:1059E0004FF0FF31012001F0C1FBC0B204F05CF9BF
:1059F0008046502014F0E3FF07467CE726480BF072
:105A000085FAAF68002F7FF435AF4FF0FF310320E8
:105A100001F0ACFBC0B204F047F930B11F480BF005
:105A200075FA284604B0BDE8F0811D480BF06EFA07
:105A30004DE7322116480BF069FA3224D0E73821BD
:105A400013480BF063FA4FF0FF31204601F08EFB54
:105A5000C0B204F029F98046502014F0B0FF0524AC
:105A600038230746CDE9003442462B4631460DF037
:105A700047FA084B3B60FCE6B8B20100C8B201002F
:105A8000E8B20100A8B30100F8B201000CB30100B4
:105A900038B3010080B2010024B301004CB301000F
:105AA00088B30100C0B2010038B5114C23680BB1B6
:105AB000986838BD4FF0FF31012001F057FBC0B2AC
:105AC00004F0F2F840B10C2014F079FF0546FFF71E
:105AD0006BFE2560A86838BD4FF0FF31032001F050
