:100000000000022029780100517801005378010096
:100010005578010057780100597801000000000070
:100020000000000000000000000000005B780100FC
:100030005D780100000000005F7801006178010038
:100040006378010063780100C97601008D760100B4
:10005000A176010063780100AD600100817E01009E
:10006000FD710100057201000D720100637801004D
:100070006378010063780100637801006378010010
:100080006378010063780100637801006378010000
:1000900063780100637801006378010063780100F0
:1000A0006378010063780100157201001D72010080
:1000B0006378010063780100000000000000000088
:1000C000637801006378010063780100B576010070
:1000D00063780100637801006378010063780100B0
:1000E000F1760100000000000000000000000000A8
:1000F000000000006378010000000000DD760100D0
:1001000000000000000000000000000000000000EF
:1001100000000000000000000000000000000000DF
:1001200000000000000000000000000000000000CF
:1001300000000000000000000000000000000000BF
:1001400000000000000000000000000000000000AF
:10015000000000000000000000000000000000009F
:10016000000000000000000000000000000000008F
:10017000000000000000000000000000000000007F
:10018000000000000000000000000000000000006F
:10019000000000000000000000000000000000005F
:1001A000000000000000000000000000000000004F
:1001B000000000000000000000000000000000003F
:1001C000000000000000000000000000000000002F
:1001D000000000000000000000000000000000001F
:1001E000000000000000000000000000000000000F
:1001F00000000000000000000000000000000000FF
:100200007CB0EE877CB0EE87FF00FF00FF00FF00B0
:10021000FF00FF00FF00FF00FF00FF00FF00FF00E6
:10022000FF00FF00FF00FF00FF00FF00FF00FF00D6
:10023000FF00FF00FF00FF002DE9F04F85B00391A4
:100240000778A7F10903042B044607F07F0200F1A9
:100250000100F5D9202AF3D02B2F04BF677804467C
:100260002D2F75D09FED427B8DED007B4FF0000868
:100270004FF000099FB34FF0000C25464FF0000AE5
:10028000DFF8FCB0644619E01AF0C2FB80468946EC
:1002900030461AF053FB42464B461AF003FA5246D8
:1002A000804689465B46DDE900013CB31AF0DAFC82
:1002B000CDE90001A44615F8017F7FB1A7F1300612
:1002C000092E52465B4640464946DDD9CCB92E2F11
:1002D00017D115F8017F0124002FEFD12C4642469B
:1002E0004B46DDE900011AF093FB80468946039BEB
:1002F000404649461C6005B0BDE8F08F4FF0010C48
:10030000D9E72C46BCF1000F29D042464B46DDE927
:1003100000011AF07DFB07F0DF07452F8046894674
:10032000E5D10399681C0A221AF0A0F91449024683
:1003300000201AF01DFF02460B46404649461AF0BF
:1003400067FB804689464046494605B0BDE8F08FC8
:100350009FED097B67788DED007B013486E7DFF840
:1003600024904FF000084046494605B0BDE8F08FA4
:10037000000000000000F03F000000000000F0BF9F
:10038000000024400000F87F2DE9F04700231446C8
:100390000022804689461AF0ADFD28B109F10043DC
:1003A00099462D23237001340022002340464946FC
:1003B0001AF096FD28B13022002322706370BDE848
:1003C000F0874046494618F095FE1AF0D1FD73A318
:1003D000D3E900230746494640461AF08BFD002822
:1003E0004ED170A3D3E90023404649461AF0A0FD40
:1003F000002845D10E2F07F1010540F3B980A7F180
:100400000E063246002062491AF0B2FE02460B4642
:10041000404649461AF026FC00225E4B1AF042F98B
:100420001AF0E2FE002DA7F10F0E4FF0010C4DDD8A
:10043000594FDFF87881012245F6F3294FF02E0A53
:10044000494508BF40454FF030030AD3B0EB0800E0
:1004500061EB0901494508BF404503F10103F5D2AD
:10046000DBB2237050EA010304F101084AD195423E
:1004700052DD0132102A4FD0444677E90289DFE786
:10048000002F33DB3A46002041491AF071FE024644
:100490000B46404649461AF0E5FB3BA3D3E900234F
:1004A0008046894601250026404649461AF0B0FAA2
:1004B0000022384B1AF0F6F81AF096FE002DBC46D2
:1004C0004FF0FF3E37464FF00006B1DC23463022A6
:1004D0004FF02E0803F8022B84F80180FC4345D02E
:1004E0001C4403F8012BA342FBD1A1E77A42002070
:1004F00027491AF03DFE02460B46404649461AF08F
:1005000087FACAE7954202F1010204BF84F801A00C
:1005100004F10208102AAFD16EB14246302102F830
:10052000011BC2F1010373444344002BF7DC2EEAA4
:10053000EE7301339844BCF1010F12D0BCF1000FEF
:100540004FF0650388F80030C5BF2B2388F80130D1
:1005500008F1010108F102016046BDE8F04710F022
:10056000E3BA002388F80030BDE8F0871C465FE757
:10057000C7F10E02002006491AF0FAFD3E46024677
:100580000B46012790E700BF0000901EC4BCD64276
:10059000000024400000E03F20BD01008DEDB5A02B
:1005A000F7C6B03E50EFE2D6E41A4B4400407A1052
:1005B00070B54FF0FF3006F097FA04466FF07F40B9
:1005C00006F092FA064620461AF0A8F900220C4BD3
:1005D0001AF01EFA044630460D461AF09FF906A39B
:1005E000D3E900231AF03EFB02460B46204629467B
:1005F0001AF058F870BD00BF0000E0DFFFFF6F4346
:100600000000F03D000000002DE9F04F1D46138969
:10061000AB4288BF536885B004468CBF53F82500B1
:10062000002090468A4606F0D3FE0022904B1AF036
:10063000EFF91AF09DFCB8F808206B1C9A4288BFAD
:10064000D8F8042006468CBF52F82300002006F09C
:10065000BFFE0022864B1AF0DBF91AF089FCB8F8CD
:1006600008300235AB4288BFD8F8043007468CBF4B
:1006700053F82500002006F0ABFE002EC4E9006709
:1006800040F3E280002F40F3DF8071A3D3E9002321
:10069000002584F8285018F04FFC002200238046E3
:1006A00089461AF027FC40B14046494668A3D3E981
:1006B000002319F0F7FF8046894667A3D3E900239A
:1006C000404649461AF034FCC0B165A3D3E9002383
:1006D000404649461AF018FC80B10123404649467D
:1006E00084F8283060A3D3E9002319F0DBFF58A376
:1006F000D3E9002318F020FC8046894600225D4B98
:10070000404649461AF084F918F04AF901F10043CD
:1007100000221946564B1AF07BF91AF029FC49467B
:100720000546404618F0F8F80022514B1AF070F9CF
:100730001AF01EFCDAF804304F49B3F80CB0B3F8E5
:100740000AA0A56007FB0BF303EB010806FB0AF602
:10075000019388FB05234FEA124C00960E444CEAA5
:10076000034C06EA010383FB009A06EB0C0E0EEA2B
:10077000010ED346CA468EFB00675246CDE902679A
:10078000120C42EA0B42DDE902AB0CEA010C8CFBD5
:1007900000674FEA164956460A40360C46EA0B46B1
:1007A00049EA074982FB05AB5F46C144B04456465F
:1007B000CDE90267039FE060360C09EA010908EA07
:1007C000010846EA074689FB05AB334488FB05561A
:1007D000CDE9025655462D0C45EA0B45DDE902AB45
:1007E0000B40AC4403EAE3770CEA010C554623EADC
:1007F000E37367454FEA154502EAE276A8BF67460C
:1008000045EA0B45634522EAE272B8BF6346AE444F
:100810004E450EEA010EA8BF4E464A45B8BF4A46AD
:100820007745A8BF77467345B8BF73464645A8BF0E
:100830004646C4E905634245B8BF4246009801995F
:10084000206261622761E261204605B0BDE8F08F59
:10085000EA2E4454FB211940F4D64354FB21F93FBE
:10086000320D337F7CD91240EA2E4454FB210940DB
:100870000000F0400000E03F0000FFFF000000002B
:100880002DE9F04F2DED028B044683B0C0681AF0BD
:1008900055F88046206989461AF050F8824660690A
:1008A0008B461AF04BF8024601F1004306460F460C
:1008B0004046494618F0D2FA1AF0A2FBE06205461B
:1008C00018F084F90190284618F034F9019B054688
:1008D00018461AF045F842464B461AF099F88046F9
:1008E000284689461AF03CF832463B461AF090F802
:1008F00002460B464046494619F0D2FE02460B46D8
:100900005046594618F0AAFA1AF07AFB002208EE6F
:10091000100A0023304639461AF00AFB28B3B5EE18
:10092000C08AF1EE10FA1CDD11A7D7E9006718EEB6
:10093000100A1AF015F802460B463046394619F0EF
:10094000AFFE32463B4619F0ADFE1AF059FBA062ED
:10095000E38843F00203E38003B0BDEC028BBDE803
:10096000F08F05A7D7E90067E1E784ED0A8AEFE792
:10097000EA2E4454FB21F93FEA2E4454FB21F9BFEF
:1009800008B511F0C5FBDFED0C7A07EE100A67EE33
:10099000277A17EE900A19F0E3FF05A3D3E90023A5
:1009A0001AF060F91AF0E4FA08BD00BFAFF3008056
:1009B000EA2E4454FB2119400000B443000000001B
:1009C00008B511F0B9FBDFED0C7A07EE100A67EEFF
:1009D000277A17EE900A19F0C3FF05A3D3E9002385
:1009E0001AF040F91AF0C4FA08BD00BFAFF3008056
:1009F000EA2E4454FB2119400000B44300000000DB
:100A0000494A21F0004393422DE9704304460D46C4
:100A100049DC464A93420E460EDC3FA3D3E900234D
:100A200019F040FE0022424B1AF082FA00284AD008
:100A300020462946BDE870833E4A934239DCB3F133
:100A4000804F40DD17F064FF2246804689462B46E2
:100A50002046294619F0DCFF0022354B19F022FE12
:100A600018F0F2FD42464B4619F01CFE02460B46BA
:100A700000202F491AF0F6F8424604460D464B4630
:100A80004046494619F00EFE02460B4620462946CE
:100A900019F008FE02F040F8002E08DC01F10043D6
:100AA0001946BDE8708302460B4619F0FBFDBDE810
:100AB000708317F02DFF02F02FF819A3D3E900235C
:100AC00019F0F0FDE8E722462B462046294619F0AA
:100AD0009FFF804689462046294617F019FF0022CD
:100AE00004460D46124B4046494619F0DBFD18F00E
:100AF000ABFD00220E4B19F0D5FD02460B464046D9
:100B000049461AF0AFF822462B4619F0CBFD00F00B
:100B1000A7FAC1E7AFF300809C7500883CE4377EFC
:100B2000EF39FAFE422EE63FFFFFEF7FFFFF2F3E39
:100B30000000F03F0000B0412DE9F84FBE4B21F01E
:100B400000469E4204460D468A460EDDBB4B9E4241
:100B500000F3B18000F0AC80BAF1000F40F3EA80FE
:100B600099A1D1E90001BDE8F88FB54B9E4200F391
:100B7000BA80A3F1DE739E4240F3A5804FF0FF3BA5
:100B800022462B462046294619F042FF02460B46D4
:100B90008046894619F03CFF8DA3D3E90023064621
:100BA0000F4619F035FF8CA3D3E9002319F07AFD25
:100BB00032463B4619F02CFF89A3D3E9002319F0F4
:100BC00071FD32463B4619F023FF87A3D3E900238A
:100BD00019F068FD32463B4619F01AFF84A3D3E9A9
:100BE000002319F05FFD32463B4619F011FF82A346
:100BF000D3E9002319F056FD42464B4619F008FF91
:100C00007FA3D3E90023804689463046394619F050
:100C1000FFFE7DA3D3E9002319F042FD32463B4697
:100C200019F0F6FE7AA3D3E9002319F039FD324614
:100C30003B4619F0EDFE78A3D3E9002319F030FD0F
:100C400032463B4619F0E4FE75A3D3E9002319F0C0
:100C500027FD32463B4619F0DBFE02460B46404676
:100C6000494619F01FFD22462B4619F0D1FEBBF173
:100C7000FF3F02460B4661D0724B734E4FEACB0BDF
:100C80005B44D3E9002319F00BFD22462B4619F0F3
:100C900007FDB34402460B46DBE9000119F000FDF5
:100CA000BAF1000F0DDA01F100431946BDE8F88FE3
:100CB00000283FF451AF22462B462046294619F022
:100CC000F1FCBDE8F88F58A3D3E9002319F0EAFC42
:100CD00000225E4B1AF02CF900283FF44FAF20465B
:100CE0002946BDE8F88F17F013FE594B9E42044683
:100CF0000D4629DCA3F550239E424EDC02460B46EE
:100D000019F0D0FC0022514B19F0CAFC0022064613
:100D10000F464FF080432046294619F0C3FC024697
:100D20000B463046394619F09DFF4FF0000B044644
:100D30000D4625E73EA1D1E90001C2E7204629463C
:100D400019F0AEFCBDE8F88F424B9E421ADC00223F
:100D5000414B19F0A5FC002206460F463E4B2046AB
:100D6000294619F055FE0022384B19F09BFC02462B
:100D70000B463046394619F075FF4FF0020B04461A
:100D80000D46FDE602460B460020344919F06AFF85
:100D90004FF0030B04460D46F2E600222B4B19F0F0
:100DA0007FFC002206460F46284B2046294619F0B4
:100DB00079FC02460B463046394619F053FF4FF096
:100DC000010B04460D46DBE6182D4454FB21F93F88
:100DD00011DA22E33AAD903FEB0D76244B7BA93F2D
:100DE000513DD0A0660DB13F6E204CC5CD45B73FFB
:100DF000FF8300922449C23F0D5555555555D53FA7
:100E00002F6C6A2C44B4A2BF9AFDDE522DDEAD3F9A
:100E10006D9A74AFF2B0B33F711623FEC671BC3F3A
:100E2000C4EB98999999C93F9C7500883CE4377E3A
:100E3000182D4454FB21F9BFFFFF0F440000F07F41
:100E4000FFFFDB3F48BD010028BD01000000F03F6F
:100E5000FFFFF23FFF7F03400000F83F0000F0BFBC
:100E60002DE9F041C1F30A57A7F2FF35132D0246D1
:100E70000B460C468846064620DC002D4ADB364FE2
:100E80002F4101EA070C5CEA000C1CD030A3D3E927
:100E9000002319F007FC002200231AF049F848B19A
:100EA000002C04DD4FF4801343FA05F5A84428EA2A
:100EB0000704002621463046BDE8F081332D06DDCB
:100EC000B5F5806F38D010461946BDE8F081A7F21D
:100ED00013474FF0FF3C2CFA07F70742F3D01CA34F
:100EE000D3E9002319F0DEFB002200231AF020F8DA
:100EF0000028DFD0002C09DD142D22D00123C5F1FC
:100F0000340503FA05F5AE1928BF984426EA07060A
:100F10004446CFE70EA3D3E9002319F0C3FB002218
:100F200000231AF005F80028C4D0002C0CDB26435F
:100F300005D00026094CBDE719F0B4FBC5E73446DF
:100F4000B8E704F10108E1E700264FF00044B1E7FB
:100F50009C7500883CE4377EFFFF0F000000F03FE7
:100F60002DE9F041C1F30A57A7F2FF35132D0246D0
:100F70000B460C46884606461DDC002D3CDB364FF2
:100F80002F4101EA070C5CEA000C19D030A3D3E929
:100F9000002319F087FB0022002319F0C9FFC8B312
:100FA000002C04DA4FF4801343FA05F5A84428EA2C
:100FB000070400262EE0332D06DDB5F5806F2DD019
:100FC00010461946BDE8F081A7F213474FF0FF3CE9
:100FD0002CFA07F70742F3D01DA3D3E9002319F039
:100FE00061FB0022002319F0A3FF98B1002C21DB44
:100FF00026EA070644460DE015A3D3E9002319F0BD
:1010000051FB0022002319F093FF18B1002C08DBDC
:101010000026344621463046BDE8F08119F042FBF7
:10102000D0E724F000430D4A1E43002E18BF14469B
:101030000026EFE7142D08D00123C5F1340503FA8B
:1010400005F5AE1928BF9844D2E704F10108CFE7AF
:101050009C7500883CE4377EFFFF0F000000F0BF66
:101060002DE9F04FD84B994287B08046894643DD41
:10107000D64B99420E4600F3F480D54B994240F38B
:101080002D819FEDBB7B8DED047B4FEA215A0446F9
:10109000AAF2FF3ACF4BC6F313069E4246F07F55A5
:1010A00000F3128145F44015204629460022CA4B20
:1010B00019F0F6FA002204460D46C84B19F0A8FCB8
:1010C00022462B4619F0A4FCA046CDE90201A94610
:1010D000CDE90001002E3AD1002200232046294606
:1010E00019F0FEFE002800F01B81BAF1000F40F05D
:1010F000858100200021B8E0B94B21F000449C42DA
:101100000A460FDD0022B74B19F0EAFE002800F076
:10111000AF80002200230020B34919F0A3FD07B0DF
:10112000BDE8F08FB14B9C4240F3AF80B04B1A4406
:101130009A4240F2D3800022A84B19F069FC424643
:101140004B4619F065FCCDE900014FF0000A002282
:101150004FF080434046494619F0A4FA02460B4638
:101160004046494619F07EFD02460B4606460F46AC
:1011700019F04EFC80A3D3E9002304460D4619F074
:1011800047FC7FA3D3E9002319F08CFA22462B46B3
:1011900019F03EFC7CA3D3E9002319F083FA224620
:1011A0002B4619F035FC7AA3D3E9002319F07AFA1B
:1011B00022462B4619F02CFC77A3D3E9002319F023
:1011C00071FA22462B4619F023FC75A3D3E90023BC
:1011D00019F068FA22462B4619F01AFC72A3D3E9DB
:1011E000002319F05FFA22462B4619F011FCDDE9C5
:1011F000002319F057FA32463B4619F009FC044621
:101200000D46BAF1000F00F0A880504619F096FB89
:1012100067A3D3E9002382468B4619F0F9FB66A346
:10122000D3E9002306460F465046594619F0F0FB15
:10123000DDE9042319F036FA22462B4619F032FA7A
:1012400002460B46DDE9000119F02AFA42464B46F8
:1012500019F026FA02460B463046394619F020FAB4
:1012600003E002460B4619F01DFA07B0BDE8F08F07
:1012700042464B464046494619F012FA02460B4692
:1012800019F0F0FC07B0BDE8F08F0022594B19F0BF
:1012900009FA0022002319F04BFE10B1564B9C4274
:1012A00062DD42464B464046494619F0B1FB0022FA
:1012B0004A4B19F0ADFB02460B464046494619F031
:1012C000EFF907B0BDE8F08F45F40015C6F58016BC
:1012D00020462946B6100AF1010AE7E600223E4BF5
:1012E0004046494619F0DEF94FEA215AAAF2FF3A80
:1012F000BAF1000F04460D460E4640F3BD8042464B
:101300004B4619F0CDF902460B460020324919F040
:10131000C7F922462B4619F0A5FCCDE90401B9E630
:1013200027A3D3E900232046294619F071FB024682
:101330000B460020284919F0B3F9DDE9022319F022
:1013400067FB06460F46BAF1000F75D102460B4601
:101350002046294619F0A4F987E702460B46DDE945
:10136000000119F09DF9A6E7404649467DE700BF18
:10137000000000000000000044523EDF12F1C23FB6
:101380009FC678D0099AC33FDE03CB966446C73F19
:10139000AF788E1DC571CC3F599322942449D23F1A
:1013A00004FA97999999D93F935555555555E53F65
:1013B0000000E0FE422EE63F763C7935EF39EA3D0B
:1013C000555555555555E53F7982DA3FFFFFEF7F7B
:1013D000FFFF3F439DA006000000F03F0000E03FFC
:1013E000FFFFEF3F0000F0BF000050C3FFFF1F3EB4
:1013F0003C412D4000005043FFFF8F3C504619F008
:101400009DFA24A3D3E9002306460F4619F000FBFA
:10141000DDE9042319F046F920A3D3E900230446AB
:101420000D463046394619F0F3FA02460B4620467F
:10143000294619F037F918E7504619F07FFA17A333
:10144000D3E9002382468B4619F0E2FA11A3D3E9CF
:101450000023804689465046594619F0D9FADDE9FD
:10146000042319F01FF902460B463046394619F09D
:1014700017F922462B4674E70022054B19F010F9A4
:1014800002460B464046494619F00AF941E700BFBB
:101490000000F03F763C7935EF39EA3D0000E0FE90
:1014A000422EE63F0000000008B517F0A5FD04A39A
:1014B000D3E9002319F0D6FB08BD00BFAFF30080CD
:1014C000EF39FAFE422EE63F2DE9F043DFF8B48013
:1014D0008BB004460D4601F0F7F898F9003001335F
:1014E00006460F462CD022462B462046294619F0A8
:1014F00029FD814620BB2046294617F009FA1FA383
:10150000D3E9002319F014FDD0B1194A98F900303D
:10151000CDF820900321CDE90445CDE90245CDE980
:10152000001293B113490020022BCDE9060111D11D
:1015300019F044F822230360089B9BB9DDE9066794
:10154000304639460BB0BDE8F0830B4B4FF060429C
:10155000CDE90623684618F0ADFE0028E8D0089BC8
:10156000002BEBD019F02AF8089B0360E6E700BFD8
:101570001CD001000000F07FFFFFEF477DF8B98F1E
:10158000CE338640FF0100202DE9F043DFF8E480F0
:101590008BB004460D4601F047F998F9003001334D
:1015A00006460F4633D02046294618F07DFE70B31C
:1015B0002CA3D3E900232046294619F0B9FC814623
:1015C00050BB2AA3D3E900232046294619F092FCF8
:1015D000E8B198F90030204ACDF820900020002191
:1015E0000426022BCDE90445CDE902450096CDE95C
:1015F0000601019229D0684618F05CFE28B3089BCA
:101600001BB118F0DBFF089B0360DDE9066730467D
:1016100039460BB0BDE8F0830F4A98F900300192CB
:1016200003210022CDE90445CDE90245009108924D
:101630002BB90A4B4FF06042CDE90623DBE708499E
:101640000020022BCDE90601D5D118F0B7FF2223E7
:101650000360D4E7AFF3008024D00100FFFFEF4721
:101660000000F07FEF39FAFE422E864051302DD532
:10167000104987C0FF0100202DE9F04FDFF82C93BF
:101680008DB006460F4614461D4601F09DFC99F9A3
:101690000080B8F1FF3FCDE9000136D022462B464D
:1016A0002046294619F04EFC834670BB32463B4625
:1016B0003046394619F046FC8246002840F0A280A8
:1016C000304639460022002319F00AFC10B30022EC
:1016D00000232046294619F003FC8346002867D0E2
:1016E0009FEDA77B0122AC4BCDF828A00292CDE95B
:1016F0000467CDE906458DED087B0393B8F1000F33
:1017000041D09FEDA17B8DED007BDDE900010DB0A7
:10171000BDE8F08FDDE9000118F0C6FD8046002825
:1017200000F08D804FF0000A4FF0000BDDE9000162
:1017300052465B4619F0D4FB0028E6D030463946C5
:1017400018F0B2FD0028E0D02046294618F0ACFD84
:101750000028DAD099F900308F4A03920421002240
:10176000022BCDE90467CDE90645CDE908AB02912E
:101770000A9203D002A818F09DFD50B918F01EFF80
:101780002223036005E002A818F094FD002800F071
:101790009B800A9B1BB118F011FF0A9B03609DED13
:1017A000087B8DED007BDDE900010DB0BDE8F08F19
:1017B0002046294618F078FD0028A6D000220023F4
:1017C0002046294619F096FB00289ED0724A99F9C6
:1017D0000030CDF828B00121CDE90467CDE90645F8
:1017E000CDE90212002B74D06C490020022BCDE908
:1017F000080172D118F0E2FE212303600A9B002B3E
:10180000CDD0C8E7002200232046294619F068FB06
:1018100000283FF47AAF624B5F49CDF828B0002230
:101820000120B8F1020FCDE904670290CDE9064529
:10183000CDE908230391A6D1CDE9002365E7304621
:10184000394618F031FD00283FF46CAF2046294698
:1018500018F02AFD00283FF465AFDDE900231046AB
:10186000194619F06FFB99F900A000286BD10323EA
:10187000DFF824C10A902946204602930022494BF2
:10188000CDF80CC0CDE90645CDE9046719F0C0F8E4
:1018900004460D46BAF1000F25D1DFF814B14FF020
:1018A000604A0022002330463946CDE908AB19F0E2
:1018B00021FB38BB02A818F0FDFC00289ED118F0CF
:1018C0007DFE2223036099E718F078FE2123036050
:1018D0005FE79FED2B7B8DED087B02A818F0EAFCFB
:1018E00000288BD186E79FED2A7B0022002330461B
:1018F00039468DED087B19F0FDFAA0B9BAF1020F57
:10190000DDD0D7E72046294618F0DCFC22462B46DE
:1019100019F0E6FAA0B9244B99F900A04FF0604203
:10192000CDE90823EAE72046294618F0CBFC2246F9
:101930002B4619F0D5FA18B9184B0022CDE9082327
:1019400099F900A0DAE70122134BCDF82880029222
:10195000CDE90467CDE906450393BAF1000FB8D08D
:10196000002200231046194619F07CF9BAF1020F43
:10197000CDE908013FF43EAFAFE700BFAFF3008011
:101980000000000000000000000000000000F03F28
:10199000000000000000F07F3CD001000000F0FFDC
:1019A0000000F03F0000E03FFFFFEFC7FF01002015
:1019B000FFFFEF47000000002DE9F84FC44E21F073
:1019C0000043B34204460D460DDD03F1404303F5E9
:1019D0008013034340F0B980002940F34081002088
:1019E0000021BDE8F88FBB4EB34208DCBA4A9342EF
:1019F00000F3B5809CA1D1E90001BDE8F88F002972
:101A0000C0F2708102460B460020B44918F048FE2F
:101A10000022B34B18F0FCFF04460D4617F014FEED
:101A200093A3D3E90023894680462946204618F02F
:101A3000EFFF91A3D3E9002318F034FE22462B4692
:101A400018F0E6FF8EA3D3E9002318F029FE224602
:101A50002B4618F0DDFF8CA3D3E9002318F022FEFB
:101A600022462B4618F0D4FF89A3D3E9002318F0AF
:101A700017FE22462B4618F0CBFF87A3D3E900239D
:101A800018F010FE22462B4618F0C2FF84A3D3E9BB
:101A9000002382468B462046294618F0B9FF82A3D0
:101AA000D3E9002318F0FCFD22462B4618F0B0FFC6
:101AB0007FA3D3E9002318F0F5FD22462B4618F04A
:101AC000A7FF7DA3D3E9002318F0EAFD22462B46A9
:101AD00018F09EFF0022814B18F0E4FD02460B46F1
:101AE0005046594619F0BEF842464B4618F090FF52
:101AF000002682468B4632464B463046494618F011
:101B000087FF02460B462046294618F0C9FD32469B
:101B100004460D464B464046494618F0C3FD024672
:101B20000B462046294619F09DF802460B465046C2
:101B3000594618F0B7FD32464B4618F0B3FD024641
:101B40000B4618F0AFFDBDE8F88F02460B4618F0C3
:101B5000A7FD02460B4619F085F8BDE8F88F02464E
:101B60000B4618F055FF42A3D3E9002306460F4663
:101B700018F04EFF40A3D3E9002318F093FD32463E
:101B80003B4618F045FF3EA3D3E9002318F088FD3B
:101B900032463B4618F03CFF3BA3D3E9002318F044
:101BA00081FD32463B4618F033FF39A3D3E90023C9
:101BB00018F076FD32463B4618F02AFF36A3D3E9EB
:101BC000002318F06FFD32463B4618F021FF34A386
:101BD000D3E90023804689463046394618F018FF7D
:101BE00031A3D3E9002318F05BFD32463B4618F0E1
:101BF0000FFF2FA3D3E9002318F054FD32463B46D4
:101C000018F006FF2CA3D3E9002318F049FD324653
:101C10003B4618F0FDFE0022304B18F043FD024613
:101C20000B464046494619F01DF822462B4618F04F
:101C3000EFFE02460B4622A1D1E9000118F030FD6B
:101C400002460B462046294618F02AFD02460B465E
:101C500005A1D1E9000118F023FDBDE8F88F1AA114
:101C6000D1E9000179E700BF182D4454FB21F93F69
:101C700009F7FD0DE13D023F88B20175E0EF493FF4
:101C80003B8F68B52882A43F5544880E55C1C93F93
:101C90007D6FEB0312D6D43F555555555555C53F6D
:101CA00082922EB1C5B8B33F59018D1B6C06E63F39
:101CB000C88A599CE52A00404B2D8A1C273A0340CC
:101CC000075C143326A6913C182D4454FB2109408F
:101CD000FFFFEF3FFFFFDF3F0000603C0000F03FF1
:101CE0000000E03F00225C4B18F0DCFC00225B4B64
:101CF00018F08EFE40A3D3E9002304460D4618F0E9
:101D000087FE3FA3D3E9002318F0CCFC22462B46E4
:101D100018F07EFE3CA3D3E9002318F0C1FC224654
:101D20002B4618F075FE3AA3D3E9002318F0BAFC4D
:101D300022462B4618F06CFE37A3D3E9002318F097
:101D4000AFFC22462B4618F063FE35A3D3E90023EF
:101D500018F0A8FC22462B4618F05AFE8046894609
:101D60002046294617F070FC2FA3D3E9002306462E
:101D70000F462046294618F04BFE2DA3D3E9002339
:101D800018F08EFC22462B4618F042FE2AA3D3E917
:101D9000002318F087FC22462B4618F039FE28A3B2
:101DA000D3E9002318F07CFC22462B4618F030FEC5
:101DB0000022294B18F076FC02460B464046494665
:101DC00018F050FF32463B4618F022FE1EA3D3E91E
:101DD000002318F065FC32463B4618F063FC0246CF
:101DE0000B4618F05FFC02460B4619A1D1E9000131
:101DF00018F056FCB1E600BF09F7FD0DE13D023FCA
:101E000088B20175E0EF493F3B8F68B52882A43F57
:101E10005544880E55C1C93F7D6FEB0312D6D43FA0
:101E2000555555555555C53F82922EB1C5B8B33F4E
:101E300059018D1B6C06E63FC88A599CE52A004073
:101E40004B2D8A1C273A0340075C143326A6913C8D
:101E5000182D4454FB2109400000F03F0000E03FF2
:101E6000414A91422DE9F84304460D4637DD3F4A89
:101E700091420B4608DD02F1795291423DDD024666
:101E800018F010FCBDE8F88301F1404202F5801221
:101E900002432ED0B1F1804F37DC0022344B18F0D2
:101EA000FFFB02460B4604460D4618F0FBFB22469C
:101EB00006460F462B462046294618F0A9FD024645
:101EC0000B463046394618F0EDFB17F0BDFB2246B5
:101ED0002B4618F0E7FBBDE8F843FFF7C1B8024610
:101EE0000B4618F0DDFB02460B4618F0BBFEBDE8C2
:101EF000F88300200021BDE8F88300F00DFE18A350
:101F0000D3E9002318F0CEFBF1E7024618F080FD7C
:101F10000022174B18F0C4FB17F096FB22468046B0
:101F200089462B462046294618F0BCFB2246064629
:101F30000F462B464046494618F0B4FB02460B4676
:101F400000200B4918F08EFE0B46024639463046FB
:101F500018F0A6FBBDE8F84300F0DEBDAFF300804B
:101F6000EF39FAFE422EE63FFFFFEF3FFFFFAF41A2
:101F70000000F03F000000002DE9F04FAE4B21F0D3
:101F800000479F4287B004460D4611DD07F14047E8
:101F900007F5801703463B4321D002460B4618F055
:101FA0007FFB02460B4618F05DFE07B0BDE8F08FE0
:101FB000A24B9F420E4629DCB7F1795F80F2468141
:101FC00081A3D3E9002318F06DFB00229C4B18F08D
:101FD000AFFFD8B12046294607B0BDE8F08F7CA3FB
:101FE000D3E9002318F014FD7BA3D3E900230646B0
:101FF0000F462046294618F00BFD02460B46304698
:10200000394618F04FFB07B0BDE8F08F204629464F
:1020100016F07EFC02460B460020894918F040FB72
:102020000022884B18F0F4FC6DA3D3E9002304468A
:102030000D4618F0EDFC6CA3D3E9002318F032FB39
:1020400022462B4618F0E4FC69A3D3E9002318F0DC
:1020500027FB22462B4618F0DBFC67A3D3E90023BD
:1020600018F020FB22462B4618F0D2FC64A3D3E9DB
:10207000002318F015FB22462B4618F0C9FC62A37A
:10208000D3E9002318F00EFB22462B4618F0C0FCC3
:102090005FA3D3E90023CDE900012046294618F0CB
:1020A000B7FC5DA3D3E9002318F0FAFA22462B46C9
:1020B00018F0AEFC5AA3D3E9002318F0F3FA224635
:1020C0002B4618F0A5FC58A3D3E9002318F0E8FA32
:1020D00022462B4618F09CFC594B002218F0E2FADD
:1020E00082468B4620462946CDE902AB17F0ACFA72
:1020F000554B9F428046894600F3198102460B46A4
:1021000018F0D0FADDE90223CDE90401DDE9000190
:1021100018F0A8FD02460B46DDE9040118F078FC32
:102120004FF0000ACDE9000152464B465046494661
:1021300018F06EFC02460B462046294618F0B0FA0D
:10214000524604460D464B464046494618F0AAFA08
:1021500002460B462046294618F084FD02460B46EF
:1021600018F0A0FA02460B461BA1D1E9000118F0B5
:1021700097FA02460B46DDE9000118F091FA524643
:1021800004460D464B465046494618F08BFA024627
:102190000B4627A1D1E9000118F082FA02460B464E
:1021A0002046294618F07CFA02460B4620A1D1E9C8
:1021B000000118F075FA002E3FF7F7AE01F1004369
:1021C0001946F2E6AFF300809C7500883CE4377E48
:1021D000182D4454FB21F93F075C143326A6913C8B
:1021E00009F7FD0DE13D023F88B20175E0EF493F7F
:1021F0003B8F68B52882A43F5544880E55C1C93F1E
:102200007D6FEB0312D6D43F555555555555C53FF7
:1022100082922EB1C5B8B33F59018D1B6C06E63FC3
:10222000C88A599CE52A00404B2D8A1C273A034056
:10223000182D4454FB21E93FFFFFEF3FFFFFDF3F35
:102240000000F03F0000E03F3233EF3F02460B4614
:1022500018F0DEFB4BA3D3E9002306460F4618F027
:10226000D7FB4AA3D3E9002318F01CFA32463B46B9
:1022700018F0CEFB47A3D3E9002318F011FA324639
:102280003B4618F0C5FB45A3D3E9002318F00AFA32
:1022900032463B4618F0BCFB42A3D3E9002318F0BA
:1022A000FFF932463B4618F0B3FB40A3D3E90023C5
:1022B00018F0F8F932463B4618F0AAFB3DA3D3E9E3
:1022C0000023804689463046394618F0A1FB3BA3DF
:1022D000D3E9002318F0E4F932463B4618F098FBA6
:1022E00038A3D3E9002318F0DDF932463B4618F055
:1022F0008FFB36A3D3E9002318F0D2F932463B46D0
:1023000018F086FB00221E4B18F0CCF902460B4653
:102310004046494618F0A6FC22462B4618F078FBAA
:1023200022462B4618F0BEF907B0BDE8F08F5246A2
:102330005B46DDE9000118F095FC42464B4618F07B
:1023400067FB42464B4618F0ADF902460B4618F0C3
:10235000A9F907A3D3E9002318F0A2F902460B4616
:1023600005A1D1E9000118F09BF924E7AFF3008043
:10237000075C143326A6913C182D4454FB21F93FE9
:102380000000F03F09F7FD0DE13D023F88B2017505
:10239000E0EF493F3B8F68B52882A43F5544880E43
:1023A00055C1C93F7D6FEB0312D6D43F55555555E6
:1023B0005555C53F82922EB1C5B8B33F59018D1B0B
:1023C0006C06E63FC88A599CE52A00404B2D8A1CC2
:1023D000273A0340000000002DE9F84F1D46534204
:1023E000134325F00049DFF8C8C149EAD3736345B8
:1023F000144606460F4626D8C0F1000848EA0008F1
:1024000021F0004A4AEAD878E04503468B461AD8BC
:1024100005F1404808F5801858EA0208AE4643D056
:102420004FEAA57808F002085AEA030348EAD1788F
:1024300011D1B8F1020F55D0B8F1030F09D14AA15B
:10244000D1E9000105E032463B462046294618F016
:1024500029F9BDE8F88F59EA020329D0E1452ED0C9
:10246000E24525D0AAEB09094FEA2959B9F13C0FF9
:102470003CDC002D3EDA19F13C0F3BDA0020002154
:10248000B8F1010F4ED0B8F1020F3ED0B8F1000FF5
:10249000DFD037A3D3E9002318F002F936A3D3E93C
:1024A000002318F0FDF8D4E7BDE8F84FFEF744BB71
:1024B000BBF1000F12DB32A1D1E90001C9E7CA4527
:1024C00034D0B8F1020F0DD0B8F1030FB7D0B8F186
:1024D000010F4FF0000036D00021BAE72AA1D1E960
:1024E0000001B6E724A1D1E90001B2E724A1D1E9B6
:1024F0000001C5E722462B463046394618F0B2FBAC
:1025000016F006FAFEF718FBBAE719A3D3E9002381
:1025100018F0C6F802460B4617A1D1E9000118F0E1
:10252000BFF896E701F10043194692E7B8F1020FB0
:1025300014D0B8F1030F0DD0B8F1010F06D014A1DB
:10254000D1E9000185E74FF0004182E712A1D1E90E
:1025500000017EE712A1D1E900017AE712A1D1E9D9
:10256000000176E7AFF30080182D4454FB2109C029
:10257000075C143326A6A13C182D4454FB210940C6
:10258000182D4454FB21F93F182D4454FB21F9BF69
:10259000182D4454FB21E93F182D4454FB21E9BF79
:1025A000D221337F7CD902C0D221337F7CD9024033
:1025B0000000F07F0000000043422DE9F047034394
:1025C00021F000463C4A46EAD373934204460D4646
:1025D0002AD8964240D0394B9E428A462EDD384B4F
:1025E0009E4235463FDD33460246314618F05AF8E2
:1025F000224606460F462B4600202F4918F050F879
:1026000002460B463046394618F02CFBFEF728FDF3
:1026100000222C4B18F0FCF9BAF1000F0CDA01F192
:1026200000431946BDE8F08702460B4618F038F81B
:1026300002460B4618F016FBBDE8F0871CA3D3E951
:10264000002318F02FF80022002318F071FC48B185
:1026500020462946BDE8F0870022002318F002FB3F
:10266000BDE8F087354622462B462046294618F01D
:1026700019F822462B4606460F4618F0C9F922469D
:10268000804689462B4600200B4918F009F802467F
:102690000B464046494618F0E5FA32463B4618F0EC
:1026A00001F8FEF7DDFC0022064B18F0B1F9B3E7A4
:1026B0009C7500883CE4377E0000F03FFFFF2F3E12
:1026C000FFFFDF3F0000E03F2DE9F8434E4B21F0D4
:1026D00000449C4206460F461BDC4C4B9C4222DDCC
:1026E0004B4B9C4254DD4B4B9C4246DD4A4B9C423B
:1026F0006FDD01339C4269D041A3D3E9002310462A
:10270000194618F085F906460F4630463946BDE8A9
:10271000F88302460B4618F07BF906460F46304612
:102720003946BDE8F88316F0F3F802F04DFC0022BC
:102730003A4B8046894617F0B5FFB4F1725F064602
:102740000F46ECDB42464B464046494618F060F9DE
:1027500032463B4604460D463046394617F0A2FF46
:1027600002460B462046294618F07CFA00222B4BE5
:1027700017F098FF06460F46D1E716F0C9F800F0AB
:1027800053F80022264B18F043F906460F46C6E7D9
:1027900016F0BEF800F048F80022214B06460F461E
:1027A00018F036F9324604460D463B4600201C49D7
:1027B00018F058FA02460B462046294617F072FFD9
:1027C00006460F4630463946BDE8F883154B984219
:1027D00092D83046394616F09BF80022104B18F07C
:1027E00017F900F021F8002204460D460C4B18F0B2
:1027F0000FF922462B4618F00BF906460F468EE7D6
:102800009C7500883CE4377EFFFFEF7F422ED63F69
:10281000FFFF3540412E8640CD3386400000F03F1B
:102820000000E03F7DF8B98F2DE9F047B04F21F06F
:102830000042BA4284B004460D464FEAD17610D920
:10284000AC4FBA4240F28A80C1F3130303430246FD
:1028500040F0F180002E7ED00020002104B0BDE8C1
:10286000F087A54B9A4200F2B680A44B9A4240F200
:10287000D1804FF0000A22462B462046294618F008
:10288000C7F885A3D3E9002306460F4618F0C0F821
:1028900083A3D3E9002317F003FF32463B4618F029
:1028A000B7F881A3D3E9002317F0FCFE32463B467C
:1028B00018F0AEF87EA3D3E9002317F0F1FE3246FC
:1028C0003B4618F0A5F87CA3D3E9002317F0EAFEF5
:1028D00032463B4618F09CF802460B4620462946F5
:1028E00017F0DEFE02460B4606460F4620462946F6
:1028F00018F08EF880468946BAF1000F00F0AB80E0
:1029000032463B4600204FF0804117F0C9FE024698
:102910000B464046494618F0A5F902460B46DDE94C
:10292000020117F0BDFEDDE9002317F0B9FE0B46EA
:1029300002467349002017F0B3FE6FF47F739A4587
:1029400080F2A3800AF57A7A01EB0A5100224FF057
:10295000B87318F05DF804B0BDE8F08758A3D3E968
:10296000002318F0E5FA00286BD157A3D3E9002320
:102970002046294618F0BEFA00287FF46DAF614961
:1029800053A3D3E9002301EBC6062046294618F0DD
:102990003FF8D6E9002317F085FE18F0E9FA8246E1
:1029A00017F0CCFF4CA3D3E9002306460F4618F0DE
:1029B0002FF802460B462046294617F071FE48A321
:1029C000D3E90023CDE900013046394618F020F85C
:1029D000CDE9020115E04C4B9A42D0D84B4BF400A4
:1029E0002344D3E9002317F05BFE494B234493EDC6
:1029F000007BCDE900018DED027BC6F1010AAAEB57
:102A0000060ADDE90223DDE9000117F049FE04466C
:102A10000D4630E734A3D3E9002317F043FE00222C
:102A2000374B18F085FAA8B3204629460022344BCC
:102A300017F038FE8FE70B4617F034FE04B0BDE800
:102A4000F08729A3D3E900231046194617F0E0FFC9
:102A500004B0BDE8F0873046394600224FF080438D
:102A600017F01EFE02460B464046494618F0FAF89B
:102A700022462B4617F014FE02460B460020204942
:102A800017F00EFE04B0BDE8F08701EB0A5104B068
:102A9000BDE8F0878246EEE6D0A4BE726937663E96
:102AA000F16BD2C541BDBB3E2CDE25AF6A56113F4E
:102AB00093BDBE166CC1663F3E5555555555C53F35
:102AC000EF39FAFE422E864051302DD5104987C08D
:102AD000FE822B654715F73F0000E0FE422EE63FE1
:102AE000763C7935EF39EA3D9C7500883CE4377EC9
:102AF000412E8640FFFFEF7F422ED63FFFFF2F3E45
:102B00000000F03F68BD0100B1A2F03F78BD0100B8
:102B100088BD0100000000002DE9F04FB1F5801FD5
:102B200085B006460F460B4680F2D08021F0004269
:102B3000024300F0DA800029C0F2E9800022D64B7F
:102B400017F066FFD54A0B46934206460F466FF0D4
:102B5000350E00F3C180C3F3130505F5152C0CF6F3
:102B6000647C0CF4801C8CF07F5282F440121C15A3
:102B700042EA0507A4F2FF3474440022C84B3046F1
:102B8000394604EB1C5417F08BFDAB1CC3F3130345
:102B9000022B82468B464FF0000240F3AF804FF08D
:102BA000804317F07FFD02460B465046594618F009
:102BB00059F8064620460F4617F0C0FE3246CDE9CA
:102BC00002013B4630463946CDE9006717F020FF49
:102BD00002460B468046894617F01AFF9AA3D3E9AE
:102BE000002306460F4617F013FF99A3D3E90023ED
:102BF00017F058FD32463B4617F00AFF96A3D3E97B
:102C0000002317F04FFD32463B4617F001FF94A317
:102C1000D3E9002317F046FD42464B4617F0F8FE75
:102C200091A3D3E90023804689463046394617F000
:102C3000EFFE8FA3D3E9002317F034FD32463B4665
:102C400017F0E6FE8CA3D3E9002317F02BFD3246E4
:102C50003B4617F0DDFE0B4602464946404617F05C
:102C600021FDA5F5C223C5F5D725A3F27A43513539
:102C70001D43002D06460F4640F387800022894BF6
:102C80005046594617F0C4FE52465B4617F0C0FE48
:102C900002460B46804689463046394617F002FD0B
:102CA000DDE9002317F0B4FE06460F46002C40F085
:102CB000818002460B464046494617F0F1FC024629
:102CC0000B465046594617F0EBFC0BE0734A934213
:102CD0004FF0000E7FF73FAF32463B463046394655
:102CE00017F0E0FC05B0BDE8F08F002200230020C3
:102CF0006D4917F0B7FF05B0BDE8F08F002318F05D
:102D0000EFF860B1002C7CD100200021EAE70246F8
:102D100017F0C6FC0022002317F0A4FFE2E758A337
:102D2000D3E900235046594617F072FE02460B467F
:102D300000205C4917F0B4FC524606460F465B463D
:102D40005046594617F064FE02460B463046394657
:102D500017F05EFE06460F462CB3204617F0EEFD38
:102D600049A3D3E900238046894617F051FE48A3C2
:102D7000D3E9002304460D464046494617F048FE75
:102D800002460B46304639462CE002460B4650467A
:102D9000594617F085FCDDE9002317F039FE064699
:102DA0000F46002C47D132463B465046594617F055
:102DB00077FC97E734A3D3E90023DDE9020117F09C
:102DC00027FE33A3D3E9002304460D46DDE90201C3
:102DD00017F01EFE32463B4617F064FC02460B46D7
:102DE0004046494617F05CFC52465B4617F058FCDB
:102DF00002460B462046294617F052FC05B0BDE8B6
:102E0000F08F204617F09AFD1FA3D3E90023064652
:102E10000F4617F0FDFD1EA3D3E9002304460D461F
:102E20003046394617F0F4FD02460B462046294647
:102E300017F038FC56E7DDE9028913A3D3E9002334
:102E40004046494691E700BF44523EDF12F1C23F7F
:102E5000DE03CB966446C73F599322942449D23F60
:102E6000935555555555E53F9FC678D0099AC33FB0
:102E7000AF788E1DC571CC3F04FA97999999D93FC7
:102E8000555555555555D53F0000E0FE422EE63FBD
:102E9000763C7935EF39EA3D00005043FFFFEF7F84
:102EA0000000F03F0000E03F000050C300000000C1
:102EB000B1F5801F2DE9F84304460D460B4619DA9B
:102EC00021F00042024359D000295FDB00223A4B37
:102ED00017F09EFD394A0D462B46934204466FF08B
:102EE00035010CDD22462B462046294617F0DAFB39
:102EF000BDE8F883314A93424FF00001F2DC181527
:102F0000A0F2FF3008444FEAD0794844C3F31308D5
:102F100017F014FDC9F57F73033348EA03550646DD
:102F20000F4620462946FFF7F7FD1DA3D3E90023EE
:102F3000804689463046394617F06AFD1AA3D3E920
:102F4000002304460D464046494617F061FD0246FF
:102F50000B462046294617F0A5FB15A3D3E900230D
:102F600004460D463046394617F052FD02460B46E0
:102F70002046294617F096FBBDE8F883002200237F
:102F800000200F4917F06EFEBDE8F883024617F0E7
:102F900087FB0022002317F065FEA9E7AFF300804E
:102FA000362BF111F3FE593D0EE526157BCBDB3FA9
:102FB00000609F501344D33F00005043FFFFEF7F5A
:102FC000000050C3000000002DE9F04F23F0004541
:102FD00055EA020493B00DD06B4E21F00044B44288
:102FE0000F4682460BDD04F1404404F5801454EA98
:102FF0000A0350D16549002013B0BDE8F08F9B460D
:10300000944647D0B542EEDC5F4EB5425DD0002F0E
:1030100080468946CDE900235BDB0026BCF1000F2A
:103020000ED1594B9D423FD0584B9D4200F08880B5
:10303000BBF1804F00F09C80554B9B4500F0B8835E
:103040004046494615F064FCBAF1000F06D1002C49
:1030500059D04E4B27F040429A4254D0FF0F013FC7
:1030600056EA070373D04B4B9D4240F39B8003F11C
:1030700004739D4240F33E84474B9C4272DDBBF19A
:10308000000F72DD3EA3D3E900231046194617F066
:10309000BFFCB1E728B1414813B0BDE8F04F17F0CD
:1030A0000BB9A542F7DCAFE704F1404303F5801309
:1030B00053EA0A039ED0384B9C4240F38383BBF112
:1030C000000F52DBDDE9000196E7BCF1000F9ED056
:1030D00089E7334B9D4231DCA3F154739D429CDD63
:1030E0002B15A3F2FF33142B40F3A583C3F1340354
:1030F0002CFA03F202FA03F363458ED102F00102C7
:10310000C2F102068AE7BBF1000F05DA02460B4660
:1031100000201E4917F0A6FD002FBFF66DAF04F189
:10312000404404F5801454EA060300F03F84012E65
:103130007FF462AF01F1004319465DE702266DE7B7
:10314000BBF1000FC0F248834046494654E742466F
:103150004B461046194617F0A3FA02460B4617F0E5
:1031600081FD49E7BBF1000F8CDB0020002143E724
:1031700042464B464046494617F04AFC3CE700BFF2
:103180009C7500883CE4377E0000F07F0000F03F33
:103190000000E03F0000E041FFFFEF3F90C501006D
:1031A000FFFF3F43B4F5801F80F261830022D24BC2
:1031B00017F02EFC6FF0340C0C462315CF4DC4F3E2
:1031C0001302A3F2FF3342F07F546344AA420B93ED
:1031D00044F4401440F33F83C94B9A4240F30484C3
:1031E0009FEDAF7B8DED087B8DED107B9FEDAE7B72
:1031F0000B9B8DED067B01330B93A4F5801400250A
:10320000DDE906232146824617F04AFAA346DDE9A6
:1032100006238046894650462146CDE90CAB17F07F
:1032200041FA02460B460020B64917F01BFD0A463C
:103230000146CDE90E12134649460246404617F0B4
:10324000E7FB631043F0005382468B4603F50023EF
:103250008C46CDE904AB5919D3460023CDE902BC15
:103260000293DDE902AB002004460D4602460B4600
:103270005046594617F0CCFB02460B46404649469D
:1032800017F00EFADDE906238046894620462946D6
:1032900017F006FA02460B46DDE90C0117F000FABA
:1032A00052465B4617F0B4FB02460B464046494681
:1032B00017F0F6F9DDE90E2317F0AAFBDDE9044566
:1032C000CDE9060122462B462046294617F0A0FBF1
:1032D00077A3D3E9002304460D4617F099FB76A3A4
:1032E000D3E9002317F0DEF922462B4617F090FBB6
:1032F00073A3D3E9002317F0D5F922462B4617F024
:1033000087FB71A3D3E9002317F0CCF922462B46A3
:1033100017F07EFB6EA3D3E9002317F0C3F9224612
:103320002B4617F075FB6CA3D3E9002317F0BAF90D
:103330002246804689462B462046294617F068FBE0
:1033400002460B464046494617F062FB5246044689
:103350000D465B46DDE9040117F0A4F9DDE906231B
:1033600017F056FB22462B4617F09CF95246804632
:1033700089465B465046594617F04AFB0022624B8D
:10338000CDE90C0117F08EF942464B4617F08AF949
:1033900002980D46044622462B465046594617F0E1
:1033A00037FB002282468B46574B2046294617F0B2
:1033B00077F9DDE90C2317F073F902460B46404616
:1033C000494617F06DF9DDE9042317F021FB224689
:1033D000804689462B46DDE9060117F019FB0246B7
:1033E0000B464046494617F05DF98046894602463D
:1033F0000B465046594617F055F9029838A3D3E9C1
:10340000002304460D4617F003FB5246CDE90401A4
:103410005B462046294617F043F902460B464046D4
:10342000494617F03DF930A3D3E9002317F0F0FA2D
:103430002FA3D3E90023804689462046294617F06A
:10344000E7FA02460B464046494617F02BF9DDE9FC
:10345000102317F027F980460B98894617F06EFA6B
:10346000424682468B464B46DDE9040117F01AF9C5
:10347000DDE9082317F016F952465B4617F012F9FA
:10348000029852465B4604460D4617F009F9DDE9FD
:10349000082317F005F9DDE9042337E0AFF30080D6
:1034A0000000000000000000000000000000F03FED
:1034B000EF4E454A287ECA3F65DBC9934A86CD3F19
:1034C00001411DA96074D13F4D268F515555D53FFF
:1034D000FFAB6FDBB66DDB3F033333333333E33F97
:1034E000000000E009C7EE3FFD033ADC09C7EE3FEC
:1034F000F5015B14E02F3EBE000040438E980300B0
:1035000079B60B000000F03F0000084017F0C8F843
:103510000B4602464946404617F0C2F8013E56EABD
:10352000070382468B4600F05E819FEDD37B8DEDD5
:10353000047BDDE9001200230E461746CDE9026741
:103540000293DDE9026708463B461146324617F012
:10355000A7F822462B4617F05BFADDE900238046E8
:1035600089465046594617F053FA02460B464046E4
:10357000494617F097F83246804689463B46204632
:103580002946CDE9008917F043FA0B460246064664
:103590000F464046494617F085F8D14B99420446FC
:1035A0000D468A4640F3248101F13F4303F5E003D1
:1035B000034340F0FF81B2A3D3E90023DDE900011A
:1035C00017F070F83246804689463B462046294629
:1035D00017F066F802460B464046494617F0A8FC2D
:1035E000002840F0E781A8464FEA2853A3F2FE32B4
:1035F0004FF4801313415344C3F30A52B94DA2F25E
:10360000FF321541C3F3130423EA05010020C2F180
:10361000140B44F48014BAF1000F02460B4644FA2E
:103620000BFB30463946B8BFCBF1000B17F038F82A
:1036300006460F463246DDE900013B4617F032F8F8
:103640004FEA0B5A0D4600248FA3D3E900232046EE
:10365000294617F0DDF93246804689463B4620462A
:10366000294617F01DF802460B46DDE9000117F068
:1036700017F887A3D3E9002317F0CAF986A3D3E983
:10368000002306460F462046294617F0C1F9024698
:103690000B463046394617F005F806460F460246F7
:1036A0000B464046494616F0FDFF42464B4604464F
:1036B0000D4616F0F5FF02460B463046394616F029
:1036C000EFFF2246804689462B462046294617F0C2
:1036D0009FF973A3D3E9002306460F4617F098F924
:1036E00071A3D3E9002316F0DBFF32463B4617F007
:1036F0008FF96FA3D3E9002316F0D4FF32463B467F
:1037000017F086F96CA3D3E9002316F0C9FF3246FF
:103710003B4617F07DF96AA3D3E9002316F0C2FFF8
:1037200032463B4617F074F902460B4620462946BE
:1037300016F0B6FF06460F4602460B4620462946BF
:1037400017F066F90022CDE900014FF080433046C2
:10375000394616F0A5FF02460B46DDE9000117F0D9
:1037600081FA424606460F464B462046294617F048
:103770004FF942464B4616F095FF02460B4630463F
:10378000394616F08DFF22462B4616F089FF024679
:103790000B460020544916F083FF8A44BAF5801F77
:1037A000C0F232815146DDE9042317F031F923E4F8
:1037B000002FFFF645AC4046494613B0BDE8F04F38
:1037C00015F042BFBBF1000FBFF6CFACDDE900340E
:1037D000184604F100410FE442464B46002042499E
:1037E00017F040FA08E49FED387B8DED047BA0E6EE
:1037F0003E4B21F00048984540F3EA803C4B0B4497
:1038000003430AD132463B4616F04AFFDDE9002366
:1038100017F084FB00283FF4E7AEDDE904012CA398
:10382000D3E9002317F0F4F829A3D3E9002317F014
:10383000EFF8FFF7E1BBBCF1000F40F0D280C3F11D
:10384000140345FA03F202FA03F3AB4200F0E080FE
:103850006646FFF7E9BB9FED207B8DED087B8DED84
:10386000107B9FED057B00258DED067BC8E44FF0B6
:10387000000CA2E4AFF30080000000000000F03F65
:10388000FE822B654715973C00000000432EE63F63
:10389000EF39FAFE422EE63F396CA80C615C20BE7F
:1038A000D0A4BE726937663EF16BD2C541BDBB3E46
:1038B0002CDE25AF6A56113F93BDBE166CC1663F24
:1038C0003E5555555555C53F000000000000F0BF5E
:1038D00059F3F8C21F6EA5010000000000000000AF
:1038E000FFFF8F40FFFF0F000000F03FFFCB904035
:1038F00000346F3F5A4B9C427FF734AC594B9C428B
:103900003FF7BDAB0022574B16F0CAFE44A3D3E9E4
:10391000002304460D4617F07BF843A3D3E90023A8
:1039200082468B462046294617F072F80022CDE9E0
:1039300002014D4B2046294617F06AF802460B4615
:103940003BA1D1E9000116F0ABFE22462B4617F051
:103950005FF802460B460020444916F0A1FE2246BD
:10396000804689462B462046294617F051F80246E4
:103970000B464046494617F04BF82FA3D3E90023E6
:1039800017F046F802460B46DDE9020116F088FE04
:1039900002460B46804689465046594616F082FE3E
:1039A000002004460D4652465B46AFE502460B46F4
:1039B000FFF7CFBBDDE9040121A3D3E9002317F012
:1039C00027F81FA3D3E9002317F022F8FFF714BB51
:1039D000264B98453FF708AEDDE902239246934611
:1039E00031E60026FFF72CBB9FED177B8DED087BA2
:1039F0009FED177B8DED107B9FED177B4FF480259E
:103A00008DED067BFFF7FCBB5A4601F029FDCAE6A7
:103A100002F00102C2F10206FFF706BBAFF300801D
:103A2000000000604715F73F44DF5DF80BAE543EE1
:103A3000555555555555D53FFE822B654715F73FD2
:103A40009C7500883CE4377E0000004003B8E23FEC
:103A500006D0CF43EBFD4C3E000000000000F83FD5
:103A6000FEFFEF3F0000F03F0000D03F0000E03FCE
:103A70002DE9F047CA4B21F000479F4290B08046A5
:103A8000894640F38F80C74B9F420C46924626DC06
:103A90000029B9A3D3E9002340F38F8016F000FE7C
:103AA000C14B9F4204460D4600F04781B4A3D3E9C1
:103AB000002316F0F5FD02460B46CAE90023204616
:103AC000294616F0EDFDAEA3D3E9002316F0E8FD7C
:103AD0000125CAE90201284610B0BDE8F087B34BC2
:103AE0009F4240F38980B24B9F4200F31C813D15F9
:103AF000A5F21645A7EB055319461F46064617F0D3
:103B000037FA16F01BFF8046894642464B46304640
:103B10003946CDE90A8916F0C3FD0022A54B16F0FF
:103B200077FF8946804617F023FA16F007FF06460E
:103B30000F4632463B4640464946CDE90C6716F0F3
:103B4000AFFD00229B4B16F063FF00220023CDE95E
:103B50000E0117F0C5F9002800F0608100233046FF
:103B60003946002217F0BCF9002814BF01230223B4
:103B7000914A019202212A4600910AA8514600F07A
:103B800087FB002C054614DADAF80420DAF80C304A
:103B900002F1004203F100434542CAF80420CAF88A
:103BA0000C3006E000200021C2E90089C2E90201D0
:103BB0000025284610B0BDE8F08716F073FD7A4B5B
:103BC0009F4204460D4600F00B816DA3D3E900230C
:103BD00016F068FD02460B46CAE900232946204636
:103BE00016F05EFD66A3D3E9002316F05BFD4FF0EF
:103BF000FF35CAE90201DCE714F08AFE62A3D3E9CB
:103C000000238046894616F003FF00226B4B16F016
:103C100049FD17F0ADF9054616F090FE56A3D3E91D
:103C20000023CDE9060116F0F3FE02460B4640469E
:103C3000494616F035FD52A3D3E900238046894654
:103C4000DDE90601CDE9028916F0E2FE1F2D0246EC
:103C50000B46CDE9042340F3B380DDE90423DDE91D
:103C6000020116F01DFD804689463F15C9F30A532F
:103C7000FB1A102B40F3B18045A3D3E90023DDE903
:103C8000060116F0C5FE8046894602460B46DDE970
:103C9000020116F005FD02460B46DDE90201CDE901
:103CA000082316F0FDFC42464B4616F0F9FC3AA3F9
:103CB000D3E9002380468946DDE9060116F0A8FE17
:103CC00042464B4616F0ECFC0B46CDE90401024699
:103CD000DDE9080116F0E4FCC1F30A53FF1A312FA5
:103CE0008046894600F39C809DED087BCAE90089E7
:103CF0008DED027B42464B46DDE9020116F0D0FC19
:103D0000DDE9042316F0CCFC002CCAE90201BFF661
:103D100050AF09F1004401F100436D42CAE900844B
:103D2000CAE9020345E702460B4616F0B9FC002536
:103D3000CAE90201CAE900013BE715A3D3E9002360
:103D400016F0AEFC14A3D3E900230D46044616F08A
:103D5000A7FC02460B46CAE900232946204616F076
:103D60009FFC0DA3D3E9002316F09AFC0125CAE9B4
:103D700002011EE7AFF3008000004054FB21F93F31
:103D80003163621A61B4D03D83C8C96D305FE43FCE
:103D90000000601A61B4D03D7370032E8A19A33BF2
:103DA000FB21E93F7BD90240FB21F93FFB2139414F
:103DB000FFFFEF7F00007041D8D001000000E03F1E
:103DC0004046494616F06CFC394B6A1E804653F853
:103DD0002230BB4289463FF448AFCAE9008989E7EF
:103DE0002BA3D3E9002316F05DFC2BA3D3E900231A
:103DF0000D46044616F056FC02460B46CAE900235F
:103E00002946204616F04CFC23A3D3E9002316F0E4
:103E100049FC4FF0FF35CAE90201CAE60323A7E6D1
:103E20001FA3D3E90023DDE9060116F0F1FD0646E4
:103E30000F4602460B46DDE9080116F031FC8046CC
:103E4000894602460B46DDE90801CDE9028916F0F4
:103E500027FC32463B4616F023FC13A3D3E900238C
:103E600006460F46DDE9060116F0D2FD32463B4616
:103E700016F016FC02460B4640464946CDE904239F
:103E800016F00EFC80468946A7E700BFAFF300801E
:103E90000000601A61B4D03D7370032E8A19A33BF1
:103EA0000000002E8A19A33BC14920259A837B3943
:103EB00058D0010000000000574A2DE9F84F21F0CA
:103EC0000048904506460F462CDC544B0029B4BFF1
:103ED000534D544D98454FF0000411DC524B98451A
:103EE00026DC4BA3D3E9002316F0DCFB00224F4B6A
:103EF00017F01EF8002840D030463946BDE8F88F4C
:103F00004B4B984530DD4B4B984568DD0133984568
:103F100062D0304639463EA3D3E9002316F078FD3F
:103F2000BDE8F88F02460B4616F0BCFBBDE8F88FE3
:103F300014F0EEFC01F048F83F4B984506460F465A
:103F400023DD0022394B16F0ADFB02460B4630460E
:103F5000394616F087FE32463B4616F0A3FB224652
:103F60002B4616F055FDE1E714F0D2FCFEF75CFCA1
:103F700022462B4616F04CFDD8E73046394614F061
:103F8000C7FC01F021F806460F4632463B46304654
:103F9000394616F087FB324682468B463B46304612
:103FA000394616F035FD0022804689461F4B3046C3
:103FB000394616F077FB02460B464046494616F056
:103FC00051FE02460B465046594616F069FB224602
:103FD0002B4616F01DFDA9E7184B984299D830469C
:103FE000394614F095FC00220E4B16F011FDFEF739
:103FF0001BFC06460F4602460B462046294616F095
:1040000007FD32463B4616F003FD8FE7AFF3008015
:104010003374AC3C1F7BAC7FFFFFEF7FFFFF35406D
:104020000000E0BF0000E03FFFFF2F3E0000F03F38
:10403000412E8640CD338640FFFFEF3F7DF8B98F9C
:104040002DE9F04F21F00048B8F1795F85B00646C0
:104050000F4692469B466BDA16F08AFF002800F066
:10406000E18032463B463046394616F0D1FC74A317
:10407000D3E9002304460D4616F0CAFC72A3D3E927
:10408000002316F00FFB22462B4616F0C1FC70A34E
:10409000D3E9002316F004FB22462B4616F0B8FCA9
:1040A0006DA3D3E9002316F0FDFA22462B4616F045
:1040B000AFFC6BA3D3E9002316F0F2FA22462B469D
:1040C00016F0A6FC68A3D3E9002316F0EBFA22460B
:1040D0002B4616F09DFCCDE900010022664B2046E0
:1040E000294616F095FCDDE90023804689462046E6
:1040F000294616F08DFC524604460D465B46304676
:10410000394616F085FC02460B462046294616F035
:10411000C7FA02460B464046494616F0C1FA024627
:104120000B460020554916F0BBFA05B0BDE8F08FEC
:1041300002460B4616F06CFC41A3D3E9002304466B
:104140000D4616F065FC40A3D3E9002316F0AAFA49
:1041500022462B4616F05CFC3DA3D3E9002316F063
:104160009FFA22462B4616F053FC3BA3D3E90023CB
:1041700016F098FA22462B4616F04AFC38A3D3E9EB
:10418000002316F08DFA22462B4616F041FC36A38A
:10419000D3E9002316F086FA2B46224616F038FCA7
:1041A000374B9845CDE9000197DD364B98453EDC0D
:1041B000A8F500130022002030499046994616F0D9
:1041C0006FFACDE9020100222B4B2046294616F05A
:1041D0001FFC42464B4616F063FADDE90023804699
:1041E00089462046294616F013FC524604460D46E1
:1041F0005B463046394616F00BFC02460B4620461D
:10420000294616F04DFA02460B464046494616F03E
:1042100047FA02460B46DDE9020116F041FA05B005
:10422000BDE8F08F1549002005B0BDE8F08F9FED87
:10423000107B4FF000088DED027BDFF84C90C2E759
:10424000D43888BEE9FAA8BDC4B1B4BD9EEE213E03
:10425000AD529C804F7E923E9015CB19A001FA3E44
:104260007751C1166CC1563F4C5555555555A53F14
:10427000000000000000E73F0000E03F0000F03FCA
:104280003233D33F0000E93F0000D23F000000007E
:104290002DE9F04FADF5197DBE4CA29EBE4D54F8F0
:1042A00026600793D41E85FB0475E417C4EBA504B0
:1042B00024EAE4741D46631CA3EB8303013D02EB77
:1042C000C3030593731904960994019503900B9108
:1042D000A4EB05071AD43B44002400255E1C0DF115
:1042E0008008DDF88C9208E059F8270016F026FBCC
:1042F0000137B742E8E8020108D0002FF4DA0137AD
:1043000020462946B742E8E80201F6D1049B002B7B
:10431000079B4FEAC30302932ADB039A20A902EB0F
:10432000030801EB0309049B72AA02EBC30B0DF512
:10433000E07A019B002B4FF000064FF0000711DBE5
:10434000039C4D4675E90223F4E8020116F060FB78
:1043500002460B463046394616F0A4F94445064657
:104360000F46EFD1EAE80267DA4509F10809E0D122
:10437000DDE90204049920448B0082460BA8A3F1D6
:104380000802C31808930CAB13440A938B4698ABEE
:1043900003EBCB03BBF1000F53E9284529DD70ABDC
:1043A00003EBCB080DF1300900227C4B2046294657
:1043B00016F02EFB16F0DCFD16F0C0FA0022784B4A
:1043C00006460F4616F024FB02460B4620462946B9
:1043D00016F066F916F0CCFD78E9022349F8040BD3
:1043E0003946304616F05EF970AB984504460D46E6
:1043F000DAD1DDF81490204629464A4601F030F81B
:1044000000224FF07F5304460D4616F001FBFCF7E7
:10441000A7FD0022634B16F0FBFA02460B4620462E
:10442000294616F03DF90D46044616F0A1FD8046DA
:1044300016F084FA0B4602462946204616F030F95B
:104440004B46002B06460F4640F3E1800BF1FF324E
:104450000CA9C9F1180351F8225045FA03F101FAE9
:1044600003F30CA8EB1A40F82230C9F11705884471
:1044700043FA05F5002D2CDDBBF1000F08F1010812
:1044800040F381820C9C002C40F0A780BBF1010F0F
:104490000AD00CA9012251F8044F531C002C40F003
:1044A0009E809B451A46F6D1059B002B0EDD012B05
:1044B00000F0D980022B09D10BF1FF320CAB0CA913
:1044C00053F82230C3F3150341F82230022D00F0D7
:1044D000AF80002200233046394616F001FD002847
:1044E00000F05382049B0BF1FF394B4510DC0BF1BC
:1044F00080430CAA013B089802EB8303002253F887
:104500000419834242EA0102F9D1002A40F0B68040
:10451000049B0CAA013B52F82330002B40F0A180F1
:104520000A9A012352F8041901330029FAD05B4496
:104530000BF10109994506934CDC099A079909EB9F
:10454000020801EB0B0508F1804802EB030BA39B6B
:1045500008F1FF3803EB880870AB03EBC909A39B94
:1045600020A903EB8B0301EBC505029358F8040F58
:1045700016F0E4F90B4601990246002905F1080BF3
:10458000C5E900234FF000064FF000071CDB039C39
:104590000CE000BF78D50100ABAAAA2A0000703E4B
:1045A000000070410000204075E90223F4E8020198
:1045B00016F02EFA02460B463046394616F072F8CF
:1045C000544506460F46EFD1029B9845E9E802673D
:1045D0005D46CBD1DDF818B0D9E6012300220CA945
:1045E000C4F180749B4541F822400EDD51F8232030
:1045F00001EB8B0001EB83036FF07F4100E01A6851
:104600008A1A43F8042B8342F9D101244CE706D1DE
:104610000BF1FF330CAA52F82350ED152AE70022C4
:104620007B4B16F07BFC002840F0A381054650E749
:1046300032463B460020774916F032F806460F46D0
:10464000002C3FF446AF059A7249002000F008FFA5
:1046500002460B463046394616F022F806460F460B
:1046600037E7012363E70BF1FF320CAB0CA953F8DA
:104670002230C3F3160341F8223027E70CAB059A2A
:1046800053F82930183ACDE9068505926BB909F13E
:104690008043013B0CA901EB830353F8041909F192
:1046A000FF39183A0029F8D00592059A5949002097
:1046B00000F0D6FEB9F1000F04460D46C0F2C081ED
:1046C0004FEAC90370AA02EB030808930CAB03EB93
:1046D0008906DFF844B14FF0000A08F108070436F4
:1046E00056F8040D16F02AF922462B4616F090F9DA
:1046F0005B4667E9020152462046294616F088F9D2
:104700000CAB9E4204460D46EAD148AB039301939D
:10471000CDF8149009F10103DDF810900293C3461F
:104720004FF0000AB9F1000FC0F22A81DFF8EC80E7
:104730005D4635A3D3E9002300260027002403E0CB
:10474000544510DCF8E80223F5E8020116F060F9A0
:1047500002460B463046394615F0A4FF0134A14508
:1047600006460F46ECDA019BE3E802670193029BE1
:104770000AF1010A9A45ABF1080BD3D1A29BDDF8EF
:104780001490032B39D8DFE813F0D9000600060097
:104790004D0048AB0393B9F1000F4FF000004FF00C
:1047A000000109DB039D05EBC904083474E9022309
:1047B00015F078FFA542F9D1079B002B40F01E8130
:1047C0000B9BC3E900010B4603990246D1E90001A6
:1047D00015F066FFB9F1000F0CDD4AAD012401347C
:1047E000F5E8022315F05EFFA145F8DA079B002BE0
:1047F00040F014810B9BC3E90201069B03F0070004
:104800000DF5197DBDE8F08F00000040FB21F93F58
:104810000000E03F0000F03F0000703EB0BD01002E
:1048200048AB0393B9F1000F40F32781039ACDF809
:1048300010904FEAC9030193D318D3E900AB09F1F3
:104840000053013B02EBC9080293914678E90267E5
:1048500052465B463046394615F024FF04460D4665
:1048600002460B463046394615F01AFF52465B4663
:1048700015F018FFC145A246AB46C8E90201C8E9D8
:104880000045E3D1DDF81090B9F1010F40F3F58058
:10489000019B039A02991344C900D3E9006701F10F
:1048A000080A019192440DF5947B7AE90289324617
:1048B0003B464046494615F0F5FE04460D46024685
:1048C0000B464046494615F0EBFE32463B4615F096
:1048D000E9FED34526462F46CAE90201CAE900454A
:1048E000E3D1019C039B1034002000211C4403F100
:1048F000100574E9022315F0D5FEA542F9D1039CF9
:10490000079ED4E90023D4E90245002E00F08A80F6
:1049100003F1004701F100430B99C1E90403069B31
:104920002646944605F1004403F00700C1E900C79C
:10493000C1E902640DF5197DBDE8F08F089C039D67
:104940000834002000212C4474E9022315F0AAFE4B
:10495000A542F9D1079B13B101F1004319460B9B06
:10496000C3E90001069B03F007000DF5197DBDE8C2
:10497000F08FBBF1000F08F1010874DD022581E51D
:1049800000260027EFE600248EE5CDE90685059D8B
:10499000304639466A4200F063FD0022384B064635
:1049A0000F4616F0BBFA00B30022364B30463946AC
:1049B00016F02EF816F0DCFA044615F0BFFF0022C0
:1049C0002F4B16F025F80B4602463946304615F0B7
:1049D00067FE16F0CDFA0BF101090CAB183543F860
:1049E0002B00059543F829405FE63046394616F01E
:1049F000BFFA0CABD94643F82B0056E60B9C01F1ED
:104A00000043C4E900030B4603990246D1E90001C3
:104A100015F046FEB9F1000F3FF7DFAE01F100439C
:104A20001946E7E60B9EC6E90023069BC6E904018A
:104A300003F00700C6E902450DF5197DBDE8F08FCA
:104A4000A29B032B3FF6D9AE01A252F823F000BF80
:104A5000614A00009347000093470000214800008E
:104A60000020002176E732463B460020064915F03B
:104A700017FE022506460F462BE5002000213EE7E3
:104A8000000070410000703E0000F03F0000000098
:104A90002DE9F04F21F00046B6F1795F85B004466C
:104AA0000D469046994604DA16F062FA002800F0A6
:104AB000858022462B462046294615F0A9FF06464A
:104AC0000F4602460B462046294615F0A1FF41A39A
:104AD000D3E9002382468B463046394615F098FFCD
:104AE0003EA3D3E9002315F0DBFD32463B4615F02B
:104AF0008FFF3CA3D3E9002315F0D4FD32463B469B
:104B000015F086FF39A3D3E9002315F0C9FD32461D
:104B10003B4615F07DFF37A3D3E9002315F0C2FD16
:104B20000E9BCDE900019BB30022294B404649462C
:104B300015F06EFFDDE90023CDE90201504659462C
:104B400015F066FF02460B46DDE9020115F0A8FDEF
:104B500032463B4615F05CFF42464B4615F0A0FD41
:104B600019A3D3E9002306460F465046594615F0CF
:104B70004FFF02460B463046394615F093FD02467C
:104B80000B462046294615F08BFD05B0BDE8F08F99
:104B900002460B463046394615F03AFF0AA3D3E9E0
:104BA000002315F07DFD52465B4615F031FF22468D
:104BB0002B4615F077FD05B0BDE8F08F204629465D
:104BC00005B0BDE8F08F00BF495555555555C53F57
:104BD0000000E03F7CD5CF5A3AD9E53DEB9C2B8ACB
:104BE000E6E55A3E7DFEB157E31DC73ED561C119CA
:104BF000A0012A3FA6F810111111813F000000000A
:104C00002DE9F04FC04C21F0004687B0A642824605
:104C10008B460F46CDE900231ADC16F0A9F90028CF
:104C20003FD1109B524601331343334300F0B78109
:104C3000109B012B00F0C0815B460020B34916F0A9
:104C400011F804460D462046294607B0BDE8F08F0E
:104C5000AF4B9E4225DD002909DADDE900452246F9
:104C600005F10043CDE900230BF100418B4652468C
:104C70005B4685A1D1E9000115F012FDDDE90023B5
:104C800004460D4682A1D1E9000115F009FD9FED12
:104C9000827B22462B468DED007B15F003FD82467C
:104CA0008B4652465B465046594615F0B1FE0246C9
:104CB0000B468046894615F0ABFE424604460D463B
:104CC0004B465046594615F0A3FE75A3D3E9002381
:104CD000CDE902012046294615F09AFE72A3D3E9D8
:104CE000002315F0DFFC22462B4615F091FE70A341
:104CF000D3E9002315F0D6FC22462B4615F088FE9A
:104D00006DA3D3E9002315F0CDFC22462B4615F008
:104D10007FFE6BA3D3E9002315F0C4FC22462B468B
:104D200015F076FE68A3D3E9002315F0BBFC4246DC
:104D30004B4615F06DFE66A3D3E90023CDE90401CF
:104D40002046294615F064FE63A3D3E9002315F03D
:104D5000A9FC22462B4615F05BFE61A3D3E9002394
:104D600015F0A0FC22462B4615F052FE5EA3D3E9B7
:104D7000002315F097FC22462B4615F049FE5CA354
:104D8000D3E9002315F08EFC22462B4615F040FE99
:104D900059A3D3E9002315F085FC02460B46DDE953
:104DA000040115F07FFCDDE9022315F031FEDDE999
:104DB000004522462B4615F075FC42464B4615F041
:104DC00027FE22462B4615F06DFC4DA3D3E90023A8
:104DD00004460D46DDE9020115F01AFE22462B4677
:104DE00015F060FC0B4602468046894650465946FF
:104DF00015F058FC464B9E4204460D4600F38C804D
:104E0000109B012B3BD002460B4600203F4915F07A
:104E100029FF002406460F462046294652465B4697
:104E2000CDE90067CDE90201009415F039FCDDE918
:104E300000AB02460B464046494615F031FC52464F
:104E40005B4615F0E5FD524604460D465B46DDE93E
:104E5000020115F0DDFD00222E4B15F023FC024669
:104E60000B462046294615F01DFC32463B4615F000
:104E7000CFFD52465B4615F015FC04460D46204614
:104E8000294607B0BDE8F08F182D4454FB21E93FB7
:104E9000075C143326A6813C0000000000000000DF
:104EA000D47ABF74702AFB3EE9A7F0320FB8123FE4
:104EB00068108D1AF726303F1583E0FEC8DB573F98
:104EC00093846EE9E326823FFE41B31BBAA1AB3F58
:104ED000735360DBCB75F3BEA69237A0887E143F78
:104EE0000165F2F2D844433F280356C9226D6D3F55
:104EF00037D60684F464963F7AFE10111111C13F33
:104F0000635555555555D53FFFFF2F3E0000F0BF67
:104F10002794E53F0000F03F109815F00FFD224662
:104F2000CDE900012B462046294615F071FDDDE94B
:104F30000023CDE902012046294615F0B3FB0246C5
:104F40000B46DDE9020115F08DFE42464B4615F099
:104F5000A7FB02460B465046594615F0A1FB0246F8
:104F60000B4615F09FFB02460B46DDE9000115F0EC
:104F700097FB0446B81700F00200C0F101000D468F
:104F800015F0DCFC02460B462046294615F040FD94
:104F900004460D462046294607B0BDE8F08F50462E
:104FA000594613F0B5FC02460B460020044915F0A3
:104FB00059FE04460D4662E754465D465FE700BF72
:104FC0000000F03F000000002DE9F04FCC4A21F036
:104FD0000043934285B082468B460C4620D9C94A8D
:104FE000934200F2D780002C80F2A481ACA3D3E9D5
:104FF00000235046594615F055FB0022002315F0BA
:1050000079FF002840F0D180A7A3D3E900235046C0
:10501000594615F0FDFC02460B460020BA4994E1C2
:10502000BA4A934200F2E580B94A934240F22E8197
:10503000002301930022B74B5046594615F0E8FC77
:1050400006460F4602460B465046594615F0E0FC10
:1050500097A3D3E9002304460D4615F0D9FC96A387
:10506000D3E9002315F01EFB22462B4615F0D0FC99
:1050700093A3D3E9002315F013FB22462B4615F02A
:10508000C7FC91A3D3E9002315F00CFB22462B4665
:1050900015F0BEFC8EA3D3E9002315F001FB2246D8
:1050A0002B4615F0B5FC00229B4B15F0FBFA804611
:1050B000894602460B463046394615F0A9FC0246A1
:1050C0000B460020954915F0EBFA064602460B46C2
:1050D0000F464046494615F0E3FA32468046894677
:1050E0003B465046594615F093FC02460B460020BD
:1050F0008B4915F0D5FA02460B464046494615F055
:10510000B1FD22462B4615F083FC019E02460B465C
:10511000002E4DD0DDE9026732463B4615F0C0FA5D
:1051200052465B4615F074FC32463B4615F0B8FA21
:105130002B46224615F0B4FA019B013306460F4672
:1051400000F02381019B012B7BD0019A531C392B4A
:105150004FEA025500F22881019A132A40F3558143
:10516000019BC3F57F7403340022230515F09AFADE
:1051700002460B465046594615F092FA0022664BFD
:1051800015F090FA824605EB010B5046594605B0E2
:10519000BDE8F08F634A93421BD9C1F31303034365
:1051A000024640F012810029EFDA00205E490DE04E
:1051B0005046594615F02CFC22462B4615F070FA45
:1051C00002460B465046594615F06AFA05B0BDE84E
:1051D000F08F41A3D3E9002315F0AAFE00283FF485
:1051E00002AF3FA3D3E900231046194615F010FC87
:1051F000ECE74E4A934200F2EC8000293AA3D3E94F
:10520000002339DA15F04EFA39A7D7E900674FF0D5
:10521000FF3380468946019332463B464046494625
:1052200015F03EFA02460B4682468B4640464946FA
:1052300015F036FA32463B4615F032FACDE9020156
:10524000F8E600223A4B5046594615F053FE002826
:1052500000F0CC805046594600222E4B15F022FA21
:1052600002460B463046394615F01AFA00224FF036
:10527000404315F0CDFBA9E715F012FA0123804653
:10528000894601931CA7D7E90067C5E714A3D3E9B2
:10529000002315F007FA02460B468FE7AFF30080B4
:1052A00059F3F8C21F6EA501FE822B654715F73F23
:1052B0002DC3096EB7FD8ABE3952E686CACFD03EED
:1052C000B7DBAA9E19CE143F8555FE19A0015A3F9F
:1052D000F41011111111A13FEF39FAFE422E864050
:1052E0009C7500883CE4377E0000E0FE422EE63FDD
:1052F000763C7935EF39EABD763C7935EF39EA3DD0
:1053000079684340412E86400000E0BF422ED63FE0
:10531000FFFF8F3C0000E03F0000F03F000008402E
:1053200000001840FFFFEF7F0000F0BFB1A2F03F88
:105330000000D0BF44A3D3E900235046594615F0DE
:1053400067FB02460B460020414915F0ABF915F00A
:105350000FFE019015F0F2FA37A3D3E900230646B9
:105360000F4615F055FB02460B465046594615F0C0
:1053700097F933A3D3E9002380468946304639465E
:1053800015F046FB06460F4646E702460B465046DA
:10539000594615F085F900222D4B15F039FB0022F6
:1053A0002B4B15F07DF911E752465B4615F078F965
:1053B00002460B460020274915F072F96B18194672
:1053C0000022244B15F06CF900E70B4615F06AF942
:1053D000FCE61DA3D3E9002315F01AFB002C0246BE
:1053E0000B464FF00000AFDA1B49AEE732463B46B2
:1053F0005046594615F054F902460B4615F052F93D
:105400000022144B15F04EF9E0E64FF4001343FA76
:1054100002F452465B4615F043F9C4F17F5700266B
:1054200007F5401702460B463046394615F038F965
:10543000A8E600BFAFF300800000E0FE422EE63F8A
:10544000763C7935EF39EA3DFE822B654715F73F0B
:105450000000E03F0000F03F0000E0BF000000005F
:10546000F8B5C1F30A5304460D460E4617460BBB6A
:1054700021F00046034633431BD0354B002215F084
:10548000C7FA344B9F4204460D4635DBC1F30A533D
:105490000E46363B3B4440F2FE72934232DC002B18
:1054A00011DD26F0FF4626F4E00646EA03552046C5
:1054B0002946F8BD40F2FF729342EBD102460B46FB
:1054C00015F0F0F8F8BD13F1350F28DA4CF250332F
:1054D0009F4222462B460ADD19A1D1E9000115F0B1
:1054E00051F817A3D3E9002315F092FAF8BD16A1DD
:1054F000D1E9000115F046F813A3D3E9002315F014
:1055000087FAF8BD22462B460DA1D1E9000115F01E
:1055100039F80BA3D3E9002315F07AFAF8BD26F089
:10552000FF4626F4E006363346EA03552046294670
:105530000022094B15F06CFAF8BD00BFAFF30080F4
:105540009C7500883CE4377E59F3F8C21F6EA501B4
:1055500000005043B03CFFFF0000903C10B5054CEC
:10556000237833B9044B13B10448AFF3008001230F
:10557000237010BD1005002000000000D0D60100EF
:1055800008B5034B1BB103490348AFF3008008BDC6
:105590000000000014050020D0D60100154B002BA0
:1055A00008BF134B9D46A3F5803A00218B460F465A
:1055B0001348144A121A09F0A7F80F4B002B00D019
:1055C00098470E4B002B00D0984700200021040084
:1055D0000D000D48002802D00C48AFF3008015F0F4
:1055E00007F82000290005F0B9F814F0EDFF00BF1E
:1055F0000000080000000220000000000000000081
:1056000000040020A40C00200000000000000000A6
:1056100070B504460E4600F047FA88B103681B6B6C
:1056200005469847082C0CD0A4F10903012B14D986
:105630003246214610230D20BDE8704004F07AB8B0
:1056400070BD2B6828469B6A98470228F0DC2B68BF
:1056500028465B6A04219847EAE72B6828469B6A3C
:1056600098470528E4DC2B6828465B6A08219847A0
:10567000DEE700BF38B52DED028B054600F014FAC9
:10568000044640B103681B6B9847032D03D8DFE83D
:1056900005F02F363D06BDEC028B002038BD2046BC
:1056A0000CF00CFD07EE900A2046F8EEE78A0CF0AD
:1056B00013FD07EE900A2046B8EEE78A0CF01AFDBB
:1056C00068EE087A07EE100AE8EEA87AB8EEC77A14
:1056D000E7EE077AF5EE407AF1EE10FAB1EEE78ADE
:1056E0001BD4FDEEC87ABDEC028B17EE900A38BDD4
:1056F000BDEC028B2046BDE838400CF0DFBCBDECB1
:10570000028B2046BDE838400CF0E6BCBDEC028BB5
:105710002046BDE838400CF0EDBC17EE900A13F0BF
:105720002DFEDEE738B5044600F0BEF958B1036837
:105730001B6B0546984744B1012C04D12846BDE8AF
:105740003840FBF73DB9002038BD2846BDE8384059
:10575000FBF716B910B5044600F0A6F928B10368A6
:1057600021465B6ABDE81040184710BD00487047ED
:1057700016FCFFFF704700BF10B5034B03600446E3
:105780000CF098FA204610BD78CB010010B5054BFF
:10579000036004460CF08EFA204615F0C1FE204648
:1057A00010BD00BF78CB01002DE9F041032184B08A
:1057B0000546512001F0DAFCDFF8E8C2AE4B0446A2
:1057C00004F00F06C4F3031714F4807408BF634693
:1057D000AA4831463A460BF0F7FB221C18BF0122BB
:1057E00031463B4628460FF0B5F80023AB60A4488D
:1057F0000BF0EAFB4FF0FF31032001F0B7FCC0B221
:1058000004F052FA4FF0FF310446022001F0AEFCE2
:10581000C0B204F049FA002C3BD0002839D0014630
:10582000204604F063F8064600284DD04FF0FF31C3
:10583000462001F09BFC322804464ED04BDD382830
:1058400000F0B18068285FD14FF0FF31012001F0F6
:105850008DFCC0B204F028FA80465C2015F069FE89
:10586000052301934246009431462B4607460EF02D
:1058700073F8AF603B683846DB6A9847A8680368EE
:105880001B6B98477F480BF09FFB284604B0BDE890
:10589000F0817D480BF098FB4FF0FF31192001F0AB
:1058A00065FCC0B204F000FA4FF0FF310446182046
:1058B00001F05CFCC0B204F0F7F90146204604F0A8
:1058C00015F806460028B1D170480BF07DFB28463C
:1058D00004B0BDE8F081302816D14FF0FF3101202F
:1058E00001F044FCC0B204F0DFF98046502015F00E
:1058F00020FEA4B207460523019342460094314698
:105900002B460DF0D3FDB4E701243268CDE9004405
:105910000023576AAB600F220DF10F03322130468E
:10592000B847002800F085803368CDE900440F2295
:105930005F6A30210DF10F033046B84700284AD086
:105940003368CDE900440D225F6A38210DF10F0361
:105950003046B847002872D03268CDE900440DF1D6
:105960000F03576A682175223046B847002845D191
:10597000682147480BF028FB4FF0FF31204601F02B
:10598000F5FBC0B204F090F980465C2015F0D1FD23
:1059900005246823CDE90034424631462B460746AC
:1059A0000DF0DAFF65E74FF0FF31012001F0DEFB7B
:1059B000C0B204F079F98046502015F0BAFD0523F5
:1059C0000746019342462B46009431460DF0A4FE53
:1059D000304B3B604DE730212D480BF0F5FA302479
:1059E0004FF0FF31012001F0C1FBC0B204F05CF9BF
:1059F0008046502015F09DFD07467CE726480BF0B9
:105A0000E3FAAF68002F7FF435AF4FF0FF3103208A
:105A100001F0ACFBC0B204F047F930B11F480BF005
:105A2000D3FA284604B0BDE8F0811D480BF0CCFA4B
:105A30004DE7322116480BF0C7FA3224D0E738215F
:105A400013480BF0C1FA4FF0FF31204601F08EFBF6
:105A5000C0B204F029F98046502015F06AFD0524F3
:105A600038230746CDE9003442462B4631460DF037
:105A700053FE084B3B60FCE638BE010048BE010007
:105A800068BE010028BF010078BE01008CBE010085
:105A9000B8BE010000BE0100A4BE0100CCBE0100E2
:105AA00008BF010040BE010038B5114C23680BB19E
:105AB000986838BD4FF0FF31012001F057FBC0B2AC
:105AC00004F0F2F840B10C2015F033FD0546FFF765
:105AD0006BFE2560A86838BD4FF0FF31032001F050
