:020000040801F1
:1000000000800120695D020875840208D99A010800
:10001000C5090308C5090308C50903080000000055
:1000200000000000000000000000000079840208C9
:100030007D84020800000000818402088584020893
:10004000C5090308C5090308C5090308C50903084C
:10005000C5090308C5090308217A0208257A0208A0
:10006000297A02082D7A0208317A02089D81020855
:10007000AD810208BD810208CD810208DD81020840
:10008000ED810208FD810208C5090308C5090308BE
:10009000C5090308C5090308C5090308357A02081C
:1000A000C5090308C5090308C5090308C5090308EC
:1000B0009D640208A5640208AD640208C50903082E
:1000C000C5090308C5090308C5090308AD7F02086F
:1000D000B97F0208C5090308C5090308C509030853
:1000E000397A0208C5090308C5090308C5090308C8
:1000F000C5090308C5090308C50903080D820208DC
:10010000C5090308C5090308B5640208C57F0208CC
:10011000C5090308C5090308C5090308C50903087B
:100120001D8202082D8202083D8202084D820208CB
:100130005D820208C5090308C5090308C50903084B
:10014000C5090308C5090308C5090308DD660208D7
:100150006D8202087D8202088D820208C5090308AB
:10016000C5090308C5090308C5090308C50903082B
:10017000C5090308C5090308C509030800000000F4
:10018000C5090308C5090308C5090308C50903080B
:10019000D17F0208C5090308C5090308C50903087A
:1001A000C5090308C5090308C5090308C5090308EB
:1001B000C5090308000000002DE9F04F85B0039148
:1001C0000778A7F10903042B044607F07F0200F12A
:1001D0000100F5D9202AF3D02B2F04BF67780446FD
:1001E0002D2F75D09FED427B8DED007B4FF00008E9
:1001F0004FF000099FB34FF0000C25464FF0000A66
:10020000DFF8FCB0644619E01DF070F980468946BD
:1002100030461DF001F942464B461CF0B1FF5246F4
:10022000804689465B46DDE900013CB31DF088FA53
:10023000CDE90001A44615F8017F7FB1A7F1300692
:10024000092E52465B4640464946DDD9CCB92E2F91
:1002500017D115F8017F0124002FEFD12C4642461B
:100260004B46DDE900011DF041F980468946039BBC
:10027000404649461C6005B0BDE8F08F4FF0010CC8
:10028000D9E72C46BCF1000F29D042464B46DDE9A8
:1002900000011DF02BF907F0DF07452F8046894646
:1002A000E5D10399681C0A221FF0BEFF14490246DB
:1002B00000201DF0CBFC02460B46404649461DF08F
:1002C00015F9804689464046494605B0BDE8F08F9D
:1002D0009FED097B67788DED007B013486E7DFF8C1
:1002E00024904FF000084046494605B0BDE8F08F25
:1002F000000000000000F03F000000000000F0BF20
:10030000000024400000F87F2DE9F0470023144648
:100310000022804689461DF05BFB28B109F10043AD
:1003200099462D232370013400220023404649467C
:100330001DF044FB28B13022002322706370BDE819
:10034000F087404649461EF07DFA1DF07FFB73A3FF
:10035000D3E900230746494640461DF039FB0028F3
:100360004ED170A3D3E90023404649461DF04EFB11
:10037000002845D10E2F07F1010540F3B980A7F100
:100380000E063246002062491DF060FC02460B4614
:10039000404649461DF0D4F900225E4B1CF0F0FEA9
:1003A0001DF090FC002DA7F10F0E4FF0010C4DDD5C
:1003B000594FDFF87881012245F6F3294FF02E0AD4
:1003C000494508BF40454FF030030AD3B0EB080061
:1003D00061EB0901494508BF404503F10103F5D22E
:1003E000DBB2237050EA010304F101084AD19542BF
:1003F00052DD0132102A4FD0444677E90289DFE707
:10040000002F33DB3A46002041491DF01FFC024615
:100410000B46404649461DF093F93BA3D3E9002320
:100420008046894601250026404649461DF05EF873
:100430000022384B1CF0A4FE1DF044FC002DBC46ED
:100440004FF0FF3E37464FF00006B1DC2346302226
:100450004FF02E0803F8022B84F80180FC4345D0AE
:100460001C4403F8012BA342FBD1A1E77A420020F0
:1004700027491DF0EBFB02460B46404649461DF05E
:1004800035F8CAE7954202F1010204BF84F801A0E1
:1004900004F10208102AAFD16EB14246302102F8B1
:1004A000011BC2F1010373444344002BF7DC2EEA25
:1004B000EE7301339844BCF1010F12D0BCF1000F70
:1004C0004FF0650388F80030C5BF2B2388F8013052
:1004D00008F1010108F102016046BDE8F04710F0A3
:1004E000EFBF002388F80030BDE8F0871C465FE7C7
:1004F000C7F10E02002006491DF0A8FB3E46024649
:100500000B46012790E700BF0000901EC4BCD642F6
:10051000000024400000E03F101203088DEDB5A05C
:10052000F7C6B03E50EFE2D6E41A4B4400407A10D2
:1005300070B54FF0FF3006F0F3F804466FF07F40DF
:1005400006F0EEF8064620461CF056FF00220C4B43
:100550001CF0CCFF044630460D461CF04DFF06A3B0
:10056000D3E900231DF0ECF802460B46204629464D
:100570001CF006FE70BD00BF0000E0DFFFFF6F4310
:100580000000F03D000000002DE9F04F1D461389EA
:10059000AB4288BF536885B004468CBF53F8250032
:1005A000002090468A4606F02FFD0022904B1CF05A
:1005B0009DFF1DF04BFAB8F808206B1C9A4288BFCB
:1005C000D8F8042006468CBF52F82300002006F01D
:1005D0001BFD0022864B1CF089FF1DF037FAB8F88E
:1005E00008300235AB4288BFD8F8043007468CBFCC
:1005F00053F82500002006F007FD002EC4E900672F
:1006000040F3E280002F40F3DF8071A3D3E90023A1
:10061000002584F828501EF039F800220023804677
:1006200089461DF0D5F940B14046494668A3D3E953
:1006300000231CF0A5FD8046894667A3D3E900236B
:10064000404649461DF0E2F9C0B165A3D3E9002355
:10065000404649461DF0C6F980B10123404649464F
:1006600084F8283060A3D3E900231CF089FD58A347
:10067000D3E900231EF00AF88046894600225D4B2C
:10068000404649461CF032FF1DF038FD01F10043A1
:1006900000221946564B1CF029FF1DF0D7F9494698
:1006A000054640461DF0E6FC0022514B1CF01EFFA3
:1006B0001DF0CCF9DAF804304F49B3F80CB0B3F8B8
:1006C0000AA0A56007FB0BF303EB010806FB0AF683
:1006D000019388FB05234FEA124C00960E444CEA26
:1006E000034C06EA010383FB009A06EB0C0E0EEAAC
:1006F000010ED346CA468EFB00675246CDE902671B
:10070000120C42EA0B42DDE902AB0CEA010C8CFB55
:1007100000674FEA164956460A40360C46EA0B4631
:1007200049EA074982FB05AB5F46C144B0445646DF
:10073000CDE90267039FE060360C09EA010908EA87
:10074000010846EA074689FB05AB334488FB05569A
:10075000CDE9025655462D0C45EA0B45DDE902ABC5
:100760000B40AC4403EAE3770CEA010C554623EA5C
:10077000E37367454FEA154502EAE276A8BF67468C
:1007800045EA0B45634522EAE272B8BF6346AE44D0
:100790004E450EEA010EA8BF4E464A45B8BF4A462E
:1007A0007745A8BF77467345B8BF73464645A8BF8F
:1007B0004646C4E905634245B8BF424600980199E0
:1007C000206261622761E261204605B0BDE8F08FDA
:1007D000EA2E4454FB211940F4D64354FB21F93F3F
:1007E000320D337F7CD91240EA2E4454FB2109405C
:1007F0000000F0400000E03F0000FFFF00000000AC
:100800002DE9F04F2DED028B044683B0C0681CF03B
:1008100003FE8046206989461CF0FEFD8246606921
:100820008B461CF0F9FD024601F1004306460F46D7
:10083000404649461DF0BCFE1DF050F9E0620546F9
:100840001DF07EFD019028461DF03EFD019B0546F2
:1008500018461CF0F3FD42464B461CF047FE80460E
:10086000284689461CF0EAFD32463B461CF03EFE17
:1008700002460B46404649461CF080FC02460B46A9
:10088000504659461DF094FE1DF028F9002208EE4E
:10089000100A0023304639461DF0B8F828B3B5EEEB
:1008A000C08AF1EE10FA1CDD11A7D7E9006718EE37
:1008B000100A1CF0C3FD02460B46304639461CF0B8
:1008C0005DFC32463B461CF05BFC1DF007F9A06264
:1008D000E38843F00203E38003B0BDEC028BBDE884
:1008E000F08F05A7D7E90067E1E784ED0A8AEFE713
:1008F000EA2E4454FB21F93FEA2E4454FB21F9BF70
:1009000008B512F04BF8DFED0C7A07EE100A67EE2F
:10091000277A17EE900A1CF091FD05A3D3E9002376
:100920001CF00EFF1DF092F808BD00BFAFF3008071
:10093000EA2E4454FB2119400000B443000000009B
:1009400008B512F03FF8DFED0C7A07EE100A67EEFB
:10095000277A17EE900A1CF071FD05A3D3E9002356
:100960001CF0EEFE1DF072F808BD00BFAFF3008072
:10097000EA2E4454FB2119400000B443000000005B
:100980004F4A21F0004393422DE970430D4604463F
:100990004DDC4C4A93420E460FDC45A3D3E90023BD
:1009A0001CF0EEFB0022484B1DF030F8002854D01C
:1009B0002B4620461946BDE87083444A934240DCEA
:1009C000B3F1804F49DD1DF051FB22468046894638
:1009D0002B46204629461CF089FD00223A4B1CF08C
:1009E000CFFB1EF063FB42464B461CF0C9FB0246A0
:1009F0000B46002034491CF0A3FE424604460D4637
:100A00004B46404649461CF0BBFB0B460246294676
:100A100020461CF0B5FB01F0C7FE04460B46002E35
:100A20000BDC03F1004320461946BDE870830B46FA
:100A300002461CF0A5FB04460B4620461946BDE8BD
:100A400070831DF013FB01F0AFFE1BA3D3E900235D
:100A50001CF096FB04460B46E1E722462B46204657
:100A600029461CF043FD80468946204629461DF054
:100A7000FDFA00220446144B0D46404649461CF040
:100A80007FFB1EF013FB00220F4B1CF079FB02468C
:100A90000B46404649461CF053FE22462B461CF0AE
:100AA0006FFB00F0B1FA04460B46B8E7AFF30080E5
:100AB0009C7500883CE4377EEF39FAFE422EE63F13
:100AC000FFFFEF7FFFFF2F3E0000F03F0000B0412F
:100AD0002DE9F84FB84B21F000469E420D468A465C
:100AE00004460EDDB54B9E4200F3B08000F0AB80B3
:100AF000B34BB449B448BAF1000FC8BF1946BDE8BA
:100B0000F88FB24B9E4200F3B980A3F1DE739E4290
:100B100040F3A4804FF0FF3B22462B462046294657
:100B20001CF0E4FC02460B46804689461CF0DEFCC5
:100B300089A3D3E9002306460F461CF0D7FC88A3FF
:100B4000D3E900231CF01CFB32463B461CF0CEFCD4
:100B500085A3D3E900231CF013FB32463B461CF06F
:100B6000C5FC83A3D3E900231CF00AFB32463B46B5
:100B70001CF0BCFC80A3D3E900231CF001FB32462F
:100B80003B461CF0B3FC7EA3D3E900231CF0F8FA2B
:100B900042464B461CF0AAFC7BA3D3E900238046C7
:100BA0008946304639461CF0A1FC79A3D3E90023DD
:100BB0001CF0E4FA32463B461CF098FC76A3D3E9DD
:100BC00000231CF0DBFA32463B461CF08FFC74A37A
:100BD000D3E900231CF0D2FA32463B461CF086FCD7
:100BE00071A3D3E900231CF0C9FA32463B461CF03E
:100BF0007DFC02460B46404649461CF0C1FA22469F
:100C00002B461CF073FCBBF1FF3F02460B465CD049
:100C10006F4B704E4FEACB0B5B44D3E900231CF0C3
:100C2000ADFA22462B461CF0A9FAB34402460B4605
:100C3000DBE900011CF0A2FABAF1000F0CDA01F1B5
:100C40000041BDE8F88F00283FF452AF224620460D
:100C50002B4629461CF094FABDE8F88F54A3D3E93B
:100C600000231CF08DFA00225B4B1CF0CFFE002805
:100C70003FF450AF20462946BDE8F88F1DF0F6F945
:100C8000564B9E4204460D4625DCA3F550239E425A
:100C90004ADC02460B461CF073FA00224E4B1CF055
:100CA0006DFA002206460F464FF080432046294643
:100CB0001CF066FA02460B46304639461CF040FDF1
:100CC0004FF0000B04460D4626E7204629461CF04F
:100CD00055FABDE8F88F424B9E421ADC0022414B88
:100CE0001CF04CFA002206460F463E4B2046294691
:100CF0001CF0FCFB0022384B1CF042FA02460B466B
:100D0000304639461CF01CFD4FF0020B04460D46E0
:100D100002E702460B46002033491CF011FD4FF05C
:100D2000030B04460D46F7E600222B4B1CF026FA77
:100D3000002206460F46284B204629461CF020FA82
:100D400002460B46304639461CF0FAFC4FF0010BC8
:100D500004460D46E0E600BF11DA22E33AAD903FCB
:100D6000EB0D76244B7BA93F513DD0A0660DB13FE2
:100D70006E204CC5CD45B73FFF8300922449C23F4A
:100D80000D5555555555D53F2F6C6A2C44B4A2BF0F
:100D90009AFDDE522DDEAD3F6D9A74AFF2B0B33FD7
:100DA000711623FEC671BC3FC4EB98999999C93F4F
:100DB0009C7500883CE4377EFFFF0F440000F07F05
:100DC000FB21F93FFB21F9BF182D4454FFFFDB3F06
:100DD00038120308181203080000F03FFFFFF23F2B
:100DE000FF7F03400000F83F0000F0BF000000005C
:100DF000C1F30A522DE9F843A2F2FF36132E0B4637
:100E00000D4604468846074621DC002E4CDB3A4A54
:100E100042FA06F901EA090202431DD034A3D3E9DC
:100E200000231CF0ADF9002200231CF0EFFD48B1B7
:100E3000002D04DD4FF4801343FA06F6B04428EA8F
:100E4000090500273C4629462046BDE8F883332E95
:100E500006DDB6F5806F3AD019462046BDE8F88326
:100E6000A2F213424FF0FF3929FA02F919EA000FF2
:100E7000F2D01FA3D3E900231CF082F90022002343
:100E80001CF0C4FD0028DDD0002D09DD142E25D076
:100E90000123C6F1340603FA06F6371928BF984431
:100EA00027EA09074546CDE711A3D3E900231CF043
:100EB00067F9002200231CF0A9FD0028C2D0002DF4
:100EC0000FDB55EA040707D000270C4DBAE70246AE
:100ED0001CF056F90446C0E73D46B3E705F10108AA
:100EE000DEE700274FF00045ACE700BFAFF300801E
:100EF0009C7500883CE4377EFFFF0F000000F03F48
:100F0000C1F30A522DE9F843A2F2FF36132E0B4625
:100F10000D460446884607461DDC002E3DDB384A58
:100F200042FA06F901EA0902024319D032A3D3E9D1
:100F300000231CF025F9002200231CF067FDD0B32C
:100F4000002D04DA4FF4801343FA06F6B04428EA81
:100F5000090500272FE0332E06DDB6F5806F2FD070
:100F600019462046BDE8F883A2F213424FF0FF393C
:100F700029FA02F919EA000FF2D01FA3D3E90023DE
:100F80001CF0FEF8002200231CF040FD98B1002D5B
:100F900024DB27EA090745460DE017A3D3E9002320
:100FA0001CF0EEF8002200231CF030FD18B1002DDB
:100FB0000BDB00273D463C4629462046BDE8F8832A
:100FC00002461CF0DDF80446CBE725F000430D4A4D
:100FD0001F43002F18BF15460027ECE7142E08D03A
:100FE0000123C6F1340603FA06F6371928BF9844E0
:100FF000CFE705F10108CCE79C7500883CE4377E1B
:10100000FFFF0F000000F0BF2DE9F04FD84B9942D1
:1010100087B00E46074643DDD64B99428A4600F319
:10102000F680D54B994240F330810B15A3F2FF3B7C
:1010300000220023CDE902230446D04BCAF3130A51
:101040009A454AF07F5500F3158145F44015204636
:1010500029460022CA4B1CF091F8002204460D4696
:10106000C84B1CF043FA22462B461CF03FFA804640
:10107000894627462E46CDE90089BAF1000F3AD1BC
:1010800000220023204629461CF098FC002800F08E
:101090001D81BBF1000F40F0858100200146BAE0C0
:1010A000B94B21F000449C420A460FDD0022B74BA9
:1010B0001CF084FC002800F0B180002200230020F6
:1010C000B3491CF03DFB07B0BDE8F08FB14B9C422B
:1010D00040F3B180B04B1A449A4240F2D6800022CD
:1010E000A84B1CF003FA3A4633461CF0FFF9CDE951
:1010F00000014FF0000B00224FF08043384631468C
:101100001CF03EF802460B46384631461CF018FBF0
:1011100002460B46804689461CF0E8F980A3D3E9D5
:10112000002304460D461CF0E1F97FA3D3E9002318
:101130001CF026F822462B461CF0D8F97CA3D3E9F4
:1011400000231CF01DF822462B461CF0CFF97AA391
:10115000D3E900231CF014F822462B461CF0C6F9F4
:1011600077A3D3E900231CF00BF822462B461CF092
:10117000BDF975A3D3E900231CF002F822462B46E3
:101180001CF0B4F972A3D3E900231BF0F9FF224647
:101190002B461CF0ABF9DDE9004522462B461BF03F
:1011A000EFFF42464B461CF0A1F9CDE90401BBF12B
:1011B000000F00F0A88058461CF02EF966A3D3E972
:1011C0000023804689461CF091F965A3D3E90023EA
:1011D00004460D46404649461CF088F9DDE90223E5
:1011E0001BF0CEFFDDE904231BF0CAFF02460B46CD
:1011F000DDE900011BF0C2FF3A4633461BF0BEFF9B
:1012000002460B46204629461BF0B8FF03E0024683
:101210000B461BF0B5FF07B0BDE8F08F3A463346EA
:10122000384631461BF0AAFF02460B461CF088FAEE
:1012300007B0BDE8F08F0022584B1BF0A1FF002241
:1012400000231CF0E3FB10B1554B9C4262DD3A4693
:101250003346384631461CF049F90022494B1CF010
:1012600045F902460B46384631461BF087FF07B06A
:10127000BDE8F08F45F40015CAF5801A20462946CE
:101280004FEAAA0A0BF1010BE3E63D4B3846314623
:1012900000221BF075FF0B15A3F2FF3BBBF1000F03
:1012A00004460D468A4640F3C3803A4633461BF057
:1012B00065FF02460B46002031491BF05FFF2246C6
:1012C0002B461CF03DFACDE90201B6E626A3D3E990
:1012D0000023204629461CF009F902460B4600204F
:1012E00027491BF04BFF42464B461CF0FFF80646D1
:1012F0000F46BBF1000F73D102460B46204629462C
:101300001BF03CFF87E702460B46204629461BF0B0
:1013100035FFA6E7384631467DE700BFAFF30080D2
:1013200044523EDF12F1C23F9FC678D0099AC33FB4
:10133000DE03CB966446C73FAF788E1DC571CC3FA8
:10134000599322942449D23F04FA97999999D93F05
:10135000935555555555E53F0000E0FE422EE63FBA
:10136000763C7935EF39EA3D555555555555E53FAC
:101370007982DA3FFFFFEF7FFFFF3F439DA006002A
:101380000000F03F0000E03FFFFFEF3F0000F0BF34
:10139000000050C3FFFF1F3E3C412D400000504362
:1013A000FFFF8F3C58461CF037F827A3D3E90023F2
:1013B00006460F461CF09AF8DDE902231BF0E0FE1A
:1013C00023A3D3E9002304460D46304639461CF0DA
:1013D0008DF802460B46204629461BF0D1FE1AE73F
:1013E00058461CF019F81AA3D3E9002382468B460D
:1013F0001CF07CF814A3D3E90023804689465046AC
:1014000059461CF073F8DDE902231BF0B9FE0246D1
:101410000B46304639461BF0B1FE22462B461BF0E8
:10142000ADFE02460B46404649461BF0A7FEF2E6DB
:101430000022094B1BF0A2FE02460B4638463146FD
:101440001BF09CFE3BE700BF763C7935EF39EA3D67
:101450000000E0FE422EE63F0000F03F00000000EA
:1014600008B51DF073F904A3D3E900231CF068F953
:1014700008BD00BFAFF30080EF39FAFE422EE63F11
:101480002DE9F043DFF8B4808BB004460D4600F040
:1014900057FF98F90030013306460F462CD02246FC
:1014A0002B46204629461CF0BBFA814620BB20462D
:1014B00029461CF0DBFD1CA3D3E900231CF0A6FA8F
:1014C000D0B11B4A98F90030CDF820900321CDE926
:1014D0000445CDE90245CDE9001293B1154900203C
:1014E000022BCDE9060111D11EF05AFE2223036022
:1014F000089B9BB9DDE90667304639460BB0BDE86D
:10150000F0830D4B4FF06042CDE9062368461EF094
:10151000F7FC0028E8D0089B002BEBD01EF040FE23
:10152000089B0360E6E700BF7DF8B98FCE338640A5
:10153000082E03080000F07FFFFFEF479A0300200A
:101540002DE9F043DFF8E4808BB004460D4600F04F
:10155000A3FF98F90030013306460F4633D02046EA
:1015600029461EF0C7FC70B329A3D3E90023204607
:1015700029461CF04BFA814650BB27A3D3E9002330
:10158000204629461CF024FAE8B198F90030244A94
:10159000CDF82090042600200021022BCDE904453F
:1015A000CDE90245CDE90062CDE9060129D06846C2
:1015B0001EF0A6FC28B3089B1BB11EF0F1FD089B92
:1015C0000360DDE90667304639460BB0BDE8F083BD
:1015D000134A98F90030019203210022CDE9044515
:1015E000CDE90245009108922BB90E4B4FF06042B5
:1015F000CDE90623DBE70C490020022BCDE90601EB
:10160000D5D11EF0CDFD22230360D4E7AFF30080D7
:10161000EF39FAFE422E864051302DD5104987C051
:10162000102E0308FFFFEF470000F07F9A03002011
:101630002DE9F84FC44E21F00043B3420C46054655
:101640000DDD03F1404303F58013034340F0B980FF
:10165000002940F3408100200021BDE8F88FBB4EF7
:10166000B34208DCBA4A934200F3B5809CA1D1E9A9
:101670000001BDE8F88F0029C0F2708102460B46D8
:101680000020B4491BF07AFD0022B34B1BF02EFF63
:1016900004460D461DF00AFD93A3D3E900238946B5
:1016A0008046294620461BF021FF91A3D3E9002361
:1016B0001BF066FD22462B461BF018FF8EA3D3E9D4
:1016C00000231BF05BFD22462B461BF00FFF8CA373
:1016D000D3E900231BF054FD22462B461BF006FFE6
:1016E00089A3D3E900231BF049FD22462B461BF0BA
:1016F000FDFE87A3D3E900231BF042FD22462B46C3
:101700001BF0F4FE84A3D3E9002382468B462046D7
:1017100029461BF0EBFE82A3D3E900231BF02EFD2C
:1017200022462B461BF0E2FE7FA3D3E900231BF0E9
:1017300027FD22462B461BF0D9FE7DA3D3E90023CB
:101740001BF01CFD22462B461BF0D0FE0022814BD5
:101750001BF016FD02460B46504659461BF0F0FFA3
:1017600042464B461BF0C2FE002682468B4632465E
:101770004B46304649461BF0B9FE02460B46204612
:1017800029461BF0FBFC324604460D464B464046BC
:1017900049461BF0F5FC02460B46204629461BF045
:1017A000CFFF02460B46504659461BF0E9FC324635
:1017B0004B461BF0E5FC02460B461BF0E1FCBDE886
:1017C000F88F02460B461BF0D9FC02460B461BF075
:1017D000B7FFBDE8F88F02460B461BF087FE42A319
:1017E000D3E9002306460F461BF080FE40A3D3E951
:1017F00000231BF0C5FC32463B461BF077FE3EA3A0
:10180000D3E900231BF0BAFC32463B461BF06EFEC8
:101810003BA3D3E900231BF0B3FC32463B461BF04D
:1018200065FE39A3D3E900231BF0A8FC32463B46F2
:101830001BF05CFE36A3D3E900231BF0A1FC32466B
:101840003B461BF053FE34A3D3E900238046894670
:10185000304639461BF04AFE31A3D3E900231BF082
:101860008DFC32463B461BF041FE2FA3D3E90023FB
:101870001BF086FC32463B461BF038FE2CA3D3E916
:1018800000231BF07BFC32463B461BF02FFE002260
:10189000304B1BF075FC02460B46404649461BF098
:1018A0004FFF2A4623461BF021FE02460B4622A18B
:1018B000D1E900011BF062FC02460B462846214696
:1018C0001BF05CFC02460B4605A1D1E900011BF0B0
:1018D00055FCBDE8F88F1AA1D1E9000179E700BFF6
:1018E000182D4454FB21F93F09F7FD0DE13D023F5E
:1018F00088B20175E0EF493F3B8F68B52882A43F6D
:101900005544880E55C1C93F7D6FEB0312D6D43FB5
:10191000555555555555C53F82922EB1C5B8B33F63
:1019200059018D1B6C06E63FC88A599CE52A004088
:101930004B2D8A1C273A0340075C143326A6913CA2
:10194000182D4454FB210940FFFFEF3FFFFFDF3F0D
:101950000000603C0000F03F0000E03F00225C4BD4
:101960001BF00EFC00225B4B1BF0C0FD40A3D3E933
:10197000002304460D461BF0B9FD3FA3D3E9002325
:101980001BF0FEFB22462B461BF0B0FD3CA3D3E927
:1019900000231BF0F3FB22462B461BF0A7FD3AA3C6
:1019A000D3E900231BF0ECFB22462B461BF09EFDE7
:1019B00037A3D3E900231BF0E1FB22462B461BF0A3
:1019C00095FD35A3D3E900231BF0DAFB22462B4615
:1019D0001BF08CFD80468946204629461DF066FB9B
:1019E0002FA3D3E9002306460F46204629461BF0C5
:1019F0007DFD2DA3D3E900231BF0C0FB22462B461F
:101A00001BF074FD2AA3D3E900231BF0B9FB224687
:101A10002B461BF06BFD28A3D3E900231BF0AEFB84
:101A200022462B461BF062FD0022294B1BF0A8FB2F
:101A300002460B46404649461BF082FE32463B4674
:101A40001BF054FD1EA3D3E900231BF097FB324685
:101A50003B461BF095FB02460B461BF091FB0246F2
:101A60000B4619A1D1E900011BF088FBB1E600BFCC
:101A700009F7FD0DE13D023F88B20175E0EF493FF6
:101A80003B8F68B52882A43F5544880E55C1C93F95
:101A90007D6FEB0312D6D43F555555555555C53F6F
:101AA00082922EB1C5B8B33F59018D1B6C06E63F3B
:101AB000C88A599CE52A00404B2D8A1C273A0340CE
:101AC000075C143326A6913C182D4454FB21094091
:101AD0000000F03F0000E03F414A91422DE9F84309
:101AE0000C46054637DD3F4A914209DD02F1795245
:101AF00091423EDD02460B461BF042FBBDE8F883F7
:101B000001F1404202F5801202432ED0B1F1804F24
:101B100037DC0022344B1BF031FB02460B460446F7
:101B20000D461BF02DFB224606460F462B4620464F
:101B300029461BF0DBFC02460B46304639461BF0BB
:101B40001FFB1DF0B3FA22462B461BF019FBBDE824
:101B5000F843FFF759BA02460B461BF00FFB02464B
:101B60000B461BF0EDFDBDE8F88300200021BDE829
:101B7000F88300F019FE18A3D3E900231BF000FB43
:101B8000F1E702460B461BF0B1FC0022164B1BF09E
:101B9000F5FA1DF08BFA2A468046894623462846E8
:101BA00021461BF0EDFA2A4606460F4623464046DC
:101BB00049461BF0E5FA02460B4600200A491BF095
:101BC000BFFD0B460246394630461BF0D7FABDE84A
:101BD000F84300F0E9BD00BFEF39FAFE422EE63FC0
:101BE000FFFFEF3FFFFFAF410000F03F00000000AC
:101BF0002DE9F04FB24B21F000479F4287B00D46D0
:101C0000044615DD07F1404707F5801703463B43BF
:101C100026D002460B461BF0B1FA0B4602461BF0DB
:101C20008FFD04460B462046194607B0BDE8F08FED
:101C3000A44B9F420E462EDCB7F1795F80F24A81B9
:101C400083A3D3E900231BF09BFA00229E4B1BF0D9
:101C5000DDFE00B32B462046194607B0BDE8F08FE5
:101C60007DA3D3E900231BF041FC7DA3D3E900232E
:101C700006460F46204629461BF038FC02460B4616
:101C8000304639461BF07CFA04460B46204619467E
:101C900007B0BDE8F08F204629461CF0E7F9024660
:101CA0000B46002088491BF069FA0022874B1BF085
:101CB0001DFC6DA3D3E9002304460D461BF016FC62
:101CC0006BA3D3E900231BF05BFA22462B461BF0E3
:101CD0000DFC69A3D3E900231BF050FA22462B46E2
:101CE0001BF004FC66A3D3E900231BF049FA22464B
:101CF0002B461BF0FBFB64A3D3E900231BF03EFA49
:101D000022462B461BF0F2FB61A3D3E900231BF014
:101D100037FA22462B461BF0E9FB5FA3D3E90023E9
:101D2000CDE90001204629461BF0E0FB5CA3D3E986
:101D300000231BF023FA22462B461BF0D7FB5AA3A5
:101D4000D3E900231BF01CFA22462B461BF0CEFBE6
:101D500057A3D3E900231BF011FA22462B461BF0B0
:101D6000C5FB594B00221BF00BFA82468B462046DE
:101D70002946CDE902AB1DF099F9554B9F428046AB
:101D8000894600F31C8102460B461BF0F9F9DDE998
:101D90000223CDE90401DDE900011BF0D1FC02467C
:101DA0000B46DDE904011BF0A1FB4FF0000ACDE971
:101DB000000152464B46504649461BF097FB0246EF
:101DC0000B46204629461BF0D9F9524604460D46DB
:101DD0004B46404649461BF0D3F902460B46204687
:101DE00029461BF0ADFC02460B461BF0C9F9024622
:101DF0000B461BA1D1E900011BF0C0F902460B46BE
:101E0000DDE900011BF0BAF9524604460D464B4687
:101E1000504649461BF0B4F902460B4626A1D1E9CB
:101E200000011BF0ABF902460B46204629461BF089
:101E3000A5F90B46024620A1D1E900011BF09EF94D
:101E400004460B46002E3FF7EEAE03F10043EAE6F0
:101E50009C7500883CE4377E182D4454FB21F93FE3
:101E6000075C143326A6913C09F7FD0DE13D023FC6
:101E700088B20175E0EF493F3B8F68B52882A43FE7
:101E80005544880E55C1C93F7D6FEB0312D6D43F30
:101E9000555555555555C53F82922EB1C5B8B33FDE
:101EA00059018D1B6C06E63FC88A599CE52A004003
:101EB0004B2D8A1C273A0340182D4454FB21E93F3F
:101EC000FFFFEF3FFFFFDF3F0000F03F0000E03F7C
:101ED0003233EF3F02460B461BF008FB48A3D3E921
:101EE000002306460F461BF001FB47A3D3E900235E
:101EF0001BF046F932463B461BF0F8FA44A3D3E9FF
:101F000000231BF03BF932463B461BF0EFFA42A39D
:101F1000D3E900231BF034F932463B461BF0E6FAC6
:101F20003FA3D3E900231BF029F932463B461BF0BF
:101F3000DDFA3DA3D3E900231BF022F932463B46EC
:101F40001BF0D4FA3AA3D3E90023804689463046F1
:101F500039461BF0CBFA38A3D3E900231BF00EF966
:101F600032463B461BF0C2FA35A3D3E900231BF0EF
:101F700007F932463B461BF0B9FA33A3D3E90023F5
:101F80001BF0FCF832463B461BF0B0FA0022344B03
:101F90001BF0F6F802460B46404649461BF0D0FBC4
:101FA00022462B461BF0A2FA22462B461BF0E8F8ED
:101FB00004460B462046194607B0BDE8F08F52464E
:101FC0005B46DDE900011BF0BBFB42464B461BF0C4
:101FD0008DFA42464B461BF0D3F802460B461BF0E7
:101FE000CFF81BA3D3E900231BF0C8F80B46024629
:101FF00019A1D1E900011BF0C1F804460B4621E705
:1020000009F7FD0DE13D023F88B20175E0EF493F60
:102010003B8F68B52882A43F5544880E55C1C93FFF
:102020007D6FEB0312D6D43F555555555555C53FD9
:1020300082922EB1C5B8B33F59018D1B6C06E63FA5
:10204000C88A599CE52A00404B2D8A1C273A034038
:10205000075C143326A6913C182D4454FB21F93F0C
:102060000000F03F000000002DE9F84F54421443F7
:1020700023F00048684E48EAD474B44284460F46C0
:102080001FD84442044321F0004A4AEAD474B442BF
:102090008B4616D803F1404404F5801414439E4641
:1020A0003DD09C1704F0020444EAD1745AEA0001BE
:1020B0000FD1022C50D0032C3CD145A1D1E9000115
:1020C00005E01046194662463B461BF059F8BDE84C
:1020D000F88F58EA020126D0B0452DD0B24522D063
:1020E000AAEB08084FEA2858B8F13C0F38DC002B5F
:1020F0003ADA18F13C0F37DA00200021012C49D0E0
:10210000022C3AD0002CE2D033A3D3E900231BF0F9
:1021100035F833A3D3E900231BF030F8D7E7BDE847
:10212000F84FFEF7D5BCBBF1000F11DB2EA1D1E9B2
:102130000001CCE73946CAE7C2452FD0022C0BD0AC
:10214000032CBAD0012C4FF0000031D00021BEE7A3
:1021500027A1D1E90001BAE721A1D1E90001B6E741
:1021600021A1D1E90001C9E7604639461BF0E8FA30
:102170001BF07CFFFEF7ACFCC0E717A3D3E90023FC
:102180001AF0FCFF02460B4615A1D1E900011AF036
:10219000F5FF9CE701F10043194698E7022C12D0A5
:1021A000032C0CD0012C06D013A1D1E900018EE73D
:1021B0004FF000418BE712A1D1E9000187E712A19E
:1021C000D1E9000183E712A1D1E900017FE700BF57
:1021D000182D4454FB2109C0075C143326A6A13CEA
:1021E000182D4454FB210940182D4454FB21F93F7C
:1021F000182D4454FB21F9BF182D4454FB21E93F0D
:10220000182D4454FB21E9BFD221337F7CD902C071
:10221000D221337F7CD902400000F07F0000000013
:1022200043422DE9F047034321F00048404A48EA81
:10223000D37393420F462ED890454AD03D4B9845D4
:102240008A4636DD3C4B9845044645464CDD024601
:10225000434641461AF094FF224606460F4643463F
:10226000002033491AF08AFF02460B4630463946B1
:102270001BF066FAFEF7C8FE304B00221BF036F961
:10228000BAF1000F04460B460FDA01F10043204675
:102290001946BDE8F08702460B461AF06FFF0B4661
:1022A00002461BF04DFA04460B4620461946BDE88F
:1022B000F0871DA3D3E9002304461AF061FF002232
:1022C00000231BF0A3FB70B13B4620461946BDE836
:1022D000F087002200231BF033FA04460B46204609
:1022E0001946BDE8F087454622462B46204629463A
:1022F0001AF046FF22462B4606460F461BF0F6F81C
:102300002246804689462B46002009491AF036FFAE
:1023100002460B46404649461BF012FA32463B46FF
:102320001AF02EFFA6E700BF9C7500883CE4377EBC
:102330000000F03FFFFF2F3EFFFFDF3F0000E03FC8
:102340004D4A2DE9F84321F0004494420B460646DD
:102350001BDC4A4A944224DD494A944256DD494AEC
:10236000944248DD484A944271DD013294426BD078
:102370003FA3D3E90023104619461BF0B7F80646E1
:102380000F4630463946BDE8F88304460D462246DE
:102390002B461BF0ABF806460F4630463946BDE8E3
:1023A000F8831BF063FE02F06FFC0022374B80467F
:1023B00089461AF0E5FEB4F1725F06460F46ECDB83
:1023C00042464B46404649461BF090F832463B4653
:1023D00004460D46304639461AF0D2FE02460B46F8
:1023E000204629461BF0ACF90022284B1AF0C8FE03
:1023F00006460F46D1E71BF039FE00F04DF80022EB
:10240000234B1BF073F806460F46C6E71BF02EFE63
:1024100000F042F800221E4B06460F461BF066F8FD
:10242000324604460D463B46002019491BF088F908
:1024300002460B46204629461AF0A2FE06460F46E3
:1024400030463946BDE8F883124A904290D830466B
:1024500019461BF00BFE00220D4B1BF047F800F055
:102460001BF800220A4B04460D461BF03FF88EE78E
:102470009C7500883CE4377EFFFFEF7F422ED63FFD
:10248000FFFF3540412E8640CD3386400000F03FAF
:102490000000E03F7DF8B98F2DE9F047B84F21F0FB
:1024A0000042BA4284B00C464FEAD176054612D9B2
:1024B000B44FBA4240F28E80C1F313030343024685
:1024C00040F0F780002E00F0818000252946284644
:1024D00004B0BDE8F087AC4B9A4200F2B880AB4B39
:1024E0009A4240F2D3804FF0000A2A4623462846FB
:1024F00021461AF0FBFF8CA3D3E9002306460F46C2
:102500001AF0F4FF8AA3D3E900231AF037FE32460B
:102510003B461AF0EBFF88A3D3E900231AF030FE04
:1025200032463B461AF0E2FF85A3D3E900231AF0B6
:1025300025FE32463B461AF0D9FF83A3D3E9002398
:102540001AF01EFE32463B461AF0D0FF02460B46FA
:10255000284621461AF012FE02460B4606460F4652
:10256000284621461AF0C2FF80468946BAF1000F7C
:1025700000F0B38032463B4600204FF080411AF015
:10258000FDFD02460B46404649461BF0D9F802467F
:102590000B46DDE902011AF0F1FDDDE900231AF036
:1025A000EDFD0B4602467A4900201AF0E7FD6FF474
:1025B0007F739A4580F2AD800AF57A7A01EB0A5171
:1025C00000224FF0B8731AF091FF0546284604B078
:1025D000BDE8F0875EA3D3E900231BF017FA0028BB
:1025E0006FD1284621465CA3D3E900231BF0F0F904
:1025F00000287FF46AAF674B284603EBC6062146E6
:1026000057A3D3E900231AF071FFD6E900231AF08B
:10261000B7FD1BF01BFA82461AF0FEFE52A3D3E967
:10262000002306460F461AF061FF02460B46284675
:1026300021461AF0A3FD4EA3D3E90023CDE9000102
:10264000304639461AF052FFCDE9020115E0524BEF
:102650009A42D0D8514BF4002344D3E900231AF016
:102660008DFD4F4B2344D3E90034CDE90001CDE982
:102670000234C6F1010AAAEB060ADDE90223DDE90C
:1026800000011AF07BFD05460C462EE73AA3D3E97C
:1026900000231AF075FD00223D4B1BF0B7F900280E
:1026A0003ED0284621460022394B1AF069FD0546E6
:1026B0008CE70B461AF064FD0546284604B0BDE8D9
:1026C000F0872DA3D3E90023104619461AF00EFF18
:1026D0000546284604B0BDE8F0873046394600225A
:1026E0004FF080431AF04AFD02460B4640464946E9
:1026F0001BF026F82A4623461AF040FD02460B46F8
:10270000002023491AF03AFD0546284604B0BDE8EA
:10271000F087054601EB0A51284604B0BDE8F08772
:102720008246E2E6AFF30080D0A4BE726937663E0F
:10273000F16BD2C541BDBB3E2CDE25AF6A56113FC1
:1027400093BDBE166CC1663F3E5555555555C53FA8
:10275000EF39FAFE422E864051302DD5104987C000
:10276000FE822B654715F73F0000E0FE422EE63F54
:10277000763C7935EF39EA3D9C7500883CE4377E3C
:10278000412E8640FFFFEF7F422ED63FFFFF2F3EB8
:102790000000F03F58120308B1A2F03F681203088E
:1027A00078120308000000002DE9F04FB1F5801FFA
:1027B00085B006460F460B4680F2D08021F00042DD
:1027C000024300F0DA800029C0F2E9800022D64BF3
:1027D0001AF08CFED54A0B46934206460F466FF020
:1027E000350E00F3C180C3F3130505F5152C0CF667
:1027F000647C0CF4801C8CF07F5282F440121C1517
:1028000042EA0507A4F2FF3474440022C84B304664
:10281000394604EB1C541AF0B1FCAB1CC3F3130390
:10282000022B82468B464FF0000240F3AF804FF000
:1028300080431AF0A5FC02460B46504659461AF052
:102840007FFF064620460F461AF0E6FD3246CDE9E8
:1028500002013B4630463946CDE900671AF046FE94
:1028600002460B46804689461AF040FE9AA3D3E9F9
:10287000002306460F461AF039FE99A3D3E9002338
:102880001AF07EFC32463B461AF030FE96A3D3E99E
:1028900000231AF075FC32463B461AF027FE94A33B
:1028A000D3E900231AF06CFC42464B461AF01EFE98
:1028B00091A3D3E9002380468946304639461AF071
:1028C00015FE8FA3D3E900231AF05AFC32463B468B
:1028D0001AF00CFE8CA3D3E900231AF051FC324607
:1028E0003B461AF003FE0B460246494640461AF0A4
:1028F00047FCA5F5C223C5F5D725A3F27A43513588
:102900001D43002D06460F4640F387800022894B69
:10291000504659461AF0EAFD52465B461AF0E6FD6B
:1029200002460B4680468946304639461AF028FC56
:10293000DDE900231AF0DAFD06460F46002C40F0D0
:10294000818002460B46404649461AF017FC024673
:102950000B46504659461AF011FC0BE0734A93425D
:102960004FF0000E7FF73FAF32463B4630463946C8
:102970001AF006FC05B0BDE8F08F0022002300200D
:102980006D491AF0DDFE05B0BDE8F08F00231BF0A5
:1029900015F860B1002C7CD100200021EAE7024646
:1029A0001AF0ECFB002200231AF0CAFEE2E758A35B
:1029B000D3E90023504659461AF098FD02460B46CB
:1029C00000205C491AF0DAFB524606460F465B4689
:1029D000504659461AF08AFD02460B4630463946A3
:1029E0001AF084FD06460F462CB320461AF014FD5B
:1029F00049A3D3E90023804689461AF077FD48A30E
:102A0000D3E9002304460D46404649461AF06EFDC0
:102A100002460B46304639462CE002460B465046ED
:102A200059461AF0ABFBDDE900231AF05FFD0646BC
:102A30000F46002C47D132463B46504659461AF0C5
:102A40009DFB97E734A3D3E90023DDE902011AF0E7
:102A50004DFD33A3D3E9002304460D46DDE9020111
:102A60001AF044FD32463B461AF08AFB02460B46FA
:102A7000404649461AF082FB52465B461AF07EFBFE
:102A800002460B46204629461AF078FB05B0BDE801
:102A9000F08F20461AF0C0FC1FA3D3E9002306469E
:102AA0000F461AF023FD1EA3D3E9002304460D466A
:102AB000304639461AF01AFD02460B462046294692
:102AC0001AF05EFB56E7DDE9028913A3D3E9002380
:102AD0004046494691E700BF44523EDF12F1C23FF3
:102AE000DE03CB966446C73F599322942449D23FD4
:102AF000935555555555E53F9FC678D0099AC33F24
:102B0000AF788E1DC571CC3F04FA97999999D93F3A
:102B1000555555555555D53F0000E0FE422EE63F30
:102B2000763C7935EF39EA3D00005043FFFFEF7FF7
:102B30000000F03F0000E03F000050C30000000034
:102B4000B1F5801F2DE9F84304460D460B4619DA0E
:102B500021F00042024359D000295FDB00223A4BAA
:102B60001AF0C4FC394A0B4693420D4604466FF0F6
:102B700035010CDD22462B46204629461AF000FB83
:102B8000BDE8F883314A93424FF00001F2DC18159A
:102B9000A0F2FF3008444FEAD0794844C3F3130849
:102BA0001AF03AFCC9F57F73033348EA0355064629
:102BB0000F4620462946FFF7F7FD1DA3D3E9002362
:102BC00080468946304639461AF090FC1AA3D3E96C
:102BD000002304460D46404649461AF087FC02464B
:102BE0000B46204629461AF0CBFA15A3D3E9002359
:102BF00004460D46304639461AF078FC02460B462C
:102C0000204629461AF0BCFABDE8F88300220023CA
:102C100000200F491AF094FDBDE8F88302461AF02F
:102C2000ADFA002200231AF08BFDA9E7AFF3008074
:102C3000362BF111F3FE593D0EE526157BCBDB3F1C
:102C400000609F501344D33F00005043FFFFEF7FCD
:102C5000000050C3000000002DE9F04F23F00045B4
:102C600055EA020493B00DD0794E21F00044B442ED
:102C70000F4682460FDD04F1404404F5801454EA07
:102C80000A035BD1734C0023CDE90034DDE9000178
:102C900013B0BDE8F08F984694464ED0B542EADCBA
:102CA0006B4EB54266D0002F8B468146CDE902239C
:102CB00064DB0026BCF1000F0ED1654B9D4246D06F
:102CC000644B9D4200F09780B8F1804F00F0B280D5
:102CD000614B984500F0CC83484659461BF0C6F935
:102CE000CDE90001BAF1000F06D1002C60D0594B9C
:102CF00027F040429A425BD0FF0F013F56EA07039C
:102D000000F08280554B9D4240F3B08003F1047384
:102D10009D4240F34184524B9C4240F38280B8F183
:102D2000000F40F3828048A3D3E9002310461946E0
:102D30001AF0DCFBCDE90001A8E728B1494813B03F
:102D4000BDE8F04F1DF0DEB8A542F7DCA8E704F1BE
:102D5000404303F5801353EA0A0393D0404B9C424F
:102D600040F39083B8F1000F5FDBDDE90234CDE979
:102D700000348BE7BCF1000F95D07CE73A4B9D42C5
:102D800037DCA3F154739D4293DD2B15A3F2FF337F
:102D9000142B40F3E983C3F134032CFA03F202FA53
:102DA00003F3634585D102F00102C2F1020681E717
:102DB000B8F1000F07DADDE90023002025491AF0F9
:102DC000BFFCCDE90001002FBFF660AF04F1404425
:102DD00004F5801454EA060300F03C84012E7FF4CD
:102DE00055AFDDE90045224605F10043CDE900235A
:102DF0004CE702265EE7B8F1000FC0F24F83484669
:102E00005946CDE9000141E74A4648465B465946E6
:102E10001AF0B4F902460B461AF092FCCDE9000113
:102E200034E7B8F1000FFFF67EAF00230024CDE9B0
:102E300000342BE74A4648465B4659461AF056FB93
:102E4000CDE9000122E700BF9C7500883CE4377E95
:102E50000000F07F0000F03F0000E03F0000E04194
:102E6000FFFFEF3F781B0308FFFF3F43B4F5801FD0
:102E700080F28F83DDE900010022CF4B1AF036FB90
:102E8000CDE900010C466FF0340C2315CB4DC4F393
:102E90001302A3F2FF3342F07F5403EB0C01AA426A
:102EA0000B9144F4401440F36F83C54B9A4240F3B6
:102EB000F38300220023CDE9082301310B91A4F50F
:102EC0008014CDE91023BF4B0022CDE90623002555
:102ED000DDE90001DDE90623214682461AF04EF9BC
:102EE000A346DDE906238046894650462146CDE9C2
:102EF0000CAB1AF045F902460B460020B1491AF016
:102F00001FFC0A460146CDE90E1213464946024609
:102F100040461AF0EBFA631043F0005382468B46AA
:102F200003F500238C46CDE904AB5919D3460023A1
:102F3000CDE900BC0093DDE900AB002004460D465E
:102F400002460B46504659461AF0D0FA02460B4646
:102F5000404649461AF012F9DDE9062380468946C3
:102F6000204629461AF00AF902460B46DDE90C0113
:102F70001AF004F952465B461AF0B8FA02460B46BC
:102F8000404649461AF0FAF8DDE90E231AF0AEFA87
:102F9000DDE90445CDE9060122462B4620462946B7
:102FA0001AF0A4FA72A3D3E9002304460D461AF0DE
:102FB0009DFA71A3D3E900231AF0E2F822462B46CA
:102FC0001AF094FA6EA3D3E900231AF0D9F8224636
:102FD0002B461AF08BFA6CA3D3E900231AF0D0F831
:102FE00022462B461AF082FA69A3D3E900231AF08D
:102FF000C7F822462B461AF079FA67A3D3E90023D3
:103000001AF0BEF82246804689462B4620462946BD
:103010001AF06CFA02460B46404649461AF066FA28
:10302000524604460D465B46DDE904011AF0A8F855
:10303000DDE906231AF05AFA22462B461AF0A0F8C8
:103040005246804689465B46504659461AF04EFA2B
:1030500000225D4BCDE90C011AF092F842464B4636
:103060001AF08EF800980D46044622462B4650462C
:1030700059461AF03BFA002282468B46524B2046B4
:1030800029461AF07BF8DDE90C231AF077F802469E
:103090000B46404649461AF071F8DDE904231AF060
:1030A00025FA2246804689462B46DDE906011AF0BC
:1030B0001DFA02460B46404649461AF061F8804622
:1030C000894602460B46504659461AF059F8009870
:1030D00033A3D3E9002304460D461AF007FA5246FB
:1030E000CDE904015B46204629461AF047F802461E
:1030F0000B46404649461AF041F82BA3D3E900237A
:103100001AF0F4F92AA3D3E9002380468946204621
:1031100029461AF0EBF902460B46404649461AF09A
:103120002FF8DDE910231AF02BF880460B9889461A
:103130001AF072F9424682468B464B46DDE904019D
:103140001AF01EF8DDE908231AF01AF852465B4619
:103150001AF016F8009852465B4604460D461AF0DF
:103160000DF8DDE908231AF009F8DDE904232DE064
:10317000EF4E454A287ECA3F65DBC9934A86CD3F5C
:1031800001411DA96074D13F4D268F515555D53F42
:10319000FFAB6FDBB66DDB3F033333333333E33FDA
:1031A000000000E009C7EE3FFD033ADC09C7EE3F2F
:1031B000F5015B14E02F3EBE000040438E980300F3
:1031C00079B60B000000F03F0000084019F0D6FF70
:1031D0000B4602464946404619F0D0FF013E56EAEA
:1031E000070382468B46DDE9020114BFD84BD94B59
:1031F0000022CDE9042302460B46CDE9002300233B
:103200000093DDE9006732463B4619F0B7FF2246DE
:103210002B461AF06BF9DDE90223804689465046B9
:1032200059461AF063F902460B464046494619F0E2
:10323000A7FF3246804689463B4620462946CDE9CF
:1032400002891AF053F90B46024606460F464046DD
:10325000494619F095FFC04B994204460D468A46EF
:1032600040F3268101F13F4303F5E003034340F0BF
:10327000F781A3A3D3E90023DDE9020119F080FF60
:103280003246804689463B462046294619F076FF5D
:1032900002460B46404649461AF0B8FB002840F06B
:1032A000DF81A8464FEA2853A3F2FE324FF4801381
:1032B00013415344C3F30A52A84DA2F2FF32154101
:1032C000C3F3130423EA05010020C2F1140B44F4F4
:1032D0008014BAF1000F02460B4644FA0BFB30464D
:1032E0003946B8BFCBF1000B19F048FF02460B4638
:1032F00006460F46DDE9020119F042FF4FEA0B5A7C
:103300000D46002480A3D3E90023204629461AF065
:10331000EDF83246804689463B462046294619F05C
:103320002DFF02460B46DDE9020119F027FF78A3C5
:10333000D3E900231AF0DAF877A3D3E9002306468D
:103340000F46204629461AF0D1F802460B46304671
:10335000394619F015FF06460F4602460B46404611
:10336000494619F00DFF42464B4604460D4619F0FA
:1033700005FF02460B463046394619F0FFFE22464D
:10338000804689462B46204629461AF0AFF864A3AA
:10339000D3E9002306460F461AF0A8F862A3D3E942
:1033A000002319F0EBFE32463B461AF09FF860A36B
:1033B000D3E9002319F0E4FE32463B461AF096F8B2
:1033C0005DA3D3E9002319F0D9FE32463B461AF03B
:1033D0008DF85BA3D3E9002319F0D2FE32463B46B9
:1033E0001AF084F802460B462046294619F0C6FE1C
:1033F00006460F4602460B46204629461AF076F846
:103400000022CDE900014FF080433046394619F0E3
:10341000B5FE02460B46DDE900011AF091F942467D
:1034200006460F464B46204629461AF05FF84246AC
:103430004B4619F0A5FE02460B463046394619F0B8
:103440009DFE22462B4619F099FE02460B460020AF
:103450003F4919F093FE8A44BAF5801FC0F22D81CE
:103460005146DDE904231AF041F8CDE900010DE4ED
:10347000002FFFF631AC4846594613B0BDE8F04F77
:103480001BF014BEB8F1000FBFF6CFACDDE902347B
:10349000009304F100430193FFF7F8BB4A465B46F3
:1034A00000202B491AF04CF9CDE90001FFF7EEBBE3
:1034B0002B4B21F00048984540F3E280294B0B4408
:1034C00003430AD132463B4619F058FEDDE9022398
:1034D0001AF092FA00283FF4E5AE1BA3D3E90023CB
:1034E000DDE904011AF002F817A3D3E9002319F06B
:1034F000FDFFCDE90001FFF7C9BB00BFAFF30080BE
:10350000FE822B654715973C00000000432EE63FE6
:10351000EF39FAFE422EE63F396CA80C615C20BE02
:10352000D0A4BE726937663EF16BD2C541BDBB3EC9
:103530002CDE25AF6A56113F93BDBE166CC1663FA7
:103540003E5555555555C53F59F3F8C21F6EA50157
:103550000000F03F0000F0BFFFFF8F40FFFF0F00B3
:10356000FFCB904000346F3FBCF1000F40F09180E2
:10357000C3F1140345FA03F202FA03F3AB4200F07D
:10358000A0806646FFF79CBB00220023CDE90823FC
:1035900097E44FF0000C78E45B4B9C427FF741AC22
:1035A0005A4B9C423FF7BBABDDE900010022574B71
:1035B00019F0E4FD46A3D3E9002304460D4619F0B3
:1035C00095FF45A3D3E9002382468B462046294632
:1035D00019F08CFF0022CDE900014D4B2046294611
:1035E00019F084FF02460B463DA1D1E9000119F014
:1035F000C5FD22462B4619F079FF02460B460020F6
:10360000444919F0BBFD2246804689462B46204698
:10361000294619F06BFF02460B464046494619F011
:1036200065FF31A3D3E9002319F060FF02460B4682
:10363000DDE9000119F0A2FD02460B4680468946ED
:103640005046594619F09CFD002004460D4652464E
:103650005B46BBE5DDE9002310461946FFF7D8BB02
:1036600023A3D3E90023DDE9040119F03FFF20A3E0
:10367000D3E9002319F03AFFCDE90001FFF706BBBB
:10368000244B98453FF70EAEDDE900239246934662
:1036900037E60026FFF720BB17A3D3E90023CDE9C7
:1036A000082317A3D3E90023CDE910231A4B0022E6
:1036B0004FF48025CDE906230AE45A4601F02CFD9B
:1036C000CFE602F00102C2F10206FFF7F9BA00BF2D
:1036D000000000604715F73F44DF5DF80BAE543E35
:1036E000555555555555D53FFE822B654715F73F26
:1036F0009C7500883CE4377E0000004003B8E23F40
:1037000006D0CF43EBFD4C3EFEFFEF3F0000F03F05
:103710000000D03F0000E03F0000F83F0000000044
:103720002DE9F04FC84E21F00047B7428FB00B464D
:1037300040F38F809246C54A97420C4626DC00290A
:10374000B7A3D3E9002340F38F8019F017FDC04BD6
:103750009F4204460D4600F04681B3A3D3E90023FF
:1037600019F00CFD02460B46CAE900232046294603
:1037700019F004FDACA3D3E9002319F0FFFC0125E7
:10378000CAE9020128460FB0BDE8F08FB14A97425E
:1037900040F38980B04A974200F31C813D15A5F2A1
:1037A0001645A7EB055319461F4606461AF04EF973
:1037B00019F032FE8046894602460B4630463946AD
:1037C000CDE9088919F0DAFC0022A44B19F08EFE2D
:1037D000894680461AF03AF919F01EFE02460B4659
:1037E00006460F4640464946CDE90A6719F0C6FC31
:1037F00000229A4B19F07AFE00220023CDE90C0139
:103800001AF0DCF8002800F05D81002330463946CC
:1038100000221AF0D3F8002814BF01230223904A93
:10382000019202212A46009108A8514600F080FB2F
:10383000002C054614DADAF80420DAF80C3002F12C
:10384000004203F100434542CAF80420CAF80C3094
:1038500006E0C2E9000100250024C2E90245002576
:1038600028460FB0BDE8F08F19F08AFC784B9F42D4
:1038700004460D4600F008816BA3D3E9002319F03C
:103880007FFC02460B46CAE900232946204619F070
:1038900075FC65A3D3E9002319F072FC4FF0FF35E6
:1038A000CAE90201DCE71AF0E1FB61A3D3E90023D6
:1038B0008046894619F01AFE00226A4B19F060FC16
:1038C0001AF0C4F8054619F0A7FD55A3D3E9002363
:1038D000CDE9040119F00AFE02460B46404649466E
:1038E00019F04CFC50A3D3E90023CDE90201DDE936
:1038F000040119F0FBFD1F2D8046894602460B4648
:10390000DDE9020140F3B08019F038FC83460E4631
:103910003F15C6F30A53FB1A102B40F3B08046A3A1
:10392000D3E90023DDE9040119F0E0FD8046894672
:1039300002460B46DDE9020119F020FC02460B4667
:10394000DDE90201CDE9062319F018FC42464B4699
:1039500019F014FC3AA3D3E9002380468946DDE937
:10396000040119F0C3FD42464B4619F007FC0B4613
:10397000024680468946DDE9060119F0FFFBC1F3E6
:103980000A53FF1A312F83460E4600F39D800246EC
:103990000B46CAE90023DDE90623CDE902235A4696
:1039A0003346DDE9020119F0E9FB42464B4619F0C6
:1039B000E5FB002C02460B46CAE90223BFF650AFD6
:1039C00006F1004601F10041CAE900B6CAE9020168
:1039D0006D4245E7024619F0D1FB0025CAE9020114
:1039E000CAE900013CE714A3D3E9002319F0C6FBA0
:1039F00013A3D3E900230D46044619F0BFFB02468A
:103A00000B46CAE900232946204619F0B7FB0CA350
:103A1000D3E9002319F0B2FB0125CAE902011FE72F
:103A200000004054FB21F93F3163621A61B4D03D7C
:103A300083C8C96D305FE43F0000601A61B4D03DB7
:103A40007370032E8A19A33BFB21E93F7BD9024007
:103A5000FB21F93FFB213941FFFFEF7F000070415F
:103A6000C42E03080000E03F19F088FB3A4B6A1EA1
:103A7000834653F82230BB420E463FF449AF5A46C4
:103A80003346CAE900238AE72BA3D3E9002319F0C0
:103A900077FB2BA3D3E900230D46044619F070FBF6
:103AA00002460B46CAE900232946204619F066FB68
:103AB00023A3D3E9002319F063FB4FF0FF35CAE9D4
:103AC0000201CDE60323AAE61FA3D3E90023DDE923
:103AD000040119F00BFDDDE9068906460F46024692
:103AE0000B464046494619F049FB02460B46404604
:103AF0004946CDE9022319F041FB32463B4619F015
:103B00003DFB13A3D3E9002306460F46DDE904017C
:103B100019F0ECFC32463B4619F030FB02460B46EE
:103B200080468946DDE9020119F028FB83460E46EE
:103B3000A5E700BFAFF300800000601A61B4D03D7C
:103B40007370032E8A19A33B0000002E8A19A33B31
:103B5000C14920259A837B39442E030800000000C8
:103B6000574A2DE9F84F21F0004890450E46074688
:103B70002CDC544B0029B4BF534D544D98454FF0A5
:103B8000000411DC524B984526DC4BA3D3E90023FB
:103B900019F0F6FA00224F4B19F038FF002840D0F8
:103BA00038463146BDE8F88F4B4B984530DD4B4BDE
:103BB000984568DD0133984562D0384631463EA3CA
:103BC000D3E9002319F092FCBDE8F88F02460B46BA
:103BD00019F0D6FABDE8F88F1AF048FA01F054F857
:103BE0003F4B984506460F4623DD0022394B19F01E
:103BF000C7FA02460B463046394619F0A1FD324657
:103C00003B4619F0BDFA22462B4619F06FFCE1E75E
:103C10001AF02CFAFEF740FC22462B4619F066FCFF
:103C2000D8E7384631461AF021FA01F02DF8064659
:103C30000F4632463B463046394619F0A1FA324625
:103C400082468B463B463046394619F04FFC0022EF
:103C5000804689461F4B3046394619F091FA024694
:103C60000B464046494619F06BFD02460B4650464E
:103C7000594619F083FA22462B4619F037FCA9E77A
:103C8000184B984299D8384631461AF0EFF900227D
:103C90000E4B19F02BFCFEF7FFFB06460F460246C3
:103CA0000B462046294619F021FC32463B4619F0C6
:103CB0001DFC8FE7AFF300803374AC3C1F7BAC7FFF
:103CC000FFFFEF7FFFFF35400000E0BF0000E03F57
:103CD000FFFF2F3E0000F03F412E8640CD3386404F
:103CE000FFFFEF3F7DF8B98F2DE9F04F21F000463F
:103CF000B6F1795F85B00C4692469B4605466BDA75
:103D000019F0A4FE002800F0E2802A462346284647
:103D1000214619F0EBFB74A3D3E9002380468946C2
:103D200019F0E4FB72A3D3E9002319F029FA424603
:103D30004B4619F0DBFB70A3D3E9002319F01EFA00
:103D400042464B4619F0D2FB6DA3D3E9002319F08C
:103D500017FA42464B4619F0C9FB6BA3D3E900237F
:103D600019F00CFA42464B4619F0C0FB68A3D3E9A0
:103D7000002319F005FA42464B4619F0B7FBCDE98E
:103D800000010022644B4046494619F0AFFBDDE9D3
:103D9000002306460F464046494619F0A7FB524607
:103DA000804689465B462846214619F09FFB02461D
:103DB0000B464046494619F0E1F902460B463046AB
:103DC000394619F0DBF902460B460020534919F039
:103DD000D5F905B0BDE8F08F02460B4619F086FB19
:103DE00041A3D3E900238046894619F07FFB40A315
:103DF000D3E9002319F0C4F942464B4619F076FB8B
:103E00003DA3D3E9002319F0B9F942464B4619F016
:103E10006DFB3BA3D3E9002319F0B2F942464B46B0
:103E200019F064FB38A3D3E9002319F0A7F942463F
:103E30004B4619F05BFB36A3D3E9002319F0A0F938
:103E40004B46424619F052FB354B9E42CDE90001EC
:103E500097DD344B9E424FF000023DDCA6F5001387
:103E600000202E4916461F4619F088F9CDE90201B7
:103E70000022294B4046494619F038FB32463B4662
:103E800019F07CF9DDE9002306460F464046494615
:103E900019F02CFB5246804689465B46284621464F
:103EA00019F024FB02460B464046494619F066F9D4
:103EB00002460B463046394619F060F902460B4679
:103EC000DDE9020119F05AF905B0BDE8F08F134998
:103ED000002005B0BDE8F08F134B144FCDE902234D
:103EE0000026C5E7AFF30080D43888BEE9FAA8BD44
:103EF000C4B1B4BD9EEE213EAD529C804F7E923E39
:103F00009015CB19A001FA3E7751C1166CC1563FEE
:103F10004C5555555555A53F0000E03F0000F03F7A
:103F20003233D33F0000E93F0000E73F0000D23FBB
:103F30002DE9F04FADF5197DBE4CA29EBE4D54F853
:103F400026700793D41E85FB0465E417C4EBA50413
:103F500024EAE4741D46631CA3EB8303013D02EBDA
:103F6000C30305937B1909940497019506460B91A9
:103F7000A4EB05041BD423445D1C20AF4FF00008C4
:103F80004FF00009DDF88CA208E05AF8240019F07F
:103F900043FA0134AC42E7E8020108D0002CF4DA1D
:103FA000013440464946AC42E7E80201F6D1049BA1
:103FB000002BC0F2B083079BA6F10802DB0011467C
:103FC000039220AA02EB0309029301EB0308049B6E
:103FD00072AA02EBC30B0DF5E07A019B002BC0F235
:103FE0009581039C4D460026002775E90223F4E9DC
:103FF000020119F07BFA02460B463046394619F0A9
:10400000BFF8444506460F46EFD1EAE80267DA45B5
:1040100009F10809E1D1DDE90204049920448B008B
:1040200082460BA8A3F10802C31808930CAB1344F3
:104030000A938B4698AB03EBCB03BBF1000F53E91C
:10404000284529DD70AB03EBCB080DF130090022C8
:104050007A4B2046294619F049FA19F0F7FC19F075
:10406000DBF90022764B06460F4619F03FFA02466E
:104070000B462046294619F081F819F0E7FC78E94B
:10408000022349F8040B3946304619F079F870AB31
:10409000984504460D46DAD1DDF8149020462946AD
:1040A0004A4601F039F800224FF07F5304460D468E
:1040B00019F01CFAFCF724FF0022624B19F016FAE3
:1040C00002460B462046294619F058F80D4604468C
:1040D00019F0BCFC804619F09FF90B4602462946B0
:1040E000204619F04BF84B46002B06460F4640F38E
:1040F000E1800BF1FF320CA9C9F1180351F82250ED
:1041000045FA03F101FA03F30CA8EB1A40F8223048
:10411000C9F11705884443FA05F5002D2CDDBBF1E4
:10412000000F08F1010840F394820C9C002C40F031
:10413000A780BBF1010F0AD00CA9012251F8044F4E
:10414000531C002C40F09E809B451A46F6D1059BDF
:10415000002B0EDD012B00F09C81022B09D10BF10D
:10416000FF320CAB0CA953F82230C3F3150341F80E
:104170002230022D00F0AF80002200233046394665
:1041800019F01CFC002800F06682049B0BF1FF393B
:104190004B4510DC0BF180430CAA013B089802EB65
:1041A0008303002253F80419834242EA0102F9D141
:1041B000002A40F0B580049B0CAA013B52F8233042
:1041C000002B40F0A1800A9A012352F80419013310
:1041D0000029FAD05B440BF101099945069349DCAB
:1041E000099A079909EB020801EB0B0508F18048D1
:1041F00002EB030BA39B08F1FF3803EB880870ABBD
:1042000003EBC909A39B20A903EB8B0301EBC505B5
:10421000029358F8040F19F0FFF8019B002BC5E931
:10422000000105F1080B28DB083D039C0026002750
:104230000CE000BF64330308ABAAAA2A0000703E5A
:10424000000070410000204075E80201F4E90223FB
:1042500019F04CF902460B463046394618F090FFEB
:10426000544506460F46EFD1029B9845E9E80267A0
:104270005D46CED1DDF818B0DCE600260027F3E776
:10428000012300220CA9C4F180749B4541F822400F
:104290000EDD51F8232001EB8B0001EB83036FF05F
:1042A0007F4100E01A688A1A43F8042B8342F9D14F
:1042B00001244CE706D10BF1FF330CAA52F823502E
:1042C000ED152AE70022BE4B19F096FB002840F0BE
:1042D000B981054650E732463B460020B94918F0FF
:1042E0004DFF06460F46002C3FF446AF059AB549F0
:1042F000002000F011FF02460B463046394618F008
:104300003DFF06460F4637E7012363E700260027F7
:10431000EAE80267DA4509F108097FF45EAE7AE659
:104320000CAB059A53F82930183ACDE90685059269
:104330006BB909F18043013B0CA901EB830353F8EE
:10434000041909F1FF39183A0029F8D00592059AA5
:104350009C49002000F0E0FEB9F1000F04460D4634
:10436000C0F2E0814FEAC90370AA02EB0308089388
:104370000CAB03EB8906DFF850B208F108070436EE
:104380004FF0000A56F8040D19F046F822462B4665
:1043900019F0ACF85B4667E902015246204629460F
:1043A00019F0A4F80CAB9E4204460D46EAD148AB86
:1043B00003930193CDF8149009F10103DDF81090F7
:1043C0000293C3464FF0000AB9F1000FC0F23781E3
:1043D000DFF8F8815D4678A3D3E9002300260027A3
:1043E000002403E0544510DCF8E80223F5E802015C
:1043F00019F07CF802460B463046394618F0C0FEEC
:104400000134A14506460F46ECDA019BE3E802675A
:104410000193029B0AF1010A9A45ABF1080BD3D133
:10442000A29BDDF81490032B2CD8DFE813F0E800F2
:10443000D300D3003F00079B00200146002B40F033
:1044400043810D460B460B990446C1E9004503998B
:104450000246D1E9000118F091FEB9F1000F0CDD20
:10446000039D0124F5E90223013418F089FEA145DA
:10447000F8DA079B002B40F037810B460B99024678
:10448000C1E90223069B03F007000DF5197DBDE885
:10449000F08F0BF1FF320CAB0CA953F82230C3F3B1
:1044A000160341F8223064E648AB0393B9F1000FDC
:1044B00040F35581039ACDF808904FEAC90302EB07
:1044C0000308D8E900AB0193914658E902675246C8
:1044D0005B463046394618F053FE04460D46024608
:1044E0000B463046394618F049FE52465B4618F0F6
:1044F00047FEC8E9000168E90245C145A246AB464E
:10450000E3D1DDF80890B9F1010F40F32881019B58
:10451000039A1344D3E9006701939A460DF5947BFF
:104520005AE9028932463B464046494618F028FE81
:1045300004460D4602460B464046494618F01EFE0C
:1045400032463B4618F01CFECAE900016AE9024502
:10455000D34526462F46E3D10399019C002301F160
:104560001005083419461E46304674E9022318F037
:1045700007FEA5420346F6D10A460399D1E9008C0D
:10458000D1E902E90799002900F0B1800B9C236171
:10459000069BC4F800800CF1004009F1004102F1D3
:1045A0000042606003F00700E1606261C4F808E067
:1045B0000DF5197DBDE8F08F00000040FB21F93FAB
:1045C0000000E03F0000F03F0000703EA012030832
:1045D00048AB0393B9F1000FFFF62DAF039F002006
:1045E00007EBC9060836014676E9022318F0C8FD34
:1045F000B742F9D1079B002B3FF423AF64E0089C3E
:10460000039D083400222C4411461646304674E9B6
:10461000022318F0B5FDA5420246F6D10B460799D4
:1046200009B103F1004319460B9B1046C3E9000191
:10463000069B03F007000DF5197DBDE8F08F0026FD
:104640000027E2E6BBF1000F08F101087DDD02253D
:104650006BE500247BE5CDE90685059D30463946AE
:104660006A4200F059FD00223E4B06460F4619F003
:10467000C3F900B300223C4B3046394618F036FFF0
:1046800019F0E4F9044618F0C7FE0022354B18F083
:104690002DFF0B4602463946304618F06FFD19F0E3
:1046A000D5F90BF101090CAB183543F82B00059532
:1046B00043F829404BE63046394619F0C7F90CABB0
:1046C000D94643F82B0042E60B9C0B4601F1004112
:1046D000C4E9000103990246D1E9000118F04EFD3A
:1046E000B9F1000F3FF7BCAE01F10041C5E6184635
:1046F0000B9B4646744667464D461146C3E9040186
:10470000C3E90067C3E90245069B03F007000DF506
:10471000197DBDE8F08FA6F108030393079BDB002A
:10472000029378E4A29B032B3FF6ACAE01A252F8B1
:1047300023F000BF45470108D1450108D1450108D4
:10474000A94401080022134669E732463B4600208F
:10475000064918F013FD022506460F460CE5002316
:104760001A460AE7000070410000703E0000F03F6A
:104770002DE9F04F21F00046B6F1795F85B00C4687
:1047800090469946054604DA19F060F9002800F0D1
:1047900085802A4623462846214618F0A7FE06466D
:1047A0000F4602460B462846214618F09FFE3EA3C0
:1047B000D3E9002382468B463046394618F096FEF0
:1047C0003BA3D3E9002318F0D9FC32463B4618F04E
:1047D0008DFE39A3D3E9002318F0D2FC32463B46C4
:1047E00018F084FE36A3D3E9002318F0C7FC324644
:1047F0003B4618F07BFE34A3D3E9002318F0C0FC3D
:104800000E9BCDE900019BB30022334B4046494645
:1048100018F06CFEDDE90023CDE90201504659464F
:1048200018F064FE02460B46DDE9020118F0A6FC12
:1048300032463B4618F05AFE42464B4618F09EFC64
:1048400023A3D3E9002306460F465046594618F0E5
:104850004DFE02460B463046394618F091FC0246A2
:104860000B462846214618F089FC05B0BDE8F08FBC
:1048700002460B463046394618F038FE14A3D3E9F9
:10488000002318F07BFC52465B4618F02FFE2A46A8
:10489000234618F075FC05B0BDE8F08F2846214688
:1048A00005B0BDE8F08F00BF7CD5CF5A3AD9E53DC1
:1048B000EB9C2B8AE6E55A3E7DFEB157E31DC73ED1
:1048C000D561C119A0012A3FA6F810111111813F2D
:1048D000495555555555C53F0000E03F00000000C3
:1048E0002DE9F04FDA4C21F00046A64287B08A4607
:1048F00089461746984683461BDC19F0A7F800281E
:1049000039D1109B5A4601331343334300F0A88139
:10491000109B012B00F0B1815A4653460020CD492F
:1049200018F00EFF04460D462046294607B0BDE8A4
:10493000F08FC94B9E421EDD002904DA01F10043CD
:1049400008F100489A465A465346A3A1D1E900010E
:1049500018F014FC3A46434604460D46A0A1D1E99E
:10496000000118F00BFC22462B4618F009FC00272A
:1049700083468A46B8465A4653465846514618F02A
:10498000B5FD03460C46CDE9003402460B4618F04F
:10499000ADFDDDE9002304460D465846514618F0AA
:1049A000A5FD91A3D3E90023CDE9020120462946C4
:1049B00018F09CFD8EA3D3E9002318F0E1FB2246FA
:1049C0002B4618F093FD8CA3D3E9002318F0D8FBF5
:1049D00022462B4618F08AFD89A3D3E9002318F05C
:1049E000CFFB22462B4618F081FD87A3D3E9002395
:1049F00018F0C6FB22462B4618F078FD84A3D3E9B5
:104A0000002318F0BDFBDDE9002318F06FFD82A341
:104A1000D3E90023CDE904012046294618F066FDBC
:104A20007FA3D3E9002318F0ABFB22462B4618F0F6
:104A30005DFD7DA3D3E9002318F0A2FB22462B469F
:104A400018F054FD7AA3D3E9002318F099FB22460D
:104A50002B4618F04BFD78A3D3E9002318F090FB08
:104A600022462B4618F042FD75A3D3E9002318F027
:104A700087FB02460B46DDE9040118F081FBDDE906
:104A8000022318F033FD3A46434618F079FBDDE97E
:104A9000002318F02BFD3A46434618F071FB6AA339
:104AA000D3E9002304460D46DDE9020118F01EFD9E
:104AB00022462B4618F064FBCDE900010B46024666
:104AC0005146584618F05CFB634B9E4204460D4627
:104AD0003EDC109B012B36D002460B4600205D4980
:104AE00018F02EFE00240F4606465A46534620462E
:104AF000294618F043FBA04602460B46DDE90001BB
:104B000018F03CFB42463B4618F0F0FCA946044630
:104B10000D4642463B464046494618F0E7FC002217
:104B20004E4B18F02DFB02460B462046294618F046
:104B300027FB32463B4618F0D9FC42463B4618F06C
:104B40001FFB04460D462046294607B0BDE8F08FFE
:104B5000109818F061FC224606460F462B46204668
:104B6000294618F0C3FC3246CDE902013B462046F7
:104B7000294618F005FB02460B46DDE9020118F054
:104B8000DFFDDDE9002318F0F9FA02460B4658462E
:104B9000514618F0F3FA02460B4618F0F1FA0246B5
:104BA0000B463046394618F0E9FA04464FEAA97038
:104BB00000F00200C0F101000D4618F02DFC024685
:104BC0000B462046294618F091FC04460D46204627
:104BD000294607B0BDE8F08F182D4454FB21E93F6A
:104BE000075C143326A6813CD47ABF74702AFB3E3E
:104BF000E9A7F0320FB8123F68108D1AF726303F40
:104C00001583E0FEC8DB573F93846EE9E326823FBD
:104C1000FE41B31BBAA1AB3F735360DBCB75F3BE50
:104C2000A69237A0887E143F0165F2F2D844433F34
:104C3000280356C9226D6D3F37D60684F464963F2B
:104C40007AFE10111111C13F635555555555D53F89
:104C5000FFFF2F3E0000F0BF2794E53F0000F03F2C
:104C60005846514619F002FA02460B460020044904
:104C700018F066FD04460D4665E75C46554662E75A
:104C80000000F03F000000002DE9F04FCA4A21F07B
:104C90000043934285B00C460E46054620D9C74ACC
:104CA000934200F2D480002E80F2A081AAA3D3E91F
:104CB00000232846214618F063FA0022002318F04A
:104CC00087FE002840F0CE80A5A3D3E90023284624
:104CD000214618F00BFC02460B460020B84990E133
:104CE000B84A934200F2E280B74A934240F22B81E5
:104CF000002301930022B54B2846214618F0F6FB0D
:104D000006460F4602460B462846214618F0EEFBA3
:104D100095A3D3E9002382468B4618F0E7FB94A3C2
:104D2000D3E9002318F02CFA52465B4618F0DEFB5C
:104D300091A3D3E9002318F021FA52465B4618F0FC
:104D4000D5FB8FA3D3E9002318F01AFA52465B462D
:104D500018F0CCFB8CA3D3E9002318F00FFA5246CD
:104D60005B4618F0C3FB0022994B18F009FA804605
:104D7000894602460B463046394618F0B7FB0246D4
:104D80000B460020934918F0F9F9064602460B46F7
:104D90000F464046494618F0F1F9324680468946AA
:104DA0003B462846214618F0A1FB02460B46002050
:104DB000894918F0E3F902460B464046494618F087
:104DC000BFFC52465B4618F091FB019E02460B4623
:104DD000002E4AD0DDE9026732463B4618F0CEF994
:104DE0002A46234618F082FB32463B4618F0C6F9A5
:104DF0005B46524618F0C2F9019B013306460F4646
:104E000000F01F81019B012B78D0019A531C392B94
:104E10004FEA025600F22481019F132F40F3518183
:104E2000019BC3F57F7A0AF1030A00224FEA0A5375
:104E300018F0A6F902460B462846214618F09EF9BE
:104E40000022634B18F09CF9731819461BE0634A63
:104E500093421BD9C1F313030343024640F011816F
:104E6000002910DA00205E490DE02846214618F09E
:104E70003DFB52465B4618F081F902460B46284638
:104E8000214618F07BF905B0BDE8F08F40A3D3E9C7
:104E9000002318F0BBFD00283FF405AF3EA3D3E983
:104EA00000231046194618F021FBECE74D4A9342C7
:104EB00000F2EB8000293AA3D3E9002339DA18F095
:104EC0005FF939A7D7E900674FF0FF33804689467D
:104ED000019332463B464046494618F04FF9024698
:104EE0000B4605460C464046494618F047F93246FF
:104EF0003B4618F043F9CDE90201FBE6284621467E
:104F00000022394B18F064FD002800F0CB802846C1
:104F1000214600222D4B18F033F902460B4630464D
:104F2000394618F02BF900224FF0404318F0DEFA12
:104F3000A9E718F023F901238046894601931CA7AD
:104F4000D7E90067C5E714A3D3E9002318F018F9DF
:104F500002460B468FE700BF59F3F8C21F6EA5014A
:104F6000FE822B654715F73F2DC3096EB7FD8ABE3C
:104F70003952E686CACFD03EB7DBAA9E19CE143F7F
:104F80008555FE19A0015A3FF41011111111A13FCE
:104F9000EF39FAFE422E86409C7500883CE4377E4D
:104FA0000000E0FE422EE63F763C7935EF39EABD5F
:104FB000763C7935EF39EA3D79684340412E8640A9
:104FC0000000E0BF422ED63FFFFF8F3C0000E03FD5
:104FD0000000F03F0000084000001840FFFFEF7F96
:104FE0000000F0BFB1A2F03F0000D0BF40A3D3E962
:104FF00000232846214618F079FA02460B46002085
:10500000414918F0BDF818F021FD019018F004FA9C
:1050100039A3D3E9002306460F4618F067FA024683
:105020000B462846214618F0A9F835A3D3E90023FA
:10503000804689463046394618F058FA06460F46EB
:1050400047E732463B462846214618F097F80022AB
:105050002D4B18F04BFA00222B4B18F08FF812E76B
:105060002A46234618F08AF802460B4600202749B4
:1050700018F084F8731819460022244B18F07EF8B3
:1050800001E70B4618F07CF8FDE619A3D3E90023ED
:1050900018F02CFA002C02460B464FF00000AFDA55
:1050A0001B49AEE732463B462846214618F066F8D3
:1050B00002460B4618F064F80022144B18F060F812
:1050C000E1E64FF4001C2A4623464CFA07FA18F092
:1050D00055F8CAF17F594FF0000809F5401902460A
:1050E0000B464046494618F049F8ADE6AFF300805C
:1050F000FE822B654715F73F0000E0FE422EE63F9B
:10510000763C7935EF39EA3D0000E03F0000F03FA2
:105110000000E0BF00000000F8B5C1F30A530446E8
:105120000D460E4617460BBB21F00046034633439F
:105130001BD0354B002218F0D9F9344B9F4204465E
:105140000D4635DBC1F30A530E46363B3B4440F275
:10515000FE72934232DC002B11DD26F0FF4626F46E
:10516000E00646EA035520462946F8BD40F2FF72A4
:105170009342EBD102460B4618F002F8F8BD13F14A
:10518000350F28DA4CF250339F4222462B460ADD77
:1051900019A1D1E900011AF0E7FF17A3D3E9002311
:1051A00018F0A4F9F8BD16A1D1E900011AF0DCFF4E
:1051B00013A3D3E9002318F099F9F8BD22462B4632
:1051C0000DA1D1E900011AF0CFFF0BA3D3E9002311
:1051D00018F08CF9F8BD26F0FF4626F4E0063633C9
:1051E00046EA0355204629460022094B18F07EF96D
:1051F000F8BD00BFAFF300809C7500883CE4377EAB
:1052000059F3F8C21F6EA50100005043B03CFFFFE8
:105210000000903C10B5054C237833B9044B13B112
:105220000448AFF300800123237010BDC0030020A9
:1052300000000000E438030808B5034B1BB1034924
:105240000348AFF3008008BD00000000C403002045
:10525000E438030870B504460E4600F043FA88B1FE
:105260000368DB6A05469847082C0CD0A4F10903B3
:10527000012B14D93246214610230D20BDE8704081
:1052800004F074B870BD2B6828465B6A9847022802
:10529000F0DC2B6828461B6A04219847EAE72B6854
:1052A00028465B6A98470528E4DC2B6828461B6A79
:1052B00008219847DEE700BF38B52DED028B054683
:1052C00000F010FA044640B10368DB6A9847032DEA
:1052D00003D8DFE805F02F363D06BDEC028B002039
:1052E00038BD20460DF030FB07EE900A2046F8EE60
:1052F000E78A0DF037FB07EE900A2046B8EEE78A02
:105300000DF03EFB68EE087A07EE100AE8EEA87A88
:10531000B8EEC77AE7EE077AF5EE407AF1EE10FACA
:10532000B1EEE78A1BD4FDEEC87ABDEC028B17EE16
:10533000900A38BDBDEC028B2046BDE838400DF028
:1053400003BBBDEC028B2046BDE838400DF00ABB24
:10535000BDEC028B2046BDE838400DF011BB17EEC6
:10536000900A19F03BFDDEE738B5044600F0BAF9C3
:1053700058B10368DB6A0546984744B1012C04D153
:105380002846BDE83840FBF7DBBA002038BD284688
:10539000BDE83840FBF7B4BA10B5044600F0A2F9F6
:1053A00028B1036821461B6ABDE81040184710BDAC
:1053B0000048704716FCFFFF704700BF10B5034B55
:1053C000036004460DF0BCF8204610BDC02203085F
:1053D00010B5054B036004460DF0B2F820461BF0F3
:1053E000F2FA204610BD00BFC02203082DE9F041AB
:1053F0004FF0FF3184B00546462001F0D3FC682809
:105400000CBF33210321512001F0CCFCDFF8D0C2C6
:10541000A84B044604F00F06C4F3031714F4807479
:1054200008BF6346A44831463A460CF079FA221C7C
:1054300018BF012231463B4628460FF0D5FE002317
:10544000AB609E480CF06CFA4FF0FF31032001F086
:10545000A9FC04F0E9FE4FF0FF310446022001F000
:10546000A1FC04F0E1FE002C39D0002837D0014621
:10547000204604F07DFB0646002849D0382146200E
:1054800001F090FC322804464BD048DD382800F06B
:10549000AC8068285BD14FF0FF31012001F082FC25
:1054A00004F0C2FE80465C201BF096FA05230193AF
:1054B0004246009431462B4607460EF00DFFAF6082
:1054C0003B6838469B6A9847A8680368DB6A984738
:1054D0007B480CF025FA284604B0BDE8F0817948F5
:1054E0000CF01EFA4FF0FF31192001F05BFC04F0C4
:1054F0009BFE4FF0FF310446182001F053FC04F0EE
:1055000093FE0146204604F033FB06460028B5D141
:105510006D480CF005FA284604B0BDE8F08130284B
:1055200015D14FF0FF31012001F03CFC04F07CFE6E
:10553000804650201BF050FAA4B207460523019381
:105540004246009431462B460EF070FCB7E701242A
:105550003268CDE900440023576AAB600F220DF199
:105560000F0332213046B847002800F081803368AD
:10557000CDE900440F225F6A30210DF10F03304660
:10558000B847002848D03368CDE900440D225F6A4F
:1055900038210DF10F033046B84700286ED032682D
:1055A000CDE900440DF10F03576A6821752230469A
:1055B000B847002842D1682144480CF0B1F94FF0B7
:1055C000FF31204601F0EEFB04F02EFE80465C2009
:1055D0001BF002FA05246823CDE900344246314627
:1055E0002B4607460EF078FE69E74FF0FF310120A9
:1055F00001F0D8FB04F018FE804650201BF0ECF9B7
:1056000005230746019342462B46009431460EF08F
:1056100043FD2F4B3B6052E730212C480CF080F9C2
:1056200030244FF0FF31012001F0BCFB04F0FCFD01
:10563000804650201BF0D0F907467FE725480CF044
:105640006FF9AF68002F7FF43BAF4FF0FF310320BD
:1056500001F0A8FB04F0E8FD30B11F480CF060F940
:10566000284604B0BDE8F0811C480CF059F952E717
:10567000322116480CF054F93224D2E7382113486D
:105680000CF04EF94FF0FF31204601F08BFB04F097
:10569000CBFD804650201BF09FF905243823074698
:1056A000CDE9003442462B4631460EF0F5FC084B5E
:1056B0003B6004E72413030834130308541303085E
:1056C000141403086413030878130308A4130308CD
:1056D000F012030890130308B8130308F413030827
:1056E0002C13030838B5104C23680BB1986838BDEB
:1056F0004FF0FF31012001F055FB04F095FD40B162
:105700000C201BF069F90546FFF770FE2560A868BC
:1057100038BD4FF0FF31032001F044FB04F084FD5D
:105720000028EDD138BD00BFDC03002008B501F032
:105730006BFCFBF795FEBDE8084001F0C5B900BF62
:1057400008B501F061FCFBF7FBFEBDE8084001F085
:10575000BBB900BF08B501F057FC18F0FDFCBDE86F
:10576000084001F0B1B900BF08B501F04DFC19F0D7
:1057700071FABDE8084001F0A7B900BF08B501F013
:1057800043FCFBF77DFEBDE8084001F09DB900BF7A
:1057900008B501F039FC18F00DFFBDE8084001F034
:1057A00093B900BF08B501F02FFCFBF7E9F8BDE89D
:1057B000084001F089B900BF08B501F025FC18F0D8
:1057C0004FFEBDE8084001F07FB900BF70B5049EF0
:1057D00096420C4624DB15466BB9042A19D0022ADE
:1057E00002D110F0010310D001462A46204608F0ED
:1057F0007DFB002070BD10440D4410F8013D01F800
:10580000013B8D42F9D1002070BD02880A80184604
:1058100070BD10F00303E7D102680A60184670BD3E
:105820000846002109F0F4FC4FF0FF3070BD00BFC6
:105830000830704740B1002905DB43688B4202DD28
:105840000844007A70470020704700BF30B100293B
:1058500004DB43688B42C4BF40180272704700BF2C
:1058600040B1002905DB4368994202DA0844007A16
:1058700070470020704700BF830704D1030F0CBF9F
:105880000120002070470120704700BF30B100297F
:1058900004DB43689942BCBF40180272704700BFE6
:1058A000F8B5002B20DB00291EDB46688E421BDB8F
:1058B0005468761AE51AB542A8BF3546002D13DBA9
:1058C000824202F108070C4600F108062A4605D07C
:1058D000F918301908F00AFB0020F8BDF118381942
:1058E0001BF0ADF80020F8BD4FF0FF30F8BD00BF51
:1058F0004068704710B4141E10DB4268A2420DDBF2
:1059000033EA230328BF1346121B08309A4220446F
:10591000A8BF1A465DF8044B09F07ABC5DF8044B49
:10592000704700BF10B443688B4200F1080418466A
:10593000A8BF084632EA220128BF19461B1A99421D
:105940002044A8BF19465DF8044B00F0B5BE00BF67
:1059500070B5002BBCBF43689B1A002A0E4620DBA3
:1059600044689918A1421CDC91421ADBCBB136F095
:10597000004116D05942B14214DAB34212DD083068
:10598000002E00EB020515DB9C1B2246A9192846B8
:105990001BF055F8324628190021BDE8704009F087
:1059A00037BC70BD002211464FF0FF33BDE8704098
:1059B000FFF7A0BF74429A19294628191BF03FF837
:1059C000224628460021BDE8704009F021BC00BFF6
:1059D00003460830596800F0EBBD00BF70B50546BE
:1059E00000206968490000F069FD6B68002B14DD38
:1059F0000A4EEB1D02465C782411991F345D9471A8
:105A00005C7804F00F04491B345DD4716C688C42DF
:105A100002F1020203F10103EDDC70BD241403085E
:105A2000002BBCBF43689B1A002A30DB70B445686A
:105A30009C18AC4229DC944227DB33B331F000449C
:105A400023D00029B8BF01EB032191FBF3F403FB42
:105A50001411002900F10800B8BFC918024411440C
:105A60008A42134411D00C4604E08A4204460FD007
:105A700094420AD02046157810F8016B02F8016BA9
:105A800083422570F1D10C46F2E770BC7047704735
:105A90000146EDE700B583B04FF0FF3300930023DC
:105AA000FFF7FEFE03B05DF804FB00BF10B50C1E4F
:105AB0000EDD4168083002F0CFF81F2C07DC01230F
:105AC000A34020FA04F4013B444004EA030010BD63
:105AD000002010BD0146002000F0EEBD38B50021C9
