:020000040002F8
:1060000000000420FDB9030025BA030027BA0300ED
:1060100029BA03002BBA03002DBA030000000000C8
:106020000000000000000000000000002FBA030084
:1060300031BA03000000000033BA030035BA030090
:1060400037BA030037BA03009DB8030061B80300F4
:1060500075B8030037BA0300A5AC030037BA0300D4
:10606000F1B40300F9B4030001B5030037BA03002B
:1060700037BA030037BA030037BA030037BA030050
:1060800037BA030037BA030037BA030037BA030040
:1060900037BA030037BA030037BA030037BA030030
:1060A00037BA030037BA030009B5030011B503007E
:1060B00037BA030037BA03000000000000000000F8
:1060C00037BA030037BA030037BA030089B80300B0
:1060D00037BA030037BA030037BA030037BA0300F0
:1060E000C5B8030037BA030037BA03000000000048
:1060F0000000000037BA030000000000B1B8030040
:10610000000000000000000000000000000000008F
:10611000000000000000000000000000000000007F
:10612000000000000000000000000000000000006F
:10613000000000000000000000000000000000005F
:10614000000000000000000000000000000000004F
:10615000000000000000000000000000000000003F
:10616000000000000000000000000000000000002F
:10617000000000000000000000000000000000001F
:10618000000000000000000000000000000000000F
:1061900000000000000000000000000000000000FF
:1061A00000000000000000000000000000000000EF
:1061B00000000000000000000000000000000000DF
:1061C00000000000000000000000000000000000CF
:1061D00000000000000000000000000000000000BF
:1061E00000000000000000000000000000000000AF
:1061F000000000000000000000000000000000009F
:106200007CB0EE877CB0EE87FF00FF00FF00FF0050
:10621000FF00FF00FF00FF00FF00FF00FF00FF0086
:10622000FF00FF00FF00FF00FF00FF00FF00FF0076
:10623000FF00FF00FF00FF002DE9F04F85B0039144
:106240000778A7F10903042B044607F07F0200F149
:106250000100F5D9202AF3D02B2F04BF677804461C
:106260002D2F75D09FED427B8DED007B4FF0000808
:106270004FF000099FB34FF0000C25464FF0000A85
:10628000DFF8FCB0644619E018F07AF880468946D9
:10629000304618F00BF842464B4617F0BBFE52460C
:1062A000804689465B46DDE900013CB318F092F96F
:1062B000CDE90001A44615F8017F7FB1A7F13006B2
:1062C000092E52465B4640464946DDD9CCB92E2FB1
:1062D00017D115F8017F0124002FEFD12C4642463B
:1062E0004B46DDE9000118F04BF880468946039BD8
:1062F000404649461C6005B0BDE8F08F4FF0010CE8
:10630000D9E72C46BCF1000F29D042464B46DDE9C7
:10631000000118F035F807F0DF07452F8046894661
:10632000E5D10399681C0A2217F058FE1449024669
:10633000002018F0D5FB02460B464046494618F0AF
:106340001FF8804689464046494605B0BDE8F08FB3
:106350009FED097B67788DED007B013486E7DFF8E0
:1063600024904FF000084046494605B0BDE8F08F44
:10637000000000000000F03F000000000000F0BF3F
:10638000000024400000F87F2DE9F0470023144668
:1063900000228046894618F065FA28B109F10043C9
:1063A00099462D232370013400220023404649469C
:1063B00018F04EFA28B13022002322706370BDE835
:1063C000F0874046494616F04DFB18F089FA73A352
:1063D000D3E9002307464946404618F043FA00280F
:1063E0004ED170A3D3E900234046494618F058FA2D
:1063F000002845D10E2F07F1010540F3B980A7F120
:106400000E0632460020624918F06AFB02460B462F
:106410004046494618F0DEF800225E4B17F0FAFDC0
:1064200018F09AFB002DA7F10F0E4FF0010C4DDD77
:10643000594FDFF87881012245F6F3294FF02E0AF3
:10644000494508BF40454FF030030AD3B0EB080080
:1064500061EB0901494508BF404503F10103F5D24D
:10646000DBB2237050EA010304F101084AD19542DE
:1064700052DD0132102A4FD0444677E90289DFE726
:10648000002F33DB3A460020414918F029FB024631
:106490000B464046494618F09DF83BA3D3E900233C
:1064A00080468946012500264046494617F068FF88
:1064B0000022384B17F0AEFD18F04EFB002DBC4605
:1064C0004FF0FF3E37464FF00006B1DC2346302246
:1064D0004FF02E0803F8022B84F80180FC4345D0CE
:1064E0001C4403F8012BA342FBD1A1E77A42002010
:1064F000274918F0F5FA02460B464046494617F080
:106500003FFFCAE7954202F1010204BF84F801A0EF
:1065100004F10208102AAFD16EB14246302102F8D0
:10652000011BC2F1010373444344002BF7DC2EEA44
:10653000EE7301339844BCF1010F12D0BCF1000F8F
:106540004FF0650388F80030C5BF2B2388F8013071
:1065500008F1010108F102016046BDE8F04710F0C2
:10656000DFB9002388F80030BDE8F0871C465FE7FC
:10657000C7F10E020020064918F0B2FA3E46024664
:106580000B46012790E700BF0000901EC4BCD64216
:10659000000024400000E03F58F603008DEDB5A058
:1065A000F7C6B03E50EFE2D6E41A4B4400407A10F2
:1065B00070B54FF0FF3006F017FA04466FF07F40D9
:1065C00006F012FA0646204617F060FE00220C4B39
:1065D00017F0D6FE044630460D4617F057FE06A3C8
:1065E000D3E9002317F0F6FF02460B462046294662
:1065F00017F010FD70BD00BF0000E0DFFFFF6F432C
:106600000000F03D000000002DE9F04F1D46138909
:10661000AB4288BF536885B004468CBF53F8250051
:10662000002090468A4606F053FE0022904B17F059
:10663000A7FE18F055F9B8F808206B1C9A4288BFDD
:10664000D8F8042006468CBF52F82300002006F03C
:106650003FFE0022864B17F093FE18F041F9B8F880
:1066600008300235AB4288BFD8F8043007468CBFEB
:1066700053F82500002006F02BFE002EC4E9006729
:1066800040F3E280002F40F3DF8071A3D3E90023C1
:10669000002584F8285016F007F9002200238046D0
:1066A000894618F0DFF840B14046494668A3D3E96F
:1066B000002317F0AFFC8046894667A3D3E9002387
:1066C0004046494618F0ECF8C0B165A3D3E9002371
:1066D0004046494618F0D0F880B10123404649466B
:1066E00084F8283060A3D3E9002317F093FC58A363
:1066F000D3E9002316F0D8F88046894600225D4B86
:106700004046494617F03CFE15F002FE01F10043F9
:1067100000221946564B17F033FE18F0E1F84946AF
:106720000546404615F0B0FD0022514B17F028FEFB
:1067300018F0D6F8DAF804304F49B3F80CB0B3F8D3
:106740000AA0A56007FB0BF303EB010806FB0AF6A2
:10675000019388FB05234FEA124C00960E444CEA45
:10676000034C06EA010383FB009A06EB0C0E0EEACB
:10677000010ED346CA468EFB00675246CDE902673A
:10678000120C42EA0B42DDE902AB0CEA010C8CFB75
:1067900000674FEA164956460A40360C46EA0B4651
:1067A00049EA074982FB05AB5F46C144B0445646FF
:1067B000CDE90267039FE060360C09EA010908EAA7
:1067C000010846EA074689FB05AB334488FB0556BA
:1067D000CDE9025655462D0C45EA0B45DDE902ABE5
:1067E0000B40AC4403EAE3770CEA010C554623EA7C
:1067F000E37367454FEA154502EAE276A8BF6746AC
:1068000045EA0B45634522EAE272B8BF6346AE44EF
:106810004E450EEA010EA8BF4E464A45B8BF4A464D
:106820007745A8BF77467345B8BF73464645A8BFAE
:106830004646C4E905634245B8BF424600980199FF
:10684000206261622761E261204605B0BDE8F08FF9
:10685000EA2E4454FB211940F4D64354FB21F93F5E
:10686000320D337F7CD91240EA2E4454FB2109407B
:106870000000F0400000E03F0000FFFF00000000CB
:1068800008B511F015FBDFED0C7A07EE100A67EE84
:10689000277A17EE900A17F01BFD05A3D3E9002312
:1068A00017F098FE18F01CF808BD00BFAFF3008089
:1068B000EA2E4454FB2119400000B44300000000BC
:1068C00008B511F009FBDFED0C7A07EE100A67EE50
:1068D000277A17EE900A17F0FBFC05A3D3E90023F3
:1068E00017F078FE17F0FCFF08BD00BFAFF3008083
:1068F000EA2E4454FB2119400000B443000000007C
:10690000494A21F0004393422DE9704304460D4665
:1069100049DC464A93420E460EDC3FA3D3E90023EE
:1069200017F078FB0022424B17F0BAFF00284AD03C
:1069300020462946BDE870833E4A934239DCB3F1D4
:10694000804F40DD15F09CFC2246804689462B4650
:106950002046294617F014FD0022354B17F05AFB4C
:1069600016F02AFB42464B4617F054FB02460B46F4
:1069700000202F4917F02EFE424604460D464B4696
:106980004046494617F046FB02460B46204629463C
:1069900017F040FB02F040F8002E08DC01F1004344
:1069A0001946BDE8708302460B4617F033FBBDE87D
:1069B000708315F065FC02F02FF819A3D3E90023CA
:1069C00017F028FBE8E722462B462046294617F019
:1069D000D7FC804689462046294615F051FC002206
:1069E00004460D46124B4046494617F013FB16F07D
:1069F000E3FA00220E4B17F00DFB02460B46404611
:106A0000494617F0E7FD22462B4617F003FB00F03E
:106A1000A7FAC1E7AFF300809C7500883CE4377E9D
:106A2000EF39FAFE422EE63FFFFFEF7FFFFF2F3EDA
:106A30000000F03F0000B0412DE9F84FBE4B21F0BF
:106A400000469E4204460D468A460EDDBB4B9E42E2
:106A500000F3B18000F0AC80BAF1000F40F3EA809F
:106A600099A1D1E90001BDE8F88FB54B9E4200F332
:106A7000BA80A3F1DE739E4240F3A5804FF0FF3B46
:106A800022462B462046294617F07AFC02460B4642
:106A90008046894617F074FC8DA3D3E9002306468F
:106AA0000F4617F06DFC8CA3D3E9002317F0B2FA60
:106AB00032463B4617F064FC89A3D3E9002317F064
:106AC000A9FA32463B4617F05BFC87A3D3E90023C3
:106AD00017F0A0FA32463B4617F052FC84A3D3E9E4
:106AE000002317F097FA32463B4617F049FC82A381
:106AF000D3E9002317F08EFA42464B4617F040FCCC
:106B00007FA3D3E90023804689463046394617F0F3
:106B100037FC7DA3D3E9002317F07AFA32463B46CF
:106B200017F02EFC7AA3D3E9002317F071FA32464E
:106B30003B4617F025FC78A3D3E9002317F068FA49
:106B400032463B4617F01CFC75A3D3E9002317F02F
:106B50005FFA32463B4617F013FC02460B464046AE
:106B6000494617F057FA22462B4617F009FCBBF1AD
:106B7000FF3F02460B4661D0724B734E4FEACB0B80
:106B80005B44D3E9002317F043FA22462B4617F063
:106B90003FFAB34402460B46DBE9000117F038FA2E
:106BA000BAF1000F0DDA01F100431946BDE8F88F84
:106BB00000283FF451AF22462B462046294617F0C5
:106BC00029FABDE8F88F58A3D3E9002317F022FA79
:106BD00000225E4B17F064FE00283FF44FAF2046C2
:106BE0002946BDE8F88F15F04BFB594B9E420446F1
:106BF0000D4629DCA3F550239E424EDC02460B468F
:106C000017F008FA0022514B17F002FA002206464C
:106C10000F464FF080432046294617F0FBF9024605
:106C20000B463046394617F0D5FC4FF0000B0446B2
:106C30000D4625E73EA1D1E90001C2E720462946DD
:106C400017F0E6F9BDE8F88F424B9E421ADC0022AD
:106C5000414B17F0DDF9002206460F463E4B204619
:106C6000294617F08DFB0022384B17F0D3F9024666
:106C70000B463046394617F0ADFC4FF0020B044688
:106C80000D46FDE602460B460020344917F0A2FCF3
:106C90004FF0030B04460D46F2E600222B4B17F093
:106CA000B7F9002206460F46284B2046294617F022
:106CB000B1F902460B463046394617F08BFC4FF0CF
:106CC000010B04460D46DBE6182D4454FB21F93F29
:106CD00011DA22E33AAD903FEB0D76244B7BA93FCE
:106CE000513DD0A0660DB13F6E204CC5CD45B73F9C
:106CF000FF8300922449C23F0D5555555555D53F48
:106D00002F6C6A2C44B4A2BF9AFDDE522DDEAD3F3B
:106D10006D9A74AFF2B0B33F711623FEC671BC3FDB
:106D2000C4EB98999999C93F9C7500883CE4377EDB
:106D3000182D4454FB21F9BFFFFF0F440000F07FE2
:106D4000FFFFDB3F80F6030060F603000000F03F2A
:106D5000FFFFF23FFF7F03400000F83F0000F0BF5D
:106D60002DE9F041C1F30A57A7F2FF35132D024672
:106D70000B460C468846064620DC002D4ADB364F83
:106D80002F4101EA070C5CEA000C1CD030A3D3E9C8
:106D9000002317F03FF90022002317F081FD48B1CE
:106DA000002C04DD4FF4801343FA05F5A84428EACB
:106DB0000704002621463046BDE8F081332D06DD6C
:106DC000B5F5806F38D010461946BDE8F081A7F2BE
:106DD00013474FF0FF3C2CFA07F70742F3D01CA3F0
:106DE000D3E9002317F016F90022002317F058FD0D
:106DF0000028DFD0002C09DD142D22D00123C5F19D
:106E0000340503FA05F5AE1928BF984426EA0706AB
:106E10004446CFE70EA3D3E9002317F0FBF8002286
:106E2000002317F03DFD0028C4D0002C0CDB2643C6
:106E300005D00026094CBDE717F0ECF8C5E734464D
:106E4000B8E704F10108E1E700264FF00044B1E79C
:106E50009C7500883CE4377EFFFF0F000000F03F88
:106E60002DE9F041C1F30A57A7F2FF35132D024671
:106E70000B460C46884606461DDC002D3CDB364F93
:106E80002F4101EA070C5CEA000C19D030A3D3E9CA
:106E9000002317F0BFF80022002317F001FDC8B34C
:106EA000002C04DA4FF4801343FA05F5A84428EACD
:106EB000070400262EE0332D06DDB5F5806F2DD0BA
:106EC00010461946BDE8F081A7F213474FF0FF3C8A
:106ED0002CFA07F70742F3D01DA3D3E9002317F0DC
:106EE00099F80022002317F0DBFC98B1002C21DB7D
:106EF00026EA070644460DE015A3D3E9002317F060
:106F000089F80022002317F0CBFC18B1002C08DB15
:106F10000026344621463046BDE8F08117F07AF865
:106F2000D0E724F000430D4A1E43002E18BF14463C
:106F30000026EFE7142D08D00123C5F1340503FA2C
:106F400005F5AE1928BF9844D2E704F10108CFE750
:106F50009C7500883CE4377EFFFF0F000000F0BF07
:106F60002DE9F04FD84B994287B08046894643DDE2
:106F7000D64B99420E4600F3F480D54B994240F32C
:106F80002D819FEDBB7B8DED047B4FEA215A04469A
:106F9000AAF2FF3ACF4BC6F313069E4246F07F5546
:106FA00000F3128145F44015204629460022CA4BC1
:106FB00017F02EF8002204460D46C84B17F0E0F9F2
:106FC00022462B4617F0DCF9A046CDE90201A9467E
:106FD000CDE90001002E3AD10022002320462946A7
:106FE00017F036FC002800F01B81BAF1000F40F0CA
:106FF000858100200021B8E0B94B21F000449C427B
:107000000A460FDD0022B74B17F022FC002800F0E3
:10701000AF80002200230020B34917F0DBFA07B04D
:10702000BDE8F08FB14B9C4240F3AF80B04B1A44A7
:107030009A4240F2D3800022A84B17F0A1F94246B1
:107040004B4617F09DF9CDE900014FF0000A0022F0
:107050004FF080434046494616F0DCFF02460B469F
:107060004046494617F0B6FA02460B4606460F461A
:1070700017F086F980A3D3E9002304460D4617F0E4
:107080007FF97FA3D3E9002316F0C4FF22462B46E5
:1070900017F076F97CA3D3E9002316F0BBFF224654
:1070A0002B4617F06DF97AA3D3E9002316F0B2FF4F
:1070B00022462B4617F064F977A3D3E9002316F094
:1070C000A9FF22462B4617F05BF975A3D3E90023ED
:1070D00016F0A0FF22462B4617F052F972A3D3E90F
:1070E000002316F097FF22462B4617F049F9DDE9F9
:1070F000002316F08FFF32463B4617F041F9044655
:107100000D46BAF1000F00F0A880504617F0CEF8F7
:1071100067A3D3E9002382468B4617F031F966A3B3
:10712000D3E9002306460F465046594617F028F982
:10713000DDE9042316F06EFF22462B4616F06AFFA7
:1071400002460B46DDE9000116F062FF42464B465F
:1071500016F05EFF02460B463046394616F058FFE1
:1071600003E002460B4616F055FF07B0BDE8F08F6E
:1071700042464B464046494616F04AFF02460B46F9
:1071800017F028FA07B0BDE8F08F0022594B16F02F
:1071900041FF0022002317F083FB10B1564B9C42A5
:1071A00062DD42464B464046494617F0E9F8002268
:1071B0004A4B17F0E5F802460B464046494616F0A2
:1071C00027FF07B0BDE8F08F45F40015C6F580161F
:1071D00020462946B6100AF1010AE7E600223E4B96
:1071E0004046494616F016FF4FEA215AAAF2FF3AE6
:1071F000BAF1000F04460D460E4640F3BD804246EC
:107200004B4616F005FF02460B460020324916F0A9
:10721000FFFE22462B4617F0DDF9CDE90401B9E661
:1072200027A3D3E900232046294617F0A9F80246F0
:107230000B460020284916F0EBFEDDE9022317F08B
:107240009FF806460F46BAF1000F75D102460B466D
:107250002046294616F0DCFE87E702460B46DDE9AC
:10726000000116F0D5FEA6E7404649467DE700BF7F
:10727000000000000000000044523EDF12F1C23F57
:107280009FC678D0099AC33FDE03CB966446C73FBA
:10729000AF788E1DC571CC3F599322942449D23FBB
:1072A00004FA97999999D93F935555555555E53F06
:1072B0000000E0FE422EE63F763C7935EF39EA3DAC
:1072C000555555555555E53F7982DA3FFFFFEF7F1C
:1072D000FFFF3F439DA006000000F03F0000E03F9D
:1072E000FFFFEF3F0000F0BF000050C3FFFF1F3E55
:1072F0003C412D4000005043FFFF8F3C504616F0AC
:10730000D5FF24A3D3E9002306460F4617F038F82B
:10731000DDE9042316F07EFE20A3D3E90023044612
:107320000D463046394617F02BF802460B462046EC
:10733000294616F06FFE18E7504616F0B7FF17A360
:10734000D3E9002382468B4617F01AF811A3D3E93C
:107350000023804689465046594617F011F8DDE96A
:10736000042316F057FE02460B463046394616F007
:107370004FFE22462B4674E70022054B16F048FECE
:1073800002460B464046494616F042FE41E700BF22
:107390000000F03F763C7935EF39EA3D0000E0FE31
:1073A000422EE63F0000000008B515F0DDFA04A308
:1073B000D3E9002317F00EF908BD00BFAFF300803A
:1073C000EF39FAFE422EE63F2DE9F043DFF8B480B4
:1073D0008BB004460D4601F0F7F898F90030013300
:1073E00006460F462CD022462B462046294617F04B
:1073F00061FA814620BB2046294614F041FF1FA3B5
:10740000D3E9002317F04CFAD0B1194A98F90030AB
:10741000CDF820900321CDE90445CDE90245CDE921
:10742000001293B113490020022BCDE9060111D1BE
:1074300016F07CFD22230360089B9BB9DDE90667FB
:10744000304639460BB0BDE8F0830B4B4FF060423D
:10745000CDE90623684616F0E5FB0028E8D0089B36
:10746000002BEBD016F062FD089B0360E6E700BF3F
:10747000180804000000F07FFFFFEF477DF8B98F88
:10748000CE338640FB8100202DE9F043DFF8E48015
:107490008BB004460D4601F047F998F900300133EE
:1074A00006460F4633D02046294616F0B5FB70B38A
:1074B0002CA3D3E900232046294617F0F1F9814691
:1074C00050BB2AA3D3E900232046294617F0CAF966
:1074D000E8B198F90030204ACDF820900020002132
:1074E0000426022BCDE90445CDE902450096CDE9FD
:1074F0000601019229D0684616F094FB28B3089B38
:107500001BB116F013FD089B0360DDE906673046EA
:1075100039460BB0BDE8F0830F4A98F9003001926C
:1075200003210022CDE90445CDE9024500910892EE
:107530002BB90A4B4FF06042CDE90623DBE708493F
:107540000020022BCDE90601D5D116F0EFFC222355
:107550000360D4E7AFF3008020080400FFFFEF478B
:107560000000F07FEF39FAFE422E864051302DD5D3
:10757000104987C0FB8100202DE9F04FDFF82C93E4
:107580008DB006460F4614461D4601F09DFC99F944
:107590000080B8F1FF3FCDE9000136D022462B46EE
:1075A0002046294617F086F9834670BB32463B4693
:1075B0003046394617F07EF98246002840F0A28016
:1075C000304639460022002317F042F910B300225A
:1075D00000232046294617F03BF98346002867D050
:1075E0009FEDA77B0122AC4BCDF828A00292CDE9FC
:1075F0000467CDE906458DED087B0393B8F1000FD4
:1076000041D09FEDA17B8DED007BDDE900010DB048
:10761000BDE8F08FDDE9000116F0FEFA8046002893
:1076200000F08D804FF0000A4FF0000BDDE9000103
:1076300052465B4617F00CF90028E6D03046394632
:1076400016F0EAFA0028E0D02046294616F0E4FABF
:107650000028DAD099F900308F4A039204210022E1
:10766000022BCDE90467CDE90645CDE908AB0291CF
:107670000A9203D002A816F0D5FA50B916F056FCBB
:107680002223036005E002A816F0CCFA002800F0DF
:107690009B800A9B1BB116F049FC0A9B03609DED81
:1076A000087B8DED007BDDE900010DB0BDE8F08FBA
:1076B0002046294616F0B0FA0028A6D00022002362
:1076C0002046294617F0CEF800289ED0724A99F934
:1076D0000030CDF828B00121CDE90467CDE9064599
:1076E000CDE90212002B74D06C490020022BCDE9A9
:1076F000080172D116F01AFC212303600A9B002BAB
:10770000CDD0C8E7002200232046294617F0A0F874
:1077100000283FF47AAF624B5F49CDF828B00022D1
:107720000120B8F1020FCDE904670290CDE90645CA
:10773000CDE908230391A6D1CDE9002365E73046C2
:10774000394616F069FA00283FF46CAF2046294606
:1077500016F062FA00283FF465AFDDE90023104619
:10776000194617F0A7F899F900A000286BD1032358
:10777000DFF824C10A902946204602930022494B93
:10778000CDF80CC0CDE90645CDE9046716F0F8FD4B
:1077900004460D46BAF1000F25D1DFF814B14FF0C1
:1077A000604A0022002330463946CDE908AB17F085
:1077B00059F838BB02A816F035FA00289ED116F009
:1077C000B5FB2223036099E716F0B0FB2123036089
:1077D0005FE79FED2B7B8DED087B02A816F022FA68
:1077E00000288BD186E79FED2A7B002200233046BC
:1077F00039468DED087B17F035F8A0B9BAF1020FC4
:10780000DDD0D7E72046294616F014FA22462B464B
:1078100017F01EF8A0B9244B99F900A04FF0604270
:10782000CDE90823EAE72046294616F003FA224666
:107830002B4617F00DF818B9184B0022CDE9082394
:1078400099F900A0DAE70122134BCDF828800292C3
:10785000CDE90467CDE906450393BAF1000FB8D02E
:10786000002200231046194616F0B4FEBAF1020FAA
:10787000CDE908013FF43EAFAFE700BFAFF30080B2
:107880000000000000000000000000000000F03FC9
:10789000000000000000F07F380804000000F0FF46
:1078A0000000F03F0000E03FFFFFEFC7FB8100203A
:1078B000FFFFEF47000000002DE9F84FC44E21F014
:1078C0000043B34204460D460DDD03F1404303F58A
:1078D0008013034340F0B980002940F34081002029
:1078E0000021BDE8F88FBB4EB34208DCBA4A934290
:1078F00000F3B5809CA1D1E90001BDE8F88F002913
:10790000C0F2708102460B460020B44916F080FB9D
:107910000022B34B16F034FD04460D4615F04CFB27
:1079200093A3D3E90023894680462946204616F0D2
:1079300027FD91A3D3E9002316F06CFB22462B46CA
:1079400016F01EFD8EA3D3E9002316F061FB22463C
:107950002B4616F015FD8CA3D3E9002316F05AFB35
:1079600022462B4616F00CFD89A3D3E9002316F01E
:107970004FFB22462B4616F003FD87A3D3E90023D5
:1079800016F048FB22462B4616F0FAFC84A3D3E9F6
:10799000002382468B462046294616F0F1FC82A33E
:1079A000D3E9002316F034FB22462B4616F0E8FC00
:1079B0007FA3D3E9002316F02DFB22462B4616F0B9
:1079C000DFFC7DA3D3E9002316F022FB22462B46E1
:1079D00016F0D6FC0022814B16F01CFB02460B462B
:1079E0005046594616F0F6FD42464B4616F0C8FC86
:1079F000002682468B4632464B463046494616F0B4
:107A0000BFFC02460B462046294616F001FB3246D3
:107A100004460D464B464046494616F0FBFA0246E0
:107A20000B462046294616F0D5FD02460B46504629
:107A3000594616F0EFFA32464B4616F0EBFA02467C
:107A40000B4616F0E7FABDE8F88F02460B4616F033
:107A5000DFFA02460B4616F0BDFDBDE8F88F024680
:107A60000B4616F08DFC42A3D3E9002306460F46D1
:107A700016F086FC40A3D3E9002316F0CBFA324679
:107A80003B4616F07DFC3EA3D3E9002316F0C0FA76
:107A900032463B4616F074FC3BA3D3E9002316F0B4
:107AA000B9FA32463B4616F06BFC39A3D3E9002302
:107AB00016F0AEFA32463B4616F062FC36A3D3E926
:107AC000002316F0A7FA32463B4616F059FC34A3C1
:107AD000D3E90023804689463046394616F050FCEB
:107AE00031A3D3E9002316F093FA32463B4616F051
:107AF00047FC2FA3D3E9002316F08CFA32463B460D
:107B000016F03EFC2CA3D3E9002316F081FA32468E
:107B10003B4616F035FC0022304B16F07BFA02464D
:107B20000B464046494616F055FD22462B4616F0B8
:107B300027FC02460B4622A1D1E9000116F068FAA3
:107B400002460B462046294616F062FA02460B46CC
:107B500005A1D1E9000116F05BFABDE8F88F1AA182
:107B6000D1E9000179E700BF182D4454FB21F93F0A
:107B700009F7FD0DE13D023F88B20175E0EF493F95
:107B80003B8F68B52882A43F5544880E55C1C93F34
:107B90007D6FEB0312D6D43F555555555555C53F0E
:107BA00082922EB1C5B8B33F59018D1B6C06E63FDA
:107BB000C88A599CE52A00404B2D8A1C273A03406D
:107BC000075C143326A6913C182D4454FB21094030
:107BD000FFFFEF3FFFFFDF3F0000603C0000F03F92
:107BE0000000E03F00225C4B16F014FA00225B4BD1
:107BF00016F0C6FB40A3D3E9002304460D4616F059
:107C0000BFFB3FA3D3E9002316F004FA22462B461C
:107C100016F0B6FB3CA3D3E9002316F0F9F922468F
:107C20002B4616F0ADFB3AA3D3E9002316F0F2F988
:107C300022462B4616F0A4FB37A3D3E9002316F007
:107C4000E7F922462B4616F09BFB35A3D3E9002328
:107C500016F0E0F922462B4616F092FB8046894644
:107C60002046294615F0A8F92FA3D3E9002306469C
:107C70000F462046294616F083FB2DA3D3E90023A7
:107C800016F0C6F922462B4616F07AFB2AA3D3E952
:107C9000002316F0BFF922462B4616F071FB28A3ED
:107CA000D3E9002316F0B4F922462B4616F068FB00
:107CB0000022294B16F0AEF902460B4640464946D3
:107CC00016F088FC32463B4616F05AFB1EA3D3E959
:107CD000002316F09DF932463B4616F09BF902460A
:107CE0000B4616F097F902460B4619A1D1E900019F
:107CF00016F08EF9B1E600BF09F7FD0DE13D023F38
:107D000088B20175E0EF493F3B8F68B52882A43FF8
:107D10005544880E55C1C93F7D6FEB0312D6D43F41
:107D2000555555555555C53F82922EB1C5B8B33FEF
:107D300059018D1B6C06E63FC88A599CE52A004014
:107D40004B2D8A1C273A0340075C143326A6913C2E
:107D5000182D4454FB2109400000F03F0000E03F93
:107D6000414A91422DE9F84304460D4637DD3F4A2A
:107D700091420B4608DD02F1795291423DDD024607
:107D800016F048F9BDE8F88301F1404202F580128F
:107D900002432ED0B1F1804F37DC0022344B16F075
:107DA00037F902460B4604460D4616F033F92246D3
:107DB00006460F462B462046294616F0E1FA0246B3
:107DC0000B463046394616F025F915F0F5F82246EF
:107DD0002B4616F01FF9BDE8F843FFF7C1B802467D
:107DE0000B4616F015F902460B4616F0F3FBBDE8FC
:107DF000F88300200021BDE8F88300F00DFE18A3F1
:107E0000D3E9002316F006F9F1E7024616F0B8FAB6
:107E10000022174B16F0FCF815F0CEF822468046EB
:107E200089462B462046294616F0F4F82246064697
:107E30000F462B464046494616F0ECF802460B46E4
:107E400000200B4916F0C6FB0B4602463946304669
:107E500016F0DEF8BDE8F84300F0DEBDAFF30080B9
:107E6000EF39FAFE422EE63FFFFFEF3FFFFFAF4143
:107E70000000F03F000000002DE9F04FAE4B21F074
:107E800000479F4287B004460D4611DD07F1404789
:107E900007F5801703463B4321D002460B4616F0F8
:107EA000B7F802460B4616F095FB07B0BDE8F08F19
:107EB000A24B9F420E4629DCB7F1795F80F24681E2
:107EC00081A3D3E9002316F0A5F800229C4B16F0FD
:107ED000E7FCD8B12046294607B0BDE8F08F7CA367
:107EE000D3E9002316F04CFA7BA3D3E9002306461E
:107EF0000F462046294616F043FA02460B46304606
:107F0000394616F087F807B0BDE8F08F20462946BD
:107F100014F0B6F902460B460020894916F078F8AD
:107F20000022884B16F02CFA6DA3D3E900230446F7
:107F30000D4616F025FA6CA3D3E9002316F06AF873
:107F400022462B4616F01CFA69A3D3E9002316F04B
:107F50005FF822462B4616F013FA67A3D3E90023F5
:107F600016F058F822462B4616F00AFA64A3D3E915
:107F7000002316F04DF822462B4616F001FA62A3B4
:107F8000D3E9002316F046F822462B4616F0F8F9FE
:107F90005FA3D3E90023CDE900012046294616F06E
:107FA000EFF95DA3D3E9002316F032F822462B4601
:107FB00016F0E6F95AA3D3E9002316F02BF822466F
:107FC0002B4616F0DDF958A3D3E9002316F020F86C
:107FD00022462B4616F0D4F9594B002216F01AF817
:107FE00082468B4620462946CDE902AB14F0E4FFD9
:107FF000554B9F428046894600F3198102460B4645
:1080000016F008F8DDE90223CDE90401DDE90001FD
:1080100016F0E0FA02460B46DDE9040116F0B0F96D
:108020004FF0000ACDE9000152464B465046494602
:1080300016F0A6F902460B462046294615F0E8FF41
:10804000524604460D464B464046494615F0E2FF6F
:1080500002460B462046294616F0BCFA02460B465D
:1080600015F0D8FF02460B461BA1D1E9000115F01F
:10807000CFFF02460B46DDE9000115F0C9FF52466D
:1080800004460D464B465046494615F0C3FF02468E
:108090000B4627A1D1E9000115F0BAFF02460B46B5
:1080A0002046294615F0B4FF02460B4620A1D1E92F
:1080B000000115F0ADFF002E3FF7F7AE01F10043D0
:1080C0001946F2E6AFF300809C7500883CE4377EE9
:1080D000182D4454FB21F93F075C143326A6913C2C
:1080E00009F7FD0DE13D023F88B20175E0EF493F20
:1080F0003B8F68B52882A43F5544880E55C1C93FBF
:108100007D6FEB0312D6D43F555555555555C53F98
:1081100082922EB1C5B8B33F59018D1B6C06E63F64
:10812000C88A599CE52A00404B2D8A1C273A0340F7
:10813000182D4454FB21E93FFFFFEF3FFFFFDF3FD6
:108140000000F03F0000E03F3233EF3F02460B46B5
:1081500016F016F94BA3D3E9002306460F4616F096
:108160000FF94AA3D3E9002315F054FF32463B46EA
:1081700016F006F947A3D3E9002315F049FF32466C
:108180003B4616F0FDF845A3D3E9002315F042FF66
:1081900032463B4616F0F4F842A3D3E9002315F02B
:1081A00037FF32463B4616F0EBF840A3D3E90023F5
:1081B00015F030FF32463B4616F0E2F83DA3D3E916
:1081C0000023804689463046394616F0D9F83BA34D
:1081D000D3E9002315F01CFF32463B4616F0D0F8D9
:1081E00038A3D3E9002315F015FF32463B4616F0BD
:1081F000C7F836A3D3E9002315F00AFF32463B4601
:1082000016F0BEF800221E4B15F004FF02460B4686
:108210004046494616F0DEF922462B4616F0B0F8E5
:1082200022462B4615F0F6FE07B0BDE8F08F524609
:108230005B46DDE9000116F0CDF942464B4616F0EB
:108240009FF842464B4615F0E5FE02460B4615F0F8
:10825000E1FE07A3D3E9002315F0DAFE02460B4640
:1082600005A1D1E9000115F0D3FE24E7AFF30080AA
:10827000075C143326A6913C182D4454FB21F93F8A
:108280000000F03F09F7FD0DE13D023F88B20175A6
:10829000E0EF493F3B8F68B52882A43F5544880EE4
:1082A00055C1C93F7D6FEB0312D6D43F5555555587
:1082B0005555C53F82922EB1C5B8B33F59018D1BAC
:1082C0006C06E63FC88A599CE52A00404B2D8A1C63
:1082D000273A0340000000002DE9F84F1D465342A5
:1082E000134325F00049DFF8C8C149EAD373634559
:1082F000144606460F4626D8C0F1000848EA000892
:1083000021F0004A4AEAD878E04503468B461AD85D
:1083100005F1404808F5801858EA0208AE4643D0F7
:108320004FEAA57808F002085AEA030348EAD17830
:1083300011D1B8F1020F55D0B8F1030F09D14AA1FC
:10834000D1E9000105E032463B462046294615F0BA
:1083500061FEBDE8F88F59EA020329D0E1452ED02D
:10836000E24525D0AAEB09094FEA2959B9F13C0F9A
:108370003CDC002D3EDA19F13C0F3BDA00200021F5
:10838000B8F1010F4ED0B8F1020F3ED0B8F1000F96
:10839000DFD037A3D3E9002315F03AFE36A3D3E9A3
:1083A000002315F035FED4E7BDE8F84FFEF744BBD7
:1083B000BBF1000F12DB32A1D1E90001C9E7CA45C8
:1083C00034D0B8F1020F0DD0B8F1030FB7D0B8F127
:1083D000010F4FF0000036D00021BAE72AA1D1E901
:1083E0000001B6E724A1D1E90001B2E724A1D1E957
:1083F0000001C5E722462B463046394616F0EAF81A
:1084000013F03EFFFEF718FBBAE719A3D3E90023E8
:1084100015F0FEFD02460B4617A1D1E9000115F04B
:10842000F7FD96E701F10043194692E7B8F1020F14
:1084300014D0B8F1030F0DD0B8F1010F06D014A17C
:10844000D1E9000185E74FF0004182E712A1D1E9AF
:1084500000017EE712A1D1E900017AE712A1D1E97A
:10846000000176E7AFF30080182D4454FB2109C0CA
:10847000075C143326A6A13C182D4454FB21094067
:10848000182D4454FB21F93F182D4454FB21F9BF0A
:10849000182D4454FB21E93F182D4454FB21E9BF1A
:1084A000D221337F7CD902C0D221337F7CD90240D4
:1084B0000000F07F0000000043422DE9F047034335
:1084C00021F000463C4A46EAD373934204460D46E7
:1084D0002AD8964240D0394B9E428A462EDD384BF0
:1084E0009E4235463FDD33460246314615F092FD49
:1084F000224606460F462B4600202F4915F088FDE0
:1085000002460B463046394616F064F8FEF728FD61
:1085100000222C4B15F034FFBAF1000F0CDA01F1F8
:1085200000431946BDE8F08702460B4615F070FD82
:1085300002460B4616F04EF8BDE8F0871CA3D3E9BF
:10854000002315F067FD0022002316F0A9F948B1B9
:1085500020462946BDE8F0870022002316F03AF8AD
:10856000BDE8F087354622462B462046294615F0C1
:1085700051FD22462B4606460F4615F001FF2246C6
:10858000804689462B4600200B4915F041FD0246E6
:108590000B464046494616F01DF832463B4615F05C
:1085A00039FDFEF7DDFC0022064B15F0E9FEB3E7CE
:1085B0009C7500883CE4377E0000F03FFFFF2F3EB3
:1085C000FFFFDF3F0000E03F2DE9F8434E4B21F075
:1085D00000449C4206460F461BDC4C4B9C4222DD6D
:1085E0004B4B9C4254DD4B4B9C4246DD4A4B9C42DC
:1085F0006FDD01339C4269D041A3D3E900231046CB
:10860000194615F0BDFE06460F4630463946BDE810
:10861000F88302460B4615F0B3FE06460F46304679
:108620003946BDE8F88313F02BFE02F04DFC002222
:108630003A4B8046894615F0EDFCB4F1725F064670
:108640000F46ECDB42464B464046494615F098FE45
:1086500032463B4604460D463046394615F0DAFCB4
:1086600002460B462046294615F0B4FF00222B4B4C
:1086700015F0D0FC06460F46D1E713F001FE00F0DE
:1086800053F80022264B15F07BFE06460F46C6E740
:1086900013F0F6FD00F048F80022214B06460F4685
:1086A00015F06EFE324604460D463B4600201C493E
:1086B00015F090FF02460B462046294615F0AAFC0D
:1086C00006460F4630463946BDE8F883154B9842BA
:1086D00092D83046394613F0D3FD0022104B15F0E6
:1086E0004FFE00F021F8002204460D460C4B15F019
:1086F00047FE22462B4615F043FE06460F468EE700
:108700009C7500883CE4377EFFFFEF7F422ED63F0A
:10871000FFFF3540412E8640CD3386400000F03FBC
:108720000000E03F7DF8B98F2DE9F047B04F21F010
:108730000042BA4284B004460D464FEAD17610D9C1
:10874000AC4FBA4240F28A80C1F31303034302469E
:1087500040F0F180002E7ED00020002104B0BDE862
:10876000F087A54B9A4200F2B680A44B9A4240F2A1
:10877000D1804FF0000A22462B462046294615F0AC
:10878000FFFD85A3D3E9002306460F4615F0F8FD4B
:1087900083A3D3E9002315F03BFC32463B4615F09A
:1087A000EFFD81A3D3E9002315F034FC32463B46AC
:1087B00015F0E6FD7EA3D3E9002315F029FC32462F
:1087C0003B4615F0DDFD7CA3D3E9002315F022FC28
:1087D00032463B4615F0D4FD02460B46204629465C
:1087E00015F016FC02460B4606460F462046294663
:1087F00015F0C6FD80468946BAF1000F00F0AB8047
:1088000032463B4600204FF0804115F001FC024605
:108810000B464046494615F0DDFE02460B46DDE9B3
:10882000020115F0F5FBDDE9002315F0F1FB0B4625
:1088300002467349002015F0EBFB6FF47F739A45F5
:1088400080F2A3800AF57A7A01EB0A5100224FF0F8
:10885000B87315F095FD04B0BDE8F08758A3D3E9CF
:10886000002316F01DF800286BD157A3D3E900238D
:108870002046294615F0F6FF00287FF46DAF6149C8
:1088800053A3D3E9002301EBC6062046294615F081
:1088900077FDD6E9002315F0BDFB16F021F88246DE
:1088A00015F004FD4CA3D3E9002306460F4615F04E
:1088B00067FD02460B462046294615F0A9FB48A352
:1088C000D3E90023CDE900013046394615F058FDC3
:1088D000CDE9020115E04C4B9A42D0D84B4BF40045
:1088E0002344D3E9002315F093FB494B234493ED34
:1088F000007BCDE900018DED027BC6F1010AAAEBF8
:10890000060ADDE90223DDE9000115F081FB0446DA
:108910000D4630E734A3D3E9002315F07BFB00229A
:10892000374B15F0BDFFA8B3204629460022344B33
:1089300015F070FB8FE70B4615F06CFB04B0BDE83B
:10894000F08729A3D3E900231046194615F018FD36
:1089500004B0BDE8F0873046394600224FF080432E
:1089600015F056FB02460B464046494615F032FECE
:1089700022462B4615F04CFB02460B4600202049B0
:1089800015F046FB04B0BDE8F08701EB0A5104B0D6
:10899000BDE8F0878246EEE6D0A4BE726937663E37
:1089A000F16BD2C541BDBB3E2CDE25AF6A56113FEF
:1089B00093BDBE166CC1663F3E5555555555C53FD6
:1089C000EF39FAFE422E864051302DD5104987C02E
:1089D000FE822B654715F73F0000E0FE422EE63F82
:1089E000763C7935EF39EA3D9C7500883CE4377E6A
:1089F000412E8640FFFFEF7F422ED63FFFFF2F3EE6
:108A00000000F03FA0F60300B1A2F03FB0F6030073
:108A1000C0F60300000000002DE9F04FB1F5801F03
:108A200085B006460F460B4680F2D08021F000420A
:108A3000024300F0DA800029C0F2E9800022D64B20
:108A400015F09EFCD54A0B46934206460F466FF042
:108A5000350E00F3C180C3F3130505F5152C0CF694
:108A6000647C0CF4801C8CF07F5282F440121C1544
:108A700042EA0507A4F2FF3474440022C84B304692
:108A8000394604EB1C5415F0C3FAAB1CC3F31303B3
:108A9000022B82468B464FF0000240F3AF804FF02E
:108AA000804315F0B7FA02460B465046594615F07A
:108AB00091FD064620460F4615F0F8FB3246CDE9FB
:108AC00002013B4630463946CDE9006715F058FCB7
:108AD00002460B468046894615F052FC9AA3D3E91C
:108AE000002306460F4615F04BFC99A3D3E900235B
:108AF00015F090FA32463B4615F042FC96A3D3E9B6
:108B0000002315F087FA32463B4615F039FC94A352
:108B1000D3E9002315F07EFA42464B4615F030FCAF
:108B200091A3D3E90023804689463046394615F0A3
:108B300027FC8FA3D3E9002315F06CFA32463B469D
:108B400015F01EFC8CA3D3E9002315F063FA32461E
:108B50003B4615F015FC0B4602464946404615F0CB
:108B600059FAA5F5C223C5F5D725A3F27A435135A5
:108B70001D43002D06460F4640F387800022894B97
:108B80005046594615F0FCFB52465B4615F0F8FB83
:108B900002460B46804689463046394615F03AFA79
:108BA000DDE9002315F0ECFB06460F46002C40F0F3
:108BB000818002460B464046494615F029FA024696
:108BC0000B465046594615F023FA0BE0734A934280
:108BD0004FF0000E7FF73FAF32463B4630463946F6
:108BE00015F018FA05B0BDE8F08F00220023002030
:108BF0006D4915F0EFFC05B0BDE8F08F002315F0CE
:108C000027FE60B1002C7CD100200021EAE702465B
:108C100015F0FEF90022002315F0DCFCE2E758A372
:108C2000D3E900235046594615F0AAFB02460B46ED
:108C300000205C4915F0ECF9524606460F465B46AB
:108C40005046594615F09CFB02460B4630463946C5
:108C500015F096FB06460F462CB3204615F026FB72
:108C600049A3D3E900238046894615F089FB48A330
:108C7000D3E9002304460D464046494615F080FBE3
:108C800002460B46304639462CE002460B4650461B
:108C9000594615F0BDF9DDE9002315F071FB0646D4
:108CA0000F46002C47D132463B465046594615F0F8
:108CB000AFF997E734A3D3E90023DDE9020115F00A
:108CC0005FFB33A3D3E9002304460D46DDE902012F
:108CD00015F056FB32463B4615F09CF902460B4612
:108CE0004046494615F094F952465B4615F090F916
:108CF00002460B462046294615F08AF905B0BDE824
:108D0000F08F204615F0D2FA1FA3D3E900230646C0
:108D10000F4615F035FB1EA3D3E9002304460D468C
:108D20003046394615F02CFB02460B4620462946B4
:108D300015F070F956E7DDE9028913A3D3E90023A2
:108D40004046494691E700BF44523EDF12F1C23F20
:108D5000DE03CB966446C73F599322942449D23F01
:108D6000935555555555E53F9FC678D0099AC33F51
:108D7000AF788E1DC571CC3F04FA97999999D93F68
:108D8000555555555555D53F0000E0FE422EE63F5E
:108D9000763C7935EF39EA3D00005043FFFFEF7F25
:108DA0000000F03F0000E03F000050C30000000062
:108DB000B1F5801F2DE9F84304460D460B4619DA3C
:108DC00021F00042024359D000295FDB00223A4BD8
:108DD00015F0D6FA394A0D462B46934204466FF0F9
:108DE00035010CDD22462B462046294615F012F9A6
:108DF000BDE8F883314A93424FF00001F2DC1815C8
:108E0000A0F2FF3008444FEAD0794844C3F3130876
:108E100015F04CFAC9F57F73033348EA035506464B
:108E20000F4620462946FFF7F7FD1DA3D3E900238F
:108E3000804689463046394615F0A2FA1AA3D3E98E
:108E4000002304460D464046494615F099FA02466D
:108E50000B462046294615F0DDF815A3D3E900237B
:108E600004460D463046394615F08AFA02460B464E
:108E70002046294615F0CEF8BDE8F88300220023ED
:108E800000200F4915F0A6FBBDE8F883024615F057
:108E9000BFF80022002315F09DFBA9E7AFF3008087
:108EA000362BF111F3FE593D0EE526157BCBDB3F4A
:108EB00000609F501344D33F00005043FFFFEF7FFB
:108EC000000050C3000000002DE9F04F23F00045E2
:108ED00055EA020493B00DD06B4E21F00044B44229
:108EE0000F4682460BDD04F1404404F5801454EA39
:108EF0000A0350D16549002013B0BDE8F08F9B46AE
:108F0000944647D0B542EEDC5F4EB5425DD0002FAF
:108F100080468946CDE900235BDB0026BCF1000FCB
:108F20000ED1594B9D423FD0584B9D4200F0888056
:108F3000BBF1804F00F09C80554B9B4500F0B883FF
:108F40004046494613F09CF9BAF1000F06D1002CB7
:108F500059D04E4B27F040429A4254D0FF0F013F68
:108F600056EA070373D04B4B9D4240F39B8003F1BD
:108F700004739D4240F33E84474B9C4272DDBBF13B
:108F8000000F72DD3EA3D3E900231046194615F009
:108F9000F7F9B1E728B1414813B0BDE8F04F14F03C
:108FA00043BEA542F7DCAFE704F1404303F580136D
:108FB00053EA0A039ED0384B9C4240F38383BBF1B3
:108FC000000F52DBDDE9000196E7BCF1000F9ED0F7
:108FD00089E7334B9D4231DCA3F154739D429CDD04
:108FE0002B15A3F2FF33142B40F3A583C3F13403F5
:108FF0002CFA03F202FA03F363458ED102F0010268
:10900000C2F102068AE7BBF1000F05DA02460B4601
:1090100000201E4915F0DEFA002FBFF66DAF04F1F7
:10902000404404F5801454EA060300F03F84012E06
:109030007FF462AF01F1004319465DE702266DE758
:10904000BBF1000FC0F248834046494654E7424610
:109050004B461046194614F0DBFF02460B4615F04E
:10906000B9FA49E7BBF1000F8CDB0020002143E790
:1090700042464B464046494615F082F93CE700BF60
:109080009C7500883CE4377E0000F07F0000F03FD4
:109090000000E03F0000E041FFFFEF3FE0FE030083
:1090A000FFFF3F43B4F5801F80F261830022D24B63
:1090B00015F066F96FF0340C0C462315CF4DC4F350
:1090C0001302A3F2FF3342F07F546344AA420B938E
:1090D00044F4401440F33F83C94B9A4240F3048464
:1090E0009FEDAF7B8DED087B8DED107B9FEDAE7B13
:1090F0000B9B8DED067B01330B93A4F580140025AB
:10910000DDE906232146824614F082FFA346DDE90D
:1091100006238046894650462146CDE90CAB14F023
:1091200079FF02460B460020B64915F053FA0A466D
:109130000146CDE90E12134649460246404615F057
:109140001FF9631043F0005382468B4603F500235A
:109150008C46CDE904AB5919D3460023CDE902BCB6
:109160000293DDE902AB002004460D4602460B46A1
:109170005046594615F004F902460B46404649460A
:1091800014F046FFDDE9062380468946204629463D
:1091900014F03EFF02460B46DDE90C0114F038FFE7
:1091A00052465B4615F0ECF802460B4640464946EF
:1091B00014F02EFFDDE90E2315F0E2F8DDE9044599
:1091C000CDE9060122462B462046294615F0D8F85F
:1091D00077A3D3E9002304460D4615F0D1F876A312
:1091E000D3E9002314F016FF22462B4615F0C8F8E9
:1091F00073A3D3E9002314F00DFF22462B4615F08C
:10920000BFF871A3D3E9002314F004FF22462B46D4
:1092100015F0B6F86EA3D3E9002314F0FBFE224646
:109220002B4615F0ADF86CA3D3E9002314F0F2FE41
:109230002246804689462B462046294615F0A0F84E
:1092400002460B464046494615F09AF852460446F7
:109250000D465B46DDE9040114F0DCFEDDE9062382
:1092600015F08EF822462B4614F0D4FE5246804666
:1092700089465B465046594615F082F80022624BFB
:10928000CDE90C0114F0C6FE42464B4614F0C2FE76
:1092900002980D46044622462B465046594615F084
:1092A0006FF8002282468B46574B2046294614F021
:1092B000AFFEDDE90C2314F0ABFE02460B46404640
:1092C000494614F0A5FEDDE9042315F059F82246BD
:1092D000804689462B46DDE9060115F051F8024625
:1092E0000B464046494614F095FE804689460246A4
:1092F0000B465046594614F08DFE029838A3D3E928
:10930000002304460D4615F03BF85246CDE9040112
:109310005B462046294614F07BFE02460B4640463B
:10932000494614F075FE30A3D3E9002315F028F860
:109330002FA3D3E90023804689462046294615F00D
:109340001FF802460B464046494614F063FEDDE92D
:10935000102314F05FFE80460B98894614F0A6FF98
:10936000424682468B464B46DDE9040114F052FE2C
:10937000DDE9082314F04EFE52465B4614F04AFE27
:10938000029852465B4604460D4614F041FEDDE964
:10939000082314F03DFEDDE9042337E0AFF300803D
:1093A0000000000000000000000000000000F03F8E
:1093B000EF4E454A287ECA3F65DBC9934A86CD3FBA
:1093C00001411DA96074D13F4D268F515555D53FA0
:1093D000FFAB6FDBB66DDB3F033333333333E33F38
:1093E000000000E009C7EE3FFD033ADC09C7EE3F8D
:1093F000F5015B14E02F3EBE000040438E98030051
:1094000079B60B000000F03F0000084014F000FEA9
:109410000B4602464946404614F0FAFD013E56EA24
:10942000070382468B4600F05E819FEDD37B8DED76
:10943000047BDDE9001200230E461746CDE90267E2
:109440000293DDE9026708463B461146324614F0B6
:10945000DFFD22462B4614F093FFDDE90023804612
:1094600089465046594614F08BFF02460B4640464B
:10947000494614F0CFFD3246804689463B46204699
:109480002946CDE9008914F07BFF0B4602460646CB
:109490000F464046494614F0BDFDD14B9942044663
:1094A0000D468A4640F3248101F13F4303F5E00372
:1094B000034340F0FF81B2A3D3E90023DDE90001BB
:1094C00014F0A8FD3246804689463B462046294690
:1094D00014F09EFD02460B464046494615F0E0F961
:1094E000002840F0E781A8464FEA2853A3F2FE3255
:1094F0004FF4801313415344C3F30A52B94DA2F2FF
:10950000FF321541C3F3130423EA05010020C2F121
:10951000140B44F48014BAF1000F02460B4644FACF
:109520000BFB30463946B8BFCBF1000B14F070FD91
:1095300006460F463246DDE900013B4614F06AFD5F
:109540004FEA0B5A0D4600248FA3D3E9002320468F
:10955000294614F015FF3246804689463B46204690
:10956000294614F055FD02460B46DDE9000114F0D2
:109570004FFD87A3D3E9002314F002FF86A3D3E9AC
:10958000002306460F462046294614F0F9FE0246FF
:109590000B463046394614F03DFD06460F4602465E
:1095A0000B464046494614F035FD42464B460446BC
:1095B0000D4614F02DFD02460B463046394614F098
:1095C00027FD2246804689462B462046294614F030
:1095D000D7FE73A3D3E9002306460F4614F0D0FE4E
:1095E00071A3D3E9002314F013FD32463B4614F077
:1095F000C7FE6FA3D3E9002314F00CFD32463B46AF
:1096000014F0BEFE6CA3D3E9002314F001FD324632
:109610003B4614F0B5FE6AA3D3E9002314F0FAFC2C
:1096200032463B4614F0ACFE02460B462046294625
:1096300014F0EEFC06460F4602460B46204629462D
:1096400014F09EFE0022CDE900014FF08043304629
:10965000394614F0DDFC02460B46DDE9000114F04A
:10966000B9FF424606460F464B462046294614F0AF
:1096700087FE42464B4614F0CDFC02460B46304670
:10968000394614F0C5FC22462B4614F0C1FC0246B4
:109690000B460020544914F0BBFC8A44BAF5801FE5
:1096A000C0F232815146DDE9042314F069FE23E45F
:1096B000002FFFF645AC4046494613B0BDE8F04FD9
:1096C00013F07ABCBBF1000FBFF6CFACDDE900347C
:1096D000184604F100410FE442464B46002042493F
:1096E00014F078FF08E49FED387B8DED047BA0E655
:1096F0003E4B21F00048984540F3EA803C4B0B4438
:1097000003430AD132463B4614F082FCDDE90023D4
:1097100015F0BCF800283FF4E7AEDDE904012CA306
:10972000D3E9002314F02CFE29A3D3E9002314F07D
:1097300027FEFFF7E1BBBCF1000F40F0D280C3F180
:10974000140345FA03F202FA03F3AB4200F0E0809F
:109750006646FFF7E9BB9FED207B8DED087B8DED25
:10976000107B9FED057B00258DED067BC8E44FF057
:10977000000CA2E4AFF30080000000000000F03F06
:10978000FE822B654715973C00000000432EE63F04
:10979000EF39FAFE422EE63F396CA80C615C20BE20
:1097A000D0A4BE726937663EF16BD2C541BDBB3EE7
:1097B0002CDE25AF6A56113F93BDBE166CC1663FC5
:1097C0003E5555555555C53F000000000000F0BFFF
:1097D00059F3F8C21F6EA501000000000000000050
:1097E000FFFF8F40FFFF0F000000F03FFFCB9040D6
:1097F00000346F3F5A4B9C427FF734AC594B9C422C
:109800003FF7BDAB0022574B14F002FC44A3D3E951
:10981000002304460D4614F0B3FD43A3D3E900230F
:1098200082468B462046294614F0AAFD0022CDE947
:1098300002014D4B2046294614F0A2FD02460B467C
:109840003BA1D1E9000114F0E3FB22462B4614F0C2
:1098500097FD02460B460020444914F0D9FB2246EE
:10986000804689462B462046294614F089FD02464B
:109870000B464046494614F083FD2FA3D3E900234D
:1098800014F07EFD02460B46DDE9020114F0C0FB38
:1098900002460B46804689465046594614F0BAFBAC
:1098A000002004460D4652465B46AFE502460B4695
:1098B000FFF7CFBBDDE9040121A3D3E9002314F0B6
:1098C0005FFD1FA3D3E9002314F05AFDFFF714BB7B
:1098D000264B98453FF708AEDDE9022392469346B2
:1098E00031E60026FFF72CBB9FED177B8DED087B43
:1098F0009FED177B8DED107B9FED177B4FF480253F
:109900008DED067BFFF7FCBB5A4601F029FDCAE648
:1099100002F00102C2F10206FFF706BBAFF30080BE
:10992000000000604715F73F44DF5DF80BAE543E82
:10993000555555555555D53FFE822B654715F73F73
:109940009C7500883CE4377E0000004003B8E23F8D
:1099500006D0CF43EBFD4C3E000000000000F83F76
:10996000FEFFEF3F0000F03F0000D03F0000E03F6F
:109970002DE9F047CA4B21F000479F4290B0804646
:10998000894640F38F80C74B9F420C46924626DCA7
:109990000029B9A3D3E9002340F38F8014F038FBEA
:1099A000C14B9F4204460D4600F04781B4A3D3E962
:1099B000002314F02DFB02460B46CAE90023204683
:1099C000294614F025FBAEA3D3E9002314F020FBB5
:1099D0000125CAE90201284610B0BDE8F087B34B63
:1099E0009F4240F38980B24B9F4200F31C813D159A
:1099F000A5F21645A7EB055319461F46064614F077
:109A00006FFF14F053FC8046894642464B46304671
:109A10003946CDE90A8914F0FBFA0022A54B14F06F
:109A2000AFFC8946804614F05BFF14F03FFC06460D
:109A30000F4632463B4640464946CDE90C6714F096
:109A4000E7FA00229B4B14F09BFC00220023CDE997
:109A50000E0114F0FDFE002800F060810023304666
:109A60003946002214F0F4FE002814BF012302231B
:109A7000914A019202212A4600910AA8514600F01B
:109A800087FB002C054614DADAF80420DAF80C30EB
:109A900002F1004203F100434542CAF80420CAF82B
:109AA0000C3006E000200021C2E90089C2E9020171
:109AB0000025284610B0BDE8F08714F0ABFA7A4BC9
:109AC0009F4204460D4600F00B816DA3D3E90023AD
:109AD00014F0A0FA02460B46CAE9002329462046A4
:109AE00014F096FA66A3D3E9002314F093FA4FF02A
:109AF000FF35CAE90201DCE712F0C2FB62A3D3E939
:109B000000238046894614F03BFC00226B4B14F086
:109B100081FA14F0E5FE054614F0C8FB56A3D3E91C
:109B20000023CDE9060114F02BFC02460B4640460B
:109B3000494614F06DFA52A3D3E9002380468946C2
:109B4000DDE90601CDE9028914F01AFC1F2D024659
:109B50000B46CDE9042340F3B380DDE90423DDE9BE
:109B6000020114F055FA804689463F15C9F30A539D
:109B7000FB1A102B40F3B18045A3D3E90023DDE9A4
:109B8000060114F0FDFB8046894602460B46DDE9DE
:109B9000020114F03DFA02460B46DDE90201CDE96F
:109BA000082314F035FA42464B4614F031FA3AA332
:109BB000D3E9002380468946DDE9060114F0E0FB85
:109BC00042464B4614F024FA0B46CDE90401024606
:109BD000DDE9080114F01CFAC1F30A53FF1A312F12
:109BE0008046894600F39C809DED087BCAE9008988
:109BF0008DED027B42464B46DDE9020114F008FA86
:109C0000DDE9042314F004FA002CCAE90201BFF6CE
:109C100050AF09F1004401F100436D42CAE90084EC
:109C2000CAE9020345E702460B4614F0F1F90025A4
:109C3000CAE90201CAE900013BE715A3D3E9002301
:109C400014F0E6F914A3D3E900230D46044614F0FA
:109C5000DFF902460B46CAE900232946204614F0E4
:109C6000D7F90DA3D3E9002314F0D2F90125CAE9ED
:109C700002011EE7AFF3008000004054FB21F93FD2
:109C80003163621A61B4D03D83C8C96D305FE43F6F
:109C90000000601A61B4D03D7370032E8A19A33B93
:109CA000FB21E93F7BD90240FB21F93FFB213941F0
:109CB000FFFFEF7F00007041D40804000000E03F88
:109CC0004046494614F0A4F9394B6A1E804653F8C1
:109CD0002230BB4289463FF448AFCAE9008989E790
:109CE0002BA3D3E9002314F095F92BA3D3E9002388
:109CF0000D46044614F08EF902460B46CAE90023CD
:109D00002946204614F084F923A3D3E9002314F054
:109D100081F94FF0FF35CAE90201CAE60323A7E63D
:109D20001FA3D3E90023DDE9060114F029FB064651
:109D30000F4602460B46DDE9080114F069F980463A
:109D4000894602460B46DDE90801CDE9028914F097
:109D50005FF932463B4614F05BF913A3D3E90023C5
:109D600006460F46DDE9060114F00AFB32463B4683
:109D700014F04EF902460B4640464946CDE904230D
:109D800014F046F980468946A7E700BFAFF300808C
:109D90000000601A61B4D03D7370032E8A19A33B92
:109DA0000000002E8A19A33BC14920259A837B39E4
:109DB0005408040000000000574A2DE9F84F21F034
:109DC0000048904506460F462CDC544B0029B4BF92
:109DD000534D544D98454FF0000411DC524B9845BB
:109DE00026DC4BA3D3E9002314F014F900224F4BD7
:109DF00014F056FD002840D030463946BDE8F88FB3
:109E00004B4B984530DD4B4B984568DD0133984509
:109E100062D0304639463EA3D3E9002314F0B0FAAD
:109E2000BDE8F88F02460B4614F0F4F8BDE8F88F51
:109E300012F026FA01F048F83F4B984506460F46C7
:109E400023DD0022394B14F0E5F802460B4630467C
:109E5000394614F0BFFB32463B4614F0DBF822468D
:109E60002B4614F08DFAE1E712F00AFAFEF75CFCDB
:109E700022462B4614F084FAD8E73046394612F0D1
:109E8000FFF901F021F806460F4632463B463046C0
:109E9000394614F0BFF8324682468B463B46304680
:109EA000394614F06DFA0022804689461F4B304631
:109EB000394614F0AFF802460B464046494614F0C6
:109EC00089FB02460B465046594614F0A1F822463B
:109ED0002B4614F055FAA9E7184B984299D830460A
:109EE000394612F0CDF900220E4B14F049FAFEF774
:109EF0001BFC06460F4602460B462046294614F038
:109F00003FFA32463B4614F03BFA8FE7AFF300804E
:109F10003374AC3C1F7BAC7FFFFFEF7FFFFF35400E
:109F20000000E0BF0000E03FFFFF2F3E0000F03FD9
:109F3000412E8640CD338640FFFFEF3F7DF8B98F3D
:109F40002DE9F04F21F00048B8F1795F85B0064661
:109F50000F4692469B466BDA14F0C2FC002800F0D4
:109F6000E18032463B463046394614F009FA74A384
:109F7000D3E9002304460D4614F002FA72A3D3E994
:109F8000002314F047F822462B4614F0F9F970A389
:109F9000D3E9002314F03CF822462B4614F0F0F9E4
:109FA0006DA3D3E9002314F035F822462B4614F0B4
:109FB000E7F96BA3D3E9002314F02AF822462B46D5
:109FC00014F0DEF968A3D3E9002314F023F8224645
:109FD0002B4614F0D5F9CDE900010022664B20464E
:109FE000294614F0CDF9DDE9002380468946204654
:109FF000294614F0C5F9524604460D465B463046E4
:10A00000394614F0BDF902460B462046294613F0A6
:10A01000FFFF02460B464046494613F0F9FF024651
:10A020000B460020554913F0F3FF05B0BDE8F08F53
:10A0300002460B4614F0A4F941A3D3E900230446D9
:10A040000D4614F09DF940A3D3E9002313F0E2FF7D
:10A0500022462B4614F094F93DA3D3E9002313F0D4
:10A06000D7FF22462B4614F08BF93BA3D3E90023FC
:10A0700013F0D0FF22462B4614F082F938A3D3E91F
:10A08000002313F0C5FF22462B4614F079F936A3BE
:10A09000D3E9002313F0BEFF2B46224614F070F9DB
:10A0A000374B9845CDE9000197DD364B98453EDCAE
:10A0B000A8F500130022002030499046994613F07D
:10A0C000A7FFCDE9020100222B4B2046294614F0C0
:10A0D00057F942464B4613F09BFFDDE900238046CB
:10A0E00089462046294614F04BF9524604460D464F
:10A0F0005B463046394614F043F902460B4620468B
:10A10000294613F085FF02460B464046494613F0A8
:10A110007FFF02460B46DDE9020113F079FF05B02F
:10A12000BDE8F08F1549002005B0BDE8F08F9FED28
:10A13000107B4FF000088DED027BDFF84C90C2E7FA
:10A14000D43888BEE9FAA8BDC4B1B4BD9EEE213EA4
:10A15000AD529C804F7E923E9015CB19A001FA3EE5
:10A160007751C1166CC1563F4C5555555555A53FB5
:10A17000000000000000E73F0000E03F0000F03F6B
:10A180003233D33F0000E93F0000D23F000000001F
:10A190002DE9F04FADF5197DBE4CA29EBE4D54F891
:10A1A00026600793D41E85FB0475E417C4EBA50451
:10A1B00024EAE4741D46631CA3EB8303013D02EB18
:10A1C000C3030593731904960994019503900B91A9
:10A1D000A4EB05071AD43B44002400255E1C0DF1B6
:10A1E0008008DDF88C9208E059F8270014F05EF83A
:10A1F0000137B742E8E8020108D0002FF4DA01374E
:10A2000020462946B742E8E80201F6D1049B002B1C
:10A21000079B4FEAC30302932ADB039A20A902EBB0
:10A22000030801EB0309049B72AA02EBC30B0DF5B3
:10A23000E07A019B002B4FF000064FF0000711DB86
:10A24000039C4D4675E90223F4E8020114F098F8E6
:10A2500002460B463046394613F0DCFE44450646BE
:10A260000F46EFD1EAE80267DA4509F10809E0D1C3
:10A27000DDE90204049920448B0082460BA8A3F177
:10A280000802C31808930CAB13440A938B4698AB8F
:10A2900003EBCB03BBF1000F53E9284529DD70AB7D
:10A2A00003EBCB080DF1300900227C4B20462946F8
:10A2B00014F066F814F014FB13F0F8FF0022784B4A
:10A2C00006460F4614F05CF802460B462046294627
:10A2D00013F09EFE14F004FB78E9022349F8040B06
:10A2E0003946304613F096FE70AB984504460D464D
:10A2F000DAD1DDF81490204629464A4601F030F8BC
:10A3000000224FF07F5304460D4614F039F8FCF755
:10A31000A7FD0022634B14F033F802460B4620469B
:10A32000294613F075FE0D46044614F0D9FA80460E
:10A3300013F0BCFF0B4602462946204613F068FE88
:10A340004B46002B06460F4640F3E1800BF1FF32EF
:10A350000CA9C9F1180351F8225045FA03F101FA8A
:10A3600003F30CA8EB1A40F82230C9F11705884412
:10A3700043FA05F5002D2CDDBBF1000F08F10108B3
:10A3800040F381820C9C002C40F0A780BBF1010FB0
:10A390000AD00CA9012251F8044F531C002C40F0A4
:10A3A0009E809B451A46F6D1059B002B0EDD012BA6
:10A3B00000F0D980022B09D10BF1FF320CAB0CA9B4
:10A3C00053F82230C3F3150341F82230022D00F078
:10A3D000AF80002200233046394614F039FA0028B5
:10A3E00000F05382049B0BF1FF394B4510DC0BF15D
:10A3F00080430CAA013B089802EB8303002253F828
:10A400000419834242EA0102F9D1002A40F0B680E1
:10A41000049B0CAA013B52F82330002B40F0A18092
:10A420000A9A012352F8041901330029FAD05B4437
:10A430000BF10109994506934CDC099A079909EB40
:10A44000020801EB0B0508F1804802EB030BA39B0C
:10A4500008F1FF3803EB880870AB03EBC909A39B35
:10A4600020A903EB8B0301EBC505029358F8040FF9
:10A4700013F01CFF0B4601990246002905F1080B59
:10A48000C5E900234FF000064FF000071CDB039CDA
:10A490000CE000BF740D0400ABAAAA2A0000703EB5
:10A4A000000070410000204075E90223F4E8020139
:10A4B00013F066FF02460B463046394613F0AAFDFC
:10A4C000544506460F46EFD1029B9845E9E80267DE
:10A4D0005D46CBD1DDF818B0D9E6012300220CA9E6
:10A4E000C4F180749B4541F822400EDD51F82320D1
:10A4F00001EB8B0001EB83036FF07F4100E01A68F2
:10A500008A1A43F8042B8342F9D101244CE706D17F
:10A510000BF1FF330CAA52F82350ED152AE7002265
:10A520007B4B14F0B3F9002840F0A381054650E7B7
:10A5300032463B460020774913F06AFD06460F4637
:10A54000002C3FF446AF059A7249002000F008FF46
:10A5500002460B463046394613F05AFD06460F4672
:10A5600037E7012363E70BF1FF320CAB0CA953F87B
:10A570002230C3F3160341F8223027E70CAB059ACB
:10A5800053F82930183ACDE9068505926BB909F1DF
:10A590008043013B0CA901EB830353F8041909F133
:10A5A000FF39183A0029F8D00592059A5949002038
:10A5B00000F0D6FEB9F1000F04460D46C0F2C0818E
:10A5C0004FEAC90370AA02EB030808930CAB03EB34
:10A5D0008906DFF844B14FF0000A08F10807043695
:10A5E00056F8040D13F062FE22462B4613F0C8FE07
:10A5F0005B4667E9020152462046294613F0C0FE39
:10A600000CAB9E4204460D46EAD148AB039301933E
:10A61000CDF8149009F10103DDF810900293C346C0
:10A620004FF0000AB9F1000FC0F22A81DFF8EC8088
:10A630005D4635A3D3E9002300260027002403E06C
:10A64000544510DCF8E80223F5E8020113F098FE07
:10A6500002460B463046394613F0DCFC0134A14576
:10A6600006460F46ECDA019BE3E802670193029B82
:10A670000AF1010A9A45ABF1080BD3D1A29BDDF890
:10A680001490032B39D8DFE813F0D9000600060038
:10A690004D0048AB0393B9F1000F4FF000004FF0AD
:10A6A000000109DB039D05EBC904083474E90223AA
:10A6B00013F0B0FCA542F9D1079B002B40F01E819E
:10A6C0000B9BC3E900010B4603990246D1E9000147
:10A6D00013F09EFCB9F1000F0CDD4AAD01240134EA
:10A6E000F5E8022313F096FCA145F8DA079B002B4E
:10A6F00040F014810B9BC3E90201069B03F00700A5
:10A700000DF5197DBDE8F08F00000040FB21F93FF9
:10A710000000E03F0000F03F0000703EE8F603005C
:10A7200048AB0393B9F1000F40F32781039ACDF8AA
:10A7300010904FEAC9030193D318D3E900AB09F194
:10A740000053013B02EBC9080293914678E9026786
:10A7500052465B463046394613F05CFC04460D46D3
:10A7600002460B463046394613F052FC52465B46D1
:10A7700013F050FCC145A246AB46C8E90201C8E946
:10A780000045E3D1DDF81090B9F1010F40F3F580F9
:10A79000019B039A02991344C900D3E9006701F1B0
:10A7A000080A019192440DF5947B7AE902893246B8
:10A7B0003B464046494613F02DFC04460D460246F2
:10A7C0000B464046494613F023FC32463B4613F005
:10A7D00021FCD34526462F46CAE90201CAE90045B5
:10A7E000E3D1019C039B1034002000211C4403F1A1
:10A7F000100574E9022313F00DFCA542F9D1039C66
:10A80000079ED4E90023D4E90245002E00F08A8097
:10A8100003F1004701F100430B99C1E90403069BD2
:10A820002646944605F1004403F00700C1E900C73D
:10A83000C1E902640DF5197DBDE8F08F089C039D08
:10A840000834002000212C4474E9022313F0E2FBB9
:10A85000A542F9D1079B13B101F1004319460B9BA7
:10A86000C3E90001069B03F007000DF5197DBDE863
:10A87000F08FBBF1000F08F1010874DD022581E5BE
:10A8800000260027EFE600248EE5CDE90685059D2C
:10A89000304639466A4200F063FD0022384B0646D6
:10A8A0000F4613F0F3FF00B30022364B3046394613
:10A8B00013F066FD14F014F8044613F0F7FC0022C0
:10A8C0002F4B13F05DFD0B4602463946304613F020
:10A8D0009FFB14F005F80BF101090CAB183543F898
:10A8E0002B00059543F829405FE63046394613F0C2
:10A8F000F7FF0CABD94643F82B0056E60B9C01F151
:10A900000043C4E900030B4603990246D1E9000164
:10A9100013F07EFBB9F1000F3FF7DFAE01F100430A
:10A920001946E7E60B9EC6E90023069BC6E904012B
:10A9300003F00700C6E902450DF5197DBDE8F08F6B
:10A94000A29B032B3FF6D9AE01A252F823F000BF21
:10A9500061A9020093A6020093A6020021A70200AB
:10A960000020002176E732463B460020064913F0DE
:10A970004FFB022506460F462BE5002000213EE74F
:10A98000000070410000703E0000F03F0000000039
:10A990002DE9F04F21F00046B6F1795F85B004460D
:10A9A0000D469046994604DA13F09AFF002800F00D
:10A9B000858022462B462046294613F0E1FC0646B8
:10A9C0000F4602460B462046294613F0D9FC41A308
:10A9D000D3E9002382468B463046394613F0D0FC3B
:10A9E0003EA3D3E9002313F013FB32463B4613F09A
:10A9F000C7FC3CA3D3E9002313F00CFB32463B46D3
:10AA000013F0BEFC39A3D3E9002313F001FB324657
:10AA10003B4613F0B5FC37A3D3E9002313F0FAFA51
:10AA20000E9BCDE900019BB30022294B40464946CD
:10AA300013F0A6FCDDE90023CDE90201504659469A
:10AA400013F09EFC02460B46DDE9020113F0E0FA2A
:10AA500032463B4613F094FC42464B4613F0D8FA7C
:10AA600019A3D3E9002306460F465046594613F072
:10AA700087FC02460B463046394613F0CBFA0246B5
:10AA80000B462046294613F0C3FA05B0BDE8F08F07
:10AA900002460B463046394613F072FC0AA3D3E94E
:10AAA000002313F0B5FA52465B4613F069FC2246C8
:10AAB0002B4613F0AFFA05B0BDE8F08F20462946CB
:10AAC00005B0BDE8F08F00BF495555555555C53FF8
:10AAD0000000E03F7CD5CF5A3AD9E53DEB9C2B8A6C
:10AAE000E6E55A3E7DFEB157E31DC73ED561C1196B
:10AAF000A0012A3FA6F810111111813F00000000AB
:10AB00002DE9F04FC04C21F0004687B0A6428246A6
:10AB10008B460F46CDE900231ADC13F0E1FE002836
:10AB20003FD1109B524601331343334300F0B781AA
:10AB3000109B012B00F0C0815B460020B34913F04D
:10AB400049FD04460D462046294607B0BDE8F08F72
:10AB5000AF4B9E4225DD002909DADDE9004522469A
:10AB600005F10043CDE900230BF100418B4652462D
:10AB70005B4685A1D1E9000113F04AFADDE9002323
:10AB800004460D4682A1D1E9000113F041FA9FED80
:10AB9000827B22462B468DED007B13F03BFA8246EA
:10ABA0008B4652465B465046594613F0E9FB024637
:10ABB0000B468046894613F0E3FB424604460D46A9
:10ABC0004B465046594613F0DBFB75A3D3E90023EF
:10ABD000CDE902012046294613F0D2FB72A3D3E946
:10ABE000002313F017FA22462B4613F0C9FB70A37B
:10ABF000D3E9002313F00EFA22462B4613F0C0FBD4
:10AC00006DA3D3E9002313F005FA22462B4613F077
:10AC1000B7FB6BA3D3E9002313F0FCF922462B46C4
:10AC200013F0AEFB68A3D3E9002313F0F3F9424617
:10AC30004B4613F0A5FB66A3D3E90023CDE904013D
:10AC40002046294613F09CFB63A3D3E9002313F0AD
:10AC5000E1F922462B4613F093FB61A3D3E90023CD
:10AC600013F0D8F922462B4613F08AFB5EA3D3E9F2
:10AC7000002313F0CFF922462B4613F081FB5CA38F
:10AC8000D3E9002313F0C6F922462B4613F078FBD4
:10AC900059A3D3E9002313F0BDF902460B46DDE9C1
:10ACA000040113F0B7F9DDE9022313F069FBDDE9D4
:10ACB000004522462B4613F0ADF942464B4613F0B1
:10ACC0005FFB22462B4613F0A5F94DA3D3E90023E1
:10ACD00004460D46DDE9020113F052FB22462B46E5
:10ACE00013F098F90B46024680468946504659466D
:10ACF00013F090F9464B9E4204460D4600F38C80BB
:10AD0000109B012B3BD002460B4600203F4913F01D
:10AD100061FC002406460F462046294652465B4603
:10AD2000CDE90067CDE90201009413F071F9DDE986
:10AD300000AB02460B464046494613F069F95246BD
:10AD40005B4613F01DFB524604460D465B46DDE9AB
:10AD5000020113F015FB00222E4B13F05BF90246A3
:10AD60000B462046294613F055F932463B4613F070
:10AD700007FB52465B4613F04DF904460D4620464C
:10AD8000294607B0BDE8F08F182D4454FB21E93F58
:10AD9000075C143326A6813C000000000000000080
:10ADA000D47ABF74702AFB3EE9A7F0320FB8123F85
:10ADB00068108D1AF726303F1583E0FEC8DB573F39
:10ADC00093846EE9E326823FFE41B31BBAA1AB3FF9
:10ADD000735360DBCB75F3BEA69237A0887E143F19
:10ADE0000165F2F2D844433F280356C9226D6D3FF6
:10ADF00037D60684F464963F7AFE10111111C13FD4
:10AE0000635555555555D53FFFFF2F3E0000F0BF08
:10AE10002794E53F0000F03F109813F047FA2246D0
:10AE2000CDE900012B462046294613F0A9FADDE9B9
:10AE30000023CDE902012046294613F0EBF8024633
:10AE40000B46DDE9020113F0C5FB42464B4613F009
:10AE5000DFF802460B465046594613F0D9F8024631
:10AE60000B4613F0D7F802460B46DDE9000113F05C
:10AE7000CFF80446B81700F00200C0F101000D46FB
:10AE800013F014FA02460B462046294613F078FACE
:10AE900004460D462046294607B0BDE8F08F5046CF
:10AEA000594611F0EDF902460B460020044913F013
:10AEB00091FB04460D4662E754465D465FE700BFDE
:10AEC0000000F03F000000002DE9F04FCC4A21F0D7
:10AED0000043934285B082468B460C4620D9C94A2E
:10AEE000934200F2D780002C80F2A481ACA3D3E976
:10AEF00000235046594613F08DF80022002313F02A
:10AF0000B1FC002840F0D180A7A3D3E9002350462C
:10AF1000594613F035FA02460B460020BA4994E12F
:10AF2000BA4A934200F2E580B94A934240F22E8138
:10AF3000002301930022B74B5046594613F020FAE4
:10AF400006460F4602460B465046594613F018FA7D
:10AF500097A3D3E9002304460D4613F011FA96A3F4
:10AF6000D3E9002313F056F822462B4613F008FAD3
:10AF700093A3D3E9002313F04BF822462B4613F09A
:10AF8000FFF991A3D3E9002313F044F822462B469E
:10AF900013F0F6F98EA3D3E9002313F039F8224613
:10AFA0002B4613F0EDF900229B4B13F033F880464B
:10AFB000894602460B463046394613F0E1F902460F
:10AFC0000B460020954913F023F8064602460B462F
:10AFD0000F464046494613F01BF8324680468946E4
:10AFE0003B465046594613F0CBF902460B4600202B
:10AFF0008B4913F00DF802460B464046494613F0C4
:10B00000E9FA22462B4613F0BBF9019E02460B4695
:10B01000002E4DD0DDE9026732463B4612F0F8FFC4
:10B0200052465B4613F0ACF932463B4612F0F0FF55
:10B030002B46224612F0ECFF019B013306460F46D9
:10B0400000F02381019B012B7BD0019A531C392BEB
:10B050004FEA025500F22881019A132A40F35581E4
:10B06000019BC3F57F7403340022230512F0D2FF45
:10B0700002460B465046594612F0CAFF0022664B64
:10B0800012F0C8FF824605EB010B5046594605B049
:10B09000BDE8F08F634A93421BD9C1F31303034306
:10B0A000024640F012810029EFDA00205E490DE0EF
:10B0B0005046594613F064F922462B4612F0A8FF79
:10B0C00002460B465046594612F0A2FF05B0BDE8B5
:10B0D000F08F41A3D3E9002313F0E2FB00283FF4F3
:10B0E00002AF3FA3D3E900231046194613F048F9F5
:10B0F000ECE74E4A934200F2EC8000293AA3D3E9F0
:10B10000002339DA12F086FF39A7D7E900674FF03C
:10B11000FF3380468946019332463B4640464946C6
:10B1200012F076FF02460B4682468B464046494661
:10B1300012F06EFF32463B4612F06AFFCDE9020183
:10B14000F8E600223A4B5046594613F08BFB002894
:10B1500000F0CC805046594600222E4B12F05AFF88
:10B1600002460B463046394612F052FF00224FF09D
:10B17000404313F005F9A9E712F04AFF0123804686
:10B18000894601931CA7D7E90067C5E714A3D3E953
:10B19000002312F03FFF02460B468FE7AFF300801B
:10B1A00059F3F8C21F6EA501FE822B654715F73FC4
:10B1B0002DC3096EB7FD8ABE3952E686CACFD03E8E
:10B1C000B7DBAA9E19CE143F8555FE19A0015A3F40
:10B1D000F41011111111A13FEF39FAFE422E8640F1
:10B1E0009C7500883CE4377E0000E0FE422EE63F7E
:10B1F000763C7935EF39EABD763C7935EF39EA3D71
:10B2000079684340412E86400000E0BF422ED63F81
:10B21000FFFF8F3C0000E03F0000F03F00000840CF
:10B2200000001840FFFFEF7F0000F0BFB1A2F03F29
:10B230000000D0BF44A3D3E900235046594613F081
:10B240009FF802460B460020414912F0E3FE13F03E
:10B2500047FB019013F02AF837A3D3E900230646F1
:10B260000F4613F08DF802460B465046594612F031
:10B27000CFFE33A3D3E900238046894630463946C2
:10B2800013F07EF806460F4646E702460B46504648
:10B29000594612F0BDFE00222D4B13F071F800222A
:10B2A0002B4B12F0B5FE11E752465B4612F0B0FE92
:10B2B00002460B460020274912F0AAFE6B181946D9
:10B2C0000022244B12F0A4FE00E70B4612F0A2FE6F
:10B2D000FCE61DA3D3E9002313F052F8002C02462C
:10B2E0000B464FF00000AFDA1B49AEE732463B4653
:10B2F0005046594612F08CFE02460B4612F08AFE6A
:10B300000022144B12F086FEE0E64FF4001343FADD
:10B3100002F452465B4612F07BFEC4F17F570026D2
:10B3200007F5401702460B463046394612F070FECC
:10B33000A8E600BFAFF300800000E0FE422EE63F2B
:10B34000763C7935EF39EA3DFE822B654715F73FAC
:10B350000000E03F0000F03F0000E0BF0000000000
:10B36000F8B5C1F30A5304460D460E4617460BBB0B
:10B3700021F00046034633431BD0354B002212F028
:10B38000FFFF344B9F4204460D4635DBC1F30A53A1
:10B390000E46363B3B4440F2FE72934232DC002BB9
:10B3A00011DD26F0FF4626F4E00646EA0355204666
:10B3B0002946F8BD40F2FF729342EBD102460B469C
:10B3C00012F028FEF8BD13F1350F28DA4CF2503395
:10B3D0009F4222462B460ADD19A1D1E9000112F055
:10B3E00089FD17A3D3E9002312F0CAFFF8BD16A107
:10B3F000D1E9000112F07EFD13A3D3E9002312F07E
:10B40000BFFFF8BD22462B460DA1D1E9000112F085
:10B4100071FD0BA3D3E9002312F0B2FFF8BD26F0B3
:10B42000FF4626F4E006363346EA03552046294611
:10B430000022094B12F0A4FFF8BD00BFAFF300805B
:10B440009C7500883CE4377E59F3F8C21F6EA50155
:10B4500000005043B03CFFFF0000903C10B5054C8D
:10B46000237833B9044B13B10448AFF300800123B0
:10B47000237010BD1085002000000000CC0E0400D9
:10B4800008B5034B1BB103490348AFF3008008BD67
:10B490000000000014850020CC0E0400154B002B8A
:10B4A00008BF134B9D46A3F5803A00218B460F46FB
:10B4B0001348144A121A09F005F90F4B002B00D05B
:10B4C00098470E4B002B00D0984700200021040025
:10B4D0000D000D48002802D00C48AFF3008012F098
:10B4E0003FFD2000290005F025F912F025FD00BFE1
:10B4F0000000080000000420000000000000000020
:10B50000008400207C8C002000000000000000006F
:10B5100070B504460E4600F047FA88B10368DB6A4E
:10B5200005469847082C0CD0A4F10903012B14D927
:10B530003246214610230D20BDE8704004F058B873
:10B5400070BD2B6828465B6A98470228F0DC2B68A0
:10B5500028461B6A04219847EAE72B6828465B6A5D
:10B5600098470528E4DC2B6828461B6A0821984781
:10B57000DEE700BF38B52DED028B054600F014FA6A
:10B58000044640B10368DB6A9847032D03D8DFE81F
:10B5900005F02F363D06BDEC028B002038BD20465D
:10B5A0000CF0FEFB07EE900A2046F8EEE78A0CF05E
:10B5B00007FC07EE900A2046B8EEE78A0CF010FC74
:10B5C00068EE087A07EE100AE8EEA87AB8EEC77AB5
:10B5D000E7EE077AF5EE407AF1EE10FAB1EEE78A7F
:10B5E0001BD4FDEEC87ABDEC028B17EE900A38BD75
:10B5F000BDEC028B2046BDE838400CF0D1BBBDEC61
:10B60000028B2046BDE838400CF0DABBBDEC028B63
:10B610002046BDE838400CF0E3BB17EE900A11F06D
:10B6200065FBDEE738B5044600F0BEF958B10368A3
:10B63000DB6A0546984744B1012C04D12846BDE891
:10B640003840FBF73DB9002038BD2846BDE83840FA
:10B65000FBF716B910B5044600F0A6F928B1036847
:10B6600021461B6ABDE81040184710BD00487047CE
:10B6700016FCFFFF704700BF10B5034B0360044684
:10B680000CF06AF9204610BD3C04040010B5054BCF
:10B69000036004460CF060F9204613F0F9FB2046E5
:10B6A00010BD00BF3C0404002DE9F041032184B02B
:10B6B0000546512001F0DAFCDFF8E8C2AE4B044643
:10B6C00004F00F06C4F3031714F4807408BF634634
:10B6D000AA4831463A460BF01FFB221C18BF012234
:10B6E00031463B4628460EF05DFA0023AB60A44885
:10B6F0000BF012FB4FF0FF31032001F0B7FCC0B29A
:10B7000004F08CFA4FF0FF310446022001F0AEFC49
:10B71000C0B204F083FA002C3BD0002839D0014697
:10B72000204604F041F8064600284DD04FF0FF3186
:10B73000462001F09BFC322804464ED04BDD3828D1
:10B7400000F0B18068285FD14FF0FF31012001F097
:10B750008DFCC0B204F062FA80464C2013F0A1FBCD
:10B76000052301934246009431462B4607460DF0CF
:10B770000FFAAF603B6838469B6A9847A868036831
:10B78000DB6A98477F480BF0C7FA284604B0BDE84B
:10B79000F0817D480BF0C0FA4FF0FF31192001F025
:10B7A00065FCC0B204F03AFA4FF0FF3104461820AD
:10B7B00001F05CFCC0B204F031FA0146204603F00F
:10B7C000F3FF06460028B1D170480BF0A5FA2846D1
:10B7D00004B0BDE8F081302816D14FF0FF310120D0
:10B7E00001F044FCC0B204F019FA80464C2013F07A
:10B7F00058FBA4B207460523019342460094314604
:10B800002B460CF07BFFB4E701243268CDE90044FD
:10B810000023176AAB600F220DF10F03322130466F
:10B82000B847002800F085803368CDE900440F2236
:10B830001F6A30210DF10F033046B84700284AD067
:10B840003368CDE900440D221F6A38210DF10F0342
:10B850003046B847002872D03268CDE900440DF177
:10B860000F03176A682175223046B847002845D172
:10B87000682147480BF050FA4FF0FF31204601F0A5
:10B88000F5FBC0B204F0CAF980464C2013F009FB66
:10B8900005246823CDE90034424631462B4607464D
:10B8A0000DF076F965E74FF0FF31012001F0DEFB86
:10B8B000C0B204F0B3F98046442013F0F2FA052335
:10B8C0000746019342462B46009431460DF0B8F8E6
:10B8D000304B3B604DE730212D480BF01DFA3024F2
:10B8E0004FF0FF31012001F0C1FBC0B204F096F926
:10B8F00080464C2013F0D5FA07467CE726480BF02B
:10B900000BFAAF68002F7FF435AF4FF0FF31032003
:10B9100001F0ACFBC0B204F081F930B11F480BF06C
:10B92000FBF9284604B0BDE8F0811D480BF0F4F99E
:10B930004DE7322116480BF0EFF93224D0E73821D9
:10B9400013480BF0E9F94FF0FF31204601F08EFB70
:10B95000C0B204F063F98046442013F0A2FA052433
:10B9600038230746CDE9003442462B4631460DF0D8
:10B9700067F8084B3B60FCE66CF703007CF70300BC
:10B980009CF703005CF80300ACF70300C0F703006A
:10B99000ECF7030038F70300D8F7030000F80300C2
:10B9A0003CF8030074F7030038B5114C23680BB161
:10B9B000986838BD4FF0FF31012001F057FBC0B24D
:10B9C00004F02CF940B10C2013F06BFA0546FFF798
:10B9D0006BFE2560A86838BD4FF0FF31032001F0F1
:10B9E00045FBC0B204F01AF90028ECD138BD00BF05
:10B9F0002C85002008B501F06BFCFBF7D5FCBDE8F9
:10BA0000084001F0C5B900BF08B501F061FCFBF7C3
:10BA10003BFDBDE8084001F0BBB900BF08B501F02F
:10BA200057FC10F0A3FCBDE8084001F0B1B900BF1D
:10BA300008B501F04DFC11F095F8BDE8084001F0A3
:10BA4000A7B900BF08B501F043FCFBF7BDFCBDE89A
:10BA5000084001F09DB900BF08B501F039FC10F0B5
:10BA6000B7FEBDE8084001F093B900BF08B501F08A
:10BA70002FFCFAF745FFBDE8084001F089B900BF87
:10BA800008B501F025FC10F0F9FDBDE8084001F013
:10BA90007FB900BF70B5049E96420C4624DB154664
:10BAA0006BB9042A19D0022A02D110F0010310D078
:10BAB00001462A46204607F073FC002070BD104462
:10BAC0000D4410F8013D01F8013B8D42F9D10020F1
:10BAD00070BD02880A80184670BD10F00303E7D1DC
