:10000000000002203D640100656401006764010096
:10001000696401006B6401006D6401000000000070
:100020000000000000000000000000006F640100FC
:100030007164010000000000736401007564010038
:100040007764010077640100DD620100A1620100B4
:10005000B56201007764010085530100956A0100D3
:10006000795E0100815E0100895E01007764010014
:100070007764010077640100776401007764010010
:100080007764010077640100776401007764010000
:1000900077640100776401007764010077640100F0
:1000A0007764010077640100915E0100995E0100B0
:1000B0007764010077640100000000000000000088
:1000C000776401007764010077640100C962010070
:1000D00077640100776401007764010077640100B0
:1000E00005630100000000000000000000000000A7
:1000F000000000007764010000000000F1620100D0
:1001000000000000000000000000000000000000EF
:1001100000000000000000000000000000000000DF
:1001200000000000000000000000000000000000CF
:1001300000000000000000000000000000000000BF
:1001400000000000000000000000000000000000AF
:10015000000000000000000000000000000000009F
:10016000000000000000000000000000000000008F
:10017000000000000000000000000000000000007F
:10018000000000000000000000000000000000006F
:10019000000000000000000000000000000000005F
:1001A000000000000000000000000000000000004F
:1001B000000000000000000000000000000000003F
:1001C000000000000000000000000000000000002F
:1001D000000000000000000000000000000000001F
:1001E000000000000000000000000000000000000F
:1001F00000000000000000000000000000000000FF
:100200007CB0EE877CB0EE87FF00FF00FF00FF00B0
:10021000FF00FF00FF00FF00FF00FF00FF00FF00E6
:10022000FF00FF00FF00FF00FF00FF00FF00FF00D6
:10023000FF00FF00FF00FF002DE9F04F85B00391A4
:100240000778A7F10903042B044607F07F0200F1A9
:100250000100F5D9202AF3D02B2F04BF677804467C
:100260002D2F75D09FED427B8DED007B4FF0000868
:100270004FF000099FB34FF0000C25464FF0000AE5
:10028000DFF8FCB0644619E019F0C4F980468946ED
:10029000304619F055F942464B4619F005F85246DA
:1002A000804689465B46DDE900013CB319F0DCFA83
:1002B000CDE90001A44615F8017F7FB1A7F1300612
:1002C000092E52465B4640464946DDD9CCB92E2F11
:1002D00017D115F8017F0124002FEFD12C4642469B
:1002E0004B46DDE9000119F095F980468946039BEC
:1002F000404649461C6005B0BDE8F08F4FF0010C48
:10030000D9E72C46BCF1000F29D042464B46DDE927
:10031000000119F07FF907F0DF07452F8046894675
:10032000E5D10399681C0A2218F0A2FF144902467D
:10033000002019F01FFD02460B464046494619F0C1
:1003400069F9804689464046494605B0BDE8F08FC8
:100350009FED097B67788DED007B013486E7DFF840
:1003600024904FF000084046494605B0BDE8F08FA4
:10037000000000000000F03F000000000000F0BF9F
:10038000000024400000F87F2DE9F04700231446C8
:1003900000228046894619F0AFFB28B109F10043DD
:1003A00099462D23237001340022002340464946FC
:1003B00019F098FB28B13022002322706370BDE849
:1003C000F0874046494617F097FC19F0D3FB73A31A
:1003D000D3E9002307464946404619F08DFB002823
:1003E0004ED170A3D3E900234046494619F0A2FB41
:1003F000002845D10E2F07F1010540F3B980A7F180
:100400000E0632460020624919F0B4FC02460B4643
:100410004046494619F028FA00225E4B18F044FF86
:1004200019F0E4FC002DA7F10F0E4FF0010C4DDD8B
:10043000594FDFF87881012245F6F3294FF02E0A53
:10044000494508BF40454FF030030AD3B0EB0800E0
:1004500061EB0901494508BF404503F10103F5D2AD
:10046000DBB2237050EA010304F101084AD195423E
:1004700052DD0132102A4FD0444677E90289DFE786
:10048000002F33DB3A460020414919F073FC024645
:100490000B464046494619F0E7F93BA3D3E9002350
:1004A00080468946012500264046494619F0B2F8A3
:1004B0000022384B18F0F8FE19F098FC002DBC46CD
:1004C0004FF0FF3E37464FF00006B1DC23463022A6
:1004D0004FF02E0803F8022B84F80180FC4345D02E
:1004E0001C4403F8012BA342FBD1A1E77A42002070
:1004F000274919F03FFC02460B464046494619F091
:1005000089F8CAE7954202F1010204BF84F801A00C
:1005100004F10208102AAFD16EB14246302102F830
:10052000011BC2F1010373444344002BF7DC2EEAA4
:10053000EE7301339844BCF1010F12D0BCF1000FEF
:100540004FF0650388F80030C5BF2B2388F80130D1
:1005500008F1010108F102016046BDE8F04710F022
:1005600003BA002388F80030BDE8F0871C465FE737
:10057000C7F10E020020064919F0FCFB3E46024678
:100580000B46012790E700BF0000901EC4BCD64276
:10059000000024400000E03FF8A801008DEDB5A068
:1005A000F7C6B03E50EFE2D6E41A4B4400407A1052
:1005B00070B54FF0FF3006F097FA04466FF07F40B9
:1005C00006F092FA0646204618F0AAFF00220C4BCD
:1005D00019F020F8044630460D4618F0A1FF06A396
:1005E000D3E9002319F040F902460B46204629467C
:1005F00018F05AFE70BD00BF0000E0DFFFFF6F4340
:100600000000F03D000000002DE9F04F1D46138969
:10061000AB4288BF536885B004468CBF53F82500B1
:10062000002090468A4606F0D3FE0022904B18F038
:10063000F1FF19F09FFAB8F808206B1C9A4288BFA6
:10064000D8F8042006468CBF52F82300002006F09C
:10065000BFFE0022864B18F0DDFF19F08BFAB8F8C8
:1006600008300235AB4288BFD8F8043007468CBF4B
:1006700053F82500002006F0ABFE002EC4E9006709
:1006800040F3E280002F40F3DF8071A3D3E9002321
:10069000002584F8285017F051FA002200238046E4
:1006A000894619F029FA40B14046494668A3D3E982
:1006B000002318F0F9FD8046894667A3D3E900239B
:1006C0004046494619F036FAC0B165A3D3E9002384
:1006D0004046494619F01AFA80B10123404649467E
:1006E00084F8283060A3D3E9002318F0DDFD58A377
:1006F000D3E9002317F022FA8046894600225D4B99
:100700004046494618F086FF16F04CFF01F10043C1
:1007100000221946564B18F07DFF19F02BFA494676
:100720000546404616F0FAFE0022514B18F072FFC3
:1007300019F020FADAF804304F49B3F80CB0B3F8E6
:100740000AA0A56007FB0BF303EB010806FB0AF602
:10075000019388FB05234FEA124C00960E444CEAA5
:10076000034C06EA010383FB009A06EB0C0E0EEA2B
:10077000010ED346CA468EFB00675246CDE902679A
:10078000120C42EA0B42DDE902AB0CEA010C8CFBD5
:1007900000674FEA164956460A40360C46EA0B46B1
:1007A00049EA074982FB05AB5F46C144B04456465F
:1007B000CDE90267039FE060360C09EA010908EA07
:1007C000010846EA074689FB05AB334488FB05561A
:1007D000CDE9025655462D0C45EA0B45DDE902AB45
:1007E0000B40AC4403EAE3770CEA010C554623EADC
:1007F000E37367454FEA154502EAE276A8BF67460C
:1008000045EA0B45634522EAE272B8BF6346AE444F
:100810004E450EEA010EA8BF4E464A45B8BF4A46AD
:100820007745A8BF77467345B8BF73464645A8BF0E
:100830004646C4E905634245B8BF4246009801995F
:10084000206261622761E261204605B0BDE8F08F59
:10085000EA2E4454FB211940F4D64354FB21F93FBE
:10086000320D337F7CD91240EA2E4454FB210940DB
:100870000000F0400000E03F0000FFFF000000002B
:100880002DE9F04F2DED028B044683B0C06818F0BF
:1008900057FE80462069894618F052FE82466069FC
:1008A0008B4618F04DFE024601F1004306460F4606
:1008B0004046494617F0D4F819F0A4F9E06205461D
:1008C00016F086FF0190284616F036FF019B05467C
:1008D000184618F047FE42464B4618F09BFE8046ED
:1008E0002846894618F03EFE32463B4618F092FEF6
:1008F00002460B464046494618F0D4FC02460B46D9
:100900005046594617F0ACF819F07CF9002208EE71
:10091000100A00233046394619F00CF928B3B5EE19
:10092000C08AF1EE10FA1CDD11A7D7E9006718EEB6
:10093000100A18F017FE02460B463046394618F0EA
:10094000B1FC32463B4618F0AFFC19F05BF9A062EF
:10095000E38843F00203E38003B0BDEC028BBDE803
:10096000F08F05A7D7E90067E1E784ED0A8AEFE792
:10097000EA2E4454FB21F93FEA2E4454FB21F9BFEF
:1009800008B511F0E5FADFED0C7A07EE100A67EE14
:10099000277A17EE900A18F0E5FD05A3D3E90023A6
:1009A00018F062FF19F0E6F808BD00BFAFF3008051
:1009B000EA2E4454FB2119400000B443000000001B
:1009C00008B511F0D9FADFED0C7A07EE100A67EEE0
:1009D000277A17EE900A18F0C5FD05A3D3E9002386
:1009E00018F042FF19F0C6F808BD00BFAFF3008051
:1009F000EA2E4454FB2119400000B44300000000DB
:100A0000494A21F0004393422DE9704304460D46C4
:100A100049DC464A93420E460EDC3FA3D3E900234D
:100A200018F042FC0022424B19F084F800284AD00A
:100A300020462946BDE870833E4A934239DCB3F133
:100A4000804F40DD16F066FD2246804689462B46E3
:100A50002046294618F0DEFD0022354B18F024FC14
:100A600017F0F4FB42464B4618F01EFC02460B46BC
:100A700000202F4918F0F8FE424604460D464B462A
:100A80004046494618F010FC02460B4620462946CF
:100A900018F00AFC02F040F8002E08DC01F10043D7
:100AA0001946BDE8708302460B4618F0FDFBBDE811
:100AB000708316F02FFD02F02FF819A3D3E900235D
:100AC00018F0F2FBE8E722462B462046294618F0AC
:100AD000A1FD804689462046294616F01BFD0022CE
:100AE00004460D46124B4046494618F0DDFB17F010
:100AF000ADFB00220E4B18F0D7FB02460B464046DA
:100B0000494618F0B1FE22462B4618F0CDFB00F006
:100B1000A7FAC1E7AFF300809C7500883CE4377EFC
:100B2000EF39FAFE422EE63FFFFFEF7FFFFF2F3E39
:100B30000000F03F0000B0412DE9F84FBE4B21F01E
:100B400000469E4204460D468A460EDDBB4B9E4241
:100B500000F3B18000F0AC80BAF1000F40F3EA80FE
:100B600099A1D1E90001BDE8F88FB54B9E4200F391
:100B7000BA80A3F1DE739E4240F3A5804FF0FF3BA5
:100B800022462B462046294618F044FD02460B46D5
:100B90008046894618F03EFD8DA3D3E90023064622
:100BA0000F4618F037FD8CA3D3E9002318F07CFB27
:100BB00032463B4618F02EFD89A3D3E9002318F0F6
:100BC00073FB32463B4618F025FD87A3D3E900238B
:100BD00018F06AFB32463B4618F01CFD84A3D3E9AB
:100BE000002318F061FB32463B4618F013FD82A348
:100BF000D3E9002318F058FB42464B4618F00AFD93
:100C00007FA3D3E90023804689463046394618F051
:100C100001FD7DA3D3E9002318F044FB32463B4697
:100C200018F0F8FC7AA3D3E9002318F03BFB324616
:100C30003B4618F0EFFC78A3D3E9002318F032FB11
:100C400032463B4618F0E6FC75A3D3E9002318F0C2
:100C500029FB32463B4618F0DDFC02460B46404677
:100C6000494618F021FB22462B4618F0D3FCBBF175
:100C7000FF3F02460B4661D0724B734E4FEACB0BDF
:100C80005B44D3E9002318F00DFB22462B4618F0F5
:100C900009FBB34402460B46DBE9000118F002FBF6
:100CA000BAF1000F0DDA01F100431946BDE8F88FE3
:100CB00000283FF451AF22462B462046294618F023
:100CC000F3FABDE8F88F58A3D3E9002318F0ECFA43
:100CD00000225E4B18F02EFF00283FF44FAF204655
:100CE0002946BDE8F88F16F015FC594B9E42044684
:100CF0000D4629DCA3F550239E424EDC02460B46EE
:100D000018F0D2FA0022514B18F0CCFA0022064615
:100D10000F464FF080432046294618F0C5FA024698
:100D20000B463046394618F09FFD4FF0000B044645
:100D30000D4625E73EA1D1E90001C2E7204629463C
:100D400018F0B0FABDE8F88F424B9E421ADC002240
:100D5000414B18F0A7FA002206460F463E4B2046AC
:100D6000294618F057FC0022384B18F09DFA02462D
:100D70000B463046394618F077FD4FF0020B04461B
:100D80000D46FDE602460B460020344918F06CFD86
:100D90004FF0030B04460D46F2E600222B4B18F0F1
:100DA00081FA002206460F46284B2046294618F0B5
:100DB0007BFA02460B463046394618F055FD4FF097
:100DC000010B04460D46DBE6182D4454FB21F93F88
:100DD00011DA22E33AAD903FEB0D76244B7BA93F2D
:100DE000513DD0A0660DB13F6E204CC5CD45B73FFB
:100DF000FF8300922449C23F0D5555555555D53FA7
:100E00002F6C6A2C44B4A2BF9AFDDE522DDEAD3F9A
:100E10006D9A74AFF2B0B33F711623FEC671BC3F3A
:100E2000C4EB98999999C93F9C7500883CE4377E3A
:100E3000182D4454FB21F9BFFFFF0F440000F07F41
:100E4000FFFFDB3F20A9010000A901000000F03FE7
:100E5000FFFFF23FFF7F03400000F83F0000F0BFBC
:100E60002DE9F041C1F30A57A7F2FF35132D0246D1
:100E70000B460C468846064620DC002D4ADB364FE2
:100E80002F4101EA070C5CEA000C1CD030A3D3E927
:100E9000002318F009FA0022002318F04BFE48B195
:100EA000002C04DD4FF4801343FA05F5A84428EA2A
:100EB0000704002621463046BDE8F081332D06DDCB
:100EC000B5F5806F38D010461946BDE8F081A7F21D
:100ED00013474FF0FF3C2CFA07F70742F3D01CA34F
:100EE000D3E9002318F0E0F90022002318F022FED5
:100EF0000028DFD0002C09DD142D22D00123C5F1FC
:100F0000340503FA05F5AE1928BF984426EA07060A
:100F10004446CFE70EA3D3E9002318F0C5F9002219
:100F2000002318F007FE0028C4D0002C0CDB264359
:100F300005D00026094CBDE718F0B6F9C5E73446E0
:100F4000B8E704F10108E1E700264FF00044B1E7FB
:100F50009C7500883CE4377EFFFF0F000000F03FE7
:100F60002DE9F041C1F30A57A7F2FF35132D0246D0
:100F70000B460C46884606461DDC002D3CDB364FF2
:100F80002F4101EA070C5CEA000C19D030A3D3E929
:100F9000002318F089F90022002318F0CBFDC8B314
:100FA000002C04DA4FF4801343FA05F5A84428EA2C
:100FB000070400262EE0332D06DDB5F5806F2DD019
:100FC00010461946BDE8F081A7F213474FF0FF3CE9
:100FD0002CFA07F70742F3D01DA3D3E9002318F03A
:100FE00063F90022002318F0A5FD98B1002C21DB45
:100FF00026EA070644460DE015A3D3E9002318F0BE
:1010000053F90022002318F095FD18B1002C08DBDD
:101010000026344621463046BDE8F08118F044F9F8
:10102000D0E724F000430D4A1E43002E18BF14469B
:101030000026EFE7142D08D00123C5F1340503FA8B
:1010400005F5AE1928BF9844D2E704F10108CFE7AF
:101050009C7500883CE4377EFFFF0F000000F0BF66
:101060002DE9F04FD84B994287B08046894643DD41
:10107000D64B99420E4600F3F480D54B994240F38B
:101080002D819FEDBB7B8DED047B4FEA215A0446F9
:10109000AAF2FF3ACF4BC6F313069E4246F07F55A5
:1010A00000F3128145F44015204629460022CA4B20
:1010B00018F0F8F8002204460D46C84B18F0AAFABA
:1010C00022462B4618F0A6FAA046CDE90201A94611
:1010D000CDE90001002E3AD1002200232046294606
:1010E00018F000FD002800F01B81BAF1000F40F05D
:1010F000858100200021B8E0B94B21F000449C42DA
:101100000A460FDD0022B74B18F0ECFC002800F077
:10111000AF80002200230020B34918F0A5FB07B0E0
:10112000BDE8F08FB14B9C4240F3AF80B04B1A4406
:101130009A4240F2D3800022A84B18F06BFA424644
:101140004B4618F067FACDE900014FF0000A002283
:101150004FF080434046494618F0A6F802460B4639
:101160004046494618F080FB02460B4606460F46AD
:1011700018F050FA80A3D3E9002304460D4618F076
:1011800049FA7FA3D3E9002318F08EF822462B46B4
:1011900018F040FA7CA3D3E9002318F085F8224622
:1011A0002B4618F037FA7AA3D3E9002318F07CF81D
:1011B00022462B4618F02EFA77A3D3E9002318F025
:1011C00073F822462B4618F025FA75A3D3E90023BD
:1011D00018F06AF822462B4618F01CFA72A3D3E9DD
:1011E000002318F061F822462B4618F013FADDE9C7
:1011F000002318F059F832463B4618F00BFA044623
:101200000D46BAF1000F00F0A880504618F098F98A
:1012100067A3D3E9002382468B4618F0FBF966A347
:10122000D3E9002306460F465046594618F0F2F916
:10123000DDE9042318F038F822462B4618F034F87C
:1012400002460B46DDE9000118F02CF842464B46F9
:1012500018F028F802460B463046394618F022F8B6
:1012600003E002460B4618F01FF807B0BDE8F08F08
:1012700042464B464046494618F014F802460B4693
:1012800018F0F2FA07B0BDE8F08F0022594B18F0C1
:101290000BF80022002318F04DFC10B1564B9C4275
:1012A00062DD42464B464046494618F0B3F90022FB
:1012B0004A4B18F0AFF902460B464046494617F034
:1012C000F1FF07B0BDE8F08F45F40015C6F58016B4
:1012D00020462946B6100AF1010AE7E600223E4BF5
:1012E0004046494617F0E0FF4FEA215AAAF2FF3A7A
:1012F000BAF1000F04460D460E4640F3BD8042464B
:101300004B4617F0CFFF02460B460020324917F03C
:10131000C9FF22462B4618F0A7FACDE90401B9E629
:1013200027A3D3E900232046294618F073F9024683
:101330000B460020284917F0B5FFDDE9022318F01D
:1013400069F906460F46BAF1000F75D102460B4601
:101350002046294617F0A6FF87E702460B46DDE93F
:10136000000117F09FFFA6E7404649467DE700BF12
:10137000000000000000000044523EDF12F1C23FB6
:101380009FC678D0099AC33FDE03CB966446C73F19
:10139000AF788E1DC571CC3F599322942449D23F1A
:1013A00004FA97999999D93F935555555555E53F65
:1013B0000000E0FE422EE63F763C7935EF39EA3D0B
:1013C000555555555555E53F7982DA3FFFFFEF7F7B
:1013D000FFFF3F439DA006000000F03F0000E03FFC
:1013E000FFFFEF3F0000F0BF000050C3FFFF1F3EB4
:1013F0003C412D4000005043FFFF8F3C504618F009
:101400009FF824A3D3E9002306460F4618F002F9FB
:10141000DDE9042317F048FF20A3D3E900230446A5
:101420000D463046394618F0F5F802460B46204680
:10143000294617F039FF18E7504618F081F817A32E
:10144000D3E9002382468B4618F0E4F811A3D3E9D0
:101450000023804689465046594618F0DBF8DDE9FE
:10146000042317F021FF02460B463046394617F099
:1014700019FF22462B4674E70022054B17F012FF96
:1014800002460B464046494617F00CFF41E700BFB5
:101490000000F03F763C7935EF39EA3D0000E0FE90
:1014A000422EE63F0000000008B516F0A7FB04A39B
:1014B000D3E9002318F0D8F908BD00BFAFF30080CE
:1014C000EF39FAFE422EE63F2DE9F043DFF8B48013
:1014D0008BB004460D4601F0F7F898F9003001335F
:1014E00006460F462CD022462B462046294618F0A9
:1014F0002BFB814620BB2046294616F00BF81FA384
:10150000D3E9002318F016FBD0B1194A98F900303E
:10151000CDF820900321CDE90445CDE90245CDE980
:10152000001293B113490020022BCDE9060111D11D
:1015300017F046FE22230360089B9BB9DDE906678E
:10154000304639460BB0BDE8F0830B4B4FF060429C
:10155000CDE90623684617F0AFFC0028E8D0089BC9
:10156000002BEBD017F02CFE089B0360E6E700BFD2
:1015700068BB01000000F07FFFFFEF477DF8B98FE7
:10158000CE338640FB0100202DE9F043DFF8E480F4
:101590008BB004460D4601F047F998F9003001334D
:1015A00006460F4633D02046294617F07FFC70B31D
:1015B0002CA3D3E900232046294618F0BBFA814624
:1015C00050BB2AA3D3E900232046294618F094FAF9
:1015D000E8B198F90030204ACDF820900020002191
:1015E0000426022BCDE90445CDE902450096CDE95C
:1015F0000601019229D0684617F05EFC28B3089BCB
:101600001BB117F0DDFD089B0360DDE9066730467E
:1016100039460BB0BDE8F0830F4A98F900300192CB
:1016200003210022CDE90445CDE90245009108924D
:101630002BB90A4B4FF06042CDE90623DBE708499E
:101640000020022BCDE90601D5D117F0B9FD2223E8
:101650000360D4E7AFF3008070BB0100FFFFEF47EA
:101660000000F07FEF39FAFE422E864051302DD532
:10167000104987C0FB0100202DE9F04FDFF82C93C3
:101680008DB006460F4614461D4601F09DFC99F9A3
:101690000080B8F1FF3FCDE9000136D022462B464D
:1016A0002046294618F050FA834670BB32463B4626
:1016B0003046394618F048FA8246002840F0A280A9
:1016C000304639460022002318F00CFA10B30022ED
:1016D00000232046294618F005FA8346002867D0E3
:1016E0009FEDA77B0122AC4BCDF828A00292CDE95B
:1016F0000467CDE906458DED087B0393B8F1000F33
:1017000041D09FEDA17B8DED007BDDE900010DB0A7
:10171000BDE8F08FDDE9000117F0C8FB8046002826
:1017200000F08D804FF0000A4FF0000BDDE9000162
:1017300052465B4618F0D6F90028E6D030463946C6
:1017400017F0B4FB0028E0D02046294617F0AEFB86
:101750000028DAD099F900308F4A03920421002240
:10176000022BCDE90467CDE90645CDE908AB02912E
:101770000A9203D002A817F09FFB50B917F020FD82
:101780002223036005E002A817F096FB002800F072
:101790009B800A9B1BB117F013FD0A9B03609DED14
:1017A000087B8DED007BDDE900010DB0BDE8F08F19
:1017B0002046294617F07AFB0028A6D000220023F5
:1017C0002046294618F098F900289ED0724A99F9C7
:1017D0000030CDF828B00121CDE90467CDE90645F8
:1017E000CDE90212002B74D06C490020022BCDE908
:1017F000080172D117F0E4FC212303600A9B002B3F
:10180000CDD0C8E7002200232046294618F06AF907
:1018100000283FF47AAF624B5F49CDF828B0002230
:101820000120B8F1020FCDE904670290CDE9064529
:10183000CDE908230391A6D1CDE9002365E7304621
:10184000394617F033FB00283FF46CAF2046294699
:1018500017F02CFB00283FF465AFDDE900231046AC
:10186000194618F071F999F900A000286BD10323EB
:10187000DFF824C10A902946204602930022494BF2
:10188000CDF80CC0CDE90645CDE9046717F0C2FEDE
:1018900004460D46BAF1000F25D1DFF814B14FF020
:1018A000604A0022002330463946CDE908AB18F0E3
:1018B00023F938BB02A817F0FFFA00289ED117F0D1
:1018C0007FFC2223036099E717F07AFC2123036051
:1018D0005FE79FED2B7B8DED087B02A817F0ECFAFC
:1018E00000288BD186E79FED2A7B0022002330461B
:1018F00039468DED087B18F0FFF8A0B9BAF1020F58
:10190000DDD0D7E72046294617F0DEFA22462B46DF
:1019100018F0E8F8A0B9244B99F900A04FF0604204
:10192000CDE90823EAE72046294617F0CDFA2246FA
:101930002B4618F0D7F818B9184B0022CDE9082328
:1019400099F900A0DAE70122134BCDF82880029222
:10195000CDE90467CDE906450393BAF1000FB8D08D
:10196000002200231046194617F07EFFBAF1020F3D
:10197000CDE908013FF43EAFAFE700BFAFF3008011
:101980000000000000000000000000000000F03F28
:10199000000000000000F07F88BB01000000F0FFA5
:1019A0000000F03F0000E03FFFFFEFC7FB01002019
:1019B000FFFFEF47000000002DE9F84FC44E21F073
:1019C0000043B34204460D460DDD03F1404303F5E9
:1019D0008013034340F0B980002940F34081002088
:1019E0000021BDE8F88FBB4EB34208DCBA4A9342EF
:1019F00000F3B5809CA1D1E90001BDE8F88F002972
:101A0000C0F2708102460B460020B44917F04AFC30
:101A10000022B34B17F0FEFD04460D4616F016FCEF
:101A200093A3D3E90023894680462946204617F030
:101A3000F1FD91A3D3E9002317F036FC22462B4693
:101A400017F0E8FD8EA3D3E9002317F02BFC224604
:101A50002B4617F0DFFD8CA3D3E9002317F024FCFD
:101A600022462B4617F0D6FD89A3D3E9002317F0B1
:101A700019FC22462B4617F0CDFD87A3D3E900239E
:101A800017F012FC22462B4617F0C4FD84A3D3E9BD
:101A9000002382468B462046294617F0BBFD82A3D1
:101AA000D3E9002317F0FEFB22462B4617F0B2FDC8
:101AB0007FA3D3E9002317F0F7FB22462B4617F04C
:101AC000A9FD7DA3D3E9002317F0ECFB22462B46AA
:101AD00017F0A0FD0022814B17F0E6FB02460B46F3
:101AE0005046594617F0C0FE42464B4617F092FD4D
:101AF000002682468B4632464B463046494617F012
:101B000089FD02460B462046294617F0CBFB32469C
:101B100004460D464B464046494617F0C5FB024673
:101B20000B462046294617F09FFE02460B465046BC
:101B3000594617F0B9FB32464B4617F0B5FB024643
:101B40000B4617F0B1FBBDE8F88F02460B4617F0C5
:101B5000A9FB02460B4617F087FEBDE8F88F024648
:101B60000B4617F057FD42A3D3E9002306460F4664
:101B700017F050FD40A3D3E9002317F095FB324640
:101B80003B4617F047FD3EA3D3E9002317F08AFB3D
:101B900032463B4617F03EFD3BA3D3E9002317F046
:101BA00083FB32463B4617F035FD39A3D3E90023CA
:101BB00017F078FB32463B4617F02CFD36A3D3E9ED
:101BC000002317F071FB32463B4617F023FD34A388
:101BD000D3E90023804689463046394617F01AFD7E
:101BE00031A3D3E9002317F05DFB32463B4617F0E3
:101BF00011FD2FA3D3E9002317F056FB32463B46D5
:101C000017F008FD2CA3D3E9002317F04BFB324655
:101C10003B4617F0FFFC0022304B17F045FB024615
:101C20000B464046494617F01FFE22462B4617F04A
:101C3000F1FC02460B4622A1D1E9000117F032FB6C
:101C400002460B462046294617F02CFB02460B465F
:101C500005A1D1E9000117F025FBBDE8F88F1AA115
:101C6000D1E9000179E700BF182D4454FB21F93F69
:101C700009F7FD0DE13D023F88B20175E0EF493FF4
:101C80003B8F68B52882A43F5544880E55C1C93F93
:101C90007D6FEB0312D6D43F555555555555C53F6D
:101CA00082922EB1C5B8B33F59018D1B6C06E63F39
:101CB000C88A599CE52A00404B2D8A1C273A0340CC
:101CC000075C143326A6913C182D4454FB2109408F
:101CD000FFFFEF3FFFFFDF3F0000603C0000F03FF1
:101CE0000000E03F00225C4B17F0DEFA00225B4B65
:101CF00017F090FC40A3D3E9002304460D4617F0EB
:101D000089FC3FA3D3E9002317F0CEFA22462B46E5
:101D100017F080FC3CA3D3E9002317F0C3FA224656
:101D20002B4617F077FC3AA3D3E9002317F0BCFA4F
:101D300022462B4617F06EFC37A3D3E9002317F099
:101D4000B1FA22462B4617F065FC35A3D3E90023F0
:101D500017F0AAFA22462B4617F05CFC804689460B
:101D60002046294616F072FA2FA3D3E9002306462F
:101D70000F462046294617F04DFC2DA3D3E900233A
:101D800017F090FA22462B4617F044FC2AA3D3E919
:101D9000002317F089FA22462B4617F03BFC28A3B4
:101DA000D3E9002317F07EFA22462B4617F032FCC7
:101DB0000022294B17F078FA02460B464046494666
:101DC00017F052FD32463B4617F024FC1EA3D3E920
:101DD000002317F067FA32463B4617F065FA0246D1
:101DE0000B4617F061FA02460B4619A1D1E9000132
:101DF00017F058FAB1E600BF09F7FD0DE13D023FCB
:101E000088B20175E0EF493F3B8F68B52882A43F57
:101E10005544880E55C1C93F7D6FEB0312D6D43FA0
:101E2000555555555555C53F82922EB1C5B8B33F4E
:101E300059018D1B6C06E63FC88A599CE52A004073
:101E40004B2D8A1C273A0340075C143326A6913C8D
:101E5000182D4454FB2109400000F03F0000E03FF2
:101E6000414A91422DE9F84304460D4637DD3F4A89
:101E700091420B4608DD02F1795291423DDD024666
:101E800017F012FABDE8F88301F1404202F5801222
:101E900002432ED0B1F1804F37DC0022344B17F0D3
:101EA00001FA02460B4604460D4617F0FDF922469C
:101EB00006460F462B462046294617F0ABFB024646
:101EC0000B463046394617F0EFF916F0BFF92246B7
:101ED0002B4617F0E9F9BDE8F843FFF7C1B8024611
:101EE0000B4617F0DFF902460B4617F0BDFCBDE8C4
:101EF000F88300200021BDE8F88300F00DFE18A350
:101F0000D3E9002317F0D0F9F1E7024617F082FB7E
:101F10000022174B17F0C6F916F098F922468046B2
:101F200089462B462046294617F0BEF9224606462A
:101F30000F462B464046494617F0B6F902460B4677
:101F400000200B4917F090FC0B46024639463046FC
:101F500017F0A8F9BDE8F84300F0DEBDAFF300804C
:101F6000EF39FAFE422EE63FFFFFEF3FFFFFAF41A2
:101F70000000F03F000000002DE9F04FAE4B21F0D3
:101F800000479F4287B004460D4611DD07F14047E8
:101F900007F5801703463B4321D002460B4617F056
:101FA00081F902460B4617F05FFC07B0BDE8F08FE1
:101FB000A24B9F420E4629DCB7F1795F80F2468141
:101FC00081A3D3E9002317F06FF900229C4B17F08F
:101FD000B1FDD8B12046294607B0BDE8F08F7CA3FB
:101FE000D3E9002317F016FB7BA3D3E900230646B1
:101FF0000F462046294617F00DFB02460B46304699
:10200000394617F051F907B0BDE8F08F2046294650
:1020100015F080FA02460B460020894917F042F974
:102020000022884B17F0F6FA6DA3D3E9002304468B
:102030000D4617F0EFFA6CA3D3E9002317F034F93B
:1020400022462B4617F0E6FA69A3D3E9002317F0DE
:1020500029F922462B4617F0DDFA67A3D3E90023BE
:1020600017F022F922462B4617F0D4FA64A3D3E9DD
:10207000002317F017F922462B4617F0CBFA62A37C
:10208000D3E9002317F010F922462B4617F0C2FAC5
:102090005FA3D3E90023CDE900012046294617F0CC
:1020A000B9FA5DA3D3E9002317F0FCF822462B46CA
:1020B00017F0B0FA5AA3D3E9002317F0F5F8224637
:1020C0002B4617F0A7FA58A3D3E9002317F0EAF834
:1020D00022462B4617F09EFA594B002217F0E4F8DF
:1020E00082468B4620462946CDE902AB16F0AEF873
:1020F000554B9F428046894600F3198102460B46A4
:1021000017F0D2F8DDE90223CDE90401DDE9000191
:1021100017F0AAFB02460B46DDE9040117F07AFA34
:102120004FF0000ACDE9000152464B465046494661
:1021300017F070FA02460B462046294617F0B2F80F
:10214000524604460D464B464046494617F0ACF809
:1021500002460B462046294617F086FB02460B46F0
:1021600017F0A2F802460B461BA1D1E9000117F0B7
:1021700099F802460B46DDE9000117F093F8524644
:1021800004460D464B465046494617F08DF8024628
:102190000B4627A1D1E9000117F084F802460B464F
:1021A0002046294617F07EF802460B4620A1D1E9C9
:1021B000000117F077F8002E3FF7F7AE01F100436A
:1021C0001946F2E6AFF300809C7500883CE4377E48
:1021D000182D4454FB21F93F075C143326A6913C8B
:1021E00009F7FD0DE13D023F88B20175E0EF493F7F
:1021F0003B8F68B52882A43F5544880E55C1C93F1E
:102200007D6FEB0312D6D43F555555555555C53FF7
:1022100082922EB1C5B8B33F59018D1B6C06E63FC3
:10222000C88A599CE52A00404B2D8A1C273A034056
:10223000182D4454FB21E93FFFFFEF3FFFFFDF3F35
:102240000000F03F0000E03F3233EF3F02460B4614
:1022500017F0E0F94BA3D3E9002306460F4617F029
:10226000D9F94AA3D3E9002317F01EF832463B46BA
:1022700017F0D0F947A3D3E9002317F013F832463B
:102280003B4617F0C7F945A3D3E9002317F00CF834
:1022900032463B4617F0BEF942A3D3E9002317F0BC
:1022A00001F832463B4617F0B5F940A3D3E90023C5
:1022B00016F0FAFF32463B4617F0ACF93DA3D3E9DE
:1022C0000023804689463046394617F0A3F93BA3E0
:1022D000D3E9002316F0E6FF32463B4617F09AF9A1
:1022E00038A3D3E9002316F0DFFF32463B4617F050
:1022F00091F936A3D3E9002316F0D4FF32463B46CA
:1023000017F088F900221E4B16F0CEFF02460B464E
:102310004046494617F0A8FA22462B4617F07AF9AC
:1023200022462B4616F0C0FF07B0BDE8F08F52469C
:102330005B46DDE9000117F097FA42464B4617F07D
:1023400069F942464B4616F0AFFF02460B4616F0BF
:10235000ABFF07A3D3E9002316F0A4FF02460B4608
:1023600005A1D1E9000116F09DFF24E7AFF300803D
:10237000075C143326A6913C182D4454FB21F93FE9
:102380000000F03F09F7FD0DE13D023F88B2017505
:10239000E0EF493F3B8F68B52882A43F5544880E43
:1023A00055C1C93F7D6FEB0312D6D43F55555555E6
:1023B0005555C53F82922EB1C5B8B33F59018D1B0B
:1023C0006C06E63FC88A599CE52A00404B2D8A1CC2
:1023D000273A0340000000002DE9F84F1D46534204
:1023E000134325F00049DFF8C8C149EAD3736345B8
:1023F000144606460F4626D8C0F1000848EA0008F1
:1024000021F0004A4AEAD878E04503468B461AD8BC
:1024100005F1404808F5801858EA0208AE4643D056
:102420004FEAA57808F002085AEA030348EAD1788F
:1024300011D1B8F1020F55D0B8F1030F09D14AA15B
:10244000D1E9000105E032463B462046294616F018
:102450002BFFBDE8F88F59EA020329D0E1452ED0C1
:10246000E24525D0AAEB09094FEA2959B9F13C0FF9
:102470003CDC002D3EDA19F13C0F3BDA0020002154
:10248000B8F1010F4ED0B8F1020F3ED0B8F1000FF5
:10249000DFD037A3D3E9002316F004FF36A3D3E936
:1024A000002316F0FFFED4E7BDE8F84FFEF744BB6B
:1024B000BBF1000F12DB32A1D1E90001C9E7CA4527
:1024C00034D0B8F1020F0DD0B8F1030FB7D0B8F186
:1024D000010F4FF0000036D00021BAE72AA1D1E960
:1024E0000001B6E724A1D1E90001B2E724A1D1E9B6
:1024F0000001C5E722462B463046394617F0B4F9AD
:1025000015F008F8FEF718FBBAE719A3D3E9002382
:1025100016F0C8FE02460B4617A1D1E9000116F0DD
:10252000C1FE96E701F10043194692E7B8F1020FA8
:1025300014D0B8F1030F0DD0B8F1010F06D014A1DB
:10254000D1E9000185E74FF0004182E712A1D1E90E
:1025500000017EE712A1D1E900017AE712A1D1E9D9
:10256000000176E7AFF30080182D4454FB2109C029
:10257000075C143326A6A13C182D4454FB210940C6
:10258000182D4454FB21F93F182D4454FB21F9BF69
:10259000182D4454FB21E93F182D4454FB21E9BF79
:1025A000D221337F7CD902C0D221337F7CD9024033
:1025B0000000F07F0000000043422DE9F047034394
:1025C00021F000463C4A46EAD373934204460D4646
:1025D0002AD8964240D0394B9E428A462EDD384B4F
:1025E0009E4235463FDD33460246314616F05CFEDC
:1025F000224606460F462B4600202F4916F052FE73
:1026000002460B463046394617F02EF9FEF728FDF4
:1026100000222C4B16F0FEFFBAF1000F0CDA01F18C
:1026200000431946BDE8F08702460B4616F03AFE15
:1026300002460B4617F018F9BDE8F0871CA3D3E952
:10264000002316F031FE0022002317F073FA48B180
:1026500020462946BDE8F0870022002317F004F940
:10266000BDE8F087354622462B462046294616F01F
:102670001BFE22462B4606460F4616F0CBFF22468F
:10268000804689462B4600200B4916F00BFE024679
:102690000B464046494617F0E7F832463B4616F0EF
:1026A00003FEFEF7DDFC0022064B16F0B3FFB3E796
:1026B0009C7500883CE4377E0000F03FFFFF2F3E12
:1026C000FFFFDF3F0000E03F2DE9F8434E4B21F0D4
:1026D00000449C4206460F461BDC4C4B9C4222DDCC
:1026E0004B4B9C4254DD4B4B9C4246DD4A4B9C423B
:1026F0006FDD01339C4269D041A3D3E9002310462A
:10270000194616F087FF06460F4630463946BDE8A3
:10271000F88302460B4616F07DFF06460F4630460C
:102720003946BDE8F88314F0F5FE02F04DFC0022B6
:102730003A4B8046894616F0B7FDB4F1725F064603
:102740000F46ECDB42464B464046494616F062FFD8
:1027500032463B4604460D463046394616F0A4FD47
:1027600002460B462046294617F07EF800222B4BE6
:1027700016F09AFD06460F46D1E714F0CBFE00F0A6
:1027800053F80022264B16F045FF06460F46C6E7D3
:1027900014F0C0FE00F048F80022214B06460F4618
:1027A00016F038FF324604460D463B4600201C49D1
:1027B00017F05AF802460B462046294616F074FDDB
:1027C00006460F4630463946BDE8F883154B984219
:1027D00092D83046394614F09DFE0022104B16F078
:1027E00019FF00F021F8002204460D460C4B16F0AC
:1027F00011FF22462B4616F00DFF06460F468EE7C8
:102800009C7500883CE4377EFFFFEF7F422ED63F69
:10281000FFFF3540412E8640CD3386400000F03F1B
:102820000000E03F7DF8B98F2DE9F047B04F21F06F
:102830000042BA4284B004460D464FEAD17610D920
:10284000AC4FBA4240F28A80C1F3130303430246FD
:1028500040F0F180002E7ED00020002104B0BDE8C1
:10286000F087A54B9A4200F2B680A44B9A4240F200
:10287000D1804FF0000A22462B462046294616F00A
:10288000C9FE85A3D3E9002306460F4616F0C2FE13
:1028900083A3D3E9002316F005FD32463B4616F02C
:1028A000B9FE81A3D3E9002316F0FEFC32463B4675
:1028B00016F0B0FE7EA3D3E9002316F0F3FC3246F7
:1028C0003B4616F0A7FE7CA3D3E9002316F0ECFCF0
:1028D00032463B4616F09EFE02460B4620462946EF
:1028E00016F0E0FC02460B4606460F4620462946F7
:1028F00016F090FE80468946BAF1000F00F0AB80DA
:1029000032463B4600204FF0804116F0CBFC024699
:102910000B464046494616F0A7FF02460B46DDE946
:10292000020116F0BFFCDDE9002316F0BBFC0B46EC
:1029300002467349002016F0B5FC6FF47F739A4588
:1029400080F2A3800AF57A7A01EB0A5100224FF057
:10295000B87316F05FFE04B0BDE8F08758A3D3E962
:10296000002317F0E7F800286BD157A3D3E9002321
:102970002046294617F0C0F800287FF46DAF614962
:1029800053A3D3E9002301EBC6062046294616F0DF
:1029900041FED6E9002316F087FC17F0EBF88246DB
:1029A00016F0CEFD4CA3D3E9002306460F4616F0E1
:1029B00031FE02460B462046294616F073FC48A31A
:1029C000D3E90023CDE900013046394616F022FE56
:1029D000CDE9020115E04C4B9A42D0D84B4BF400A4
:1029E0002344D3E9002316F05DFC494B234493EDC7
:1029F000007BCDE900018DED027BC6F1010AAAEB57
:102A0000060ADDE90223DDE9000116F04BFC04466D
:102A10000D4630E734A3D3E9002316F045FC00222D
:102A2000374B17F087F8A8B3204629460022344BCD
:102A300016F03AFC8FE70B4616F036FC04B0BDE802
:102A4000F08729A3D3E900231046194616F0E2FDCA
:102A500004B0BDE8F0873046394600224FF080438D
:102A600016F020FC02460B464046494616F0FCFE96
:102A700022462B4616F016FC02460B460020204943
:102A800016F010FC04B0BDE8F08701EB0A5104B069
:102A9000BDE8F0878246EEE6D0A4BE726937663E96
:102AA000F16BD2C541BDBB3E2CDE25AF6A56113F4E
:102AB00093BDBE166CC1663F3E5555555555C53F35
:102AC000EF39FAFE422E864051302DD5104987C08D
:102AD000FE822B654715F73F0000E0FE422EE63FE1
:102AE000763C7935EF39EA3D9C7500883CE4377EC9
:102AF000412E8640FFFFEF7F422ED63FFFFF2F3E45
:102B00000000F03F40A90100B1A2F03F50A9010030
:102B100060A90100000000002DE9F04FB1F5801F11
:102B200085B006460F460B4680F2D08021F0004269
:102B3000024300F0DA800029C0F2E9800022D64B7F
:102B400016F068FDD54A0B46934206460F466FF0D5
:102B5000350E00F3C180C3F3130505F5152C0CF6F3
:102B6000647C0CF4801C8CF07F5282F440121C15A3
:102B700042EA0507A4F2FF3474440022C84B3046F1
:102B8000394604EB1C5416F08DFBAB1CC3F3130346
:102B9000022B82468B464FF0000240F3AF804FF08D
:102BA000804316F081FB02460B465046594616F00C
:102BB0005BFE064620460F4616F0C2FC3246CDE9C3
:102BC00002013B4630463946CDE9006716F022FD4A
:102BD00002460B468046894616F01CFD9AA3D3E9AF
:102BE000002306460F4616F015FD99A3D3E90023EE
:102BF00016F05AFB32463B4616F00CFD96A3D3E97D
:102C0000002316F051FB32463B4616F003FD94A319
:102C1000D3E9002316F048FB42464B4616F0FAFC77
:102C200091A3D3E90023804689463046394616F001
:102C3000F1FC8FA3D3E9002316F036FB32463B4666
:102C400016F0E8FC8CA3D3E9002316F02DFB3246E6
:102C50003B4616F0DFFC0B4602464946404616F05E
:102C600023FBA5F5C223C5F5D725A3F27A43513539
:102C70001D43002D06460F4640F387800022894BF6
:102C80005046594616F0C6FC52465B4616F0C2FC4A
:102C900002460B46804689463046394616F004FB0C
:102CA000DDE9002316F0B6FC06460F46002C40F086
:102CB000818002460B464046494616F0F3FA02462A
:102CC0000B465046594616F0EDFA0BE0734A934214
:102CD0004FF0000E7FF73FAF32463B463046394655
:102CE00016F0E2FA05B0BDE8F08F002200230020C4
:102CF0006D4916F0B9FD05B0BDE8F08F002316F060
:102D0000F1FE60B1002C7CD100200021EAE70246F0
:102D100016F0C8FA0022002316F0A6FDE2E758A339
:102D2000D3E900235046594616F074FC02460B4680
:102D300000205C4916F0B6FA524606460F465B463E
:102D40005046594616F066FC02460B463046394658
:102D500016F060FC06460F462CB3204616F0F0FB3A
:102D600049A3D3E900238046894616F053FC48A3C3
:102D7000D3E9002304460D464046494616F04AFC76
:102D800002460B46304639462CE002460B4650467A
:102D9000594616F087FADDE9002316F03BFC06469B
:102DA0000F46002C47D132463B465046594616F056
:102DB00079FA97E734A3D3E90023DDE9020116F09D
:102DC00029FC33A3D3E9002304460D46DDE90201C3
:102DD00016F020FC32463B4616F066FA02460B46D9
:102DE0004046494616F05EFA52465B4616F05AFADD
:102DF00002460B462046294616F054FA05B0BDE8B7
:102E0000F08F204616F09CFB1FA3D3E90023064653
:102E10000F4616F0FFFB1EA3D3E9002304460D4620
:102E20003046394616F0F6FB02460B462046294648
:102E300016F03AFA56E7DDE9028913A3D3E9002335
:102E40004046494691E700BF44523EDF12F1C23F7F
:102E5000DE03CB966446C73F599322942449D23F60
:102E6000935555555555E53F9FC678D0099AC33FB0
:102E7000AF788E1DC571CC3F04FA97999999D93FC7
:102E8000555555555555D53F0000E0FE422EE63FBD
:102E9000763C7935EF39EA3D00005043FFFFEF7F84
:102EA0000000F03F0000E03F000050C300000000C1
:102EB000B1F5801F2DE9F84304460D460B4619DA9B
:102EC00021F00042024359D000295FDB00223A4B37
:102ED00016F0A0FB394A0D462B46934204466FF08C
:102EE00035010CDD22462B462046294616F0DCF93A
:102EF000BDE8F883314A93424FF00001F2DC181527
:102F0000A0F2FF3008444FEAD0794844C3F31308D5
:102F100016F016FBC9F57F73033348EA03550646DE
:102F20000F4620462946FFF7F7FD1DA3D3E90023EE
:102F3000804689463046394616F06CFB1AA3D3E921
:102F4000002304460D464046494616F063FB024600
:102F50000B462046294616F0A7F915A3D3E900230E
:102F600004460D463046394616F054FB02460B46E1
:102F70002046294616F098F9BDE8F8830022002380
:102F800000200F4916F070FCBDE8F883024616F0E9
:102F900089F90022002316F067FCA9E7AFF300804F
:102FA000362BF111F3FE593D0EE526157BCBDB3FA9
:102FB00000609F501344D33F00005043FFFFEF7F5A
:102FC000000050C3000000002DE9F04F23F0004541
:102FD00055EA020493B00DD06B4E21F00044B44288
:102FE0000F4682460BDD04F1404404F5801454EA98
:102FF0000A0350D16549002013B0BDE8F08F9B460D
:10300000944647D0B542EEDC5F4EB5425DD0002F0E
:1030100080468946CDE900235BDB0026BCF1000F2A
:103020000ED1594B9D423FD0584B9D4200F08880B5
:10303000BBF1804F00F09C80554B9B4500F0B8835E
:103040004046494614F066FABAF1000F06D1002C4A
:1030500059D04E4B27F040429A4254D0FF0F013FC7
:1030600056EA070373D04B4B9D4240F39B8003F11C
:1030700004739D4240F33E84474B9C4272DDBBF19A
:10308000000F72DD3EA3D3E900231046194616F067
:10309000C1FAB1E728B1414813B0BDE8F04F15F0CF
:1030A0000DBFA542F7DCAFE704F1404303F5801301
:1030B00053EA0A039ED0384B9C4240F38383BBF112
:1030C000000F52DBDDE9000196E7BCF1000F9ED056
:1030D00089E7334B9D4231DCA3F154739D429CDD63
:1030E0002B15A3F2FF33142B40F3A583C3F1340354
:1030F0002CFA03F202FA03F363458ED102F00102C7
:10310000C2F102068AE7BBF1000F05DA02460B4660
:1031100000201E4916F0A8FB002FBFF66DAF04F18A
:10312000404404F5801454EA060300F03F84012E65
:103130007FF462AF01F1004319465DE702266DE7B7
:10314000BBF1000FC0F248834046494654E742466F
:103150004B461046194616F0A5F802460B4616F0E7
:1031600083FB49E7BBF1000F8CDB0020002143E724
:1031700042464B464046494616F04CFA3CE700BFF3
:103180009C7500883CE4377E0000F07F0000F03F33
:103190000000E03F0000E041FFFFEF3F68B10100A9
:1031A000FFFF3F43B4F5801F80F261830022D24BC2
:1031B00016F030FA6FF0340C0C462315CF4DC4F3E3
:1031C0001302A3F2FF3342F07F546344AA420B93ED
:1031D00044F4401440F33F83C94B9A4240F30484C3
:1031E0009FEDAF7B8DED087B8DED107B9FEDAE7B72
:1031F0000B9B8DED067B01330B93A4F5801400250A
:10320000DDE906232146824616F04CF8A346DDE9A7
:1032100006238046894650462146CDE90CAB16F080
:1032200043F802460B460020B64916F01DFB0A463D
:103230000146CDE90E12134649460246404616F0B5
:10324000E9F9631043F0005382468B4603F50023EF
:103250008C46CDE904AB5919D3460023CDE902BC15
:103260000293DDE902AB002004460D4602460B4600
:103270005046594616F0CEF902460B46404649469E
:1032800016F010F8DDE906238046894620462946D7
:1032900016F008F802460B46DDE90C0116F002F8BC
:1032A00052465B4616F0B6F902460B464046494682
:1032B00015F0F8FFDDE90E2316F0ACF9DDE9044561
:1032C000CDE9060122462B462046294616F0A2F9F2
:1032D00077A3D3E9002304460D4616F09BF976A3A5
:1032E000D3E9002315F0E0FF22462B4616F092F9B1
:1032F00073A3D3E9002315F0D7FF22462B4616F01F
:1033000089F971A3D3E9002315F0CEFF22462B469D
:1033100016F080F96EA3D3E9002315F0C5FF22460D
:103320002B4616F077F96CA3D3E9002315F0BCFF08
:103330002246804689462B462046294616F06AF9E1
:1033400002460B464046494616F064F9524604468A
:103350000D465B46DDE9040115F0A6FFDDE9062315
:1033600016F058F922462B4615F09EFF524680462D
:1033700089465B465046594616F04CF90022624B8E
:10338000CDE90C0115F090FF42464B4615F08CFF3D
:1033900002980D46044622462B465046594616F0E2
:1033A00039F9002282468B46574B2046294615F0B4
:1033B00079FFDDE90C2315F075FF02460B46404608
:1033C000494615F06FFFDDE9042316F023F9224684
:1033D000804689462B46DDE9060116F01BF90246B8
:1033E0000B464046494615F05FFF80468946024637
:1033F0000B465046594615F057FF029838A3D3E9BB
:10340000002304460D4616F005F95246CDE90401A5
:103410005B462046294615F045FF02460B464046CE
:10342000494615F03FFF30A3D3E9002316F0F2F828
:103430002FA3D3E90023804689462046294616F06B
:10344000E9F802460B464046494615F02DFFDDE9F6
:10345000102315F029FF80460B98894616F070F866
:10346000424682468B464B46DDE9040115F01CFFBF
:10347000DDE9082315F018FF52465B4615F014FFEE
:10348000029852465B4604460D4615F00BFFDDE9F7
:10349000082315F007FFDDE9042337E0AFF30080D0
:1034A0000000000000000000000000000000F03FED
:1034B000EF4E454A287ECA3F65DBC9934A86CD3F19
:1034C00001411DA96074D13F4D268F515555D53FFF
:1034D000FFAB6FDBB66DDB3F033333333333E33F97
:1034E000000000E009C7EE3FFD033ADC09C7EE3FEC
:1034F000F5015B14E02F3EBE000040438E980300B0
:1035000079B60B000000F03F0000084015F0CAFE3D
:103510000B4602464946404615F0C4FE013E56EAB7
:10352000070382468B4600F05E819FEDD37B8DEDD5
:10353000047BDDE9001200230E461746CDE9026741
:103540000293DDE9026708463B461146324615F014
:10355000A9FE22462B4616F05DF8DDE900238046E1
:1035600089465046594616F055F802460B464046E5
:10357000494615F099FE3246804689463B4620462C
:103580002946CDE9008916F045F80B460246064665
:103590000F464046494615F087FED14B99420446F6
:1035A0000D468A4640F3248101F13F4303F5E003D1
:1035B000034340F0FF81B2A3D3E90023DDE900011A
:1035C00015F072FE3246804689463B462046294623
:1035D00015F068FE02460B464046494616F0AAFA28
:1035E000002840F0E781A8464FEA2853A3F2FE32B4
:1035F0004FF4801313415344C3F30A52B94DA2F25E
:10360000FF321541C3F3130423EA05010020C2F180
:10361000140B44F48014BAF1000F02460B4644FA2E
:103620000BFB30463946B8BFCBF1000B15F03AFE24
:1036300006460F463246DDE900013B4615F034FEF2
:103640004FEA0B5A0D4600248FA3D3E900232046EE
:10365000294615F0DFFF3246804689463B46204624
:10366000294615F01FFE02460B46DDE9000115F064
:1036700019FE87A3D3E9002315F0CCFF86A3D3E975
:10368000002306460F462046294615F0C3FF024692
:103690000B463046394615F007FE06460F460246F1
:1036A0000B464046494615F0FFFD42464B46044650
:1036B0000D4615F0F7FD02460B463046394615F02B
:1036C000F1FD2246804689462B462046294615F0C4
:1036D000A1FF73A3D3E9002306460F4615F09AFF16
:1036E00071A3D3E9002315F0DDFD32463B4615F00A
:1036F00091FF6FA3D3E9002315F0D6FD32463B4678
:1037000015F088FF6CA3D3E9002315F0CBFD3246FA
:103710003B4615F07FFF6AA3D3E9002315F0C4FDF3
:1037200032463B4615F076FF02460B4620462946B8
:1037300015F0B8FD06460F4602460B4620462946C0
:1037400015F068FF0022CDE900014FF080433046BC
:10375000394615F0A7FD02460B46DDE9000116F0DB
:1037600083F8424606460F464B462046294615F04A
:1037700051FF42464B4615F097FD02460B46304638
:10378000394615F08FFD22462B4615F08BFD02467B
:103790000B460020544915F085FD8A44BAF5801F78
:1037A000C0F232815146DDE9042315F033FF23E4F2
:1037B000002FFFF645AC4046494613B0BDE8F04F38
:1037C00014F044BDBBF1000FBFF6CFACDDE900340F
:1037D000184604F100410FE442464B46002042499E
:1037E00016F042F808E49FED387B8DED047BA0E6EF
:1037F0003E4B21F00048984540F3EA803C4B0B4497
:1038000003430AD132463B4615F04CFDDDE9002367
:1038100016F086F900283FF4E7AEDDE904012CA399
:10382000D3E9002315F0F6FE29A3D3E9002315F010
:10383000F1FEFFF7E1BBBCF1000F40F0D280C3F115
:10384000140345FA03F202FA03F3AB4200F0E080FE
:103850006646FFF7E9BB9FED207B8DED087B8DED84
:10386000107B9FED057B00258DED067BC8E44FF0B6
:10387000000CA2E4AFF30080000000000000F03F65
:10388000FE822B654715973C00000000432EE63F63
:10389000EF39FAFE422EE63F396CA80C615C20BE7F
:1038A000D0A4BE726937663EF16BD2C541BDBB3E46
:1038B0002CDE25AF6A56113F93BDBE166CC1663F24
:1038C0003E5555555555C53F000000000000F0BF5E
:1038D00059F3F8C21F6EA5010000000000000000AF
:1038E000FFFF8F40FFFF0F000000F03FFFCB904035
:1038F00000346F3F5A4B9C427FF734AC594B9C428B
:103900003FF7BDAB0022574B15F0CCFC44A3D3E9E5
:10391000002304460D4615F07DFE43A3D3E90023A2
:1039200082468B462046294615F074FE0022CDE9DA
:1039300002014D4B2046294615F06CFE02460B460F
:103940003BA1D1E9000115F0ADFC22462B4615F054
:1039500061FE02460B460020444915F0A3FC2246B6
:10396000804689462B462046294615F053FE0246DE
:103970000B464046494615F04DFE2FA3D3E90023E0
:1039800015F048FE02460B46DDE9020115F08AFCFF
:1039900002460B46804689465046594615F084FC3F
:1039A000002004460D4652465B46AFE502460B46F4
:1039B000FFF7CFBBDDE9040121A3D3E9002315F014
:1039C00029FE1FA3D3E9002315F024FEFFF714BB43
:1039D000264B98453FF708AEDDE902239246934611
:1039E00031E60026FFF72CBB9FED177B8DED087BA2
:1039F0009FED177B8DED107B9FED177B4FF480259E
:103A00008DED067BFFF7FCBB5A4601F029FDCAE6A7
:103A100002F00102C2F10206FFF706BBAFF300801D
:103A2000000000604715F73F44DF5DF80BAE543EE1
:103A3000555555555555D53FFE822B654715F73FD2
:103A40009C7500883CE4377E0000004003B8E23FEC
:103A500006D0CF43EBFD4C3E000000000000F83FD5
:103A6000FEFFEF3F0000F03F0000D03F0000E03FCE
:103A70002DE9F047CA4B21F000479F4290B08046A5
:103A8000894640F38F80C74B9F420C46924626DC06
:103A90000029B9A3D3E9002340F38F8015F002FC7D
:103AA000C14B9F4204460D4600F04781B4A3D3E9C1
:103AB000002315F0F7FB02460B46CAE90023204617
:103AC000294615F0EFFBAEA3D3E9002315F0EAFB7E
:103AD0000125CAE90201284610B0BDE8F087B34BC2
:103AE0009F4240F38980B24B9F4200F31C813D15F9
:103AF000A5F21645A7EB055319461F46064616F0D4
:103B000039F815F01DFD8046894642464B46304641
:103B10003946CDE90A8915F0C5FB0022A54B15F001
:103B200079FD8946804616F025F815F009FD064610
:103B30000F4632463B4640464946CDE90C6715F0F4
:103B4000B1FB00229B4B15F065FD00220023CDE95F
:103B50000E0115F0C7FF002800F0608100233046F9
:103B60003946002215F0BEFF002814BF01230223AE
:103B7000914A019202212A4600910AA8514600F07A
:103B800087FB002C054614DADAF80420DAF80C304A
:103B900002F1004203F100434542CAF80420CAF88A
:103BA0000C3006E000200021C2E90089C2E90201D0
:103BB0000025284610B0BDE8F08715F075FB7A4B5C
:103BC0009F4204460D4600F00B816DA3D3E900230C
:103BD00015F06AFB02460B46CAE900232946204637
:103BE00015F060FB66A3D3E9002315F05DFB4FF0F1
:103BF000FF35CAE90201DCE713F08CFC62A3D3E9CC
:103C000000238046894615F005FD00226B4B15F018
:103C10004BFB15F0AFFF054615F092FC56A3D3E918
:103C20000023CDE9060115F0F5FC02460B4640469F
:103C3000494615F037FB52A3D3E900238046894655
:103C4000DDE90601CDE9028915F0E4FC1F2D0246ED
:103C50000B46CDE9042340F3B380DDE90423DDE91D
:103C6000020115F01FFB804689463F15C9F30A5330
:103C7000FB1A102B40F3B18045A3D3E90023DDE903
:103C8000060115F0C7FC8046894602460B46DDE971
:103C9000020115F007FB02460B46DDE90201CDE902
:103CA000082315F0FFFA42464B4615F0FBFA3AA3FB
:103CB000D3E9002380468946DDE9060115F0AAFC18
:103CC00042464B4615F0EEFA0B46CDE9040102469A
:103CD000DDE9080115F0E6FAC1F30A53FF1A312FA6
:103CE0008046894600F39C809DED087BCAE90089E7
:103CF0008DED027B42464B46DDE9020115F0D2FA1A
:103D0000DDE9042315F0CEFA002CCAE90201BFF662
:103D100050AF09F1004401F100436D42CAE900844B
:103D2000CAE9020345E702460B4615F0BBFA002537
:103D3000CAE90201CAE900013BE715A3D3E9002360
:103D400015F0B0FA14A3D3E900230D46044615F08C
:103D5000A9FA02460B46CAE900232946204615F077
:103D6000A1FA0DA3D3E9002315F09CFA0125CAE9B5
:103D700002011EE7AFF3008000004054FB21F93F31
:103D80003163621A61B4D03D83C8C96D305FE43FCE
:103D90000000601A61B4D03D7370032E8A19A33BF2
:103DA000FB21E93F7BD90240FB21F93FFB2139414F
:103DB000FFFFEF7F0000704124BC01000000E03FE6
:103DC0004046494615F06EFA394B6A1E804653F854
:103DD0002230BB4289463FF448AFCAE9008989E7EF
:103DE0002BA3D3E9002315F05FFA2BA3D3E900231B
:103DF0000D46044615F058FA02460B46CAE9002360
:103E00002946204615F04EFA23A3D3E9002315F0E6
:103E10004BFA4FF0FF35CAE90201CAE60323A7E6D1
:103E20001FA3D3E90023DDE9060115F0F3FB0646E5
:103E30000F4602460B46DDE9080115F033FA8046CD
:103E4000894602460B46DDE90801CDE9028915F0F5
:103E500029FA32463B4615F025FA13A3D3E900238D
:103E600006460F46DDE9060115F0D4FB32463B4617
:103E700015F018FA02460B4640464946CDE90423A0
:103E800015F010FA80468946A7E700BFAFF300801F
:103E90000000601A61B4D03D7370032E8A19A33BF1
:103EA0000000002E8A19A33BC14920259A837B3943
:103EB000A4BB010000000000574A2DE9F84F21F093
:103EC0000048904506460F462CDC544B0029B4BFF1
:103ED000534D544D98454FF0000411DC524B98451A
:103EE00026DC4BA3D3E9002315F0DEF900224F4B6B
:103EF00015F020FE002840D030463946BDE8F88F46
:103F00004B4B984530DD4B4B984568DD0133984568
:103F100062D0304639463EA3D3E9002315F07AFB40
:103F2000BDE8F88F02460B4615F0BEF9BDE8F88FE4
:103F300013F0F0FA01F048F83F4B984506460F465B
:103F400023DD0022394B15F0AFF902460B4630460F
:103F5000394615F089FC32463B4615F0A5F9224654
:103F60002B4615F057FBE1E713F0D4FAFEF75CFCA3
:103F700022462B4615F04EFBD8E73046394613F063
:103F8000C9FA01F021F806460F4632463B46304654
:103F9000394615F089F9324682468B463B46304613
:103FA000394615F037FB0022804689461F4B3046C4
:103FB000394615F079F902460B464046494615F058
:103FC00053FC02460B465046594615F06BF9224603
:103FD0002B4615F01FFBA9E7184B984299D830469D
:103FE000394613F097FA00220E4B15F013FBFEF73B
:103FF0001BFC06460F4602460B462046294615F096
:1040000009FB32463B4615F005FB8FE7AFF3008016
:104010003374AC3C1F7BAC7FFFFFEF7FFFFF35406D
:104020000000E0BF0000E03FFFFF2F3E0000F03F38
:10403000412E8640CD338640FFFFEF3F7DF8B98F9C
:104040002DE9F04F21F00048B8F1795F85B00646C0
:104050000F4692469B466BDA15F08CFD002800F067
:10406000E18032463B463046394615F0D3FA74A318
:10407000D3E9002304460D4615F0CCFA72A3D3E928
:10408000002315F011F922462B4615F0C3FA70A350
:10409000D3E9002315F006F922462B4615F0BAFAAB
:1040A0006DA3D3E9002315F0FFF822462B4615F047
:1040B000B1FA6BA3D3E9002315F0F4F822462B469E
:1040C00015F0A8FA68A3D3E9002315F0EDF822460D
:1040D0002B4615F09FFACDE900010022664B2046E1
:1040E000294615F097FADDE90023804689462046E7
:1040F000294615F08FFA524604460D465B46304677
:10410000394615F087FA02460B462046294615F037
:10411000C9F802460B464046494615F0C3F8024628
:104120000B460020554915F0BDF805B0BDE8F08FED
:1041300002460B4615F06EFA41A3D3E9002304466C
:104140000D4615F067FA40A3D3E9002315F0ACF84B
:1041500022462B4615F05EFA3DA3D3E9002315F065
:10416000A1F822462B4615F055FA3BA3D3E90023CC
:1041700015F09AF822462B4615F04CFA38A3D3E9ED
:10418000002315F08FF822462B4615F043FA36A38C
:10419000D3E9002315F088F82B46224615F03AFAA9
:1041A000374B9845CDE9000197DD364B98453EDC0D
:1041B000A8F500130022002030499046994615F0DA
:1041C00071F8CDE9020100222B4B2046294615F05B
:1041D00021FA42464B4615F065F8DDE9002380469A
:1041E00089462046294615F015FA524604460D46E2
:1041F0005B463046394615F00DFA02460B4620461E
:10420000294615F04FF802460B464046494615F040
:1042100049F802460B46DDE9020115F043F805B006
:10422000BDE8F08F1549002005B0BDE8F08F9FED87
:10423000107B4FF000088DED027BDFF84C90C2E759
:10424000D43888BEE9FAA8BDC4B1B4BD9EEE213E03
:10425000AD529C804F7E923E9015CB19A001FA3E44
:104260007751C1166CC1563F4C5555555555A53F14
:10427000000000000000E73F0000E03F0000F03FCA
:104280003233D33F0000E93F0000D23F000000007E
:104290002DE9F04FADF5197DBE4CA29EBE4D54F8F0
:1042A00026600793D41E85FB0475E417C4EBA504B0
:1042B00024EAE4741D46631CA3EB8303013D02EB77
:1042C000C3030593731904960994019503900B9108
:1042D000A4EB05071AD43B44002400255E1C0DF115
:1042E0008008DDF88C9208E059F8270015F028F9CD
:1042F0000137B742E8E8020108D0002FF4DA0137AD
:1043000020462946B742E8E80201F6D1049B002B7B
:10431000079B4FEAC30302932ADB039A20A902EB0F
:10432000030801EB0309049B72AA02EBC30B0DF512
:10433000E07A019B002B4FF000064FF0000711DBE5
:10434000039C4D4675E90223F4E8020115F062F979
:1043500002460B463046394614F0A6FF4445064651
:104360000F46EFD1EAE80267DA4509F10809E0D122
:10437000DDE90204049920448B0082460BA8A3F1D6
:104380000802C31808930CAB13440A938B4698ABEE
:1043900003EBCB03BBF1000F53E9284529DD70ABDC
:1043A00003EBCB080DF1300900227C4B2046294657
:1043B00015F030F915F0DEFB15F0C2F80022784B4D
:1043C00006460F4615F026F902460B4620462946BA
:1043D00014F068FF15F0CEFB78E9022349F8040BCE
:1043E0003946304614F060FF70AB984504460D46E0
:1043F000DAD1DDF81490204629464A4601F030F81B
:1044000000224FF07F5304460D4615F003F9FCF7E8
:10441000A7FD0022634B15F0FDF802460B4620462F
:10442000294614F03FFF0D46044615F0A3FB8046D5
:1044300015F086F80B4602462946204614F032FF56
:104440004B46002B06460F4640F3E1800BF1FF324E
:104450000CA9C9F1180351F8225045FA03F101FAE9
:1044600003F30CA8EB1A40F82230C9F11705884471
:1044700043FA05F5002D2CDDBBF1000F08F1010812
:1044800040F381820C9C002C40F0A780BBF1010F0F
:104490000AD00CA9012251F8044F531C002C40F003
:1044A0009E809B451A46F6D1059B002B0EDD012B05
:1044B00000F0D980022B09D10BF1FF320CAB0CA913
:1044C00053F82230C3F3150341F82230022D00F0D7
:1044D000AF80002200233046394615F003FB002848
:1044E00000F05382049B0BF1FF394B4510DC0BF1BC
:1044F00080430CAA013B089802EB8303002253F887
:104500000419834242EA0102F9D1002A40F0B68040
:10451000049B0CAA013B52F82330002B40F0A180F1
:104520000A9A012352F8041901330029FAD05B4496
:104530000BF10109994506934CDC099A079909EB9F
:10454000020801EB0B0508F1804802EB030BA39B6B
:1045500008F1FF3803EB880870AB03EBC909A39B94
:1045600020A903EB8B0301EBC505029358F8040F58
:1045700014F0E6FF0B4601990246002905F1080BED
:10458000C5E900234FF000064FF000071CDB039C39
:104590000CE000BFC4C00100ABAAAA2A0000703E14
:1045A000000070410000204075E90223F4E8020198
:1045B00015F030F802460B463046394614F074FECA
:1045C000544506460F46EFD1029B9845E9E802673D
:1045D0005D46CBD1DDF818B0D9E6012300220CA945
:1045E000C4F180749B4541F822400EDD51F8232030
:1045F00001EB8B0001EB83036FF07F4100E01A6851
:104600008A1A43F8042B8342F9D101244CE706D1DE
:104610000BF1FF330CAA52F82350ED152AE70022C4
:104620007B4B15F07DFA002840F0A381054650E74A
:1046300032463B460020774914F034FE06460F46CA
:10464000002C3FF446AF059A7249002000F008FFA5
:1046500002460B463046394614F024FE06460F4605
:1046600037E7012363E70BF1FF320CAB0CA953F8DA
:104670002230C3F3160341F8223027E70CAB059A2A
:1046800053F82930183ACDE9068505926BB909F13E
:104690008043013B0CA901EB830353F8041909F192
:1046A000FF39183A0029F8D00592059A5949002097
:1046B00000F0D6FEB9F1000F04460D46C0F2C081ED
:1046C0004FEAC90370AA02EB030808930CAB03EB93
:1046D0008906DFF844B14FF0000A08F108070436F4
:1046E00056F8040D14F02CFF22462B4614F092FFCE
:1046F0005B4667E9020152462046294614F08AFFCC
:104700000CAB9E4204460D46EAD148AB039301939D
:10471000CDF8149009F10103DDF810900293C3461F
:104720004FF0000AB9F1000FC0F22A81DFF8EC80E7
:104730005D4635A3D3E9002300260027002403E0CB
:10474000544510DCF8E80223F5E8020114F062FF9A
:1047500002460B463046394614F0A6FD0134A14509
:1047600006460F46ECDA019BE3E802670193029BE1
:104770000AF1010A9A45ABF1080BD3D1A29BDDF8EF
:104780001490032B39D8DFE813F0D9000600060097
:104790004D0048AB0393B9F1000F4FF000004FF00C
:1047A000000109DB039D05EBC904083474E9022309
:1047B00014F07AFDA542F9D1079B002B40F01E8131
:1047C0000B9BC3E900010B4603990246D1E90001A6
:1047D00014F068FDB9F1000F0CDD4AAD012401347D
:1047E000F5E8022314F060FDA145F8DA079B002BE1
:1047F00040F014810B9BC3E90201069B03F0070004
:104800000DF5197DBDE8F08F00000040FB21F93F58
:104810000000E03F0000F03F0000703E88A901006A
:1048200048AB0393B9F1000F40F32781039ACDF809
:1048300010904FEAC9030193D318D3E900AB09F1F3
:104840000053013B02EBC9080293914678E90267E5
:1048500052465B463046394614F026FD04460D4666
:1048600002460B463046394614F01CFD52465B4664
:1048700014F01AFDC145A246AB46C8E90201C8E9D9
:104880000045E3D1DDF81090B9F1010F40F3F58058
:10489000019B039A02991344C900D3E9006701F10F
:1048A000080A019192440DF5947B7AE90289324617
:1048B0003B464046494614F0F7FC04460D46024686
:1048C0000B464046494614F0EDFC32463B4614F098
:1048D000EBFCD34526462F46CAE90201CAE900454A
:1048E000E3D1019C039B1034002000211C4403F100
:1048F000100574E9022314F0D7FCA542F9D1039CFA
:10490000079ED4E90023D4E90245002E00F08A80F6
:1049100003F1004701F100430B99C1E90403069B31
:104920002646944605F1004403F00700C1E900C79C
:10493000C1E902640DF5197DBDE8F08F089C039D67
:104940000834002000212C4474E9022314F0ACFC4C
:10495000A542F9D1079B13B101F1004319460B9B06
:10496000C3E90001069B03F007000DF5197DBDE8C2
:10497000F08FBBF1000F08F1010874DD022581E51D
:1049800000260027EFE600248EE5CDE90685059D8B
:10499000304639466A4200F063FD0022384B064635
:1049A0000F4615F0BDF800B30022364B30463946AD
:1049B00014F030FE15F0DEF8044614F0C1FD0022BC
:1049C0002F4B14F027FE0B4602463946304614F0B2
:1049D00069FC15F0CFF80BF101090CAB183543F861
:1049E0002B00059543F829405FE63046394615F01F
:1049F000C1F80CABD94643F82B0056E60B9C01F1ED
:104A00000043C4E900030B4603990246D1E90001C3
:104A100014F048FCB9F1000F3FF7DFAE01F100439D
:104A20001946E7E60B9EC6E90023069BC6E904018A
:104A300003F00700C6E902450DF5197DBDE8F08FCA
:104A4000A29B032B3FF6D9AE01A252F823F000BF80
:104A5000614A00009347000093470000214800008E
:104A60000020002176E732463B460020064914F03C
:104A700019FC022506460F462BE5002000213EE7E3
:104A8000000070410000703E0000F03F0000000098
:104A90002DE9F04F21F00046B6F1795F85B004466C
:104AA0000D469046994604DA15F064F8002800F0A7
:104AB000858022462B462046294614F0ABFD06464B
:104AC0000F4602460B462046294614F0A3FD41A39B
:104AD000D3E9002382468B463046394614F09AFDCE
:104AE0003EA3D3E9002314F0DDFB32463B4614F02D
:104AF00091FD3CA3D3E9002314F0D6FB32463B469C
:104B000014F088FD39A3D3E9002314F0CBFB32461F
:104B10003B4614F07FFD37A3D3E9002314F0C4FB18
:104B20000E9BCDE900019BB30022294B404649462C
:104B300014F070FDDDE90023CDE90201504659462D
:104B400014F068FD02460B46DDE9020114F0AAFBF1
:104B500032463B4614F05EFD42464B4614F0A2FB43
:104B600019A3D3E9002306460F465046594614F0D0
:104B700051FD02460B463046394614F095FB02467D
:104B80000B462046294614F08DFB05B0BDE8F08F9A
:104B900002460B463046394614F03CFD0AA3D3E9E1
:104BA000002314F07FFB52465B4614F033FD22468F
:104BB0002B4614F079FB05B0BDE8F08F204629465E
:104BC00005B0BDE8F08F00BF495555555555C53F57
:104BD0000000E03F7CD5CF5A3AD9E53DEB9C2B8ACB
:104BE000E6E55A3E7DFEB157E31DC73ED561C119CA
:104BF000A0012A3FA6F810111111813F000000000A
:104C00002DE9F04FC04C21F0004687B0A642824605
:104C10008B460F46CDE900231ADC14F0ABFF0028C9
:104C20003FD1109B524601331343334300F0B78109
:104C3000109B012B00F0C0815B460020B34914F0AB
:104C400013FE04460D462046294607B0BDE8F08F06
:104C5000AF4B9E4225DD002909DADDE900452246F9
:104C600005F10043CDE900230BF100418B4652468C
:104C70005B4685A1D1E9000114F014FBDDE90023B6
:104C800004460D4682A1D1E9000114F00BFB9FED13
:104C9000827B22462B468DED007B14F005FB82467D
:104CA0008B4652465B465046594614F0B3FC0246CA
:104CB0000B468046894614F0ADFC424604460D463C
:104CC0004B465046594614F0A5FC75A3D3E9002382
:104CD000CDE902012046294614F09CFC72A3D3E9D9
:104CE000002314F0E1FA22462B4614F093FC70A343
:104CF000D3E9002314F0D8FA22462B4614F08AFC9C
:104D00006DA3D3E9002314F0CFFA22462B4614F00A
:104D100081FC6BA3D3E9002314F0C6FA22462B468C
:104D200014F078FC68A3D3E9002314F0BDFA4246DE
:104D30004B4614F06FFC66A3D3E90023CDE90401D0
:104D40002046294614F066FC63A3D3E9002314F03F
:104D5000ABFA22462B4614F05DFC61A3D3E9002395
:104D600014F0A2FA22462B4614F054FC5EA3D3E9B9
:104D7000002314F099FA22462B4614F04BFC5CA356
:104D8000D3E9002314F090FA22462B4614F042FC9B
:104D900059A3D3E9002314F087FA02460B46DDE954
:104DA000040114F081FADDE9022314F033FCDDE99B
:104DB000004522462B4614F077FA42464B4614F043
:104DC00029FC22462B4614F06FFA4DA3D3E90023A9
:104DD00004460D46DDE9020114F01CFC22462B4678
:104DE00014F062FA0B460246804689465046594600
:104DF00014F05AFA464B9E4204460D4600F38C804E
:104E0000109B012B3BD002460B4600203F4914F07B
:104E10002BFD002406460F462046294652465B4697
:104E2000CDE90067CDE90201009414F03BFADDE919
:104E300000AB02460B464046494614F033FA524650
:104E40005B4614F0E7FB524604460D465B46DDE93F
:104E5000020114F0DFFB00222E4B14F025FA02466B
:104E60000B462046294614F01FFA32463B4614F002
:104E7000D1FB52465B4614F017FA04460D46204615
:104E8000294607B0BDE8F08F182D4454FB21E93FB7
:104E9000075C143326A6813C0000000000000000DF
:104EA000D47ABF74702AFB3EE9A7F0320FB8123FE4
:104EB00068108D1AF726303F1583E0FEC8DB573F98
:104EC00093846EE9E326823FFE41B31BBAA1AB3F58
:104ED000735360DBCB75F3BEA69237A0887E143F78
:104EE0000165F2F2D844433F280356C9226D6D3F55
:104EF00037D60684F464963F7AFE10111111C13F33
:104F0000635555555555D53FFFFF2F3E0000F0BF67
:104F10002794E53F0000F03F109814F011FB224663
:104F2000CDE900012B462046294614F073FBDDE94C
:104F30000023CDE902012046294614F0B5F90246C6
:104F40000B46DDE9020114F08FFC42464B4614F09B
:104F5000A9F902460B465046594614F0A3F90246F9
:104F60000B4614F0A1F902460B46DDE9000114F0EE
:104F700099F90446B81700F00200C0F101000D468F
:104F800014F0DEFA02460B462046294614F042FB96
:104F900004460D462046294607B0BDE8F08F50462E
:104FA000594612F0B7FA02460B460020044914F0A5
:104FB0005BFC04460D4662E754465D465FE700BF72
:104FC0000000F03F000000002DE9F04FCC4A21F036
:104FD0000043934285B082468B460C4620D9C94A8D
:104FE000934200F2D780002C80F2A481ACA3D3E9D5
:104FF00000235046594614F057F90022002314F0BC
:105000007BFD002840F0D180A7A3D3E900235046C0
:10501000594614F0FFFA02460B460020BA4994E1C3
:10502000BA4A934200F2E580B94A934240F22E8197
:10503000002301930022B74B5046594614F0EAFA78
:1050400006460F4602460B465046594614F0E2FA11
:1050500097A3D3E9002304460D4614F0DBFA96A388
:10506000D3E9002314F020F922462B4614F0D2FA9B
:1050700093A3D3E9002314F015F922462B4614F02C
:10508000C9FA91A3D3E9002314F00EF922462B4666
:1050900014F0C0FA8EA3D3E9002314F003F92246DA
:1050A0002B4614F0B7FA00229B4B14F0FDF8804613
:1050B000894602460B463046394614F0ABFA0246A2
:1050C0000B460020954914F0EDF8064602460B46C3
:1050D0000F464046494614F0E5F832468046894678
:1050E0003B465046594614F095FA02460B460020BE
:1050F0008B4914F0D7F802460B464046494614F057
:10510000B3FB22462B4614F085FA019E02460B465D
:10511000002E4DD0DDE9026732463B4614F0C2F85E
:1051200052465B4614F076FA32463B4614F0BAF823
:105130002B46224614F0B6F8019B013306460F4673
:1051400000F02381019B012B7BD0019A531C392B4A
:105150004FEA025500F22881019A132A40F3558143
:10516000019BC3F57F7403340022230514F09CF8DF
:1051700002460B465046594614F094F80022664BFE
:1051800014F092F8824605EB010B5046594605B0E3
:10519000BDE8F08F634A93421BD9C1F31303034365
:1051A000024640F012810029EFDA00205E490DE04E
:1051B0005046594614F02EFA22462B4614F072F847
:1051C00002460B465046594614F06CF805B0BDE84F
:1051D000F08F41A3D3E9002314F0ACFC00283FF486
:1051E00002AF3FA3D3E900231046194614F012FA88
:1051F000ECE74E4A934200F2EC8000293AA3D3E94F
:10520000002339DA14F050F839A7D7E900674FF0D6
:10521000FF3380468946019332463B464046494625
:1052200014F040F802460B4682468B4640464946FB
:1052300014F038F832463B4614F034F8CDE9020158
:10524000F8E600223A4B5046594614F055FC002827
:1052500000F0CC805046594600222E4B14F024F822
:1052600002460B463046394614F01CF800224FF037
:10527000404314F0CFF9A9E714F014F80123804655
:10528000894601931CA7D7E90067C5E714A3D3E9B2
:10529000002314F009F802460B468FE7AFF30080B5
:1052A00059F3F8C21F6EA501FE822B654715F73F23
:1052B0002DC3096EB7FD8ABE3952E686CACFD03EED
:1052C000B7DBAA9E19CE143F8555FE19A0015A3F9F
:1052D000F41011111111A13FEF39FAFE422E864050
:1052E0009C7500883CE4377E0000E0FE422EE63FDD
:1052F000763C7935EF39EABD763C7935EF39EA3DD0
:1053000079684340412E86400000E0BF422ED63FE0
:10531000FFFF8F3C0000E03F0000F03F000008402E
:1053200000001840FFFFEF7F0000F0BFB1A2F03F88
:105330000000D0BF44A3D3E900235046594614F0DF
:1053400069F902460B460020414913F0ADFF14F005
:1053500011FC019014F0F4F837A3D3E900230646BA
:105360000F4614F057F902460B465046594613F0C3
:1053700099FF33A3D3E90023804689463046394656
:1053800014F048F906460F4646E702460B465046DB
:10539000594613F087FF00222D4B14F03BF90022F1
:1053A0002B4B13F07FFF11E752465B4613F07AFF59
:1053B00002460B460020274913F074FF6B1819466C
:1053C0000022244B13F06EFF00E70B4613F06CFF36
:1053D000FCE61DA3D3E9002314F01CF9002C0246BF
:1053E0000B464FF00000AFDA1B49AEE732463B46B2
:1053F0005046594613F056FF02460B4613F054FF31
:105400000022144B13F050FFE0E64FF4001343FA70
:1054100002F452465B4613F045FFC4F17F57002665
:1054200007F5401702460B463046394613F03AFF5F
:10543000A8E600BFAFF300800000E0FE422EE63F8A
:10544000763C7935EF39EA3DFE822B654715F73F0B
:105450000000E03F0000F03F0000E0BF000000005F
:10546000F8B5C1F30A5304460D460E4617460BBB6A
:1054700021F00046034633431BD0354B002214F085
:10548000C9F8344B9F4204460D4635DBC1F30A533D
:105490000E46363B3B4440F2FE72934232DC002B18
:1054A00011DD26F0FF4626F4E00646EA03552046C5
:1054B0002946F8BD40F2FF729342EBD102460B46FB
:1054C00013F0F2FEF8BD13F1350F28DA4CF2503329
:1054D0009F4222462B460ADD19A1D1E9000113F0B3
:1054E00053FE17A3D3E9002314F094F8F8BD16A1D6
:1054F000D1E9000113F048FE13A3D3E9002314F00F
:1055000089F8F8BD22462B460DA1D1E9000113F020
:105510003BFE0BA3D3E9002314F07CF8F8BD26F082
:10552000FF4626F4E006363346EA03552046294670
:105530000022094B14F06EF8F8BD00BFAFF30080F5
:105540009C7500883CE4377E59F3F8C21F6EA501B4
:1055500000005043B03CFFFF0000903C10B5054CEC
:10556000237833B9044B13B10448AFF3008001230F
:10557000237010BD10050020000000001CC20100B7
:1055800008B5034B1BB103490348AFF3008008BDC6
:1055900000000000140500201CC20100154B002B68
:1055A00008BF134B9D46A3F5803A00218B460F465A
:1055B0001348144A121A09F0A7F80F4B002B00D019
:1055C00098470E4B002B00D0984700200021040084
:1055D0000D000D48002802D00C48AFF3008013F0F6
:1055E00009FE2000290005F0B9F813F0EFFD00BF17
:1055F0000000080000000220000000000000000081
:10560000000400209C0C00200000000000000000AE
:1056100070B504460E4600F047FA88B103681B6B6C
:1056200005469847082C0CD0A4F10903012B14D986
:105630003246214610230D20BDE8704004F07AB8B0
:1056400070BD2B6828469B6A98470228F0DC2B68BF
:1056500028465B6A04219847EAE72B6828469B6A3C
:1056600098470528E4DC2B6828465B6A08219847A0
:10567000DEE700BF38B52DED028B054600F014FAC9
:10568000044640B103681B6B9847032D03D8DFE83D
:1056900005F02F363D06BDEC028B002038BD2046BC
:1056A0000CF02CFC07EE900A2046F8EEE78A0CF08E
:1056B00033FC07EE900A2046B8EEE78A0CF03AFC7D
:1056C00068EE087A07EE100AE8EEA87AB8EEC77A14
:1056D000E7EE077AF5EE407AF1EE10FAB1EEE78ADE
:1056E0001BD4FDEEC87ABDEC028B17EE900A38BDD4
:1056F000BDEC028B2046BDE838400CF0FFBBBDEC92
:10570000028B2046BDE838400CF006BCBDEC028B95
:105710002046BDE838400CF00DBC17EE900A12F0A0
:105720002FFCDEE738B5044600F0BEF958B1036837
:105730001B6B0546984744B1012C04D12846BDE8AF
:105740003840FBF73DB9002038BD2846BDE8384059
:10575000FBF716B910B5044600F0A6F928B10368A6
:1057600021465B6ABDE81040184710BD00487047ED
:1057700016FCFFFF704700BF10B5034B03600446E3
:105780000CF0B8F9204610BD0CB7010010B5054B60
:10579000036004460CF0AEF9204614F0C3FC20462A
:1057A00010BD00BF0CB701002DE9F041032184B00A
:1057B0000546512001F0DAFCDFF8E8C2AE4B0446A2
:1057C00004F00F06C4F3031714F4807408BF634693
:1057D000AA4831463A460BF017FB221C18BF01229B
:1057E00031463B4628460EF0BFFA0023AB60A44882
:1057F0000BF00AFB4FF0FF31032001F0B7FCC0B201
:1058000004F052FA4FF0FF310446022001F0AEFCE2
:10581000C0B204F049FA002C3BD0002839D0014630
:10582000204604F063F8064600284DD04FF0FF31C3
:10583000462001F09BFC322804464ED04BDD382830
:1058400000F0B18068285FD14FF0FF31012001F0F6
:105850008DFCC0B204F028FA80465C2014F06BFC8A
:10586000052301934246009431462B4607460DF02E
:105870007DFAAF603B683846DB6A9847A8680368E2
:105880001B6B98477F480BF0BFFA284604B0BDE871
:10589000F0817D480BF0B8FA4FF0FF31192001F08C
:1058A00065FCC0B204F000FA4FF0FF310446182046
:1058B00001F05CFCC0B204F0F7F90146204604F0A8
:1058C00015F806460028B1D170480BF09DFA28461D
:1058D00004B0BDE8F081302816D14FF0FF3101202F
:1058E00001F044FCC0B204F0DFF98046502014F00F
:1058F00022FCA4B207460523019342460094314698
:105900002B460CF0DDFFB4E701243268CDE90044FA
:105910000023576AAB600F220DF10F03322130468E
:10592000B847002800F085803368CDE900440F2295
:105930005F6A30210DF10F033046B84700284AD086
:105940003368CDE900440D225F6A38210DF10F0361
:105950003046B847002872D03268CDE900440DF1D6
:105960000F03576A682175223046B847002845D191
:10597000682147480BF048FA4FF0FF31204601F00C
:10598000F5FBC0B204F090F980465C2014F0D3FB24
:1059900005246823CDE90034424631462B460746AC
:1059A0000DF0E4F965E74FF0FF31012001F0DEFB77
:1059B000C0B204F079F98046502014F0BCFB0523F6
:1059C0000746019342462B46009431460DF0AEF84F
:1059D000304B3B604DE730212D480BF015FA302459
:1059E0004FF0FF31012001F0C1FBC0B204F05CF9BF
:1059F0008046502014F09FFB07467CE726480BF0BA
:105A000003FAAF68002F7FF435AF4FF0FF3103206A
:105A100001F0ACFBC0B204F047F930B11F480BF005
:105A2000F3F9284604B0BDE8F0811D480BF0ECF90D
:105A30004DE7322116480BF0E7F93224D0E7382140
:105A400013480BF0E1F94FF0FF31204601F08EFBD7
:105A5000C0B204F029F98046502014F06CFB0524F4
:105A600038230746CDE9003442462B4631460DF037
:105A70005DF8084B3B60FCE610AA010020AA01007B
:105A800040AA010000AB010050AA010064AA010075
:105A900090AA0100D8A901007CAA0100A4AA0100D3
:105AA000E0AA010018AA010038B5114C23680BB117
:105AB000986838BD4FF0FF31012001F057FBC0B2AC
:105AC00004F0F2F840B10C2014F035FB0546FFF766
:105AD0006BFE2560A86838BD4FF0FF31032001F050
