:020000040801F1
:1000000000800120516302085D8A0208D99A010824
:10001000AD0F0308AD0F0308AD0F0308000000008B
:10002000000000000000000000000000618A0208DB
:10003000658A020800000000698A02086D8A0208C9
:10004000AD0F0308AD0F0308AD0F0308AD0F030894
:10005000AD0F0308AD0F0308098002080D800208E8
:10006000118002081580020819800208858702089D
:1000700095870208A5870208B5870208C587020888
:10008000D5870208E5870208AD0F0308AD0F030806
:10009000AD0F0308AD0F0308AD0F03081D80020864
:1000A000AD0F0308AD0F0308AD0F0308AD0F030834
:1000B000856A02088D6A0208956A0208AD0F030876
:1000C000AD0F0308AD0F0308AD0F030895850208B7
:1000D000A1850208AD0F0308AD0F0308AD0F03089B
:1000E00021800208AD0F0308AD0F0308AD0F030810
:1000F000AD0F0308AD0F0308AD0F0308F587020825
:10010000AD0F0308AD0F03089D6A0208AD85020814
:10011000AD0F0308AD0F0308AD0F0308AD0F0308C3
:100120000588020815880208258802083588020813
:1001300045880208AD0F0308AD0F0308AD0F030893
:10014000AD0F0308AD0F0308AD0F0308C56C02081F
:10015000558802086588020875880208AD0F0308F3
:10016000AD0F0308AD0F0308AD0F0308AD0F030873
:10017000AD0F0308AD0F0308AD0F0308000000002A
:10018000AD0F0308AD0F0308AD0F0308AD0F030853
:10019000B9850208AD0F0308AD0F0308AD0F0308C2
:1001A000AD0F0308AD0F0308AD0F0308AD0F030833
:1001B000AD0F0308000000002DE9F04F85B003915A
:1001C0000778A7F10903042B044607F07F0200F12A
:1001D0000100F5D9202AF3D02B2F04BF67780446FD
:1001E0002D2F75D09FED427B8DED007B4FF00008E9
:1001F0004FF000099FB34FF0000C25464FF0000A66
:10020000DFF8FCB0644619E01DF064FC80468946C6
:1002100030461DF0F5FB42464B461DF0A5FA52460E
:10022000804689465B46DDE900013CB31DF07CFD5C
:10023000CDE90001A44615F8017F7FB1A7F1300692
:10024000092E52465B4640464946DDD9CCB92E2F91
:1002500017D115F8017F0124002FEFD12C4642461B
:100260004B46DDE900011DF035FC80468946039BC5
:10027000404649461C6005B0BDE8F08F4FF0010CC8
:10028000D9E72C46BCF1000F29D042464B46DDE9A8
:1002900000011DF01FFC07F0DF07452F804689464F
:1002A000E5D10399681C0A2220F0B2FA14490246EB
:1002B00000201DF0BFFF02460B46404649461DF098
:1002C00009FC804689464046494605B0BDE8F08FA6
:1002D0009FED097B67788DED007B013486E7DFF8C1
:1002E00024904FF000084046494605B0BDE8F08F25
:1002F000000000000000F03F000000000000F0BF20
:10030000000024400000F87F2DE9F0470023144648
:100310000022804689461DF04FFE28B109F10043B6
:1003200099462D232370013400220023404649467C
:100330001DF038FE28B13022002322706370BDE822
:10034000F087404649461EF071FD1DF073FE73A311
:10035000D3E900230746494640461DF02DFE0028FC
:100360004ED170A3D3E90023404649461DF042FE1A
:10037000002845D10E2F07F1010540F3B980A7F100
:100380000E063246002062491DF054FF02460B461D
:10039000404649461DF0C8FC00225E4B1DF0E4F9C2
:1003A0001DF084FF002DA7F10F0E4FF0010C4DDD65
:1003B000594FDFF87881012245F6F3294FF02E0AD4
:1003C000494508BF40454FF030030AD3B0EB080061
:1003D00061EB0901494508BF404503F10103F5D22E
:1003E000DBB2237050EA010304F101084AD19542BF
:1003F00052DD0132102A4FD0444677E90289DFE707
:10040000002F33DB3A46002041491DF013FF02461E
:100410000B46404649461DF087FC3BA3D3E9002329
:100420008046894601250026404649461DF052FB7C
:100430000022384B1DF098F91DF038FF002DBC4606
:100440004FF0FF3E37464FF00006B1DC2346302226
:100450004FF02E0803F8022B84F80180FC4345D0AE
:100460001C4403F8012BA342FBD1A1E77A420020F0
:1004700027491DF0DFFE02460B46404649461DF067
:1004800029FBCAE7954202F1010204BF84F801A0EA
:1004900004F10208102AAFD16EB14246302102F8B1
:1004A000011BC2F1010373444344002BF7DC2EEA25
:1004B000EE7301339844BCF1010F12D0BCF1000F70
:1004C0004FF0650388F80030C5BF2B2388F8013052
:1004D00008F1010108F102016046BDE8F04711F0A2
:1004E000E3BA002388F80030BDE8F0871C465FE7D8
:1004F000C7F10E02002006491DF09CFE3E46024652
:100500000B46012790E700BF0000901EC4BCD642F6
:10051000000024400000E03FF01703088DEDB5A077
:10052000F7C6B03E50EFE2D6E41A4B4400407A10D2
:1005300070B54FF0FF3006F0F3F804466FF07F40DF
:1005400006F0EEF8064620461DF04AFA00220C4B53
:100550001DF0C0FA044630460D461DF041FA06A3D0
:10056000D3E900231DF0E0FB02460B462046294656
:100570001DF0FAF870BD00BF0000E0DFFFFF6F4321
:100580000000F03D000000002DE9F04F1D461389EA
:10059000AB4288BF536885B004468CBF53F8250032
:1005A000002090468A4606F02FFD0022904B1DF059
:1005B00091FA1DF03FFDB8F808206B1C9A4288BFE5
:1005C000D8F8042006468CBF52F82300002006F01D
:1005D0001BFD0022864B1DF07DFA1DF02BFDB8F8A7
:1005E00008300235AB4288BFD8F8043007468CBFCC
:1005F00053F82500002006F007FD002EC4E900672F
:1006000040F3E280002F40F3DF8071A3D3E90023A1
:10061000002584F828501EF02DFB00220023804680
:1006200089461DF0C9FC40B14046494668A3D3E95C
:1006300000231DF099F88046894667A3D3E900237B
:10064000404649461DF0D6FCC0B165A3D3E900235E
:10065000404649461DF0BAFC80B101234046494658
:1006600084F8283060A3D3E900231DF07DF858A357
:10067000D3E900231EF0FEFA8046894600225D4B36
:10068000404649461DF026FA1EF02CF801F10043C1
:1006900000221946564B1DF01DFA1DF0CBFC4946B1
:1006A000054640461DF0DAFF0022514B1DF012FABC
:1006B0001DF0C0FCDAF804304F49B3F80CB0B3F8C1
:1006C0000AA0A56007FB0BF303EB010806FB0AF683
:1006D000019388FB05234FEA124C00960E444CEA26
:1006E000034C06EA010383FB009A06EB0C0E0EEAAC
:1006F000010ED346CA468EFB00675246CDE902671B
:10070000120C42EA0B42DDE902AB0CEA010C8CFB55
:1007100000674FEA164956460A40360C46EA0B4631
:1007200049EA074982FB05AB5F46C144B0445646DF
:10073000CDE90267039FE060360C09EA010908EA87
:10074000010846EA074689FB05AB334488FB05569A
:10075000CDE9025655462D0C45EA0B45DDE902ABC5
:100760000B40AC4403EAE3770CEA010C554623EA5C
:10077000E37367454FEA154502EAE276A8BF67468C
:1007800045EA0B45634522EAE272B8BF6346AE44D0
:100790004E450EEA010EA8BF4E464A45B8BF4A462E
:1007A0007745A8BF77467345B8BF73464645A8BF8F
:1007B0004646C4E905634245B8BF424600980199E0
:1007C000206261622761E261204605B0BDE8F08FDA
:1007D000EA2E4454FB211940F4D64354FB21F93F3F
:1007E000320D337F7CD91240EA2E4454FB2109405C
:1007F0000000F0400000E03F0000FFFF00000000AC
:100800002DE9F04F2DED028B044683B0C0681DF03A
:10081000F7F88046206989461DF0F2F88246606943
:100820008B461DF0EDF8024601F1004306460F46E7
:10083000404649461EF0B0F91DF044FCE062054612
:100840001EF072F8019028461EF032F8019B054612
:1008500018461DF0E7F842464B461DF03BF980462E
:10086000284689461DF0DEF832463B461DF032F937
:1008700002460B46404649461CF074FF02460B46B2
:10088000504659461EF088F91DF01CFC002208EE67
:10089000100A0023304639461DF0ACFB28B3B5EEF4
:1008A000C08AF1EE10FA1CDD11A7D7E9006718EE37
:1008B000100A1DF0B7F802460B46304639461CF0C8
:1008C00051FF32463B461CF04FFF1DF0FBFBA06280
:1008D000E38843F00203E38003B0BDEC028BBDE884
:1008E000F08F05A7D7E90067E1E784ED0A8AEFE713
:1008F000EA2E4454FB21F93FEA2E4454FB21F9BF70
:1009000008B512F03FFBDFED0C7A07EE100A67EE38
:10091000277A17EE900A1DF085F805A3D3E9002386
:100920001DF002FA1DF086FB08BD00BFAFF300808A
:10093000EA2E4454FB2119400000B443000000009B
:1009400008B512F033FBDFED0C7A07EE100A67EE04
:10095000277A17EE900A1DF065F805A3D3E9002366
:100960001DF0E2F91DF066FB08BD00BFAFF300808B
:10097000EA2E4454FB2119400000B443000000005B
:100980004F4A21F0004393422DE970430D4604463F
:100990004DDC4C4A93420E460FDC45A3D3E90023BD
:1009A0001CF0E2FE0022484B1DF024FB002854D02E
:1009B0002B4620461946BDE87083444A934240DCEA
:1009C000B3F1804F49DD1DF045FE22468046894641
:1009D0002B46204629461DF07DF800223A4B1CF09C
:1009E000C3FE1EF057FE42464B461CF0BDFE0246BB
:1009F0000B46002034491DF097F9424604460D4647
:100A00004B46404649461CF0AFFE0B46024629467F
:100A100020461CF0A9FE01F0C7FE04460B46002E3E
:100A20000BDC03F1004320461946BDE870830B46FA
:100A300002461CF099FE04460B4620461946BDE8C6
:100A400070831DF007FE01F0AFFE1BA3D3E9002366
:100A50001CF08AFE04460B46E1E722462B46204660
:100A600029461DF037F880468946204629461DF064
:100A7000F1FD00220446144B0D46404649461CF049
:100A800073FE1EF007FE00220F4B1CF06DFE0246A7
:100A90000B46404649461DF047F922462B461CF0BE
:100AA00063FE00F0B1FA04460B46B8E7AFF30080EE
:100AB0009C7500883CE4377EEF39FAFE422EE63F13
:100AC000FFFFEF7FFFFF2F3E0000F03F0000B0412F
:100AD0002DE9F84FB84B21F000469E420D468A465C
:100AE00004460EDDB54B9E4200F3B08000F0AB80B3
:100AF000B34BB449B448BAF1000FC8BF1946BDE8BA
:100B0000F88FB24B9E4200F3B980A3F1DE739E4290
:100B100040F3A4804FF0FF3B22462B462046294657
:100B20001CF0D8FF02460B46804689461CF0D2FFD7
:100B300089A3D3E9002306460F461CF0CBFF88A308
:100B4000D3E900231CF010FE32463B461CF0C2FFE6
:100B500085A3D3E900231CF007FE32463B461CF078
:100B6000B9FF83A3D3E900231CF0FEFD32463B46C8
:100B70001CF0B0FF80A3D3E900231CF0F5FD324642
:100B80003B461CF0A7FF7EA3D3E900231CF0ECFD3D
:100B900042464B461CF09EFF7BA3D3E900238046D0
:100BA0008946304639461CF095FF79A3D3E90023E6
:100BB0001CF0D8FD32463B461CF08CFF76A3D3E9EF
:100BC00000231CF0CFFD32463B461CF083FF74A38C
:100BD000D3E900231CF0C6FD32463B461CF07AFFE9
:100BE00071A3D3E900231CF0BDFD32463B461CF047
:100BF00071FF02460B46404649461CF0B5FD2246B1
:100C00002B461CF067FFBBF1FF3F02460B465CD052
:100C10006F4B704E4FEACB0B5B44D3E900231CF0C3
:100C2000A1FD22462B461CF09DFDB34402460B4617
:100C3000DBE900011CF096FDBAF1000F0CDA01F1BE
:100C40000041BDE8F88F00283FF452AF224620460D
:100C50002B4629461CF088FDBDE8F88F54A3D3E944
:100C600000231CF081FD00225B4B1DF0C3F900281E
:100C70003FF450AF20462946BDE8F88F1DF0EAFC4E
:100C8000564B9E4204460D4625DCA3F550239E425A
:100C90004ADC02460B461CF067FD00224E4B1CF05E
:100CA00061FD002206460F464FF08043204629464C
:100CB0001CF05AFD02460B46304639461DF034F80A
:100CC0004FF0000B04460D4626E7204629461CF04F
:100CD00049FDBDE8F88F424B9E421ADC0022414B91
:100CE0001CF040FD002206460F463E4B204629469A
:100CF0001CF0F0FE0022384B1CF036FD02460B467D
:100D0000304639461DF010F84FF0020B04460D46F0
:100D100002E702460B46002033491DF005F84FF06C
:100D2000030B04460D46F7E600222B4B1CF01AFD80
:100D3000002206460F46284B204629461CF014FD8B
:100D400002460B46304639461CF0EEFF4FF0010BD1
:100D500004460D46E0E600BF11DA22E33AAD903FCB
:100D6000EB0D76244B7BA93F513DD0A0660DB13FE2
:100D70006E204CC5CD45B73FFF8300922449C23F4A
:100D80000D5555555555D53F2F6C6A2C44B4A2BF0F
:100D90009AFDDE522DDEAD3F6D9A74AFF2B0B33FD7
:100DA000711623FEC671BC3FC4EB98999999C93F4F
:100DB0009C7500883CE4377EFFFF0F440000F07F05
:100DC000FB21F93FFB21F9BF182D4454FFFFDB3F06
:100DD00018180308F81703080000F03FFFFFF23F60
:100DE000FF7F03400000F83F0000F0BF000000005C
:100DF000C1F30A522DE9F843A2F2FF36132E0B4637
:100E00000D4604468846074621DC002E4CDB3A4A54
:100E100042FA06F901EA090202431DD034A3D3E9DC
:100E200000231CF0A1FC002200231DF0E3F848B1D0
:100E3000002D04DD4FF4801343FA06F6B04428EA8F
:100E4000090500273C4629462046BDE8F883332E95
:100E500006DDB6F5806F3AD019462046BDE8F88326
:100E6000A2F213424FF0FF3929FA02F919EA000FF2
:100E7000F2D01FA3D3E900231CF076FC002200234C
:100E80001DF0B8F80028DDD0002D09DD142E25D086
:100E90000123C6F1340603FA06F6371928BF984431
:100EA00027EA09074546CDE711A3D3E900231CF043
:100EB0005BFC002200231DF09DF80028C2D0002D0D
:100EC0000FDB55EA040707D000270C4DBAE70246AE
:100ED0001CF04AFC0446C0E73D46B3E705F10108B3
:100EE000DEE700274FF00045ACE700BFAFF300801E
:100EF0009C7500883CE4377EFFFF0F000000F03F48
:100F0000C1F30A522DE9F843A2F2FF36132E0B4625
:100F10000D460446884607461DDC002E3DDB384A58
:100F200042FA06F901EA0902024319D032A3D3E9D1
:100F300000231CF019FC002200231DF05BF8D0B345
:100F4000002D04DA4FF4801343FA06F6B04428EA81
:100F5000090500272FE0332E06DDB6F5806F2FD070
:100F600019462046BDE8F883A2F213424FF0FF393C
:100F700029FA02F919EA000FF2D01FA3D3E90023DE
:100F80001CF0F2FB002200231DF034F898B1002D74
:100F900024DB27EA090745460DE017A3D3E9002320
:100FA0001CF0E2FB002200231DF024F818B1002DF4
:100FB0000BDB00273D463C4629462046BDE8F8832A
:100FC00002461CF0D1FB0446CBE725F000430D4A56
:100FD0001F43002F18BF15460027ECE7142E08D03A
:100FE0000123C6F1340603FA06F6371928BF9844E0
:100FF000CFE705F10108CCE79C7500883CE4377E1B
:10100000FFFF0F000000F0BF2DE9F04FD84B9942D1
:1010100087B00E46074643DDD64B99428A4600F319
:10102000F680D54B994240F330810B15A3F2FF3B7C
:1010300000220023CDE902230446D04BCAF3130A51
:101040009A454AF07F5500F3158145F44015204636
:1010500029460022CA4B1CF085FB002204460D469F
:10106000C84B1CF037FD22462B461CF033FD804652
:10107000894627462E46CDE90089BAF1000F3AD1BC
:1010800000220023204629461CF08CFF002800F097
:101090001D81BBF1000F40F0858100200146BAE0C0
:1010A000B94B21F000449C420A460FDD0022B74BA9
:1010B0001CF078FF002800F0B180002200230020FF
:1010C000B3491CF031FE07B0BDE8F08FB14B9C4234
:1010D00040F3B180B04B1A449A4240F2D6800022CD
:1010E000A84B1CF0F7FC3A4633461CF0F3FCCDE964
:1010F00000014FF0000B00224FF08043384631468C
:101100001CF032FB02460B46384631461CF00CFE02
:1011100002460B46804689461CF0DCFC80A3D3E9DE
:10112000002304460D461CF0D5FC7FA3D3E9002321
:101130001CF01AFB22462B461CF0CCFC7CA3D3E906
:1011400000231CF011FB22462B461CF0C3FC7AA3A3
:10115000D3E900231CF008FB22462B461CF0BAFC06
:1011600077A3D3E900231CF0FFFA22462B461CF09C
:10117000B1FC75A3D3E900231CF0F6FA22462B46F6
:101180001CF0A8FC72A3D3E900231CF0EDFA224660
:101190002B461CF09FFCDDE9004522462B461CF047
:1011A000E3FA42464B461CF095FCCDE90401BBF145
:1011B000000F00F0A88058461CF022FC66A3D3E97B
:1011C0000023804689461CF085FC65A3D3E90023F3
:1011D00004460D46404649461CF07CFCDDE90223EE
:1011E0001CF0C2FADDE904231CF0BEFA02460B46ED
:1011F000DDE900011CF0B6FA3A4633461CF0B2FABB
:1012000002460B46204629461CF0ACFA03E0024693
:101210000B461CF0A9FA07B0BDE8F08F3A463346FA
:10122000384631461CF09EFA02460B461CF07CFD07
:1012300007B0BDE8F08F0022584B1CF095FA002251
:1012400000231CF0D7FE10B1554B9C4262DD3A469C
:101250003346384631461CF03DFC0022494B1CF019
:1012600039FC02460B46384631461CF07BFA07B083
:10127000BDE8F08F45F40015CAF5801A20462946CE
:101280004FEAAA0A0BF1010BE3E63D4B3846314623
:1012900000221CF069FA0B15A3F2FF3BBBF1000F13
:1012A00004460D468A4640F3C3803A4633461CF056
:1012B00059FA02460B46002031491CF053FA2246E7
:1012C0002B461CF031FDCDE90201B6E626A3D3E999
:1012D0000023204629461CF0FDFB02460B46002059
:1012E00027491CF03FFA42464B461CF0F3FB0646EA
:1012F0000F46BBF1000F73D102460B46204629462C
:101300001CF030FA87E702460B46204629461CF0BF
:1013100029FAA6E7384631467DE700BFAFF30080E3
:1013200044523EDF12F1C23F9FC678D0099AC33FB4
:10133000DE03CB966446C73FAF788E1DC571CC3FA8
:10134000599322942449D23F04FA97999999D93F05
:10135000935555555555E53F0000E0FE422EE63FBA
:10136000763C7935EF39EA3D555555555555E53FAC
:101370007982DA3FFFFFEF7FFFFF3F439DA006002A
:101380000000F03F0000E03FFFFFEF3F0000F0BF34
:10139000000050C3FFFF1F3E3C412D400000504362
:1013A000FFFF8F3C58461CF02BFB27A3D3E90023FB
:1013B00006460F461CF08EFBDDE902231CF0D4F933
:1013C00023A3D3E9002304460D46304639461CF0DA
:1013D00081FB02460B46204629461CF0C5F91AE758
:1013E00058461CF00DFB1AA3D3E9002382468B4616
:1013F0001CF070FB14A3D3E90023804689465046B5
:1014000059461CF067FBDDE902231CF0ADF90246EA
:101410000B46304639461CF0A5F922462B461CF0F7
:10142000A1F902460B46404649461CF09BF9F2E6FC
:101430000022094B1CF096F902460B46384631460D
:101440001CF090F93BE700BF763C7935EF39EA3D77
:101450000000E0FE422EE63F0000F03F00000000EA
:1014600008B51DF067FC04A3D3E900231CF05CFC65
:1014700008BD00BFAFF30080EF39FAFE422EE63F11
:101480002DE9F043DFF8B4808BB004460D4600F040
:1014900057FF98F90030013306460F462CD02246FC
:1014A0002B46204629461CF0AFFD814620BB204636
:1014B00029461DF0CFF81CA3D3E900231CF09AFDA8
:1014C000D0B11B4A98F90030CDF820900321CDE926
:1014D0000445CDE90245CDE9001293B1154900203C
:1014E000022BCDE9060111D11FF04EF92223036032
:1014F000089B9BB9DDE90667304639460BB0BDE86D
:10150000F0830D4B4FF06042CDE9062368461EF094
:10151000EBFF0028E8D0089B002BEBD01FF034F93C
:10152000089B0360E6E700BF7DF8B98FCE338640A5
:10153000E83303080000F07FFFFFEF479A03002025
:101540002DE9F043DFF8E4808BB004460D4600F04F
:10155000A3FF98F90030013306460F4633D02046EA
:1015600029461EF0BBFF70B329A3D3E90023204610
:1015700029461CF03FFD814650BB27A3D3E9002339
:10158000204629461CF018FDE8B198F90030244A9D
:10159000CDF82090042600200021022BCDE904453F
:1015A000CDE90245CDE90062CDE9060129D06846C2
:1015B0001EF09AFF28B3089B1BB11FF0E5F8089BAB
:1015C0000360DDE90667304639460BB0BDE8F083BD
:1015D000134A98F90030019203210022CDE9044515
:1015E000CDE90245009108922BB90E4B4FF06042B5
:1015F000CDE90623DBE70C490020022BCDE90601EB
:10160000D5D11FF0C1F822230360D4E7AFF30080E7
:10161000EF39FAFE422E864051302DD5104987C051
:10162000F0330308FFFFEF470000F07F9A0300202C
:101630002DE9F84FC44E21F00043B3420C46054655
:101640000DDD03F1404303F58013034340F0B980FF
:10165000002940F3408100200021BDE8F88FBB4EF7
:10166000B34208DCBA4A934200F3B5809CA1D1E9A9
:101670000001BDE8F88F0029C0F2708102460B46D8
:101680000020B4491CF06EF80022B34B1CF022FA83
:1016900004460D461DF0FEFF93A3D3E900238946BF
:1016A0008046294620461CF015FA91A3D3E9002371
:1016B0001CF05AF822462B461CF00CFA8EA3D3E9F4
:1016C00000231CF04FF822462B461CF003FA8CA393
:1016D000D3E900231CF048F822462B461CF0FAF907
:1016E00089A3D3E900231CF03DF822462B461CF0C9
:1016F000F1F987A3D3E900231CF036F822462B46E4
:101700001CF0E8F984A3D3E9002382468B462046E7
:1017100029461CF0DFF982A3D3E900231CF022F84C
:1017200022462B461CF0D6F97FA3D3E900231CF0F8
:101730001BF822462B461CF0CDF97DA3D3E90023EC
:101740001CF010F822462B461CF0C4F90022814BF5
:101750001CF00AF802460B46504659461CF0E4FAC3
:1017600042464B461CF0B6F9002682468B4632466E
:101770004B46304649461CF0ADF902460B46204622
:1017800029461BF0EFFF324604460D464B464046C5
:1017900049461BF0E9FF02460B46204629461CF04D
:1017A000C3FA02460B46504659461BF0DDFF32464F
:1017B0004B461BF0D9FF02460B461BF0D5FFBDE898
:1017C000F88F02460B461BF0CDFF02460B461CF07D
:1017D000ABFABDE8F88F02460B461CF07BF942A33A
:1017E000D3E9002306460F461CF074F940A3D3E961
:1017F00000231BF0B9FF32463B461CF06BF93EA3B9
:10180000D3E900231BF0AEFF32463B461CF062F9E1
:101810003BA3D3E900231BF0A7FF32463B461CF055
:1018200059F939A3D3E900231BF09CFF32463B460C
:101830001CF050F936A3D3E900231BF095FF324684
:101840003B461CF047F934A3D3E900238046894680
:10185000304639461CF03EF931A3D3E900231BF092
:1018600081FF32463B461CF035F92FA3D3E9002314
:101870001BF07AFF32463B461CF02CF92CA3D3E92F
:1018800000231BF06FFF32463B461CF023F9002279
:10189000304B1BF069FF02460B46404649461CF0A0
:1018A00043FA2A4623461CF015F902460B4622A1AC
:1018B000D1E900011BF056FF02460B46284621469F
:1018C0001BF050FF02460B4605A1D1E900011BF0B9
:1018D00049FFBDE8F88F1AA1D1E9000179E700BFFF
:1018E000182D4454FB21F93F09F7FD0DE13D023F5E
:1018F00088B20175E0EF493F3B8F68B52882A43F6D
:101900005544880E55C1C93F7D6FEB0312D6D43FB5
:10191000555555555555C53F82922EB1C5B8B33F63
:1019200059018D1B6C06E63FC88A599CE52A004088
:101930004B2D8A1C273A0340075C143326A6913CA2
:10194000182D4454FB210940FFFFEF3FFFFFDF3F0D
:101950000000603C0000F03F0000E03F00225C4BD4
:101960001BF002FF00225B4B1CF0B4F840A3D3E94C
:10197000002304460D461CF0ADF83FA3D3E9002335
:101980001BF0F2FE22462B461CF0A4F83CA3D3E940
:1019900000231BF0E7FE22462B461CF09BF83AA3DF
:1019A000D3E900231BF0E0FE22462B461CF092F800
:1019B00037A3D3E900231BF0D5FE22462B461CF0AB
:1019C00089F835A3D3E900231BF0CEFE22462B462F
:1019D0001CF080F880468946204629461DF05AFEB4
:1019E0002FA3D3E9002306460F46204629461CF0C4
:1019F00071F82DA3D3E900231BF0B4FE22462B4639
:101A00001CF068F82AA3D3E900231BF0ADFE2246A0
:101A10002B461CF05FF828A3D3E900231BF0A2FE9D
:101A200022462B461CF056F80022294B1BF09CFE48
:101A300002460B46404649461CF076F932463B4684
:101A40001CF048F81EA3D3E900231BF08BFE32469E
:101A50003B461BF089FE02460B461BF085FE024604
:101A60000B4619A1D1E900011BF07CFEB1E600BFD5
:101A700009F7FD0DE13D023F88B20175E0EF493FF6
:101A80003B8F68B52882A43F5544880E55C1C93F95
:101A90007D6FEB0312D6D43F555555555555C53F6F
:101AA00082922EB1C5B8B33F59018D1B6C06E63F3B
:101AB000C88A599CE52A00404B2D8A1C273A0340CE
:101AC000075C143326A6913C182D4454FB21094091
:101AD0000000F03F0000E03F414A91422DE9F84309
:101AE0000C46054637DD3F4A914209DD02F1795245
:101AF00091423EDD02460B461BF036FEBDE8F88300
:101B000001F1404202F5801202432ED0B1F1804F24
:101B100037DC0022344B1BF025FE02460B46044600
:101B20000D461BF021FE224606460F462B46204658
:101B300029461BF0CFFF02460B46304639461BF0C4
:101B400013FE1DF0A7FD22462B461BF00DFEBDE83F
:101B5000F843FFF759BA02460B461BF003FE024654
:101B60000B461CF0E1F8BDE8F88300200021BDE839
:101B7000F88300F019FE18A3D3E900231BF0F4FD4D
:101B8000F1E702460B461BF0A5FF0022164B1BF0A7
:101B9000E9FD1DF07FFD2A468046894623462846FA
:101BA00021461BF0E1FD2A4606460F4623464046E5
:101BB00049461BF0D9FD02460B4600200A491CF09D
:101BC000B3F80B460246394630461BF0CBFDBDE864
:101BD000F84300F0E9BD00BFEF39FAFE422EE63FC0
:101BE000FFFFEF3FFFFFAF410000F03F00000000AC
:101BF0002DE9F04FB24B21F000479F4287B00D46D0
:101C0000044615DD07F1404707F5801703463B43BF
:101C100026D002460B461BF0A5FD0B4602461CF0E3
:101C200083F804460B462046194607B0BDE8F08FFE
:101C3000A44B9F420E462EDCB7F1795F80F24A81B9
:101C400083A3D3E900231BF08FFD00229E4B1CF0E1
:101C5000D1F900B32B462046194607B0BDE8F08FF6
:101C60007DA3D3E900231BF035FF7DA3D3E9002337
:101C700006460F46204629461BF02CFF02460B461F
:101C8000304639461BF070FD04460B462046194687
:101C900007B0BDE8F08F204629461CF0DBFC024669
:101CA0000B46002088491BF05DFD0022874B1BF08E
:101CB00011FF6DA3D3E9002304460D461BF00AFF74
:101CC0006BA3D3E900231BF04FFD22462B461BF0EC
:101CD00001FF69A3D3E900231BF044FD22462B46F4
:101CE0001BF0F8FE66A3D3E900231BF03DFD22465E
:101CF0002B461BF0EFFE64A3D3E900231BF032FD5B
:101D000022462B461BF0E6FE61A3D3E900231BF01D
:101D10002BFD22462B461BF0DDFE5FA3D3E90023FB
:101D2000CDE90001204629461BF0D4FE5CA3D3E98F
:101D300000231BF017FD22462B461BF0CBFE5AA3B7
:101D4000D3E900231BF010FD22462B461BF0C2FEF8
:101D500057A3D3E900231BF005FD22462B461BF0B9
:101D6000B9FE594B00221BF0FFFC82468B462046F1
:101D70002946CDE902AB1DF08DFC554B9F428046B4
:101D8000894600F31C8102460B461BF0EDFCDDE9A1
:101D90000223CDE90401DDE900011BF0C5FF024685
:101DA0000B46DDE904011BF095FE4FF0000ACDE97A
:101DB000000152464B46504649461BF08BFE0246F8
:101DC0000B46204629461BF0CDFC524604460D46E4
:101DD0004B46404649461BF0C7FC02460B46204690
:101DE00029461BF0A1FF02460B461BF0BDFC024634
:101DF0000B461BA1D1E900011BF0B4FC02460B46C7
:101E0000DDE900011BF0AEFC524604460D464B4690
:101E1000504649461BF0A8FC02460B4626A1D1E9D4
:101E200000011BF09FFC02460B46204629461BF092
:101E300099FC0B46024620A1D1E900011BF092FC5F
:101E400004460B46002E3FF7EEAE03F10043EAE6F0
:101E50009C7500883CE4377E182D4454FB21F93FE3
:101E6000075C143326A6913C09F7FD0DE13D023FC6
:101E700088B20175E0EF493F3B8F68B52882A43FE7
:101E80005544880E55C1C93F7D6FEB0312D6D43F30
:101E9000555555555555C53F82922EB1C5B8B33FDE
:101EA00059018D1B6C06E63FC88A599CE52A004003
:101EB0004B2D8A1C273A0340182D4454FB21E93F3F
:101EC000FFFFEF3FFFFFDF3F0000F03F0000E03F7C
:101ED0003233EF3F02460B461BF0FCFD48A3D3E92B
:101EE000002306460F461BF0F5FD47A3D3E9002368
:101EF0001BF03AFC32463B461BF0ECFD44A3D3E911
:101F000000231BF02FFC32463B461BF0E3FD42A3AF
:101F1000D3E900231BF028FC32463B461BF0DAFDD8
:101F20003FA3D3E900231BF01DFC32463B461BF0C8
:101F3000D1FD3DA3D3E900231BF016FC32463B46FE
:101F40001BF0C8FD3AA3D3E90023804689463046FA
:101F500039461BF0BFFD38A3D3E900231BF002FC78
:101F600032463B461BF0B6FD35A3D3E900231BF0F8
:101F7000FBFB32463B461BF0ADFD33A3D3E9002308
:101F80001BF0F0FB32463B461BF0A4FD0022344B15
:101F90001BF0EAFB02460B46404649461BF0C4FED6
:101FA00022462B461BF096FD22462B461BF0DCFBFF
:101FB00004460B462046194607B0BDE8F08F52464E
:101FC0005B46DDE900011BF0AFFE42464B461BF0CD
:101FD00081FD42464B461BF0C7FB02460B461BF0F9
:101FE000C3FB1BA3D3E900231BF0BCFB0B4602463B
:101FF00019A1D1E900011BF0B5FB04460B4621E70E
:1020000009F7FD0DE13D023F88B20175E0EF493F60
:102010003B8F68B52882A43F5544880E55C1C93FFF
:102020007D6FEB0312D6D43F555555555555C53FD9
:1020300082922EB1C5B8B33F59018D1B6C06E63FA5
:10204000C88A599CE52A00404B2D8A1C273A034038
:10205000075C143326A6913C182D4454FB21F93F0C
:102060000000F03F000000002DE9F84F54421443F7
:1020700023F00048684E48EAD474B44284460F46C0
:102080001FD84442044321F0004A4AEAD474B442BF
:102090008B4616D803F1404404F5801414439E4641
:1020A0003DD09C1704F0020444EAD1745AEA0001BE
:1020B0000FD1022C50D0032C3CD145A1D1E9000115
:1020C00005E01046194662463B461BF04DFBBDE855
:1020D000F88F58EA020126D0B0452DD0B24522D063
:1020E000AAEB08084FEA2858B8F13C0F38DC002B5F
:1020F0003ADA18F13C0F37DA00200021012C49D0E0
:10210000022C3AD0002CE2D033A3D3E900231BF0F9
:1021100029FB33A3D3E900231BF024FBD7E7BDE859
:10212000F84FFEF7D5BCBBF1000F11DB2EA1D1E9B2
:102130000001CCE73946CAE7C2452FD0022C0BD0AC
:10214000032CBAD0012C4FF0000031D00021BEE7A3
:1021500027A1D1E90001BAE721A1D1E90001B6E741
:1021600021A1D1E90001C9E7604639461BF0DCFD39
:102170001CF070FAFEF7ACFCC0E717A3D3E900230C
:102180001BF0F0FA02460B4615A1D1E900011BF045
:10219000E9FA9CE701F10043194698E7022C12D0B6
:1021A000032C0CD0012C06D013A1D1E900018EE73D
:1021B0004FF000418BE712A1D1E9000187E712A19E
:1021C000D1E9000183E712A1D1E900017FE700BF57
:1021D000182D4454FB2109C0075C143326A6A13CEA
:1021E000182D4454FB210940182D4454FB21F93F7C
:1021F000182D4454FB21F9BF182D4454FB21E93F0D
:10220000182D4454FB21E9BFD221337F7CD902C071
:10221000D221337F7CD902400000F07F0000000013
:1022200043422DE9F047034321F00048404A48EA81
:10223000D37393420F462ED890454AD03D4B9845D4
:102240008A4636DD3C4B9845044645464CDD024601
:10225000434641461BF088FA224606460F4643464F
:10226000002033491BF07EFA02460B4630463946C1
:102270001BF05AFDFEF7C8FE304B00221BF02AFC73
:10228000BAF1000F04460B460FDA01F10043204675
:102290001946BDE8F08702460B461BF063FA0B4671
:1022A00002461BF041FD04460B4620461946BDE898
:1022B000F0871DA3D3E9002304461BF055FA002242
:1022C00000231BF097FE70B13B4620461946BDE83F
:1022D000F087002200231BF027FD04460B46204612
:1022E0001946BDE8F087454622462B46204629463A
:1022F0001BF03AFA22462B4606460F461BF0EAFB35
:102300002246804689462B46002009491BF02AFABE
:1023100002460B46404649461BF006FD32463B4608
:102320001BF022FAA6E700BF9C7500883CE4377ECC
:102330000000F03FFFFF2F3EFFFFDF3F0000E03FC8
:102340004D4A2DE9F84321F0004494420B460646DD
:102350001BDC4A4A944224DD494A944256DD494AEC
:10236000944248DD484A944271DD013294426BD078
:102370003FA3D3E90023104619461BF0ABFB0646EA
:102380000F4630463946BDE8F88304460D462246DE
:102390002B461BF09FFB06460F4630463946BDE8EC
:1023A000F8831CF057F902F06FFC0022374B80468F
:1023B00089461BF0D9F9B4F1725F06460F46ECDB93
:1023C00042464B46404649461BF084FB32463B465C
:1023D00004460D46304639461BF0C6F902460B4608
:1023E000204629461BF0A0FC0022284B1BF0BCF91C
:1023F00006460F46D1E71CF02DF900F04DF80022FB
:10240000234B1BF067FB06460F46C6E71CF022F97C
:1024100000F042F800221E4B06460F461BF05AFB06
:10242000324604460D463B46002019491BF07CFC11
:1024300002460B46204629461BF096F906460F46F3
:1024400030463946BDE8F883124A904290D830466B
:1024500019461CF0FFF800220D4B1BF03BFB00F06F
:102460001BF800220A4B04460D461BF033FB8EE797
:102470009C7500883CE4377EFFFFEF7F422ED63FFD
:10248000FFFF3540412E8640CD3386400000F03FAF
:102490000000E03F7DF8B98F2DE9F047B84F21F0FB
:1024A0000042BA4284B00C464FEAD176054612D9B2
:1024B000B44FBA4240F28E80C1F313030343024685
:1024C00040F0F780002E00F0818000252946284644
:1024D00004B0BDE8F087AC4B9A4200F2B880AB4B39
:1024E0009A4240F2D3804FF0000A2A4623462846FB
:1024F00021461BF0EFFA8CA3D3E9002306460F46D2
:102500001BF0E8FA8AA3D3E900231BF02BF932462B
:102510003B461BF0DFFA88A3D3E900231BF024F924
:1025200032463B461BF0D6FA85A3D3E900231BF0C5
:1025300019F932463B461BF0CDFA83A3D3E90023B9
:102540001BF012F932463B461BF0C4FA02460B461A
:10255000284621461BF006F902460B4606460F4662
:10256000284621461BF0B6FA80468946BAF1000F8C
:1025700000F0B38032463B4600204FF080411BF014
:10258000F1F802460B46404649461BF0CDFB024699
:102590000B46DDE902011BF0E5F8DDE900231BF045
:1025A000E1F80B4602467A4900201BF0DBF86FF495
:1025B0007F739A4580F2AD800AF57A7A01EB0A5171
:1025C00000224FF0B8731BF085FA0546284604B088
:1025D000BDE8F0875EA3D3E900231BF00BFD0028C4
:1025E0006FD1284621465CA3D3E900231BF0E4FC0D
:1025F00000287FF46AAF674B284603EBC6062146E6
:1026000057A3D3E900231BF065FAD6E900231BF09A
:10261000ABF81BF00FFD82461BF0F2F952A3D3E991
:10262000002306460F461BF055FA02460B46284685
:1026300021461BF097F84EA3D3E90023CDE9000112
:10264000304639461BF046FACDE9020115E0524BFF
:102650009A42D0D8514BF4002344D3E900231BF015
:1026600081F84F4B2344D3E90034CDE90001CDE993
:102670000234C6F1010AAAEB060ADDE90223DDE90C
:1026800000011BF06FF805460C462EE73AA3D3E98C
:1026900000231BF069F800223D4B1BF0ABFC002827
:1026A0003ED0284621460022394B1BF05DF80546F6
:1026B0008CE70B461BF058F80546284604B0BDE8E9
:1026C000F0872DA3D3E90023104619461BF002FA28
:1026D0000546284604B0BDE8F0873046394600225A
:1026E0004FF080431BF03EF802460B4640464946F9
:1026F0001BF01AFB2A4623461BF034F802460B4611
:10270000002023491BF02EF80546284604B0BDE8FA
:10271000F087054601EB0A51284604B0BDE8F08772
:102720008246E2E6AFF30080D0A4BE726937663E0F
:10273000F16BD2C541BDBB3E2CDE25AF6A56113FC1
:1027400093BDBE166CC1663F3E5555555555C53FA8
:10275000EF39FAFE422E864051302DD5104987C000
:10276000FE822B654715F73F0000E0FE422EE63F54
:10277000763C7935EF39EA3D9C7500883CE4377E3C
:10278000412E8640FFFFEF7F422ED63FFFFF2F3EB8
:102790000000F03F38180308B1A2F03F48180308C2
:1027A00058180308000000002DE9F04FB1F5801F14
:1027B00085B006460F460B4680F2D08021F00042DD
:1027C000024300F0DA800029C0F2E9800022D64BF3
:1027D0001BF080F9D54A0B46934206460F466FF030
:1027E000350E00F3C180C3F3130505F5152C0CF667
:1027F000647C0CF4801C8CF07F5282F440121C1517
:1028000042EA0507A4F2FF3474440022C84B304664
:10281000394604EB1C541AF0A5FFAB1CC3F3130399
:10282000022B82468B464FF0000240F3AF804FF000
:1028300080431AF099FF02460B46504659461BF05A
:1028400073FA064620460F461BF0DAF83246CDE909
:1028500002013B4630463946CDE900671BF03AF9A4
:1028600002460B46804689461BF034F99AA3D3E909
:10287000002306460F461BF02DF999A3D3E9002348
:102880001AF072FF32463B461BF024F996A3D3E9B7
:1028900000231AF069FF32463B461BF01BF994A354
:1028A000D3E900231AF060FF42464B461BF012F9B1
:1028B00091A3D3E9002380468946304639461BF070
:1028C00009F98FA3D3E900231AF04EFF32463B46A5
:1028D0001BF000F98CA3D3E900231AF045FF324620
:1028E0003B461BF0F7F80B460246494640461AF0B5
:1028F0003BFFA5F5C223C5F5D725A3F27A43513591
:102900001D43002D06460F4640F387800022894B69
:10291000504659461BF0DEF852465B461BF0DAF88B
:1029200002460B4680468946304639461AF01CFF5F
:10293000DDE900231BF0CEF806460F46002C40F0E0
:10294000818002460B46404649461AF00BFF02467C
:102950000B46504659461AF005FF0BE0734A934266
:102960004FF0000E7FF73FAF32463B4630463946C8
:102970001AF0FAFE05B0BDE8F08F00220023002017
:102980006D491BF0D1F905B0BDE8F08F00231BF0B5
:1029900009FB60B1002C7CD100200021EAE702464F
:1029A0001AF0E0FE002200231BF0BEF9E2E758A374
:1029B000D3E90023504659461BF08CF802460B46DB
:1029C00000205C491AF0CEFE524606460F465B4692
:1029D000504659461BF07EF802460B4630463946B3
:1029E0001BF078F806460F462CB320461BF008F87B
:1029F00049A3D3E90023804689461BF06BF848A31E
:102A0000D3E9002304460D46404649461BF062F8D0
:102A100002460B46304639462CE002460B465046ED
:102A200059461AF09FFEDDE900231BF053F80646D5
:102A30000F46002C47D132463B46504659461AF0C5
:102A400091FE97E734A3D3E90023DDE902011BF0EF
:102A500041F833A3D3E9002304460D46DDE9020122
:102A60001BF038F832463B461AF07EFE02460B4613
:102A7000404649461AF076FE52465B461AF072FE10
:102A800002460B46204629461AF06CFE05B0BDE80A
:102A9000F08F20461AF0B4FF1FA3D3E900230646A7
:102AA0000F461BF017F81EA3D3E9002304460D467A
:102AB000304639461BF00EF802460B4620462946A2
:102AC0001AF052FE56E7DDE9028913A3D3E9002389
:102AD0004046494691E700BF44523EDF12F1C23FF3
:102AE000DE03CB966446C73F599322942449D23FD4
:102AF000935555555555E53F9FC678D0099AC33F24
:102B0000AF788E1DC571CC3F04FA97999999D93F3A
:102B1000555555555555D53F0000E0FE422EE63F30
:102B2000763C7935EF39EA3D00005043FFFFEF7FF7
:102B30000000F03F0000E03F000050C30000000034
:102B4000B1F5801F2DE9F84304460D460B4619DA0E
:102B500021F00042024359D000295FDB00223A4BAA
:102B60001AF0B8FF394A0B4693420D4604466FF0FF
:102B700035010CDD22462B46204629461AF0F4FD8D
:102B8000BDE8F883314A93424FF00001F2DC18159A
:102B9000A0F2FF3008444FEAD0794844C3F3130849
:102BA0001AF02EFFC9F57F73033348EA0355064632
:102BB0000F4620462946FFF7F7FD1DA3D3E9002362
:102BC00080468946304639461AF084FF1AA3D3E975
:102BD000002304460D46404649461AF07BFF024654
:102BE0000B46204629461AF0BFFD15A3D3E9002362
:102BF00004460D46304639461AF06CFF02460B4635
:102C0000204629461AF0B0FDBDE8F88300220023D3
:102C100000200F491BF088F8BDE8F88302461AF03F
:102C2000A1FD002200231BF07FF8A9E7AFF300808D
:102C3000362BF111F3FE593D0EE526157BCBDB3F1C
:102C400000609F501344D33F00005043FFFFEF7FCD
:102C5000000050C3000000002DE9F04F23F00045B4
:102C600055EA020493B00DD0794E21F00044B442ED
:102C70000F4682460FDD04F1404404F5801454EA07
:102C80000A035BD1734C0023CDE90034DDE9000178
:102C900013B0BDE8F08F984694464ED0B542EADCBA
:102CA0006B4EB54266D0002F8B468146CDE902239C
:102CB00064DB0026BCF1000F0ED1654B9D4246D06F
:102CC000644B9D4200F09780B8F1804F00F0B280D5
:102CD000614B984500F0CC83484659461BF0BAFC3E
:102CE000CDE90001BAF1000F06D1002C60D0594B9C
:102CF00027F040429A425BD0FF0F013F56EA07039C
:102D000000F08280554B9D4240F3B08003F1047384
:102D10009D4240F34184524B9C4240F38280B8F183
:102D2000000F40F3828048A3D3E9002310461946E0
:102D30001AF0D0FECDE90001A8E728B1494813B048
:102D4000BDE8F04F1DF0D2BBA542F7DCA8E704F1C7
:102D5000404303F5801353EA0A0393D0404B9C424F
:102D600040F39083B8F1000F5FDBDDE90234CDE979
:102D700000348BE7BCF1000F95D07CE73A4B9D42C5
:102D800037DCA3F154739D4293DD2B15A3F2FF337F
:102D9000142B40F3E983C3F134032CFA03F202FA53
:102DA00003F3634585D102F00102C2F1020681E717
:102DB000B8F1000F07DADDE90023002025491AF0F9
:102DC000B3FFCDE90001002FBFF660AF04F140442E
:102DD00004F5801454EA060300F03C84012E7FF4CD
:102DE00055AFDDE90045224605F10043CDE900235A
:102DF0004CE702265EE7B8F1000FC0F24F83484669
:102E00005946CDE9000141E74A4648465B465946E6
:102E10001AF0A8FC02460B461AF086FFCDE9000125
:102E200034E7B8F1000FFFF67EAF00230024CDE9B0
:102E300000342BE74A4648465B4659461AF04AFE9C
:102E4000CDE9000122E700BF9C7500883CE4377E95
:102E50000000F07F0000F03F0000E03F0000E04194
:102E6000FFFFEF3F58210308FFFF3F43B4F5801FEA
:102E700080F28F83DDE900010022CF4B1AF02AFE99
:102E8000CDE900010C466FF0340C2315CB4DC4F393
:102E90001302A3F2FF3342F07F5403EB0C01AA426A
:102EA0000B9144F4401440F36F83C54B9A4240F3B6
:102EB000F38300220023CDE9082301310B91A4F50F
:102EC0008014CDE91023BF4B0022CDE90623002555
:102ED000DDE90001DDE90623214682461AF042FCC5
:102EE000A346DDE906238046894650462146CDE9C2
:102EF0000CAB1AF039FC02460B460020B1491AF01F
:102F000013FF0A460146CDE90E1213464946024612
:102F100040461AF0DFFD631043F0005382468B46B3
:102F200003F500238C46CDE904AB5919D3460023A1
:102F3000CDE900BC0093DDE900AB002004460D465E
:102F400002460B46504659461AF0C4FD02460B464F
:102F5000404649461AF006FCDDE9062380468946CC
:102F6000204629461AF0FEFB02460B46DDE90C011D
:102F70001AF0F8FB52465B461AF0ACFD02460B46CF
:102F8000404649461AF0EEFBDDE90E231AF0A2FD99
:102F9000DDE90445CDE9060122462B4620462946B7
:102FA0001AF098FD72A3D3E9002304460D461AF0E7
:102FB00091FD71A3D3E900231AF0D6FB22462B46DC
:102FC0001AF088FD6EA3D3E900231AF0CDFB224648
:102FD0002B461AF07FFD6CA3D3E900231AF0C4FB43
:102FE00022462B461AF076FD69A3D3E900231AF096
:102FF000BBFB22462B461AF06DFD67A3D3E90023E5
:103000001AF0B2FB2246804689462B4620462946C6
:103010001AF060FD02460B46404649461AF05AFD3A
:10302000524604460D465B46DDE904011AF09CFB5E
:10303000DDE906231AF04EFD22462B461AF094FBDA
:103040005246804689465B46504659461AF042FD34
:1030500000225D4BCDE90C011AF086FB42464B463F
:103060001AF082FB00980D46044622462B46504635
:1030700059461AF02FFD002282468B46524B2046BD
:1030800029461AF06FFBDDE90C231AF06BFB0246B0
:103090000B46404649461AF065FBDDE904231AF069
:1030A00019FD2246804689462B46DDE906011AF0C5
:1030B00011FD02460B46404649461AF055FB804634
:1030C000894602460B46504659461AF04DFB009879
:1030D00033A3D3E9002304460D461AF0FBFC524605
:1030E000CDE904015B46204629461AF03BFB024627
:1030F0000B46404649461AF035FB2BA3D3E9002383
:103100001AF0E8FC2AA3D3E900238046894620462A
:1031100029461AF0DFFC02460B46404649461AF0A3
:1031200023FBDDE910231AF01FFB80460B9889462C
:103130001AF066FC424682468B464B46DDE90401A6
:103140001AF012FBDDE908231AF00EFB52465B462B
:103150001AF00AFB009852465B4604460D461AF0E8
:1031600001FBDDE908231AF0FDFADDE904232DE077
:10317000EF4E454A287ECA3F65DBC9934A86CD3F5C
:1031800001411DA96074D13F4D268F515555D53F42
:10319000FFAB6FDBB66DDB3F033333333333E33FDA
:1031A000000000E009C7EE3FFD033ADC09C7EE3F2F
:1031B000F5015B14E02F3EBE000040438E980300F3
:1031C00079B60B000000F03F000008401AF0CAFA80
:1031D0000B460246494640461AF0C4FA013E56EAFA
:1031E000070382468B46DDE9020114BFD84BD94B59
:1031F0000022CDE9042302460B46CDE9002300233B
:103200000093DDE9006732463B461AF0ABFA2246EE
:103210002B461AF05FFCDDE90223804689465046C2
:1032200059461AF057FC02460B46404649461AF0EA
:103230009BFA3246804689463B4620462946CDE9E0
:1032400002891AF047FC0B46024606460F464046E6
:1032500049461AF089FAC04B994204460D468A46FF
:1032600040F3268101F13F4303F5E003034340F0BF
:10327000F781A3A3D3E90023DDE902011AF074FA70
:103280003246804689463B46204629461AF06AFA6D
:1032900002460B46404649461AF0ACFE002840F074
:1032A000DF81A8464FEA2853A3F2FE324FF4801381
:1032B00013415344C3F30A52A84DA2F2FF32154101
:1032C000C3F3130423EA05010020C2F1140B44F4F4
:1032D0008014BAF1000F02460B4644FA0BFB30464D
:1032E0003946B8BFCBF1000B1AF03CFA02460B4648
:1032F00006460F46DDE902011AF036FA4FEA0B5A8C
:103300000D46002480A3D3E90023204629461AF065
:10331000E1FB3246804689463B46204629461AF064
:1033200021FA02460B46DDE902011AF01BFA78A3E6
:10333000D3E900231AF0CEFB77A3D3E90023064696
:103340000F46204629461AF0C5FB02460B4630467A
:1033500039461AF009FA06460F4602460B46404621
:1033600049461AF001FA42464B4604460D461AF009
:10337000F9F902460B46304639461AF0F3F922466F
:10338000804689462B46204629461AF0A3FB64A3B3
:10339000D3E9002306460F461AF09CFB62A3D3E94B
:1033A00000231AF0DFF932463B461AF093FB60A384
:1033B000D3E900231AF0D8F932463B461AF08AFBCB
:1033C0005DA3D3E900231AF0CDF932463B461AF04B
:1033D00081FB5BA3D3E900231AF0C6F932463B46D2
:1033E0001AF078FB02460B46204629461AF0BAF935
:1033F00006460F4602460B46204629461AF06AFB4F
:103400000022CDE900014FF08043304639461AF0E2
:10341000A9F902460B46DDE900011AF085FC424697
:1034200006460F464B46204629461AF053FB4246B5
:103430004B461AF099F902460B46304639461AF0C7
:1034400091F922462B461AF08DF902460B460020D0
:103450003F491AF087F98A44BAF5801FC0F22D81DE
:103460005146DDE904231AF035FBCDE900010DE4F6
:10347000002FFFF631AC4846594613B0BDE8F04F77
:103480001CF008B9B8F1000FBFF6CFACDDE902348B
:10349000009304F100430193FFF7F8BB4A465B46F3
:1034A00000202B491AF040FCCDE90001FFF7EEBBEC
:1034B0002B4B21F00048984540F3E280294B0B4408
:1034C00003430AD132463B461AF04CF9DDE90223A8
:1034D0001AF086FD00283FF4E5AE1BA3D3E90023D4
:1034E000DDE904011AF0F6FA17A3D3E900231AF074
:1034F000F1FACDE90001FFF7C9BB00BFAFF30080CF
:10350000FE822B654715973C00000000432EE63FE6
:10351000EF39FAFE422EE63F396CA80C615C20BE02
:10352000D0A4BE726937663EF16BD2C541BDBB3EC9
:103530002CDE25AF6A56113F93BDBE166CC1663FA7
:103540003E5555555555C53F59F3F8C21F6EA50157
:103550000000F03F0000F0BFFFFF8F40FFFF0F00B3
:10356000FFCB904000346F3FBCF1000F40F09180E2
:10357000C3F1140345FA03F202FA03F3AB4200F07D
:10358000A0806646FFF79CBB00220023CDE90823FC
:1035900097E44FF0000C78E45B4B9C427FF741AC22
:1035A0005A4B9C423FF7BBABDDE900010022574B71
:1035B0001AF0D8F846A3D3E9002304460D461AF0C2
:1035C00089FA45A3D3E9002382468B462046294643
:1035D0001AF080FA0022CDE900014D4B2046294621
:1035E0001AF078FA02460B463DA1D1E900011AF023
:1035F000B9F822462B461AF06DFA02460B46002017
:1036000044491AF0AFF82246804689462B462046A8
:1036100029461AF05FFA02460B46404649461AF020
:1036200059FA31A3D3E900231AF054FA02460B46A3
:10363000DDE900011AF096F802460B4680468946FD
:10364000504659461AF090F8002004460D4652465E
:103650005B46BBE5DDE9002310461946FFF7D8BB02
:1036600023A3D3E90023DDE904011AF033FA20A3F0
:10367000D3E900231AF02EFACDE90001FFF706BBCB
:10368000244B98453FF70EAEDDE900239246934662
:1036900037E60026FFF720BB17A3D3E90023CDE9C7
:1036A000082317A3D3E90023CDE910231A4B0022E6
:1036B0004FF48025CDE906230AE45A4601F02CFD9B
:1036C000CFE602F00102C2F10206FFF7F9BA00BF2D
:1036D000000000604715F73F44DF5DF80BAE543E35
:1036E000555555555555D53FFE822B654715F73F26
:1036F0009C7500883CE4377E0000004003B8E23F40
:1037000006D0CF43EBFD4C3EFEFFEF3F0000F03F05
:103710000000D03F0000E03F0000F83F0000000044
:103720002DE9F04FC84E21F00047B7428FB00B464D
:1037300040F38F809246C54A97420C4626DC00290A
:10374000B7A3D3E9002340F38F801AF00BF8C04BE6
:103750009F4204460D4600F04681B3A3D3E90023FF
:103760001AF000F802460B46CAE900232046294613
:1037700019F0F8FFACA3D3E9002319F0F3FF0125FA
:10378000CAE9020128460FB0BDE8F08FB14A97425E
:1037900040F38980B04A974200F31C813D15A5F2A1
:1037A0001645A7EB055319461F4606461AF042FC7C
:1037B0001AF026F98046894602460B4630463946BD
:1037C000CDE9088919F0CEFF0022A44B1AF082F946
:1037D000894680461AF02EFC1AF012F902460B4672
:1037E00006460F4640464946CDE90A6719F0BAFF3A
:1037F00000229A4B1AF06EF900220023CDE90C0149
:103800001AF0D0FB002800F05D81002330463946D5
:1038100000221AF0C7FB002814BF01230223904A9C
:10382000019202212A46009108A8514600F080FB2F
:10383000002C054614DADAF80420DAF80C3002F12C
:10384000004203F100434542CAF80420CAF80C3094
:1038500006E0C2E9000100250024C2E90245002576
:1038600028460FB0BDE8F08F19F07EFF784B9F42DD
:1038700004460D4600F008816BA3D3E9002319F03C
:1038800073FF02460B46CAE900232946204619F079
:1038900069FF65A3D3E9002319F066FF4FF0FF35F8
:1038A000CAE90201DCE71AF0D5FE61A3D3E90023DF
:1038B000804689461AF00EF900226A4B19F054FF2F
:1038C0001AF0B8FB05461AF09BF855A3D3E900237C
:1038D000CDE904011AF0FEF802460B46404649467F
:1038E00019F040FF50A3D3E90023CDE90201DDE93F
:1038F00004011AF0EFF81F2D8046894602460B4658
:10390000DDE9020140F3B08019F02CFF83460E463A
:103910003F15C6F30A53FB1A102B40F3B08046A3A1
:10392000D3E90023DDE904011AF0D4F88046894682
:1039300002460B46DDE9020119F014FF02460B4670
:10394000DDE90201CDE9062319F00CFF42464B46A2
:1039500019F008FF3AA3D3E9002380468946DDE940
:1039600004011AF0B7F842464B4619F0FBFE0B462D
:10397000024680468946DDE9060119F0F3FEC1F3EF
:103980000A53FF1A312F83460E4600F39D800246EC
:103990000B46CAE90023DDE90623CDE902235A4696
:1039A0003346DDE9020119F0DDFE42464B4619F0CF
:1039B000D9FE002C02460B46CAE90223BFF650AFDF
:1039C00006F1004601F10041CAE900B6CAE9020168
:1039D0006D4245E7024619F0C5FE0025CAE902011D
:1039E000CAE900013CE714A3D3E9002319F0BAFEA9
:1039F00013A3D3E900230D46044619F0B3FE024693
:103A00000B46CAE900232946204619F0ABFE0CA359
:103A1000D3E9002319F0A6FE0125CAE902011FE738
:103A200000004054FB21F93F3163621A61B4D03D7C
:103A300083C8C96D305FE43F0000601A61B4D03DB7
:103A40007370032E8A19A33BFB21E93F7BD9024007
:103A5000FB21F93FFB213941FFFFEF7F000070415F
:103A6000A43403080000E03F19F07CFE3A4B6A1EC4
:103A7000834653F82230BB420E463FF449AF5A46C4
:103A80003346CAE900238AE72BA3D3E9002319F0C0
:103A90006BFE2BA3D3E900230D46044619F064FE08
:103AA00002460B46CAE900232946204619F05AFE71
:103AB00023A3D3E9002319F057FE4FF0FF35CAE9DD
:103AC0000201CDE60323AAE61FA3D3E90023DDE923
:103AD000040119F0FFFFDDE9068906460F4602469C
:103AE0000B464046494619F03DFE02460B4640460D
:103AF0004946CDE9022319F035FE32463B4619F01E
:103B000031FE13A3D3E9002306460F46DDE9040185
:103B100019F0E0FF32463B4619F024FE02460B4600
:103B200080468946DDE9020119F01CFE83460E46F7
:103B3000A5E700BFAFF300800000601A61B4D03D7C
:103B40007370032E8A19A33B0000002E8A19A33B31
:103B5000C14920259A837B392434030800000000E2
:103B6000574A2DE9F84F21F0004890450E46074688
:103B70002CDC544B0029B4BF534D544D98454FF0A5
:103B8000000411DC524B984526DC4BA3D3E90023FB
:103B900019F0EAFD00224F4B1AF02CFA002840D011
:103BA00038463146BDE8F88F4B4B984530DD4B4BDE
:103BB000984568DD0133984562D0384631463EA3CA
:103BC000D3E9002319F086FFBDE8F88F02460B46C3
:103BD00019F0CAFDBDE8F88F1AF03CFD01F054F869
:103BE0003F4B984506460F4623DD0022394B19F01E
:103BF000BBFD02460B46304639461AF095F8324670
:103C00003B4619F0B1FD22462B4619F063FFE1E770
:103C10001AF020FDFEF740FC22462B4619F05AFF11
:103C2000D8E7384631461AF015FD01F02DF8064662
:103C30000F4632463B463046394619F095FD32462E
:103C400082468B463B463046394619F043FF0022F8
:103C5000804689461F4B3046394619F085FD02469D
:103C60000B46404649461AF05FF802460B4650465E
:103C7000594619F077FD22462B4619F02BFFA9E78C
:103C8000184B984299D8384631461AF0E3FC002286
:103C90000E4B19F01FFFFEF7FFFB06460F460246CC
:103CA0000B462046294619F015FF32463B4619F0CF
:103CB00011FF8FE7AFF300803374AC3C1F7BAC7F08
:103CC000FFFFEF7FFFFF35400000E0BF0000E03F57
:103CD000FFFF2F3E0000F03F412E8640CD3386404F
:103CE000FFFFEF3F7DF8B98F2DE9F04F21F000463F
:103CF000B6F1795F85B00C4692469B4605466BDA75
:103D00001AF098F9002800F0E2802A462346284657
:103D1000214619F0DFFE74A3D3E9002380468946CB
:103D200019F0D8FE72A3D3E9002319F01DFD424615
:103D30004B4619F0CFFE70A3D3E9002319F012FD12
:103D400042464B4619F0C6FE6DA3D3E9002319F095
:103D50000BFD42464B4619F0BDFE6BA3D3E9002391
:103D600019F000FD42464B4619F0B4FE68A3D3E9B2
:103D7000002319F0F9FC42464B4619F0ABFECDE9A1
:103D800000010022644B4046494619F0A3FEDDE9DC
:103D9000002306460F464046494619F09BFE524610
:103DA000804689465B462846214619F093FE024626
:103DB0000B464046494619F0D5FC02460B463046B4
:103DC000394619F0CFFC02460B460020534919F042
:103DD000C9FC05B0BDE8F08F02460B4619F07AFE2B
:103DE00041A3D3E900238046894619F073FE40A31E
:103DF000D3E9002319F0B8FC42464B4619F06AFE9D
:103E00003DA3D3E9002319F0ADFC42464B4619F01F
:103E100061FE3BA3D3E9002319F0A6FC42464B46C2
:103E200019F058FE38A3D3E9002319F09BFC424651
:103E30004B4619F04FFE36A3D3E9002319F094FC4A
:103E40004B46424619F046FE354B9E42CDE90001F5
:103E500097DD344B9E424FF000023DDCA6F5001387
:103E600000202E4916461F4619F07CFCCDE90201C0
:103E70000022294B4046494619F02CFE32463B466B
:103E800019F070FCDDE9002306460F46404649461E
:103E900019F020FE5246804689465B462846214658
:103EA00019F018FE02460B464046494619F05AFCE6
:103EB00002460B463046394619F054FC02460B4682
:103EC000DDE9020119F04EFC05B0BDE8F08F1349A1
:103ED000002005B0BDE8F08F134B144FCDE902234D
:103EE0000026C5E7AFF30080D43888BEE9FAA8BD44
:103EF000C4B1B4BD9EEE213EAD529C804F7E923E39
:103F00009015CB19A001FA3E7751C1166CC1563FEE
:103F10004C5555555555A53F0000E03F0000F03F7A
:103F20003233D33F0000E93F0000E73F0000D23FBB
:103F30002DE9F04FADF5197DBE4CA29EBE4D54F853
:103F400026700793D41E85FB0465E417C4EBA50413
:103F500024EAE4741D46631CA3EB8303013D02EBDA
:103F6000C30305937B1909940497019506460B91A9
:103F7000A4EB05041BD423445D1C20AF4FF00008C4
:103F80004FF00009DDF88CA208E05AF8240019F07F
:103F900037FD0134AC42E7E8020108D0002CF4DA26
:103FA000013440464946AC42E7E80201F6D1049BA1
:103FB000002BC0F2B083079BA6F10802DB0011467C
:103FC000039220AA02EB0309029301EB0308049B6E
:103FD00072AA02EBC30B0DF5E07A019B002BC0F235
:103FE0009581039C4D460026002775E90223F4E9DC
:103FF000020119F06FFD02460B463046394619F0B2
:10400000B3FB444506460F46EFD1EAE80267DA45BE
:1040100009F10809E1D1DDE90204049920448B008B
:1040200082460BA8A3F10802C31808930CAB1344F3
:104030000A938B4698AB03EBCB03BBF1000F53E91C
:10404000284529DD70AB03EBCB080DF130090022C8
:104050007A4B2046294619F03DFD19F0EBFF19F087
:10406000CFFC0022764B06460F4619F033FD024680
:104070000B462046294619F075FB19F0DBFF78E95D
:10408000022349F8040B3946304619F06DFB70AB3A
:10409000984504460D46DAD1DDF8149020462946AD
:1040A0004A4601F039F800224FF07F5304460D468E
:1040B00019F010FDFCF724FF0022624B19F00AFDF5
:1040C00002460B462046294619F04CFB0D46044695
:1040D00019F0B0FF804619F093FC0B4602462946C2
:1040E000204619F03FFB4B46002B06460F4640F397
:1040F000E1800BF1FF320CA9C9F1180351F82250ED
:1041000045FA03F101FA03F30CA8EB1A40F8223048
:10411000C9F11705884443FA05F5002D2CDDBBF1E4
:10412000000F08F1010840F394820C9C002C40F031
:10413000A780BBF1010F0AD00CA9012251F8044F4E
:10414000531C002C40F09E809B451A46F6D1059BDF
:10415000002B0EDD012B00F09C81022B09D10BF10D
:10416000FF320CAB0CA953F82230C3F3150341F80E
:104170002230022D00F0AF80002200233046394665
:1041800019F010FF002800F06682049B0BF1FF3944
:104190004B4510DC0BF180430CAA013B089802EB65
:1041A0008303002253F80419834242EA0102F9D141
:1041B000002A40F0B580049B0CAA013B52F8233042
:1041C000002B40F0A1800A9A012352F80419013310
:1041D0000029FAD05B440BF101099945069349DCAB
:1041E000099A079909EB020801EB0B0508F18048D1
:1041F00002EB030BA39B08F1FF3803EB880870ABBD
:1042000003EBC909A39B20A903EB8B0301EBC505B5
:10421000029358F8040F19F0F3FB019B002BC5E93A
:10422000000105F1080B28DB083D039C0026002750
:104230000CE000BF44390308ABAAAA2A0000703E74
:10424000000070410000204075E80201F4E90223FB
:1042500019F040FC02460B463046394619F084FA04
:10426000544506460F46EFD1029B9845E9E80267A0
:104270005D46CED1DDF818B0DCE600260027F3E776
:10428000012300220CA9C4F180749B4541F822400F
:104290000EDD51F8232001EB8B0001EB83036FF05F
:1042A0007F4100E01A688A1A43F8042B8342F9D14F
:1042B00001244CE706D10BF1FF330CAA52F823502E
:1042C000ED152AE70022BE4B19F08AFE002840F0C7
:1042D000B981054650E732463B460020B94919F0FE
:1042E00041FA06460F46002C3FF446AF059AB54901
:1042F000002000F011FF02460B463046394619F007
:1043000031FA06460F4637E7012363E70026002708
:10431000EAE80267DA4509F108097FF45EAE7AE659
:104320000CAB059A53F82930183ACDE90685059269
:104330006BB909F18043013B0CA901EB830353F8EE
:10434000041909F1FF39183A0029F8D00592059AA5
:104350009C49002000F0E0FEB9F1000F04460D4634
:10436000C0F2E0814FEAC90370AA02EB0308089388
:104370000CAB03EB8906DFF850B208F108070436EE
:104380004FF0000A56F8040D19F03AFB22462B466E
:1043900019F0A0FB5B4667E9020152462046294618
:1043A00019F098FB0CAB9E4204460D46EAD148AB8F
:1043B00003930193CDF8149009F10103DDF81090F7
:1043C0000293C3464FF0000AB9F1000FC0F23781E3
:1043D000DFF8F8815D4678A3D3E9002300260027A3
:1043E000002403E0544510DCF8E80223F5E802015C
:1043F00019F070FB02460B463046394619F0B4F905
:104400000134A14506460F46ECDA019BE3E802675A
:104410000193029B0AF1010A9A45ABF1080BD3D133
:10442000A29BDDF81490032B2CD8DFE813F0E800F2
:10443000D300D3003F00079B00200146002B40F033
:1044400043810D460B460B990446C1E9004503998B
:104450000246D1E9000119F085F9B9F1000F0CDD30
:10446000039D0124F5E90223013419F07DF9A145EA
:10447000F8DA079B002B40F037810B460B99024678
:10448000C1E90223069B03F007000DF5197DBDE885
:10449000F08F0BF1FF320CAB0CA953F82230C3F3B1
:1044A000160341F8223064E648AB0393B9F1000FDC
:1044B00040F35581039ACDF808904FEAC90302EB07
:1044C0000308D8E900AB0193914658E902675246C8
:1044D0005B463046394619F047F904460D46024618
:1044E0000B463046394619F03DF952465B4619F005
:1044F0003BF9C8E9000168E90245C145A246AB465F
:10450000E3D1DDF80890B9F1010F40F32881019B58
:10451000039A1344D3E9006701939A460DF5947BFF
:104520005AE9028932463B464046494619F01CF991
:1045300004460D4602460B464046494619F012F91C
:1045400032463B4619F010F9CAE900016AE9024512
:10455000D34526462F46E3D10399019C002301F160
:104560001005083419461E46304674E9022319F036
:10457000FBF8A5420346F6D10A460399D1E9008C1F
:10458000D1E902E90799002900F0B1800B9C236171
:10459000069BC4F800800CF1004009F1004102F1D3
:1045A0000042606003F00700E1606261C4F808E067
:1045B0000DF5197DBDE8F08F00000040FB21F93FAB
:1045C0000000E03F0000F03F0000703E801803084C
:1045D00048AB0393B9F1000FFFF62DAF039F002006
:1045E00007EBC9060836014676E9022319F0BCF844
:1045F000B742F9D1079B002B3FF423AF64E0089C3E
:10460000039D083400222C4411461646304674E9B6
:10461000022319F0A9F8A5420246F6D10B460799E4
:1046200009B103F1004319460B9B1046C3E9000191
:10463000069B03F007000DF5197DBDE8F08F0026FD
:104640000027E2E6BBF1000F08F101087DDD02253D
:104650006BE500247BE5CDE90685059D30463946AE
:104660006A4200F059FD00223E4B06460F4619F003
:10467000B7FC00B300223C4B3046394619F02AFA09
:1046800019F0D8FC044619F0BBF90022354B19F09B
:1046900021FA0B4602463946304619F063F819F004
:1046A000C9FC0BF101090CAB183543F82B0005953B
:1046B00043F829404BE63046394619F0BBFC0CABB9
:1046C000D94643F82B0042E60B9C0B4601F1004112
:1046D000C4E9000103990246D1E9000119F042F84A
:1046E000B9F1000F3FF7BCAE01F10041C5E6184635
:1046F0000B9B4646744667464D461146C3E9040186
:10470000C3E90067C3E90245069B03F007000DF506
:10471000197DBDE8F08FA6F108030393079BDB002A
:10472000029378E4A29B032B3FF6ACAE01A252F8B1
:1047300023F000BF45470108D1450108D1450108D4
:10474000A94401080022134669E732463B4600208F
:10475000064919F007F8022506460F460CE5002326
:104760001A460AE7000070410000703E0000F03F6A
:104770002DE9F04F21F00046B6F1795F85B00C4687
:1047800090469946054604DA19F054FC002800F0DA
:1047900085802A4623462846214619F09BF906467D
:1047A0000F4602460B462846214619F093F93EA3D0
:1047B000D3E9002382468B463046394619F08AF900
:1047C0003BA3D3E9002318F0CDFF32463B4619F056
:1047D00081F939A3D3E9002318F0C6FF32463B46DE
:1047E00019F078F936A3D3E9002318F0BBFF32465D
:1047F0003B4619F06FF934A3D3E9002318F0B4FF56
:104800000E9BCDE900019BB30022334B4046494645
:1048100019F060F9DDE90023CDE90201504659465F
:1048200019F058F902460B46DDE9020118F09AFF2B
:1048300032463B4619F04EF942464B4618F092FF7D
:1048400023A3D3E9002306460F465046594619F0E4
:1048500041F902460B463046394618F085FF0246BC
:104860000B462846214618F07DFF05B0BDE8F08FC5
:1048700002460B463046394619F02CF914A3D3E909
:10488000002318F06FFF52465B4619F023F92A46C1
:10489000234618F069FF05B0BDE8F08F2846214691
:1048A00005B0BDE8F08F00BF7CD5CF5A3AD9E53DC1
:1048B000EB9C2B8AE6E55A3E7DFEB157E31DC73ED1
:1048C000D561C119A0012A3FA6F810111111813F2D
:1048D000495555555555C53F0000E03F00000000C3
:1048E0002DE9F04FDA4C21F00046A64287B08A4607
:1048F00089461746984683461BDC19F09BFB002827
:1049000039D1109B5A4601331343334300F0A88139
:10491000109B012B00F0B1815A4653460020CD492F
:1049200019F002FA04460D462046294607B0BDE8B4
:10493000F08FC94B9E421EDD002904DA01F10043CD
:1049400008F100489A465A465346A3A1D1E900010E
:1049500018F008FF3A46434604460D46A0A1D1E9A7
:10496000000118F0FFFE22462B4618F0FDFE00273E
:1049700083468A46B8465A4653465846514619F029
:10498000A9F803460C46CDE9003402460B4619F05F
:10499000A1F8DDE9002304460D465846514619F0BA
:1049A00099F891A3D3E90023CDE9020120462946D5
:1049B00019F090F88EA3D3E9002318F0D5FE224613
:1049C0002B4619F087F88CA3D3E9002318F0CCFE0E
:1049D00022462B4619F07EF889A3D3E9002318F06C
:1049E000C3FE22462B4619F075F887A3D3E90023AE
:1049F00018F0BAFE22462B4619F06CF884A3D3E9CE
:104A0000002318F0B1FEDDE9002319F063F882A35A
:104A1000D3E90023CDE904012046294619F05AF8CC
:104A20007FA3D3E9002318F09FFE22462B4619F0FE
:104A300051F87DA3D3E9002318F096FE22462B46B9
:104A400019F048F87AA3D3E9002318F08DFE224626
:104A50002B4619F03FF878A3D3E9002318F084FE21
:104A600022462B4619F036F875A3D3E9002318F037
:104A70007BFE02460B46DDE9040118F075FEDDE918
:104A8000022319F027F83A46434618F06DFEDDE997
:104A9000002319F01FF83A46434618F065FE6AA352
:104AA000D3E9002304460D46DDE9020119F012F8AE
:104AB00022462B4618F058FECDE900010B4602466F
:104AC0005146584618F050FE634B9E4204460D4630
:104AD0003EDC109B012B36D002460B4600205D4980
:104AE00019F022F900240F4606465A46534620463E
:104AF000294618F037FEA04602460B46DDE90001C4
:104B000018F030FE42463B4618F0E4FFA946044642
:104B10000D4642463B464046494618F0DBFF002220
:104B20004E4B18F021FE02460B462046294618F04F
:104B30001BFE32463B4618F0CDFF42463B4618F07E
:104B400013FE04460D462046294607B0BDE8F08F07
:104B5000109818F055FF224606460F462B46204671
:104B6000294618F0B7FF3246CDE902013B46204600
:104B7000294618F0F9FD02460B46DDE9020119F05D
:104B8000D3F8DDE9002318F0EDFD02460B46584648
:104B9000514618F0E7FD02460B4618F0E5FD0246C7
:104BA0000B463046394618F0DDFD04464FEAA97041
:104BB00000F00200C0F101000D4618F021FF02468E
:104BC0000B462046294618F085FF04460D46204630
:104BD000294607B0BDE8F08F182D4454FB21E93F6A
:104BE000075C143326A6813CD47ABF74702AFB3E3E
:104BF000E9A7F0320FB8123F68108D1AF726303F40
:104C00001583E0FEC8DB573F93846EE9E326823FBD
:104C1000FE41B31BBAA1AB3F735360DBCB75F3BE50
:104C2000A69237A0887E143F0165F2F2D844433F34
:104C3000280356C9226D6D3F37D60684F464963F2B
:104C40007AFE10111111C13F635555555555D53F89
:104C5000FFFF2F3E0000F0BF2794E53F0000F03F2C
:104C60005846514619F0F6FC02460B46002004490E
:104C700019F05AF804460D4665E75C46554662E76A
:104C80000000F03F000000002DE9F04FCA4A21F07B
:104C90000043934285B00C460E46054620D9C74ACC
:104CA000934200F2D480002E80F2A081AAA3D3E91F
:104CB00000232846214618F057FD0022002319F052
:104CC0007BF9002840F0CE80A5A3D3E90023284635
:104CD000214618F0FFFE02460B460020B84990E13D
:104CE000B84A934200F2E280B74A934240F22B81E5
:104CF000002301930022B54B2846214618F0EAFE16
:104D000006460F4602460B462846214618F0E2FEAC
:104D100095A3D3E9002382468B4618F0DBFE94A3CB
:104D2000D3E9002318F020FD52465B4618F0D2FE6E
:104D300091A3D3E9002318F015FD52465B4618F005
:104D4000C9FE8FA3D3E9002318F00EFD52465B463F
:104D500018F0C0FE8CA3D3E9002318F003FD5246DF
:104D60005B4618F0B7FE0022994B18F0FDFC804618
:104D7000894602460B463046394618F0ABFE0246DD
:104D80000B460020934918F0EDFC064602460B4600
:104D90000F464046494618F0E5FC324680468946B3
:104DA0003B462846214618F095FE02460B46002059
:104DB000894918F0D7FC02460B464046494618F090
:104DC000B3FF52465B4618F085FE019E02460B4635
:104DD000002E4AD0DDE9026732463B4618F0C2FC9D
:104DE0002A46234618F076FE32463B4618F0BAFCB7
:104DF0005B46524618F0B6FC019B013306460F464F
:104E000000F01F81019B012B78D0019A531C392B94
:104E10004FEA025600F22481019F132F40F3518183
:104E2000019BC3F57F7A0AF1030A00224FEA0A5375
:104E300018F09AFC02460B462846214618F092FCD0
:104E40000022634B18F090FC731819461BE0634A6C
:104E500093421BD9C1F313030343024640F011816F
:104E6000002910DA00205E490DE02846214618F09E
:104E700031FE52465B4618F075FC02460B4628464A
:104E8000214618F06FFC05B0BDE8F08F40A3D3E9D0
:104E9000002319F0AFF800283FF405AF3EA3D3E993
:104EA00000231046194618F015FEECE74D4A9342D0
:104EB00000F2EB8000293AA3D3E9002339DA18F095
:104EC00053FC39A7D7E900674FF0FF338046894686
:104ED000019332463B464046494618F043FC0246A1
:104EE0000B4605460C464046494618F03BFC324608
:104EF0003B4618F037FCCDE90201FBE62846214687
:104F00000022394B19F058F8002800F0CB802846D1
:104F1000214600222D4B18F027FC02460B46304656
:104F2000394618F01FFC00224FF0404318F0D2FD24
:104F3000A9E718F017FC01238046894601931CA7B6
:104F4000D7E90067C5E714A3D3E9002318F00CFCE8
:104F500002460B468FE700BF59F3F8C21F6EA5014A
:104F6000FE822B654715F73F2DC3096EB7FD8ABE3C
:104F70003952E686CACFD03EB7DBAA9E19CE143F7F
:104F80008555FE19A0015A3FF41011111111A13FCE
:104F9000EF39FAFE422E86409C7500883CE4377E4D
:104FA0000000E0FE422EE63F763C7935EF39EABD5F
:104FB000763C7935EF39EA3D79684340412E8640A9
:104FC0000000E0BF422ED63FFFFF8F3C0000E03FD5
:104FD0000000F03F0000084000001840FFFFEF7F96
:104FE0000000F0BFB1A2F03F0000D0BF40A3D3E962
:104FF00000232846214618F06DFD02460B4600208E
:10500000414918F0B1FB19F015F8019018F0F8FCBF
:1050100039A3D3E9002306460F4618F05BFD02468C
:105020000B462846214618F09DFB35A3D3E9002303
:10503000804689463046394618F04CFD06460F46F4
:1050400047E732463B462846214618F08BFB0022B4
:105050002D4B18F03FFD00222B4B18F083FB12E77D
:105060002A46234618F07EFB02460B4600202749BD
:1050700018F078FB731819460022244B18F072FBC5
:1050800001E70B4618F070FBFDE619A3D3E90023F6
:1050900018F020FD002C02460B464FF00000AFDA5E
:1050A0001B49AEE732463B462846214618F05AFBDC
:1050B00002460B4618F058FB0022144B18F054FB24
:1050C000E1E64FF4001C2A4623464CFA07FA18F092
:1050D00049FBCAF17F594FF0000809F54019024613
:1050E0000B464046494618F03DFBADE6AFF3008065
:1050F000FE822B654715F73F0000E0FE422EE63F9B
:10510000763C7935EF39EA3D0000E03F0000F03FA2
:105110000000E0BF00000000F8B5C1F30A530446E8
:105120000D460E4617460BBB21F00046034633439F
:105130001BD0354B002218F0CDFC344B9F42044667
:105140000D4635DBC1F30A530E46363B3B4440F275
:10515000FE72934232DC002B11DD26F0FF4626F46E
:10516000E00646EA035520462946F8BD40F2FF72A4
:105170009342EBD102460B4618F0F6FAF8BD13F154
:10518000350F28DA4CF250339F4222462B460ADD77
:1051900019A1D1E900011BF0DBFA17A3D3E9002321
:1051A00018F098FCF8BD16A1D1E900011BF0D0FA67
:1051B00013A3D3E9002318F08DFCF8BD22462B463B
:1051C0000DA1D1E900011BF0C3FA0BA3D3E9002321
:1051D00018F080FCF8BD26F0FF4626F4E0063633D2
:1051E00046EA0355204629460022094B18F072FC76
:1051F000F8BD00BFAFF300809C7500883CE4377EAB
:1052000059F3F8C21F6EA50100005043B03CFFFFE8
:105210000000903C10B5054C237833B9044B13B112
:105220000448AFF300800123237010BDC0030020A9
:1052300000000000C43E030808B5034B1BB103493E
:105240000348AFF3008008BD00000000C403002045
:10525000C43E030870B504460E4600F043FA88B118
:105260000368DB6A05469847082C0CD0A4F10903B3
:10527000012B14D93246214610230D20BDE8704081
:1052800004F074B870BD2B6828465B6A9847022802
:10529000F0DC2B6828461B6A04219847EAE72B6854
:1052A00028465B6A98470528E4DC2B6828461B6A79
:1052B00008219847DEE700BF38B52DED028B054683
:1052C00000F010FA044640B10368DB6A9847032DEA
:1052D00003D8DFE805F02F363D06BDEC028B002039
:1052E00038BD20460DF024FE07EE900A2046F8EE69
:1052F000E78A0DF02BFE07EE900A2046B8EEE78A0B
:105300000DF032FE68EE087A07EE100AE8EEA87A91
:10531000B8EEC77AE7EE077AF5EE407AF1EE10FACA
:10532000B1EEE78A1BD4FDEEC87ABDEC028B17EE16
:10533000900A38BDBDEC028B2046BDE838400DF028
:10534000F7BDBDEC028B2046BDE838400DF0FEBD38
:10535000BDEC028B2046BDE838400DF005BE17EECF
:10536000900A1AF02FF8DEE738B5044600F0BAF9D3
:1053700058B10368DB6A0546984744B1012C04D153
:105380002846BDE83840FBF7DBBA002038BD284688
:10539000BDE83840FBF7B4BA10B5044600F0A2F9F6
:1053A00028B1036821461B6ABDE81040184710BDAC
:1053B0000048704716FCFFFF704700BF10B5034B55
:1053C000036004460DF0B0FB204610BDA028030882
:1053D00010B5054B036004460DF0A6FB20461BF0FC
:1053E000E6FD204610BD00BFA02803082DE9F041CE
:1053F0004FF0FF3184B00546462001F0D3FC682809
:105400000CBF33210321512001F0CCFCDFF8D0C2C6
:10541000A84B044604F00F06C4F3031714F4807479
:1054200008BF6346A44831463A460CF06DFD221C85
:1054300018BF012231463B46284610F0C9F9002327
:10544000AB609E480CF060FD4FF0FF31032001F08F
:10545000A9FC04F0E9FE4FF0FF310446022001F000
:10546000A1FC04F0E1FE002C39D0002837D0014621
:10547000204604F07DFB0646002849D0382146200E
:1054800001F090FC322804464BD048DD382800F06B
:10549000AC8068285BD14FF0FF31012001F082FC25
:1054A00004F0C2FE80465C201BF08AFD05230193B8
:1054B0004246009431462B4607460FF001FAAF6092
:1054C0003B6838469B6A9847A8680368DB6A984738
:1054D0007B480CF019FD284604B0BDE8F0817948FE
:1054E0000CF012FD4FF0FF31192001F05BFC04F0CD
:1054F0009BFE4FF0FF310446182001F053FC04F0EE
:1055000093FE0146204604F033FB06460028B5D141
:105510006D480CF0F9FC284604B0BDE8F081302855
:1055200015D14FF0FF31012001F03CFC04F07CFE6E
:10553000804650201BF044FDA4B20746052301938A
:105540004246009431462B460EF064FFB7E7012433
:105550003268CDE900440023576AAB600F220DF199
:105560000F0332213046B847002800F081803368AD
:10557000CDE900440F225F6A30210DF10F03304660
:10558000B847002848D03368CDE900440D225F6A4F
:1055900038210DF10F033046B84700286ED032682D
:1055A000CDE900440DF10F03576A6821752230469A
:1055B000B847002842D1682144480CF0A5FC4FF0C0
:1055C000FF31204601F0EEFB04F02EFE80465C2009
:1055D0001BF0F6FC05246823CDE900344246314631
:1055E0002B4607460FF06CF969E74FF0FF310120B9
:1055F00001F0D8FB04F018FE804650201BF0E0FCC0
:1056000005230746019342462B46009431460FF08E
:1056100037F82F4B3B6052E730212C480CF074FCDC
:1056200030244FF0FF31012001F0BCFB04F0FCFD01
:10563000804650201BF0C4FC07467FE725480CF04D
:1056400063FCAF68002F7FF43BAF4FF0FF310320C6
:1056500001F0A8FB04F0E8FD30B11F480CF054FC49
:10566000284604B0BDE8F0811C480CF04DFC52E720
:10567000322116480CF048FC3224D2E73821134876
:105680000CF042FC4FF0FF31204601F08BFB04F0A0
:10569000CBFD804650201BF093FC052438230746A1
:1056A000CDE9003442462B4631460EF0E9FF084B67
:1056B0003B6004E7041903081419030834190308AC
:1056C000F419030844190308581903088419030836
:1056D000D01803087019030898190308D41903088F
:1056E0000C19030838B5104C23680BB1986838BD05
:1056F0004FF0FF31012001F055FB04F095FD40B162
:105700000C201BF05DFC0546FFF770FE2560A868C5
:1057100038BD4FF0FF31032001F044FB04F084FD5D
:105720000028EDD138BD00BFDC03002008B501F032
:105730006BFCFBF795FEBDE8084001F0C5B900BF62
:1057400008B501F061FCFBF7FBFEBDE8084001F085
:10575000BBB900BF08B501F057FC18F0F1FFBDE878
:10576000084001F0B1B900BF08B501F04DFC19F0D7
:1057700065FDBDE8084001F0A7B900BF08B501F01C
:1057800043FCFBF77DFEBDE8084001F09DB900BF7A
:1057900008B501F039FC19F001FABDE8084001F044
:1057A00093B900BF08B501F02FFCFBF7E9F8BDE89D
:1057B000084001F089B900BF08B501F025FC19F0D7
:1057C00043F9BDE8084001F07FB900BF70B5049E01
:1057D00096420C4624DB15466BB9042A19D0022ADE
:1057E00002D110F0010310D001462A46204608F0ED
:1057F0006BFB002070BD10440D4410F8013D01F812
:10580000013B8D42F9D1002070BD02880A80184604
:1058100070BD10F00303E7D102680A60184670BD3E
:105820000846002109F0E2FC4FF0FF3070BD00BFD8
:105830000830704740B1002905DB43688B4202DD28
:105840000844007A70470020704700BF30B100293B
:1058500004DB43688B42C4BF40180272704700BF2C
:1058600040B1002905DB4368994202DA0844007A16
:1058700070470020704700BF830704D1030F0CBF9F
:105880000120002070470120704700BF30B100297F
:1058900004DB43689942BCBF40180272704700BFE6
:1058A000F8B5002B20DB00291EDB46688E421BDB8F
:1058B0005468761AE51AB542A8BF3546002D13DBA9
:1058C000824202F108070C4600F108062A4605D07C
:1058D000F918301908F0F8FA0020F8BDF118381955
:1058E0001BF0A1FB0020F8BD4FF0FF30F8BD00BF5A
:1058F0004068704710B4141E10DB4268A2420DDBF2
:1059000033EA230328BF1346121B08309A4220446F
:10591000A8BF1A465DF8044B09F068BC5DF8044B5B
:10592000704700BF10B443688B4200F1080418466A
:10593000A8BF084632EA220128BF19461B1A99421D
:105940002044A8BF19465DF8044B00F0B5BE00BF67
:1059500070B5002BBCBF43689B1A002A0E4620DBA3
:1059600044689918A1421CDC91421ADBCBB136F095
:10597000004116D05942B14214DAB34212DD083068
:10598000002E00EB020515DB9C1B2246A9192846B8
:105990001BF049FB324628190021BDE8704009F090
:1059A00025BC70BD002211464FF0FF33BDE87040AA
:1059B000FFF7A0BF74429A19294628191BF033FB40
:1059C000224628460021BDE8704009F00FBC00BF08
:1059D00003460830596800F0EBBD00BF70B50546BE
:1059E00000206968490000F069FD6B68002B14DD38
:1059F0000A4EEB1D02465C782411991F345D9471A8
:105A00005C7804F00F04491B345DD4716C688C42DF
:105A100002F1020203F10103EDDC70BD041A030878
:105A2000002BBCBF43689B1A002A30DB70B445686A
:105A30009C18AC4229DC944227DB33B331F000449C
:105A400023D00029B8BF01EB032191FBF3F403FB42
:105A50001411002900F10800B8BFC918024411440C
:105A60008A42134411D00C4604E08A4204460FD007
:105A700094420AD02046157810F8016B02F8016BA9
:105A800083422570F1D10C46F2E770BC7047704735
:105A90000146EDE700B583B04FF0FF3300930023DC
:105AA000FFF7FEFE03B05DF804FB00BF10B50C1E4F
:105AB0000EDD4168083002F0CFF81F2C07DC01230F
:105AC000A34020FA04F4013B444004EA030010BD63
:105AD000002010BD0146002000F0EEBD38B50021C9
