:020000040002F8
:106000000000042019BF030041BF030043BF030089
:1060100045BF030047BF030049BF03000000000065
:106020000000000000000000000000004BBF030063
:106030004DBF0300000000004FBF030051BF03002D
:1060400053BF030053BF0300B9BD03007DBD030070
:1060500091BD030053BF0300C1B1030053BF030050
:106060000DBA030015BA03001DBA030053BF0300A5
:1060700053BF030053BF030053BF030053BF0300CC
:1060800053BF030053BF030053BF030053BF0300BC
:1060900053BF030053BF030053BF030053BF0300AC
:1060A00053BF030053BF030025BA03002DBA0300FA
:1060B00053BF030053BF03000000000000000000B6
:1060C00053BF030053BF030053BF0300A5BD03002C
:1060D00053BF030053BF030053BF030053BF03006C
:1060E000E1BD030053BF030053BF030000000000E5
:1060F0000000000053BF030000000000CDBD0300FE
:10610000000000000000000000000000000000008F
:10611000000000000000000000000000000000007F
:10612000000000000000000000000000000000006F
:10613000000000000000000000000000000000005F
:10614000000000000000000000000000000000004F
:10615000000000000000000000000000000000003F
:10616000000000000000000000000000000000002F
:10617000000000000000000000000000000000001F
:10618000000000000000000000000000000000000F
:1061900000000000000000000000000000000000FF
:1061A00000000000000000000000000000000000EF
:1061B00000000000000000000000000000000000DF
:1061C00000000000000000000000000000000000CF
:1061D00000000000000000000000000000000000BF
:1061E00000000000000000000000000000000000AF
:1061F000000000000000000000000000000000009F
:106200007CB0EE877CB0EE87FF00FF00FF00FF0050
:10621000FF00FF00FF00FF00FF00FF00FF00FF0086
:10622000FF00FF00FF00FF00FF00FF00FF00FF0076
:10623000FF00FF00FF00FF002DE9F04F85B0039144
:106240000778A7F10903042B044607F07F0200F149
:106250000100F5D9202AF3D02B2F04BF677804461C
:106260002D2F75D09FED427B8DED007B4FF0000808
:106270004FF000099FB34FF0000C25464FF0000A85
:10628000DFF8FCB0644619E018F010FB8046894640
:10629000304618F0A1FA42464B4618F051F95246E2
:1062A000804689465B46DDE900013CB318F028FCD6
:1062B000CDE90001A44615F8017F7FB1A7F13006B2
:1062C000092E52465B4640464946DDD9CCB92E2FB1
:1062D00017D115F8017F0124002FEFD12C4642463B
:1062E0004B46DDE9000118F0E1FA80468946039B40
:1062F000404649461C6005B0BDE8F08F4FF0010CE8
:10630000D9E72C46BCF1000F29D042464B46DDE9C7
:10631000000118F0CBFA07F0DF07452F80468946C9
:10632000E5D10399681C0A2218F0EEF814490246D8
:10633000002018F06BFE02460B464046494618F016
:10634000B5FA804689464046494605B0BDE8F08F1B
:106350009FED097B67788DED007B013486E7DFF8E0
:1063600024904FF000084046494605B0BDE8F08F44
:10637000000000000000F03F000000000000F0BF3F
:10638000000024400000F87F2DE9F0470023144668
:1063900000228046894618F0FBFC28B109F1004331
:1063A00099462D232370013400220023404649469C
:1063B00018F0E4FC28B13022002322706370BDE89D
:1063C000F0874046494616F0E3FD18F01FFD73A321
:1063D000D3E9002307464946404618F0D9FC002877
:1063E0004ED170A3D3E900234046494618F0EEFC95
:1063F000002845D10E2F07F1010540F3B980A7F120
:106400000E0632460020624918F000FE02460B4696
:106410004046494618F074FB00225E4B18F090F895
:1064200018F030FE002DA7F10F0E4FF0010C4DDDDE
:10643000594FDFF87881012245F6F3294FF02E0AF3
:10644000494508BF40454FF030030AD3B0EB080080
:1064500061EB0901494508BF404503F10103F5D24D
:10646000DBB2237050EA010304F101084AD19542DE
:1064700052DD0132102A4FD0444677E90289DFE726
:10648000002F33DB3A460020414918F0BFFD024699
:106490000B464046494618F033FB3BA3D3E90023A3
:1064A00080468946012500264046494618F0FEF9F7
:1064B0000022384B18F044F818F0E4FD002DBC46DB
:1064C0004FF0FF3E37464FF00006B1DC2346302246
:1064D0004FF02E0803F8022B84F80180FC4345D0CE
:1064E0001C4403F8012BA342FBD1A1E77A42002010
:1064F000274918F08BFD02460B464046494618F0E6
:10650000D5F9CAE7954202F1010204BF84F801A05F
:1065100004F10208102AAFD16EB14246302102F8D0
:10652000011BC2F1010373444344002BF7DC2EEA44
:10653000EE7301339844BCF1010F12D0BCF1000F8F
:106540004FF0650388F80030C5BF2B2388F8013071
:1065500008F1010108F102016046BDE8F04710F0C2
:10656000AFBA002388F80030BDE8F0871C465FE72B
:10657000C7F10E020020064918F048FD3E460246CB
:106580000B46012790E700BF0000901EC4BCD64216
:10659000000024400000E03FA8FB03008DEDB5A003
:1065A000F7C6B03E50EFE2D6E41A4B4400407A10F2
:1065B00070B54FF0FF3006F017FA04466FF07F40D9
:1065C00006F012FA0646204618F0F6F800220C4BA8
:1065D00018F06CF9044630460D4618F0EDF806A3A5
:1065E000D3E9002318F08CFA02460B4620462946D0
:1065F00017F0A6FF70BD00BF0000E0DFFFFF6F4394
:106600000000F03D000000002DE9F04F1D46138909
:10661000AB4288BF536885B004468CBF53F8250051
:10662000002090468A4606F053FE0022904B18F058
:106630003DF918F0EBFBB8F808206B1C9A4288BFB4
:10664000D8F8042006468CBF52F82300002006F03C
:106650003FFE0022864B18F029F918F0D7FBB8F856
:1066600008300235AB4288BFD8F8043007468CBFEB
:1066700053F82500002006F02BFE002EC4E9006729
:1066800040F3E280002F40F3DF8071A3D3E90023C1
:10669000002584F8285016F09DFB00220023804638
:1066A000894618F075FB40B14046494668A3D3E9D6
:1066B000002317F045FF8046894667A3D3E90023EE
:1066C0004046494618F082FBC0B165A3D3E90023D8
:1066D0004046494618F066FB80B1012340464946D2
:1066E00084F8283060A3D3E9002317F029FF58A3CA
:1066F000D3E9002316F06EFB8046894600225D4BED
:106700004046494618F0D2F816F098F801F10043D7
:1067100000221946564B18F0C9F818F077FB494685
:106720000546404616F046F80022514B18F0BEF8D8
:1067300018F06CFBDAF804304F49B3F80CB0B3F83A
:106740000AA0A56007FB0BF303EB010806FB0AF6A2
:10675000019388FB05234FEA124C00960E444CEA45
:10676000034C06EA010383FB009A06EB0C0E0EEACB
:10677000010ED346CA468EFB00675246CDE902673A
:10678000120C42EA0B42DDE902AB0CEA010C8CFB75
:1067900000674FEA164956460A40360C46EA0B4651
:1067A00049EA074982FB05AB5F46C144B0445646FF
:1067B000CDE90267039FE060360C09EA010908EAA7
:1067C000010846EA074689FB05AB334488FB0556BA
:1067D000CDE9025655462D0C45EA0B45DDE902ABE5
:1067E0000B40AC4403EAE3770CEA010C554623EA7C
:1067F000E37367454FEA154502EAE276A8BF6746AC
:1068000045EA0B45634522EAE272B8BF6346AE44EF
:106810004E450EEA010EA8BF4E464A45B8BF4A464D
:106820007745A8BF77467345B8BF73464645A8BFAE
:106830004646C4E905634245B8BF424600980199FF
:10684000206261622761E261204605B0BDE8F08FF9
:10685000EA2E4454FB211940F4D64354FB21F93F5E
:10686000320D337F7CD91240EA2E4454FB2109407B
:106870000000F0400000E03F0000FFFF00000000CB
:1068800008B511F0E5FBDFED0C7A07EE100A67EEB4
:10689000277A17EE900A17F0B1FF05A3D3E900237A
:1068A00018F02EF918F0B2FA08BD00BFAFF300805F
:1068B000EA2E4454FB2119400000B44300000000BC
:1068C00008B511F0D9FBDFED0C7A07EE100A67EE80
:1068D000277A17EE900A17F091FF05A3D3E900235A
:1068E00018F00EF918F092FA08BD00BFAFF300805F
:1068F000EA2E4454FB2119400000B443000000007C
:10690000494A21F0004393422DE9704304460D4665
:1069100049DC464A93420E460EDC3FA3D3E90023EE
:1069200017F00EFE0022424B18F050FA00284AD011
:1069300020462946BDE870833E4A934239DCB3F1D4
:10694000804F40DD15F032FF2246804689462B46B7
:106950002046294617F0AAFF0022354B17F0F0FD1C
:1069600016F0C0FD42464B4617F0EAFD02460B46C4
:1069700000202F4918F0C4F8424604460D464B4605
:106980004046494617F0DCFD02460B4620462946A4
:1069900017F0D6FD02F040F8002E08DC01F10043AC
:1069A0001946BDE8708302460B4617F0C9FDBDE8E5
:1069B000708315F0FBFE02F02FF819A3D3E9002332
:1069C00017F0BEFDE8E722462B462046294617F081
:1069D0006DFF804689462046294615F0E7FE0022D5
:1069E00004460D46124B4046494617F0A9FD16F0E5
:1069F00079FD00220E4B17F0A3FD02460B464046E0
:106A0000494618F07DF822462B4617F099FD00F014
:106A1000A7FAC1E7AFF300809C7500883CE4377E9D
:106A2000EF39FAFE422EE63FFFFFEF7FFFFF2F3EDA
:106A30000000F03F0000B0412DE9F84FBE4B21F0BF
:106A400000469E4204460D468A460EDDBB4B9E42E2
:106A500000F3B18000F0AC80BAF1000F40F3EA809F
:106A600099A1D1E90001BDE8F88FB54B9E4200F332
:106A7000BA80A3F1DE739E4240F3A5804FF0FF3B46
:106A800022462B462046294617F010FF02460B46A9
:106A90008046894617F00AFF8DA3D3E900230646F6
:106AA0000F4617F003FF8CA3D3E9002317F048FD2E
:106AB00032463B4617F0FAFE89A3D3E9002317F0CC
:106AC0003FFD32463B4617F0F1FE87A3D3E9002392
:106AD00017F036FD32463B4617F0E8FE84A3D3E9B3
:106AE000002317F02DFD32463B4617F0DFFE82A350
:106AF000D3E9002317F024FD42464B4617F0D6FE9B
:106B00007FA3D3E90023804689463046394617F0F3
:106B1000CDFE7DA3D3E9002317F010FD32463B469E
:106B200017F0C4FE7AA3D3E9002317F007FD32461D
:106B30003B4617F0BBFE78A3D3E9002317F0FEFC19
:106B400032463B4617F0B2FE75A3D3E9002317F097
:106B5000F5FC32463B4617F0A9FE02460B4640467E
:106B6000494617F0EDFC22462B4617F09FFEBBF17D
:106B7000FF3F02460B4661D0724B734E4FEACB0B80
:106B80005B44D3E9002317F0D9FC22462B4617F0CB
:106B9000D5FCB34402460B46DBE9000117F0CEFCFE
:106BA000BAF1000F0DDA01F100431946BDE8F88F84
:106BB00000283FF451AF22462B462046294617F0C5
:106BC000BFFCBDE8F88F58A3D3E9002317F0B8FC49
:106BD00000225E4B18F0FAF800283FF44FAF204631
:106BE0002946BDE8F88F15F0E1FD594B9E42044659
:106BF0000D4629DCA3F550239E424EDC02460B468F
:106C000017F09EFC0022514B17F098FC002206461C
:106C10000F464FF080432046294617F091FC02466C
:106C20000B463046394617F06BFF4FF0000B044619
:106C30000D4625E73EA1D1E90001C2E720462946DD
:106C400017F07CFCBDE8F88F424B9E421ADC002214
:106C5000414B17F073FC002206460F463E4B204680
:106C6000294617F023FE0022384B17F069FC024634
:106C70000B463046394617F043FF4FF0020B0446EF
:106C80000D46FDE602460B460020344917F038FF5A
:106C90004FF0030B04460D46F2E600222B4B17F093
:106CA0004DFC002206460F46284B2046294617F089
:106CB00047FC02460B463046394617F021FF4FF09D
:106CC000010B04460D46DBE6182D4454FB21F93F29
:106CD00011DA22E33AAD903FEB0D76244B7BA93FCE
:106CE000513DD0A0660DB13F6E204CC5CD45B73F9C
:106CF000FF8300922449C23F0D5555555555D53F48
:106D00002F6C6A2C44B4A2BF9AFDDE522DDEAD3F3B
:106D10006D9A74AFF2B0B33F711623FEC671BC3FDB
:106D2000C4EB98999999C93F9C7500883CE4377EDB
:106D3000182D4454FB21F9BFFFFF0F440000F07FE2
:106D4000FFFFDB3FD0FB0300B0FB03000000F03F80
:106D5000FFFFF23FFF7F03400000F83F0000F0BF5D
:106D60002DE9F041C1F30A57A7F2FF35132D024672
:106D70000B460C468846064620DC002D4ADB364F83
:106D80002F4101EA070C5CEA000C1CD030A3D3E9C8
:106D9000002317F0D5FB0022002318F017F848B1A4
:106DA000002C04DD4FF4801343FA05F5A84428EACB
:106DB0000704002621463046BDE8F081332D06DD6C
:106DC000B5F5806F38D010461946BDE8F081A7F2BE
:106DD00013474FF0FF3C2CFA07F70742F3D01CA3F0
:106DE000D3E9002317F0ACFB0022002317F0EEFFDD
:106DF0000028DFD0002C09DD142D22D00123C5F19D
:106E0000340503FA05F5AE1928BF984426EA0706AB
:106E10004446CFE70EA3D3E9002317F091FB0022ED
:106E2000002317F0D3FF0028C4D0002C0CDB26432E
:106E300005D00026094CBDE717F082FBC5E73446B4
:106E4000B8E704F10108E1E700264FF00044B1E79C
:106E50009C7500883CE4377EFFFF0F000000F03F88
:106E60002DE9F041C1F30A57A7F2FF35132D024671
:106E70000B460C46884606461DDC002D3CDB364F93
:106E80002F4101EA070C5CEA000C19D030A3D3E9CA
:106E9000002317F055FB0022002317F097FFC8B31B
:106EA000002C04DA4FF4801343FA05F5A84428EACD
:106EB000070400262EE0332D06DDB5F5806F2DD0BA
:106EC00010461946BDE8F081A7F213474FF0FF3C8A
:106ED0002CFA07F70742F3D01DA3D3E9002317F0DC
:106EE0002FFB0022002317F071FF98B1002C21DB4B
:106EF00026EA070644460DE015A3D3E9002317F060
:106F00001FFB0022002317F061FF18B1002C08DBE3
:106F10000026344621463046BDE8F08117F010FBCC
:106F2000D0E724F000430D4A1E43002E18BF14463C
:106F30000026EFE7142D08D00123C5F1340503FA2C
:106F400005F5AE1928BF9844D2E704F10108CFE750
:106F50009C7500883CE4377EFFFF0F000000F0BF07
:106F60002DE9F04FD84B994287B08046894643DDE2
:106F7000D64B99420E4600F3F480D54B994240F32C
:106F80002D819FEDBB7B8DED047B4FEA215A04469A
:106F9000AAF2FF3ACF4BC6F313069E4246F07F5546
:106FA00000F3128145F44015204629460022CA4BC1
:106FB00017F0C4FA002204460D46C84B17F076FCC1
:106FC00022462B4617F072FCA046CDE90201A946E5
:106FD000CDE90001002E3AD10022002320462946A7
:106FE00017F0CCFE002800F01B81BAF1000F40F032
:106FF000858100200021B8E0B94B21F000449C427B
:107000000A460FDD0022B74B17F0B8FE002800F04B
:10701000AF80002200230020B34917F071FD07B0B4
:10702000BDE8F08FB14B9C4240F3AF80B04B1A44A7
:107030009A4240F2D3800022A84B17F037FC424618
:107040004B4617F033FCCDE900014FF0000A002257
:107050004FF080434046494617F072FA02460B460D
:107060004046494617F04CFD02460B4606460F4681
:1070700017F01CFC80A3D3E9002304460D4617F04B
:1070800015FC7FA3D3E9002317F05AFA22462B46BA
:1070900017F00CFC7CA3D3E9002317F051FA224629
:1070A0002B4617F003FC7AA3D3E9002317F048FA24
:1070B00022462B4617F0FAFB77A3D3E9002317F0FB
:1070C0003FFA22462B4617F0F1FB75A3D3E90023C4
:1070D00017F036FA22462B4617F0E8FB72A3D3E9E5
:1070E000002317F02DFA22462B4617F0DFFBDDE9CF
:1070F000002317F025FA32463B4617F0D7FB04462B
:107100000D46BAF1000F00F0A880504617F064FB5E
:1071100067A3D3E9002382468B4617F0C7FB66A31B
:10712000D3E9002306460F465046594617F0BEFBEA
:10713000DDE9042317F004FA22462B4617F000FA83
:1071400002460B46DDE9000117F0F8F942464B46CE
:1071500017F0F4F902460B463046394617F0EEF9BF
:1071600003E002460B4617F0EBF907B0BDE8F08FDD
:1071700042464B464046494617F0E0F902460B4668
:1071800017F0BEFC07B0BDE8F08F0022594B17F096
:10719000D7F90022002317F019FE10B1564B9C427C
:1071A00062DD42464B464046494617F07FFB0022CF
:1071B0004A4B17F07BFB02460B464046494617F008
:1071C000BDF907B0BDE8F08F45F40015C6F580168F
:1071D00020462946B6100AF1010AE7E600223E4B96
:1071E0004046494617F0ACF94FEA215AAAF2FF3A55
:1071F000BAF1000F04460D460E4640F3BD804246EC
:107200004B4617F09BF902460B460020324917F017
:1072100095F922462B4617F073FCCDE90401B9E637
:1072200027A3D3E900232046294617F03FFB024657
:107230000B460020284917F081F9DDE9022317F0F9
:1072400035FB06460F46BAF1000F75D102460B46D4
:107250002046294617F072F987E702460B46DDE91A
:10726000000117F06BF9A6E7404649467DE700BFED
:10727000000000000000000044523EDF12F1C23F57
:107280009FC678D0099AC33FDE03CB966446C73FBA
:10729000AF788E1DC571CC3F599322942449D23FBB
:1072A00004FA97999999D93F935555555555E53F06
:1072B0000000E0FE422EE63F763C7935EF39EA3DAC
:1072C000555555555555E53F7982DA3FFFFFEF7F1C
:1072D000FFFF3F439DA006000000F03F0000E03F9D
:1072E000FFFFEF3F0000F0BF000050C3FFFF1F3E55
:1072F0003C412D4000005043FFFF8F3C504617F0AB
:107300006BFA24A3D3E9002306460F4617F0CEFA02
:10731000DDE9042317F014F920A3D3E90023044680
:107320000D463046394617F0C1FA02460B46204654
:10733000294617F005F918E7504617F04DFA17A33C
:10734000D3E9002382468B4617F0B0FA11A3D3E9A4
:107350000023804689465046594617F0A7FADDE9D2
:10736000042317F0EDF802460B463046394617F075
:10737000E5F822462B4674E70022054B17F0DEF8AD
:1073800002460B464046494617F0D8F841E700BF91
:107390000000F03F763C7935EF39EA3D0000E0FE31
:1073A000422EE63F0000000008B515F073FD04A36F
:1073B000D3E9002317F0A4FB08BD00BFAFF30080A2
:1073C000EF39FAFE422EE63F2DE9F043DFF8B480B4
:1073D0008BB004460D4601F0F7F898F90030013300
:1073E00006460F462CD022462B462046294617F04B
:1073F000F7FC814620BB2046294615F0D7F91FA38C
:10740000D3E9002317F0E2FCD0B1194A98F9003013
:10741000CDF820900321CDE90445CDE90245CDE921
:10742000001293B113490020022BCDE9060111D1BE
:1074300017F012F822230360089B9BB9DDE9066769
:10744000304639460BB0BDE8F0830B4B4FF060423D
:10745000CDE90623684616F07BFE0028E8D0089B9D
:10746000002BEBD016F0F8FF089B0360E6E700BFA7
:10747000B80D04000000F07FFFFFEF477DF8B98FE3
:10748000CE338640FF8100202DE9F043DFF8E48011
:107490008BB004460D4601F047F998F900300133EE
:1074A00006460F4633D02046294616F04BFE70B3F1
:1074B0002CA3D3E900232046294617F087FC8146F8
:1074C00050BB2AA3D3E900232046294617F060FCCD
:1074D000E8B198F90030204ACDF820900020002132
:1074E0000426022BCDE90445CDE902450096CDE9FD
:1074F0000601019229D0684616F02AFE28B3089B9F
:107500001BB116F0A9FF089B0360DDE90667304652
:1075100039460BB0BDE8F0830F4A98F9003001926C
:1075200003210022CDE90445CDE9024500910892EE
:107530002BB90A4B4FF06042CDE90623DBE708493F
:107540000020022BCDE90601D5D116F085FF2223BC
:107550000360D4E7AFF30080C00D0400FFFFEF47E6
:107560000000F07FEF39FAFE422E864051302DD5D3
:10757000104987C0FF8100202DE9F04FDFF82C93E0
:107580008DB006460F4614461D4601F09DFC99F944
:107590000080B8F1FF3FCDE9000136D022462B46EE
:1075A0002046294617F01CFC834670BB32463B46FA
:1075B0003046394617F014FC8246002840F0A2807D
:1075C000304639460022002317F0D8FB10B30022C2
:1075D00000232046294617F0D1FB8346002867D0B8
:1075E0009FEDA77B0122AC4BCDF828A00292CDE9FC
:1075F0000467CDE906458DED087B0393B8F1000FD4
:1076000041D09FEDA17B8DED007BDDE900010DB048
:10761000BDE8F08FDDE9000116F094FD80460028FA
:1076200000F08D804FF0000A4FF0000BDDE9000103
:1076300052465B4617F0A2FB0028E6D0304639469A
:1076400016F080FD0028E0D02046294616F07AFD8D
:107650000028DAD099F900308F4A039204210022E1
:10766000022BCDE90467CDE90645CDE908AB0291CF
:107670000A9203D002A816F06BFD50B916F0ECFE8A
:107680002223036005E002A816F062FD002800F046
:107690009B800A9B1BB116F0DFFE0A9B03609DEDE9
:1076A000087B8DED007BDDE900010DB0BDE8F08FBA
:1076B0002046294616F046FD0028A6D000220023C9
:1076C0002046294617F064FB00289ED0724A99F99B
:1076D0000030CDF828B00121CDE90467CDE9064599
:1076E000CDE90212002B74D06C490020022BCDE9A9
:1076F000080172D116F0B0FE212303600A9B002B13
:10770000CDD0C8E7002200232046294617F036FBDB
:1077100000283FF47AAF624B5F49CDF828B00022D1
:107720000120B8F1020FCDE904670290CDE90645CA
:10773000CDE908230391A6D1CDE9002365E73046C2
:10774000394616F0FFFC00283FF46CAF204629466E
:1077500016F0F8FC00283FF465AFDDE90023104681
:10776000194617F03DFB99F900A000286BD10323BF
:10777000DFF824C10A902946204602930022494B93
:10778000CDF80CC0CDE90645CDE9046717F08EF8B9
:1077900004460D46BAF1000F25D1DFF814B14FF0C1
:1077A000604A0022002330463946CDE908AB17F085
:1077B000EFFA38BB02A816F0CBFC00289ED116F0D9
:1077C0004BFE2223036099E716F046FE2123036057
:1077D0005FE79FED2B7B8DED087B02A816F0B8FCD0
:1077E00000288BD186E79FED2A7B002200233046BC
:1077F00039468DED087B17F0CBFAA0B9BAF1020F2C
:10780000DDD0D7E72046294616F0AAFC22462B46B3
:1078100017F0B4FAA0B9244B99F900A04FF06042D8
:10782000CDE90823EAE72046294616F099FC2246CE
:107830002B4617F0A3FA18B9184B0022CDE90823FC
:1078400099F900A0DAE70122134BCDF828800292C3
:10785000CDE90467CDE906450393BAF1000FB8D02E
:10786000002200231046194617F04AF9BAF1020F18
:10787000CDE908013FF43EAFAFE700BFAFF30080B2
:107880000000000000000000000000000000F03FC9
:10789000000000000000F07FD80D04000000F0FFA1
:1078A0000000F03F0000E03FFFFFEFC7FF81002036
:1078B000FFFFEF47000000002DE9F84FC44E21F014
:1078C0000043B34204460D460DDD03F1404303F58A
:1078D0008013034340F0B980002940F34081002029
:1078E0000021BDE8F88FBB4EB34208DCBA4A934290
:1078F00000F3B5809CA1D1E90001BDE8F88F002913
:10790000C0F2708102460B460020B44916F016FE04
:107910000022B34B16F0CAFF04460D4615F0E2FDF7
:1079200093A3D3E90023894680462946204616F0D2
:10793000BDFF91A3D3E9002316F002FE22462B4699
:1079400016F0B4FF8EA3D3E9002316F0F7FD22460C
:107950002B4616F0ABFF8CA3D3E9002316F0F0FD05
:1079600022462B4616F0A2FF89A3D3E9002316F086
:10797000E5FD22462B4616F099FF87A3D3E90023A5
:1079800016F0DEFD22462B4616F090FF84A3D3E9C5
:10799000002382468B462046294616F087FF82A3A5
:1079A000D3E9002316F0CAFD22462B4616F07EFFCF
:1079B0007FA3D3E9002316F0C3FD22462B4616F021
:1079C00075FF7DA3D3E9002316F0B8FD22462B46B0
:1079D00016F06CFF0022814B16F0B2FD02460B46FA
:1079E0005046594617F08CF842464B4616F05EFF5B
:1079F000002682468B4632464B463046494616F0B4
:107A000055FF02460B462046294616F097FD3246A2
:107A100004460D464B464046494616F091FD024647
:107A20000B462046294617F06BF802460B46504697
:107A3000594616F085FD32464B4616F081FD02464A
:107A40000B4616F07DFDBDE8F88F02460B4616F09A
:107A500075FD02460B4617F053F8BDE8F88F024655
:107A60000B4616F023FF42A3D3E9002306460F4638
:107A700016F01CFF40A3D3E9002316F061FD324647
:107A80003B4616F013FF3EA3D3E9002316F056FD44
:107A900032463B4616F00AFF3BA3D3E9002316F01B
:107AA0004FFD32463B4616F001FF39A3D3E90023D0
:107AB00016F044FD32463B4616F0F8FE36A3D3E9F5
:107AC000002316F03DFD32463B4616F0EFFE34A390
:107AD000D3E90023804689463046394616F0E6FE53
:107AE00031A3D3E9002316F029FD32463B4616F0B8
:107AF000DDFE2FA3D3E9002316F022FD32463B46DC
:107B000016F0D4FE2CA3D3E9002316F017FD32465D
:107B10003B4616F0CBFE0022304B16F011FD02461C
:107B20000B464046494616F0EBFF22462B4616F020
:107B3000BDFE02460B4622A1D1E9000116F0FEFC73
:107B400002460B462046294616F0F8FC02460B4634
:107B500005A1D1E9000116F0F1FCBDE8F88F1AA1EA
:107B6000D1E9000179E700BF182D4454FB21F93F0A
:107B700009F7FD0DE13D023F88B20175E0EF493F95
:107B80003B8F68B52882A43F5544880E55C1C93F34
:107B90007D6FEB0312D6D43F555555555555C53F0E
:107BA00082922EB1C5B8B33F59018D1B6C06E63FDA
:107BB000C88A599CE52A00404B2D8A1C273A03406D
:107BC000075C143326A6913C182D4454FB21094030
:107BD000FFFFEF3FFFFFDF3F0000603C0000F03F92
:107BE0000000E03F00225C4B16F0AAFC00225B4B39
:107BF00016F05CFE40A3D3E9002304460D4616F0C0
:107C000055FE3FA3D3E9002316F09AFC22462B46EB
:107C100016F04CFE3CA3D3E9002316F08FFC22465D
:107C20002B4616F043FE3AA3D3E9002316F088FC56
:107C300022462B4616F03AFE37A3D3E9002316F06E
:107C40007DFC22462B4616F031FE35A3D3E90023F6
:107C500016F076FC22462B4616F028FE8046894612
:107C60002046294615F03EFC2FA3D3E90023064603
:107C70000F462046294616F019FE2DA3D3E900230E
:107C800016F05CFC22462B4616F010FE2AA3D3E920
:107C9000002316F055FC22462B4616F007FE28A3BB
:107CA000D3E9002316F04AFC22462B4616F0FEFDCF
:107CB0000022294B16F044FC02460B46404649463A
:107CC00016F01EFF32463B4616F0F0FD1EA3D3E928
:107CD000002316F033FC32463B4616F031FC0246D8
:107CE0000B4616F02DFC02460B4619A1D1E9000106
:107CF00016F024FCB1E600BF09F7FD0DE13D023F9F
:107D000088B20175E0EF493F3B8F68B52882A43FF8
:107D10005544880E55C1C93F7D6FEB0312D6D43F41
:107D2000555555555555C53F82922EB1C5B8B33FEF
:107D300059018D1B6C06E63FC88A599CE52A004014
:107D40004B2D8A1C273A0340075C143326A6913C2E
:107D5000182D4454FB2109400000F03F0000E03F93
:107D6000414A91422DE9F84304460D4637DD3F4A2A
:107D700091420B4608DD02F1795291423DDD024607
:107D800016F0DEFBBDE8F88301F1404202F58012F7
:107D900002432ED0B1F1804F37DC0022344B16F075
:107DA000CDFB02460B4604460D4616F0C9FB2246A3
:107DB00006460F462B462046294616F077FD02461A
:107DC0000B463046394616F0BBFB15F08BFB2246BE
:107DD0002B4616F0B5FBBDE8F843FFF7C1B80246E5
:107DE0000B4616F0ABFB02460B4616F089FEBDE8CB
:107DF000F88300200021BDE8F88300F00DFE18A3F1
:107E0000D3E9002316F09CFBF1E7024616F04EFD85
:107E10000022174B16F092FB15F064FB22468046B9
:107E200089462B462046294616F08AFB22460646FE
:107E30000F462B464046494616F082FB02460B464B
:107E400000200B4916F05CFE0B46024639463046D0
:107E500016F074FBBDE8F84300F0DEBDAFF3008020
:107E6000EF39FAFE422EE63FFFFFEF3FFFFFAF4143
:107E70000000F03F000000002DE9F04FAE4B21F074
:107E800000479F4287B004460D4611DD07F1404789
:107E900007F5801703463B4321D002460B4616F0F8
:107EA0004DFB02460B4616F02BFE07B0BDE8F08FE7
:107EB000A24B9F420E4629DCB7F1795F80F24681E2
:107EC00081A3D3E9002316F03BFB00229C4B16F064
:107ED0007DFFD8B12046294607B0BDE8F08F7CA3CE
:107EE000D3E9002316F0E2FC7BA3D3E90023064686
:107EF0000F462046294616F0D9FC02460B4630466E
:107F0000394616F01DFB07B0BDE8F08F2046294624
:107F100014F04CFC02460B460020894916F00EFB7B
:107F20000022884B16F0C2FC6DA3D3E9002304465F
:107F30000D4616F0BBFC6CA3D3E9002316F000FB42
:107F400022462B4616F0B2FC69A3D3E9002316F0B3
:107F5000F5FA22462B4616F0A9FC67A3D3E90023C5
:107F600016F0EEFA22462B4616F0A0FC64A3D3E9E5
:107F7000002316F0E3FA22462B4616F097FC62A384
:107F8000D3E9002316F0DCFA22462B4616F08EFCCD
:107F90005FA3D3E90023CDE900012046294616F06E
:107FA00085FC5DA3D3E9002316F0C8FA22462B46D0
:107FB00016F07CFC5AA3D3E9002316F0C1FA22463E
:107FC0002B4616F073FC58A3D3E9002316F0B6FA3B
:107FD00022462B4616F06AFC594B002216F0B0FAE6
:107FE00082468B4620462946CDE902AB15F07AFA47
:107FF000554B9F428046894600F3198102460B4645
:1080000016F09EFADDE90223CDE90401DDE9000165
:1080100016F076FD02460B46DDE9040116F046FC3B
:108020004FF0000ACDE9000152464B465046494602
:1080300016F03CFC02460B462046294616F07EFA16
:10804000524604460D464B464046494616F078FADD
:1080500002460B462046294616F052FD02460B46C4
:1080600016F06EFA02460B461BA1D1E9000116F08C
:1080700065FA02460B46DDE9000116F05FFA52464A
:1080800004460D464B465046494616F059FA0246FC
:108090000B4627A1D1E9000116F050FA02460B4623
:1080A0002046294616F04AFA02460B4620A1D1E99D
:1080B000000116F043FA002E3FF7F7AE01F100433E
:1080C0001946F2E6AFF300809C7500883CE4377EE9
:1080D000182D4454FB21F93F075C143326A6913C2C
:1080E00009F7FD0DE13D023F88B20175E0EF493F20
:1080F0003B8F68B52882A43F5544880E55C1C93FBF
:108100007D6FEB0312D6D43F555555555555C53F98
:1081100082922EB1C5B8B33F59018D1B6C06E63F64
:10812000C88A599CE52A00404B2D8A1C273A0340F7
:10813000182D4454FB21E93FFFFFEF3FFFFFDF3FD6
:108140000000F03F0000E03F3233EF3F02460B46B5
:1081500016F0ACFB4BA3D3E9002306460F4616F0FE
:10816000A5FB4AA3D3E9002316F0EAF932463B46C1
:1081700016F09CFB47A3D3E9002316F0DFF9324643
:108180003B4616F093FB45A3D3E9002316F0D8F93C
:1081900032463B4616F08AFB42A3D3E9002316F091
:1081A000CDF932463B4616F081FB40A3D3E90023CC
:1081B00016F0C6F932463B4616F078FB3DA3D3E9EC
:1081C0000023804689463046394616F06FFB3BA3B4
:1081D000D3E9002316F0B2F932463B4616F066FBAF
:1081E00038A3D3E9002316F0ABF932463B4616F02C
:1081F0005DFB36A3D3E9002316F0A0F932463B46D7
:1082000016F054FB00221E4B16F09AF902460B465C
:108210004046494616F074FC22462B4616F046FBB3
:1082200022462B4616F08CF907B0BDE8F08F524677
:108230005B46DDE9000116F063FC42464B4616F052
:1082400035FB42464B4616F07BF902460B4616F0CC
:1082500077F907A3D3E9002316F070F902460B461D
:1082600005A1D1E9000116F069F924E7AFF3008018
:10827000075C143326A6913C182D4454FB21F93F8A
:108280000000F03F09F7FD0DE13D023F88B20175A6
:10829000E0EF493F3B8F68B52882A43F5544880EE4
:1082A00055C1C93F7D6FEB0312D6D43F5555555587
:1082B0005555C53F82922EB1C5B8B33F59018D1BAC
:1082C0006C06E63FC88A599CE52A00404B2D8A1C63
:1082D000273A0340000000002DE9F84F1D465342A5
:1082E000134325F00049DFF8C8C149EAD373634559
:1082F000144606460F4626D8C0F1000848EA000892
:1083000021F0004A4AEAD878E04503468B461AD85D
:1083100005F1404808F5801858EA0208AE4643D0F7
:108320004FEAA57808F002085AEA030348EAD17830
:1083300011D1B8F1020F55D0B8F1030F09D14AA1FC
:10834000D1E9000105E032463B462046294616F0B9
:10835000F7F8BDE8F88F59EA020329D0E1452ED09D
:10836000E24525D0AAEB09094FEA2959B9F13C0F9A
:108370003CDC002D3EDA19F13C0F3BDA00200021F5
:10838000B8F1010F4ED0B8F1020F3ED0B8F1000F96
:10839000DFD037A3D3E9002316F0D0F836A3D3E912
:1083A000002316F0CBF8D4E7BDE8F84FFEF744BB46
:1083B000BBF1000F12DB32A1D1E90001C9E7CA45C8
:1083C00034D0B8F1020F0DD0B8F1030FB7D0B8F127
:1083D000010F4FF0000036D00021BAE72AA1D1E901
:1083E0000001B6E724A1D1E90001B2E724A1D1E957
:1083F0000001C5E722462B463046394616F080FB81
:1084000014F0D4F9FEF718FBBAE719A3D3E9002357
:1084100016F094F802460B4617A1D1E9000116F0B8
:108420008DF896E701F10043194692E7B8F1020F83
:1084300014D0B8F1030F0DD0B8F1010F06D014A17C
:10844000D1E9000185E74FF0004182E712A1D1E9AF
:1084500000017EE712A1D1E900017AE712A1D1E97A
:10846000000176E7AFF30080182D4454FB2109C0CA
:10847000075C143326A6A13C182D4454FB21094067
:10848000182D4454FB21F93F182D4454FB21F9BF0A
:10849000182D4454FB21E93F182D4454FB21E9BF1A
:1084A000D221337F7CD902C0D221337F7CD90240D4
:1084B0000000F07F0000000043422DE9F047034335
:1084C00021F000463C4A46EAD373934204460D46E7
:1084D0002AD8964240D0394B9E428A462EDD384BF0
:1084E0009E4235463FDD33460246314616F028F8B7
:1084F000224606460F462B4600202F4916F01EF84E
:1085000002460B463046394616F0FAFAFEF728FDC9
:1085100000222C4B16F0CAF9BAF1000F0CDA01F167
:1085200000431946BDE8F08702460B4616F006F8F0
:1085300002460B4616F0E4FABDE8F0871CA3D3E927
:10854000002315F0FDFF0022002316F03FFC48B188
:1085500020462946BDE8F0870022002316F0D0FA15
:10856000BDE8F087354622462B462046294615F0C1
:10857000E7FF22462B4606460F4616F097F922469D
:10858000804689462B4600200B4915F0D7FF02464E
:108590000B464046494616F0B3FA32463B4615F0C4
:1085A000CFFFFEF7DDFC0022064B16F07FF9B3E7A4
:1085B0009C7500883CE4377E0000F03FFFFF2F3EB3
:1085C000FFFFDF3F0000E03F2DE9F8434E4B21F075
:1085D00000449C4206460F461BDC4C4B9C4222DD6D
:1085E0004B4B9C4254DD4B4B9C4246DD4A4B9C42DC
:1085F0006FDD01339C4269D041A3D3E900231046CB
:10860000194616F053F906460F4630463946BDE87E
:10861000F88302460B4616F049F906460F463046E7
:108620003946BDE8F88314F0C1F802F04DFC002291
:108630003A4B8046894615F083FFB4F1725F0646D7
:108640000F46ECDB42464B464046494616F02EF9B3
:1086500032463B4604460D463046394615F070FF1B
:1086600002460B462046294616F04AFA00222B4BBA
:1086700015F066FF06460F46D1E714F097F800F0B4
:1086800053F80022264B16F011F906460F46C6E7AE
:1086900014F08CF800F048F80022214B06460F46F3
:1086A00016F004F9324604460D463B4600201C49AC
:1086B00016F026FA02460B462046294615F040FFE2
:1086C00006460F4630463946BDE8F883154B9842BA
:1086D00092D83046394614F069F80022104B16F053
:1086E000E5F800F021F8002204460D460C4B16F088
:1086F000DDF822462B4616F0D9F806460F468EE7DF
:108700009C7500883CE4377EFFFFEF7F422ED63F0A
:10871000FFFF3540412E8640CD3386400000F03FBC
:108720000000E03F7DF8B98F2DE9F047B04F21F010
:108730000042BA4284B004460D464FEAD17610D9C1
:10874000AC4FBA4240F28A80C1F31303034302469E
:1087500040F0F180002E7ED00020002104B0BDE862
:10876000F087A54B9A4200F2B680A44B9A4240F2A1
:10877000D1804FF0000A22462B462046294616F0AB
:1087800095F885A3D3E9002306460F4616F08EF828
:1087900083A3D3E9002315F0D1FE32463B4616F001
:1087A00085F881A3D3E9002315F0CAFE32463B4683
:1087B00016F07CF87EA3D3E9002315F0BFFE324605
:1087C0003B4616F073F87CA3D3E9002315F0B8FEFE
:1087D00032463B4616F06AF802460B4620462946CA
:1087E00015F0ACFE02460B4606460F4620462946CB
:1087F00016F05CF880468946BAF1000F00F0AB80B5
:1088000032463B4600204FF0804115F097FE02466D
:108810000B464046494616F073F902460B46DDE921
:10882000020115F08BFEDDE9002315F087FE0B46F3
:1088300002467349002015F081FE6FF47F739A455C
:1088400080F2A3800AF57A7A01EB0A5100224FF0F8
:10885000B87316F02BF804B0BDE8F08758A3D3E93D
:10886000002316F0B3FA00286BD157A3D3E90023F5
:108870002046294616F08CFA00287FF46DAF614936
:1088800053A3D3E9002301EBC6062046294616F080
:108890000DF8D6E9002315F053FE16F0B7FA82461C
:1088A00015F09AFF4CA3D3E9002306460F4615F0B6
:1088B000FDFF02460B462046294615F03FFE48A321
:1088C000D3E90023CDE900013046394615F0EEFF2B
:1088D000CDE9020115E04C4B9A42D0D84B4BF40045
:1088E0002344D3E9002315F029FE494B234493ED9B
:1088F000007BCDE900018DED027BC6F1010AAAEBF8
:10890000060ADDE90223DDE9000115F017FE044641
:108910000D4630E734A3D3E9002315F011FE002201
:10892000374B16F053FAA8B3204629460022344BA1
:1089300015F006FE8FE70B4615F002FE04B0BDE809
:10894000F08729A3D3E900231046194615F0AEFF9E
:1089500004B0BDE8F0873046394600224FF080432E
:1089600015F0ECFD02460B464046494616F0C8F8A5
:1089700022462B4615F0E2FD02460B460020204918
:1089800015F0DCFD04B0BDE8F08701EB0A5104B03E
:10899000BDE8F0878246EEE6D0A4BE726937663E37
:1089A000F16BD2C541BDBB3E2CDE25AF6A56113FEF
:1089B00093BDBE166CC1663F3E5555555555C53FD6
:1089C000EF39FAFE422E864051302DD5104987C02E
:1089D000FE822B654715F73F0000E0FE422EE63F82
:1089E000763C7935EF39EA3D9C7500883CE4377E6A
:1089F000412E8640FFFFEF7F422ED63FFFFF2F3EE6
:108A00000000F03FF0FB0300B1A2F03F00FC0300C8
:108A100010FC0300000000002DE9F04FB1F5801FAD
:108A200085B006460F460B4680F2D08021F000420A
:108A3000024300F0DA800029C0F2E9800022D64B20
:108A400015F034FFD54A0B46934206460F466FF0A9
:108A5000350E00F3C180C3F3130505F5152C0CF694
:108A6000647C0CF4801C8CF07F5282F440121C1544
:108A700042EA0507A4F2FF3474440022C84B304692
:108A8000394604EB1C5415F059FDAB1CC3F313031A
:108A9000022B82468B464FF0000240F3AF804FF02E
:108AA000804315F04DFD02460B465046594616F0E0
:108AB00027F8064620460F4615F08EFE3246CDE9D1
:108AC00002013B4630463946CDE9006715F0EEFE1F
:108AD00002460B468046894615F0E8FE9AA3D3E984
:108AE000002306460F4615F0E1FE99A3D3E90023C3
:108AF00015F026FD32463B4615F0D8FE96A3D3E985
:108B0000002315F01DFD32463B4615F0CFFE94A321
:108B1000D3E9002315F014FD42464B4615F0C6FE7E
:108B200091A3D3E90023804689463046394615F0A3
:108B3000BDFE8FA3D3E9002315F002FD32463B466C
:108B400015F0B4FE8CA3D3E9002315F0F9FC3246EE
:108B50003B4615F0ABFE0B4602464946404615F033
:108B6000EFFCA5F5C223C5F5D725A3F27A4351350D
:108B70001D43002D06460F4640F387800022894B97
:108B80005046594615F092FE52465B4615F08EFE51
:108B900002460B46804689463046394615F0D0FCE1
:108BA000DDE9002315F082FE06460F46002C40F05A
:108BB000818002460B464046494615F0BFFC0246FE
:108BC0000B465046594615F0B9FC0BE0734A9342E8
:108BD0004FF0000E7FF73FAF32463B4630463946F6
:108BE00015F0AEFC05B0BDE8F08F00220023002098
:108BF0006D4915F085FF05B0BDE8F08F002316F034
:108C0000BDF860B1002C7CD100200021EAE70246CB
:108C100015F094FC0022002315F072FFE2E758A340
:108C2000D3E900235046594615F040FE02460B4654
:108C300000205C4915F082FC524606460F465B4612
:108C40005046594615F032FE02460B46304639462C
:108C500015F02CFE06460F462CB3204615F0BCFD41
:108C600049A3D3E900238046894615F01FFE48A397
:108C7000D3E9002304460D464046494615F016FE4A
:108C800002460B46304639462CE002460B4650461B
:108C9000594615F053FCDDE9002315F007FE0646A2
:108CA0000F46002C47D132463B465046594615F0F8
:108CB00045FC97E734A3D3E90023DDE9020115F071
:108CC000F5FD33A3D3E9002304460D46DDE9020197
:108CD00015F0ECFD32463B4615F032FC02460B46E1
:108CE0004046494615F02AFC52465B4615F026FCE4
:108CF00002460B462046294615F020FC05B0BDE88B
:108D0000F08F204615F068FD1FA3D3E90023064627
:108D10000F4615F0CBFD1EA3D3E9002304460D46F4
:108D20003046394615F0C2FD02460B46204629461C
:108D300015F006FC56E7DDE9028913A3D3E9002309
:108D40004046494691E700BF44523EDF12F1C23F20
:108D5000DE03CB966446C73F599322942449D23F01
:108D6000935555555555E53F9FC678D0099AC33F51
:108D7000AF788E1DC571CC3F04FA97999999D93F68
:108D8000555555555555D53F0000E0FE422EE63F5E
:108D9000763C7935EF39EA3D00005043FFFFEF7F25
:108DA0000000F03F0000E03F000050C30000000062
:108DB000B1F5801F2DE9F84304460D460B4619DA3C
:108DC00021F00042024359D000295FDB00223A4BD8
:108DD00015F06CFD394A0D462B46934204466FF060
:108DE00035010CDD22462B462046294615F0A8FB0E
:108DF000BDE8F883314A93424FF00001F2DC1815C8
:108E0000A0F2FF3008444FEAD0794844C3F3130876
:108E100015F0E2FCC9F57F73033348EA03550646B3
:108E20000F4620462946FFF7F7FD1DA3D3E900238F
:108E3000804689463046394615F038FD1AA3D3E9F5
:108E4000002304460D464046494615F02FFD0246D4
:108E50000B462046294615F073FB15A3D3E90023E2
:108E600004460D463046394615F020FD02460B46B5
:108E70002046294615F064FBBDE8F8830022002354
:108E800000200F4915F03CFEBDE8F883024615F0BE
:108E900055FB0022002315F033FEA9E7AFF3008055
:108EA000362BF111F3FE593D0EE526157BCBDB3F4A
:108EB00000609F501344D33F00005043FFFFEF7FFB
:108EC000000050C3000000002DE9F04F23F00045E2
:108ED00055EA020493B00DD06B4E21F00044B44229
:108EE0000F4682460BDD04F1404404F5801454EA39
:108EF0000A0350D16549002013B0BDE8F08F9B46AE
:108F0000944647D0B542EEDC5F4EB5425DD0002FAF
:108F100080468946CDE900235BDB0026BCF1000FCB
:108F20000ED1594B9D423FD0584B9D4200F0888056
:108F3000BBF1804F00F09C80554B9B4500F0B883FF
:108F40004046494613F032FCBAF1000F06D1002C1E
:108F500059D04E4B27F040429A4254D0FF0F013F68
:108F600056EA070373D04B4B9D4240F39B8003F1BD
:108F700004739D4240F33E84474B9C4272DDBBF13B
:108F8000000F72DD3EA3D3E900231046194615F009
:108F90008DFCB1E728B1414813B0BDE8F04F15F0A2
:108FA000D9B8A542F7DCAFE704F1404303F58013DD
:108FB00053EA0A039ED0384B9C4240F38383BBF1B3
:108FC000000F52DBDDE9000196E7BCF1000F9ED0F7
:108FD00089E7334B9D4231DCA3F154739D429CDD04
:108FE0002B15A3F2FF33142B40F3A583C3F13403F5
:108FF0002CFA03F202FA03F363458ED102F0010268
:10900000C2F102068AE7BBF1000F05DA02460B4601
:1090100000201E4915F074FD002FBFF66DAF04F15E
:10902000404404F5801454EA060300F03F84012E06
:109030007FF462AF01F1004319465DE702266DE758
:10904000BBF1000FC0F248834046494654E7424610
:109050004B461046194615F071FA02460B4615F0BC
:109060004FFD49E7BBF1000F8CDB0020002143E7F7
:1090700042464B464046494615F018FC3CE700BFC7
:109080009C7500883CE4377E0000F07F0000F03FD4
:109090000000E03F0000E041FFFFEF3F300404002C
:1090A000FFFF3F43B4F5801F80F261830022D24B63
:1090B00015F0FCFB6FF0340C0C462315CF4DC4F3B8
:1090C0001302A3F2FF3342F07F546344AA420B938E
:1090D00044F4401440F33F83C94B9A4240F3048464
:1090E0009FEDAF7B8DED087B8DED107B9FEDAE7B13
:1090F0000B9B8DED067B01330B93A4F580140025AB
:10910000DDE906232146824615F018FAA346DDE97B
:1091100006238046894650462146CDE90CAB15F022
:109120000FFA02460B460020B64915F0E9FC0A4644
:109130000146CDE90E12134649460246404615F057
:10914000B5FB631043F0005382468B4603F50023C2
:109150008C46CDE904AB5919D3460023CDE902BCB6
:109160000293DDE902AB002004460D4602460B46A1
:109170005046594615F09AFB02460B464046494672
:1091800015F0DCF9DDE906238046894620462946AC
:1091900015F0D4F902460B46DDE90C0115F0CEF9C5
:1091A00052465B4615F082FB02460B464046494656
:1091B00015F0C4F9DDE90E2315F078FBDDE904456F
:1091C000CDE9060122462B462046294615F06EFBC6
:1091D00077A3D3E9002304460D4615F067FB76A379
:1091E000D3E9002315F0ACF922462B4615F05EFBBF
:1091F00073A3D3E9002315F0A3F922462B4615F0FB
:1092000055FB71A3D3E9002315F09AF922462B46AA
:1092100015F04CFB6EA3D3E9002315F091F922461B
:109220002B4615F043FB6CA3D3E9002315F088F916
:109230002246804689462B462046294615F036FBB5
:1092400002460B464046494615F030FB524604465E
:109250000D465B46DDE9040115F072F9DDE90623F0
:1092600015F024FB22462B4615F06AF9524680463B
:1092700089465B465046594615F018FB0022624B62
:10928000CDE90C0115F05CF942464B4615F058F952
:1092900002980D46044622462B465046594615F084
:1092A00005FB002282468B46574B2046294615F087
:1092B00045F9DDE90C2315F041F902460B4640461D
:1092C000494615F03BF9DDE9042315F0EFFA224693
:1092D000804689462B46DDE9060115F0E7FA02468D
:1092E0000B464046494615F02BF980468946024612
:1092F0000B465046594615F023F9029838A3D3E996
:10930000002304460D4615F0D1FA5246CDE904017A
:109310005B462046294615F011F902460B464046A9
:10932000494615F00BF930A3D3E9002315F0BEFA36
:109330002FA3D3E90023804689462046294615F00D
:10934000B5FA02460B464046494615F0F9F8DDE904
:10935000102315F0F5F880460B98894615F03CFA75
:10936000424682468B464B46DDE9040115F0E8F89B
:10937000DDE9082315F0E4F852465B4615F0E0F805
:10938000029852465B4604460D4615F0D7F8DDE9D3
:10939000082315F0D3F8DDE9042337E0AFF30080AC
:1093A0000000000000000000000000000000F03F8E
:1093B000EF4E454A287ECA3F65DBC9934A86CD3FBA
:1093C00001411DA96074D13F4D268F515555D53FA0
:1093D000FFAB6FDBB66DDB3F033333333333E33F38
:1093E000000000E009C7EE3FFD033ADC09C7EE3F8D
:1093F000F5015B14E02F3EBE000040438E98030051
:1094000079B60B000000F03F0000084015F096F818
:109410000B4602464946404615F090F8013E56EA92
:10942000070382468B4600F05E819FEDD37B8DED76
:10943000047BDDE9001200230E461746CDE90267E2
:109440000293DDE9026708463B461146324615F0B5
:1094500075F822462B4615F029FADDE900238046EF
:1094600089465046594615F021FA02460B464046B9
:10947000494615F065F83246804689463B46204607
:109480002946CDE9008915F011FA0B460246064639
:109490000F464046494615F053F8D14B99420446D1
:1094A0000D468A4640F3248101F13F4303F5E00372
:1094B000034340F0FF81B2A3D3E90023DDE90001BB
:1094C00015F03EF83246804689463B4620462946FE
:1094D00015F034F802460B464046494615F076FC36
:1094E000002840F0E781A8464FEA2853A3F2FE3255
:1094F0004FF4801313415344C3F30A52B94DA2F2FF
:10950000FF321541C3F3130423EA05010020C2F121
:10951000140B44F48014BAF1000F02460B4644FACF
:109520000BFB30463946B8BFCBF1000B15F006F8FF
:1095300006460F463246DDE900013B4615F000F8CD
:109540004FEA0B5A0D4600248FA3D3E9002320468F
:10955000294615F0ABF93246804689463B462046FF
:10956000294614F0EBFF02460B46DDE9000114F03A
:10957000E5FF87A3D3E9002315F098F986A3D3E983
:10958000002306460F462046294615F08FF902466D
:109590000B463046394614F0D3FF06460F460246C6
:1095A0000B464046494614F0CBFF42464B46044624
:1095B0000D4614F0C3FF02460B463046394614F000
:1095C000BDFF2246804689462B462046294615F097
:1095D0006DF973A3D3E9002306460F4615F066F92B
:1095E00071A3D3E9002314F0A9FF32463B4615F0DE
:1095F0005DF96FA3D3E9002314F0A2FF32463B4686
:1096000015F054F96CA3D3E9002314F097FF324608
:109610003B4615F04BF96AA3D3E9002314F090FF01
:1096200032463B4615F042F902460B462046294693
:1096300014F084FF06460F4602460B462046294694
:1096400015F034F90022CDE900014FF08043304697
:10965000394614F073FF02460B46DDE9000115F0B0
:109660004FFA424606460F464B462046294615F01D
:109670001DF942464B4614F063FF02460B46304646
:10968000394614F05BFF22462B4614F057FF024682
:109690000B460020544914F051FF8A44BAF5801F4C
:1096A000C0F232815146DDE9042315F0FFF823E4CE
:1096B000002FFFF645AC4046494613B0BDE8F04FD9
:1096C00013F010BFBBF1000FBFF6CFACDDE90034E3
:1096D000184604F100410FE442464B46002042493F
:1096E00015F00EFA08E49FED387B8DED047BA0E6C3
:1096F0003E4B21F00048984540F3EA803C4B0B4438
:1097000003430AD132463B4614F018FFDDE900233B
:1097100015F052FB00283FF4E7AEDDE904012CA36D
:10972000D3E9002315F0C2F829A3D3E9002315F0EB
:10973000BDF8FFF7E1BBBCF1000F40F0D280C3F1F0
:10974000140345FA03F202FA03F3AB4200F0E0809F
:109750006646FFF7E9BB9FED207B8DED087B8DED25
:10976000107B9FED057B00258DED067BC8E44FF057
:10977000000CA2E4AFF30080000000000000F03F06
:10978000FE822B654715973C00000000432EE63F04
:10979000EF39FAFE422EE63F396CA80C615C20BE20
:1097A000D0A4BE726937663EF16BD2C541BDBB3EE7
:1097B0002CDE25AF6A56113F93BDBE166CC1663FC5
:1097C0003E5555555555C53F000000000000F0BFFF
:1097D00059F3F8C21F6EA501000000000000000050
:1097E000FFFF8F40FFFF0F000000F03FFFCB9040D6
:1097F00000346F3F5A4B9C427FF734AC594B9C422C
:109800003FF7BDAB0022574B14F098FE44A3D3E9B9
:10981000002304460D4615F049F843A3D3E900237D
:1098200082468B462046294615F040F80022CDE9B5
:1098300002014D4B2046294615F038F802460B46EA
:109840003BA1D1E9000114F079FE22462B4615F028
:109850002DF802460B460020444914F06FFE2246C4
:10986000804689462B462046294615F01FF80246B9
:109870000B464046494615F019F82FA3D3E90023BB
:1098800015F014F802460B46DDE9020114F056FE0D
:1098900002460B46804689465046594614F050FE13
:1098A000002004460D4652465B46AFE502460B4695
:1098B000FFF7CFBBDDE9040121A3D3E9002314F0B6
:1098C000F5FF1FA3D3E9002314F0F0FFFFF714BB4B
:1098D000264B98453FF708AEDDE9022392469346B2
:1098E00031E60026FFF72CBB9FED177B8DED087B43
:1098F0009FED177B8DED107B9FED177B4FF480253F
:109900008DED067BFFF7FCBB5A4601F029FDCAE648
:1099100002F00102C2F10206FFF706BBAFF30080BE
:10992000000000604715F73F44DF5DF80BAE543E82
:10993000555555555555D53FFE822B654715F73F73
:109940009C7500883CE4377E0000004003B8E23F8D
:1099500006D0CF43EBFD4C3E000000000000F83F76
:10996000FEFFEF3F0000F03F0000D03F0000E03F6F
:109970002DE9F047CA4B21F000479F4290B0804646
:10998000894640F38F80C74B9F420C46924626DCA7
:109990000029B9A3D3E9002340F38F8014F0CEFD52
:1099A000C14B9F4204460D4600F04781B4A3D3E962
:1099B000002314F0C3FD02460B46CAE900232046EB
:1099C000294614F0BBFDAEA3D3E9002314F0B6FD85
:1099D0000125CAE90201284610B0BDE8F087B34B63
:1099E0009F4240F38980B24B9F4200F31C813D159A
:1099F000A5F21645A7EB055319461F46064615F076
:109A000005FA14F0E9FE8046894642464B46304648
:109A10003946CDE90A8914F091FD0022A54B14F0D6
:109A200045FF8946804615F0F1F914F0D5FE06464B
:109A30000F4632463B4640464946CDE90C6714F096
:109A40007DFD00229B4B14F031FF00220023CDE965
:109A50000E0115F093F9002800F0608100233046D4
:109A60003946002215F08AF9002814BF0123022389
:109A7000914A019202212A4600910AA8514600F01B
:109A800087FB002C054614DADAF80420DAF80C30EB
:109A900002F1004203F100434542CAF80420CAF82B
:109AA0000C3006E000200021C2E90089C2E9020171
:109AB0000025284610B0BDE8F08714F041FD7A4B30
:109AC0009F4204460D4600F00B816DA3D3E90023AD
:109AD00014F036FD02460B46CAE90023294620460B
:109AE00014F02CFD66A3D3E9002314F029FD4FF0F8
:109AF000FF35CAE90201DCE712F058FE62A3D3E9A0
:109B000000238046894614F0D1FE00226B4B14F0EE
:109B100017FD15F07BF9054614F05EFE56A3D3E958
:109B20000023CDE9060114F0C1FE02460B46404673
:109B3000494614F003FD52A3D3E900238046894629
:109B4000DDE90601CDE9028914F0B0FE1F2D0246C1
:109B50000B46CDE9042340F3B380DDE90423DDE9BE
:109B6000020114F0EBFC804689463F15C9F30A5305
:109B7000FB1A102B40F3B18045A3D3E90023DDE9A4
:109B8000060114F093FE8046894602460B46DDE945
:109B9000020114F0D3FC02460B46DDE90201CDE9D7
:109BA000082314F0CBFC42464B4614F0C7FC3AA302
:109BB000D3E9002380468946DDE9060114F076FEEC
:109BC00042464B4614F0BAFC0B46CDE9040102466E
:109BD000DDE9080114F0B2FCC1F30A53FF1A312F7A
:109BE0008046894600F39C809DED087BCAE9008988
:109BF0008DED027B42464B46DDE9020114F09EFCEE
:109C0000DDE9042314F09AFC002CCAE90201BFF636
:109C100050AF09F1004401F100436D42CAE90084EC
:109C2000CAE9020345E702460B4614F087FC00250B
:109C3000CAE90201CAE900013BE715A3D3E9002301
:109C400014F07CFC14A3D3E900230D46044614F061
:109C500075FC02460B46CAE900232946204614F04B
:109C60006DFC0DA3D3E9002314F068FC0125CAE9BB
:109C700002011EE7AFF3008000004054FB21F93FD2
:109C80003163621A61B4D03D83C8C96D305FE43F6F
:109C90000000601A61B4D03D7370032E8A19A33B93
:109CA000FB21E93F7BD90240FB21F93FFB213941F0
:109CB000FFFFEF7F00007041740E04000000E03FE2
:109CC0004046494614F03AFC394B6A1E804653F828
:109CD0002230BB4289463FF448AFCAE9008989E790
:109CE0002BA3D3E9002314F02BFC2BA3D3E90023EF
:109CF0000D46044614F024FC02460B46CAE9002334
:109D00002946204614F01AFC23A3D3E9002314F0BB
:109D100017FC4FF0FF35CAE90201CAE60323A7E6A4
:109D20001FA3D3E90023DDE9060114F0BFFD0646B9
:109D30000F4602460B46DDE9080114F0FFFB8046A2
:109D4000894602460B46DDE90801CDE9028914F097
:109D5000F5FB32463B4614F0F1FB13A3D3E9002395
:109D600006460F46DDE9060114F0A0FD32463B46EB
:109D700014F0E4FB02460B4640464946CDE9042375
:109D800014F0DCFB80468946A7E700BFAFF30080F4
:109D90000000601A61B4D03D7370032E8A19A33B92
:109DA0000000002E8A19A33BC14920259A837B39E4
:109DB000F40D040000000000574A2DE9F84F21F08F
:109DC0000048904506460F462CDC544B0029B4BF92
:109DD000534D544D98454FF0000411DC524B9845BB
:109DE00026DC4BA3D3E9002314F0AAFB00224F4B3F
:109DF00014F0ECFF002840D030463946BDE8F88F1B
:109E00004B4B984530DD4B4B984568DD0133984509
:109E100062D0304639463EA3D3E9002314F046FD14
:109E2000BDE8F88F02460B4614F08AFBBDE8F88FB8
:109E300012F0BCFC01F048F83F4B984506460F462F
:109E400023DD0022394B14F07BFB02460B463046E3
:109E5000394614F055FE32463B4614F071FB22465B
:109E60002B4614F023FDE1E712F0A0FCFEF75CFCAA
:109E700022462B4614F01AFDD8E73046394612F038
:109E800095FC01F021F806460F4632463B46304627
:109E9000394614F055FB324682468B463B463046E7
:109EA000394614F003FD0022804689461F4B304698
:109EB000394614F045FB02460B464046494614F02D
:109EC0001FFE02460B465046594614F037FB224609
:109ED0002B4614F0EBFCA9E7184B984299D8304672
:109EE000394612F063FC00220E4B14F0DFFCFEF743
:109EF0001BFC06460F4602460B462046294614F038
:109F0000D5FC32463B4614F0D1FC8FE7AFF300801E
:109F10003374AC3C1F7BAC7FFFFFEF7FFFFF35400E
:109F20000000E0BF0000E03FFFFF2F3E0000F03FD9
:109F3000412E8640CD338640FFFFEF3F7DF8B98F3D
:109F40002DE9F04F21F00048B8F1795F85B0064661
:109F50000F4692469B466BDA14F058FF002800F03B
:109F6000E18032463B463046394614F09FFC74A3EC
:109F7000D3E9002304460D4614F098FC72A3D3E9FC
:109F8000002314F0DDFA22462B4614F08FFC70A358
:109F9000D3E9002314F0D2FA22462B4614F086FCB3
:109FA0006DA3D3E9002314F0CBFA22462B4614F01C
:109FB0007DFC6BA3D3E9002314F0C0FA22462B46A4
:109FC00014F074FC68A3D3E9002314F0B9FA224614
:109FD0002B4614F06BFCCDE900010022664B2046B5
:109FE000294614F063FCDDE90023804689462046BB
:109FF000294614F05BFC524604460D465B4630464B
:10A00000394614F053FC02460B462046294614F00C
:10A0100095FA02460B464046494614F08FFA02462E
:10A020000B460020554914F089FA05B0BDE8F08FC1
:10A0300002460B4614F03AFC41A3D3E90023044640
:10A040000D4614F033FC40A3D3E9002314F078FA52
:10A0500022462B4614F02AFC3DA3D3E9002314F03A
:10A060006DFA22462B4614F021FC3BA3D3E90023D2
:10A0700014F066FA22462B4614F018FC38A3D3E9F4
:10A08000002314F05BFA22462B4614F00FFC36A393
:10A09000D3E9002314F054FA2B46224614F006FCB0
:10A0A000374B9845CDE9000197DD364B98453EDCAE
:10A0B000A8F500130022002030499046994614F07C
:10A0C0003DFACDE9020100222B4B2046294614F02F
:10A0D000EDFB42464B4614F031FADDE900238046A1
:10A0E00089462046294614F0E1FB524604460D46B7
:10A0F0005B463046394614F0D9FB02460B462046F3
:10A10000294614F01BFA02460B464046494614F015
:10A1100015FA02460B46DDE9020114F00FFA05B00C
:10A12000BDE8F08F1549002005B0BDE8F08F9FED28
:10A13000107B4FF000088DED027BDFF84C90C2E7FA
:10A14000D43888BEE9FAA8BDC4B1B4BD9EEE213EA4
:10A15000AD529C804F7E923E9015CB19A001FA3EE5
:10A160007751C1166CC1563F4C5555555555A53FB5
:10A17000000000000000E73F0000E03F0000F03F6B
:10A180003233D33F0000E93F0000D23F000000001F
:10A190002DE9F04FADF5197DBE4CA29EBE4D54F891
:10A1A00026600793D41E85FB0475E417C4EBA50451
:10A1B00024EAE4741D46631CA3EB8303013D02EB18
:10A1C000C3030593731904960994019503900B91A9
:10A1D000A4EB05071AD43B44002400255E1C0DF1B6
:10A1E0008008DDF88C9208E059F8270014F0F4FAA2
:10A1F0000137B742E8E8020108D0002FF4DA01374E
:10A2000020462946B742E8E80201F6D1049B002B1C
:10A21000079B4FEAC30302932ADB039A20A902EBB0
:10A22000030801EB0309049B72AA02EBC30B0DF5B3
:10A23000E07A019B002B4FF000064FF0000711DB86
:10A24000039C4D4675E90223F4E8020114F02EFB4D
:10A2500002460B463046394614F072F9444506462C
:10A260000F46EFD1EAE80267DA4509F10809E0D1C3
:10A27000DDE90204049920448B0082460BA8A3F177
:10A280000802C31808930CAB13440A938B4698AB8F
:10A2900003EBCB03BBF1000F53E9284529DD70AB7D
:10A2A00003EBCB080DF1300900227C4B20462946F8
:10A2B00014F0FCFA14F0AAFD14F08EFA0022784B88
:10A2C00006460F4614F0F2FA02460B46204629468F
:10A2D00014F034F914F09AFD78E9022349F8040BDC
:10A2E0003946304614F02CF970AB984504460D46BB
:10A2F000DAD1DDF81490204629464A4601F030F8BC
:10A3000000224FF07F5304460D4614F0CFFAFCF7BD
:10A31000A7FD0022634B14F0C9FA02460B46204603
:10A32000294614F00BF90D46044614F06FFD8046E3
:10A3300014F052FA0B4602462946204614F0FEF865
:10A340004B46002B06460F4640F3E1800BF1FF32EF
:10A350000CA9C9F1180351F8225045FA03F101FA8A
:10A3600003F30CA8EB1A40F82230C9F11705884412
:10A3700043FA05F5002D2CDDBBF1000F08F10108B3
:10A3800040F381820C9C002C40F0A780BBF1010FB0
:10A390000AD00CA9012251F8044F531C002C40F0A4
:10A3A0009E809B451A46F6D1059B002B0EDD012BA6
:10A3B00000F0D980022B09D10BF1FF320CAB0CA9B4
:10A3C00053F82230C3F3150341F82230022D00F078
:10A3D000AF80002200233046394614F0CFFC00281D
:10A3E00000F05382049B0BF1FF394B4510DC0BF15D
:10A3F00080430CAA013B089802EB8303002253F828
:10A400000419834242EA0102F9D1002A40F0B680E1
:10A41000049B0CAA013B52F82330002B40F0A18092
:10A420000A9A012352F8041901330029FAD05B4437
:10A430000BF10109994506934CDC099A079909EB40
:10A44000020801EB0B0508F1804802EB030BA39B0C
:10A4500008F1FF3803EB880870AB03EBC909A39B35
:10A4600020A903EB8B0301EBC505029358F8040FF9
:10A4700014F0B2F90B4601990246002905F1080BC8
:10A48000C5E900234FF000064FF000071CDB039CDA
:10A490000CE000BF14130400ABAAAA2A0000703E0F
:10A4A000000070410000204075E90223F4E8020139
:10A4B00014F0FCF902460B463046394614F040F8D9
:10A4C000544506460F46EFD1029B9845E9E80267DE
:10A4D0005D46CBD1DDF818B0D9E6012300220CA9E6
:10A4E000C4F180749B4541F822400EDD51F82320D1
:10A4F00001EB8B0001EB83036FF07F4100E01A68F2
:10A500008A1A43F8042B8342F9D101244CE706D17F
:10A510000BF1FF330CAA52F82350ED152AE7002265
:10A520007B4B14F049FC002840F0A381054650E71E
:10A5300032463B460020774914F000F806460F46A5
:10A54000002C3FF446AF059A7249002000F008FF46
:10A5500002460B463046394613F0F0FF06460F46DA
:10A5600037E7012363E70BF1FF320CAB0CA953F87B
:10A570002230C3F3160341F8223027E70CAB059ACB
:10A5800053F82930183ACDE9068505926BB909F1DF
:10A590008043013B0CA901EB830353F8041909F133
:10A5A000FF39183A0029F8D00592059A5949002038
:10A5B00000F0D6FEB9F1000F04460D46C0F2C0818E
:10A5C0004FEAC90370AA02EB030808930CAB03EB34
:10A5D0008906DFF844B14FF0000A08F10807043695
:10A5E00056F8040D14F0F8F822462B4614F05EF9E4
:10A5F0005B4667E9020152462046294614F056F9A7
:10A600000CAB9E4204460D46EAD148AB039301933E
:10A61000CDF8149009F10103DDF810900293C346C0
:10A620004FF0000AB9F1000FC0F22A81DFF8EC8088
:10A630005D4635A3D3E9002300260027002403E06C
:10A64000544510DCF8E80223F5E8020114F02EF975
:10A6500002460B463046394613F072FF0134A145DD
:10A6600006460F46ECDA019BE3E802670193029B82
:10A670000AF1010A9A45ABF1080BD3D1A29BDDF890
:10A680001490032B39D8DFE813F0D9000600060038
:10A690004D0048AB0393B9F1000F4FF000004FF0AD
:10A6A000000109DB039D05EBC904083474E90223AA
:10A6B00013F046FFA542F9D1079B002B40F01E8105
:10A6C0000B9BC3E900010B4603990246D1E9000147
:10A6D00013F034FFB9F1000F0CDD4AAD0124013451
:10A6E000F5E8022313F02CFFA145F8DA079B002BB5
:10A6F00040F014810B9BC3E90201069B03F00700A5
:10A700000DF5197DBDE8F08F00000040FB21F93FF9
:10A710000000E03F0000F03F0000703E38FC030006
:10A7200048AB0393B9F1000F40F32781039ACDF8AA
:10A7300010904FEAC9030193D318D3E900AB09F194
:10A740000053013B02EBC9080293914678E9026786
:10A7500052465B463046394613F0F2FE04460D463B
:10A7600002460B463046394613F0E8FE52465B4639
:10A7700013F0E6FEC145A246AB46C8E90201C8E9AE
:10A780000045E3D1DDF81090B9F1010F40F3F580F9
:10A79000019B039A02991344C900D3E9006701F1B0
:10A7A000080A019192440DF5947B7AE902893246B8
:10A7B0003B464046494613F0C3FE04460D4602465A
:10A7C0000B464046494613F0B9FE32463B4613F06D
:10A7D000B7FED34526462F46CAE90201CAE900451D
:10A7E000E3D1019C039B1034002000211C4403F1A1
:10A7F000100574E9022313F0A3FEA542F9D1039CCE
:10A80000079ED4E90023D4E90245002E00F08A8097
:10A8100003F1004701F100430B99C1E90403069BD2
:10A820002646944605F1004403F00700C1E900C73D
:10A83000C1E902640DF5197DBDE8F08F089C039D08
:10A840000834002000212C4474E9022313F078FE20
:10A85000A542F9D1079B13B101F1004319460B9BA7
:10A86000C3E90001069B03F007000DF5197DBDE863
:10A87000F08FBBF1000F08F1010874DD022581E5BE
:10A8800000260027EFE600248EE5CDE90685059D2C
:10A89000304639466A4200F063FD0022384B0646D6
:10A8A0000F4614F089FA00B30022364B3046394681
:10A8B00013F0FCFF14F0AAFA044613F08DFF0022F7
:10A8C0002F4B13F0F3FF0B4602463946304613F088
:10A8D00035FE14F09BFA0BF101090CAB183543F867
:10A8E0002B00059543F829405FE63046394614F0C1
:10A8F0008DFA0CABD94643F82B0056E60B9C01F1C0
:10A900000043C4E900030B4603990246D1E9000164
:10A9100013F014FEB9F1000F3FF7DFAE01F1004371
:10A920001946E7E60B9EC6E90023069BC6E904012B
:10A9300003F00700C6E902450DF5197DBDE8F08F6B
:10A94000A29B032B3FF6D9AE01A252F823F000BF21
:10A9500061A9020093A6020093A6020021A70200AB
:10A960000020002176E732463B460020064913F0DE
:10A97000E5FD022506460F462BE5002000213EE7B7
:10A98000000070410000703E0000F03F0000000039
:10A990002DE9F04F21F00046B6F1795F85B004460D
:10A9A0000D469046994604DA14F030FA002800F07B
:10A9B000858022462B462046294613F077FF06461F
:10A9C0000F4602460B462046294613F06FFF41A36F
:10A9D000D3E9002382468B463046394613F066FFA2
:10A9E0003EA3D3E9002313F0A9FD32463B4613F002
:10A9F0005DFF3CA3D3E9002313F0A2FD32463B46A2
:10AA000013F054FF39A3D3E9002313F097FD324626
:10AA10003B4613F04BFF37A3D3E9002313F090FD1F
:10AA20000E9BCDE900019BB30022294B40464946CD
:10AA300013F03CFFDDE90023CDE902015046594601
:10AA400013F034FF02460B46DDE9020113F076FDF8
:10AA500032463B4613F02AFF42464B4613F06EFD4A
:10AA600019A3D3E9002306460F465046594613F072
:10AA70001DFF02460B463046394613F061FD024683
:10AA80000B462046294613F059FD05B0BDE8F08F6E
:10AA900002460B463046394613F008FF0AA3D3E9B5
:10AAA000002313F04BFD52465B4613F0FFFE224697
:10AAB0002B4613F045FD05B0BDE8F08F2046294632
:10AAC00005B0BDE8F08F00BF495555555555C53FF8
:10AAD0000000E03F7CD5CF5A3AD9E53DEB9C2B8A6C
:10AAE000E6E55A3E7DFEB157E31DC73ED561C1196B
:10AAF000A0012A3FA6F810111111813F00000000AB
:10AB00002DE9F04FC04C21F0004687B0A6428246A6
:10AB10008B460F46CDE900231ADC14F077F90028A4
:10AB20003FD1109B524601331343334300F0B781AA
:10AB3000109B012B00F0C0815B460020B34913F04D
:10AB4000DFFF04460D462046294607B0BDE8F08FDA
:10AB5000AF4B9E4225DD002909DADDE9004522469A
:10AB600005F10043CDE900230BF100418B4652462D
:10AB70005B4685A1D1E9000113F0E0FCDDE900238B
:10AB800004460D4682A1D1E9000113F0D7FC9FEDE8
:10AB9000827B22462B468DED007B13F0D1FC824652
:10ABA0008B4652465B465046594613F07FFE02469E
:10ABB0000B468046894613F079FE424604460D4610
:10ABC0004B465046594613F071FE75A3D3E9002356
:10ABD000CDE902012046294613F068FE72A3D3E9AD
:10ABE000002313F0ADFC22462B4613F05FFE70A34A
:10ABF000D3E9002313F0A4FC22462B4613F056FEA3
:10AC00006DA3D3E9002313F09BFC22462B4613F0DF
:10AC10004DFE6BA3D3E9002313F092FC22462B4692
:10AC200013F044FE68A3D3E9002313F089FC4246E5
:10AC30004B4613F03BFE66A3D3E90023CDE90401A4
:10AC40002046294613F032FE63A3D3E9002313F014
:10AC500077FC22462B4613F029FE61A3D3E900239B
:10AC600013F06EFC22462B4613F020FE5EA3D3E9C0
:10AC7000002313F065FC22462B4613F017FE5CA35D
:10AC8000D3E9002313F05CFC22462B4613F00EFEA2
:10AC900059A3D3E9002313F053FC02460B46DDE928
:10ACA000040113F04DFCDDE9022313F0FFFDDDE9A3
:10ACB000004522462B4613F043FC42464B4613F018
:10ACC000F5FD22462B4613F03BFC4DA3D3E90023B0
:10ACD00004460D46DDE9020113F0E8FD22462B464D
:10ACE00013F02EFC0B4602468046894650465946D4
:10ACF00013F026FC464B9E4204460D4600F38C8022
:10AD0000109B012B3BD002460B4600203F4913F01D
:10AD1000F7FE002406460F462046294652465B466B
:10AD2000CDE90067CDE90201009413F007FCDDE9ED
:10AD300000AB02460B464046494613F0FFFB524625
:10AD40005B4613F0B3FD524604460D465B46DDE913
:10AD5000020113F0ABFD00222E4B13F0F1FB024673
:10AD60000B462046294613F0EBFB32463B4613F0D8
:10AD70009DFD52465B4613F0E3FB04460D4620461C
:10AD8000294607B0BDE8F08F182D4454FB21E93F58
:10AD9000075C143326A6813C000000000000000080
:10ADA000D47ABF74702AFB3EE9A7F0320FB8123F85
:10ADB00068108D1AF726303F1583E0FEC8DB573F39
:10ADC00093846EE9E326823FFE41B31BBAA1AB3FF9
:10ADD000735360DBCB75F3BEA69237A0887E143F19
:10ADE0000165F2F2D844433F280356C9226D6D3FF6
:10ADF00037D60684F464963F7AFE10111111C13FD4
:10AE0000635555555555D53FFFFF2F3E0000F0BF08
:10AE10002794E53F0000F03F109813F0DDFC224638
:10AE2000CDE900012B462046294613F03FFDDDE920
:10AE30000023CDE902012046294613F081FB02469A
:10AE40000B46DDE9020113F05BFE42464B4613F070
:10AE500075FB02460B465046594613F06FFB0246FF
:10AE60000B4613F06DFB02460B46DDE9000113F0C3
:10AE700065FB0446B81700F00200C0F101000D4662
:10AE800013F0AAFC02460B462046294613F00EFD9D
:10AE900004460D462046294607B0BDE8F08F5046CF
:10AEA000594611F083FC02460B460020044913F07A
:10AEB00027FE04460D4662E754465D465FE700BF45
:10AEC0000000F03F000000002DE9F04FCC4A21F0D7
:10AED0000043934285B082468B460C4620D9C94A2E
:10AEE000934200F2D780002C80F2A481ACA3D3E976
:10AEF00000235046594613F023FB0022002313F091
:10AF000047FF002840F0D180A7A3D3E90023504693
:10AF1000594613F0CBFC02460B460020BA4994E197
:10AF2000BA4A934200F2E580B94A934240F22E8138
:10AF3000002301930022B74B5046594613F0B6FC4C
:10AF400006460F4602460B465046594613F0AEFCE5
:10AF500097A3D3E9002304460D4613F0A7FC96A35C
:10AF6000D3E9002313F0ECFA22462B4613F09EFCA3
:10AF700093A3D3E9002313F0E1FA22462B4613F002
:10AF800095FC91A3D3E9002313F0DAFA22462B466D
:10AF900013F08CFC8EA3D3E9002313F0CFFA2246E2
:10AFA0002B4613F083FC00229B4B13F0C9FA80461A
:10AFB000894602460B463046394613F077FC024676
:10AFC0000B460020954913F0B9FA064602460B4697
:10AFD0000F464046494613F0B1FA3246804689464C
:10AFE0003B465046594613F061FC02460B46002092
:10AFF0008B4913F0A3FA02460B464046494613F02C
:10B000007FFD22462B4613F051FC019E02460B4663
:10B01000002E4DD0DDE9026732463B4613F08EFA32
:10B0200052465B4613F042FC32463B4613F086FA2A
:10B030002B46224613F082FA019B013306460F4647
:10B0400000F02381019B012B7BD0019A531C392BEB
:10B050004FEA025500F22881019A132A40F35581E4
:10B06000019BC3F57F7403340022230513F068FAB3
:10B0700002460B465046594613F060FA0022664BD2
:10B0800013F05EFA824605EB010B5046594605B0B7
:10B09000BDE8F08F634A93421BD9C1F31303034306
:10B0A000024640F012810029EFDA00205E490DE0EF
:10B0B0005046594613F0FAFB22462B4613F03EFA4F
:10B0C00002460B465046594613F038FA05B0BDE823
:10B0D000F08F41A3D3E9002313F078FE00283FF45A
:10B0E00002AF3FA3D3E900231046194613F0DEFB5D
:10B0F000ECE74E4A934200F2EC8000293AA3D3E9F0
:10B10000002339DA13F01CFA39A7D7E900674FF0AA
:10B11000FF3380468946019332463B4640464946C6
:10B1200013F00CFA02460B4682468B4640464946CF
:10B1300013F004FA32463B4613F000FACDE902015F
:10B14000F8E600223A4B5046594613F021FE0028FB
:10B1500000F0CC805046594600222E4B13F0F0F9F7
:10B1600002460B463046394613F0E8F900224FF00C
:10B17000404313F09BFBA9E713F0E0F9012380465D
:10B18000894601931CA7D7E90067C5E714A3D3E953
:10B19000002313F0D5F902460B468FE7AFF300808A
:10B1A00059F3F8C21F6EA501FE822B654715F73FC4
:10B1B0002DC3096EB7FD8ABE3952E686CACFD03E8E
:10B1C000B7DBAA9E19CE143F8555FE19A0015A3F40
:10B1D000F41011111111A13FEF39FAFE422E8640F1
:10B1E0009C7500883CE4377E0000E0FE422EE63F7E
:10B1F000763C7935EF39EABD763C7935EF39EA3D71
:10B2000079684340412E86400000E0BF422ED63F81
:10B21000FFFF8F3C0000E03F0000F03F00000840CF
:10B2200000001840FFFFEF7F0000F0BFB1A2F03F29
:10B230000000D0BF44A3D3E900235046594613F081
:10B2400035FB02460B460020414913F079F913F013
:10B25000DDFD019013F0C0FA37A3D3E900230646C1
:10B260000F4613F023FB02460B465046594613F097
:10B2700065F933A3D3E90023804689463046394631
:10B2800013F014FB06460F4646E702460B465046AF
:10B29000594613F053F900222D4B13F007FB0022FF
:10B2A0002B4B13F04BF911E752465B4613F046F96E
:10B2B00002460B460020274913F040F96B18194647
:10B2C0000022244B13F03AF900E70B4613F038F94B
:10B2D000FCE61DA3D3E9002313F0E8FA002C024694
:10B2E0000B464FF00000AFDA1B49AEE732463B4653
:10B2F0005046594613F022F902460B4613F020F946
:10B300000022144B13F01CF9E0E64FF4001343FA4B
:10B3100002F452465B4613F011F9C4F17F57002640
:10B3200007F5401702460B463046394613F006F93A
:10B33000A8E600BFAFF300800000E0FE422EE63F2B
:10B34000763C7935EF39EA3DFE822B654715F73FAC
:10B350000000E03F0000F03F0000E0BF0000000000
:10B36000F8B5C1F30A5304460D460E4617460BBB0B
:10B3700021F00046034633431BD0354B002213F027
:10B3800095FA344B9F4204460D4635DBC1F30A5310
:10B390000E46363B3B4440F2FE72934232DC002BB9
:10B3A00011DD26F0FF4626F4E00646EA0355204666
:10B3B0002946F8BD40F2FF729342EBD102460B469C
:10B3C00013F0BEF8F8BD13F1350F28DA4CF2503304
:10B3D0009F4222462B460ADD19A1D1E9000113F054
:10B3E0001FF817A3D3E9002313F060FAF8BD16A1E4
:10B3F000D1E9000113F014F813A3D3E9002313F0EB
:10B4000055FAF8BD22462B460DA1D1E9000113F0F3
:10B4100007F80BA3D3E9002313F048FAF8BD26F090
:10B42000FF4626F4E006363346EA03552046294611
:10B430000022094B13F03AFAF8BD00BFAFF30080C9
:10B440009C7500883CE4377E59F3F8C21F6EA50155
:10B4500000005043B03CFFFF0000903C10B5054C8D
:10B46000237833B9044B13B10448AFF300800123B0
:10B47000237010BD10850020000000006C14040033
:10B4800008B5034B1BB103490348AFF3008008BD67
:10B4900000000000148500206C140400154B002BE4
:10B4A00008BF134B9D46A3F5803A00218B460F46FB
:10B4B0001348144A121A09F0D5F90F4B002B00D08B
:10B4C00098470E4B002B00D0984700200021040025
:10B4D0000D000D48002802D00C48AFF3008012F098
:10B4E000D5FF2000290005F0F5F912F0BBFF00BFE1
:10B4F0000000080000000420000000000000000020
:10B5000000840020808C002000000000000000006B
:10B5100070B504460E4600F047FA88B10368DB6A4E
:10B5200005469847082C0CD0A4F10903012B14D927
:10B530003246214610230D20BDE8704004F058B873
:10B5400070BD2B6828465B6A98470228F0DC2B68A0
:10B5500028461B6A04219847EAE72B6828465B6A5D
:10B5600098470528E4DC2B6828461B6A0821984781
:10B57000DEE700BF38B52DED028B054600F014FA6A
:10B58000044640B10368DB6A9847032D03D8DFE81F
:10B5900005F02F363D06BDEC028B002038BD20465D
:10B5A0000CF0CEFC07EE900A2046F8EEE78A0CF08D
:10B5B000D7FC07EE900A2046B8EEE78A0CF0E0FCD4
:10B5C00068EE087A07EE100AE8EEA87AB8EEC77AB5
:10B5D000E7EE077AF5EE407AF1EE10FAB1EEE78A7F
:10B5E0001BD4FDEEC87ABDEC028B17EE900A38BD75
:10B5F000BDEC028B2046BDE838400CF0A1BCBDEC90
:10B60000028B2046BDE838400CF0AABCBDEC028B92
:10B610002046BDE838400CF0B3BC17EE900A11F09C
:10B62000FBFDDEE738B5044600F0BEF958B103680B
:10B63000DB6A0546984744B1012C04D12846BDE891
:10B640003840FBF73DB9002038BD2846BDE83840FA
:10B65000FBF716B910B5044600F0A6F928B1036847
:10B6600021461B6ABDE81040184710BD00487047CE
:10B6700016FCFFFF704700BF10B5034B0360044684
:10B680000CF03AFA204610BDDC09040010B5054B59
:10B69000036004460CF030FA204613F08FFE20467B
:10B6A00010BD00BFDC0904002DE9F041032184B086
:10B6B0000546512001F0DAFCDFF8E8C2AE4B044643
:10B6C00004F00F06C4F3031714F4807408BF634634
:10B6D000AA4831463A460BF0EFFB221C18BF012264
:10B6E00031463B4628460EF0EBFC0023AB60A448F5
:10B6F0000BF0E2FB4FF0FF31032001F0B7FCC0B2CA
:10B7000004F08CFA4FF0FF310446022001F0AEFC49
:10B71000C0B204F083FA002C3BD0002839D0014697
:10B72000204604F041F8064600284DD04FF0FF3186
:10B73000462001F09BFC322804464ED04BDD3828D1
:10B7400000F0B18068285FD14FF0FF31012001F097
:10B750008DFCC0B204F062FA80464C2013F037FE34
:10B76000052301934246009431462B4607460DF0CF
:10B770009DFCAF603B6838469B6A9847A8680368A1
:10B78000DB6A98477F480BF097FB284604B0BDE87A
:10B79000F0817D480BF090FB4FF0FF31192001F054
:10B7A00065FCC0B204F03AFA4FF0FF3104461820AD
:10B7B00001F05CFCC0B204F031FA0146204603F00F
:10B7C000F3FF06460028B1D170480BF075FB284600
:10B7D00004B0BDE8F081302816D14FF0FF310120D0
:10B7E00001F044FCC0B204F019FA80464C2013F07A
:10B7F000EEFDA4B20746052301934246009431466C
:10B800002B460DF009FAB4E701243268CDE9004473
:10B810000023176AAB600F220DF10F03322130466F
:10B82000B847002800F085803368CDE900440F2236
:10B830001F6A30210DF10F033046B84700284AD067
:10B840003368CDE900440D221F6A38210DF10F0342
:10B850003046B847002872D03268CDE900440DF177
:10B860000F03176A682175223046B847002845D172
:10B87000682147480BF020FB4FF0FF31204601F0D4
:10B88000F5FBC0B204F0CAF980464C2013F09FFDCE
:10B8900005246823CDE90034424631462B4607464D
:10B8A0000DF004FC65E74FF0FF31012001F0DEFBF5
:10B8B000C0B204F0B3F98046442013F088FD05239C
:10B8C0000746019342462B46009431460DF046FB55
:10B8D000304B3B604DE730212D480BF0EDFA302422
:10B8E0004FF0FF31012001F0C1FBC0B204F096F926
:10B8F00080464C2013F06BFD07467CE726480BF092
:10B90000DBFAAF68002F7FF435AF4FF0FF31032033
:10B9100001F0ACFBC0B204F081F930B11F480BF06C
:10B92000CBFA284604B0BDE8F0811D480BF0C4FAFC
:10B930004DE7322116480BF0BFFA3224D0E7382108
:10B9400013480BF0B9FA4FF0FF31204601F08EFB9F
:10B95000C0B204F063F98046442013F038FD05249A
:10B9600038230746CDE9003442462B4631460DF0D8
:10B97000F5FA084B3B60FCE6BCFC0300CCFC030082
:10B98000ECFC0300ACFD0300FCFC030010FD030015
:10B990003CFD030088FC030028FD030050FD03006C
:10B9A0008CFD0300C4FC030038B5114C23680BB1B7
:10B9B000986838BD4FF0FF31012001F057FBC0B24D
:10B9C00004F02CF940B10C2013F001FD0546FFF7FF
:10B9D0006BFE2560A86838BD4FF0FF31032001F0F1
:10B9E00045FBC0B204F01AF90028ECD138BD00BF05
:10B9F0002C85002008B501F06BFCFBF7D5FCBDE8F9
:10BA0000084001F0C5B900BF08B501F061FCFBF7C3
:10BA10003BFDBDE8084001F0BBB900BF08B501F02F
:10BA200057FC10F039FFBDE8084001F0B1B900BF84
:10BA300008B501F04DFC11F02BFBBDE8084001F00A
:10BA4000A7B900BF08B501F043FCFBF7BDFCBDE89A
:10BA5000084001F09DB900BF08B501F039FC11F0B4
:10BA60004DF9BDE8084001F093B900BF08B501F0F9
:10BA70002FFCFAF745FFBDE8084001F089B900BF87
:10BA800008B501F025FC11F08FF8BDE8084001F081
:10BA90007FB900BF70B5049E96420C4624DB154664
:10BAA0006BB9042A19D0022A02D110F0010310D078
:10BAB00001462A46204607F043FD002070BD104491
:10BAC0000D4410F8013D01F8013B8D42F9D10020F1
:10BAD00070BD02880A80184670BD10F00303E7D1DC
