:020000040002F8
:106000000000042041C2030069C203006BC2030008
:106010006DC203006FC2030071C2030000000000E4
:1060200000000000000000000000000073C2030038
:1060300075C203000000000077C2030079C20300AC
:106040007BC20300DDB30300E1C00300A5C0030071
:10605000B9C003007BC20300E1AE03007BC20300B2
:1060600035BD03003DBD030045BD03007BC20300F9
:106070007BC203007BC203007BC203007BC2030020
:106080007BC203007BC203007BC203007BC2030010
:106090007BC203007BC203007BC203007BC2030000
:1060A0007BC203007BC203004DBD030055BD03004E
:1060B0007BC203007BC20300000000000000000060
:1060C0007BC203007BC203007BC20300CDC0030080
:1060D0007BC203007BC203007BC203007BC20300C0
:1060E00009C103007BC203007BC203000000000063
:1060F000000000007BC2030000000000F5C00300A8
:10610000000000000000000000000000000000008F
:10611000000000000000000000000000000000007F
:10612000000000000000000000000000000000006F
:10613000000000000000000000000000000000005F
:10614000000000000000000000000000000000004F
:10615000000000000000000000000000000000003F
:10616000000000000000000000000000000000002F
:10617000000000000000000000000000000000001F
:10618000000000000000000000000000000000000F
:1061900000000000000000000000000000000000FF
:1061A00000000000000000000000000000000000EF
:1061B00000000000000000000000000000000000DF
:1061C00000000000000000000000000000000000CF
:1061D00000000000000000000000000000000000BF
:1061E00000000000000000000000000000000000AF
:1061F000000000000000000000000000000000009F
:106200007CB0EE877CB0EE87FF00FF00FF00FF0050
:10621000FF00FF00FF00FF00FF00FF00FF00FF0086
:10622000FF00FF00FF00FF00FF00FF00FF00FF0076
:10623000FF00FF00FF00FF002DE9F04F85B0039144
:106240000778A7F10903042B044607F07F0200F149
:106250000100F5D9202AF3D02B2F04BF677804461C
:106260002D2F75D09FED427B8DED007B4FF0000808
:106270004FF000099FB34FF0000C25464FF0000A85
:10628000DFF8FCB0644619E018F09CFC80468946B3
:10629000304618F02DFC42464B4618F0DDFA5246C7
:1062A000804689465B46DDE900013CB318F0B4FD49
:1062B000CDE90001A44615F8017F7FB1A7F13006B2
:1062C000092E52465B4640464946DDD9CCB92E2FB1
:1062D00017D115F8017F0124002FEFD12C4642463B
:1062E0004B46DDE9000118F06DFC80468946039BB2
:1062F000404649461C6005B0BDE8F08F4FF0010CE8
:10630000D9E72C46BCF1000F29D042464B46DDE9C7
:10631000000118F057FC07F0DF07452F804689463B
:10632000E5D10399681C0A2218F07AFA144902464A
:10633000002018F0F7FF02460B464046494618F089
:1063400041FC804689464046494605B0BDE8F08F8D
:106350009FED097B67788DED007B013486E7DFF8E0
:1063600024904FF000084046494605B0BDE8F08F44
:10637000000000000000F03F000000000000F0BF3F
:10638000000024400000F87F2DE9F0470023144668
:1063900000228046894618F087FE28B109F10043A3
:1063A00099462D232370013400220023404649469C
:1063B00018F070FE28B13022002322706370BDE80F
:1063C000F0874046494616F06FFF18F0ABFE73A306
:1063D000D3E9002307464946404618F065FE0028E9
:1063E0004ED170A3D3E900234046494618F07AFE07
:1063F000002845D10E2F07F1010540F3B980A7F120
:106400000E0632460020624918F08CFF02460B4609
:106410004046494618F000FD00225E4B18F01CFA79
:1064200018F0BCFF002DA7F10F0E4FF0010C4DDD51
:10643000594FDFF87881012245F6F3294FF02E0AF3
:10644000494508BF40454FF030030AD3B0EB080080
:1064500061EB0901494508BF404503F10103F5D24D
:10646000DBB2237050EA010304F101084AD19542DE
:1064700052DD0132102A4FD0444677E90289DFE726
:10648000002F33DB3A460020414918F04BFF02460B
:106490000B464046494618F0BFFC3BA3D3E9002316
:1064A00080468946012500264046494618F08AFB69
:1064B0000022384B18F0D0F918F070FF002DBC46C0
:1064C0004FF0FF3E37464FF00006B1DC2346302246
:1064D0004FF02E0803F8022B84F80180FC4345D0CE
:1064E0001C4403F8012BA342FBD1A1E77A42002010
:1064F000274918F017FF02460B464046494618F058
:1065000061FBCAE7954202F1010204BF84F801A0D1
:1065100004F10208102AAFD16EB14246302102F8D0
:10652000011BC2F1010373444344002BF7DC2EEA44
:10653000EE7301339844BCF1010F12D0BCF1000F8F
:106540004FF0650388F80030C5BF2B2388F8013071
:1065500008F1010108F102016046BDE8F04710F0C2
:10656000EFBA002388F80030BDE8F0871C465FE7EB
:10657000C7F10E020020064918F0D4FE3E4602463E
:106580000B46012790E700BF0000901EC4BCD64216
:10659000000024400000E03FC0FE03008DEDB5A0E8
:1065A000F7C6B03E50EFE2D6E41A4B4400407A10F2
:1065B00070B54FF0FF3006F017FA04466FF07F40D9
:1065C00006F012FA0646204618F082FA00220C4B1A
:1065D00018F0F8FA044630460D4618F079FA06A38A
:1065E000D3E9002318F018FC02460B462046294642
:1065F00018F032F970BD00BF0000E0DFFFFF6F430D
:106600000000F03D000000002DE9F04F1D46138909
:10661000AB4288BF536885B004468CBF53F8250051
:10662000002090468A4606F053FE0022904B18F058
:10663000C9FA18F077FDB8F808206B1C9A4288BF99
:10664000D8F8042006468CBF52F82300002006F03C
:106650003FFE0022864B18F0B5FA18F063FDB8F83B
:1066600008300235AB4288BFD8F8043007468CBFEB
:1066700053F82500002006F02BFE002EC4E9006729
:1066800040F3E280002F40F3DF8071A3D3E90023C1
:10669000002584F8285016F029FD002200238046AA
:1066A000894618F001FD40B14046494668A3D3E948
:1066B000002318F0D1F88046894667A3D3E9002368
:1066C0004046494618F00EFDC0B165A3D3E900234A
:1066D0004046494618F0F2FC80B101234046494645
:1066E00084F8283060A3D3E9002318F0B5F858A344
:1066F000D3E9002316F0FAFC8046894600225D4B60
:106700004046494618F05EFA16F024FA01F10043BB
:1067100000221946564B18F055FA18F003FD494669
:106720000546404616F0D2F90022514B18F04AFABD
:1067300018F0F8FCDAF804304F49B3F80CB0B3F8AD
:106740000AA0A56007FB0BF303EB010806FB0AF6A2
:10675000019388FB05234FEA124C00960E444CEA45
:10676000034C06EA010383FB009A06EB0C0E0EEACB
:10677000010ED346CA468EFB00675246CDE902673A
:10678000120C42EA0B42DDE902AB0CEA010C8CFB75
:1067900000674FEA164956460A40360C46EA0B4651
:1067A00049EA074982FB05AB5F46C144B0445646FF
:1067B000CDE90267039FE060360C09EA010908EAA7
:1067C000010846EA074689FB05AB334488FB0556BA
:1067D000CDE9025655462D0C45EA0B45DDE902ABE5
:1067E0000B40AC4403EAE3770CEA010C554623EA7C
:1067F000E37367454FEA154502EAE276A8BF6746AC
:1068000045EA0B45634522EAE272B8BF6346AE44EF
:106810004E450EEA010EA8BF4E464A45B8BF4A464D
:106820007745A8BF77467345B8BF73464645A8BFAE
:106830004646C4E905634245B8BF424600980199FF
:10684000206261622761E261204605B0BDE8F08FF9
:10685000EA2E4454FB211940F4D64354FB21F93F5E
:10686000320D337F7CD91240EA2E4454FB2109407B
:106870000000F0400000E03F0000FFFF00000000CB
:1068800008B511F025FCDFED0C7A07EE100A67EE73
:10689000277A17EE900A18F03DF905A3D3E90023F3
:1068A00018F0BAFA18F03EFC08BD00BFAFF3008044
:1068B000EA2E4454FB2119400000B44300000000BC
:1068C00008B511F019FCDFED0C7A07EE100A67EE3F
:1068D000277A17EE900A18F01DF905A3D3E90023D3
:1068E00018F09AFA18F01EFC08BD00BFAFF3008044
:1068F000EA2E4454FB2119400000B443000000007C
:10690000494A21F0004393422DE9704304460D4665
:1069100049DC464A93420E460EDC3FA3D3E90023EE
:1069200017F09AFF0022424B18F0DCFB00284AD0F7
:1069300020462946BDE870833E4A934239DCB3F1D4
:10694000804F40DD16F0BEF82246804689462B4631
:106950002046294618F036F90022354B17F07CFF07
:1069600016F04CFF42464B4617F076FF02460B46A8
:1069700000202F4918F050FA424604460D464B4677
:106980004046494617F068FF02460B462046294616
:1069900017F062FF02F040F8002E08DC01F100431E
:1069A0001946BDE8708302460B4617F055FFBDE857
:1069B000708316F087F802F02FF819A3D3E90023AB
:1069C00017F04AFFE8E722462B462046294618F0F2
:1069D000F9F8804689462046294616F073F80022C9
:1069E00004460D46124B4046494617F035FF16F057
:1069F00005FF00220E4B17F02FFF02460B464046C4
:106A0000494618F009FA22462B4617F025FF00F0F8
:106A1000A7FAC1E7AFF300809C7500883CE4377E9D
:106A2000EF39FAFE422EE63FFFFFEF7FFFFF2F3EDA
:106A30000000F03F0000B0412DE9F84FBE4B21F0BF
:106A400000469E4204460D468A460EDDBB4B9E42E2
:106A500000F3B18000F0AC80BAF1000F40F3EA809F
:106A600099A1D1E90001BDE8F88FB54B9E4200F332
:106A7000BA80A3F1DE739E4240F3A5804FF0FF3B46
:106A800022462B462046294618F09CF802460B4623
:106A90008046894618F096F88DA3D3E90023064670
:106AA0000F4618F08FF88CA3D3E9002317F0D4FE1B
:106AB00032463B4618F086F889A3D3E9002317F045
:106AC000CBFE32463B4618F07DF887A3D3E900237E
:106AD00017F0C2FE32463B4618F074F884A3D3E99F
:106AE000002317F0B9FE32463B4618F06BF882A33C
:106AF000D3E9002317F0B0FE42464B4618F062F887
:106B00007FA3D3E90023804689463046394618F0F2
:106B100059F87DA3D3E9002317F09CFE32463B468B
:106B200018F050F87AA3D3E9002317F093FE324609
:106B30003B4618F047F878A3D3E9002317F08AFE04
:106B400032463B4618F03EF875A3D3E9002317F010
:106B500081FE32463B4618F035F802460B46404669
:106B6000494617F079FE22462B4618F02BF8BBF168
:106B7000FF3F02460B4661D0724B734E4FEACB0B80
:106B80005B44D3E9002317F065FE22462B4617F03D
:106B900061FEB34402460B46DBE9000117F05AFEE2
:106BA000BAF1000F0DDA01F100431946BDE8F88F84
:106BB00000283FF451AF22462B462046294617F0C5
:106BC0004BFEBDE8F88F58A3D3E9002317F044FE2D
:106BD00000225E4B18F086FA00283FF44FAF2046A3
:106BE0002946BDE8F88F15F06DFF594B9E420446CB
:106BF0000D4629DCA3F550239E424EDC02460B468F
:106C000017F02AFE0022514B17F024FE0022064600
:106C10000F464FF080432046294617F01DFE0246DE
:106C20000B463046394618F0F7F84FF0000B044693
:106C30000D4625E73EA1D1E90001C2E720462946DD
:106C400017F008FEBDE8F88F424B9E421ADC002286
:106C5000414B17F0FFFD002206460F463E4B2046F3
:106C6000294617F0AFFF0022384B17F0F5FD02461A
:106C70000B463046394618F0CFF84FF0020B044669
:106C80000D46FDE602460B460020344918F0C4F8D4
:106C90004FF0030B04460D46F2E600222B4B17F093
:106CA000D9FD002206460F46284B2046294617F0FC
:106CB000D3FD02460B463046394618F0ADF84FF08A
:106CC000010B04460D46DBE6182D4454FB21F93F29
:106CD00011DA22E33AAD903FEB0D76244B7BA93FCE
:106CE000513DD0A0660DB13F6E204CC5CD45B73F9C
:106CF000FF8300922449C23F0D5555555555D53F48
:106D00002F6C6A2C44B4A2BF9AFDDE522DDEAD3F3B
:106D10006D9A74AFF2B0B33F711623FEC671BC3FDB
:106D2000C4EB98999999C93F9C7500883CE4377EDB
:106D3000182D4454FB21F9BFFFFF0F440000F07FE2
:106D4000FFFFDB3FE8FE0300C8FE03000000F03F4A
:106D5000FFFFF23FFF7F03400000F83F0000F0BF5D
:106D60002DE9F041C1F30A57A7F2FF35132D024672
:106D70000B460C468846064620DC002D4ADB364F83
:106D80002F4101EA070C5CEA000C1CD030A3D3E9C8
:106D9000002317F061FD0022002318F0A3F948B189
:106DA000002C04DD4FF4801343FA05F5A84428EACB
:106DB0000704002621463046BDE8F081332D06DD6C
:106DC000B5F5806F38D010461946BDE8F081A7F2BE
:106DD00013474FF0FF3C2CFA07F70742F3D01CA3F0
:106DE000D3E9002317F038FD0022002318F07AF9C8
:106DF0000028DFD0002C09DD142D22D00123C5F19D
:106E0000340503FA05F5AE1928BF984426EA0706AB
:106E10004446CFE70EA3D3E9002317F01DFD00225F
:106E2000002318F05FF90028C4D0002C0CDB2643A7
:106E300005D00026094CBDE717F00EFDC5E7344626
:106E4000B8E704F10108E1E700264FF00044B1E79C
:106E50009C7500883CE4377EFFFF0F000000F03F88
:106E60002DE9F041C1F30A57A7F2FF35132D024671
:106E70000B460C46884606461DDC002D3CDB364F93
:106E80002F4101EA070C5CEA000C19D030A3D3E9CA
:106E9000002317F0E1FC0022002318F023F9C8B307
:106EA000002C04DA4FF4801343FA05F5A84428EACD
:106EB000070400262EE0332D06DDB5F5806F2DD0BA
:106EC00010461946BDE8F081A7F213474FF0FF3C8A
:106ED0002CFA07F70742F3D01DA3D3E9002317F0DC
:106EE000BBFC0022002318F0FDF898B1002C21DB38
:106EF00026EA070644460DE015A3D3E9002317F060
:106F0000ABFC0022002318F0EDF818B1002C08DBD0
:106F10000026344621463046BDE8F08117F09CFC3F
:106F2000D0E724F000430D4A1E43002E18BF14463C
:106F30000026EFE7142D08D00123C5F1340503FA2C
:106F400005F5AE1928BF9844D2E704F10108CFE750
:106F50009C7500883CE4377EFFFF0F000000F0BF07
:106F60002DE9F04FD84B994287B08046894643DDE2
:106F7000D64B99420E4600F3F480D54B994240F32C
:106F80002D819FEDBB7B8DED047B4FEA215A04469A
:106F9000AAF2FF3ACF4BC6F313069E4246F07F5546
:106FA00000F3128145F44015204629460022CA4BC1
:106FB00017F050FC002204460D46C84B17F002FEA5
:106FC00022462B4617F0FEFDA046CDE90201A94658
:106FD000CDE90001002E3AD10022002320462946A7
:106FE00018F058F8002800F01B81BAF1000F40F0AB
:106FF000858100200021B8E0B94B21F000449C427B
:107000000A460FDD0022B74B18F044F8002800F0C4
:10701000AF80002200230020B34917F0FDFE07B027
:10702000BDE8F08FB14B9C4240F3AF80B04B1A44A7
:107030009A4240F2D3800022A84B17F0C3FD42468B
:107040004B4617F0BFFDCDE900014FF0000A0022CA
:107050004FF080434046494617F0FEFB02460B4680
:107060004046494617F0D8FE02460B4606460F46F4
:1070700017F0A8FD80A3D3E9002304460D4617F0BE
:10708000A1FD7FA3D3E9002317F0E6FB22462B46A0
:1070900017F098FD7CA3D3E9002317F0DDFB22460F
:1070A0002B4617F08FFD7AA3D3E9002317F0D4FB0A
:1070B00022462B4617F086FD77A3D3E9002317F06D
:1070C000CBFB22462B4617F07DFD75A3D3E90023A9
:1070D00017F0C2FB22462B4617F074FD72A3D3E9CA
:1070E000002317F0B9FB22462B4617F06BFDDDE9B4
:1070F000002317F0B1FB32463B4617F063FD044610
:107100000D46BAF1000F00F0A880504617F0F0FCD1
:1071100067A3D3E9002382468B4617F053FD66A38D
:10712000D3E9002306460F465046594617F04AFD5C
:10713000DDE9042317F090FB22462B4617F08CFB69
:1071400002460B46DDE9000117F084FB42464B4640
:1071500017F080FB02460B463046394617F07AFBA3
:1071600003E002460B4617F077FB07B0BDE8F08F4F
:1071700042464B464046494617F06CFB02460B46DA
:1071800017F04AFE07B0BDE8F08F0022594B17F008
:1071900063FB0022002317F0A5FF10B1564B9C4261
:1071A00062DD42464B464046494617F00BFD002241
:1071B0004A4B17F007FD02460B464046494617F07A
:1071C00049FB07B0BDE8F08F45F40015C6F5801601
:1071D00020462946B6100AF1010AE7E600223E4B96
:1071E0004046494617F038FB4FEA215AAAF2FF3AC7
:1071F000BAF1000F04460D460E4640F3BD804246EC
:107200004B4617F027FB02460B460020324917F089
:1072100021FB22462B4617F0FFFDCDE90401B9E61C
:1072200027A3D3E900232046294617F0CBFC0246CA
:107230000B460020284917F00DFBDDE9022317F06B
:10724000C1FC06460F46BAF1000F75D102460B4647
:107250002046294617F0FEFA87E702460B46DDE98D
:10726000000117F0F7FAA6E7404649467DE700BF60
:10727000000000000000000044523EDF12F1C23F57
:107280009FC678D0099AC33FDE03CB966446C73FBA
:10729000AF788E1DC571CC3F599322942449D23FBB
:1072A00004FA97999999D93F935555555555E53F06
:1072B0000000E0FE422EE63F763C7935EF39EA3DAC
:1072C000555555555555E53F7982DA3FFFFFEF7F1C
:1072D000FFFF3F439DA006000000F03F0000E03F9D
:1072E000FFFFEF3F0000F0BF000050C3FFFF1F3E55
:1072F0003C412D4000005043FFFF8F3C504617F0AB
:10730000F7FB24A3D3E9002306460F4617F05AFCE7
:10731000DDE9042317F0A0FA20A3D3E900230446F3
:107320000D463046394617F04DFC02460B462046C6
:10733000294617F091FA18E7504617F0D9FB17A322
:10734000D3E9002382468B4617F03CFC11A3D3E916
:107350000023804689465046594617F033FCDDE944
:10736000042317F079FA02460B463046394617F0E7
:1073700071FA22462B4674E70022054B17F06AFA91
:1073800002460B464046494617F064FA41E700BF03
:107390000000F03F763C7935EF39EA3D0000E0FE31
:1073A000422EE63F0000000008B515F0FFFE04A3E2
:1073B000D3E9002317F030FD08BD00BFAFF3008014
:1073C000EF39FAFE422EE63F2DE9F043DFF8B480B4
:1073D0008BB004460D4601F0F7F898F90030013300
:1073E00006460F462CD022462B462046294617F04B
:1073F00083FE814620BB2046294615F063FB1FA370
:10740000D3E9002317F06EFED0B1194A98F9003085
:10741000CDF820900321CDE90445CDE90245CDE921
:10742000001293B113490020022BCDE9060111D1BE
:1074300017F09EF922230360089B9BB9DDE90667DC
:10744000304639460BB0BDE8F0830B4B4FF060423D
:10745000CDE90623684617F007F80028E8D0089B16
:10746000002BEBD017F084F9089B0360E6E700BF20
:10747000F41004000000F07FFFFFEF477DF8B98FA4
:10748000CE338640FB8100202DE9F043DFF8E48015
:107490008BB004460D4601F047F998F900300133EE
:1074A00006460F4633D02046294616F0D7FF70B364
:1074B0002CA3D3E900232046294617F013FE81466A
:1074C00050BB2AA3D3E900232046294617F0ECFD40
:1074D000E8B198F90030204ACDF820900020002132
:1074E0000426022BCDE90445CDE902450096CDE9FD
:1074F0000601019229D0684616F0B6FF28B3089B12
:107500001BB117F035F9089B0360DDE906673046CB
:1075100039460BB0BDE8F0830F4A98F9003001926C
:1075200003210022CDE90445CDE9024500910892EE
:107530002BB90A4B4FF06042CDE90623DBE708493F
:107540000020022BCDE90601D5D117F011F9222335
:107550000360D4E7AFF30080FC100400FFFFEF47A7
:107560000000F07FEF39FAFE422E864051302DD5D3
:10757000104987C0FB8100202DE9F04FDFF82C93E4
:107580008DB006460F4614461D4601F09DFC99F944
:107590000080B8F1FF3FCDE9000136D022462B46EE
:1075A0002046294617F0A8FD834670BB32463B466D
:1075B0003046394617F0A0FD8246002840F0A280F0
:1075C000304639460022002317F064FD10B3002234
:1075D00000232046294617F05DFD8346002867D02A
:1075E0009FEDA77B0122AC4BCDF828A00292CDE9FC
:1075F0000467CDE906458DED087B0393B8F1000FD4
:1076000041D09FEDA17B8DED007BDDE900010DB048
:10761000BDE8F08FDDE9000116F020FF804600286C
:1076200000F08D804FF0000A4FF0000BDDE9000103
:1076300052465B4617F02EFD0028E6D0304639460C
:1076400016F00CFF0028E0D02046294616F006FF71
:107650000028DAD099F900308F4A039204210022E1
:10766000022BCDE90467CDE90645CDE908AB0291CF
:107670000A9203D002A816F0F7FE50B917F078F876
:107680002223036005E002A816F0EEFE002800F0B9
:107690009B800A9B1BB117F06BF80A9B03609DED62
:1076A000087B8DED007BDDE900010DB0BDE8F08FBA
:1076B0002046294616F0D2FE0028A6D0002200233C
:1076C0002046294617F0F0FC00289ED0724A99F90E
:1076D0000030CDF828B00121CDE90467CDE9064599
:1076E000CDE90212002B74D06C490020022BCDE9A9
:1076F000080172D117F03CF8212303600A9B002B8C
:10770000CDD0C8E7002200232046294617F0C2FC4E
:1077100000283FF47AAF624B5F49CDF828B00022D1
:107720000120B8F1020FCDE904670290CDE90645CA
:10773000CDE908230391A6D1CDE9002365E73046C2
:10774000394616F08BFE00283FF46CAF20462946E0
:1077500016F084FE00283FF465AFDDE900231046F3
:10776000194617F0C9FC99F900A000286BD1032332
:10777000DFF824C10A902946204602930022494B93
:10778000CDF80CC0CDE90645CDE9046717F01AFA2B
:1077900004460D46BAF1000F25D1DFF814B14FF0C1
:1077A000604A0022002330463946CDE908AB17F085
:1077B0007BFC38BB02A816F057FE00289ED116F0BD
:1077C000D7FF2223036099E716F0D2FF212303603D
:1077D0005FE79FED2B7B8DED087B02A816F044FE42
:1077E00000288BD186E79FED2A7B002200233046BC
:1077F00039468DED087B17F057FCA0B9BAF1020F9E
:10780000DDD0D7E72046294616F036FE22462B4625
:1078100017F040FCA0B9244B99F900A04FF060424A
:10782000CDE90823EAE72046294616F025FE224640
:107830002B4617F02FFC18B9184B0022CDE908236E
:1078400099F900A0DAE70122134BCDF828800292C3
:10785000CDE90467CDE906450393BAF1000FB8D02E
:10786000002200231046194617F0D6FABAF1020F8B
:10787000CDE908013FF43EAFAFE700BFAFF30080B2
:107880000000000000000000000000000000F03FC9
:10789000000000000000F07F141104000000F0FF61
:1078A0000000F03F0000E03FFFFFEFC7FB8100203A
:1078B000FFFFEF47000000002DE9F84FC44E21F014
:1078C0000043B34204460D460DDD03F1404303F58A
:1078D0008013034340F0B980002940F34081002029
:1078E0000021BDE8F88FBB4EB34208DCBA4A934290
:1078F00000F3B5809CA1D1E90001BDE8F88F002913
:10790000C0F2708102460B460020B44916F0A2FF77
:107910000022B34B17F056F904460D4615F06EFFE2
:1079200093A3D3E90023894680462946204617F0D1
:1079300049F991A3D3E9002316F08EFF22462B4686
:1079400017F040F98EA3D3E9002316F083FF2246F7
:107950002B4617F037F98CA3D3E9002316F07CFFF0
:1079600022462B4617F02EF989A3D3E9002316F0FF
:1079700071FF22462B4617F025F987A3D3E9002390
:1079800016F06AFF22462B4617F01CF984A3D3E9B0
:10799000002382468B462046294617F013F982A31E
:1079A000D3E9002316F056FF22462B4617F00AF9BA
:1079B0007FA3D3E9002316F04FFF22462B4617F092
:1079C00001F97DA3D3E9002316F044FF22462B469C
:1079D00017F0F8F80022814B16F03EFF02460B46E6
:1079E0005046594617F018FA42464B4617F0EAF847
:1079F000002682468B4632464B463046494617F0B3
:107A0000E1F802460B462046294616F023FF32468F
:107A100004460D464B464046494616F01DFF0246B9
:107A20000B462046294617F0F7F902460B4650460A
:107A3000594616F011FF32464B4616F00DFF02462E
:107A40000B4616F009FFBDE8F88F02460B4616F00C
:107A500001FF02460B4617F0DFF9BDE8F88F02463A
:107A60000B4617F0AFF842A3D3E9002306460F46B2
:107A700017F0A8F840A3D3E9002316F0EDFE324634
:107A80003B4617F09FF83EA3D3E9002316F0E2FE31
:107A900032463B4617F096F83BA3D3E9002316F095
:107AA000DBFE32463B4617F08DF839A3D3E90023BD
:107AB00016F0D0FE32463B4617F084F836A3D3E9E1
:107AC000002316F0C9FE32463B4617F07BF834A37C
:107AD000D3E90023804689463046394617F072F8CC
:107AE00031A3D3E9002316F0B5FE32463B4617F02A
:107AF00069F82FA3D3E9002316F0AEFE32463B46C9
:107B000017F060F82CA3D3E9002316F0A3FE324649
:107B10003B4617F057F80022304B16F09DFE024608
:107B20000B464046494617F077F922462B4617F098
:107B300049F802460B4622A1D1E9000116F08AFE5F
:107B400002460B462046294616F084FE02460B46A6
:107B500005A1D1E9000116F07DFEBDE8F88F1AA15C
:107B6000D1E9000179E700BF182D4454FB21F93F0A
:107B700009F7FD0DE13D023F88B20175E0EF493F95
:107B80003B8F68B52882A43F5544880E55C1C93F34
:107B90007D6FEB0312D6D43F555555555555C53F0E
:107BA00082922EB1C5B8B33F59018D1B6C06E63FDA
:107BB000C88A599CE52A00404B2D8A1C273A03406D
:107BC000075C143326A6913C182D4454FB21094030
:107BD000FFFFEF3FFFFFDF3F0000603C0000F03F92
:107BE0000000E03F00225C4B16F036FE00225B4BAB
:107BF00016F0E8FF40A3D3E9002304460D4616F033
:107C0000E1FF3FA3D3E9002316F026FE22462B46D0
:107C100016F0D8FF3CA3D3E9002316F01BFE224642
:107C20002B4616F0CFFF3AA3D3E9002316F014FE3B
:107C300022462B4616F0C6FF37A3D3E9002316F0E1
:107C400009FE22462B4616F0BDFF35A3D3E90023DB
:107C500016F002FE22462B4616F0B4FF80468946F7
:107C60002046294615F0CAFD2FA3D3E90023064676
:107C70000F462046294616F0A5FF2DA3D3E9002381
:107C800016F0E8FD22462B4616F09CFF2AA3D3E906
:107C9000002316F0E1FD22462B4616F093FF28A3A1
:107CA000D3E9002316F0D6FD22462B4616F08AFFB4
:107CB0000022294B16F0D0FD02460B4640464946AD
:107CC00017F0AAF832463B4616F07CFF1EA3D3E914
:107CD000002316F0BFFD32463B4616F0BDFD0246BE
:107CE0000B4616F0B9FD02460B4619A1D1E9000179
:107CF00016F0B0FDB1E600BF09F7FD0DE13D023F12
:107D000088B20175E0EF493F3B8F68B52882A43FF8
:107D10005544880E55C1C93F7D6FEB0312D6D43F41
:107D2000555555555555C53F82922EB1C5B8B33FEF
:107D300059018D1B6C06E63FC88A599CE52A004014
:107D40004B2D8A1C273A0340075C143326A6913C2E
:107D5000182D4454FB2109400000F03F0000E03F93
:107D6000414A91422DE9F84304460D4637DD3F4A2A
:107D700091420B4608DD02F1795291423DDD024607
:107D800016F06AFDBDE8F88301F1404202F5801269
:107D900002432ED0B1F1804F37DC0022344B16F075
:107DA00059FD02460B4604460D4616F055FD224687
:107DB00006460F462B462046294616F003FF02468C
:107DC0000B463046394616F047FD15F017FD2246A2
:107DD0002B4616F041FDBDE8F843FFF7C1B8024657
:107DE0000B4616F037FD02460B4617F015F8BDE8B6
:107DF000F88300200021BDE8F88300F00DFE18A3F1
:107E0000D3E9002316F028FDF1E7024616F0DAFE6A
:107E10000022174B16F01EFD15F0F0FC224680469E
:107E200089462B462046294616F016FD2246064670
:107E30000F462B464046494616F00EFD02460B46BD
:107E400000200B4916F0E8FF0B4602463946304643
:107E500016F000FDBDE8F84300F0DEBDAFF3008092
:107E6000EF39FAFE422EE63FFFFFEF3FFFFFAF4143
:107E70000000F03F000000002DE9F04FAE4B21F074
:107E800000479F4287B004460D4611DD07F1404789
:107E900007F5801703463B4321D002460B4616F0F8
:107EA000D9FC02460B4616F0B7FF07B0BDE8F08FCD
:107EB000A24B9F420E4629DCB7F1795F80F24681E2
:107EC00081A3D3E9002316F0C7FC00229C4B17F0D6
:107ED00009F9D8B12046294607B0BDE8F08F7CA348
:107EE000D3E9002316F06EFE7BA3D3E900230646F8
:107EF0000F462046294616F065FE02460B463046E0
:107F0000394616F0A9FC07B0BDE8F08F2046294697
:107F100014F0D8FD02460B460020894916F09AFC61
:107F20000022884B16F04EFE6DA3D3E900230446D1
:107F30000D4616F047FE6CA3D3E9002316F08CFC27
:107F400022462B4616F03EFE69A3D3E9002316F025
:107F500081FC22462B4616F035FE67A3D3E90023A9
:107F600016F07AFC22462B4616F02CFE64A3D3E9C9
:107F7000002316F06FFC22462B4616F023FE62A368
:107F8000D3E9002316F068FC22462B4616F01AFEB1
:107F90005FA3D3E90023CDE900012046294616F06E
:107FA00011FE5DA3D3E9002316F054FC22462B46B4
:107FB00016F008FE5AA3D3E9002316F04DFC224622
:107FC0002B4616F0FFFD58A3D3E9002316F042FC20
:107FD00022462B4616F0F6FD594B002216F03CFCCB
:107FE00082468B4620462946CDE902AB15F006FCB9
:107FF000554B9F428046894600F3198102460B4645
:1080000016F02AFCDDE90223CDE90401DDE90001D7
:1080100016F002FF02460B46DDE9040116F0D2FD20
:108020004FF0000ACDE9000152464B465046494602
:1080300016F0C8FD02460B462046294616F00AFCFB
:10804000524604460D464B464046494616F004FC4F
:1080500002460B462046294616F0DEFE02460B4637
:1080600016F0FAFB02460B461BA1D1E9000116F0FF
:10807000F1FB02460B46DDE9000116F0EBFB524630
:1080800004460D464B465046494616F0E5FB02466F
:108090000B4627A1D1E9000116F0DCFB02460B4696
:1080A0002046294616F0D6FB02460B4620A1D1E910
:1080B000000116F0CFFB002E3FF7F7AE01F10043B1
:1080C0001946F2E6AFF300809C7500883CE4377EE9
:1080D000182D4454FB21F93F075C143326A6913C2C
:1080E00009F7FD0DE13D023F88B20175E0EF493F20
:1080F0003B8F68B52882A43F5544880E55C1C93FBF
:108100007D6FEB0312D6D43F555555555555C53F98
:1081100082922EB1C5B8B33F59018D1B6C06E63F64
:10812000C88A599CE52A00404B2D8A1C273A0340F7
:10813000182D4454FB21E93FFFFFEF3FFFFFDF3FD6
:108140000000F03F0000E03F3233EF3F02460B46B5
:1081500016F038FD4BA3D3E9002306460F4616F070
:1081600031FD4AA3D3E9002316F076FB32463B46A5
:1081700016F028FD47A3D3E9002316F06BFB324627
:108180003B4616F01FFD45A3D3E9002316F064FB20
:1081900032463B4616F016FD42A3D3E9002316F003
:1081A00059FB32463B4616F00DFD40A3D3E90023B0
:1081B00016F052FB32463B4616F004FD3DA3D3E9D0
:1081C0000023804689463046394616F0FBFC3BA327
:1081D000D3E9002316F03EFB32463B4616F0F2FC94
:1081E00038A3D3E9002316F037FB32463B4616F09E
:1081F000E9FC36A3D3E9002316F02CFB32463B46BC
:1082000016F0E0FC00221E4B16F026FB02460B4641
:108210004046494616F000FE22462B4616F0D2FC98
:1082200022462B4616F018FB07B0BDE8F08F5246E9
:108230005B46DDE9000116F0EFFD42464B4616F0C5
:10824000C1FC42464B4616F007FB02460B4616F0B1
:1082500003FB07A3D3E9002316F0FCFA02460B4602
:1082600005A1D1E9000116F0F5FA24E7AFF300808B
:10827000075C143326A6913C182D4454FB21F93F8A
:108280000000F03F09F7FD0DE13D023F88B20175A6
:10829000E0EF493F3B8F68B52882A43F5544880EE4
:1082A00055C1C93F7D6FEB0312D6D43F5555555587
:1082B0005555C53F82922EB1C5B8B33F59018D1BAC
:1082C0006C06E63FC88A599CE52A00404B2D8A1C63
:1082D000273A0340000000002DE9F84F1D465342A5
:1082E000134325F00049DFF8C8C149EAD373634559
:1082F000144606460F4626D8C0F1000848EA000892
:1083000021F0004A4AEAD878E04503468B461AD85D
:1083100005F1404808F5801858EA0208AE4643D0F7
:108320004FEAA57808F002085AEA030348EAD17830
:1083300011D1B8F1020F55D0B8F1030F09D14AA1FC
:10834000D1E9000105E032463B462046294616F0B9
:1083500083FABDE8F88F59EA020329D0E1452ED00F
:10836000E24525D0AAEB09094FEA2959B9F13C0F9A
:108370003CDC002D3EDA19F13C0F3BDA00200021F5
:10838000B8F1010F4ED0B8F1020F3ED0B8F1000F96
:10839000DFD037A3D3E9002316F05CFA36A3D3E984
:1083A000002316F057FAD4E7BDE8F84FFEF744BBB8
:1083B000BBF1000F12DB32A1D1E90001C9E7CA45C8
:1083C00034D0B8F1020F0DD0B8F1030FB7D0B8F127
:1083D000010F4FF0000036D00021BAE72AA1D1E901
:1083E0000001B6E724A1D1E90001B2E724A1D1E957
:1083F0000001C5E722462B463046394616F00CFDF3
:1084000014F060FBFEF718FBBAE719A3D3E90023C9
:1084100016F020FA02460B4617A1D1E9000116F02A
:1084200019FA96E701F10043194692E7B8F1020FF5
:1084300014D0B8F1030F0DD0B8F1010F06D014A17C
:10844000D1E9000185E74FF0004182E712A1D1E9AF
:1084500000017EE712A1D1E900017AE712A1D1E97A
:10846000000176E7AFF30080182D4454FB2109C0CA
:10847000075C143326A6A13C182D4454FB21094067
:10848000182D4454FB21F93F182D4454FB21F9BF0A
:10849000182D4454FB21E93F182D4454FB21E9BF1A
:1084A000D221337F7CD902C0D221337F7CD90240D4
:1084B0000000F07F0000000043422DE9F047034335
:1084C00021F000463C4A46EAD373934204460D46E7
:1084D0002AD8964240D0394B9E428A462EDD384BF0
:1084E0009E4235463FDD33460246314616F0B4F92A
:1084F000224606460F462B4600202F4916F0AAF9C1
:1085000002460B463046394616F086FCFEF728FD3B
:1085100000222C4B16F056FBBAF1000F0CDA01F1D9
:1085200000431946BDE8F08702460B4616F092F963
:1085300002460B4616F070FCBDE8F0871CA3D3E999
:10854000002316F089F90022002316F0CBFD48B174
:1085500020462946BDE8F0870022002316F05CFC87
:10856000BDE8F087354622462B462046294616F0C0
:1085700073F922462B4606460F4616F023FB224689
:10858000804689462B4600200B4916F063F90246C7
:108590000B464046494616F03FFC32463B4616F035
:1085A0005BF9FEF7DDFC0022064B16F00BFBB3E790
:1085B0009C7500883CE4377E0000F03FFFFF2F3EB3
:1085C000FFFFDF3F0000E03F2DE9F8434E4B21F075
:1085D00000449C4206460F461BDC4C4B9C4222DD6D
:1085E0004B4B9C4254DD4B4B9C4246DD4A4B9C42DC
:1085F0006FDD01339C4269D041A3D3E900231046CB
:10860000194616F0DFFA06460F4630463946BDE8F1
:10861000F88302460B4616F0D5FA06460F4630465A
:108620003946BDE8F88314F04DFA02F04DFC002203
:108630003A4B8046894616F00FF9B4F1725F064650
:108640000F46ECDB42464B464046494616F0BAFA26
:1086500032463B4604460D463046394616F0FCF895
:1086600002460B462046294616F0D6FB00222B4B2D
:1086700016F0F2F806460F46D1E714F023FA00F0A0
:1086800053F80022264B16F09DFA06460F46C6E721
:1086900014F018FA00F048F80022214B06460F4665
:1086A00016F090FA324604460D463B4600201C491F
:1086B00016F0B2FB02460B462046294616F0CCF8CF
:1086C00006460F4630463946BDE8F883154B9842BA
:1086D00092D83046394614F0F5F90022104B16F0C6
:1086E00071FA00F021F8002204460D460C4B16F0FA
:1086F00069FA22462B4616F065FA06460F468EE7C3
:108700009C7500883CE4377EFFFFEF7F422ED63F0A
:10871000FFFF3540412E8640CD3386400000F03FBC
:108720000000E03F7DF8B98F2DE9F047B04F21F010
:108730000042BA4284B004460D464FEAD17610D9C1
:10874000AC4FBA4240F28A80C1F31303034302469E
:1087500040F0F180002E7ED00020002104B0BDE862
:10876000F087A54B9A4200F2B680A44B9A4240F2A1
:10877000D1804FF0000A22462B462046294616F0AB
:1087800021FA85A3D3E9002306460F4616F01AFA0C
:1087900083A3D3E9002316F05DF832463B4616F07A
:1087A00011FA81A3D3E9002316F056F832463B466E
:1087B00016F008FA7EA3D3E9002316F04BF83246F0
:1087C0003B4616F0FFF97CA3D3E9002316F044F8EA
:1087D00032463B4616F0F6F902460B46204629463D
:1087E00016F038F802460B4606460F462046294644
:1087F00016F0E8F980468946BAF1000F00F0AB8028
:1088000032463B4600204FF0804116F023F80246E6
:108810000B464046494616F0FFFA02460B46DDE994
:10882000020116F017F8DDE9002316F013F80B46E5
:1088300002467349002016F00DF86FF47F739A45D5
:1088400080F2A3800AF57A7A01EB0A5100224FF0F8
:10885000B87316F0B7F904B0BDE8F08758A3D3E9B0
:10886000002316F03FFC00286BD157A3D3E9002367
:108870002046294616F018FC00287FF46DAF6149A8
:1088800053A3D3E9002301EBC6062046294616F080
:1088900099F9D6E9002315F0DFFF16F043FC824674
:1088A00016F026F94CA3D3E9002306460F4616F02E
:1088B00089F902460B462046294615F0CBFF48A30E
:1088C000D3E90023CDE900013046394616F07AF9A4
:1088D000CDE9020115E04C4B9A42D0D84B4BF40045
:1088E0002344D3E9002315F0B5FF494B234493ED0E
:1088F000007BCDE900018DED027BC6F1010AAAEBF8
:10890000060ADDE90223DDE9000115F0A3FF0446B4
:108910000D4630E734A3D3E9002315F09DFF002274
:10892000374B16F0DFFBA8B3204629460022344B14
:1089300015F092FF8FE70B4615F08EFF04B0BDE8EF
:10894000F08729A3D3E900231046194616F03AF917
:1089500004B0BDE8F0873046394600224FF080432E
:1089600015F078FF02460B464046494616F054FA89
:1089700022462B4615F06EFF02460B46002020498A
:1089800015F068FF04B0BDE8F08701EB0A5104B0B0
:10899000BDE8F0878246EEE6D0A4BE726937663E37
:1089A000F16BD2C541BDBB3E2CDE25AF6A56113FEF
:1089B00093BDBE166CC1663F3E5555555555C53FD6
:1089C000EF39FAFE422E864051302DD5104987C02E
:1089D000FE822B654715F73F0000E0FE422EE63F82
:1089E000763C7935EF39EA3D9C7500883CE4377E6A
:1089F000412E8640FFFFEF7F422ED63FFFFF2F3EE6
:108A00000000F03F08FF0300B1A2F03F18FF030091
:108A100028FF0300000000002DE9F04FB1F5801F92
:108A200085B006460F460B4680F2D08021F000420A
:108A3000024300F0DA800029C0F2E9800022D64B20
:108A400016F0C0F8D54A0B46934206460F466FF023
:108A5000350E00F3C180C3F3130505F5152C0CF694
:108A6000647C0CF4801C8CF07F5282F440121C1544
:108A700042EA0507A4F2FF3474440022C84B304692
:108A8000394604EB1C5415F0E5FEAB1CC3F313038D
:108A9000022B82468B464FF0000240F3AF804FF02E
:108AA000804315F0D9FE02460B465046594616F053
:108AB000B3F9064620460F4616F01AF83246CDE9BD
:108AC00002013B4630463946CDE9006716F07AF898
:108AD00002460B468046894616F074F89AA3D3E9FD
:108AE000002306460F4616F06DF899A3D3E900233C
:108AF00015F0B2FE32463B4616F064F896A3D3E971
:108B0000002315F0A9FE32463B4616F05BF894A30D
:108B1000D3E9002315F0A0FE42464B4616F052F86A
:108B200091A3D3E90023804689463046394616F0A2
:108B300049F88FA3D3E9002315F08EFE32463B4659
:108B400016F040F88CA3D3E9002315F085FE3246D9
:108B50003B4616F037F80B4602464946404615F0AC
:108B60007BFEA5F5C223C5F5D725A3F27A4351357F
:108B70001D43002D06460F4640F387800022894B97
:108B80005046594616F01EF852465B4616F01AF843
:108B900002460B46804689463046394615F05CFE53
:108BA000DDE9002316F00EF806460F46002C40F0D3
:108BB000818002460B464046494615F04BFE024670
:108BC0000B465046594615F045FE0BE0734A93425A
:108BD0004FF0000E7FF73FAF32463B4630463946F6
:108BE00015F03AFE05B0BDE8F08F0022002300200A
:108BF0006D4916F011F905B0BDE8F08F002316F0AD
:108C000049FA60B1002C7CD100200021EAE702463D
:108C100015F020FE0022002316F0FEF8E2E758A32C
:108C2000D3E900235046594615F0CCFF02460B46C7
:108C300000205C4915F00EFE524606460F465B4684
:108C40005046594615F0BEFF02460B46304639469F
:108C500015F0B8FF06460F462CB3204615F048FF26
:108C600049A3D3E900238046894615F0ABFF48A30A
:108C7000D3E9002304460D464046494615F0A2FFBD
:108C800002460B46304639462CE002460B4650461B
:108C9000594615F0DFFDDDE9002315F093FF064688
:108CA0000F46002C47D132463B465046594615F0F8
:108CB000D1FD97E734A3D3E90023DDE9020115F0E4
:108CC00081FF33A3D3E9002304460D46DDE9020109
:108CD00015F078FF32463B4615F0BEFD02460B46C6
:108CE0004046494615F0B6FD52465B4615F0B2FDCA
:108CF00002460B462046294615F0ACFD05B0BDE8FE
:108D0000F08F204615F0F4FE1FA3D3E9002306469A
:108D10000F4615F057FF1EA3D3E9002304460D4666
:108D20003046394615F04EFF02460B46204629468E
:108D300015F092FD56E7DDE9028913A3D3E900237C
:108D40004046494691E700BF44523EDF12F1C23F20
:108D5000DE03CB966446C73F599322942449D23F01
:108D6000935555555555E53F9FC678D0099AC33F51
:108D7000AF788E1DC571CC3F04FA97999999D93F68
:108D8000555555555555D53F0000E0FE422EE63F5E
:108D9000763C7935EF39EA3D00005043FFFFEF7F25
:108DA0000000F03F0000E03F000050C30000000062
:108DB000B1F5801F2DE9F84304460D460B4619DA3C
:108DC00021F00042024359D000295FDB00223A4BD8
:108DD00015F0F8FE394A0D462B46934204466FF0D3
:108DE00035010CDD22462B462046294615F034FD80
:108DF000BDE8F883314A93424FF00001F2DC1815C8
:108E0000A0F2FF3008444FEAD0794844C3F3130876
:108E100015F06EFEC9F57F73033348EA0355064625
:108E20000F4620462946FFF7F7FD1DA3D3E900238F
:108E3000804689463046394615F0C4FE1AA3D3E968
:108E4000002304460D464046494615F0BBFE024647
:108E50000B462046294615F0FFFC15A3D3E9002355
:108E600004460D463046394615F0ACFE02460B4628
:108E70002046294615F0F0FCBDE8F88300220023C7
:108E800000200F4915F0C8FFBDE8F883024615F031
:108E9000E1FC0022002315F0BFFFA9E7AFF300803B
:108EA000362BF111F3FE593D0EE526157BCBDB3F4A
:108EB00000609F501344D33F00005043FFFFEF7FFB
:108EC000000050C3000000002DE9F04F23F00045E2
:108ED00055EA020493B00DD06B4E21F00044B44229
:108EE0000F4682460BDD04F1404404F5801454EA39
:108EF0000A0350D16549002013B0BDE8F08F9B46AE
:108F0000944647D0B542EEDC5F4EB5425DD0002FAF
:108F100080468946CDE900235BDB0026BCF1000FCB
:108F20000ED1594B9D423FD0584B9D4200F0888056
:108F3000BBF1804F00F09C80554B9B4500F0B883FF
:108F40004046494613F0BEFDBAF1000F06D1002C91
:108F500059D04E4B27F040429A4254D0FF0F013F68
:108F600056EA070373D04B4B9D4240F39B8003F1BD
:108F700004739D4240F33E84474B9C4272DDBBF13B
:108F8000000F72DD3EA3D3E900231046194615F009
:108F900019FEB1E728B1414813B0BDE8F04F15F014
:108FA00065BAA542F7DCAFE704F1404303F580134F
:108FB00053EA0A039ED0384B9C4240F38383BBF1B3
:108FC000000F52DBDDE9000196E7BCF1000F9ED0F7
:108FD00089E7334B9D4231DCA3F154739D429CDD04
:108FE0002B15A3F2FF33142B40F3A583C3F13403F5
:108FF0002CFA03F202FA03F363458ED102F0010268
:10900000C2F102068AE7BBF1000F05DA02460B4601
:1090100000201E4915F000FF002FBFF66DAF04F1D0
:10902000404404F5801454EA060300F03F84012E06
:109030007FF462AF01F1004319465DE702266DE758
:10904000BBF1000FC0F248834046494654E7424610
:109050004B461046194615F0FDFB02460B4615F02F
:10906000DBFE49E7BBF1000F8CDB0020002143E76A
:1090700042464B464046494615F0A4FD3CE700BF3A
:109080009C7500883CE4377E0000F07F0000F03FD4
:109090000000E03F0000E041FFFFEF3F4807040011
:1090A000FFFF3F43B4F5801F80F261830022D24B63
:1090B00015F088FD6FF0340C0C462315CF4DC4F32A
:1090C0001302A3F2FF3342F07F546344AA420B938E
:1090D00044F4401440F33F83C94B9A4240F3048464
:1090E0009FEDAF7B8DED087B8DED107B9FEDAE7B13
:1090F0000B9B8DED067B01330B93A4F580140025AB
:10910000DDE906232146824615F0A4FBA346DDE9EE
:1091100006238046894650462146CDE90CAB15F022
:109120009BFB02460B460020B64915F075FE0A4629
:109130000146CDE90E12134649460246404615F057
:1091400041FD631043F0005382468B4603F5002334
:109150008C46CDE904AB5919D3460023CDE902BCB6
:109160000293DDE902AB002004460D4602460B46A1
:109170005046594615F026FD02460B4640464946E4
:1091800015F068FBDDE9062380468946204629461E
:1091900015F060FB02460B46DDE90C0115F05AFBA9
:1091A00052465B4615F00EFD02460B4640464946C8
:1091B00015F050FBDDE90E2315F004FDDDE9044553
:1091C000CDE9060122462B462046294615F0FAFC39
:1091D00077A3D3E9002304460D4615F0F3FC76A3EC
:1091E000D3E9002315F038FB22462B4615F0EAFCA4
:1091F00073A3D3E9002315F02FFB22462B4615F06D
:10920000E1FC71A3D3E9002315F026FB22462B468F
:1092100015F0D8FC6EA3D3E9002315F01DFB224600
:109220002B4615F0CFFC6CA3D3E9002315F014FBFB
:109230002246804689462B462046294615F0C2FC28
:1092400002460B464046494615F0BCFC52460446D1
:109250000D465B46DDE9040115F0FEFADDE9062363
:1092600015F0B0FC22462B4615F0F6FA5246804621
:1092700089465B465046594615F0A4FC0022624BD5
:10928000CDE90C0115F0E8FA42464B4615F0E4FA38
:1092900002980D46044622462B465046594615F084
:1092A00091FC002282468B46574B2046294615F0FA
:1092B000D1FADDE90C2315F0CDFA02460B46404603
:1092C000494615F0C7FADDE9042315F07BFC224678
:1092D000804689462B46DDE9060115F073FC0246FF
:1092E0000B464046494615F0B7FA80468946024685
:1092F0000B465046594615F0AFFA029838A3D3E909
:10930000002304460D4615F05DFC5246CDE90401EC
:109310005B462046294615F09DFA02460B4640461C
:10932000494615F097FA30A3D3E9002315F04AFC1B
:109330002FA3D3E90023804689462046294615F00D
:1093400041FC02460B464046494615F085FADDE9E8
:10935000102315F081FA80460B98894615F0C8FB5A
:10936000424682468B464B46DDE9040115F074FA0D
:10937000DDE9082315F070FA52465B4615F06CFAE9
:10938000029852465B4604460D4615F063FADDE945
:10939000082315F05FFADDE9042337E0AFF300801E
:1093A0000000000000000000000000000000F03F8E
:1093B000EF4E454A287ECA3F65DBC9934A86CD3FBA
:1093C00001411DA96074D13F4D268F515555D53FA0
:1093D000FFAB6FDBB66DDB3F033333333333E33F38
:1093E000000000E009C7EE3FFD033ADC09C7EE3F8D
:1093F000F5015B14E02F3EBE000040438E98030051
:1094000079B60B000000F03F0000084015F022FA8A
:109410000B4602464946404615F01CFA013E56EA04
:10942000070382468B4600F05E819FEDD37B8DED76
:10943000047BDDE9001200230E461746CDE90267E2
:109440000293DDE9026708463B461146324615F0B5
:1094500001FA22462B4615F0B5FBDDE900238046D4
:1094600089465046594615F0ADFB02460B4640462C
:10947000494615F0F1F93246804689463B4620467A
:109480002946CDE9008915F09DFB0B4602460646AC
:109490000F464046494615F0DFF9D14B9942044644
:1094A0000D468A4640F3248101F13F4303F5E00372
:1094B000034340F0FF81B2A3D3E90023DDE90001BB
:1094C00015F0CAF93246804689463B462046294671
:1094D00015F0C0F902460B464046494615F002FE1B
:1094E000002840F0E781A8464FEA2853A3F2FE3255
:1094F0004FF4801313415344C3F30A52B94DA2F2FF
:10950000FF321541C3F3130423EA05010020C2F121
:10951000140B44F48014BAF1000F02460B4644FACF
:109520000BFB30463946B8BFCBF1000B15F092F972
:1095300006460F463246DDE900013B4615F08CF940
:109540004FEA0B5A0D4600248FA3D3E9002320468F
:10955000294615F037FB3246804689463B46204671
:10956000294615F077F902460B46DDE9000115F0B2
:1095700071F987A3D3E9002315F024FB86A3D3E96F
:10958000002306460F462046294615F01BFB0246DF
:109590000B463046394615F05FF906460F4602463F
:1095A0000B464046494615F057F942464B4604469D
:1095B0000D4615F04FF902460B463046394615F078
:1095C00049F92246804689462B462046294615F011
:1095D000F9FA73A3D3E9002306460F4615F0F2FA11
:1095E00071A3D3E9002315F035F932463B4615F057
:1095F000E9FA6FA3D3E9002315F02EF932463B4672
:1096000015F0E0FA6CA3D3E9002315F023F93246F4
:109610003B4615F0D7FA6AA3D3E9002315F01CF9ED
:1096200032463B4615F0CEFA02460B462046294606
:1096300015F010F906460F4602460B46204629460D
:1096400015F0C0FA0022CDE900014FF0804330460A
:10965000394615F0FFF802460B46DDE9000115F02A
:10966000DBFB424606460F464B462046294615F090
:10967000A9FA42464B4615F0EFF802460B46304633
:10968000394615F0E7F822462B4615F0E3F8024676
:109690000B460020544915F0DDF88A44BAF5801FC6
:1096A000C0F232815146DDE9042315F08BFA23E440
:1096B000002FFFF645AC4046494613B0BDE8F04FD9
:1096C00014F09CB8BBF1000FBFF6CFACDDE900345D
:1096D000184604F100410FE442464B46002042493F
:1096E00015F09AFB08E49FED387B8DED047BA0E636
:1096F0003E4B21F00048984540F3EA803C4B0B4438
:1097000003430AD132463B4615F0A4F8DDE90023B5
:1097100015F0DEFC00283FF4E7AEDDE904012CA3E0
:10972000D3E9002315F04EFA29A3D3E9002315F05D
:1097300049FAFFF7E1BBBCF1000F40F0D280C3F162
:10974000140345FA03F202FA03F3AB4200F0E0809F
:109750006646FFF7E9BB9FED207B8DED087B8DED25
:10976000107B9FED057B00258DED067BC8E44FF057
:10977000000CA2E4AFF30080000000000000F03F06
:10978000FE822B654715973C00000000432EE63F04
:10979000EF39FAFE422EE63F396CA80C615C20BE20
:1097A000D0A4BE726937663EF16BD2C541BDBB3EE7
:1097B0002CDE25AF6A56113F93BDBE166CC1663FC5
:1097C0003E5555555555C53F000000000000F0BFFF
:1097D00059F3F8C21F6EA501000000000000000050
:1097E000FFFF8F40FFFF0F000000F03FFFCB9040D6
:1097F00000346F3F5A4B9C427FF734AC594B9C422C
:109800003FF7BDAB0022574B15F024F844A3D3E932
:10981000002304460D4615F0D5F943A3D3E90023F0
:1098200082468B462046294615F0CCF90022CDE928
:1098300002014D4B2046294615F0C4F902460B465D
:109840003BA1D1E9000115F005F822462B4615F0A1
:10985000B9F902460B460020444914F0FBFF2246AA
:10986000804689462B462046294615F0ABF902462C
:109870000B464046494615F0A5F92FA3D3E900232E
:1098800015F0A0F902460B46DDE9020114F0E2FFF3
:1098900002460B46804689465046594614F0DCFF86
:1098A000002004460D4652465B46AFE502460B4695
:1098B000FFF7CFBBDDE9040121A3D3E9002315F0B5
:1098C00081F91FA3D3E9002315F07CF9FFF714BB3E
:1098D000264B98453FF708AEDDE9022392469346B2
:1098E00031E60026FFF72CBB9FED177B8DED087B43
:1098F0009FED177B8DED107B9FED177B4FF480253F
:109900008DED067BFFF7FCBB5A4601F029FDCAE648
:1099100002F00102C2F10206FFF706BBAFF30080BE
:10992000000000604715F73F44DF5DF80BAE543E82
:10993000555555555555D53FFE822B654715F73F73
:109940009C7500883CE4377E0000004003B8E23F8D
:1099500006D0CF43EBFD4C3E000000000000F83F76
:10996000FEFFEF3F0000F03F0000D03F0000E03F6F
:109970002DE9F047CA4B21F000479F4290B0804646
:10998000894640F38F80C74B9F420C46924626DCA7
:109990000029B9A3D3E9002340F38F8014F05AFFC4
:1099A000C14B9F4204460D4600F04781B4A3D3E962
:1099B000002314F04FFF02460B46CAE9002320465D
:1099C000294614F047FFAEA3D3E9002314F042FF69
:1099D0000125CAE90201284610B0BDE8F087B34B63
:1099E0009F4240F38980B24B9F4200F31C813D159A
:1099F000A5F21645A7EB055319461F46064615F076
:109A000091FB15F075F88046894642464B46304634
:109A10003946CDE90A8914F01DFF0022A54B15F047
:109A2000D1F88946804615F07DFB15F061F80646B1
:109A30000F4632463B4640464946CDE90C6714F096
:109A400009FF00229B4B15F0BDF800220023CDE951
:109A50000E0115F01FFB002800F060810023304646
:109A60003946002215F016FB002814BF01230223FB
:109A7000914A019202212A4600910AA8514600F01B
:109A800087FB002C054614DADAF80420DAF80C30EB
:109A900002F1004203F100434542CAF80420CAF82B
:109AA0000C3006E000200021C2E90089C2E9020171
:109AB0000025284610B0BDE8F08714F0CDFE7A4BA3
:109AC0009F4204460D4600F00B816DA3D3E90023AD
:109AD00014F0C2FE02460B46CAE90023294620467E
:109AE00014F0B8FE66A3D3E9002314F0B5FE4FF0DE
:109AF000FF35CAE90201DCE712F0E4FF62A3D3E913
:109B000000238046894615F05DF800226B4B14F067
:109B1000A3FE15F007FB054614F0EAFF56A3D3E9B0
:109B20000023CDE9060115F04DF802460B464046EC
:109B3000494614F08FFE52A3D3E90023804689469C
:109B4000DDE90601CDE9028915F03CF81F2D02463A
:109B50000B46CDE9042340F3B380DDE90423DDE9BE
:109B6000020114F077FE804689463F15C9F30A5377
:109B7000FB1A102B40F3B18045A3D3E90023DDE9A4
:109B8000060115F01FF88046894602460B46DDE9BE
:109B9000020114F05FFE02460B46DDE90201CDE949
:109BA000082314F057FE42464B4614F053FE3AA3E6
:109BB000D3E9002380468946DDE9060115F002F865
:109BC00042464B4614F046FE0B46CDE904010246E0
:109BD000DDE9080114F03EFEC1F30A53FF1A312FEC
:109BE0008046894600F39C809DED087BCAE9008988
:109BF0008DED027B42464B46DDE9020114F02AFE60
:109C0000DDE9042314F026FE002CCAE90201BFF6A8
:109C100050AF09F1004401F100436D42CAE90084EC
:109C2000CAE9020345E702460B4614F013FE00257D
:109C3000CAE90201CAE900013BE715A3D3E9002301
:109C400014F008FE14A3D3E900230D46044614F0D3
:109C500001FE02460B46CAE900232946204614F0BD
:109C6000F9FD0DA3D3E9002314F0F4FD0125CAE9A1
:109C700002011EE7AFF3008000004054FB21F93FD2
:109C80003163621A61B4D03D83C8C96D305FE43F6F
:109C90000000601A61B4D03D7370032E8A19A33B93
:109CA000FB21E93F7BD90240FB21F93FFB213941F0
:109CB000FFFFEF7F00007041B01104000000E03FA3
:109CC0004046494614F0C6FD394B6A1E804653F89B
:109CD0002230BB4289463FF448AFCAE9008989E790
:109CE0002BA3D3E9002314F0B7FD2BA3D3E9002362
:109CF0000D46044614F0B0FD02460B46CAE90023A7
:109D00002946204614F0A6FD23A3D3E9002314F02E
:109D1000A3FD4FF0FF35CAE90201CAE60323A7E617
:109D20001FA3D3E90023DDE9060114F04BFF06462B
:109D30000F4602460B46DDE9080114F08BFD804614
:109D4000894602460B46DDE90801CDE9028914F097
:109D500081FD32463B4614F07DFD13A3D3E9002379
:109D600006460F46DDE9060114F02CFF32463B465D
:109D700014F070FD02460B4640464946CDE90423E7
:109D800014F068FD80468946A7E700BFAFF3008066
:109D90000000601A61B4D03D7370032E8A19A33B92
:109DA0000000002E8A19A33BC14920259A837B39E4
:109DB0003011040000000000574A2DE9F84F21F04F
:109DC0000048904506460F462CDC544B0029B4BF92
:109DD000534D544D98454FF0000411DC524B9845BB
:109DE00026DC4BA3D3E9002314F036FD00224F4BB1
:109DF00015F078F9002840D030463946BDE8F88F94
:109E00004B4B984530DD4B4B984568DD0133984509
:109E100062D0304639463EA3D3E9002314F0D2FE87
:109E2000BDE8F88F02460B4614F016FDBDE8F88F2A
:109E300012F048FE01F048F83F4B984506460F46A1
:109E400023DD0022394B14F007FD02460B46304655
:109E5000394614F0E1FF32463B4614F0FDFC224641
:109E60002B4614F0AFFEE1E712F02CFEFEF75CFC8F
:109E700022462B4614F0A6FED8E73046394612F0AB
:109E800021FE01F021F806460F4632463B46304699
:109E9000394614F0E1FC324682468B463B4630465A
:109EA000394614F08FFE0022804689461F4B30460B
:109EB000394614F0D1FC02460B464046494614F0A0
:109EC000ABFF02460B465046594614F0C3FC2246EF
:109ED0002B4614F077FEA9E7184B984299D83046E4
:109EE000394612F0EFFD00220E4B14F06BFEFEF728
:109EF0001BFC06460F4602460B462046294614F038
:109F000061FE32463B4614F05DFE8FE7AFF3008002
:109F10003374AC3C1F7BAC7FFFFFEF7FFFFF35400E
:109F20000000E0BF0000E03FFFFF2F3E0000F03FD9
:109F3000412E8640CD338640FFFFEF3F7DF8B98F3D
:109F40002DE9F04F21F00048B8F1795F85B0064661
:109F50000F4692469B466BDA15F0E4F8002800F0B5
:109F6000E18032463B463046394614F02BFE74A35E
:109F7000D3E9002304460D4614F024FE72A3D3E96E
:109F8000002314F069FC22462B4614F01BFE70A33C
:109F9000D3E9002314F05EFC22462B4614F012FE97
:109FA0006DA3D3E9002314F057FC22462B4614F08E
:109FB00009FE6BA3D3E9002314F04CFC22462B4688
:109FC00014F000FE68A3D3E9002314F045FC2246F8
:109FD0002B4614F0F7FDCDE900010022664B204628
:109FE000294614F0EFFDDDE900238046894620462E
:109FF000294614F0E7FD524604460D465B463046BE
:10A00000394614F0DFFD02460B462046294614F07F
:10A0100021FC02460B464046494614F01BFC024612
:10A020000B460020554914F015FC05B0BDE8F08F33
:10A0300002460B4614F0C6FD41A3D3E900230446B3
:10A040000D4614F0BFFD40A3D3E9002314F004FC37
:10A0500022462B4614F0B6FD3DA3D3E9002314F0AD
:10A06000F9FB22462B4614F0ADFD3BA3D3E90023B8
:10A0700014F0F2FB22462B4614F0A4FD38A3D3E9DA
:10A08000002314F0E7FB22462B4614F09BFD36A379
:10A09000D3E9002314F0E0FB2B46224614F092FD96
:10A0A000374B9845CDE9000197DD364B98453EDCAE
:10A0B000A8F500130022002030499046994614F07C
:10A0C000C9FBCDE9020100222B4B2046294614F0A2
:10A0D00079FD42464B4614F0BDFBDDE90023804686
:10A0E00089462046294614F06DFD524604460D4629
:10A0F0005B463046394614F065FD02460B46204665
:10A10000294614F0A7FB02460B464046494614F088
:10A11000A1FB02460B46DDE9020114F09BFB05B0F2
:10A12000BDE8F08F1549002005B0BDE8F08F9FED28
:10A13000107B4FF000088DED027BDFF84C90C2E7FA
:10A14000D43888BEE9FAA8BDC4B1B4BD9EEE213EA4
:10A15000AD529C804F7E923E9015CB19A001FA3EE5
:10A160007751C1166CC1563F4C5555555555A53FB5
:10A17000000000000000E73F0000E03F0000F03F6B
:10A180003233D33F0000E93F0000D23F000000001F
:10A190002DE9F04FADF5197DBE4CA29EBE4D54F891
:10A1A00026600793D41E85FB0475E417C4EBA50451
:10A1B00024EAE4741D46631CA3EB8303013D02EB18
:10A1C000C3030593731904960994019503900B91A9
:10A1D000A4EB05071AD43B44002400255E1C0DF1B6
:10A1E0008008DDF88C9208E059F8270014F080FC14
:10A1F0000137B742E8E8020108D0002FF4DA01374E
:10A2000020462946B742E8E80201F6D1049B002B1C
:10A21000079B4FEAC30302932ADB039A20A902EBB0
:10A22000030801EB0309049B72AA02EBC30B0DF5B3
:10A23000E07A019B002B4FF000064FF0000711DB86
:10A24000039C4D4675E90223F4E8020114F0BAFCC0
:10A2500002460B463046394614F0FEFA444506469F
:10A260000F46EFD1EAE80267DA4509F10809E0D1C3
:10A27000DDE90204049920448B0082460BA8A3F177
:10A280000802C31808930CAB13440A938B4698AB8F
:10A2900003EBCB03BBF1000F53E9284529DD70AB7D
:10A2A00003EBCB080DF1300900227C4B20462946F8
:10A2B00014F088FC14F036FF14F01AFC0022784BDE
:10A2C00006460F4614F07EFC02460B462046294601
:10A2D00014F0C0FA14F026FF78E9022349F8040BC1
:10A2E0003946304614F0B8FA70AB984504460D462E
:10A2F000DAD1DDF81490204629464A4601F030F8BC
:10A3000000224FF07F5304460D4614F05BFCFCF72F
:10A31000A7FD0022634B14F055FC02460B46204675
:10A32000294614F097FA0D46044614F0FBFE8046C9
:10A3300014F0DEFB0B4602462946204614F08AFA4A
:10A340004B46002B06460F4640F3E1800BF1FF32EF
:10A350000CA9C9F1180351F8225045FA03F101FA8A
:10A3600003F30CA8EB1A40F82230C9F11705884412
:10A3700043FA05F5002D2CDDBBF1000F08F10108B3
:10A3800040F381820C9C002C40F0A780BBF1010FB0
:10A390000AD00CA9012251F8044F531C002C40F0A4
:10A3A0009E809B451A46F6D1059B002B0EDD012BA6
:10A3B00000F0D980022B09D10BF1FF320CAB0CA9B4
:10A3C00053F82230C3F3150341F82230022D00F078
:10A3D000AF80002200233046394614F05BFE00288F
:10A3E00000F05382049B0BF1FF394B4510DC0BF15D
:10A3F00080430CAA013B089802EB8303002253F828
:10A400000419834242EA0102F9D1002A40F0B680E1
:10A41000049B0CAA013B52F82330002B40F0A18092
:10A420000A9A012352F8041901330029FAD05B4437
:10A430000BF10109994506934CDC099A079909EB40
:10A44000020801EB0B0508F1804802EB030BA39B0C
:10A4500008F1FF3803EB880870AB03EBC909A39B35
:10A4600020A903EB8B0301EBC505029358F8040FF9
:10A4700014F03EFB0B4601990246002905F1080B3A
:10A48000C5E900234FF000064FF000071CDB039CDA
:10A490000CE000BF50160400ABAAAA2A0000703ED0
:10A4A000000070410000204075E90223F4E8020139
:10A4B00014F088FB02460B463046394614F0CCF9BE
:10A4C000544506460F46EFD1029B9845E9E80267DE
:10A4D0005D46CBD1DDF818B0D9E6012300220CA9E6
:10A4E000C4F180749B4541F822400EDD51F82320D1
:10A4F00001EB8B0001EB83036FF07F4100E01A68F2
:10A500008A1A43F8042B8342F9D101244CE706D17F
:10A510000BF1FF330CAA52F82350ED152AE7002265
:10A520007B4B14F0D5FD002840F0A381054650E791
:10A5300032463B460020774914F08CF906460F4618
:10A54000002C3FF446AF059A7249002000F008FF46
:10A5500002460B463046394614F07CF906460F4653
:10A5600037E7012363E70BF1FF320CAB0CA953F87B
:10A570002230C3F3160341F8223027E70CAB059ACB
:10A5800053F82930183ACDE9068505926BB909F1DF
:10A590008043013B0CA901EB830353F8041909F133
:10A5A000FF39183A0029F8D00592059A5949002038
:10A5B00000F0D6FEB9F1000F04460D46C0F2C0818E
:10A5C0004FEAC90370AA02EB030808930CAB03EB34
:10A5D0008906DFF844B14FF0000A08F10807043695
:10A5E00056F8040D14F084FA22462B4614F0EAFAC9
:10A5F0005B4667E9020152462046294614F0E2FA1A
:10A600000CAB9E4204460D46EAD148AB039301933E
:10A61000CDF8149009F10103DDF810900293C346C0
:10A620004FF0000AB9F1000FC0F22A81DFF8EC8088
:10A630005D4635A3D3E9002300260027002403E06C
:10A64000544510DCF8E80223F5E8020114F0BAFAE8
:10A6500002460B463046394614F0FEF80134A14557
:10A6600006460F46ECDA019BE3E802670193029B82
:10A670000AF1010A9A45ABF1080BD3D1A29BDDF890
:10A680001490032B39D8DFE813F0D9000600060038
:10A690004D0048AB0393B9F1000F4FF000004FF0AD
:10A6A000000109DB039D05EBC904083474E90223AA
:10A6B00014F0D2F8A542F9D1079B002B40F01E817F
:10A6C0000B9BC3E900010B4603990246D1E9000147
:10A6D00014F0C0F8B9F1000F0CDD4AAD01240134CB
:10A6E000F5E8022314F0B8F8A145F8DA079B002B2F
:10A6F00040F014810B9BC3E90201069B03F00700A5
:10A700000DF5197DBDE8F08F00000040FB21F93FF9
:10A710000000E03F0000F03F0000703E50FF0300EB
:10A7200048AB0393B9F1000F40F32781039ACDF8AA
:10A7300010904FEAC9030193D318D3E900AB09F194
:10A740000053013B02EBC9080293914678E9026786
:10A7500052465B463046394614F07EF804460D46B4
:10A7600002460B463046394614F074F852465B46B2
:10A7700014F072F8C145A246AB46C8E90201C8E927
:10A780000045E3D1DDF81090B9F1010F40F3F580F9
:10A79000019B039A02991344C900D3E9006701F1B0
:10A7A000080A019192440DF5947B7AE902893246B8
:10A7B0003B464046494614F04FF804460D460246D3
:10A7C0000B464046494614F045F832463B4614F0E5
:10A7D00043F8D34526462F46CAE90201CAE9004597
:10A7E000E3D1019C039B1034002000211C4403F1A1
:10A7F000100574E9022314F02FF8A542F9D1039C47
:10A80000079ED4E90023D4E90245002E00F08A8097
:10A8100003F1004701F100430B99C1E90403069BD2
:10A820002646944605F1004403F00700C1E900C73D
:10A83000C1E902640DF5197DBDE8F08F089C039D08
:10A840000834002000212C4474E9022314F004F899
:10A85000A542F9D1079B13B101F1004319460B9BA7
:10A86000C3E90001069B03F007000DF5197DBDE863
:10A87000F08FBBF1000F08F1010874DD022581E5BE
:10A8800000260027EFE600248EE5CDE90685059D2C
:10A89000304639466A4200F063FD0022384B0646D6
:10A8A0000F4614F015FC00B30022364B30463946F3
:10A8B00014F088F914F036FC044614F019F900225B
:10A8C0002F4B14F07FF90B4602463946304613F001
:10A8D000C1FF14F027FC0BF101090CAB183543F84C
:10A8E0002B00059543F829405FE63046394614F0C1
:10A8F00019FC0CABD94643F82B0056E60B9C01F132
:10A900000043C4E900030B4603990246D1E9000164
:10A9100013F0A0FFB9F1000F3FF7DFAE01F10043E4
:10A920001946E7E60B9EC6E90023069BC6E904012B
:10A9300003F00700C6E902450DF5197DBDE8F08F6B
:10A94000A29B032B3FF6D9AE01A252F823F000BF21
:10A9500061A9020093A6020093A6020021A70200AB
:10A960000020002176E732463B460020064913F0DE
:10A9700071FF022506460F462BE5002000213EE729
:10A98000000070410000703E0000F03F0000000039
:10A990002DE9F04F21F00046B6F1795F85B004460D
:10A9A0000D469046994604DA14F0BCFB002800F0EE
:10A9B000858022462B462046294614F003F9064698
:10A9C0000F4602460B462046294614F0FBF841A3E9
:10A9D000D3E9002382468B463046394614F0F2F81C
:10A9E0003EA3D3E9002313F035FF32463B4614F073
:10A9F000E9F83CA3D3E9002313F02EFF32463B468F
:10AA000014F0E0F839A3D3E9002313F023FF324612
:10AA10003B4614F0D7F837A3D3E9002313F01CFF0B
:10AA20000E9BCDE900019BB30022294B40464946CD
:10AA300014F0C8F8DDE90023CDE90201504659467B
:10AA400014F0C0F802460B46DDE9020113F002FFE4
:10AA500032463B4614F0B6F842464B4613F0FAFE37
:10AA600019A3D3E9002306460F465046594614F071
:10AA7000A9F802460B463046394613F0EDFE024671
:10AA80000B462046294613F0E5FE05B0BDE8F08FE1
:10AA900002460B463046394614F094F80AA3D3E92F
:10AAA000002313F0D7FE52465B4614F08BF8224683
:10AAB0002B4613F0D1FE05B0BDE8F08F20462946A5
:10AAC00005B0BDE8F08F00BF495555555555C53FF8
:10AAD0000000E03F7CD5CF5A3AD9E53DEB9C2B8A6C
:10AAE000E6E55A3E7DFEB157E31DC73ED561C1196B
:10AAF000A0012A3FA6F810111111813F00000000AB
:10AB00002DE9F04FC04C21F0004687B0A6428246A6
:10AB10008B460F46CDE900231ADC14F003FB002816
:10AB20003FD1109B524601331343334300F0B781AA
:10AB3000109B012B00F0C0815B460020B34914F04C
:10AB40006BF904460D462046294607B0BDE8F08F54
:10AB5000AF4B9E4225DD002909DADDE9004522469A
:10AB600005F10043CDE900230BF100418B4652462D
:10AB70005B4685A1D1E9000113F06CFEDDE90023FD
:10AB800004460D4682A1D1E9000113F063FE9FED5A
:10AB9000827B22462B468DED007B13F05DFE8246C4
:10ABA0008B4652465B465046594614F00BF8024617
:10ABB0000B468046894614F005F8424604460D4689
:10ABC0004B465046594613F0FDFF75A3D3E90023C9
:10ABD000CDE902012046294613F0F4FF72A3D3E920
:10ABE000002313F039FE22462B4613F0EBFF70A32F
:10ABF000D3E9002313F030FE22462B4613F0E2FF88
:10AC00006DA3D3E9002313F027FE22462B4613F051
:10AC1000D9FF6BA3D3E9002313F01EFE22462B4677
:10AC200013F0D0FF68A3D3E9002313F015FE4246CA
:10AC30004B4613F0C7FF66A3D3E90023CDE9040117
:10AC40002046294613F0BEFF63A3D3E9002313F087
:10AC500003FE22462B4613F0B5FF61A3D3E9002380
:10AC600013F0FAFD22462B4613F0ACFF5EA3D3E9A6
:10AC7000002313F0F1FD22462B4613F0A3FF5CA343
:10AC8000D3E9002313F0E8FD22462B4613F09AFF88
:10AC900059A3D3E9002313F0DFFD02460B46DDE99B
:10ACA000040113F0D9FDDDE9022313F08BFFDDE988
:10ACB000004522462B4613F0CFFD42464B4613F08B
:10ACC00081FF22462B4613F0C7FD4DA3D3E9002395
:10ACD00004460D46DDE9020113F074FF22462B46BF
:10ACE00013F0BAFD0B460246804689465046594647
:10ACF00013F0B2FD464B9E4204460D4600F38C8095
:10AD0000109B012B3BD002460B4600203F4914F01C
:10AD100083F8002406460F462046294652465B46E5
:10AD2000CDE90067CDE90201009413F093FDDDE960
:10AD300000AB02460B464046494613F08BFD524697
:10AD40005B4613F03FFF524604460D465B46DDE985
:10AD5000020113F037FF00222E4B13F07DFD024657
:10AD60000B462046294613F077FD32463B4613F04A
:10AD700029FF52465B4613F06FFD04460D46204600
:10AD8000294607B0BDE8F08F182D4454FB21E93F58
:10AD9000075C143326A6813C000000000000000080
:10ADA000D47ABF74702AFB3EE9A7F0320FB8123F85
:10ADB00068108D1AF726303F1583E0FEC8DB573F39
:10ADC00093846EE9E326823FFE41B31BBAA1AB3FF9
:10ADD000735360DBCB75F3BEA69237A0887E143F19
:10ADE0000165F2F2D844433F280356C9226D6D3FF6
:10ADF00037D60684F464963F7AFE10111111C13FD4
:10AE0000635555555555D53FFFFF2F3E0000F0BF08
:10AE10002794E53F0000F03F109813F069FE2246AA
:10AE2000CDE900012B462046294613F0CBFEDDE993
:10AE30000023CDE902012046294613F00DFD02460C
:10AE40000B46DDE9020113F0E7FF42464B4613F0E3
:10AE500001FD02460B465046594613F0FBFC0246E4
:10AE60000B4613F0F9FC02460B46DDE9000113F036
:10AE7000F1FC0446B81700F00200C0F101000D46D5
:10AE800013F036FE02460B462046294613F09AFE82
:10AE900004460D462046294607B0BDE8F08F5046CF
:10AEA000594611F00FFE02460B460020044913F0EC
:10AEB000B3FF04460D4662E754465D465FE700BFB8
:10AEC0000000F03F000000002DE9F04FCC4A21F0D7
:10AED0000043934285B082468B460C4620D9C94A2E
:10AEE000934200F2D780002C80F2A481ACA3D3E976
:10AEF00000235046594613F0AFFC0022002314F003
:10AF0000D3F8002840F0D180A7A3D3E9002350460E
:10AF1000594613F057FE02460B460020BA4994E109
:10AF2000BA4A934200F2E580B94A934240F22E8138
:10AF3000002301930022B74B5046594613F042FEBE
:10AF400006460F4602460B465046594613F03AFE57
:10AF500097A3D3E9002304460D4613F033FE96A3CE
:10AF6000D3E9002313F078FC22462B4613F02AFE87
:10AF700093A3D3E9002313F06DFC22462B4613F074
:10AF800021FE91A3D3E9002313F066FC22462B4651
:10AF900013F018FE8EA3D3E9002313F05BFC2246C6
:10AFA0002B4613F00FFE00229B4B13F055FC8046FE
:10AFB000894602460B463046394613F003FE0246E8
:10AFC0000B460020954913F045FC064602460B4609
:10AFD0000F464046494613F03DFC324680468946BE
:10AFE0003B465046594613F0EDFD02460B46002005
:10AFF0008B4913F02FFC02460B464046494613F09E
:10B000000BFF22462B4613F0DDFD019E02460B4648
:10B01000002E4DD0DDE9026732463B4613F01AFCA4
:10B0200052465B4613F0CEFD32463B4613F012FC0F
:10B030002B46224613F00EFC019B013306460F46B9
:10B0400000F02381019B012B7BD0019A531C392BEB
:10B050004FEA025500F22881019A132A40F35581E4
:10B06000019BC3F57F7403340022230513F0F4FB26
:10B0700002460B465046594613F0ECFB0022664B45
:10B0800013F0EAFB824605EB010B5046594605B02A
:10B09000BDE8F08F634A93421BD9C1F31303034306
:10B0A000024640F012810029EFDA00205E490DE0EF
:10B0B0005046594613F086FD22462B4613F0CAFB34
:10B0C00002460B465046594613F0C4FB05B0BDE896
:10B0D000F08F41A3D3E9002314F004F800283FF4D3
:10B0E00002AF3FA3D3E900231046194613F06AFDCF
:10B0F000ECE74E4A934200F2EC8000293AA3D3E9F0
:10B10000002339DA13F0A8FB39A7D7E900674FF01D
:10B11000FF3380468946019332463B4640464946C6
:10B1200013F098FB02460B4682468B464046494642
:10B1300013F090FB32463B4613F08CFBCDE9020145
:10B14000F8E600223A4B5046594613F0ADFF00286E
:10B1500000F0CC805046594600222E4B13F07CFB69
:10B1600002460B463046394613F074FB00224FF07E
:10B17000404313F027FDA9E713F06CFB0123804641
:10B18000894601931CA7D7E90067C5E714A3D3E953
:10B19000002313F061FB02460B468FE7AFF30080FC
:10B1A00059F3F8C21F6EA501FE822B654715F73FC4
:10B1B0002DC3096EB7FD8ABE3952E686CACFD03E8E
:10B1C000B7DBAA9E19CE143F8555FE19A0015A3F40
:10B1D000F41011111111A13FEF39FAFE422E8640F1
:10B1E0009C7500883CE4377E0000E0FE422EE63F7E
:10B1F000763C7935EF39EABD763C7935EF39EA3D71
:10B2000079684340412E86400000E0BF422ED63F81
:10B21000FFFF8F3C0000E03F0000F03F00000840CF
:10B2200000001840FFFFEF7F0000F0BFB1A2F03F29
:10B230000000D0BF44A3D3E900235046594613F081
:10B24000C1FC02460B460020414913F005FB13F0F8
:10B2500069FF019013F04CFC37A3D3E900230646A5
:10B260000F4613F0AFFC02460B465046594613F00A
:10B27000F1FA33A3D3E900238046894630463946A4
:10B2800013F0A0FC06460F4646E702460B46504622
:10B29000594613F0DFFA00222D4B13F093FC0022E5
:10B2A0002B4B13F0D7FA11E752465B4613F0D2FA54
:10B2B00002460B460020274913F0CCFA6B181946BA
:10B2C0000022244B13F0C6FA00E70B4613F0C4FA31
:10B2D000FCE61DA3D3E9002313F074FC002C024606
:10B2E0000B464FF00000AFDA1B49AEE732463B4653
:10B2F0005046594613F0AEFA02460B4613F0ACFA2C
:10B300000022144B13F0A8FAE0E64FF4001343FABE
:10B3100002F452465B4613F09DFAC4F17F570026B3
:10B3200007F5401702460B463046394613F092FAAD
:10B33000A8E600BFAFF300800000E0FE422EE63F2B
:10B34000763C7935EF39EA3DFE822B654715F73FAC
:10B350000000E03F0000F03F0000E0BF0000000000
:10B36000F8B5C1F30A5304460D460E4617460BBB0B
:10B3700021F00046034633431BD0354B002213F027
:10B3800021FC344B9F4204460D4635DBC1F30A5382
:10B390000E46363B3B4440F2FE72934232DC002BB9
:10B3A00011DD26F0FF4626F4E00646EA0355204666
:10B3B0002946F8BD40F2FF729342EBD102460B469C
:10B3C00013F04AFAF8BD13F1350F28DA4CF2503376
:10B3D0009F4222462B460ADD19A1D1E9000113F054
:10B3E000ABF917A3D3E9002313F0ECFBF8BD16A1CA
:10B3F000D1E9000113F0A0F913A3D3E9002313F05E
:10B40000E1FBF8BD22462B460DA1D1E9000113F066
:10B4100093F90BA3D3E9002313F0D4FBF8BD26F076
:10B42000FF4626F4E006363346EA03552046294611
:10B430000022094B13F0C6FBF8BD00BFAFF300803C
:10B440009C7500883CE4377E59F3F8C21F6EA50155
:10B4500000005043B03CFFFF0000903C10B5054C8D
:10B46000237833B9044B13B10448AFF300800123B0
:10B47000237010BD1085002000000000A8170400F4
:10B4800008B5034B1BB103490348AFF3008008BD67
:10B490000000000014850020A8170400154B002BA5
:10B4A00008BF134B9D46A3F5803A00218B460F46FB
:10B4B0001348144A121A09F015FA0F4B002B00D04A
:10B4C00098470E4B002B00D0984700200021040025
:10B4D0000D000D48002802D00C48AFF3008013F097
:10B4E00061F92000290005F025F913F047F900BFA4
:10B4F0000000080000000420000000000000000020
:10B5000000840020888C0020000000000000000063
:10B5100070B504460E4600F047FA88B10368DB6A4E
:10B5200005469847082C0CD0A4F10903012B14D927
:10B530003246214610230D20BDE8704004F058B873
:10B5400070BD2B6828465B6A98470228F0DC2B68A0
:10B5500028461B6A04219847EAE72B6828465B6A5D
:10B5600098470528E4DC2B6828461B6A0821984781
:10B57000DEE700BF38B52DED028B054600F014FA6A
:10B58000044640B10368DB6A9847032D03D8DFE81F
:10B5900005F02F363D06BDEC028B002038BD20465D
:10B5A0000CF00EFD07EE900A2046F8EEE78A0CF04C
:10B5B00017FD07EE900A2046B8EEE78A0CF020FD52
:10B5C00068EE087A07EE100AE8EEA87AB8EEC77AB5
:10B5D000E7EE077AF5EE407AF1EE10FAB1EEE78A7F
:10B5E0001BD4FDEEC87ABDEC028B17EE900A38BD75
:10B5F000BDEC028B2046BDE838400CF0E1BCBDEC50
:10B60000028B2046BDE838400CF0EABCBDEC028B52
:10B610002046BDE838400CF0F3BC17EE900A11F05C
:10B6200087FFDEE738B5044600F0BEF958B103687D
:10B63000DB6A0546984744B1012C04D12846BDE891
:10B640003840FBF73DB9002038BD2846BDE83840FA
:10B65000FBF716B910B5044600F0A6F928B1036847
:10B6600021461B6ABDE81040184710BD00487047CE
:10B6700016FCFFFF704700BF10B5034B0360044684
:10B680000CF07AFA204610BDA40C040010B5054B4E
:10B69000036004460CF070FA204614F01BF82046B4
:10B6A00010BD00BFA40C04002DE9F041032184B0BB
:10B6B0000546512001F0DAFCDFF8E8C2AE4B044643
:10B6C00004F00F06C4F3031714F4807408BF634634
:10B6D000AA4831463A460BF02FFC221C18BF012223
:10B6E00031463B4628460EF06DFB0023AB60A44874
:10B6F0000BF022FC4FF0FF31032001F0B7FCC0B289
:10B7000004F08CFA4FF0FF310446022001F0AEFC49
:10B71000C0B204F083FA002C3BD0002839D0014697
:10B72000204604F041F8064600284DD04FF0FF3186
:10B73000462001F09BFC322804464ED04BDD3828D1
:10B7400000F0B18068285FD14FF0FF31012001F097
:10B750008DFCC0B204F062FA80464C2013F0C3FFA7
:10B76000052301934246009431462B4607460DF0CF
:10B770001FFBAF603B6838469B6A9847A868036820
:10B78000DB6A98477F480BF0D7FB284604B0BDE83A
:10B79000F0817D480BF0D0FB4FF0FF31192001F014
:10B7A00065FCC0B204F03AFA4FF0FF3104461820AD
:10B7B00001F05CFCC0B204F031FA0146204603F00F
:10B7C000F3FF06460028B1D170480BF0B5FB2846C0
:10B7D00004B0BDE8F081302816D14FF0FF310120D0
:10B7E00001F044FCC0B204F019FA80464C2013F07A
:10B7F0007AFFA4B2074605230193424600943146DE
:10B800002B460DF08BF8B4E701243268CDE90044F3
:10B810000023176AAB600F220DF10F03322130466F
:10B82000B847002800F085803368CDE900440F2236
:10B830001F6A30210DF10F033046B84700284AD067
:10B840003368CDE900440D221F6A38210DF10F0342
:10B850003046B847002872D03268CDE900440DF177
:10B860000F03176A682175223046B847002845D172
:10B87000682147480BF060FB4FF0FF31204601F094
:10B88000F5FBC0B204F0CAF980464C2013F02BFF40
:10B8900005246823CDE90034424631462B4607464D
:10B8A0000DF086FA65E74FF0FF31012001F0DEFB75
:10B8B000C0B204F0B3F98046442013F014FF05230E
:10B8C0000746019342462B46009431460DF0C8F9D5
:10B8D000304B3B604DE730212D480BF02DFB3024E1
:10B8E0004FF0FF31012001F0C1FBC0B204F096F926
:10B8F00080464C2013F0F7FE07467CE726480BF005
:10B900001BFBAF68002F7FF435AF4FF0FF310320F2
:10B9100001F0ACFBC0B204F081F930B11F480BF06C
:10B920000BFB284604B0BDE8F0811D480BF004FB7A
:10B930004DE7322116480BF0FFFA3224D0E73821C8
:10B9400013480BF0F9FA4FF0FF31204601F08EFB5F
:10B95000C0B204F063F98046442013F0C4FE05240D
:10B9600038230746CDE9003442462B4631460DF0D8
:10B9700077F9084B3B60FCE6D4FF0300E4FF0300CB
:10B9800004000400C40004001400040028000400A3
:10B9900054000400A0FF03004000040068000400FD
:10B9A000A4000400DCFF030038B5114C23680BB180
:10B9B000986838BD4FF0FF31012001F057FBC0B24D
:10B9C00004F02CF940B10C2013F08DFE0546FFF772
:10B9D0006BFE2560A86838BD4FF0FF31032001F0F1
:10B9E00045FBC0B204F01AF90028ECD138BD00BF05
:10B9F0002C85002008B501F06BFCFBF7D5FCBDE8F9
:10BA0000084001F0C5B900BF08B501F061FCFBF7C3
:10BA10003BFDBDE8084001F0BBB900BF08B501F02F
:10BA200057FC11F0C5F8BDE8084001F0B1B900BFFE
:10BA300008B501F04DFC11F0B7FCBDE8084001F07D
:10BA4000A7B900BF08B501F043FCFBF7BDFCBDE89A
:10BA5000084001F09DB900BF08B501F039FC11F0B4
:10BA6000D9FABDE8084001F093B900BF08B501F06C
:10BA70002FFCFAF745FFBDE8084001F089B900BF87
:10BA800008B501F025FC11F01BFABDE8084001F0F3
:10BA90007FB900BF70B5049E96420C4624DB154664
:10BAA0006BB9042A19D0022A02D110F0010310D078
:10BAB00001462A46204607F083FD002070BD104451
:10BAC0000D4410F8013D01F8013B8D42F9D10020F1
:10BAD00070BD02880A80184670BD10F00303E7D1DC
