:100000000000022069690100916901009369010003
:1000100095690100976901009969010000000000DD
:100020000000000000000000000000009B690100CB
:100030009D690100000000009F690100A1690100A5
:10004000A3690100A369010009680100CD670100EF
:10005000E1670100A3690100B1580100C16F01000F
:10006000A5630100AD630100B5630100A369010050
:10007000A3690100A3690100A3690100A36901004C
:10008000A3690100A3690100A3690100A36901003C
:10009000A3690100A3690100A3690100A36901002C
:1000A000A3690100A3690100BD630100C5630100EC
:1000B000A3690100A3690100000000000000000026
:1000C000A3690100A3690100A3690100F5670100AC
:1000D000A3690100A3690100A3690100A3690100EC
:1000E0003168010000000000000000000000000076
:1000F00000000000A3690100000000001D6801006D
:1001000000000000000000000000000000000000EF
:1001100000000000000000000000000000000000DF
:1001200000000000000000000000000000000000CF
:1001300000000000000000000000000000000000BF
:1001400000000000000000000000000000000000AF
:10015000000000000000000000000000000000009F
:10016000000000000000000000000000000000008F
:10017000000000000000000000000000000000007F
:10018000000000000000000000000000000000006F
:10019000000000000000000000000000000000005F
:1001A000000000000000000000000000000000004F
:1001B000000000000000000000000000000000003F
:1001C000000000000000000000000000000000002F
:1001D000000000000000000000000000000000001F
:1001E000000000000000000000000000000000000F
:1001F00000000000000000000000000000000000FF
:100200007CB0EE877CB0EE87FF00FF00FF00FF00B0
:10021000FF00FF00FF00FF00FF00FF00FF00FF00E6
:10022000FF00FF00FF00FF00FF00FF00FF00FF00D6
:10023000FF00FF00FF00FF002DE9F04F85B00391A4
:100240000778A7F10903042B044607F07F0200F1A9
:100250000100F5D9202AF3D02B2F04BF677804467C
:100260002D2F75D09FED427B8DED007B4FF0000868
:100270004FF000099FB34FF0000C25464FF0000AE5
:10028000DFF8FCB0644619E019F062FC804689464C
:10029000304619F0F3FB42464B4619F0A3FA52469A
:1002A000804689465B46DDE900013CB319F07AFDE2
:1002B000CDE90001A44615F8017F7FB1A7F1300612
:1002C000092E52465B4640464946DDD9CCB92E2F11
:1002D00017D115F8017F0124002FEFD12C4642469B
:1002E0004B46DDE9000119F033FC80468946039B4B
:1002F000404649461C6005B0BDE8F08F4FF0010C48
:10030000D9E72C46BCF1000F29D042464B46DDE927
:10031000000119F01DFC07F0DF07452F80468946D4
:10032000E5D10399681C0A2219F040FA14490246E3
:10033000002019F0BDFF02460B464046494619F021
:1003400007FC804689464046494605B0BDE8F08F27
:100350009FED097B67788DED007B013486E7DFF840
:1003600024904FF000084046494605B0BDE8F08FA4
:10037000000000000000F03F000000000000F0BF9F
:10038000000024400000F87F2DE9F04700231446C8
:1003900000228046894619F04DFE28B109F100433C
:1003A00099462D23237001340022002340464946FC
:1003B00019F036FE28B13022002322706370BDE8A8
:1003C000F0874046494617F035FF19F071FE73A3D8
:1003D000D3E9002307464946404619F02BFE002882
:1003E0004ED170A3D3E900234046494619F040FEA0
:1003F000002845D10E2F07F1010540F3B980A7F180
:100400000E0632460020624919F052FF02460B46A2
:100410004046494619F0C6FC00225E4B19F0E2F94D
:1004200019F082FF002DA7F10F0E4FF0010C4DDDEA
:10043000594FDFF87881012245F6F3294FF02E0A53
:10044000494508BF40454FF030030AD3B0EB0800E0
:1004500061EB0901494508BF404503F10103F5D2AD
:10046000DBB2237050EA010304F101084AD195423E
:1004700052DD0132102A4FD0444677E90289DFE786
:10048000002F33DB3A460020414919F011FF0246A4
:100490000B464046494619F085FC3BA3D3E90023AF
:1004A00080468946012500264046494619F050FB02
:1004B0000022384B19F096F919F036FF002DBC4692
:1004C0004FF0FF3E37464FF00006B1DC23463022A6
:1004D0004FF02E0803F8022B84F80180FC4345D02E
:1004E0001C4403F8012BA342FBD1A1E77A42002070
:1004F000274919F0DDFE02460B464046494619F0F1
:1005000027FBCAE7954202F1010204BF84F801A06B
:1005100004F10208102AAFD16EB14246302102F830
:10052000011BC2F1010373444344002BF7DC2EEAA4
:10053000EE7301339844BCF1010F12D0BCF1000FEF
:100540004FF0650388F80030C5BF2B2388F80130D1
:1005500008F1010108F102016046BDE8F04710F022
:10056000D3BA002388F80030BDE8F0871C465FE767
:10057000C7F10E020020064919F09AFE3E460246D7
:100580000B46012790E700BF0000901EC4BCD64276
:10059000000024400000E03F48AE01008DEDB5A012
:1005A000F7C6B03E50EFE2D6E41A4B4400407A1052
:1005B00070B54FF0FF3006F097FA04466FF07F40B9
:1005C00006F092FA0646204619F048FA00220C4B33
:1005D00019F0BEFA044630460D4619F03FFA06A35C
:1005E000D3E9002319F0DEFB02460B4620462946DC
:1005F00019F0F8F870BD00BF0000E0DFFFFF6F43A7
:100600000000F03D000000002DE9F04F1D46138969
:10061000AB4288BF536885B004468CBF53F82500B1
:10062000002090468A4606F0D3FE0022904B19F037
:100630008FFA19F03DFDB8F808206B1C9A4288BF6C
:10064000D8F8042006468CBF52F82300002006F09C
:10065000BFFE0022864B19F07BFA19F029FDB8F88D
:1006600008300235AB4288BFD8F8043007468CBF4B
:1006700053F82500002006F0ABFE002EC4E9006709
:1006800040F3E280002F40F3DF8071A3D3E9002321
:10069000002584F8285017F0EFFC00220023804644
:1006A000894619F0C7FC40B14046494668A3D3E9E2
:1006B000002319F097F88046894667A3D3E9002301
:1006C0004046494619F0D4FCC0B165A3D3E90023E4
:1006D0004046494619F0B8FC80B1012340464946DE
:1006E00084F8283060A3D3E9002319F07BF858A3DD
:1006F000D3E9002317F0C0FC8046894600225D4BF9
:100700004046494619F024FA17F0EAF901F100438E
:1007100000221946564B19F01BFA19F0C9FC49463C
:100720000546404617F098F90022514B19F010FA8F
:1007300019F0BEFCDAF804304F49B3F80CB0B3F846
:100740000AA0A56007FB0BF303EB010806FB0AF602
:10075000019388FB05234FEA124C00960E444CEAA5
:10076000034C06EA010383FB009A06EB0C0E0EEA2B
:10077000010ED346CA468EFB00675246CDE902679A
:10078000120C42EA0B42DDE902AB0CEA010C8CFBD5
:1007900000674FEA164956460A40360C46EA0B46B1
:1007A00049EA074982FB05AB5F46C144B04456465F
:1007B000CDE90267039FE060360C09EA010908EA07
:1007C000010846EA074689FB05AB334488FB05561A
:1007D000CDE9025655462D0C45EA0B45DDE902AB45
:1007E0000B40AC4403EAE3770CEA010C554623EADC
:1007F000E37367454FEA154502EAE276A8BF67460C
:1008000045EA0B45634522EAE272B8BF6346AE444F
:100810004E450EEA010EA8BF4E464A45B8BF4A46AD
:100820007745A8BF77467345B8BF73464645A8BF0E
:100830004646C4E905634245B8BF4246009801995F
:10084000206261622761E261204605B0BDE8F08F59
:10085000EA2E4454FB211940F4D64354FB21F93FBE
:10086000320D337F7CD91240EA2E4454FB210940DB
:100870000000F0400000E03F0000FFFF000000002B
:100880002DE9F04F2DED028B044683B0C06819F0BE
:10089000F5F880462069894619F0F0F882466069CB
:1008A0008B4619F0EBF8024601F1004306460F466D
:1008B0004046494617F072FB19F042FCE0620546DB
:1008C00017F024FA0190284617F0D4F9019B054649
:1008D000184619F0E5F842464B4619F039F98046BA
:1008E0002846894619F0DCF832463B4619F030F9C3
:1008F00002460B464046494618F072FF02460B4638
:100900005046594617F04AFB19F01AFC002208EE2F
:10091000100A00233046394619F0AAFB28B3B5EE79
:10092000C08AF1EE10FA1CDD11A7D7E9006718EEB6
:10093000100A19F0B5F802460B463046394618F051
:100940004FFF32463B4618F04DFF19F0F9FBA0620D
:10095000E38843F00203E38003B0BDEC028BBDE803
:10096000F08F05A7D7E90067E1E784ED0A8AEFE792
:10097000EA2E4454FB21F93FEA2E4454FB21F9BFEF
:1009800008B511F0B5FBDFED0C7A07EE100A67EE43
:10099000277A17EE900A19F083F805A3D3E900230C
:1009A00019F000FA19F084FB08BD00BFAFF3008016
:1009B000EA2E4454FB2119400000B443000000001B
:1009C00008B511F0A9FBDFED0C7A07EE100A67EE0F
:1009D000277A17EE900A19F063F805A3D3E90023EC
:1009E00019F0E0F919F064FB08BD00BFAFF3008017
:1009F000EA2E4454FB2119400000B44300000000DB
:100A0000494A21F0004393422DE9704304460D46C4
:100A100049DC464A93420E460EDC3FA3D3E900234D
:100A200018F0E0FE0022424B19F022FB00284AD0C9
:100A300020462946BDE870833E4A934239DCB3F133
:100A4000804F40DD17F004F82246804689462B4649
:100A50002046294619F07CF80022354B18F0C2FEDA
:100A600017F092FE42464B4618F0BCFE02460B467B
:100A700000202F4919F096F9424604460D464B4690
:100A80004046494618F0AEFE02460B46204629462F
:100A900018F0A8FE02F040F8002E08DC01F1004337
:100AA0001946BDE8708302460B4618F09BFEBDE870
:100AB000708316F0CDFF02F02FF819A3D3E90023BD
:100AC00018F090FEE8E722462B462046294619F00A
:100AD0003FF8804689462046294616F0B9FF002295
:100AE00004460D46124B4046494618F07BFE17F06F
:100AF0004BFE00220E4B18F075FE02460B46404698
:100B0000494619F04FF922462B4618F06BFE00F0CB
:100B1000A7FAC1E7AFF300809C7500883CE4377EFC
:100B2000EF39FAFE422EE63FFFFFEF7FFFFF2F3E39
:100B30000000F03F0000B0412DE9F84FBE4B21F01E
:100B400000469E4204460D468A460EDDBB4B9E4241
:100B500000F3B18000F0AC80BAF1000F40F3EA80FE
:100B600099A1D1E90001BDE8F88FB54B9E4200F391
:100B7000BA80A3F1DE739E4240F3A5804FF0FF3BA5
:100B800022462B462046294618F0E2FF02460B4635
:100B90008046894618F0DCFF8DA3D3E90023064682
:100BA0000F4618F0D5FF8CA3D3E9002318F01AFEE6
:100BB00032463B4618F0CCFF89A3D3E9002318F056
:100BC00011FE32463B4618F0C3FF87A3D3E900234A
:100BD00018F008FE32463B4618F0BAFF84A3D3E96A
:100BE000002318F0FFFD32463B4618F0B1FF82A308
:100BF000D3E9002318F0F6FD42464B4618F0A8FF53
:100C00007FA3D3E90023804689463046394618F051
:100C10009FFF7DA3D3E9002318F0E2FD32463B4657
:100C200018F096FF7AA3D3E9002318F0D9FD3246D5
:100C30003B4618F08DFF78A3D3E9002318F0D0FDD0
:100C400032463B4618F084FF75A3D3E9002318F021
:100C5000C7FD32463B4618F07BFF02460B46404636
:100C6000494618F0BFFD22462B4618F071FFBBF134
:100C7000FF3F02460B4661D0724B734E4FEACB0BDF
:100C80005B44D3E9002318F0ABFD22462B4618F055
:100C9000A7FDB34402460B46DBE9000118F0A0FDB6
:100CA000BAF1000F0DDA01F100431946BDE8F88FE3
:100CB00000283FF451AF22462B462046294618F023
:100CC00091FDBDE8F88F58A3D3E9002318F08AFD01
:100CD00000225E4B19F0CCF900283FF44FAF2046BC
:100CE0002946BDE8F88F16F0B3FE594B9E420446E4
:100CF0000D4629DCA3F550239E424EDC02460B46EE
:100D000018F070FD0022514B18F06AFD00220646D3
:100D10000F464FF080432046294618F063FD0246F7
:100D20000B463046394619F03DF84FF0000B0446AB
:100D30000D4625E73EA1D1E90001C2E7204629463C
:100D400018F04EFDBDE8F88F424B9E421ADC00229F
:100D5000414B18F045FD002206460F463E4B20460B
:100D6000294618F0F5FE0022384B18F03BFD0246EC
:100D70000B463046394619F015F84FF0020B044681
:100D80000D46FDE602460B460020344919F00AF8EC
:100D90004FF0030B04460D46F2E600222B4B18F0F1
:100DA0001FFD002206460F46284B2046294618F014
:100DB00019FD02460B463046394618F0F3FF4FF056
:100DC000010B04460D46DBE6182D4454FB21F93F88
:100DD00011DA22E33AAD903FEB0D76244B7BA93F2D
:100DE000513DD0A0660DB13F6E204CC5CD45B73FFB
:100DF000FF8300922449C23F0D5555555555D53FA7
:100E00002F6C6A2C44B4A2BF9AFDDE522DDEAD3F9A
:100E10006D9A74AFF2B0B33F711623FEC671BC3F3A
:100E2000C4EB98999999C93F9C7500883CE4377E3A
:100E3000182D4454FB21F9BFFFFF0F440000F07F41
:100E4000FFFFDB3F70AE010050AE01000000F03F3D
:100E5000FFFFF23FFF7F03400000F83F0000F0BFBC
:100E60002DE9F041C1F30A57A7F2FF35132D0246D1
:100E70000B460C468846064620DC002D4ADB364FE2
:100E80002F4101EA070C5CEA000C1CD030A3D3E927
:100E9000002318F0A7FC0022002319F0E9F848B15C
:100EA000002C04DD4FF4801343FA05F5A84428EA2A
:100EB0000704002621463046BDE8F081332D06DDCB
:100EC000B5F5806F38D010461946BDE8F081A7F21D
:100ED00013474FF0FF3C2CFA07F70742F3D01CA34F
:100EE000D3E9002318F07EFC0022002319F0C0F89B
:100EF0000028DFD0002C09DD142D22D00123C5F1FC
:100F0000340503FA05F5AE1928BF984426EA07060A
:100F10004446CFE70EA3D3E9002318F063FC002278
:100F2000002319F0A5F80028C4D0002C0CDB2643C0
:100F300005D00026094CBDE718F054FCC5E734463F
:100F4000B8E704F10108E1E700264FF00044B1E7FB
:100F50009C7500883CE4377EFFFF0F000000F03FE7
:100F60002DE9F041C1F30A57A7F2FF35132D0246D0
:100F70000B460C46884606461DDC002D3CDB364FF2
:100F80002F4101EA070C5CEA000C19D030A3D3E929
:100F9000002318F027FC0022002319F069F8C8B3D9
:100FA000002C04DA4FF4801343FA05F5A84428EA2C
:100FB000070400262EE0332D06DDB5F5806F2DD019
:100FC00010461946BDE8F081A7F213474FF0FF3CE9
:100FD0002CFA07F70742F3D01DA3D3E9002318F03A
:100FE00001FC0022002319F043F898B1002C21DB0A
:100FF00026EA070644460DE015A3D3E9002318F0BE
:10100000F1FB0022002319F033F818B1002C08DBA3
:101010000026344621463046BDE8F08118F0E2FB58
:10102000D0E724F000430D4A1E43002E18BF14469B
:101030000026EFE7142D08D00123C5F1340503FA8B
:1010400005F5AE1928BF9844D2E704F10108CFE7AF
:101050009C7500883CE4377EFFFF0F000000F0BF66
:101060002DE9F04FD84B994287B08046894643DD41
:10107000D64B99420E4600F3F480D54B994240F38B
:101080002D819FEDBB7B8DED047B4FEA215A0446F9
:10109000AAF2FF3ACF4BC6F313069E4246F07F55A5
:1010A00000F3128145F44015204629460022CA4B20
:1010B00018F096FB002204460D46C84B18F048FD78
:1010C00022462B4618F044FDA046CDE90201A94670
:1010D000CDE90001002E3AD1002200232046294606
:1010E00018F09EFF002800F01B81BAF1000F40F0BD
:1010F000858100200021B8E0B94B21F000449C42DA
:101100000A460FDD0022B74B18F08AFF002800F0D6
:10111000AF80002200230020B34918F043FE07B03F
:10112000BDE8F08FB14B9C4240F3AF80B04B1A4406
:101130009A4240F2D3800022A84B18F009FD4246A3
:101140004B4618F005FDCDE900014FF0000A0022E2
:101150004FF080434046494618F044FB02460B4698
:101160004046494618F01EFE02460B4606460F460C
:1011700018F0EEFC80A3D3E9002304460D4618F0D6
:10118000E7FC7FA3D3E9002318F02CFB22462B4673
:1011900018F0DEFC7CA3D3E9002318F023FB2246E1
:1011A0002B4618F0D5FC7AA3D3E9002318F01AFBDC
:1011B00022462B4618F0CCFC77A3D3E9002318F085
:1011C00011FB22462B4618F0C3FC75A3D3E900237C
:1011D00018F008FB22462B4618F0BAFC72A3D3E99C
:1011E000002318F0FFFA22462B4618F0B1FCDDE987
:1011F000002318F0F7FA32463B4618F0A9FC0446E3
:101200000D46BAF1000F00F0A880504618F036FCE9
:1012100067A3D3E9002382468B4618F099FC66A3A6
:10122000D3E9002306460F465046594618F090FC75
:10123000DDE9042318F0D6FA22462B4618F0D2FA3C
:1012400002460B46DDE9000118F0CAFA42464B4659
:1012500018F0C6FA02460B463046394618F0C0FA76
:1012600003E002460B4618F0BDFA07B0BDE8F08F68
:1012700042464B464046494618F0B2FA02460B46F3
:1012800018F090FD07B0BDE8F08F0022594B18F020
:10129000A9FA0022002318F0EBFE10B1564B9C4235
:1012A00062DD42464B464046494618F051FC00225A
:1012B0004A4B18F04DFC02460B464046494618F092
:1012C0008FFA07B0BDE8F08F45F40015C6F580161B
:1012D00020462946B6100AF1010AE7E600223E4BF5
:1012E0004046494618F07EFA4FEA215AAAF2FF3AE0
:1012F000BAF1000F04460D460E4640F3BD8042464B
:101300004B4618F06DFA02460B460020324918F0A1
:1013100067FA22462B4618F045FDCDE90401B9E6EF
:1013200027A3D3E900232046294618F011FC0246E2
:101330000B460020284918F053FADDE9022318F083
:1013400007FC06460F46BAF1000F75D102460B4660
:101350002046294618F044FA87E702460B46DDE9A5
:10136000000118F03DFAA6E7404649467DE700BF78
:10137000000000000000000044523EDF12F1C23FB6
:101380009FC678D0099AC33FDE03CB966446C73F19
:10139000AF788E1DC571CC3F599322942449D23F1A
:1013A00004FA97999999D93F935555555555E53F65
:1013B0000000E0FE422EE63F763C7935EF39EA3D0B
:1013C000555555555555E53F7982DA3FFFFFEF7F7B
:1013D000FFFF3F439DA006000000F03F0000E03FFC
:1013E000FFFFEF3F0000F0BF000050C3FFFF1F3EB4
:1013F0003C412D4000005043FFFF8F3C504618F009
:101400003DFB24A3D3E9002306460F4618F0A0FBBA
:10141000DDE9042318F0E6F920A3D3E9002304460C
:101420000D463046394618F093FB02460B462046DF
:10143000294618F0D7F918E7504618F01FFB17A3F4
:10144000D3E9002382468B4618F082FB11A3D3E92F
:101450000023804689465046594618F079FBDDE95D
:10146000042318F0BFF902460B463046394618F0FF
:10147000B7F922462B4674E70022054B18F0B0F965
:1014800002460B464046494618F0AAF941E700BF1C
:101490000000F03F763C7935EF39EA3D0000E0FE90
:1014A000422EE63F0000000008B516F045FE04A3FA
:1014B000D3E9002318F076FC08BD00BFAFF300802D
:1014C000EF39FAFE422EE63F2DE9F043DFF8B48013
:1014D0008BB004460D4601F0F7F898F9003001335F
:1014E00006460F462CD022462B462046294618F0A9
:1014F000C9FD814620BB2046294616F0A9FA1FA344
:10150000D3E9002318F0B4FDD0B1194A98F900309E
:10151000CDF820900321CDE90445CDE90245CDE980
:10152000001293B113490020022BCDE9060111D11D
:1015300018F0E4F822230360089B9BB9DDE90667F5
:10154000304639460BB0BDE8F0830B4B4FF060429C
:10155000CDE90623684617F04DFF0028E8D0089B28
:10156000002BEBD018F0CAF8089B0360E6E700BF39
:1015700010C101000000F07FFFFFEF477DF8B98F39
:10158000CE338640FF0100202DE9F043DFF8E480F0
:101590008BB004460D4601F047F998F9003001334D
:1015A00006460F4633D02046294617F01DFF70B37C
:1015B0002CA3D3E900232046294618F059FD814683
:1015C00050BB2AA3D3E900232046294618F032FD58
:1015D000E8B198F90030204ACDF820900020002191
:1015E0000426022BCDE90445CDE902450096CDE95C
:1015F0000601019229D0684617F0FCFE28B3089B2B
:101600001BB118F07BF8089B0360DDE906673046E4
:1016100039460BB0BDE8F0830F4A98F900300192CB
:1016200003210022CDE90445CDE90245009108924D
:101630002BB90A4B4FF06042CDE90623DBE708499E
:101640000020022BCDE90601D5D118F057F822234E
:101650000360D4E7AFF3008018C10100FFFFEF473C
:101660000000F07FEF39FAFE422E864051302DD532
:10167000104987C0FF0100202DE9F04FDFF82C93BF
:101680008DB006460F4614461D4601F09DFC99F9A3
:101690000080B8F1FF3FCDE9000136D022462B464D
:1016A0002046294618F0EEFC834670BB32463B4686
:1016B0003046394618F0E6FC8246002840F0A28009
:1016C000304639460022002318F0AAFC10B300224D
:1016D00000232046294618F0A3FC8346002867D043
:1016E0009FEDA77B0122AC4BCDF828A00292CDE95B
:1016F0000467CDE906458DED087B0393B8F1000F33
:1017000041D09FEDA17B8DED007BDDE900010DB0A7
:10171000BDE8F08FDDE9000117F066FE8046002885
:1017200000F08D804FF0000A4FF0000BDDE9000162
:1017300052465B4618F074FC0028E6D03046394625
:1017400017F052FE0028E0D02046294617F04CFE44
:101750000028DAD099F900308F4A03920421002240
:10176000022BCDE90467CDE90645CDE908AB02912E
:101770000A9203D002A817F03DFE50B917F0BEFF41
:101780002223036005E002A817F034FE002800F0D1
:101790009B800A9B1BB117F0B1FF0A9B03609DED74
:1017A000087B8DED007BDDE900010DB0BDE8F08F19
:1017B0002046294617F018FE0028A6D00022002354
:1017C0002046294618F036FC00289ED0724A99F926
:1017D0000030CDF828B00121CDE90467CDE90645F8
:1017E000CDE90212002B74D06C490020022BCDE908
:1017F000080172D117F082FF212303600A9B002B9E
:10180000CDD0C8E7002200232046294618F008FC66
:1018100000283FF47AAF624B5F49CDF828B0002230
:101820000120B8F1020FCDE904670290CDE9064529
:10183000CDE908230391A6D1CDE9002365E7304621
:10184000394617F0D1FD00283FF46CAF20462946F9
:1018500017F0CAFD00283FF465AFDDE9002310460C
:10186000194618F00FFC99F900A000286BD103234A
:10187000DFF824C10A902946204602930022494BF2
:10188000CDF80CC0CDE90645CDE9046718F060F944
:1018900004460D46BAF1000F25D1DFF814B14FF020
:1018A000604A0022002330463946CDE908AB18F0E3
:1018B000C1FB38BB02A817F09DFD00289ED117F090
:1018C0001DFF2223036099E717F018FF212303600F
:1018D0005FE79FED2B7B8DED087B02A817F08AFD5B
:1018E00000288BD186E79FED2A7B0022002330461B
:1018F00039468DED087B18F09DFBA0B9BAF1020FB7
:10190000DDD0D7E72046294617F07CFD22462B463E
:1019100018F086FBA0B9244B99F900A04FF0604263
:10192000CDE90823EAE72046294617F06BFD224659
:101930002B4618F075FB18B9184B0022CDE9082387
:1019400099F900A0DAE70122134BCDF82880029222
:10195000CDE90467CDE906450393BAF1000FB8D08D
:10196000002200231046194618F01CFABAF1020FA3
:10197000CDE908013FF43EAFAFE700BFAFF3008011
:101980000000000000000000000000000000F03F28
:10199000000000000000F07F30C101000000F0FFF7
:1019A0000000F03F0000E03FFFFFEFC7FF01002015
:1019B000FFFFEF47000000002DE9F84FC44E21F073
:1019C0000043B34204460D460DDD03F1404303F5E9
:1019D0008013034340F0B980002940F34081002088
:1019E0000021BDE8F88FBB4EB34208DCBA4A9342EF
:1019F00000F3B5809CA1D1E90001BDE8F88F002972
:101A0000C0F2708102460B460020B44917F0E8FE90
:101A10000022B34B18F09CF804460D4616F0B4FEB5
:101A200093A3D3E90023894680462946204618F02F
:101A30008FF891A3D3E9002317F0D4FE22462B465A
:101A400018F086F88EA3D3E9002317F0C9FE2246CA
:101A50002B4618F07DF88CA3D3E9002317F0C2FEC3
:101A600022462B4618F074F889A3D3E9002317F017
:101A7000B7FE22462B4618F06BF887A3D3E9002364
:101A800017F0B0FE22462B4618F062F884A3D3E983
:101A9000002382468B462046294618F059F882A337
:101AA000D3E9002317F09CFE22462B4618F050F88D
:101AB0007FA3D3E9002317F095FE22462B4618F0AA
:101AC00047F87DA3D3E9002317F08AFE22462B4670
:101AD00018F03EF80022814B17F084FE02460B46B8
:101AE0005046594618F05EF942464B4618F030F819
:101AF000002682468B4632464B463046494618F011
:101B000027F802460B462046294617F069FE324662
:101B100004460D464B464046494617F063FE0246D2
:101B20000B462046294618F03DF902460B46504622
:101B3000594617F057FE32464B4617F053FE024601
:101B40000B4617F04FFEBDE8F88F02460B4617F024
:101B500047FE02460B4618F025F9BDE8F88F02460D
:101B60000B4617F0F5FF42A3D3E9002306460F46C4
:101B700017F0EEFF40A3D3E9002317F033FE3246FF
:101B80003B4617F0E5FF3EA3D3E9002317F028FEFC
:101B900032463B4617F0DCFF3BA3D3E9002317F0A6
:101BA00021FE32463B4617F0D3FF39A3D3E9002389
:101BB00017F016FE32463B4617F0CAFF36A3D3E9AC
:101BC000002317F00FFE32463B4617F0C1FF34A347
:101BD000D3E90023804689463046394617F0B8FFDE
:101BE00031A3D3E9002317F0FBFD32463B4617F043
:101BF000AFFF2FA3D3E9002317F0F4FD32463B4695
:101C000017F0A6FF2CA3D3E9002317F0E9FD324615
:101C10003B4617F09DFF0022304B17F0E3FD0246D4
:101C20000B464046494618F0BDF822462B4617F0B1
:101C30008FFF02460B4622A1D1E9000117F0D0FD2B
:101C400002460B462046294617F0CAFD02460B46BF
:101C500005A1D1E9000117F0C3FDBDE8F88F1AA175
:101C6000D1E9000179E700BF182D4454FB21F93F69
:101C700009F7FD0DE13D023F88B20175E0EF493FF4
:101C80003B8F68B52882A43F5544880E55C1C93F93
:101C90007D6FEB0312D6D43F555555555555C53F6D
:101CA00082922EB1C5B8B33F59018D1B6C06E63F39
:101CB000C88A599CE52A00404B2D8A1C273A0340CC
:101CC000075C143326A6913C182D4454FB2109408F
:101CD000FFFFEF3FFFFFDF3F0000603C0000F03FF1
:101CE0000000E03F00225C4B17F07CFD00225B4BC4
:101CF00017F02EFF40A3D3E9002304460D4617F04A
:101D000027FF3FA3D3E9002317F06CFD22462B46A3
:101D100017F01EFF3CA3D3E9002317F061FD224614
:101D20002B4617F015FF3AA3D3E9002317F05AFD0D
:101D300022462B4617F00CFF37A3D3E9002317F0F8
:101D40004FFD22462B4617F003FF35A3D3E90023AE
:101D500017F048FD22462B4617F0FAFE80468946CA
:101D60002046294616F010FD2FA3D3E9002306468E
:101D70000F462046294617F0EBFE2DA3D3E900239A
:101D800017F02EFD22462B4617F0E2FE2AA3D3E9D8
:101D9000002317F027FD22462B4617F0D9FE28A373
:101DA000D3E9002317F01CFD22462B4617F0D0FE86
:101DB0000022294B17F016FD02460B4640464946C5
:101DC00017F0F0FF32463B4617F0C2FE1EA3D3E9E0
:101DD000002317F005FD32463B4617F003FD02468F
:101DE0000B4617F0FFFC02460B4619A1D1E9000192
:101DF00017F0F6FCB1E600BF09F7FD0DE13D023F2B
:101E000088B20175E0EF493F3B8F68B52882A43F57
:101E10005544880E55C1C93F7D6FEB0312D6D43FA0
:101E2000555555555555C53F82922EB1C5B8B33F4E
:101E300059018D1B6C06E63FC88A599CE52A004073
:101E40004B2D8A1C273A0340075C143326A6913C8D
:101E5000182D4454FB2109400000F03F0000E03FF2
:101E6000414A91422DE9F84304460D4637DD3F4A89
:101E700091420B4608DD02F1795291423DDD024666
:101E800017F0B0FCBDE8F88301F1404202F5801282
:101E900002432ED0B1F1804F37DC0022344B17F0D3
:101EA0009FFC02460B4604460D4617F09BFC22465B
:101EB00006460F462B462046294617F049FE0246A5
:101EC0000B463046394617F08DFC16F05DFC224675
:101ED0002B4617F087FCBDE8F843FFF7C1B8024670
:101EE0000B4617F07DFC02460B4617F05BFFBDE882
:101EF000F88300200021BDE8F88300F00DFE18A350
:101F0000D3E9002317F06EFCF1E7024617F020FE3C
:101F10000022174B17F064FC16F036FC2246804670
:101F200089462B462046294617F05CFC2246064689
:101F30000F462B464046494617F054FC02460B46D6
:101F400000200B4917F02EFF0B460246394630465B
:101F500017F046FCBDE8F84300F0DEBDAFF30080AB
:101F6000EF39FAFE422EE63FFFFFEF3FFFFFAF41A2
:101F70000000F03F000000002DE9F04FAE4B21F0D3
:101F800000479F4287B004460D4611DD07F14047E8
:101F900007F5801703463B4321D002460B4617F056
:101FA0001FFC02460B4617F0FDFE07B0BDE8F08FA0
:101FB000A24B9F420E4629DCB7F1795F80F2468141
:101FC00081A3D3E9002317F00DFC00229C4B18F0ED
:101FD0004FF8D8B12046294607B0BDE8F08F7CA362
:101FE000D3E9002317F0B4FD7BA3D3E90023064611
:101FF0000F462046294617F0ABFD02460B463046F9
:10200000394617F0EFFB07B0BDE8F08F20462946B0
:1020100015F01EFD02460B460020894917F0E0FB33
:102020000022884B17F094FD6DA3D3E900230446EA
:102030000D4617F08DFD6CA3D3E9002317F0D2FBFA
:1020400022462B4617F084FD69A3D3E9002317F03D
:10205000C7FB22462B4617F07BFD67A3D3E900237D
:1020600017F0C0FB22462B4617F072FD64A3D3E99C
:10207000002317F0B5FB22462B4617F069FD62A33B
:10208000D3E9002317F0AEFB22462B4617F060FD84
:102090005FA3D3E90023CDE900012046294617F0CC
:1020A00057FD5DA3D3E9002317F09AFB22462B4688
:1020B00017F04EFD5AA3D3E9002317F093FB2246F5
:1020C0002B4617F045FD58A3D3E9002317F088FBF2
:1020D00022462B4617F03CFD594B002217F082FB9D
:1020E00082468B4620462946CDE902AB16F04CFBD2
:1020F000554B9F428046894600F3198102460B46A4
:1021000017F070FBDDE90223CDE90401DDE90001F0
:1021100017F048FE02460B46DDE9040117F018FDF2
:102120004FF0000ACDE9000152464B465046494661
:1021300017F00EFD02460B462046294617F050FBCD
:10214000524604460D464B464046494617F04AFB68
:1021500002460B462046294617F024FE02460B464F
:1021600017F040FB02460B461BA1D1E9000117F016
:1021700037FB02460B46DDE9000117F031FB524602
:1021800004460D464B465046494617F02BFB024687
:102190000B4627A1D1E9000117F022FB02460B46AE
:1021A0002046294617F01CFB02460B4620A1D1E928
:1021B000000117F015FB002E3FF7F7AE01F10043C9
:1021C0001946F2E6AFF300809C7500883CE4377E48
:1021D000182D4454FB21F93F075C143326A6913C8B
:1021E00009F7FD0DE13D023F88B20175E0EF493F7F
:1021F0003B8F68B52882A43F5544880E55C1C93F1E
:102200007D6FEB0312D6D43F555555555555C53FF7
:1022100082922EB1C5B8B33F59018D1B6C06E63FC3
:10222000C88A599CE52A00404B2D8A1C273A034056
:10223000182D4454FB21E93FFFFFEF3FFFFFDF3F35
:102240000000F03F0000E03F3233EF3F02460B4614
:1022500017F07EFC4BA3D3E9002306460F4617F088
:1022600077FC4AA3D3E9002317F0BCFA32463B4679
:1022700017F06EFC47A3D3E9002317F0B1FA3246FA
:102280003B4617F065FC45A3D3E9002317F0AAFAF3
:1022900032463B4617F05CFC42A3D3E9002317F01B
:1022A0009FFA32463B4617F053FC40A3D3E9002384
:1022B00017F098FA32463B4617F04AFC3DA3D3E9A3
:1022C0000023804689463046394617F041FC3BA33F
:1022D000D3E9002317F084FA32463B4617F038FC66
:1022E00038A3D3E9002317F07DFA32463B4617F0B6
:1022F0002FFC36A3D3E9002317F072FA32463B468F
:1023000017F026FC00221E4B17F06CFA02460B4613
:102310004046494617F046FD22462B4617F018FC6A
:1023200022462B4617F05EFA07B0BDE8F08F524602
:102330005B46DDE9000117F035FD42464B4617F0DC
:1023400007FC42464B4617F04DFA02460B4617F083
:1023500049FA07A3D3E9002317F042FA02460B46D5
:1023600005A1D1E9000117F03BFA24E7AFF30080A3
:10237000075C143326A6913C182D4454FB21F93FE9
:102380000000F03F09F7FD0DE13D023F88B2017505
:10239000E0EF493F3B8F68B52882A43F5544880E43
:1023A00055C1C93F7D6FEB0312D6D43F55555555E6
:1023B0005555C53F82922EB1C5B8B33F59018D1B0B
:1023C0006C06E63FC88A599CE52A00404B2D8A1CC2
:1023D000273A0340000000002DE9F84F1D46534204
:1023E000134325F00049DFF8C8C149EAD3736345B8
:1023F000144606460F4626D8C0F1000848EA0008F1
:1024000021F0004A4AEAD878E04503468B461AD8BC
:1024100005F1404808F5801858EA0208AE4643D056
:102420004FEAA57808F002085AEA030348EAD1788F
:1024300011D1B8F1020F55D0B8F1030F09D14AA15B
:10244000D1E9000105E032463B462046294617F017
:10245000C9F9BDE8F88F59EA020329D0E1452ED029
:10246000E24525D0AAEB09094FEA2959B9F13C0FF9
:102470003CDC002D3EDA19F13C0F3BDA0020002154
:10248000B8F1010F4ED0B8F1020F3ED0B8F1000FF5
:10249000DFD037A3D3E9002317F0A2F936A3D3E99D
:1024A000002317F09DF9D4E7BDE8F84FFEF744BBD1
:1024B000BBF1000F12DB32A1D1E90001C9E7CA4527
:1024C00034D0B8F1020F0DD0B8F1030FB7D0B8F186
:1024D000010F4FF0000036D00021BAE72AA1D1E960
:1024E0000001B6E724A1D1E90001B2E724A1D1E9B6
:1024F0000001C5E722462B463046394617F052FC0C
:1025000015F0A6FAFEF718FBBAE719A3D3E90023E2
:1025100017F066F902460B4617A1D1E9000117F042
:102520005FF996E701F10043194692E7B8F1020F0F
:1025300014D0B8F1030F0DD0B8F1010F06D014A1DB
:10254000D1E9000185E74FF0004182E712A1D1E90E
:1025500000017EE712A1D1E900017AE712A1D1E9D9
:10256000000176E7AFF30080182D4454FB2109C029
:10257000075C143326A6A13C182D4454FB210940C6
:10258000182D4454FB21F93F182D4454FB21F9BF69
:10259000182D4454FB21E93F182D4454FB21E9BF79
:1025A000D221337F7CD902C0D221337F7CD9024033
:1025B0000000F07F0000000043422DE9F047034394
:1025C00021F000463C4A46EAD373934204460D4646
:1025D0002AD8964240D0394B9E428A462EDD384B4F
:1025E0009E4235463FDD33460246314617F0FAF843
:1025F000224606460F462B4600202F4917F0F0F8DA
:1026000002460B463046394617F0CCFBFEF728FD54
:1026100000222C4B17F09CFABAF1000F0CDA01F1F2
:1026200000431946BDE8F08702460B4617F0D8F87C
:1026300002460B4617F0B6FBBDE8F0871CA3D3E9B2
:10264000002317F0CFF80022002317F011FD48B146
:1026500020462946BDE8F0870022002317F0A2FBA0
:10266000BDE8F087354622462B462046294617F01E
:10267000B9F822462B4606460F4617F069FA22465D
:10268000804689462B4600200B4917F0A9F80246E0
:102690000B464046494617F085FB32463B4617F04D
:1026A000A1F8FEF7DDFC0022064B17F051FAB3E764
:1026B0009C7500883CE4377E0000F03FFFFF2F3E12
:1026C000FFFFDF3F0000E03F2DE9F8434E4B21F0D4
:1026D00000449C4206460F461BDC4C4B9C4222DDCC
:1026E0004B4B9C4254DD4B4B9C4246DD4A4B9C423B
:1026F0006FDD01339C4269D041A3D3E9002310462A
:10270000194617F025FA06460F4630463946BDE809
:10271000F88302460B4617F01BFA06460F46304672
:102720003946BDE8F88315F093F902F04DFC00221C
:102730003A4B8046894617F055F8B4F1725F064669
:102740000F46ECDB42464B464046494617F000FA3E
:1027500032463B4604460D463046394617F042F8AD
:1027600002460B462046294617F01CFB00222B4B45
:1027700017F038F806460F46D1E715F069F900F072
:1027800053F80022264B17F0E3F906460F46C6E73A
:1027900015F05EF900F048F80022214B06460F467E
:1027A00017F0D6F9324604460D463B4600201C4938
:1027B00017F0F8FA02460B462046294617F012F8A1
:1027C00006460F4630463946BDE8F883154B984219
:1027D00092D83046394615F03BF90022104B17F0DD
:1027E000B7F900F021F8002204460D460C4B17F013
:1027F000AFF922462B4617F0ABF906460F468EE797
:102800009C7500883CE4377EFFFFEF7F422ED63F69
:10281000FFFF3540412E8640CD3386400000F03F1B
:102820000000E03F7DF8B98F2DE9F047B04F21F06F
:102830000042BA4284B004460D464FEAD17610D920
:10284000AC4FBA4240F28A80C1F3130303430246FD
:1028500040F0F180002E7ED00020002104B0BDE8C1
:10286000F087A54B9A4200F2B680A44B9A4240F200
:10287000D1804FF0000A22462B462046294617F009
:1028800067F985A3D3E9002306460F4617F060F9E0
:1028900083A3D3E9002316F0A3FF32463B4617F08B
:1028A00057F981A3D3E9002316F09CFF32463B463B
:1028B00017F04EF97EA3D3E9002316F091FF3246BC
:1028C0003B4617F045F97CA3D3E9002316F08AFFB5
:1028D00032463B4617F03CF902460B462046294655
:1028E00016F07EFF02460B4606460F462046294656
:1028F00017F02EF980468946BAF1000F00F0AB8040
:1029000032463B4600204FF0804116F069FF0246F8
:102910000B464046494617F045FA02460B46DDE9AC
:10292000020116F05DFFDDE9002316F059FF0B46AA
:1029300002467349002016F053FF6FF47F739A45E7
:1029400080F2A3800AF57A7A01EB0A5100224FF057
:10295000B87317F0FDF804B0BDE8F08758A3D3E9C9
:10296000002317F085FB00286BD157A3D3E9002380
:102970002046294617F05EFB00287FF46DAF6149C1
:1029800053A3D3E9002301EBC6062046294617F0DE
:10299000DFF8D6E9002316F025FF17F089FB824601
:1029A00017F06CF84CA3D3E9002306460F4617F046
:1029B000CFF802460B462046294616F011FF48A3E1
:1029C000D3E90023CDE900013046394617F0C0F8BD
:1029D000CDE9020115E04C4B9A42D0D84B4BF400A4
:1029E0002344D3E9002316F0FBFE494B234493ED27
:1029F000007BCDE900018DED027BC6F1010AAAEB57
:102A0000060ADDE90223DDE9000116F0E9FE0446CD
:102A10000D4630E734A3D3E9002316F0E3FE00228D
:102A2000374B17F025FBA8B3204629460022344B2C
:102A300016F0D8FE8FE70B4616F0D4FE04B0BDE8C2
:102A4000F08729A3D3E900231046194617F080F830
:102A500004B0BDE8F0873046394600224FF080438D
:102A600016F0BEFE02460B464046494617F09AF95C
:102A700022462B4616F0B4FE02460B4600202049A3
:102A800016F0AEFE04B0BDE8F08701EB0A5104B0C9
:102A9000BDE8F0878246EEE6D0A4BE726937663E96
:102AA000F16BD2C541BDBB3E2CDE25AF6A56113F4E
:102AB00093BDBE166CC1663F3E5555555555C53F35
:102AC000EF39FAFE422E864051302DD5104987C08D
:102AD000FE822B654715F73F0000E0FE422EE63FE1
:102AE000763C7935EF39EA3D9C7500883CE4377EC9
:102AF000412E8640FFFFEF7F422ED63FFFFF2F3E45
:102B00000000F03F90AE0100B1A2F03FA0AE010086
:102B1000B0AE0100000000002DE9F04FB1F5801FBC
:102B200085B006460F460B4680F2D08021F0004269
:102B3000024300F0DA800029C0F2E9800022D64B7F
:102B400017F006F8D54A0B46934206460F466FF03B
:102B5000350E00F3C180C3F3130505F5152C0CF6F3
:102B6000647C0CF4801C8CF07F5282F440121C15A3
:102B700042EA0507A4F2FF3474440022C84B3046F1
:102B8000394604EB1C5416F02BFEAB1CC3F31303A5
:102B9000022B82468B464FF0000240F3AF804FF08D
:102BA000804316F01FFE02460B465046594617F06A
:102BB000F9F8064620460F4616F060FF3246CDE98A
:102BC00002013B4630463946CDE9006716F0C0FFAA
:102BD00002460B468046894616F0BAFF9AA3D3E90F
:102BE000002306460F4616F0B3FF99A3D3E900234E
:102BF00016F0F8FD32463B4616F0AAFF96A3D3E93D
:102C0000002316F0EFFD32463B4616F0A1FF94A3D9
:102C1000D3E9002316F0E6FD42464B4616F098FF36
:102C200091A3D3E90023804689463046394616F001
:102C30008FFF8FA3D3E9002316F0D4FD32463B4625
:102C400016F086FF8CA3D3E9002316F0CBFD3246A5
:102C50003B4616F07DFF0B4602464946404616F0BD
:102C6000C1FDA5F5C223C5F5D725A3F27A43513599
:102C70001D43002D06460F4640F387800022894BF6
:102C80005046594616F064FF52465B4616F060FF08
:102C900002460B46804689463046394616F0A2FD6C
:102CA000DDE9002316F054FF06460F46002C40F0E5
:102CB000818002460B464046494616F091FD024689
:102CC0000B465046594616F08BFD0BE0734A934273
:102CD0004FF0000E7FF73FAF32463B463046394655
:102CE00016F080FD05B0BDE8F08F00220023002023
:102CF0006D4917F057F805B0BDE8F08F002317F0C5
:102D00008FF960B1002C7CD100200021EAE7024657
:102D100016F066FD0022002317F044F8E2E758A3FE
:102D2000D3E900235046594616F012FF02460B46DF
:102D300000205C4916F054FD524606460F465B469D
:102D40005046594616F004FF02460B4630463946B7
:102D500016F0FEFE06460F462CB3204616F08EFEF9
:102D600049A3D3E900238046894616F0F1FE48A323
:102D7000D3E9002304460D464046494616F0E8FED6
:102D800002460B46304639462CE002460B4650467A
:102D9000594616F025FDDDE9002316F0D9FE06465A
:102DA0000F46002C47D132463B465046594616F056
:102DB00017FD97E734A3D3E90023DDE9020116F0FC
:102DC000C7FE33A3D3E9002304460D46DDE9020123
:102DD00016F0BEFE32463B4616F004FD02460B4698
:102DE0004046494616F0FCFC52465B4616F0F8FC9D
:102DF00002460B462046294616F0F2FC05B0BDE817
:102E0000F08F204616F03AFE1FA3D3E900230646B2
:102E10000F4616F09DFE1EA3D3E9002304460D467F
:102E20003046394616F094FE02460B4620462946A7
:102E300016F0D8FC56E7DDE9028913A3D3E9002395
:102E40004046494691E700BF44523EDF12F1C23F7F
:102E5000DE03CB966446C73F599322942449D23F60
:102E6000935555555555E53F9FC678D0099AC33FB0
:102E7000AF788E1DC571CC3F04FA97999999D93FC7
:102E8000555555555555D53F0000E0FE422EE63FBD
:102E9000763C7935EF39EA3D00005043FFFFEF7F84
:102EA0000000F03F0000E03F000050C300000000C1
:102EB000B1F5801F2DE9F84304460D460B4619DA9B
:102EC00021F00042024359D000295FDB00223A4B37
:102ED00016F03EFE394A0D462B46934204466FF0EB
:102EE00035010CDD22462B462046294616F07AFC99
:102EF000BDE8F883314A93424FF00001F2DC181527
:102F0000A0F2FF3008444FEAD0794844C3F31308D5
:102F100016F0B4FDC9F57F73033348EA035506463E
:102F20000F4620462946FFF7F7FD1DA3D3E90023EE
:102F3000804689463046394616F00AFE1AA3D3E980
:102F4000002304460D464046494616F001FE02465F
:102F50000B462046294616F045FC15A3D3E900236D
:102F600004460D463046394616F0F2FD02460B4641
:102F70002046294616F036FCBDE8F88300220023DF
:102F800000200F4916F00EFFBDE8F883024616F048
:102F900027FC0022002316F005FFA9E7AFF300800D
:102FA000362BF111F3FE593D0EE526157BCBDB3FA9
:102FB00000609F501344D33F00005043FFFFEF7F5A
:102FC000000050C3000000002DE9F04F23F0004541
:102FD00055EA020493B00DD06B4E21F00044B44288
:102FE0000F4682460BDD04F1404404F5801454EA98
:102FF0000A0350D16549002013B0BDE8F08F9B460D
:10300000944647D0B542EEDC5F4EB5425DD0002F0E
:1030100080468946CDE900235BDB0026BCF1000F2A
:103020000ED1594B9D423FD0584B9D4200F08880B5
:10303000BBF1804F00F09C80554B9B4500F0B8835E
:103040004046494614F004FDBAF1000F06D1002CA9
:1030500059D04E4B27F040429A4254D0FF0F013FC7
:1030600056EA070373D04B4B9D4240F39B8003F11C
:1030700004739D4240F33E84474B9C4272DDBBF19A
:10308000000F72DD3EA3D3E900231046194616F067
:103090005FFDB1E728B1414813B0BDE8F04F16F02D
:1030A000ABB9A542F7DCAFE704F1404303F5801369
:1030B00053EA0A039ED0384B9C4240F38383BBF112
:1030C000000F52DBDDE9000196E7BCF1000F9ED056
:1030D00089E7334B9D4231DCA3F154739D429CDD63
:1030E0002B15A3F2FF33142B40F3A583C3F1340354
:1030F0002CFA03F202FA03F363458ED102F00102C7
:10310000C2F102068AE7BBF1000F05DA02460B4660
:1031100000201E4916F046FE002FBFF66DAF04F1E9
:10312000404404F5801454EA060300F03F84012E65
:103130007FF462AF01F1004319465DE702266DE7B7
:10314000BBF1000FC0F248834046494654E742466F
:103150004B461046194616F043FB02460B4616F046
:1031600021FE49E7BBF1000F8CDB0020002143E783
:1031700042464B464046494616F0EAFC3CE700BF53
:103180009C7500883CE4377E0000F07F0000F03F33
:103190000000E03F0000E041FFFFEF3FB8B6010054
:1031A000FFFF3F43B4F5801F80F261830022D24BC2
:1031B00016F0CEFC6FF0340C0C462315CF4DC4F343
:1031C0001302A3F2FF3342F07F546344AA420B93ED
:1031D00044F4401440F33F83C94B9A4240F30484C3
:1031E0009FEDAF7B8DED087B8DED107B9FEDAE7B72
:1031F0000B9B8DED067B01330B93A4F5801400250A
:10320000DDE906232146824616F0EAFAA346DDE907
:1032100006238046894650462146CDE90CAB16F080
:10322000E1FA02460B460020B64916F0BBFD0A46FD
:103230000146CDE90E12134649460246404616F0B5
:1032400087FC631043F0005382468B4603F500234E
:103250008C46CDE904AB5919D3460023CDE902BC15
:103260000293DDE902AB002004460D4602460B4600
:103270005046594616F06CFC02460B4640464946FD
:1032800016F0AEFADDE90623804689462046294637
:1032900016F0A6FA02460B46DDE90C0116F0A0FA7C
:1032A00052465B4616F054FC02460B4640464946E1
:1032B00016F096FADDE90E2316F04AFCDDE9044526
:1032C000CDE9060122462B462046294616F040FC51
:1032D00077A3D3E9002304460D4616F039FC76A304
:1032E000D3E9002316F07EFA22462B4616F030FC76
:1032F00073A3D3E9002316F075FA22462B4616F085
:1033000027FC71A3D3E9002316F06CFA22462B4662
:1033100016F01EFC6EA3D3E9002316F063FA2246D2
:103320002B4616F015FC6CA3D3E9002316F05AFACD
:103330002246804689462B462046294616F008FC40
:1033400002460B464046494616F002FC52460446E9
:103350000D465B46DDE9040116F044FADDE906237B
:1033600016F0F6FB22462B4616F03CFA52468046F3
:1033700089465B465046594616F0EAFB0022624BEE
:10338000CDE90C0116F02EFA42464B4616F02AFA09
:1033900002980D46044622462B465046594616F0E2
:1033A000D7FB002282468B46574B2046294616F013
:1033B00017FADDE90C2316F013FA02460B464046D5
:1033C000494616F00DFADDE9042316F0C1FB22464A
:1033D000804689462B46DDE9060116F0B9FB024618
:1033E0000B464046494616F0FDF98046894602469E
:1033F0000B465046594616F0F5F9029838A3D3E922
:10340000002304460D4616F0A3FB5246CDE9040105
:103410005B462046294616F0E3F902460B46404635
:10342000494616F0DDF930A3D3E9002316F090FBEE
:103430002FA3D3E90023804689462046294616F06B
:1034400087FB02460B464046494616F0CBF9DDE9BC
:10345000102316F0C7F980460B98894616F00EFB2C
:10346000424682468B464B46DDE9040116F0BAF926
:10347000DDE9082316F0B6F952465B4616F0B2F9BC
:10348000029852465B4604460D4616F0A9F9DDE95E
:10349000082316F0A5F9DDE9042337E0AFF3008037
:1034A0000000000000000000000000000000F03FED
:1034B000EF4E454A287ECA3F65DBC9934A86CD3F19
:1034C00001411DA96074D13F4D268F515555D53FFF
:1034D000FFAB6FDBB66DDB3F033333333333E33F97
:1034E000000000E009C7EE3FFD033ADC09C7EE3FEC
:1034F000F5015B14E02F3EBE000040438E980300B0
:1035000079B60B000000F03F0000084016F068F9A3
:103510000B4602464946404616F062F9013E56EA1D
:10352000070382468B4600F05E819FEDD37B8DEDD5
:10353000047BDDE9001200230E461746CDE9026741
:103540000293DDE9026708463B461146324616F013
:1035500047F922462B4616F0FBFADDE900238046A8
:1035600089465046594616F0F3FA02460B46404645
:10357000494616F037F93246804689463B46204692
:103580002946CDE9008916F0E3FA0B4602460646C5
:103590000F464046494616F025F9D14B994204465C
:1035A0000D468A4640F3248101F13F4303F5E003D1
:1035B000034340F0FF81B2A3D3E90023DDE900011A
:1035C00016F010F93246804689463B462046294689
:1035D00016F006F902460B464046494616F048FDED
:1035E000002840F0E781A8464FEA2853A3F2FE32B4
:1035F0004FF4801313415344C3F30A52B94DA2F25E
:10360000FF321541C3F3130423EA05010020C2F180
:10361000140B44F48014BAF1000F02460B4644FA2E
:103620000BFB30463946B8BFCBF1000B16F0D8F88B
:1036300006460F463246DDE900013B4616F0D2F859
:103640004FEA0B5A0D4600248FA3D3E900232046EE
:10365000294616F07DFA3246804689463B4620468A
:10366000294616F0BDF802460B46DDE9000116F0CA
:10367000B7F887A3D3E9002316F06AFA86A3D3E943
:10368000002306460F462046294616F061FA0246F8
:103690000B463046394616F0A5F806460F46024658
:1036A0000B464046494616F09DF842464B460446B6
:1036B0000D4616F095F802460B463046394616F090
:1036C0008FF82246804689462B462046294616F02A
:1036D0003FFA73A3D3E9002306460F4616F038FAE3
:1036E00071A3D3E9002316F07BF832463B4616F06F
:1036F0002FFA6FA3D3E9002316F074F832463B4645
:1037000016F026FA6CA3D3E9002316F069F83246C6
:103710003B4616F01DFA6AA3D3E9002316F062F8BF
:1037200032463B4616F014FA02460B46204629461E
:1037300016F056F806460F4602460B462046294626
:1037400016F006FA0022CDE900014FF08043304622
:10375000394616F045F802460B46DDE9000116F041
:1037600021FB424606460F464B462046294616F0A8
:10377000EFF942464B4616F035F802460B46304606
:10378000394616F02DF822462B4616F029F8024647
:103790000B460020544916F023F88A44BAF5801FDE
:1037A000C0F232815146DDE9042316F0D1F923E459
:1037B000002FFFF645AC4046494613B0BDE8F04F38
:1037C00014F0E2BFBBF1000FBFF6CFACDDE900346F
:1037D000184604F100410FE442464B46002042499E
:1037E00016F0E0FA08E49FED387B8DED047BA0E64F
:1037F0003E4B21F00048984540F3EA803C4B0B4497
:1038000003430AD132463B4615F0EAFFDDE90023C7
:1038100016F024FC00283FF4E7AEDDE904012CA3F8
:10382000D3E9002316F094F929A3D3E9002316F075
:103830008FF9FFF7E1BBBCF1000F40F0D280C3F17C
:10384000140345FA03F202FA03F3AB4200F0E080FE
:103850006646FFF7E9BB9FED207B8DED087B8DED84
:10386000107B9FED057B00258DED067BC8E44FF0B6
:10387000000CA2E4AFF30080000000000000F03F65
:10388000FE822B654715973C00000000432EE63F63
:10389000EF39FAFE422EE63F396CA80C615C20BE7F
:1038A000D0A4BE726937663EF16BD2C541BDBB3E46
:1038B0002CDE25AF6A56113F93BDBE166CC1663F24
:1038C0003E5555555555C53F000000000000F0BF5E
:1038D00059F3F8C21F6EA5010000000000000000AF
:1038E000FFFF8F40FFFF0F000000F03FFFCB904035
:1038F00000346F3F5A4B9C427FF734AC594B9C428B
:103900003FF7BDAB0022574B15F06AFF44A3D3E944
:10391000002304460D4616F01BF943A3D3E9002308
:1039200082468B462046294616F012F90022CDE940
:1039300002014D4B2046294616F00AF902460B4675
:103940003BA1D1E9000115F04BFF22462B4616F0B2
:10395000FFF802460B460020444915F041FF22467D
:10396000804689462B462046294616F0F1F8024645
:103970000B464046494616F0EBF82FA3D3E9002347
:1039800016F0E6F802460B46DDE9020115F028FFC5
:1039900002460B46804689465046594615F022FF9E
:1039A000002004460D4652465B46AFE502460B46F4
:1039B000FFF7CFBBDDE9040121A3D3E9002316F013
:1039C000C7F81FA3D3E9002316F0C2F8FFF714BB12
:1039D000264B98453FF708AEDDE902239246934611
:1039E00031E60026FFF72CBB9FED177B8DED087BA2
:1039F0009FED177B8DED107B9FED177B4FF480259E
:103A00008DED067BFFF7FCBB5A4601F029FDCAE6A7
:103A100002F00102C2F10206FFF706BBAFF300801D
:103A2000000000604715F73F44DF5DF80BAE543EE1
:103A3000555555555555D53FFE822B654715F73FD2
:103A40009C7500883CE4377E0000004003B8E23FEC
:103A500006D0CF43EBFD4C3E000000000000F83FD5
:103A6000FEFFEF3F0000F03F0000D03F0000E03FCE
:103A70002DE9F047CA4B21F000479F4290B08046A5
:103A8000894640F38F80C74B9F420C46924626DC06
:103A90000029B9A3D3E9002340F38F8015F0A0FEDD
:103AA000C14B9F4204460D4600F04781B4A3D3E9C1
:103AB000002315F095FE02460B46CAE90023204676
:103AC000294615F08DFEAEA3D3E9002315F088FE3C
:103AD0000125CAE90201284610B0BDE8F087B34BC2
:103AE0009F4240F38980B24B9F4200F31C813D15F9
:103AF000A5F21645A7EB055319461F46064616F0D4
:103B0000D7FA15F0BBFF8046894642464B46304601
:103B10003946CDE90A8915F063FE0022A54B16F05F
:103B200017F88946804616F0C3FA15F0A7FF064637
:103B30000F4632463B4640464946CDE90C6715F0F4
:103B40004FFE00229B4B16F003F800220023CDE924
:103B50000E0116F065FA002800F06081002330465F
:103B60003946002216F05CFA002814BF0123022314
:103B7000914A019202212A4600910AA8514600F07A
:103B800087FB002C054614DADAF80420DAF80C304A
:103B900002F1004203F100434542CAF80420CAF88A
:103BA0000C3006E000200021C2E90089C2E90201D0
:103BB0000025284610B0BDE8F08715F013FE7A4BBB
:103BC0009F4204460D4600F00B816DA3D3E900230C
:103BD00015F008FE02460B46CAE900232946204696
:103BE00015F0FEFD66A3D3E9002315F0FBFD4FF0B1
:103BF000FF35CAE90201DCE713F02AFF62A3D3E92B
:103C000000238046894615F0A3FF00226B4B15F078
:103C1000E9FD16F04DFA054615F030FF56A3D3E93D
:103C20000023CDE9060115F093FF02460B464046FE
:103C3000494615F0D5FD52A3D3E9002380468946B5
:103C4000DDE90601CDE9028915F082FF1F2D02464C
:103C50000B46CDE9042340F3B380DDE90423DDE91D
:103C6000020115F0BDFD804689463F15C9F30A5390
:103C7000FB1A102B40F3B18045A3D3E90023DDE903
:103C8000060115F065FF8046894602460B46DDE9D0
:103C9000020115F0A5FD02460B46DDE90201CDE962
:103CA000082315F09DFD42464B4615F099FD3AA3B9
:103CB000D3E9002380468946DDE9060115F048FF77
:103CC00042464B4615F08CFD0B46CDE904010246F9
:103CD000DDE9080115F084FDC1F30A53FF1A312F05
:103CE0008046894600F39C809DED087BCAE90089E7
:103CF0008DED027B42464B46DDE9020115F070FD79
:103D0000DDE9042315F06CFD002CCAE90201BFF6C1
:103D100050AF09F1004401F100436D42CAE900844B
:103D2000CAE9020345E702460B4615F059FD002596
:103D3000CAE90201CAE900013BE715A3D3E9002360
:103D400015F04EFD14A3D3E900230D46044615F0EB
:103D500047FD02460B46CAE900232946204615F0D6
:103D60003FFD0DA3D3E9002315F03AFD0125CAE973
:103D700002011EE7AFF3008000004054FB21F93F31
:103D80003163621A61B4D03D83C8C96D305FE43FCE
:103D90000000601A61B4D03D7370032E8A19A33BF2
:103DA000FB21E93F7BD90240FB21F93FFB2139414F
:103DB000FFFFEF7F00007041CCC101000000E03F39
:103DC0004046494615F00CFD394B6A1E804653F8B3
:103DD0002230BB4289463FF448AFCAE9008989E7EF
:103DE0002BA3D3E9002315F0FDFC2BA3D3E900237B
:103DF0000D46044615F0F6FC02460B46CAE90023C0
:103E00002946204615F0ECFC23A3D3E9002315F046
:103E1000E9FC4FF0FF35CAE90201CAE60323A7E631
:103E20001FA3D3E90023DDE9060115F091FE064644
:103E30000F4602460B46DDE9080115F0D1FC80462D
:103E4000894602460B46DDE90801CDE9028915F0F5
:103E5000C7FC32463B4615F0C3FC13A3D3E900234D
:103E600006460F46DDE9060115F072FE32463B4676
:103E700015F0B6FC02460B4640464946CDE9042300
:103E800015F0AEFC80468946A7E700BFAFF300807F
:103E90000000601A61B4D03D7370032E8A19A33BF1
:103EA0000000002E8A19A33BC14920259A837B3943
:103EB0004CC1010000000000574A2DE9F84F21F0E5
:103EC0000048904506460F462CDC544B0029B4BFF1
:103ED000534D544D98454FF0000411DC524B98451A
:103EE00026DC4BA3D3E9002315F07CFC00224F4BCA
:103EF00016F0BEF8002840D030463946BDE8F88FAD
:103F00004B4B984530DD4B4B984568DD0133984568
:103F100062D0304639463EA3D3E9002315F018FE9F
:103F2000BDE8F88F02460B4615F05CFCBDE8F88F43
:103F300013F08EFD01F048F83F4B984506460F46BA
:103F400023DD0022394B15F04DFC02460B4630466E
:103F5000394615F027FF32463B4615F043FC224612
:103F60002B4615F0F5FDE1E713F072FDFEF75CFC62
:103F700022462B4615F0ECFDD8E73046394613F0C3
:103F800067FD01F021F806460F4632463B463046B3
:103F9000394615F027FC324682468B463B46304672
:103FA000394615F0D5FD0022804689461F4B304624
:103FB000394615F017FC02460B464046494615F0B7
:103FC000F1FE02460B465046594615F009FC2246C2
:103FD0002B4615F0BDFDA9E7184B984299D83046FD
:103FE000394613F035FD00220E4B15F0B1FDFEF7FA
:103FF0001BFC06460F4602460B462046294615F096
:10400000A7FD32463B4615F0A3FD8FE7AFF30080D6
:104010003374AC3C1F7BAC7FFFFFEF7FFFFF35406D
:104020000000E0BF0000E03FFFFF2F3E0000F03F38
:10403000412E8640CD338640FFFFEF3F7DF8B98F9C
:104040002DE9F04F21F00048B8F1795F85B00646C0
:104050000F4692469B466BDA16F02AF8002800F0CD
:10406000E18032463B463046394615F071FD74A377
:10407000D3E9002304460D4615F06AFD72A3D3E987
:10408000002315F0AFFB22462B4615F061FD70A30F
:10409000D3E9002315F0A4FB22462B4615F058FD6A
:1040A0006DA3D3E9002315F09DFB22462B4615F0A6
:1040B0004FFD6BA3D3E9002315F092FB22462B465C
:1040C00015F046FD68A3D3E9002315F08BFB2246CB
:1040D0002B4615F03DFDCDE900010022664B204640
:1040E000294615F035FDDDE9002380468946204646
:1040F000294615F02DFD524604460D465B463046D6
:10410000394615F025FD02460B462046294615F096
:1041100067FB02460B464046494615F061FB0246E6
:104120000B460020554915F05BFB05B0BDE8F08F4C
:1041300002460B4615F00CFD41A3D3E900230446CB
:104140000D4615F005FD40A3D3E9002315F04AFB09
:1041500022462B4615F0FCFC3DA3D3E9002315F0C5
:104160003FFB22462B4615F0F3FC3BA3D3E900238B
:1041700015F038FB22462B4615F0EAFC38A3D3E9AC
:10418000002315F02DFB22462B4615F0E1FC36A34B
:10419000D3E9002315F026FB2B46224615F0D8FC68
:1041A000374B9845CDE9000197DD364B98453EDC0D
:1041B000A8F500130022002030499046994615F0DA
:1041C0000FFBCDE9020100222B4B2046294615F0BA
:1041D000BFFC42464B4615F003FBDDE90023804659
:1041E00089462046294615F0B3FC524604460D4642
:1041F0005B463046394615F0ABFC02460B4620467E
:10420000294615F0EDFA02460B464046494615F0A0
:10421000E7FA02460B46DDE9020115F0E1FA05B0C6
:10422000BDE8F08F1549002005B0BDE8F08F9FED87
:10423000107B4FF000088DED027BDFF84C90C2E759
:10424000D43888BEE9FAA8BDC4B1B4BD9EEE213E03
:10425000AD529C804F7E923E9015CB19A001FA3E44
:104260007751C1166CC1563F4C5555555555A53F14
:10427000000000000000E73F0000E03F0000F03FCA
:104280003233D33F0000E93F0000D23F000000007E
:104290002DE9F04FADF5197DBE4CA29EBE4D54F8F0
:1042A00026600793D41E85FB0475E417C4EBA504B0
:1042B00024EAE4741D46631CA3EB8303013D02EB77
:1042C000C3030593731904960994019503900B9108
:1042D000A4EB05071AD43B44002400255E1C0DF115
:1042E0008008DDF88C9208E059F8270015F0C6FB2D
:1042F0000137B742E8E8020108D0002FF4DA0137AD
:1043000020462946B742E8E80201F6D1049B002B7B
:10431000079B4FEAC30302932ADB039A20A902EB0F
:10432000030801EB0309049B72AA02EBC30B0DF512
:10433000E07A019B002B4FF000064FF0000711DBE5
:10434000039C4D4675E90223F4E8020115F000FCD8
:1043500002460B463046394615F044FA44450646B7
:104360000F46EFD1EAE80267DA4509F10809E0D122
:10437000DDE90204049920448B0082460BA8A3F1D6
:104380000802C31808930CAB13440A938B4698ABEE
:1043900003EBCB03BBF1000F53E9284529DD70ABDC
:1043A00003EBCB080DF1300900227C4B2046294657
:1043B00015F0CEFB15F07CFE15F060FB0022784B6B
:1043C00006460F4615F0C4FB02460B46204629461A
:1043D00015F006FA15F06CFE78E9022349F8040B93
:1043E0003946304615F0FEF970AB984504460D4647
:1043F000DAD1DDF81490204629464A4601F030F81B
:1044000000224FF07F5304460D4615F0A1FBFCF748
:10441000A7FD0022634B15F09BFB02460B4620468E
:10442000294615F0DDF90D46044615F041FE80469B
:1044300015F024FB0B4602462946204615F0D0F91C
:104440004B46002B06460F4640F3E1800BF1FF324E
:104450000CA9C9F1180351F8225045FA03F101FAE9
:1044600003F30CA8EB1A40F82230C9F11705884471
:1044700043FA05F5002D2CDDBBF1000F08F1010812
:1044800040F381820C9C002C40F0A780BBF1010F0F
:104490000AD00CA9012251F8044F531C002C40F003
:1044A0009E809B451A46F6D1059B002B0EDD012B05
:1044B00000F0D980022B09D10BF1FF320CAB0CA913
:1044C00053F82230C3F3150341F82230022D00F0D7
:1044D000AF80002200233046394615F0A1FD0028A8
:1044E00000F05382049B0BF1FF394B4510DC0BF1BC
:1044F00080430CAA013B089802EB8303002253F887
:104500000419834242EA0102F9D1002A40F0B68040
:10451000049B0CAA013B52F82330002B40F0A180F1
:104520000A9A012352F8041901330029FAD05B4496
:104530000BF10109994506934CDC099A079909EB9F
:10454000020801EB0B0508F1804802EB030BA39B6B
:1045500008F1FF3803EB880870AB03EBC909A39B94
:1045600020A903EB8B0301EBC505029358F8040F58
:1045700015F084FA0B4601990246002905F1080B53
:10458000C5E900234FF000064FF000071CDB039C39
:104590000CE000BF6CC60100ABAAAA2A0000703E66
:1045A000000070410000204075E90223F4E8020198
:1045B00015F0CEFA02460B463046394615F012F990
:1045C000544506460F46EFD1029B9845E9E802673D
:1045D0005D46CBD1DDF818B0D9E6012300220CA945
:1045E000C4F180749B4541F822400EDD51F8232030
:1045F00001EB8B0001EB83036FF07F4100E01A6851
:104600008A1A43F8042B8342F9D101244CE706D1DE
:104610000BF1FF330CAA52F82350ED152AE70022C4
:104620007B4B15F01BFD002840F0A381054650E7A9
:1046300032463B460020774915F0D2F806460F4631
:10464000002C3FF446AF059A7249002000F008FFA5
:1046500002460B463046394615F0C2F806460F466C
:1046600037E7012363E70BF1FF320CAB0CA953F8DA
:104670002230C3F3160341F8223027E70CAB059A2A
:1046800053F82930183ACDE9068505926BB909F13E
:104690008043013B0CA901EB830353F8041909F192
:1046A000FF39183A0029F8D00592059A5949002097
:1046B00000F0D6FEB9F1000F04460D46C0F2C081ED
:1046C0004FEAC90370AA02EB030808930CAB03EB93
:1046D0008906DFF844B14FF0000A08F108070436F4
:1046E00056F8040D15F0CAF922462B4615F030FA9B
:1046F0005B4667E9020152462046294615F028FA32
:104700000CAB9E4204460D46EAD148AB039301939D
:10471000CDF8149009F10103DDF810900293C3461F
:104720004FF0000AB9F1000FC0F22A81DFF8EC80E7
:104730005D4635A3D3E9002300260027002403E0CB
:10474000544510DCF8E80223F5E8020115F000FA00
:1047500002460B463046394615F044F80134A1456F
:1047600006460F46ECDA019BE3E802670193029BE1
:104770000AF1010A9A45ABF1080BD3D1A29BDDF8EF
:104780001490032B39D8DFE813F0D9000600060097
:104790004D0048AB0393B9F1000F4FF000004FF00C
:1047A000000109DB039D05EBC904083474E9022309
:1047B00015F018F8A542F9D1079B002B40F01E8197
:1047C0000B9BC3E900010B4603990246D1E90001A6
:1047D00015F006F8B9F1000F0CDD4AAD01240134E3
:1047E000F5E8022314F0FEFFA145F8DA079B002B41
:1047F00040F014810B9BC3E90201069B03F0070004
:104800000DF5197DBDE8F08F00000040FB21F93F58
:104810000000E03F0000F03F0000703ED8AE010015
:1048200048AB0393B9F1000F40F32781039ACDF809
:1048300010904FEAC9030193D318D3E900AB09F1F3
:104840000053013B02EBC9080293914678E90267E5
:1048500052465B463046394614F0C4FF04460D46C6
:1048600002460B463046394614F0BAFF52465B46C4
:1048700014F0B8FFC145A246AB46C8E90201C8E939
:104880000045E3D1DDF81090B9F1010F40F3F58058
:10489000019B039A02991344C900D3E9006701F10F
:1048A000080A019192440DF5947B7AE90289324617
:1048B0003B464046494614F095FF04460D460246E5
:1048C0000B464046494614F08BFF32463B4614F0F7
:1048D00089FFD34526462F46CAE90201CAE90045A9
:1048E000E3D1019C039B1034002000211C4403F100
:1048F000100574E9022314F075FFA542F9D1039C59
:10490000079ED4E90023D4E90245002E00F08A80F6
:1049100003F1004701F100430B99C1E90403069B31
:104920002646944605F1004403F00700C1E900C79C
:10493000C1E902640DF5197DBDE8F08F089C039D67
:104940000834002000212C4474E9022314F04AFFAB
:10495000A542F9D1079B13B101F1004319460B9B06
:10496000C3E90001069B03F007000DF5197DBDE8C2
:10497000F08FBBF1000F08F1010874DD022581E51D
:1049800000260027EFE600248EE5CDE90685059D8B
:10499000304639466A4200F063FD0022384B064635
:1049A0000F4615F05BFB00B30022364B304639460C
:1049B00015F0CEF815F07CFB044615F05FF80022E8
:1049C0002F4B15F0C5F80B4602463946304614F019
:1049D00007FF15F06DFB0BF101090CAB183543F81F
:1049E0002B00059543F829405FE63046394615F01F
:1049F0005FFB0CABD94643F82B0056E60B9C01F14C
:104A00000043C4E900030B4603990246D1E90001C3
:104A100014F0E6FEB9F1000F3FF7DFAE01F10043FD
:104A20001946E7E60B9EC6E90023069BC6E904018A
:104A300003F00700C6E902450DF5197DBDE8F08FCA
:104A4000A29B032B3FF6D9AE01A252F823F000BF80
:104A5000614A00009347000093470000214800008E
:104A60000020002176E732463B460020064914F03C
:104A7000B7FE022506460F462BE5002000213EE743
:104A8000000070410000703E0000F03F0000000098
:104A90002DE9F04F21F00046B6F1795F85B004466C
:104AA0000D469046994604DA15F002FB002800F006
:104AB000858022462B462046294615F049F80646B1
:104AC0000F4602460B462046294615F041F841A301
:104AD000D3E9002382468B463046394615F038F834
:104AE0003EA3D3E9002314F07BFE32463B4615F08B
:104AF0002FF83CA3D3E9002314F074FE32463B4662
:104B000015F026F839A3D3E9002314F069FE3246E4
:104B10003B4615F01DF837A3D3E9002314F062FEDD
:104B20000E9BCDE900019BB30022294B404649462C
:104B300015F00EF8DDE90023CDE902015046594693
:104B400015F006F802460B46DDE9020114F048FEB6
:104B500032463B4614F0FCFF42464B4614F040FE02
:104B600019A3D3E9002306460F465046594614F0D0
:104B7000EFFF02460B463046394614F033FE02463C
:104B80000B462046294614F02BFE05B0BDE8F08FF9
:104B900002460B463046394614F0DAFF0AA3D3E941
:104BA000002314F01DFE52465B4614F0D1FF22464E
:104BB0002B4614F017FE05B0BDE8F08F20462946BD
:104BC00005B0BDE8F08F00BF495555555555C53F57
:104BD0000000E03F7CD5CF5A3AD9E53DEB9C2B8ACB
:104BE000E6E55A3E7DFEB157E31DC73ED561C119CA
:104BF000A0012A3FA6F810111111813F000000000A
:104C00002DE9F04FC04C21F0004687B0A642824605
:104C10008B460F46CDE900231ADC15F049FA00282F
:104C20003FD1109B524601331343334300F0B78109
:104C3000109B012B00F0C0815B460020B34915F0AA
:104C4000B1F804460D462046294607B0BDE8F08F6E
:104C5000AF4B9E4225DD002909DADDE900452246F9
:104C600005F10043CDE900230BF100418B4652468C
:104C70005B4685A1D1E9000114F0B2FDDDE9002316
:104C800004460D4682A1D1E9000114F0A9FD9FED73
:104C9000827B22462B468DED007B14F0A3FD8246DD
:104CA0008B4652465B465046594614F051FF024629
:104CB0000B468046894614F04BFF424604460D469B
:104CC0004B465046594614F043FF75A3D3E90023E1
:104CD000CDE902012046294614F03AFF72A3D3E938
:104CE000002314F07FFD22462B4614F031FF70A301
:104CF000D3E9002314F076FD22462B4614F028FF5A
:104D00006DA3D3E9002314F06DFD22462B4614F069
:104D10001FFF6BA3D3E9002314F064FD22462B464A
:104D200014F016FF68A3D3E9002314F05BFD42469C
:104D30004B4614F00DFF66A3D3E90023CDE904012F
:104D40002046294614F004FF63A3D3E9002314F09E
:104D500049FD22462B4614F0FBFE61A3D3E9002354
:104D600014F040FD22462B4614F0F2FE5EA3D3E978
:104D7000002314F037FD22462B4614F0E9FE5CA315
:104D8000D3E9002314F02EFD22462B4614F0E0FE5A
:104D900059A3D3E9002314F025FD02460B46DDE9B3
:104DA000040114F01FFDDDE9022314F0D1FEDDE95A
:104DB000004522462B4614F015FD42464B4614F0A2
:104DC000C7FE22462B4614F00DFD4DA3D3E9002368
:104DD00004460D46DDE9020114F0BAFE22462B46D8
:104DE00014F000FD0B46024680468946504659465F
:104DF00014F0F8FC464B9E4204460D4600F38C80AE
:104E0000109B012B3BD002460B4600203F4914F07B
:104E1000C9FF002406460F462046294652465B46F7
:104E2000CDE90067CDE90201009414F0D9FCDDE979
:104E300000AB02460B464046494614F0D1FC5246B0
:104E40005B4614F085FE524604460D465B46DDE99E
:104E5000020114F07DFE00222E4B14F0C3FC02462A
:104E60000B462046294614F0BDFC32463B4614F062
:104E70006FFE52465B4614F0B5FC04460D462046D4
:104E8000294607B0BDE8F08F182D4454FB21E93FB7
:104E9000075C143326A6813C0000000000000000DF
:104EA000D47ABF74702AFB3EE9A7F0320FB8123FE4
:104EB00068108D1AF726303F1583E0FEC8DB573F98
:104EC00093846EE9E326823FFE41B31BBAA1AB3F58
:104ED000735360DBCB75F3BEA69237A0887E143F78
:104EE0000165F2F2D844433F280356C9226D6D3F55
:104EF00037D60684F464963F7AFE10111111C13F33
:104F0000635555555555D53FFFFF2F3E0000F0BF67
:104F10002794E53F0000F03F109814F0AFFD2246C3
:104F2000CDE900012B462046294614F011FEDDE9AB
:104F30000023CDE902012046294614F053FC024625
:104F40000B46DDE9020114F02DFF42464B4614F0FA
:104F500047FC02460B465046594614F041FC0246B7
:104F60000B4614F03FFC02460B46DDE9000114F04D
:104F700037FC0446B81700F00200C0F101000D46EE
:104F800014F07CFD02460B462046294614F0E0FD55
:104F900004460D462046294607B0BDE8F08F50462E
:104FA000594612F055FD02460B460020044914F004
:104FB000F9FE04460D4662E754465D465FE700BFD2
:104FC0000000F03F000000002DE9F04FCC4A21F036
:104FD0000043934285B082468B460C4620D9C94A8D
:104FE000934200F2D780002C80F2A481ACA3D3E9D5
:104FF00000235046594614F0F5FB0022002315F01B
:1050000019F8002840F0D180A7A3D3E90023504627
:10501000594614F09DFD02460B460020BA4994E122
:10502000BA4A934200F2E580B94A934240F22E8197
:10503000002301930022B74B5046594614F088FDD7
:1050400006460F4602460B465046594614F080FD70
:1050500097A3D3E9002304460D4614F079FD96A3E7
:10506000D3E9002314F0BEFB22462B4614F070FD5A
:1050700093A3D3E9002314F0B3FB22462B4614F08C
:1050800067FD91A3D3E9002314F0ACFB22462B4625
:1050900014F05EFD8EA3D3E9002314F0A1FB224699
:1050A0002B4614F055FD00229B4B14F09BFB8046D1
:1050B000894602460B463046394614F049FD024601
:1050C0000B460020954914F08BFB064602460B4622
:1050D0000F464046494614F083FB324680468946D7
:1050E0003B465046594614F033FD02460B4600201D
:1050F0008B4914F075FB02460B464046494614F0B6
:1051000051FE22462B4614F023FD019E02460B461B
:10511000002E4DD0DDE9026732463B4614F060FBBD
:1051200052465B4614F014FD32463B4614F058FBE1
:105130002B46224614F054FB019B013306460F46D2
:1051400000F02381019B012B7BD0019A531C392B4A
:105150004FEA025500F22881019A132A40F3558143
:10516000019BC3F57F7403340022230514F03AFB3E
:1051700002460B465046594614F032FB0022664B5D
:1051800014F030FB824605EB010B5046594605B042
:10519000BDE8F08F634A93421BD9C1F31303034365
:1051A000024640F012810029EFDA00205E490DE04E
:1051B0005046594614F0CCFC22462B4614F010FB06
:1051C00002460B465046594614F00AFB05B0BDE8AE
:1051D000F08F41A3D3E9002314F04AFF00283FF4E5
:1051E00002AF3FA3D3E900231046194614F0B0FCE8
:1051F000ECE74E4A934200F2EC8000293AA3D3E94F
:10520000002339DA14F0EEFA39A7D7E900674FF036
:10521000FF3380468946019332463B464046494625
:1052200014F0DEFA02460B4682468B46404649465B
:1052300014F0D6FA32463B4614F0D2FACDE9020118
:10524000F8E600223A4B5046594614F0F3FE002887
:1052500000F0CC805046594600222E4B14F0C2FA82
:1052600002460B463046394614F0BAFA00224FF097
:10527000404314F06DFCA9E714F0B2FA0123804614
:10528000894601931CA7D7E90067C5E714A3D3E9B2
:10529000002314F0A7FA02460B468FE7AFF3008015
:1052A00059F3F8C21F6EA501FE822B654715F73F23
:1052B0002DC3096EB7FD8ABE3952E686CACFD03EED
:1052C000B7DBAA9E19CE143F8555FE19A0015A3F9F
:1052D000F41011111111A13FEF39FAFE422E864050
:1052E0009C7500883CE4377E0000E0FE422EE63FDD
:1052F000763C7935EF39EABD763C7935EF39EA3DD0
:1053000079684340412E86400000E0BF422ED63FE0
:10531000FFFF8F3C0000E03F0000F03F000008402E
:1053200000001840FFFFEF7F0000F0BFB1A2F03F88
:105330000000D0BF44A3D3E900235046594614F0DF
:1053400007FC02460B460020414914F04BFA14F0CA
:10535000AFFE019014F092FB37A3D3E90023064679
:105360000F4614F0F5FB02460B465046594614F022
:1053700037FA33A3D3E900238046894630463946BD
:1053800014F0E6FB06460F4646E702460B4650463B
:10539000594614F025FA00222D4B14F0D9FB0022B7
:1053A0002B4B14F01DFA11E752465B4614F018FA25
:1053B00002460B460020274914F012FA6B181946D2
:1053C0000022244B14F00CFA00E70B4614F00AFA02
:1053D000FCE61DA3D3E9002314F0BAFB002C02461F
:1053E0000B464FF00000AFDA1B49AEE732463B46B2
:1053F0005046594614F0F4F902460B4614F0F2F9FF
:105400000022144B14F0EEF9E0E64FF4001343FAD7
:1054100002F452465B4614F0E3F9C4F17F570026CC
:1054200007F5401702460B463046394614F0D8F9C6
:10543000A8E600BFAFF300800000E0FE422EE63F8A
:10544000763C7935EF39EA3DFE822B654715F73F0B
:105450000000E03F0000F03F0000E0BF000000005F
:10546000F8B5C1F30A5304460D460E4617460BBB6A
:1054700021F00046034633431BD0354B002214F085
:1054800067FB344B9F4204460D4635DBC1F30A539C
:105490000E46363B3B4440F2FE72934232DC002B18
:1054A00011DD26F0FF4626F4E00646EA03552046C5
:1054B0002946F8BD40F2FF729342EBD102460B46FB
:1054C00014F090F9F8BD13F1350F28DA4CF250338F
:1054D0009F4222462B460ADD19A1D1E9000114F0B2
:1054E000F1F817A3D3E9002314F032FBF8BD16A19D
:1054F000D1E9000114F0E6F813A3D3E9002314F076
:1055000027FBF8BD22462B460DA1D1E9000114F07E
:10551000D9F80BA3D3E9002314F01AFBF8BD26F049
:10552000FF4626F4E006363346EA03552046294670
:105530000022094B14F00CFBF8BD00BFAFF3008054
:105540009C7500883CE4377E59F3F8C21F6EA501B4
:1055500000005043B03CFFFF0000903C10B5054CEC
:10556000237833B9044B13B10448AFF3008001230F
:10557000237010BD1005002000000000C4C701000A
:1055800008B5034B1BB103490348AFF3008008BDC6
:105590000000000014050020C4C70100154B002BBB
:1055A00008BF134B9D46A3F5803A00218B460F465A
:1055B0001348144A121A09F077F90F4B002B00D048
:1055C00098470E4B002B00D0984700200021040084
:1055D0000D000D48002802D00C48AFF3008014F0F5
:1055E000A7F82000290005F089F914F08DF800BF14
:1055F0000000080000000220000000000000000081
:1056000000040020A00C00200000000000000000AA
:1056100070B504460E4600F047FA88B103681B6B6C
:1056200005469847082C0CD0A4F10903012B14D986
:105630003246214610230D20BDE8704004F07AB8B0
:1056400070BD2B6828469B6A98470228F0DC2B68BF
:1056500028465B6A04219847EAE72B6828469B6A3C
:1056600098470528E4DC2B6828465B6A08219847A0
:10567000DEE700BF38B52DED028B054600F014FAC9
:10568000044640B103681B6B9847032D03D8DFE83D
:1056900005F02F363D06BDEC028B002038BD2046BC
:1056A0000CF0FCFC07EE900A2046F8EEE78A0CF0BE
:1056B00003FD07EE900A2046B8EEE78A0CF00AFDDB
:1056C00068EE087A07EE100AE8EEA87AB8EEC77A14
:1056D000E7EE077AF5EE407AF1EE10FAB1EEE78ADE
:1056E0001BD4FDEEC87ABDEC028B17EE900A38BDD4
:1056F000BDEC028B2046BDE838400CF0CFBCBDECC1
:10570000028B2046BDE838400CF0D6BCBDEC028BC5
:105710002046BDE838400CF0DDBC17EE900A12F0D0
:10572000CDFEDEE738B5044600F0BEF958B1036897
:105730001B6B0546984744B1012C04D12846BDE8AF
:105740003840FBF73DB9002038BD2846BDE8384059
:10575000FBF716B910B5044600F0A6F928B10368A6
:1057600021465B6ABDE81040184710BD00487047ED
:1057700016FCFFFF704700BF10B5034B03600446E3
:105780000CF088FA204610BDB4BC010010B5054BE2
:10579000036004460CF07EFA204614F061FF2046B8
:1057A00010BD00BFB4BC01002DE9F041032184B05D
:1057B0000546512001F0DAFCDFF8E8C2AE4B0446A2
:1057C00004F00F06C4F3031714F4807408BF634693
:1057D000AA4831463A460BF0E7FB221C18BF0122CB
:1057E00031463B4628460EF055FD0023AB60A448E9
:1057F0000BF0DAFB4FF0FF31032001F0B7FCC0B231
:1058000004F052FA4FF0FF310446022001F0AEFCE2
:10581000C0B204F049FA002C3BD0002839D0014630
:10582000204604F063F8064600284DD04FF0FF31C3
:10583000462001F09BFC322804464ED04BDD382830
:1058400000F0B18068285FD14FF0FF31012001F0F6
:105850008DFCC0B204F028FA80465C2014F009FFE9
:10586000052301934246009431462B4607460DF02E
:1058700013FDAF603B683846DB6A9847A868036849
:105880001B6B98477F480BF08FFB284604B0BDE8A0
:10589000F0817D480BF088FB4FF0FF31192001F0BB
:1058A00065FCC0B204F000FA4FF0FF310446182046
:1058B00001F05CFCC0B204F0F7F90146204604F0A8
:1058C00015F806460028B1D170480BF06DFB28464C
:1058D00004B0BDE8F081302816D14FF0FF3101202F
:1058E00001F044FCC0B204F0DFF98046502014F00F
:1058F000C0FEA4B2074605230193424600943146F8
:105900002B460DF073FAB4E701243268CDE9004468
:105910000023576AAB600F220DF10F03322130468E
:10592000B847002800F085803368CDE900440F2295
:105930005F6A30210DF10F033046B84700284AD086
:105940003368CDE900440D225F6A38210DF10F0361
:105950003046B847002872D03268CDE900440DF1D6
:105960000F03576A682175223046B847002845D191
:10597000682147480BF018FB4FF0FF31204601F03B
:10598000F5FBC0B204F090F980465C2014F071FE83
:1059900005246823CDE90034424631462B460746AC
:1059A0000DF07AFC65E74FF0FF31012001F0DEFBDE
:1059B000C0B204F079F98046502014F05AFE052355
:1059C0000746019342462B46009431460DF044FBB6
:1059D000304B3B604DE730212D480BF0E5FA302489
:1059E0004FF0FF31012001F0C1FBC0B204F05CF9BF
:1059F0008046502014F03DFE07467CE726480BF019
:105A0000D3FAAF68002F7FF435AF4FF0FF3103209A
:105A100001F0ACFBC0B204F047F930B11F480BF005
:105A2000C3FA284604B0BDE8F0811D480BF0BCFA6B
:105A30004DE7322116480BF0B7FA3224D0E738216F
:105A400013480BF0B1FA4FF0FF31204601F08EFB06
:105A5000C0B204F029F98046502014F00AFE052453
:105A600038230746CDE9003442462B4631460DF037
:105A7000F3FA084B3B60FCE660AF010070AF010039
:105A800090AF010050B00100A0AF0100B4AF010021
:105A9000E0AF010028AF0100CCAF0100F4AF01007E
:105AA00030B0010068AF010038B5114C23680BB16C
:105AB000986838BD4FF0FF31012001F057FBC0B2AC
:105AC00004F0F2F840B10C2014F0D3FD0546FFF7C6
:105AD0006BFE2560A86838BD4FF0FF31032001F050
