:020000040801F1
:1000000000800120455D020851840208D99A010848
:10001000A1090308A1090308A109030800000000C1
:1000200000000000000000000000000055840208ED
:1000300059840208000000005D84020861840208FF
:10004000A1090308A1090308A1090308A1090308DC
:10005000A1090308A1090308FD790208017A020831
:10006000057A0208097A02080D7A020879810208E5
:100070008981020899810208A9810208B9810208D0
:10008000C9810208D9810208A1090308A10903084E
:10009000A1090308A1090308A1090308117A0208AC
:1000A000A1090308A1090308A1090308A10903087C
:1000B000796402088164020889640208A1090308BE
:1000C000A1090308A1090308A1090308897F0208FF
:1000D000957F0208A1090308A1090308A1090308E3
:1000E000157A0208A1090308A1090308A109030858
:1000F000A1090308A1090308A1090308E98102086D
:10010000A1090308A109030891640208A17F02085C
:10011000A1090308A1090308A1090308A10903080B
:10012000F98102080982020819820208298202085C
:1001300039820208A1090308A1090308A1090308DB
:10014000A1090308A1090308A1090308B966020867
:10015000498202085982020869820208A10903083B
:10016000A1090308A1090308A1090308A1090308BB
:10017000A1090308A1090308A10903080000000060
:10018000A1090308A1090308A1090308A10903089B
:10019000AD7F0208A1090308A1090308A10903080A
:1001A000A1090308A1090308A1090308A10903087B
:1001B000A1090308000000002DE9F04F85B003916C
:1001C0000778A7F10903042B044607F07F0200F12A
:1001D0000100F5D9202AF3D02B2F04BF67780446FD
:1001E0002D2F75D09FED427B8DED007B4FF00008E9
:1001F0004FF000099FB34FF0000C25464FF0000A66
:10020000DFF8FCB0644619E01DF05EF980468946CF
:1002100030461DF0EFF842464B461CF09FFF524619
:10022000804689465B46DDE900013CB31DF076FA65
:10023000CDE90001A44615F8017F7FB1A7F1300692
:10024000092E52465B4640464946DDD9CCB92E2F91
:1002500017D115F8017F0124002FEFD12C4642461B
:100260004B46DDE900011DF02FF980468946039BCE
:10027000404649461C6005B0BDE8F08F4FF0010CC8
:10028000D9E72C46BCF1000F29D042464B46DDE9A8
:1002900000011DF019F907F0DF07452F8046894658
:1002A000E5D10399681C0A221FF0ACFF14490246ED
:1002B00000201DF0B9FC02460B46404649461DF0A1
:1002C00003F9804689464046494605B0BDE8F08FAF
:1002D0009FED097B67788DED007B013486E7DFF8C1
:1002E00024904FF000084046494605B0BDE8F08F25
:1002F000000000000000F03F000000000000F0BF20
:10030000000024400000F87F2DE9F0470023144648
:100310000022804689461DF049FB28B109F10043BF
:1003200099462D232370013400220023404649467C
:100330001DF032FB28B13022002322706370BDE82B
:10034000F087404649461EF06BFA1DF06DFB73A323
:10035000D3E900230746494640461DF027FB002805
:100360004ED170A3D3E90023404649461DF03CFB23
:10037000002845D10E2F07F1010540F3B980A7F100
:100380000E063246002062491DF04EFC02460B4626
:10039000404649461DF0C2F900225E4B1CF0DEFECD
:1003A0001DF07EFC002DA7F10F0E4FF0010C4DDD6E
:1003B000594FDFF87881012245F6F3294FF02E0AD4
:1003C000494508BF40454FF030030AD3B0EB080061
:1003D00061EB0901494508BF404503F10103F5D22E
:1003E000DBB2237050EA010304F101084AD19542BF
:1003F00052DD0132102A4FD0444677E90289DFE707
:10040000002F33DB3A46002041491DF00DFC024627
:100410000B46404649461DF081F93BA3D3E9002332
:100420008046894601250026404649461DF04CF885
:100430000022384B1CF092FE1DF032FC002DBC4611
:100440004FF0FF3E37464FF00006B1DC2346302226
:100450004FF02E0803F8022B84F80180FC4345D0AE
:100460001C4403F8012BA342FBD1A1E77A420020F0
:1004700027491DF0D9FB02460B46404649461DF070
:1004800023F8CAE7954202F1010204BF84F801A0F3
:1004900004F10208102AAFD16EB14246302102F8B1
:1004A000011BC2F1010373444344002BF7DC2EEA25
:1004B000EE7301339844BCF1010F12D0BCF1000F70
:1004C0004FF0650388F80030C5BF2B2388F8013052
:1004D00008F1010108F102016046BDE8F04710F0A3
:1004E000DDBF002388F80030BDE8F0871C465FE7D9
:1004F000C7F10E02002006491DF096FB3E4602465B
:100500000B46012790E700BF0000901EC4BCD642F6
:10051000000024400000E03FC81103088DEDB5A0A5
:10052000F7C6B03E50EFE2D6E41A4B4400407A10D2
:1005300070B54FF0FF3006F0F3F804466FF07F40DF
:1005400006F0EEF8064620461CF044FF00220C4B55
:100550001CF0BAFF044630460D461CF03BFF06A3D4
:10056000D3E900231DF0DAF802460B46204629465F
:100570001CF0F4FD70BD00BF0000E0DFFFFF6F4323
:100580000000F03D000000002DE9F04F1D461389EA
:10059000AB4288BF536885B004468CBF53F8250032
:1005A000002090468A4606F02FFD0022904B1CF05A
:1005B0008BFF1DF039FAB8F808206B1C9A4288BFEF
:1005C000D8F8042006468CBF52F82300002006F01D
:1005D0001BFD0022864B1CF077FF1DF025FAB8F8B2
:1005E00008300235AB4288BFD8F8043007468CBFCC
:1005F00053F82500002006F007FD002EC4E900672F
:1006000040F3E280002F40F3DF8071A3D3E90023A1
:10061000002584F828501EF027F800220023804689
:1006200089461DF0C3F940B14046494668A3D3E965
:1006300000231CF093FD8046894667A3D3E900237D
:10064000404649461DF0D0F9C0B165A3D3E9002367
:10065000404649461DF0B4F980B101234046494661
:1006600084F8283060A3D3E900231CF077FD58A359
:10067000D3E900231DF0F8FF8046894600225D4B38
:10068000404649461CF020FF1DF026FD01F10043C5
:1006900000221946564B1CF017FF1DF0C5F94946BC
:1006A000054640461DF0D4FC0022514B1CF00CFFC7
:1006B0001DF0BAF9DAF804304F49B3F80CB0B3F8CA
:1006C0000AA0A56007FB0BF303EB010806FB0AF683
:1006D000019388FB05234FEA124C00960E444CEA26
:1006E000034C06EA010383FB009A06EB0C0E0EEAAC
:1006F000010ED346CA468EFB00675246CDE902671B
:10070000120C42EA0B42DDE902AB0CEA010C8CFB55
:1007100000674FEA164956460A40360C46EA0B4631
:1007200049EA074982FB05AB5F46C144B0445646DF
:10073000CDE90267039FE060360C09EA010908EA87
:10074000010846EA074689FB05AB334488FB05569A
:10075000CDE9025655462D0C45EA0B45DDE902ABC5
:100760000B40AC4403EAE3770CEA010C554623EA5C
:10077000E37367454FEA154502EAE276A8BF67468C
:1007800045EA0B45634522EAE272B8BF6346AE44D0
:100790004E450EEA010EA8BF4E464A45B8BF4A462E
:1007A0007745A8BF77467345B8BF73464645A8BF8F
:1007B0004646C4E905634245B8BF424600980199E0
:1007C000206261622761E261204605B0BDE8F08FDA
:1007D000EA2E4454FB211940F4D64354FB21F93F3F
:1007E000320D337F7CD91240EA2E4454FB2109405C
:1007F0000000F0400000E03F0000FFFF00000000AC
:100800002DE9F04F2DED028B044683B0C0681CF03B
:10081000F1FD8046206989461CF0ECFD8246606946
:100820008B461CF0E7FD024601F1004306460F46E9
:10083000404649461DF0AAFE1DF03EF9E06205461D
:100840001DF06CFD019028461DF02CFD019B054616
:1008500018461CF0E1FD42464B461CF035FE804632
:10086000284689461CF0D8FD32463B461CF02CFE3B
:1008700002460B46404649461CF06EFC02460B46BB
:10088000504659461DF082FE1DF016F9002208EE72
:10089000100A0023304639461DF0A6F828B3B5EEFD
:1008A000C08AF1EE10FA1CDD11A7D7E9006718EE37
:1008B000100A1CF0B1FD02460B46304639461CF0CA
:1008C0004BFC32463B461CF049FC1DF0F5F8A0629B
:1008D000E38843F00203E38003B0BDEC028BBDE884
:1008E000F08F05A7D7E90067E1E784ED0A8AEFE713
:1008F000EA2E4454FB21F93FEA2E4454FB21F9BF70
:1009000008B512F039F8DFED0C7A07EE100A67EE41
:10091000277A17EE900A1CF07FFD05A3D3E9002388
:100920001CF0FCFE1DF080F808BD00BFAFF3008096
:10093000EA2E4454FB2119400000B443000000009B
:1009400008B512F02DF8DFED0C7A07EE100A67EE0D
:10095000277A17EE900A1CF05FFD05A3D3E9002368
:100960001CF0DCFE1DF060F808BD00BFAFF3008096
:10097000EA2E4454FB2119400000B443000000005B
:100980004F4A21F0004393422DE970430D4604463F
:100990004DDC4C4A93420E460FDC45A3D3E90023BD
:1009A0001CF0DCFB0022484B1DF01EF8002854D040
:1009B0002B4620461946BDE87083444A934240DCEA
:1009C000B3F1804F49DD1DF03FFB2246804689464A
:1009D0002B46204629461CF077FD00223A4B1CF09E
:1009E000BDFB1EF051FB42464B461CF0B7FB0246D6
:1009F0000B46002034491CF091FE424604460D4649
:100A00004B46404649461CF0A9FB0B460246294688
:100A100020461CF0A3FB01F0C7FE04460B46002E47
:100A20000BDC03F1004320461946BDE870830B46FA
:100A300002461CF093FB04460B4620461946BDE8CF
:100A400070831DF001FB01F0AFFE1BA3D3E900236F
:100A50001CF084FB04460B46E1E722462B46204669
:100A600029461CF031FD80468946204629461DF066
:100A7000EBFA00220446144B0D46404649461CF052
:100A80006DFB1EF001FB00220F4B1CF067FB0246C2
:100A90000B46404649461CF041FE22462B461CF0C0
:100AA0005DFB00F0B1FA04460B46B8E7AFF30080F7
:100AB0009C7500883CE4377EEF39FAFE422EE63F13
:100AC000FFFFEF7FFFFF2F3E0000F03F0000B0412F
:100AD0002DE9F84FB84B21F000469E420D468A465C
:100AE00004460EDDB54B9E4200F3B08000F0AB80B3
:100AF000B34BB449B448BAF1000FC8BF1946BDE8BA
:100B0000F88FB24B9E4200F3B980A3F1DE739E4290
:100B100040F3A4804FF0FF3B22462B462046294657
:100B20001CF0D2FC02460B46804689461CF0CCFCE9
:100B300089A3D3E9002306460F461CF0C5FC88A311
:100B4000D3E900231CF00AFB32463B461CF0BCFCF8
:100B500085A3D3E900231CF001FB32463B461CF081
:100B6000B3FC83A3D3E900231CF0F8FA32463B46DA
:100B70001CF0AAFC80A3D3E900231CF0EFFA324654
:100B80003B461CF0A1FC7EA3D3E900231CF0E6FA4F
:100B900042464B461CF098FC7BA3D3E900238046D9
:100BA0008946304639461CF08FFC79A3D3E90023EF
:100BB0001CF0D2FA32463B461CF086FC76A3D3E901
:100BC00000231CF0C9FA32463B461CF07DFC74A39E
:100BD000D3E900231CF0C0FA32463B461CF074FCFB
:100BE00071A3D3E900231CF0B7FA32463B461CF050
:100BF0006BFC02460B46404649461CF0AFFA2246C3
:100C00002B461CF061FCBBF1FF3F02460B465CD05B
:100C10006F4B704E4FEACB0B5B44D3E900231CF0C3
:100C20009BFA22462B461CF097FAB34402460B4629
:100C3000DBE900011CF090FABAF1000F0CDA01F1C7
:100C40000041BDE8F88F00283FF452AF224620460D
:100C50002B4629461CF082FABDE8F88F54A3D3E94D
:100C600000231CF07BFA00225B4B1CF0BDFE002829
:100C70003FF450AF20462946BDE8F88F1DF0E4F957
:100C8000564B9E4204460D4625DCA3F550239E425A
:100C90004ADC02460B461CF061FA00224E4B1CF067
:100CA0005BFA002206460F464FF080432046294655
:100CB0001CF054FA02460B46304639461CF02EFD15
:100CC0004FF0000B04460D4626E7204629461CF04F
:100CD00043FABDE8F88F424B9E421ADC0022414B9A
:100CE0001CF03AFA002206460F463E4B20462946A3
:100CF0001CF0EAFB0022384B1CF030FA02460B468F
:100D0000304639461CF00AFD4FF0020B04460D46F2
:100D100002E702460B46002033491CF0FFFC4FF06F
:100D2000030B04460D46F7E600222B4B1CF014FA89
:100D3000002206460F46284B204629461CF00EFA94
:100D400002460B46304639461CF0E8FC4FF0010BDA
:100D500004460D46E0E600BF11DA22E33AAD903FCB
:100D6000EB0D76244B7BA93F513DD0A0660DB13FE2
:100D70006E204CC5CD45B73FFF8300922449C23F4A
:100D80000D5555555555D53F2F6C6A2C44B4A2BF0F
:100D90009AFDDE522DDEAD3F6D9A74AFF2B0B33FD7
:100DA000711623FEC671BC3FC4EB98999999C93F4F
:100DB0009C7500883CE4377EFFFF0F440000F07F05
:100DC000FB21F93FFB21F9BF182D4454FFFFDB3F06
:100DD000F0110308D01103080000F03FFFFFF23FBD
:100DE000FF7F03400000F83F0000F0BF000000005C
:100DF000C1F30A522DE9F843A2F2FF36132E0B4637
:100E00000D4604468846074621DC002E4CDB3A4A54
:100E100042FA06F901EA090202431DD034A3D3E9DC
:100E200000231CF09BF9002200231CF0DDFD48B1DB
:100E3000002D04DD4FF4801343FA06F6B04428EA8F
:100E4000090500273C4629462046BDE8F883332E95
:100E500006DDB6F5806F3AD019462046BDE8F88326
:100E6000A2F213424FF0FF3929FA02F919EA000FF2
:100E7000F2D01FA3D3E900231CF070F90022002355
:100E80001CF0B2FD0028DDD0002D09DD142E25D088
:100E90000123C6F1340603FA06F6371928BF984431
:100EA00027EA09074546CDE711A3D3E900231CF043
:100EB00055F9002200231CF097FD0028C2D0002D18
:100EC0000FDB55EA040707D000270C4DBAE70246AE
:100ED0001CF044F90446C0E73D46B3E705F10108BC
:100EE000DEE700274FF00045ACE700BFAFF300801E
:100EF0009C7500883CE4377EFFFF0F000000F03F48
:100F0000C1F30A522DE9F843A2F2FF36132E0B4625
:100F10000D460446884607461DDC002E3DDB384A58
:100F200042FA06F901EA0902024319D032A3D3E9D1
:100F300000231CF013F9002200231CF055FDD0B350
:100F4000002D04DA4FF4801343FA06F6B04428EA81
:100F5000090500272FE0332E06DDB6F5806F2FD070
:100F600019462046BDE8F883A2F213424FF0FF393C
:100F700029FA02F919EA000FF2D01FA3D3E90023DE
:100F80001CF0ECF8002200231CF02EFD98B1002D7F
:100F900024DB27EA090745460DE017A3D3E9002320
:100FA0001CF0DCF8002200231CF01EFD18B1002DFF
:100FB0000BDB00273D463C4629462046BDE8F8832A
:100FC00002461CF0CBF80446CBE725F000430D4A5F
:100FD0001F43002F18BF15460027ECE7142E08D03A
:100FE0000123C6F1340603FA06F6371928BF9844E0
:100FF000CFE705F10108CCE79C7500883CE4377E1B
:10100000FFFF0F000000F0BF2DE9F04FD84B9942D1
:1010100087B00E46074643DDD64B99428A4600F319
:10102000F680D54B994240F330810B15A3F2FF3B7C
:1010300000220023CDE902230446D04BCAF3130A51
:101040009A454AF07F5500F3158145F44015204636
:1010500029460022CA4B1CF07FF8002204460D46A8
:10106000C84B1CF031FA22462B461CF02DFA804664
:10107000894627462E46CDE90089BAF1000F3AD1BC
:1010800000220023204629461CF086FC002800F0A0
:101090001D81BBF1000F40F0858100200146BAE0C0
:1010A000B94B21F000449C420A460FDD0022B74BA9
:1010B0001CF072FC002800F0B18000220023002008
:1010C000B3491CF02BFB07B0BDE8F08FB14B9C423D
:1010D00040F3B180B04B1A449A4240F2D6800022CD
:1010E000A84B1CF0F1F93A4633461CF0EDF9CDE976
:1010F00000014FF0000B00224FF08043384631468C
:101100001CF02CF802460B46384631461CF006FB14
:1011100002460B46804689461CF0D6F980A3D3E9E7
:10112000002304460D461CF0CFF97FA3D3E900232A
:101130001CF014F822462B461CF0C6F97CA3D3E918
:1011400000231CF00BF822462B461CF0BDF97AA3B5
:10115000D3E900231CF002F822462B461CF0B4F918
:1011600077A3D3E900231BF0F9FF22462B461CF09E
:10117000ABF975A3D3E900231BF0F0FF22462B4601
:101180001CF0A2F972A3D3E900231BF0E7FF22466B
:101190002B461CF099F9DDE9004522462B461BF051
:1011A000DDFF42464B461CF08FF9CDE90401BBF14F
:1011B000000F00F0A88058461CF01CF966A3D3E984
:1011C0000023804689461CF07FF965A3D3E90023FC
:1011D00004460D46404649461CF076F9DDE90223F7
:1011E0001BF0BCFFDDE904231BF0B8FF02460B46F1
:1011F000DDE900011BF0B0FF3A4633461BF0ACFFBF
:1012000002460B46204629461BF0A6FF03E0024695
:101210000B461BF0A3FF07B0BDE8F08F3A463346FC
:10122000384631461BF098FF02460B461CF076FA12
:1012300007B0BDE8F08F0022584B1BF08FFF002253
:1012400000231CF0D1FB10B1554B9C4262DD3A46A5
:101250003346384631461CF037F90022494B1CF022
:1012600033F902460B46384631461BF075FF07B08E
:10127000BDE8F08F45F40015CAF5801A20462946CE
:101280004FEAAA0A0BF1010BE3E63D4B3846314623
:1012900000221BF063FF0B15A3F2FF3BBBF1000F15
:1012A00004460D468A4640F3C3803A4633461BF057
:1012B00053FF02460B46002031491BF04DFF2246EA
:1012C0002B461CF02BFACDE90201B6E626A3D3E9A2
:1012D0000023204629461CF0F7F802460B46002062
:1012E00027491BF039FF42464B461CF0EDF80646F5
:1012F0000F46BBF1000F73D102460B46204629462C
:101300001BF02AFF87E702460B46204629461BF0C2
:1013100023FFA6E7384631467DE700BFAFF30080E4
:1013200044523EDF12F1C23F9FC678D0099AC33FB4
:10133000DE03CB966446C73FAF788E1DC571CC3FA8
:10134000599322942449D23F04FA97999999D93F05
:10135000935555555555E53F0000E0FE422EE63FBA
:10136000763C7935EF39EA3D555555555555E53FAC
:101370007982DA3FFFFFEF7FFFFF3F439DA006002A
:101380000000F03F0000E03FFFFFEF3F0000F0BF34
:10139000000050C3FFFF1F3E3C412D400000504362
:1013A000FFFF8F3C58461CF025F827A3D3E9002304
:1013B00006460F461CF088F8DDE902231BF0CEFE3E
:1013C00023A3D3E9002304460D46304639461CF0DA
:1013D0007BF802460B46204629461BF0BFFE1AE763
:1013E00058461CF007F81AA3D3E9002382468B461F
:1013F0001CF06AF814A3D3E90023804689465046BE
:1014000059461CF061F8DDE902231BF0A7FE0246F5
:101410000B46304639461BF09FFE22462B461BF0FA
:101420009BFE02460B46404649461BF095FEF2E6FF
:101430000022094B1BF090FE02460B46384631460F
:101440001BF08AFE3BE700BF763C7935EF39EA3D79
:101450000000E0FE422EE63F0000F03F00000000EA
:1014600008B51DF061F904A3D3E900231CF056F977
:1014700008BD00BFAFF30080EF39FAFE422EE63F11
:101480002DE9F043DFF8B4808BB004460D4600F040
:1014900057FF98F90030013306460F462CD02246FC
:1014A0002B46204629461CF0A9FA814620BB20463F
:1014B00029461CF0C9FD1CA3D3E900231CF094FAB3
:1014C000D0B11B4A98F90030CDF820900321CDE926
:1014D0000445CDE90245CDE9001293B1154900203C
:1014E000022BCDE9060111D11EF048FE2223036034
:1014F000089B9BB9DDE90667304639460BB0BDE86D
:10150000F0830D4B4FF06042CDE9062368461EF094
:10151000E5FC0028E8D0089B002BEBD01EF02EFE47
:10152000089B0360E6E700BF7DF8B98FCE338640A5
:10153000C02D03080000F07FFFFFEF479A03002053
:101540002DE9F043DFF8E4808BB004460D4600F04F
:10155000A3FF98F90030013306460F4633D02046EA
:1015600029461EF0B5FC70B329A3D3E90023204619
:1015700029461CF039FA814650BB27A3D3E9002342
:10158000204629461CF012FAE8B198F90030244AA6
:10159000CDF82090042600200021022BCDE904453F
:1015A000CDE90245CDE90062CDE9060129D06846C2
:1015B0001EF094FC28B3089B1BB11EF0DFFD089BB6
:1015C0000360DDE90667304639460BB0BDE8F083BD
:1015D000134A98F90030019203210022CDE9044515
:1015E000CDE90245009108922BB90E4B4FF06042B5
:1015F000CDE90623DBE70C490020022BCDE90601EB
:10160000D5D11EF0BBFD22230360D4E7AFF30080E9
:10161000EF39FAFE422E864051302DD5104987C051
:10162000C82D0308FFFFEF470000F07F9A0300205A
:101630002DE9F84FC44E21F00043B3420C46054655
:101640000DDD03F1404303F58013034340F0B980FF
:10165000002940F3408100200021BDE8F88FBB4EF7
:10166000B34208DCBA4A934200F3B5809CA1D1E9A9
:101670000001BDE8F88F0029C0F2708102460B46D8
:101680000020B4491BF068FD0022B34B1BF01CFF87
:1016900004460D461DF0F8FC93A3D3E900238946C8
:1016A0008046294620461BF00FFF91A3D3E9002373
:1016B0001BF054FD22462B461BF006FF8EA3D3E9F8
:1016C00000231BF049FD22462B461BF0FDFE8CA398
:1016D000D3E900231BF042FD22462B461BF0F4FE0B
:1016E00089A3D3E900231BF037FD22462B461BF0CC
:1016F000EBFE87A3D3E900231BF030FD22462B46E7
:101700001BF0E2FE84A3D3E9002382468B462046E9
:1017100029461BF0D9FE82A3D3E900231BF01CFD50
:1017200022462B461BF0D0FE7FA3D3E900231BF0FB
:1017300015FD22462B461BF0C7FE7DA3D3E90023EF
:101740001BF00AFD22462B461BF0BEFE0022814BF9
:101750001BF004FD02460B46504659461BF0DEFFC7
:1017600042464B461BF0B0FE002682468B46324670
:101770004B46304649461BF0A7FE02460B46204624
:1017800029461BF0E9FC324604460D464B464046CE
:1017900049461BF0E3FC02460B46204629461BF057
:1017A000BDFF02460B46504659461BF0D7FC324659
:1017B0004B461BF0D3FC02460B461BF0CFFCBDE8AA
:1017C000F88F02460B461BF0C7FC02460B461BF087
:1017D000A5FFBDE8F88F02460B461BF075FE42A33D
:1017E000D3E9002306460F461BF06EFE40A3D3E963
:1017F00000231BF0B3FC32463B461BF065FE3EA3C4
:10180000D3E900231BF0A8FC32463B461BF05CFEEC
:101810003BA3D3E900231BF0A1FC32463B461BF05F
:1018200053FE39A3D3E900231BF096FC32463B4616
:101830001BF04AFE36A3D3E900231BF08FFC32468F
:101840003B461BF041FE34A3D3E900238046894682
:10185000304639461BF038FE31A3D3E900231BF094
:101860007BFC32463B461BF02FFE2FA3D3E900231F
:101870001BF074FC32463B461BF026FE2CA3D3E93A
:1018800000231BF069FC32463B461BF01DFE002284
:10189000304B1BF063FC02460B46404649461BF0AA
:1018A0003DFF2A4623461BF00FFE02460B4622A1AF
:1018B000D1E900011BF050FC02460B4628462146A8
:1018C0001BF04AFC02460B4605A1D1E900011BF0C2
:1018D00043FCBDE8F88F1AA1D1E9000179E700BF08
:1018E000182D4454FB21F93F09F7FD0DE13D023F5E
:1018F00088B20175E0EF493F3B8F68B52882A43F6D
:101900005544880E55C1C93F7D6FEB0312D6D43FB5
:10191000555555555555C53F82922EB1C5B8B33F63
:1019200059018D1B6C06E63FC88A599CE52A004088
:101930004B2D8A1C273A0340075C143326A6913CA2
:10194000182D4454FB210940FFFFEF3FFFFFDF3F0D
:101950000000603C0000F03F0000E03F00225C4BD4
:101960001BF0FCFB00225B4B1BF0AEFD40A3D3E958
:10197000002304460D461BF0A7FD3FA3D3E9002337
:101980001BF0ECFB22462B461BF09EFD3CA3D3E94B
:1019900000231BF0E1FB22462B461BF095FD3AA3EA
:1019A000D3E900231BF0DAFB22462B461BF08CFD0B
:1019B00037A3D3E900231BF0CFFB22462B461BF0B5
:1019C00083FD35A3D3E900231BF0C8FB22462B4639
:1019D0001BF07AFD80468946204629461DF054FBBF
:1019E0002FA3D3E9002306460F46204629461BF0C5
:1019F0006BFD2DA3D3E900231BF0AEFB22462B4643
:101A00001BF062FD2AA3D3E900231BF0A7FB2246AB
:101A10002B461BF059FD28A3D3E900231BF09CFBA8
:101A200022462B461BF050FD0022294B1BF096FB53
:101A300002460B46404649461BF070FE32463B4686
:101A40001BF042FD1EA3D3E900231BF085FB3246A9
:101A50003B461BF083FB02460B461BF07FFB024616
:101A60000B4619A1D1E900011BF076FBB1E600BFDE
:101A700009F7FD0DE13D023F88B20175E0EF493FF6
:101A80003B8F68B52882A43F5544880E55C1C93F95
:101A90007D6FEB0312D6D43F555555555555C53F6F
:101AA00082922EB1C5B8B33F59018D1B6C06E63F3B
:101AB000C88A599CE52A00404B2D8A1C273A0340CE
:101AC000075C143326A6913C182D4454FB21094091
:101AD0000000F03F0000E03F414A91422DE9F84309
:101AE0000C46054637DD3F4A914209DD02F1795245
:101AF00091423EDD02460B461BF030FBBDE8F88309
:101B000001F1404202F5801202432ED0B1F1804F24
:101B100037DC0022344B1BF01FFB02460B46044609
:101B20000D461BF01BFB224606460F462B46204661
:101B300029461BF0C9FC02460B46304639461BF0CD
:101B40000DFB1DF0A1FA22462B461BF007FBBDE85A
:101B5000F843FFF759BA02460B461BF0FDFA02465E
:101B60000B461BF0DBFDBDE8F88300200021BDE83B
:101B7000F88300F019FE18A3D3E900231BF0EEFA56
:101B8000F1E702460B461BF09FFC0022164B1BF0B0
:101B9000E3FA1DF079FA2A4680468946234628460C
:101BA00021461BF0DBFA2A4606460F4623464046EE
:101BB00049461BF0D3FA02460B4600200A491BF0A7
:101BC000ADFD0B460246394630461BF0C5FABDE86E
:101BD000F84300F0E9BD00BFEF39FAFE422EE63FC0
:101BE000FFFFEF3FFFFFAF410000F03F00000000AC
:101BF0002DE9F04FB24B21F000479F4287B00D46D0
:101C0000044615DD07F1404707F5801703463B43BF
:101C100026D002460B461BF09FFA0B4602461BF0ED
:101C20007DFD04460B462046194607B0BDE8F08FFF
:101C3000A44B9F420E462EDCB7F1795F80F24A81B9
:101C400083A3D3E900231BF089FA00229E4B1BF0EB
:101C5000CBFE00B32B462046194607B0BDE8F08FF7
:101C60007DA3D3E900231BF02FFC7DA3D3E9002340
:101C700006460F46204629461BF026FC02460B4628
:101C8000304639461BF06AFA04460B462046194690
:101C900007B0BDE8F08F204629461CF0D5F9024672
:101CA0000B46002088491BF057FA0022874B1BF097
:101CB0000BFC6DA3D3E9002304460D461BF004FC86
:101CC0006BA3D3E900231BF049FA22462B461BF0F5
:101CD000FBFB69A3D3E900231BF03EFA22462B4607
:101CE0001BF0F2FB66A3D3E900231BF037FA224670
:101CF0002B461BF0E9FB64A3D3E900231BF02CFA6D
:101D000022462B461BF0E0FB61A3D3E900231BF026
:101D100025FA22462B461BF0D7FB5FA3D3E900230D
:101D2000CDE90001204629461BF0CEFB5CA3D3E998
:101D300000231BF011FA22462B461BF0C5FB5AA3C9
:101D4000D3E900231BF00AFA22462B461BF0BCFB0A
:101D500057A3D3E900231BF0FFF922462B461BF0C3
:101D6000B3FB594B00221BF0F9F982468B46204603
:101D70002946CDE902AB1DF087F9554B9F428046BD
:101D8000894600F31C8102460B461BF0E7F9DDE9AA
:101D90000223CDE90401DDE900011BF0BFFC02468E
:101DA0000B46DDE904011BF08FFB4FF0000ACDE983
:101DB000000152464B46504649461BF085FB024601
:101DC0000B46204629461BF0C7F9524604460D46ED
:101DD0004B46404649461BF0C1F902460B46204699
:101DE00029461BF09BFC02460B461BF0B7F9024646
:101DF0000B461BA1D1E900011BF0AEF902460B46D0
:101E0000DDE900011BF0A8F9524604460D464B4699
:101E1000504649461BF0A2F902460B4626A1D1E9DD
:101E200000011BF099F902460B46204629461BF09B
:101E300093F90B46024620A1D1E900011BF08CF971
:101E400004460B46002E3FF7EEAE03F10043EAE6F0
:101E50009C7500883CE4377E182D4454FB21F93FE3
:101E6000075C143326A6913C09F7FD0DE13D023FC6
:101E700088B20175E0EF493F3B8F68B52882A43FE7
:101E80005544880E55C1C93F7D6FEB0312D6D43F30
:101E9000555555555555C53F82922EB1C5B8B33FDE
:101EA00059018D1B6C06E63FC88A599CE52A004003
:101EB0004B2D8A1C273A0340182D4454FB21E93F3F
:101EC000FFFFEF3FFFFFDF3F0000F03F0000E03F7C
:101ED0003233EF3F02460B461BF0F6FA48A3D3E934
:101EE000002306460F461BF0EFFA47A3D3E9002371
:101EF0001BF034F932463B461BF0E6FA44A3D3E923
:101F000000231BF029F932463B461BF0DDFA42A3C1
:101F1000D3E900231BF022F932463B461BF0D4FAEA
:101F20003FA3D3E900231BF017F932463B461BF0D1
:101F3000CBFA3DA3D3E900231BF010F932463B4610
:101F40001BF0C2FA3AA3D3E9002380468946304603
:101F500039461BF0B9FA38A3D3E900231BF0FCF88B
:101F600032463B461BF0B0FA35A3D3E900231BF001
:101F7000F5F832463B461BF0A7FA33A3D3E900231A
:101F80001BF0EAF832463B461BF09EFA0022344B27
:101F90001BF0E4F802460B46404649461BF0BEFBE8
:101FA00022462B461BF090FA22462B461BF0D6F811
:101FB00004460B462046194607B0BDE8F08F52464E
:101FC0005B46DDE900011BF0A9FB42464B461BF0D6
:101FD0007BFA42464B461BF0C1F802460B461BF00B
:101FE000BDF81BA3D3E900231BF0B6F80B4602464D
:101FF00019A1D1E900011BF0AFF804460B4621E717
:1020000009F7FD0DE13D023F88B20175E0EF493F60
:102010003B8F68B52882A43F5544880E55C1C93FFF
:102020007D6FEB0312D6D43F555555555555C53FD9
:1020300082922EB1C5B8B33F59018D1B6C06E63FA5
:10204000C88A599CE52A00404B2D8A1C273A034038
:10205000075C143326A6913C182D4454FB21F93F0C
:102060000000F03F000000002DE9F84F54421443F7
:1020700023F00048684E48EAD474B44284460F46C0
:102080001FD84442044321F0004A4AEAD474B442BF
:102090008B4616D803F1404404F5801414439E4641
:1020A0003DD09C1704F0020444EAD1745AEA0001BE
:1020B0000FD1022C50D0032C3CD145A1D1E9000115
:1020C00005E01046194662463B461BF047F8BDE85E
:1020D000F88F58EA020126D0B0452DD0B24522D063
:1020E000AAEB08084FEA2858B8F13C0F38DC002B5F
:1020F0003ADA18F13C0F37DA00200021012C49D0E0
:10210000022C3AD0002CE2D033A3D3E900231BF0F9
:1021100023F833A3D3E900231BF01EF8D7E7BDE86B
:10212000F84FFEF7D5BCBBF1000F11DB2EA1D1E9B2
:102130000001CCE73946CAE7C2452FD0022C0BD0AC
:10214000032CBAD0012C4FF0000031D00021BEE7A3
:1021500027A1D1E90001BAE721A1D1E90001B6E741
:1021600021A1D1E90001C9E7604639461BF0D6FA42
:102170001BF06AFFFEF7ACFCC0E717A3D3E900230E
:102180001AF0EAFF02460B4615A1D1E900011AF048
:10219000E3FF9CE701F10043194698E7022C12D0B7
:1021A000032C0CD0012C06D013A1D1E900018EE73D
:1021B0004FF000418BE712A1D1E9000187E712A19E
:1021C000D1E9000183E712A1D1E900017FE700BF57
:1021D000182D4454FB2109C0075C143326A6A13CEA
:1021E000182D4454FB210940182D4454FB21F93F7C
:1021F000182D4454FB21F9BF182D4454FB21E93F0D
:10220000182D4454FB21E9BFD221337F7CD902C071
:10221000D221337F7CD902400000F07F0000000013
:1022200043422DE9F047034321F00048404A48EA81
:10223000D37393420F462ED890454AD03D4B9845D4
:102240008A4636DD3C4B9845044645464CDD024601
:10225000434641461AF082FF224606460F46434651
:10226000002033491AF078FF02460B4630463946C3
:102270001BF054FAFEF7C8FE304B00221BF024F985
:10228000BAF1000F04460B460FDA01F10043204675
:102290001946BDE8F08702460B461AF05DFF0B4673
:1022A00002461BF03BFA04460B4620461946BDE8A1
:1022B000F0871DA3D3E9002304461AF04FFF002244
:1022C00000231BF091FB70B13B4620461946BDE848
:1022D000F087002200231BF021FA04460B4620461B
:1022E0001946BDE8F087454622462B46204629463A
:1022F0001AF034FF22462B4606460F461BF0E4F840
:102300002246804689462B46002009491AF024FFC0
:1023100002460B46404649461BF000FA32463B4611
:102320001AF01CFFA6E700BF9C7500883CE4377ECE
:102330000000F03FFFFF2F3EFFFFDF3F0000E03FC8
:102340004D4A2DE9F84321F0004494420B460646DD
:102350001BDC4A4A944224DD494A944256DD494AEC
:10236000944248DD484A944271DD013294426BD078
:102370003FA3D3E90023104619461BF0A5F80646F3
:102380000F4630463946BDE8F88304460D462246DE
:102390002B461BF099F806460F4630463946BDE8F5
:1023A000F8831BF051FE02F06FFC0022374B804691
:1023B00089461AF0D3FEB4F1725F06460F46ECDB95
:1023C00042464B46404649461BF07EF832463B4665
:1023D00004460D46304639461AF0C0FE02460B460A
:1023E000204629461BF09AF90022284B1AF0B6FE27
:1023F00006460F46D1E71BF027FE00F04DF80022FD
:10240000234B1BF061F806460F46C6E71BF01CFE87
:1024100000F042F800221E4B06460F461BF054F80F
:10242000324604460D463B46002019491BF076F91A
:1024300002460B46204629461AF090FE06460F46F5
:1024400030463946BDE8F883124A904290D830466B
:1024500019461BF0F9FD00220D4B1BF035F800F07A
:102460001BF800220A4B04460D461BF02DF88EE7A0
:102470009C7500883CE4377EFFFFEF7F422ED63FFD
:10248000FFFF3540412E8640CD3386400000F03FAF
:102490000000E03F7DF8B98F2DE9F047B84F21F0FB
:1024A0000042BA4284B00C464FEAD176054612D9B2
:1024B000B44FBA4240F28E80C1F313030343024685
:1024C00040F0F780002E00F0818000252946284644
:1024D00004B0BDE8F087AC4B9A4200F2B880AB4B39
:1024E0009A4240F2D3804FF0000A2A4623462846FB
:1024F00021461AF0E9FF8CA3D3E9002306460F46D4
:102500001AF0E2FF8AA3D3E900231AF025FE32462F
:102510003B461AF0D9FF88A3D3E900231AF01EFE28
:1025200032463B461AF0D0FF85A3D3E900231AF0C8
:1025300013FE32463B461AF0C7FF83A3D3E90023BC
:102540001AF00CFE32463B461AF0BEFF02460B461E
:10255000284621461AF000FE02460B4606460F4664
:10256000284621461AF0B0FF80468946BAF1000F8E
:1025700000F0B38032463B4600204FF080411AF015
:10258000EBFD02460B46404649461BF0C7F80246A3
:102590000B46DDE902011AF0DFFDDDE900231AF048
:1025A000DBFD0B4602467A4900201AF0D5FD6FF498
:1025B0007F739A4580F2AD800AF57A7A01EB0A5171
:1025C00000224FF0B8731AF07FFF0546284604B08A
:1025D000BDE8F0875EA3D3E900231BF005FA0028CD
:1025E0006FD1284621465CA3D3E900231BF0DEF916
:1025F00000287FF46AAF674B284603EBC6062146E6
:1026000057A3D3E900231AF05FFFD6E900231AF09D
:10261000A5FD1BF009FA82461AF0ECFE52A3D3E99D
:10262000002306460F461AF04FFF02460B46284687
:1026300021461AF091FD4EA3D3E90023CDE9000114
:10264000304639461AF040FFCDE9020115E0524B01
:102650009A42D0D8514BF4002344D3E900231AF016
:102660007BFD4F4B2344D3E90034CDE90001CDE994
:102670000234C6F1010AAAEB060ADDE90223DDE90C
:1026800000011AF069FD05460C462EE73AA3D3E98E
:1026900000231AF063FD00223D4B1BF0A5F9002832
:1026A0003ED0284621460022394B1AF057FD0546F8
:1026B0008CE70B461AF052FD0546284604B0BDE8EB
:1026C000F0872DA3D3E90023104619461AF0FCFE2B
:1026D0000546284604B0BDE8F0873046394600225A
:1026E0004FF080431AF038FD02460B4640464946FB
:1026F0001BF014F82A4623461AF02EFD02460B461C
:10270000002023491AF028FD0546284604B0BDE8FC
:10271000F087054601EB0A51284604B0BDE8F08772
:102720008246E2E6AFF30080D0A4BE726937663E0F
:10273000F16BD2C541BDBB3E2CDE25AF6A56113FC1
:1027400093BDBE166CC1663F3E5555555555C53FA8
:10275000EF39FAFE422E864051302DD5104987C000
:10276000FE822B654715F73F0000E0FE422EE63F54
:10277000763C7935EF39EA3D9C7500883CE4377E3C
:10278000412E8640FFFFEF7F422ED63FFFFF2F3EB8
:102790000000F03F10120308B1A2F03F201203081E
:1027A00030120308000000002DE9F04FB1F5801F42
:1027B00085B006460F460B4680F2D08021F00042DD
:1027C000024300F0DA800029C0F2E9800022D64BF3
:1027D0001AF07AFED54A0B46934206460F466FF032
:1027E000350E00F3C180C3F3130505F5152C0CF667
:1027F000647C0CF4801C8CF07F5282F440121C1517
:1028000042EA0507A4F2FF3474440022C84B304664
:10281000394604EB1C541AF09FFCAB1CC3F31303A2
:10282000022B82468B464FF0000240F3AF804FF000
:1028300080431AF093FC02460B46504659461AF064
:102840006DFF064620460F461AF0D4FD3246CDE90C
:1028500002013B4630463946CDE900671AF034FEA6
:1028600002460B46804689461AF02EFE9AA3D3E90B
:10287000002306460F461AF027FE99A3D3E900234A
:102880001AF06CFC32463B461AF01EFE96A3D3E9C2
:1028900000231AF063FC32463B461AF015FE94A35F
:1028A000D3E900231AF05AFC42464B461AF00CFEBC
:1028B00091A3D3E9002380468946304639461AF071
:1028C00003FE8FA3D3E900231AF048FC32463B46AF
:1028D0001AF0FAFD8CA3D3E900231AF03FFC32462C
:1028E0003B461AF0F1FD0B460246494640461AF0B7
:1028F00035FCA5F5C223C5F5D725A3F27A4351359A
:102900001D43002D06460F4640F387800022894B69
:10291000504659461AF0D8FD52465B461AF0D4FD8F
:1029200002460B4680468946304639461AF016FC68
:10293000DDE900231AF0C8FD06460F46002C40F0E2
:10294000818002460B46404649461AF005FC024685
:102950000B46504659461AF0FFFB0BE0734A934270
:102960004FF0000E7FF73FAF32463B4630463946C8
:102970001AF0F4FB05B0BDE8F08F00220023002020
:102980006D491AF0CBFE05B0BDE8F08F00231BF0B7
:1029900003F860B1002C7CD100200021EAE7024658
:1029A0001AF0DAFB002200231AF0B8FEE2E758A37F
:1029B000D3E90023504659461AF086FD02460B46DD
:1029C00000205C491AF0C8FB524606460F465B469B
:1029D000504659461AF078FD02460B4630463946B5
:1029E0001AF072FD06460F462CB320461AF002FD7F
:1029F00049A3D3E90023804689461AF065FD48A320
:102A0000D3E9002304460D46404649461AF05CFDD2
:102A100002460B46304639462CE002460B465046ED
:102A200059461AF099FBDDE900231AF04DFD0646E0
:102A30000F46002C47D132463B46504659461AF0C5
:102A40008BFB97E734A3D3E90023DDE902011AF0F9
:102A50003BFD33A3D3E9002304460D46DDE9020123
:102A60001AF032FD32463B461AF078FB02460B461E
:102A7000404649461AF070FB52465B461AF06CFB22
:102A800002460B46204629461AF066FB05B0BDE813
:102A9000F08F20461AF0AEFC1FA3D3E900230646B0
:102AA0000F461AF011FD1EA3D3E9002304460D467C
:102AB000304639461AF008FD02460B4620462946A4
:102AC0001AF04CFB56E7DDE9028913A3D3E9002392
:102AD0004046494691E700BF44523EDF12F1C23FF3
:102AE000DE03CB966446C73F599322942449D23FD4
:102AF000935555555555E53F9FC678D0099AC33F24
:102B0000AF788E1DC571CC3F04FA97999999D93F3A
:102B1000555555555555D53F0000E0FE422EE63F30
:102B2000763C7935EF39EA3D00005043FFFFEF7FF7
:102B30000000F03F0000E03F000050C30000000034
:102B4000B1F5801F2DE9F84304460D460B4619DA0E
:102B500021F00042024359D000295FDB00223A4BAA
:102B60001AF0B2FC394A0B4693420D4604466FF008
:102B700035010CDD22462B46204629461AF0EEFA96
:102B8000BDE8F883314A93424FF00001F2DC18159A
:102B9000A0F2FF3008444FEAD0794844C3F3130849
:102BA0001AF028FCC9F57F73033348EA035506463B
:102BB0000F4620462946FFF7F7FD1DA3D3E9002362
:102BC00080468946304639461AF07EFC1AA3D3E97E
:102BD000002304460D46404649461AF075FC02465D
:102BE0000B46204629461AF0B9FA15A3D3E900236B
:102BF00004460D46304639461AF066FC02460B463E
:102C0000204629461AF0AAFABDE8F88300220023DC
:102C100000200F491AF082FDBDE8F88302461AF041
:102C20009BFA002200231AF079FDA9E7AFF3008098
:102C3000362BF111F3FE593D0EE526157BCBDB3F1C
:102C400000609F501344D33F00005043FFFFEF7FCD
:102C5000000050C3000000002DE9F04F23F00045B4
:102C600055EA020493B00DD0794E21F00044B442ED
:102C70000F4682460FDD04F1404404F5801454EA07
:102C80000A035BD1734C0023CDE90034DDE9000178
:102C900013B0BDE8F08F984694464ED0B542EADCBA
:102CA0006B4EB54266D0002F8B468146CDE902239C
:102CB00064DB0026BCF1000F0ED1654B9D4246D06F
:102CC000644B9D4200F09780B8F1804F00F0B280D5
:102CD000614B984500F0CC83484659461BF0B4F947
:102CE000CDE90001BAF1000F06D1002C60D0594B9C
:102CF00027F040429A425BD0FF0F013F56EA07039C
:102D000000F08280554B9D4240F3B08003F1047384
:102D10009D4240F34184524B9C4240F38280B8F183
:102D2000000F40F3828048A3D3E9002310461946E0
:102D30001AF0CAFBCDE90001A8E728B1494813B051
:102D4000BDE8F04F1DF0CCB8A542F7DCA8E704F1D0
:102D5000404303F5801353EA0A0393D0404B9C424F
:102D600040F39083B8F1000F5FDBDDE90234CDE979
:102D700000348BE7BCF1000F95D07CE73A4B9D42C5
:102D800037DCA3F154739D4293DD2B15A3F2FF337F
:102D9000142B40F3E983C3F134032CFA03F202FA53
:102DA00003F3634585D102F00102C2F1020681E717
:102DB000B8F1000F07DADDE90023002025491AF0F9
:102DC000ADFCCDE90001002FBFF660AF04F1404437
:102DD00004F5801454EA060300F03C84012E7FF4CD
:102DE00055AFDDE90045224605F10043CDE900235A
:102DF0004CE702265EE7B8F1000FC0F24F83484669
:102E00005946CDE9000141E74A4648465B465946E6
:102E10001AF0A2F902460B461AF080FCCDE9000137
:102E200034E7B8F1000FFFF67EAF00230024CDE9B0
:102E300000342BE74A4648465B4659461AF044FBA5
:102E4000CDE9000122E700BF9C7500883CE4377E95
:102E50000000F07F0000F03F0000E03F0000E04194
:102E6000FFFFEF3F301B0308FFFF3F43B4F5801F18
:102E700080F28F83DDE900010022CF4B1AF024FBA2
:102E8000CDE900010C466FF0340C2315CB4DC4F393
:102E90001302A3F2FF3342F07F5403EB0C01AA426A
:102EA0000B9144F4401440F36F83C54B9A4240F3B6
:102EB000F38300220023CDE9082301310B91A4F50F
:102EC0008014CDE91023BF4B0022CDE90623002555
:102ED000DDE90001DDE90623214682461AF03CF9CE
:102EE000A346DDE906238046894650462146CDE9C2
:102EF0000CAB1AF033F902460B460020B1491AF028
:102F00000DFC0A460146CDE90E121346494602461B
:102F100040461AF0D9FA631043F0005382468B46BC
:102F200003F500238C46CDE904AB5919D3460023A1
:102F3000CDE900BC0093DDE900AB002004460D465E
:102F400002460B46504659461AF0BEFA02460B4658
:102F5000404649461AF000F9DDE9062380468946D5
:102F6000204629461AF0F8F802460B46DDE90C0126
:102F70001AF0F2F852465B461AF0A6FA02460B46E1
:102F8000404649461AF0E8F8DDE90E231AF09CFAAB
:102F9000DDE90445CDE9060122462B4620462946B7
:102FA0001AF092FA72A3D3E9002304460D461AF0F0
:102FB0008BFA71A3D3E900231AF0D0F822462B46EE
:102FC0001AF082FA6EA3D3E900231AF0C7F822465A
:102FD0002B461AF079FA6CA3D3E900231AF0BEF855
:102FE00022462B461AF070FA69A3D3E900231AF09F
:102FF000B5F822462B461AF067FA67A3D3E90023F7
:103000001AF0ACF82246804689462B4620462946CF
:103010001AF05AFA02460B46404649461AF054FA4C
:10302000524604460D465B46DDE904011AF096F867
:10303000DDE906231AF048FA22462B461AF08EF8EC
:103040005246804689465B46504659461AF03CFA3D
:1030500000225D4BCDE90C011AF080F842464B4648
:103060001AF07CF800980D46044622462B4650463E
:1030700059461AF029FA002282468B46524B2046C6
:1030800029461AF069F8DDE90C231AF065F80246C2
:103090000B46404649461AF05FF8DDE904231AF072
:1030A00013FA2246804689462B46DDE906011AF0CE
:1030B0000BFA02460B46404649461AF04FF8804646
:1030C000894602460B46504659461AF047F8009882
:1030D00033A3D3E9002304460D461AF0F5F952460E
:1030E000CDE904015B46204629461AF035F8024630
:1030F0000B46404649461AF02FF82BA3D3E900238C
:103100001AF0E2F92AA3D3E9002380468946204633
:1031100029461AF0D9F902460B46404649461AF0AC
:103120001DF8DDE910231AF019F880460B9889463E
:103130001AF060F9424682468B464B46DDE90401AF
:103140001AF00CF8DDE908231AF008F852465B463D
:103150001AF004F8009852465B4604460D4619F0F2
:10316000FBFFDDE9082319F0F7FFDDE904232DE07B
:10317000EF4E454A287ECA3F65DBC9934A86CD3F5C
:1031800001411DA96074D13F4D268F515555D53F42
:10319000FFAB6FDBB66DDB3F033333333333E33FDA
:1031A000000000E009C7EE3FFD033ADC09C7EE3F2F
:1031B000F5015B14E02F3EBE000040438E980300F3
:1031C00079B60B000000F03F0000084019F0C4FF82
:1031D0000B4602464946404619F0BEFF013E56EAFC
:1031E000070382468B46DDE9020114BFD84BD94B59
:1031F0000022CDE9042302460B46CDE9002300233B
:103200000093DDE9006732463B4619F0A5FF2246F0
:103210002B461AF059F9DDE90223804689465046CB
:1032200059461AF051F902460B464046494619F0F4
:1032300095FF3246804689463B4620462946CDE9E1
:1032400002891AF041F90B46024606460F464046EF
:10325000494619F083FFC04B994204460D468A4601
:1032600040F3268101F13F4303F5E003034340F0BF
:10327000F781A3A3D3E90023DDE9020119F06EFF72
:103280003246804689463B462046294619F064FF6F
:1032900002460B46404649461AF0A6FB002840F07D
:1032A000DF81A8464FEA2853A3F2FE324FF4801381
:1032B00013415344C3F30A52A84DA2F2FF32154101
:1032C000C3F3130423EA05010020C2F1140B44F4F4
:1032D0008014BAF1000F02460B4644FA0BFB30464D
:1032E0003946B8BFCBF1000B19F036FF02460B464A
:1032F00006460F46DDE9020119F030FF4FEA0B5A8E
:103300000D46002480A3D3E90023204629461AF065
:10331000DBF83246804689463B462046294619F06E
:103320001BFF02460B46DDE9020119F015FF78A3E9
:10333000D3E900231AF0C8F877A3D3E9002306469F
:103340000F46204629461AF0BFF802460B46304683
:10335000394619F003FF06460F4602460B46404623
:10336000494619F0FBFE42464B4604460D4619F00D
:10337000F3FE02460B463046394619F0EDFE224672
:10338000804689462B46204629461AF09DF864A3BC
:10339000D3E9002306460F461AF096F862A3D3E954
:1033A000002319F0D9FE32463B461AF08DF860A38F
:1033B000D3E9002319F0D2FE32463B461AF084F8D6
:1033C0005DA3D3E9002319F0C7FE32463B461AF04D
:1033D0007BF85BA3D3E9002319F0C0FE32463B46DD
:1033E0001AF072F802460B462046294619F0B4FE40
:1033F00006460F4602460B46204629461AF064F858
:103400000022CDE900014FF080433046394619F0E3
:10341000A3FE02460B46DDE900011AF07FF94246A1
:1034200006460F464B46204629461AF04DF84246BE
:103430004B4619F093FE02460B463046394619F0CA
:103440008BFE22462B4619F087FE02460B460020D3
:103450003F4919F081FE8A44BAF5801FC0F22D81E0
:103460005146DDE904231AF02FF8CDE900010DE4FF
:10347000002FFFF631AC4846594613B0BDE8F04F77
:103480001BF002BEB8F1000FBFF6CFACDDE902348D
:10349000009304F100430193FFF7F8BB4A465B46F3
:1034A00000202B491AF03AF9CDE90001FFF7EEBBF5
:1034B0002B4B21F00048984540F3E280294B0B4408
:1034C00003430AD132463B4619F046FEDDE90223AA
:1034D0001AF080FA00283FF4E5AE1BA3D3E90023DD
:1034E000DDE9040119F0F0FF17A3D3E9002319F077
:1034F000EBFFCDE90001FFF7C9BB00BFAFF30080D0
:10350000FE822B654715973C00000000432EE63FE6
:10351000EF39FAFE422EE63F396CA80C615C20BE02
:10352000D0A4BE726937663EF16BD2C541BDBB3EC9
:103530002CDE25AF6A56113F93BDBE166CC1663FA7
:103540003E5555555555C53F59F3F8C21F6EA50157
:103550000000F03F0000F0BFFFFF8F40FFFF0F00B3
:10356000FFCB904000346F3FBCF1000F40F09180E2
:10357000C3F1140345FA03F202FA03F3AB4200F07D
:10358000A0806646FFF79CBB00220023CDE90823FC
:1035900097E44FF0000C78E45B4B9C427FF741AC22
:1035A0005A4B9C423FF7BBABDDE900010022574B71
:1035B00019F0D2FD46A3D3E9002304460D4619F0C5
:1035C00083FF45A3D3E9002382468B462046294644
:1035D00019F07AFF0022CDE900014D4B2046294623
:1035E00019F072FF02460B463DA1D1E9000119F026
:1035F000B3FD22462B4619F067FF02460B4600201A
:10360000444919F0A9FD2246804689462B462046AA
:10361000294619F059FF02460B464046494619F023
:1036200053FF31A3D3E9002319F04EFF02460B46A6
:10363000DDE9000119F090FD02460B4680468946FF
:103640005046594619F08AFD002004460D46524660
:103650005B46BBE5DDE9002310461946FFF7D8BB02
:1036600023A3D3E90023DDE9040119F02DFF20A3F2
:10367000D3E9002319F028FFCDE90001FFF706BBCD
:10368000244B98453FF70EAEDDE900239246934662
:1036900037E60026FFF720BB17A3D3E90023CDE9C7
:1036A000082317A3D3E90023CDE910231A4B0022E6
:1036B0004FF48025CDE906230AE45A4601F02CFD9B
:1036C000CFE602F00102C2F10206FFF7F9BA00BF2D
:1036D000000000604715F73F44DF5DF80BAE543E35
:1036E000555555555555D53FFE822B654715F73F26
:1036F0009C7500883CE4377E0000004003B8E23F40
:1037000006D0CF43EBFD4C3EFEFFEF3F0000F03F05
:103710000000D03F0000E03F0000F83F0000000044
:103720002DE9F04FC84E21F00047B7428FB00B464D
:1037300040F38F809246C54A97420C4626DC00290A
:10374000B7A3D3E9002340F38F8019F005FDC04BE8
:103750009F4204460D4600F04681B3A3D3E90023FF
:1037600019F0FAFC02460B46CAE900232046294616
:1037700019F0F2FCACA3D3E9002319F0EDFC01250C
:10378000CAE9020128460FB0BDE8F08FB14A97425E
:1037900040F38980B04A974200F31C813D15A5F2A1
:1037A0001645A7EB055319461F4606461AF03CF985
:1037B00019F020FE8046894602460B4630463946BF
:1037C000CDE9088919F0C8FC0022A44B19F07CFE51
:1037D000894680461AF028F919F00CFE02460B467D
:1037E00006460F4640464946CDE90A6719F0B4FC43
:1037F00000229A4B19F068FE00220023CDE90C014B
:103800001AF0CAF8002800F05D81002330463946DE
:1038100000221AF0C1F8002814BF01230223904AA5
:10382000019202212A46009108A8514600F080FB2F
:10383000002C054614DADAF80420DAF80C3002F12C
:10384000004203F100434542CAF80420CAF80C3094
:1038500006E0C2E9000100250024C2E90245002576
:1038600028460FB0BDE8F08F19F078FC784B9F42E6
:1038700004460D4600F008816BA3D3E9002319F03C
:103880006DFC02460B46CAE900232946204619F082
:1038900063FC65A3D3E9002319F060FC4FF0FF350A
:1038A000CAE90201DCE71AF0CFFB61A3D3E90023E8
:1038B0008046894619F008FE00226A4B19F04EFC3A
:1038C0001AF0B2F8054619F095FD55A3D3E9002387
:1038D000CDE9040119F0F8FD02460B464046494681
:1038E00019F03AFC50A3D3E90023CDE90201DDE948
:1038F000040119F0E9FD1F2D8046894602460B465A
:10390000DDE9020140F3B08019F026FC83460E4643
:103910003F15C6F30A53FB1A102B40F3B08046A3A1
:10392000D3E90023DDE9040119F0CEFD8046894684
:1039300002460B46DDE9020119F00EFC02460B4679
:10394000DDE90201CDE9062319F006FC42464B46AB
:1039500019F002FC3AA3D3E9002380468946DDE949
:10396000040119F0B1FD42464B4619F0F5FB0B4638
:10397000024680468946DDE9060119F0EDFBC1F3F8
:103980000A53FF1A312F83460E4600F39D800246EC
:103990000B46CAE90023DDE90623CDE902235A4696
:1039A0003346DDE9020119F0D7FB42464B4619F0D8
:1039B000D3FB002C02460B46CAE90223BFF650AFE8
:1039C00006F1004601F10041CAE900B6CAE9020168
:1039D0006D4245E7024619F0BFFB0025CAE9020126
:1039E000CAE900013CE714A3D3E9002319F0B4FBB2
:1039F00013A3D3E900230D46044619F0ADFB02469C
:103A00000B46CAE900232946204619F0A5FB0CA362
:103A1000D3E9002319F0A0FB0125CAE902011FE741
:103A200000004054FB21F93F3163621A61B4D03D7C
:103A300083C8C96D305FE43F0000601A61B4D03DB7
:103A40007370032E8A19A33BFB21E93F7BD9024007
:103A5000FB21F93FFB213941FFFFEF7F000070415F
:103A60007C2E03080000E03F19F076FB3A4B6A1EFB
:103A7000834653F82230BB420E463FF449AF5A46C4
:103A80003346CAE900238AE72BA3D3E9002319F0C0
:103A900065FB2BA3D3E900230D46044619F05EFB1A
:103AA00002460B46CAE900232946204619F054FB7A
:103AB00023A3D3E9002319F051FB4FF0FF35CAE9E6
:103AC0000201CDE60323AAE61FA3D3E90023DDE923
:103AD000040119F0F9FCDDE9068906460F460246A5
:103AE0000B464046494619F037FB02460B46404616
:103AF0004946CDE9022319F02FFB32463B4619F027
:103B00002BFB13A3D3E9002306460F46DDE904018E
:103B100019F0DAFC32463B4619F01EFB02460B4612
:103B200080468946DDE9020119F016FB83460E4600
:103B3000A5E700BFAFF300800000601A61B4D03D7C
:103B40007370032E8A19A33B0000002E8A19A33B31
:103B5000C14920259A837B39FC2D03080000000011
:103B6000574A2DE9F84F21F0004890450E46074688
:103B70002CDC544B0029B4BF534D544D98454FF0A5
:103B8000000411DC524B984526DC4BA3D3E90023FB
:103B900019F0E4FA00224F4B19F026FF002840D01C
:103BA00038463146BDE8F88F4B4B984530DD4B4BDE
:103BB000984568DD0133984562D0384631463EA3CA
:103BC000D3E9002319F080FCBDE8F88F02460B46CC
:103BD00019F0C4FABDE8F88F1AF036FA01F054F87B
:103BE0003F4B984506460F4623DD0022394B19F01E
:103BF000B5FA02460B463046394619F08FFD32467B
:103C00003B4619F0ABFA22462B4619F05DFCE1E782
:103C10001AF01AFAFEF740FC22462B4619F054FC23
:103C2000D8E7384631461AF00FFA01F02DF806466B
:103C30000F4632463B463046394619F08FFA324637
:103C400082468B463B463046394619F03DFC002201
:103C5000804689461F4B3046394619F07FFA0246A6
:103C60000B464046494619F059FD02460B46504660
:103C7000594619F071FA22462B4619F025FCA9E79E
:103C8000184B984299D8384631461AF0DDF900228F
:103C90000E4B19F019FCFEF7FFFB06460F460246D5
:103CA0000B462046294619F00FFC32463B4619F0D8
:103CB0000BFC8FE7AFF300803374AC3C1F7BAC7F11
:103CC000FFFFEF7FFFFF35400000E0BF0000E03F57
:103CD000FFFF2F3E0000F03F412E8640CD3386404F
:103CE000FFFFEF3F7DF8B98F2DE9F04F21F000463F
:103CF000B6F1795F85B00C4692469B4605466BDA75
:103D000019F092FE002800F0E2802A462346284659
:103D1000214619F0D9FB74A3D3E9002380468946D4
:103D200019F0D2FB72A3D3E9002319F017FA424627
:103D30004B4619F0C9FB70A3D3E9002319F00CFA24
:103D400042464B4619F0C0FB6DA3D3E9002319F09E
:103D500005FA42464B4619F0B7FB6BA3D3E90023A3
:103D600019F0FAF942464B4619F0AEFB68A3D3E9C5
:103D7000002319F0F3F942464B4619F0A5FBCDE9B3
:103D800000010022644B4046494619F09DFBDDE9E5
:103D9000002306460F464046494619F095FB524619
:103DA000804689465B462846214619F08DFB02462F
:103DB0000B464046494619F0CFF902460B463046BD
:103DC000394619F0C9F902460B460020534919F04B
:103DD000C3F905B0BDE8F08F02460B4619F074FB3D
:103DE00041A3D3E900238046894619F06DFB40A327
:103DF000D3E9002319F0B2F942464B4619F064FBAF
:103E00003DA3D3E9002319F0A7F942464B4619F028
:103E10005BFB3BA3D3E9002319F0A0F942464B46D4
:103E200019F052FB38A3D3E9002319F095F9424663
:103E30004B4619F049FB36A3D3E9002319F08EF95C
:103E40004B46424619F040FB354B9E42CDE90001FE
:103E500097DD344B9E424FF000023DDCA6F5001387
:103E600000202E4916461F4619F076F9CDE90201C9
:103E70000022294B4046494619F026FB32463B4674
:103E800019F06AF9DDE9002306460F464046494627
:103E900019F01AFB5246804689465B462846214661
:103EA00019F012FB02460B464046494619F054F9F8
:103EB00002460B463046394619F04EF902460B468B
:103EC000DDE9020119F048F905B0BDE8F08F1349AA
:103ED000002005B0BDE8F08F134B144FCDE902234D
:103EE0000026C5E7AFF30080D43888BEE9FAA8BD44
:103EF000C4B1B4BD9EEE213EAD529C804F7E923E39
:103F00009015CB19A001FA3E7751C1166CC1563FEE
:103F10004C5555555555A53F0000E03F0000F03F7A
:103F20003233D33F0000E93F0000E73F0000D23FBB
:103F30002DE9F04FADF5197DBE4CA29EBE4D54F853
:103F400026700793D41E85FB0465E417C4EBA50413
:103F500024EAE4741D46631CA3EB8303013D02EBDA
:103F6000C30305937B1909940497019506460B91A9
:103F7000A4EB05041BD423445D1C20AF4FF00008C4
:103F80004FF00009DDF88CA208E05AF8240019F07F
:103F900031FA0134AC42E7E8020108D0002CF4DA2F
:103FA000013440464946AC42E7E80201F6D1049BA1
:103FB000002BC0F2B083079BA6F10802DB0011467C
:103FC000039220AA02EB0309029301EB0308049B6E
:103FD00072AA02EBC30B0DF5E07A019B002BC0F235
:103FE0009581039C4D460026002775E90223F4E9DC
:103FF000020119F069FA02460B463046394619F0BB
:10400000ADF8444506460F46EFD1EAE80267DA45C7
:1040100009F10809E1D1DDE90204049920448B008B
:1040200082460BA8A3F10802C31808930CAB1344F3
:104030000A938B4698AB03EBCB03BBF1000F53E91C
:10404000284529DD70AB03EBCB080DF130090022C8
:104050007A4B2046294619F037FA19F0E5FC19F099
:10406000C9F90022764B06460F4619F02DFA024692
:104070000B462046294619F06FF819F0D5FC78E96F
:10408000022349F8040B3946304619F067F870AB43
:10409000984504460D46DAD1DDF8149020462946AD
:1040A0004A4601F039F800224FF07F5304460D468E
:1040B00019F00AFAFCF724FF0022624B19F004FA07
:1040C00002460B462046294619F046F80D4604469E
:1040D00019F0AAFC804619F08DF90B4602462946D4
:1040E000204619F039F84B46002B06460F4640F3A0
:1040F000E1800BF1FF320CA9C9F1180351F82250ED
:1041000045FA03F101FA03F30CA8EB1A40F8223048
:10411000C9F11705884443FA05F5002D2CDDBBF1E4
:10412000000F08F1010840F394820C9C002C40F031
:10413000A780BBF1010F0AD00CA9012251F8044F4E
:10414000531C002C40F09E809B451A46F6D1059BDF
:10415000002B0EDD012B00F09C81022B09D10BF10D
:10416000FF320CAB0CA953F82230C3F3150341F80E
:104170002230022D00F0AF80002200233046394665
:1041800019F00AFC002800F06682049B0BF1FF394D
:104190004B4510DC0BF180430CAA013B089802EB65
:1041A0008303002253F80419834242EA0102F9D141
:1041B000002A40F0B580049B0CAA013B52F8233042
:1041C000002B40F0A1800A9A012352F80419013310
:1041D0000029FAD05B440BF101099945069349DCAB
:1041E000099A079909EB020801EB0B0508F18048D1
:1041F00002EB030BA39B08F1FF3803EB880870ABBD
:1042000003EBC909A39B20A903EB8B0301EBC505B5
:10421000029358F8040F19F0EDF8019B002BC5E943
:10422000000105F1080B28DB083D039C0026002750
:104230000CE000BF1C330308ABAAAA2A0000703EA2
:10424000000070410000204075E80201F4E90223FB
:1042500019F03AF902460B463046394618F07EFF0F
:10426000544506460F46EFD1029B9845E9E80267A0
:104270005D46CED1DDF818B0DCE600260027F3E776
:10428000012300220CA9C4F180749B4541F822400F
:104290000EDD51F8232001EB8B0001EB83036FF05F
:1042A0007F4100E01A688A1A43F8042B8342F9D14F
:1042B00001244CE706D10BF1FF330CAA52F823502E
:1042C000ED152AE70022BE4B19F084FB002840F0D0
:1042D000B981054650E732463B460020B94918F0FF
:1042E0003BFF06460F46002C3FF446AF059AB54902
:1042F000002000F011FF02460B463046394618F008
:104300002BFF06460F4637E7012363E70026002709
:10431000EAE80267DA4509F108097FF45EAE7AE659
:104320000CAB059A53F82930183ACDE90685059269
:104330006BB909F18043013B0CA901EB830353F8EE
:10434000041909F1FF39183A0029F8D00592059AA5
:104350009C49002000F0E0FEB9F1000F04460D4634
:10436000C0F2E0814FEAC90370AA02EB0308089388
:104370000CAB03EB8906DFF850B208F108070436EE
:104380004FF0000A56F8040D19F034F822462B4677
:1043900019F09AF85B4667E9020152462046294621
:1043A00019F092F80CAB9E4204460D46EAD148AB98
:1043B00003930193CDF8149009F10103DDF81090F7
:1043C0000293C3464FF0000AB9F1000FC0F23781E3
:1043D000DFF8F8815D4678A3D3E9002300260027A3
:1043E000002403E0544510DCF8E80223F5E802015C
:1043F00019F06AF802460B463046394618F0AEFE10
:104400000134A14506460F46ECDA019BE3E802675A
:104410000193029B0AF1010A9A45ABF1080BD3D133
:10442000A29BDDF81490032B2CD8DFE813F0E800F2
:10443000D300D3003F00079B00200146002B40F033
:1044400043810D460B460B990446C1E9004503998B
:104450000246D1E9000118F07FFEB9F1000F0CDD32
:10446000039D0124F5E90223013418F077FEA145EC
:10447000F8DA079B002B40F037810B460B99024678
:10448000C1E90223069B03F007000DF5197DBDE885
:10449000F08F0BF1FF320CAB0CA953F82230C3F3B1
:1044A000160341F8223064E648AB0393B9F1000FDC
:1044B00040F35581039ACDF808904FEAC90302EB07
:1044C0000308D8E900AB0193914658E902675246C8
:1044D0005B463046394618F041FE04460D4602461A
:1044E0000B463046394618F037FE52465B4618F008
:1044F00035FEC8E9000168E90245C145A246AB4660
:10450000E3D1DDF80890B9F1010F40F32881019B58
:10451000039A1344D3E9006701939A460DF5947BFF
:104520005AE9028932463B464046494618F016FE93
:1045300004460D4602460B464046494618F00CFE1E
:1045400032463B4618F00AFECAE900016AE9024514
:10455000D34526462F46E3D10399019C002301F160
:104560001005083419461E46304674E9022318F037
:10457000F5FDA5420346F6D10A460399D1E9008C20
:10458000D1E902E90799002900F0B1800B9C236171
:10459000069BC4F800800CF1004009F1004102F1D3
:1045A0000042606003F00700E1606261C4F808E067
:1045B0000DF5197DBDE8F08F00000040FB21F93FAB
:1045C0000000E03F0000F03F0000703E581203087A
:1045D00048AB0393B9F1000FFFF62DAF039F002006
:1045E00007EBC9060836014676E9022318F0B6FD46
:1045F000B742F9D1079B002B3FF423AF64E0089C3E
:10460000039D083400222C4411461646304674E9B6
:10461000022318F0A3FDA5420246F6D10B460799E6
:1046200009B103F1004319460B9B1046C3E9000191
:10463000069B03F007000DF5197DBDE8F08F0026FD
:104640000027E2E6BBF1000F08F101087DDD02253D
:104650006BE500247BE5CDE90685059D30463946AE
:104660006A4200F059FD00223E4B06460F4619F003
:10467000B1F900B300223C4B3046394618F024FF14
:1046800019F0D2F9044618F0B5FE0022354B18F0A7
:104690001BFF0B4602463946304618F05DFD19F007
:1046A000C3F90BF101090CAB183543F82B00059544
:1046B00043F829404BE63046394619F0B5F90CABC2
:1046C000D94643F82B0042E60B9C0B4601F1004112
:1046D000C4E9000103990246D1E9000118F03CFD4C
:1046E000B9F1000F3FF7BCAE01F10041C5E6184635
:1046F0000B9B4646744667464D461146C3E9040186
:10470000C3E90067C3E90245069B03F007000DF506
:10471000197DBDE8F08FA6F108030393079BDB002A
:10472000029378E4A29B032B3FF6ACAE01A252F8B1
:1047300023F000BF45470108D1450108D1450108D4
:10474000A94401080022134669E732463B4600208F
:10475000064918F001FD022506460F460CE5002328
:104760001A460AE7000070410000703E0000F03F6A
:104770002DE9F04F21F00046B6F1795F85B00C4687
:1047800090469946054604DA19F04EF9002800F0E3
:1047900085802A4623462846214618F095FE06467F
:1047A0000F4602460B462846214618F08DFE3EA3D2
:1047B000D3E9002382468B463046394618F084FE02
:1047C0003BA3D3E9002318F0C7FC32463B4618F060
:1047D0007BFE39A3D3E9002318F0C0FC32463B46E8
:1047E00018F072FE36A3D3E9002318F0B5FC324668
:1047F0003B4618F069FE34A3D3E9002318F0AEFC61
:104800000E9BCDE900019BB30022334B4046494645
:1048100018F05AFEDDE90023CDE902015046594661
:1048200018F052FE02460B46DDE9020118F094FC36
:1048300032463B4618F048FE42464B4618F08CFC88
:1048400023A3D3E9002306460F465046594618F0E5
:104850003BFE02460B463046394618F07FFC0246C6
:104860000B462846214618F077FC05B0BDE8F08FCE
:1048700002460B463046394618F026FE14A3D3E90B
:10488000002318F069FC52465B4618F01DFE2A46CC
:10489000234618F063FC05B0BDE8F08F284621469A
:1048A00005B0BDE8F08F00BF7CD5CF5A3AD9E53DC1
:1048B000EB9C2B8AE6E55A3E7DFEB157E31DC73ED1
:1048C000D561C119A0012A3FA6F810111111813F2D
:1048D000495555555555C53F0000E03F00000000C3
:1048E0002DE9F04FDA4C21F00046A64287B08A4607
:1048F00089461746984683461BDC19F095F8002830
:1049000039D1109B5A4601331343334300F0A88139
:10491000109B012B00F0B1815A4653460020CD492F
:1049200018F0FCFE04460D462046294607B0BDE8B7
:10493000F08FC94B9E421EDD002904DA01F10043CD
:1049400008F100489A465A465346A3A1D1E900010E
:1049500018F002FC3A46434604460D46A0A1D1E9B0
:10496000000118F0F9FB22462B4618F0F7FB002750
:1049700083468A46B8465A4653465846514618F02A
:10498000A3FD03460C46CDE9003402460B4618F061
:104990009BFDDDE9002304460D465846514618F0BC
:1049A00093FD91A3D3E90023CDE9020120462946D6
:1049B00018F08AFD8EA3D3E9002318F0CFFB22461E
:1049C0002B4618F081FD8CA3D3E9002318F0C6FB19
:1049D00022462B4618F078FD89A3D3E9002318F06E
:1049E000BDFB22462B4618F06FFD87A3D3E90023B9
:1049F00018F0B4FB22462B4618F066FD84A3D3E9D9
:104A0000002318F0ABFBDDE9002318F05DFD82A365
:104A1000D3E90023CDE904012046294618F054FDCE
:104A20007FA3D3E9002318F099FB22462B4618F008
:104A30004BFD7DA3D3E9002318F090FB22462B46C3
:104A400018F042FD7AA3D3E9002318F087FB224631
:104A50002B4618F039FD78A3D3E9002318F07EFB2C
:104A600022462B4618F030FD75A3D3E9002318F039
:104A700075FB02460B46DDE9040118F06FFBDDE92A
:104A8000022318F021FD3A46434618F067FBDDE9A2
:104A9000002318F019FD3A46434618F05FFB6AA35D
:104AA000D3E9002304460D46DDE9020118F00CFDB0
:104AB00022462B4618F052FBCDE900010B46024678
:104AC0005146584618F04AFB634B9E4204460D4639
:104AD0003EDC109B012B36D002460B4600205D4980
:104AE00018F01CFE00240F4606465A465346204640
:104AF000294618F031FBA04602460B46DDE90001CD
:104B000018F02AFB42463B4618F0DEFCA946044654
:104B10000D4642463B464046494618F0D5FC002229
:104B20004E4B18F01BFB02460B462046294618F058
:104B300015FB32463B4618F0C7FC42463B4618F090
:104B40000DFB04460D462046294607B0BDE8F08F10
:104B5000109818F04FFC224606460F462B4620467A
:104B6000294618F0B1FC3246CDE902013B46204609
:104B7000294618F0F3FA02460B46DDE9020118F067
:104B8000CDFDDDE9002318F0E7FA02460B46584652
:104B9000514618F0E1FA02460B4618F0DFFA0246D9
:104BA0000B463046394618F0D7FA04464FEAA9704A
:104BB00000F00200C0F101000D4618F01BFC024697
:104BC0000B462046294618F07FFC04460D46204639
:104BD000294607B0BDE8F08F182D4454FB21E93F6A
:104BE000075C143326A6813CD47ABF74702AFB3E3E
:104BF000E9A7F0320FB8123F68108D1AF726303F40
:104C00001583E0FEC8DB573F93846EE9E326823FBD
:104C1000FE41B31BBAA1AB3F735360DBCB75F3BE50
:104C2000A69237A0887E143F0165F2F2D844433F34
:104C3000280356C9226D6D3F37D60684F464963F2B
:104C40007AFE10111111C13F635555555555D53F89
:104C5000FFFF2F3E0000F0BF2794E53F0000F03F2C
:104C60005846514619F0F0F902460B460020044917
:104C700018F054FD04460D4665E75C46554662E76C
:104C80000000F03F000000002DE9F04FCA4A21F07B
:104C90000043934285B00C460E46054620D9C74ACC
:104CA000934200F2D480002E80F2A081AAA3D3E91F
:104CB00000232846214618F051FA0022002318F05C
:104CC00075FE002840F0CE80A5A3D3E90023284636
:104CD000214618F0F9FB02460B460020B84990E146
:104CE000B84A934200F2E280B74A934240F22B81E5
:104CF000002301930022B54B2846214618F0E4FB1F
:104D000006460F4602460B462846214618F0DCFBB5
:104D100095A3D3E9002382468B4618F0D5FB94A3D4
:104D2000D3E9002318F01AFA52465B4618F0CCFB80
:104D300091A3D3E9002318F00FFA52465B4618F00E
:104D4000C3FB8FA3D3E9002318F008FA52465B4651
:104D500018F0BAFB8CA3D3E9002318F0FDF95246F2
:104D60005B4618F0B1FB0022994B18F0F7F980462A
:104D7000894602460B463046394618F0A5FB0246E6
:104D80000B460020934918F0E7F9064602460B4609
:104D90000F464046494618F0DFF9324680468946BC
:104DA0003B462846214618F08FFB02460B46002062
:104DB000894918F0D1F902460B464046494618F099
:104DC000ADFC52465B4618F07FFB019E02460B4647
:104DD000002E4AD0DDE9026732463B4618F0BCF9A6
:104DE0002A46234618F070FB32463B4618F0B4F9C9
:104DF0005B46524618F0B0F9019B013306460F4658
:104E000000F01F81019B012B78D0019A531C392B94
:104E10004FEA025600F22481019F132F40F3518183
:104E2000019BC3F57F7A0AF1030A00224FEA0A5375
:104E300018F094F902460B462846214618F08CF9E2
:104E40000022634B18F08AF9731819461BE0634A75
:104E500093421BD9C1F313030343024640F011816F
:104E6000002910DA00205E490DE02846214618F09E
:104E70002BFB52465B4618F06FF902460B4628465C
:104E8000214618F069F905B0BDE8F08F40A3D3E9D9
:104E9000002318F0A9FD00283FF405AF3EA3D3E995
:104EA00000231046194618F00FFBECE74D4A9342D9
:104EB00000F2EB8000293AA3D3E9002339DA18F095
:104EC0004DF939A7D7E900674FF0FF33804689468F
:104ED000019332463B464046494618F03DF90246AA
:104EE0000B4605460C464046494618F035F9324611
:104EF0003B4618F031F9CDE90201FBE62846214690
:104F00000022394B18F052FD002800F0CB802846D3
:104F1000214600222D4B18F021F902460B4630465F
:104F2000394618F019F900224FF0404318F0CCFA36
:104F3000A9E718F011F901238046894601931CA7BF
:104F4000D7E90067C5E714A3D3E9002318F006F9F1
:104F500002460B468FE700BF59F3F8C21F6EA5014A
:104F6000FE822B654715F73F2DC3096EB7FD8ABE3C
:104F70003952E686CACFD03EB7DBAA9E19CE143F7F
:104F80008555FE19A0015A3FF41011111111A13FCE
:104F9000EF39FAFE422E86409C7500883CE4377E4D
:104FA0000000E0FE422EE63F763C7935EF39EABD5F
:104FB000763C7935EF39EA3D79684340412E8640A9
:104FC0000000E0BF422ED63FFFFF8F3C0000E03FD5
:104FD0000000F03F0000084000001840FFFFEF7F96
:104FE0000000F0BFB1A2F03F0000D0BF40A3D3E962
:104FF00000232846214618F067FA02460B46002097
:10500000414918F0ABF818F00FFD019018F0F2F9D3
:1050100039A3D3E9002306460F4618F055FA024695
:105020000B462846214618F097F835A3D3E900230C
:10503000804689463046394618F046FA06460F46FD
:1050400047E732463B462846214618F085F80022BD
:105050002D4B18F039FA00222B4B18F07DF812E78F
:105060002A46234618F078F802460B4600202749C6
:1050700018F072F8731819460022244B18F06CF8D7
:1050800001E70B4618F06AF8FDE619A3D3E90023FF
:1050900018F01AFA002C02460B464FF00000AFDA67
:1050A0001B49AEE732463B462846214618F054F8E5
:1050B00002460B4618F052F80022144B18F04EF836
:1050C000E1E64FF4001C2A4623464CFA07FA18F092
:1050D00043F8CAF17F594FF0000809F5401902461C
:1050E0000B464046494618F037F8ADE6AFF300806E
:1050F000FE822B654715F73F0000E0FE422EE63F9B
:10510000763C7935EF39EA3D0000E03F0000F03FA2
:105110000000E0BF00000000F8B5C1F30A530446E8
:105120000D460E4617460BBB21F00046034633439F
:105130001BD0354B002218F0C7F9344B9F42044670
:105140000D4635DBC1F30A530E46363B3B4440F275
:10515000FE72934232DC002B11DD26F0FF4626F46E
:10516000E00646EA035520462946F8BD40F2FF72A4
:105170009342EBD102460B4617F0F0FFF8BD13F156
:10518000350F28DA4CF250339F4222462B460ADD77
:1051900019A1D1E900011AF0D5FF17A3D3E9002323
:1051A00018F092F9F8BD16A1D1E900011AF0CAFF72
:1051B00013A3D3E9002318F087F9F8BD22462B4644
:1051C0000DA1D1E900011AF0BDFF0BA3D3E9002323
:1051D00018F07AF9F8BD26F0FF4626F4E0063633DB
:1051E00046EA0355204629460022094B18F06CF97F
:1051F000F8BD00BFAFF300809C7500883CE4377EAB
:1052000059F3F8C21F6EA50100005043B03CFFFFE8
:105210000000903C10B5054C237833B9044B13B112
:105220000448AFF300800123237010BDC0030020A9
:10523000000000009C38030808B5034B1BB103496C
:105240000348AFF3008008BD00000000C403002045
:105250009C38030870B504460E4600F043FA88B146
:105260000368DB6A05469847082C0CD0A4F10903B3
:10527000012B14D93246214610230D20BDE8704081
:1052800004F074B870BD2B6828465B6A9847022802
:10529000F0DC2B6828461B6A04219847EAE72B6854
:1052A00028465B6A98470528E4DC2B6828461B6A79
:1052B00008219847DEE700BF38B52DED028B054683
:1052C00000F010FA044640B10368DB6A9847032DEA
:1052D00003D8DFE805F02F363D06BDEC028B002039
:1052E00038BD20460DF01EFB07EE900A2046F8EE72
:1052F000E78A0DF025FB07EE900A2046B8EEE78A14
:105300000DF02CFB68EE087A07EE100AE8EEA87A9A
:10531000B8EEC77AE7EE077AF5EE407AF1EE10FACA
:10532000B1EEE78A1BD4FDEEC87ABDEC028B17EE16
:10533000900A38BDBDEC028B2046BDE838400DF028
:10534000F1BABDEC028B2046BDE838400DF0F8BA4A
:10535000BDEC028B2046BDE838400DF0FFBA17EED9
:10536000900A19F029FDDEE738B5044600F0BAF9D5
:1053700058B10368DB6A0546984744B1012C04D153
:105380002846BDE83840FBF7DBBA002038BD284688
:10539000BDE83840FBF7B4BA10B5044600F0A2F9F6
:1053A00028B1036821461B6ABDE81040184710BDAC
:1053B0000048704716FCFFFF704700BF10B5034B55
:1053C000036004460DF0AAF8204610BD78220308B9
:1053D00010B5054B036004460DF0A0F820461BF005
:1053E000E0FA204610BD00BF782203082DE9F04105
:1053F0004FF0FF3184B00546462001F0D3FC682809
:105400000CBF33210321512001F0CCFCDFF8D0C2C6
:10541000A84B044604F00F06C4F3031714F4807479
:1054200008BF6346A44831463A460CF067FA221C8E
:1054300018BF012231463B4628460FF0C3FE002329
:10544000AB609E480CF05AFA4FF0FF31032001F098
:10545000A9FC04F0E9FE4FF0FF310446022001F000
:10546000A1FC04F0E1FE002C39D0002837D0014621
:10547000204604F07DFB0646002849D0382146200E
:1054800001F090FC322804464BD048DD382800F06B
:10549000AC8068285BD14FF0FF31012001F082FC25
:1054A00004F0C2FE80465C201BF084FA05230193C1
:1054B0004246009431462B4607460EF0FBFEAF6095
:1054C0003B6838469B6A9847A8680368DB6A984738
:1054D0007B480CF013FA284604B0BDE8F081794807
:1054E0000CF00CFA4FF0FF31192001F05BFC04F0D6
:1054F0009BFE4FF0FF310446182001F053FC04F0EE
:1055000093FE0146204604F033FB06460028B5D141
:105510006D480CF0F3F9284604B0BDE8F08130285E
:1055200015D14FF0FF31012001F03CFC04F07CFE6E
:10553000804650201BF03EFAA4B207460523019393
:105540004246009431462B460EF05EFCB7E701243C
:105550003268CDE900440023576AAB600F220DF199
:105560000F0332213046B847002800F081803368AD
:10557000CDE900440F225F6A30210DF10F03304660
:10558000B847002848D03368CDE900440D225F6A4F
:1055900038210DF10F033046B84700286ED032682D
:1055A000CDE900440DF10F03576A6821752230469A
:1055B000B847002842D1682144480CF09FF94FF0C9
:1055C000FF31204601F0EEFB04F02EFE80465C2009
:1055D0001BF0F0F905246823CDE90034424631463A
:1055E0002B4607460EF066FE69E74FF0FF310120BB
:1055F00001F0D8FB04F018FE804650201BF0DAF9C9
:1056000005230746019342462B46009431460EF08F
:1056100031FD2F4B3B6052E730212C480CF06EF9E6
:1056200030244FF0FF31012001F0BCFB04F0FCFD01
:10563000804650201BF0BEF907467FE725480CF056
:105640005DF9AF68002F7FF43BAF4FF0FF310320CF
:1056500001F0A8FB04F0E8FD30B11F480CF04EF952
:10566000284604B0BDE8F0811C480CF047F952E729
:10567000322116480CF042F93224D2E7382113487F
:105680000CF03CF94FF0FF31204601F08BFB04F0A9
:10569000CBFD804650201BF08DF9052438230746AA
:1056A000CDE9003442462B4631460EF0E3FC084B70
:1056B0003B6004E7DC120308EC1203080C13030838
:1056C000CC1303081C130308301303085C130308EE
:1056D000A81203084813030870130308AC13030847
:1056E000E412030838B5104C23680BB1986838BD34
:1056F0004FF0FF31012001F055FB04F095FD40B162
:105700000C201BF057F90546FFF770FE2560A868CE
:1057100038BD4FF0FF31032001F044FB04F084FD5D
:105720000028EDD138BD00BFDC03002008B501F032
:105730006BFCFBF795FEBDE8084001F0C5B900BF62
:1057400008B501F061FCFBF7FBFEBDE8084001F085
:10575000BBB900BF08B501F057FC18F0EBFCBDE881
:10576000084001F0B1B900BF08B501F04DFC19F0D7
:105770005FFABDE8084001F0A7B900BF08B501F025
:1057800043FCFBF77DFEBDE8084001F09DB900BF7A
:1057900008B501F039FC18F0FBFEBDE8084001F047
:1057A00093B900BF08B501F02FFCFBF7E9F8BDE89D
:1057B000084001F089B900BF08B501F025FC18F0D8
:1057C0003DFEBDE8084001F07FB900BF70B5049E02
:1057D00096420C4624DB15466BB9042A19D0022ADE
:1057E00002D110F0010310D001462A46204608F0ED
:1057F0006BFB002070BD10440D4410F8013D01F812
:10580000013B8D42F9D1002070BD02880A80184604
:1058100070BD10F00303E7D102680A60184670BD3E
:105820000846002109F0E2FC4FF0FF3070BD00BFD8
:105830000830704740B1002905DB43688B4202DD28
:105840000844007A70470020704700BF30B100293B
:1058500004DB43688B42C4BF40180272704700BF2C
:1058600040B1002905DB4368994202DA0844007A16
:1058700070470020704700BF830704D1030F0CBF9F
:105880000120002070470120704700BF30B100297F
:1058900004DB43689942BCBF40180272704700BFE6
:1058A000F8B5002B20DB00291EDB46688E421BDB8F
:1058B0005468761AE51AB542A8BF3546002D13DBA9
:1058C000824202F108070C4600F108062A4605D07C
:1058D000F918301908F0F8FA0020F8BDF118381955
:1058E0001BF09BF80020F8BD4FF0FF30F8BD00BF63
:1058F0004068704710B4141E10DB4268A2420DDBF2
:1059000033EA230328BF1346121B08309A4220446F
:10591000A8BF1A465DF8044B09F068BC5DF8044B5B
:10592000704700BF10B443688B4200F1080418466A
:10593000A8BF084632EA220128BF19461B1A99421D
:105940002044A8BF19465DF8044B00F0B5BE00BF67
:1059500070B5002BBCBF43689B1A002A0E4620DBA3
:1059600044689918A1421CDC91421ADBCBB136F095
:10597000004116D05942B14214DAB34212DD083068
:10598000002E00EB020515DB9C1B2246A9192846B8
:105990001BF043F8324628190021BDE8704009F099
:1059A00025BC70BD002211464FF0FF33BDE87040AA
:1059B000FFF7A0BF74429A19294628191BF02DF849
:1059C000224628460021BDE8704009F00FBC00BF08
:1059D00003460830596800F0EBBD00BF70B50546BE
:1059E00000206968490000F069FD6B68002B14DD38
:1059F0000A4EEB1D02465C782411991F345D9471A8
:105A00005C7804F00F04491B345DD4716C688C42DF
:105A100002F1020203F10103EDDC70BDDC130308A7
:105A2000002BBCBF43689B1A002A30DB70B445686A
:105A30009C18AC4229DC944227DB33B331F000449C
:105A400023D00029B8BF01EB032191FBF3F403FB42
:105A50001411002900F10800B8BFC918024411440C
:105A60008A42134411D00C4604E08A4204460FD007
:105A700094420AD02046157810F8016B02F8016BA9
:105A800083422570F1D10C46F2E770BC7047704735
:105A90000146EDE700B583B04FF0FF3300930023DC
:105AA000FFF7FEFE03B05DF804FB00BF10B50C1E4F
:105AB0000EDD4168083002F0CFF81F2C07DC01230F
:105AC000A34020FA04F4013B444004EA030010BD63
:105AD000002010BD0146002000F0EEBD38B50021C9
