:020000040801F1
:1000000000800120655F020871860208D99A010804
:10001000050F0308050F0308050F03080000000083
:1000200000000000000000000000000075860208CB
:1000300079860208000000007D8602088186020899
:10004000050F0308050F0308050F0308050F030834
:10005000050F0308050F03081D7C0208217C020818
:10006000257C0208297C02082D7C0208998302085D
:10007000A9830208B9830208C9830208D983020848
:10008000E9830208F9830208050F0308050F030836
:10009000050F0308050F0308050F0308317C02084C
:1000A000050F0308050F0308050F0308050F0308D4
:1000B00099660208A1660208A9660208050F0308EE
:1000C000050F0308050F0308050F0308A98102089F
:1000D000B5810208050F0308050F0308050F030883
:1000E000357C0208050F0308050F0308050F0308F8
:1000F000050F0308050F0308050F0308098402080C
:10010000050F0308050F0308B1660208C181020844
:10011000050F0308050F0308050F0308050F030863
:1001200019840208298402083984020849840208D3
:1001300059840208050F0308050F0308050F03087B
:10014000050F0308050F0308050F0308D968020807
:10015000698402087984020889840208050F03086B
:10016000050F0308050F0308050F0308050F030813
:10017000050F0308050F0308050F03080000000022
:10018000050F0308050F0308050F0308050F0308F3
:10019000CD810208050F0308050F0308050F0308AA
:1001A000050F0308050F0308050F0308050F0308D3
:1001B000050F0308000000002DE9F04F85B0039102
:1001C0000778A7F10903042B044607F07F0200F12A
:1001D0000100F5D9202AF3D02B2F04BF67780446FD
:1001E0002D2F75D09FED427B8DED007B4FF00008E9
:1001F0004FF000099FB34FF0000C25464FF0000A66
:10020000DFF8FCB0644619E01DF06EFA80468946BE
:1002100030461DF0FFF942464B461DF0AFF85246FE
:10022000804689465B46DDE900013CB31DF086FB54
:10023000CDE90001A44615F8017F7FB1A7F1300692
:10024000092E52465B4640464946DDD9CCB92E2F91
:1002500017D115F8017F0124002FEFD12C4642461B
:100260004B46DDE900011DF03FFA80468946039BBD
:10027000404649461C6005B0BDE8F08F4FF0010CC8
:10028000D9E72C46BCF1000F29D042464B46DDE9A8
:1002900000011DF029FA07F0DF07452F8046894647
:1002A000E5D10399681C0A2220F05EFA144902463F
:1002B00000201DF0C9FD02460B46404649461DF090
:1002C00013FA804689464046494605B0BDE8F08F9E
:1002D0009FED097B67788DED007B013486E7DFF8C1
:1002E00024904FF000084046494605B0BDE8F08F25
:1002F000000000000000F03F000000000000F0BF20
:10030000000024400000F87F2DE9F0470023144648
:100310000022804689461DF059FC28B109F10043AE
:1003200099462D232370013400220023404649467C
:100330001DF042FC28B13022002322706370BDE81A
:10034000F087404649461EF07BFB1DF07DFC73A301
:10035000D3E900230746494640461DF037FC0028F4
:100360004ED170A3D3E90023404649461DF04CFC12
:10037000002845D10E2F07F1010540F3B980A7F100
:100380000E063246002062491DF05EFD02460B4615
:10039000404649461DF0D2FA00225E4B1CF0EEFFAB
:1003A0001DF08EFD002DA7F10F0E4FF0010C4DDD5D
:1003B000594FDFF87881012245F6F3294FF02E0AD4
:1003C000494508BF40454FF030030AD3B0EB080061
:1003D00061EB0901494508BF404503F10103F5D22E
:1003E000DBB2237050EA010304F101084AD19542BF
:1003F00052DD0132102A4FD0444677E90289DFE707
:10040000002F33DB3A46002041491DF01DFD024616
:100410000B46404649461DF091FA3BA3D3E9002321
:100420008046894601250026404649461DF05CF974
:100430000022384B1CF0A2FF1DF042FD002DBC46EF
:100440004FF0FF3E37464FF00006B1DC2346302226
:100450004FF02E0803F8022B84F80180FC4345D0AE
:100460001C4403F8012BA342FBD1A1E77A420020F0
:1004700027491DF0E9FC02460B46404649461DF05F
:1004800033F9CAE7954202F1010204BF84F801A0E2
:1004900004F10208102AAFD16EB14246302102F8B1
:1004A000011BC2F1010373444344002BF7DC2EEA25
:1004B000EE7301339844BCF1010F12D0BCF1000F70
:1004C0004FF0650388F80030C5BF2B2388F8013052
:1004D00008F1010108F102016046BDE8F04711F0A2
:1004E0005DB8002388F80030BDE8F0871C465FE760
:1004F000C7F10E02002006491DF0A6FC3E4602464A
:100500000B46012790E700BF0000901EC4BCD642F6
:10051000000024400000E03F301703088DEDB5A037
:10052000F7C6B03E50EFE2D6E41A4B4400407A10D2
:1005300070B54FF0FF3006F0F3F804466FF07F40DF
:1005400006F0EEF8064620461DF054F800220C4B4B
:100550001DF0CAF8044630460D461DF04BF806A3C0
:10056000D3E900231DF0EAF902460B46204629464E
:100570001CF004FF70BD00BF0000E0DFFFFF6F4311
:100580000000F03D000000002DE9F04F1D461389EA
:10059000AB4288BF536885B004468CBF53F8250032
:1005A000002090468A4606F02FFD0022904B1DF059
:1005B0009BF81DF049FBB8F808206B1C9A4288BFD5
:1005C000D8F8042006468CBF52F82300002006F01D
:1005D0001BFD0022864B1DF087F81DF035FBB8F897
:1005E00008300235AB4288BFD8F8043007468CBFCC
:1005F00053F82500002006F007FD002EC4E900672F
:1006000040F3E280002F40F3DF8071A3D3E90023A1
:10061000002584F828501EF037F900220023804678
:1006200089461DF0D3FA40B14046494668A3D3E954
:1006300000231CF0A3FE8046894667A3D3E900236C
:10064000404649461DF0E0FAC0B165A3D3E9002356
:10065000404649461DF0C4FA80B101234046494650
:1006600084F8283060A3D3E900231CF087FE58A348
:10067000D3E900231EF008F98046894600225D4B2D
:10068000404649461DF030F81DF036FE01F10043AA
:1006900000221946564B1DF027F81DF0D5FA4946A1
:1006A000054640461DF0E4FD0022514B1DF01CF8AC
:1006B0001DF0CAFADAF804304F49B3F80CB0B3F8B9
:1006C0000AA0A56007FB0BF303EB010806FB0AF683
:1006D000019388FB05234FEA124C00960E444CEA26
:1006E000034C06EA010383FB009A06EB0C0E0EEAAC
:1006F000010ED346CA468EFB00675246CDE902671B
:10070000120C42EA0B42DDE902AB0CEA010C8CFB55
:1007100000674FEA164956460A40360C46EA0B4631
:1007200049EA074982FB05AB5F46C144B0445646DF
:10073000CDE90267039FE060360C09EA010908EA87
:10074000010846EA074689FB05AB334488FB05569A
:10075000CDE9025655462D0C45EA0B45DDE902ABC5
:100760000B40AC4403EAE3770CEA010C554623EA5C
:10077000E37367454FEA154502EAE276A8BF67468C
:1007800045EA0B45634522EAE272B8BF6346AE44D0
:100790004E450EEA010EA8BF4E464A45B8BF4A462E
:1007A0007745A8BF77467345B8BF73464645A8BF8F
:1007B0004646C4E905634245B8BF424600980199E0
:1007C000206261622761E261204605B0BDE8F08FDA
:1007D000EA2E4454FB211940F4D64354FB21F93F3F
:1007E000320D337F7CD91240EA2E4454FB2109405C
:1007F0000000F0400000E03F0000FFFF00000000AC
:100800002DE9F04F2DED028B044683B0C0681CF03B
:1008100001FF8046206989461CF0FCFE8246606923
:100820008B461CF0F7FE024601F1004306460F46D8
:10083000404649461DF0BAFF1DF04EFAE0620546FB
:100840001DF07CFE019028461DF03CFE019B0546F4
:1008500018461CF0F1FE42464B461CF045FF804610
:10086000284689461CF0E8FE32463B461CF03CFF19
:1008700002460B46404649461CF07EFD02460B46AA
:10088000504659461DF092FF1DF026FA002208EE50
:10089000100A0023304639461DF0B6F928B3B5EEEC
:1008A000C08AF1EE10FA1CDD11A7D7E9006718EE37
:1008B000100A1CF0C1FE02460B46304639461CF0B9
:1008C0005BFD32463B461CF059FD1DF005FAA06267
:1008D000E38843F00203E38003B0BDEC028BBDE884
:1008E000F08F05A7D7E90067E1E784ED0A8AEFE713
:1008F000EA2E4454FB21F93FEA2E4454FB21F9BF70
:1009000008B512F0B9F8DFED0C7A07EE100A67EEC1
:10091000277A17EE900A1CF08FFE05A3D3E9002377
:100920001DF00CF81DF090F908BD00BFAFF300807A
:10093000EA2E4454FB2119400000B443000000009B
:1009400008B512F0ADF8DFED0C7A07EE100A67EE8D
:10095000277A17EE900A1CF06FFE05A3D3E9002357
:100960001CF0ECFF1DF070F908BD00BFAFF3008074
:10097000EA2E4454FB2119400000B443000000005B
:100980004F4A21F0004393422DE970430D4604463F
:100990004DDC4C4A93420E460FDC45A3D3E90023BD
:1009A0001CF0ECFC0022484B1DF02EF9002854D01E
:1009B0002B4620461946BDE87083444A934240DCEA
:1009C000B3F1804F49DD1DF04FFC22468046894639
:1009D0002B46204629461CF087FE00223A4B1CF08D
:1009E000CDFC1EF0D5FC42464B461CF0C7FC02462F
:1009F0000B46002034491CF0A1FF424604460D4638
:100A00004B46404649461CF0B9FC0B460246294677
:100A100020461CF0B3FC01F0C7FE04460B46002E36
:100A20000BDC03F1004320461946BDE870830B46FA
:100A300002461CF0A3FC04460B4620461946BDE8BE
:100A400070831DF011FC01F0AFFE1BA3D3E900235E
:100A50001CF094FC04460B46E1E722462B46204658
:100A600029461CF041FE80468946204629461DF055
:100A7000FBFB00220446144B0D46404649461CF041
:100A80007DFC1EF085FC00220F4B1CF077FC02461B
:100A90000B46404649461CF051FF22462B461CF0AF
:100AA0006DFC00F0B1FA04460B46B8E7AFF30080E6
:100AB0009C7500883CE4377EEF39FAFE422EE63F13
:100AC000FFFFEF7FFFFF2F3E0000F03F0000B0412F
:100AD0002DE9F84FB84B21F000469E420D468A465C
:100AE00004460EDDB54B9E4200F3B08000F0AB80B3
:100AF000B34BB449B448BAF1000FC8BF1946BDE8BA
:100B0000F88FB24B9E4200F3B980A3F1DE739E4290
:100B100040F3A4804FF0FF3B22462B462046294657
:100B20001CF0E2FD02460B46804689461CF0DCFDC7
:100B300089A3D3E9002306460F461CF0D5FD88A300
:100B4000D3E900231CF01AFC32463B461CF0CCFDD6
:100B500085A3D3E900231CF011FC32463B461CF070
:100B6000C3FD83A3D3E900231CF008FC32463B46B7
:100B70001CF0BAFD80A3D3E900231CF0FFFB324632
:100B80003B461CF0B1FD7EA3D3E900231CF0F6FB2D
:100B900042464B461CF0A8FD7BA3D3E900238046C8
:100BA0008946304639461CF09FFD79A3D3E90023DE
:100BB0001CF0E2FB32463B461CF096FD76A3D3E9DF
:100BC00000231CF0D9FB32463B461CF08DFD74A37C
:100BD000D3E900231CF0D0FB32463B461CF084FDD9
:100BE00071A3D3E900231CF0C7FB32463B461CF03F
:100BF0007BFD02460B46404649461CF0BFFB2246A1
:100C00002B461CF071FDBBF1FF3F02460B465CD04A
:100C10006F4B704E4FEACB0B5B44D3E900231CF0C3
:100C2000ABFB22462B461CF0A7FBB34402460B4607
:100C3000DBE900011CF0A0FBBAF1000F0CDA01F1B6
:100C40000041BDE8F88F00283FF452AF224620460D
:100C50002B4629461CF092FBBDE8F88F54A3D3E93C
:100C600000231CF08BFB00225B4B1CF0CDFF002807
:100C70003FF450AF20462946BDE8F88F1DF0F4FA46
:100C8000564B9E4204460D4625DCA3F550239E425A
:100C90004ADC02460B461CF071FB00224E4B1CF056
:100CA0006BFB002206460F464FF080432046294644
:100CB0001CF064FB02460B46304639461CF03EFEF3
:100CC0004FF0000B04460D4626E7204629461CF04F
:100CD00053FBBDE8F88F424B9E421ADC0022414B89
:100CE0001CF04AFB002206460F463E4B2046294692
:100CF0001CF0FAFC0022384B1CF040FB02460B466D
:100D0000304639461CF01AFE4FF0020B04460D46E1
:100D100002E702460B46002033491CF00FFE4FF05D
:100D2000030B04460D46F7E600222B4B1CF024FB78
:100D3000002206460F46284B204629461CF01EFB83
:100D400002460B46304639461CF0F8FD4FF0010BC9
:100D500004460D46E0E600BF11DA22E33AAD903FCB
:100D6000EB0D76244B7BA93F513DD0A0660DB13FE2
:100D70006E204CC5CD45B73FFF8300922449C23F4A
:100D80000D5555555555D53F2F6C6A2C44B4A2BF0F
:100D90009AFDDE522DDEAD3F6D9A74AFF2B0B33FD7
:100DA000711623FEC671BC3FC4EB98999999C93F4F
:100DB0009C7500883CE4377EFFFF0F440000F07F05
:100DC000FB21F93FFB21F9BF182D4454FFFFDB3F06
:100DD00058170308381703080000F03FFFFFF23FE1
:100DE000FF7F03400000F83F0000F0BF000000005C
:100DF000C1F30A522DE9F843A2F2FF36132E0B4637
:100E00000D4604468846074621DC002E4CDB3A4A54
:100E100042FA06F901EA090202431DD034A3D3E9DC
:100E200000231CF0ABFA002200231CF0EDFE48B1B9
:100E3000002D04DD4FF4801343FA06F6B04428EA8F
:100E4000090500273C4629462046BDE8F883332E95
:100E500006DDB6F5806F3AD019462046BDE8F88326
:100E6000A2F213424FF0FF3929FA02F919EA000FF2
:100E7000F2D01FA3D3E900231CF080FA0022002344
:100E80001CF0C2FE0028DDD0002D09DD142E25D077
:100E90000123C6F1340603FA06F6371928BF984431
:100EA00027EA09074546CDE711A3D3E900231CF043
:100EB00065FA002200231CF0A7FE0028C2D0002DF6
:100EC0000FDB55EA040707D000270C4DBAE70246AE
:100ED0001CF054FA0446C0E73D46B3E705F10108AB
:100EE000DEE700274FF00045ACE700BFAFF300801E
:100EF0009C7500883CE4377EFFFF0F000000F03F48
:100F0000C1F30A522DE9F843A2F2FF36132E0B4625
:100F10000D460446884607461DDC002E3DDB384A58
:100F200042FA06F901EA0902024319D032A3D3E9D1
:100F300000231CF023FA002200231CF065FED0B32E
:100F4000002D04DA4FF4801343FA06F6B04428EA81
:100F5000090500272FE0332E06DDB6F5806F2FD070
:100F600019462046BDE8F883A2F213424FF0FF393C
:100F700029FA02F919EA000FF2D01FA3D3E90023DE
:100F80001CF0FCF9002200231CF03EFE98B1002D5D
:100F900024DB27EA090745460DE017A3D3E9002320
:100FA0001CF0ECF9002200231CF02EFE18B1002DDD
:100FB0000BDB00273D463C4629462046BDE8F8832A
:100FC00002461CF0DBF90446CBE725F000430D4A4E
:100FD0001F43002F18BF15460027ECE7142E08D03A
:100FE0000123C6F1340603FA06F6371928BF9844E0
:100FF000CFE705F10108CCE79C7500883CE4377E1B
:10100000FFFF0F000000F0BF2DE9F04FD84B9942D1
:1010100087B00E46074643DDD64B99428A4600F319
:10102000F680D54B994240F330810B15A3F2FF3B7C
:1010300000220023CDE902230446D04BCAF3130A51
:101040009A454AF07F5500F3158145F44015204636
:1010500029460022CA4B1CF08FF9002204460D4697
:10106000C84B1CF041FB22462B461CF03DFB804642
:10107000894627462E46CDE90089BAF1000F3AD1BC
:1010800000220023204629461CF096FD002800F08F
:101090001D81BBF1000F40F0858100200146BAE0C0
:1010A000B94B21F000449C420A460FDD0022B74BA9
:1010B0001CF082FD002800F0B180002200230020F7
:1010C000B3491CF03BFC07B0BDE8F08FB14B9C422C
:1010D00040F3B180B04B1A449A4240F2D6800022CD
:1010E000A84B1CF001FB3A4633461CF0FDFACDE953
:1010F00000014FF0000B00224FF08043384631468C
:101100001CF03CF902460B46384631461CF016FCF2
:1011100002460B46804689461CF0E6FA80A3D3E9D6
:10112000002304460D461CF0DFFA7FA3D3E9002319
:101130001CF024F922462B461CF0D6FA7CA3D3E9F6
:1011400000231CF01BF922462B461CF0CDFA7AA393
:10115000D3E900231CF012F922462B461CF0C4FAF6
:1011600077A3D3E900231CF009F922462B461CF093
:10117000BBFA75A3D3E900231CF000F922462B46E5
:101180001CF0B2FA72A3D3E900231CF0F7F8224650
:101190002B461CF0A9FADDE9004522462B461CF03F
:1011A000EDF842464B461CF09FFACDE90401BBF135
:1011B000000F00F0A88058461CF02CFA66A3D3E973
:1011C0000023804689461CF08FFA65A3D3E90023EB
:1011D00004460D46404649461CF086FADDE90223E6
:1011E0001CF0CCF8DDE904231CF0C8F802460B46DD
:1011F000DDE900011CF0C0F83A4633461CF0BCF8AB
:1012000002460B46204629461CF0B6F803E002468B
:101210000B461CF0B3F807B0BDE8F08F3A463346F2
:10122000384631461CF0A8F802460B461CF086FBF7
:1012300007B0BDE8F08F0022584B1CF09FF8002249
:1012400000231CF0E1FC10B1554B9C4262DD3A4694
:101250003346384631461CF047FA0022494B1CF011
:1012600043FA02460B46384631461CF085F807B073
:10127000BDE8F08F45F40015CAF5801A20462946CE
:101280004FEAAA0A0BF1010BE3E63D4B3846314623
:1012900000221CF073F80B15A3F2FF3BBBF1000F0B
:1012A00004460D468A4640F3C3803A4633461CF056
:1012B00063F802460B46002031491CF05DF82246D7
:1012C0002B461CF03BFBCDE90201B6E626A3D3E991
:1012D0000023204629461CF007FA02460B46002050
:1012E00027491CF049F842464B461CF0FDF90646DA
:1012F0000F46BBF1000F73D102460B46204629462C
:101300001CF03AF887E702460B46204629461CF0B7
:1013100033F8A6E7384631467DE700BFAFF30080DB
:1013200044523EDF12F1C23F9FC678D0099AC33FB4
:10133000DE03CB966446C73FAF788E1DC571CC3FA8
:10134000599322942449D23F04FA97999999D93F05
:10135000935555555555E53F0000E0FE422EE63FBA
:10136000763C7935EF39EA3D555555555555E53FAC
:101370007982DA3FFFFFEF7FFFFF3F439DA006002A
:101380000000F03F0000E03FFFFFEF3F0000F0BF34
:10139000000050C3FFFF1F3E3C412D400000504362
:1013A000FFFF8F3C58461CF035F927A3D3E90023F3
:1013B00006460F461CF098F9DDE902231BF0DEFF1C
:1013C00023A3D3E9002304460D46304639461CF0DA
:1013D0008BF902460B46204629461BF0CFFF1AE741
:1013E00058461CF017F91AA3D3E9002382468B460E
:1013F0001CF07AF914A3D3E90023804689465046AD
:1014000059461CF071F9DDE902231BF0B7FF0246D3
:101410000B46304639461BF0AFFF22462B461BF0E9
:10142000ABFF02460B46404649461BF0A5FFF2E6DD
:101430000022094B1BF0A0FF02460B4638463146FE
:101440001BF09AFF3BE700BF763C7935EF39EA3D68
:101450000000E0FE422EE63F0000F03F00000000EA
:1014600008B51DF071FA04A3D3E900231CF066FA55
:1014700008BD00BFAFF30080EF39FAFE422EE63F11
:101480002DE9F043DFF8B4808BB004460D4600F040
:1014900057FF98F90030013306460F462CD02246FC
:1014A0002B46204629461CF0B9FB814620BB20462E
:1014B00029461CF0D9FE1CA3D3E900231CF0A4FB91
:1014C000D0B11B4A98F90030CDF820900321CDE926
:1014D0000445CDE90245CDE9001293B1154900203C
:1014E000022BCDE9060111D11FF0FAF82223036087
:1014F000089B9BB9DDE90667304639460BB0BDE86D
:10150000F0830D4B4FF06042CDE9062368461EF094
:1015100097FF0028E8D0089B002BEBD01FF0E0F8E5
:10152000089B0360E6E700BF7DF8B98FCE338640A5
:10153000503303080000F07FFFFFEF479A030020BD
:101540002DE9F043DFF8E4808BB004460D4600F04F
:10155000A3FF98F90030013306460F4633D02046EA
:1015600029461EF067FF70B329A3D3E90023204664
:1015700029461CF049FB814650BB27A3D3E9002331
:10158000204629461CF022FBE8B198F90030244A95
:10159000CDF82090042600200021022BCDE904453F
:1015A000CDE90245CDE90062CDE9060129D06846C2
:1015B0001EF046FF28B3089B1BB11FF091F8089B53
:1015C0000360DDE90667304639460BB0BDE8F083BD
:1015D000134A98F90030019203210022CDE9044515
:1015E000CDE90245009108922BB90E4B4FF06042B5
:1015F000CDE90623DBE70C490020022BCDE90601EB
:10160000D5D11FF06DF822230360D4E7AFF300803B
:10161000EF39FAFE422E864051302DD5104987C051
:1016200058330308FFFFEF470000F07F9A030020C4
:101630002DE9F84FC44E21F00043B3420C46054655
:101640000DDD03F1404303F58013034340F0B980FF
:10165000002940F3408100200021BDE8F88FBB4EF7
:10166000B34208DCBA4A934200F3B5809CA1D1E9A9
:101670000001BDE8F88F0029C0F2708102460B46D8
:101680000020B4491BF078FE0022B34B1CF02CF86C
:1016900004460D461DF07CFE93A3D3E90023894642
:1016A0008046294620461CF01FF891A3D3E9002369
:1016B0001BF064FE22462B461CF016F88EA3D3E9DD
:1016C00000231BF059FE22462B461CF00DF88CA37C
:1016D000D3E900231BF052FE22462B461CF004F8EF
:1016E00089A3D3E900231BF047FE22462B461BF0BB
:1016F000FBFF87A3D3E900231BF040FE22462B46C5
:101700001BF0F2FF84A3D3E9002382468B462046D8
:1017100029461BF0E9FF82A3D3E900231BF02CFE2E
:1017200022462B461BF0E0FF7FA3D3E900231BF0EA
:1017300025FE22462B461BF0D7FF7DA3D3E90023CD
:101740001BF01AFE22462B461BF0CEFF0022814BD7
:101750001BF014FE02460B46504659461CF0EEF8AC
:1017600042464B461BF0C0FF002682468B4632465F
:101770004B46304649461BF0B7FF02460B46204613
:1017800029461BF0F9FD324604460D464B464046BD
:1017900049461BF0F3FD02460B46204629461CF045
:1017A000CDF802460B46504659461BF0E7FD32463F
:1017B0004B461BF0E3FD02460B461BF0DFFDBDE888
:1017C000F88F02460B461BF0D7FD02460B461CF075
:1017D000B5F8BDE8F88F02460B461BF085FF42A323
:1017E000D3E9002306460F461BF07EFF40A3D3E952
:1017F00000231BF0C3FD32463B461BF075FF3EA3A2
:10180000D3E900231BF0B8FD32463B461BF06CFFCA
:101810003BA3D3E900231BF0B1FD32463B461BF04E
:1018200063FF39A3D3E900231BF0A6FD32463B46F4
:101830001BF05AFF36A3D3E900231BF09FFD32466D
:101840003B461BF051FF34A3D3E900238046894671
:10185000304639461BF048FF31A3D3E900231BF083
:101860008BFD32463B461BF03FFF2FA3D3E90023FD
:101870001BF084FD32463B461BF036FF2CA3D3E918
:1018800000231BF079FD32463B461BF02DFF002262
:10189000304B1BF073FD02460B46404649461CF098
:1018A0004DF82A4623461BF01FFF02460B4622A195
:1018B000D1E900011BF060FD02460B462846214697
:1018C0001BF05AFD02460B4605A1D1E900011BF0B1
:1018D00053FDBDE8F88F1AA1D1E9000179E700BFF7
:1018E000182D4454FB21F93F09F7FD0DE13D023F5E
:1018F00088B20175E0EF493F3B8F68B52882A43F6D
:101900005544880E55C1C93F7D6FEB0312D6D43FB5
:10191000555555555555C53F82922EB1C5B8B33F63
:1019200059018D1B6C06E63FC88A599CE52A004088
:101930004B2D8A1C273A0340075C143326A6913CA2
:10194000182D4454FB210940FFFFEF3FFFFFDF3F0D
:101950000000603C0000F03F0000E03F00225C4BD4
:101960001BF00CFD00225B4B1BF0BEFE40A3D3E935
:10197000002304460D461BF0B7FE3FA3D3E9002326
:101980001BF0FCFC22462B461BF0AEFE3CA3D3E929
:1019900000231BF0F1FC22462B461BF0A5FE3AA3C8
:1019A000D3E900231BF0EAFC22462B461BF09CFEE9
:1019B00037A3D3E900231BF0DFFC22462B461BF0A4
:1019C00093FE35A3D3E900231BF0D8FC22462B4617
:1019D0001BF08AFE80468946204629461DF0D8FC29
:1019E0002FA3D3E9002306460F46204629461BF0C5
:1019F0007BFE2DA3D3E900231BF0BEFC22462B4621
:101A00001BF072FE2AA3D3E900231BF0B7FC224689
:101A10002B461BF069FE28A3D3E900231BF0ACFC86
:101A200022462B461BF060FE0022294B1BF0A6FC31
:101A300002460B46404649461BF080FF32463B4675
:101A40001BF052FE1EA3D3E900231BF095FC324687
:101A50003B461BF093FC02460B461BF08FFC0246F4
:101A60000B4619A1D1E900011BF086FCB1E600BFCD
:101A700009F7FD0DE13D023F88B20175E0EF493FF6
:101A80003B8F68B52882A43F5544880E55C1C93F95
:101A90007D6FEB0312D6D43F555555555555C53F6F
:101AA00082922EB1C5B8B33F59018D1B6C06E63F3B
:101AB000C88A599CE52A00404B2D8A1C273A0340CE
:101AC000075C143326A6913C182D4454FB21094091
:101AD0000000F03F0000E03F414A91422DE9F84309
:101AE0000C46054637DD3F4A914209DD02F1795245
:101AF00091423EDD02460B461BF040FCBDE8F883F8
:101B000001F1404202F5801202432ED0B1F1804F24
:101B100037DC0022344B1BF02FFC02460B460446F8
:101B20000D461BF02BFC224606460F462B46204650
:101B300029461BF0D9FD02460B46304639461BF0BC
:101B40001DFC1DF025FC22462B461BF017FCBDE8B2
:101B5000F843FFF759BA02460B461BF00DFC02464C
:101B60000B461BF0EBFEBDE8F88300200021BDE82A
:101B7000F88300F019FE18A3D3E900231BF0FEFB45
:101B8000F1E702460B461BF0AFFD0022164B1BF09F
:101B9000F3FB1DF0FDFB2A46804689462346284676
:101BA00021461BF0EBFB2A4606460F4623464046DD
:101BB00049461BF0E3FB02460B4600200A491BF096
:101BC000BDFE0B460246394630461BF0D5FBBDE84C
:101BD000F84300F0E9BD00BFEF39FAFE422EE63FC0
:101BE000FFFFEF3FFFFFAF410000F03F00000000AC
:101BF0002DE9F04FB24B21F000479F4287B00D46D0
:101C0000044615DD07F1404707F5801703463B43BF
:101C100026D002460B461BF0AFFB0B4602461BF0DC
:101C20008DFE04460B462046194607B0BDE8F08FEE
:101C3000A44B9F420E462EDCB7F1795F80F24A81B9
:101C400083A3D3E900231BF099FB00229E4B1BF0DA
:101C5000DBFF00B32B462046194607B0BDE8F08FE6
:101C60007DA3D3E900231BF03FFD7DA3D3E900232F
:101C700006460F46204629461BF036FD02460B4617
:101C8000304639461BF07AFB04460B46204619467F
:101C900007B0BDE8F08F204629461CF0E5FA024661
:101CA0000B46002088491BF067FB0022874B1BF086
:101CB0001BFD6DA3D3E9002304460D461BF014FD64
:101CC0006BA3D3E900231BF059FB22462B461BF0E4
:101CD0000BFD69A3D3E900231BF04EFB22462B46E4
:101CE0001BF002FD66A3D3E900231BF047FB22464D
:101CF0002B461BF0F9FC64A3D3E900231BF03CFB4B
:101D000022462B461BF0F0FC61A3D3E900231BF015
:101D100035FB22462B461BF0E7FC5FA3D3E90023EB
:101D2000CDE90001204629461BF0DEFC5CA3D3E987
:101D300000231BF021FB22462B461BF0D5FC5AA3A7
:101D4000D3E900231BF01AFB22462B461BF0CCFCE8
:101D500057A3D3E900231BF00FFB22462B461BF0B1
:101D6000C3FC594B00221BF009FB82468B462046E0
:101D70002946CDE902AB1DF00BFB554B9F42804637
:101D8000894600F31C8102460B461BF0F7FADDE999
:101D90000223CDE90401DDE900011BF0CFFD02467D
:101DA0000B46DDE904011BF09FFC4FF0000ACDE972
:101DB000000152464B46504649461BF095FC0246F0
:101DC0000B46204629461BF0D7FA524604460D46DC
:101DD0004B46404649461BF0D1FA02460B46204688
:101DE00029461BF0ABFD02460B461BF0C7FA024624
:101DF0000B461BA1D1E900011BF0BEFA02460B46BF
:101E0000DDE900011BF0B8FA524604460D464B4688
:101E1000504649461BF0B2FA02460B4626A1D1E9CC
:101E200000011BF0A9FA02460B46204629461BF08A
:101E3000A3FA0B46024620A1D1E900011BF09CFA4F
:101E400004460B46002E3FF7EEAE03F10043EAE6F0
:101E50009C7500883CE4377E182D4454FB21F93FE3
:101E6000075C143326A6913C09F7FD0DE13D023FC6
:101E700088B20175E0EF493F3B8F68B52882A43FE7
:101E80005544880E55C1C93F7D6FEB0312D6D43F30
:101E9000555555555555C53F82922EB1C5B8B33FDE
:101EA00059018D1B6C06E63FC88A599CE52A004003
:101EB0004B2D8A1C273A0340182D4454FB21E93F3F
:101EC000FFFFEF3FFFFFDF3F0000F03F0000E03F7C
:101ED0003233EF3F02460B461BF006FC48A3D3E922
:101EE000002306460F461BF0FFFB47A3D3E9002360
:101EF0001BF044FA32463B461BF0F6FB44A3D3E901
:101F000000231BF039FA32463B461BF0EDFB42A39F
:101F1000D3E900231BF032FA32463B461BF0E4FBC8
:101F20003FA3D3E900231BF027FA32463B461BF0C0
:101F3000DBFB3DA3D3E900231BF020FA32463B46EE
:101F40001BF0D2FB3AA3D3E90023804689463046F2
:101F500039461BF0C9FB38A3D3E900231BF00CFA68
:101F600032463B461BF0C0FB35A3D3E900231BF0F0
:101F700005FA32463B461BF0B7FB33A3D3E90023F7
:101F80001BF0FAF932463B461BF0AEFB0022344B05
:101F90001BF0F4F902460B46404649461BF0CEFCC6
:101FA00022462B461BF0A0FB22462B461BF0E6F9EF
:101FB00004460B462046194607B0BDE8F08F52464E
:101FC0005B46DDE900011BF0B9FC42464B461BF0C5
:101FD0008BFB42464B461BF0D1F902460B461BF0E9
:101FE000CDF91BA3D3E900231BF0C6F90B4602462B
:101FF00019A1D1E900011BF0BFF904460B4621E706
:1020000009F7FD0DE13D023F88B20175E0EF493F60
:102010003B8F68B52882A43F5544880E55C1C93FFF
:102020007D6FEB0312D6D43F555555555555C53FD9
:1020300082922EB1C5B8B33F59018D1B6C06E63FA5
:10204000C88A599CE52A00404B2D8A1C273A034038
:10205000075C143326A6913C182D4454FB21F93F0C
:102060000000F03F000000002DE9F84F54421443F7
:1020700023F00048684E48EAD474B44284460F46C0
:102080001FD84442044321F0004A4AEAD474B442BF
:102090008B4616D803F1404404F5801414439E4641
:1020A0003DD09C1704F0020444EAD1745AEA0001BE
:1020B0000FD1022C50D0032C3CD145A1D1E9000115
:1020C00005E01046194662463B461BF057F9BDE84D
:1020D000F88F58EA020126D0B0452DD0B24522D063
:1020E000AAEB08084FEA2858B8F13C0F38DC002B5F
:1020F0003ADA18F13C0F37DA00200021012C49D0E0
:10210000022C3AD0002CE2D033A3D3E900231BF0F9
:1021100033F933A3D3E900231BF02EF9D7E7BDE849
:10212000F84FFEF7D5BCBBF1000F11DB2EA1D1E9B2
:102130000001CCE73946CAE7C2452FD0022C0BD0AC
:10214000032CBAD0012C4FF0000031D00021BEE7A3
:1021500027A1D1E90001BAE721A1D1E90001B6E741
:1021600021A1D1E90001C9E7604639461BF0E6FB31
:102170001CF07AF8FEF7ACFCC0E717A3D3E9002304
:102180001BF0FAF802460B4615A1D1E900011BF03D
:10219000F3F89CE701F10043194698E7022C12D0AE
:1021A000032C0CD0012C06D013A1D1E900018EE73D
:1021B0004FF000418BE712A1D1E9000187E712A19E
:1021C000D1E9000183E712A1D1E900017FE700BF57
:1021D000182D4454FB2109C0075C143326A6A13CEA
:1021E000182D4454FB210940182D4454FB21F93F7C
:1021F000182D4454FB21F9BF182D4454FB21E93F0D
:10220000182D4454FB21E9BFD221337F7CD902C071
:10221000D221337F7CD902400000F07F0000000013
:1022200043422DE9F047034321F00048404A48EA81
:10223000D37393420F462ED890454AD03D4B9845D4
:102240008A4636DD3C4B9845044645464CDD024601
:10225000434641461BF092F8224606460F46434647
:10226000002033491BF088F802460B4630463946B9
:102270001BF064FBFEF7C8FE304B00221BF034FA63
:10228000BAF1000F04460B460FDA01F10043204675
:102290001946BDE8F08702460B461BF06DF80B4669
:1022A00002461BF04BFB04460B4620461946BDE890
:1022B000F0871DA3D3E9002304461BF05FF800223A
:1022C00000231BF0A1FC70B13B4620461946BDE837
:1022D000F087002200231BF031FB04460B4620460A
:1022E0001946BDE8F087454622462B46204629463A
:1022F0001BF044F822462B4606460F461BF0F4F925
:102300002246804689462B46002009491BF034F8B6
:1023100002460B46404649461BF010FB32463B4600
:102320001BF02CF8A6E700BF9C7500883CE4377EC4
:102330000000F03FFFFF2F3EFFFFDF3F0000E03FC8
:102340004D4A2DE9F84321F0004494420B460646DD
:102350001BDC4A4A944224DD494A944256DD494AEC
:10236000944248DD484A944271DD013294426BD078
:102370003FA3D3E90023104619461BF0B5F90646E2
:102380000F4630463946BDE8F88304460D462246DE
:102390002B461BF0A9F906460F4630463946BDE8E4
:1023A000F8831BF061FF02F06FFC0022374B804680
:1023B00089461AF0E3FFB4F1725F06460F46ECDB84
:1023C00042464B46404649461BF08EF932463B4654
:1023D00004460D46304639461AF0D0FF02460B46F9
:1023E000204629461BF0AAFA0022284B1AF0C6FF05
:1023F00006460F46D1E71BF037FF00F04DF80022EC
:10240000234B1BF071F906460F46C6E71BF02CFF65
:1024100000F042F800221E4B06460F461BF064F9FE
:10242000324604460D463B46002019491BF086FA09
:1024300002460B46204629461AF0A0FF06460F46E4
:1024400030463946BDE8F883124A904290D830466B
:1024500019461BF009FF00220D4B1BF045F900F057
:102460001BF800220A4B04460D461BF03DF98EE78F
:102470009C7500883CE4377EFFFFEF7F422ED63FFD
:10248000FFFF3540412E8640CD3386400000F03FAF
:102490000000E03F7DF8B98F2DE9F047B84F21F0FB
:1024A0000042BA4284B00C464FEAD176054612D9B2
:1024B000B44FBA4240F28E80C1F313030343024685
:1024C00040F0F780002E00F0818000252946284644
:1024D00004B0BDE8F087AC4B9A4200F2B880AB4B39
:1024E0009A4240F2D3804FF0000A2A4623462846FB
:1024F00021461BF0F9F88CA3D3E9002306460F46CA
:102500001BF0F2F88AA3D3E900231AF035FF324614
:102510003B461BF0E9F888A3D3E900231AF02EFF0D
:1025200032463B461BF0E0F885A3D3E900231AF0BE
:1025300023FF32463B461BF0D7F883A3D3E90023A1
:102540001AF01CFF32463B461BF0CEF802460B4603
:10255000284621461AF010FF02460B4606460F4653
:10256000284621461BF0C0F880468946BAF1000F84
:1025700000F0B38032463B4600204FF080411AF015
:10258000FBFE02460B46404649461BF0D7F9024681
:102590000B46DDE902011AF0EFFEDDE900231AF037
:1025A000EBFE0B4602467A4900201AF0E5FE6FF476
:1025B0007F739A4580F2AD800AF57A7A01EB0A5171
:1025C00000224FF0B8731BF08FF80546284604B080
:1025D000BDE8F0875EA3D3E900231BF015FB0028BC
:1025E0006FD1284621465CA3D3E900231BF0EEFA05
:1025F00000287FF46AAF674B284603EBC6062146E6
:1026000057A3D3E900231BF06FF8D6E900231AF093
:10261000B5FE1BF019FB82461AF0FCFF52A3D3E96A
:10262000002306460F461BF05FF802460B4628467D
:1026300021461AF0A1FE4EA3D3E90023CDE9000103
:10264000304639461BF050F8CDE9020115E0524BF7
:102650009A42D0D8514BF4002344D3E900231AF016
:102660008BFE4F4B2344D3E90034CDE90001CDE983
:102670000234C6F1010AAAEB060ADDE90223DDE90C
:1026800000011AF079FE05460C462EE73AA3D3E97D
:1026900000231AF073FE00223D4B1BF0B5FA002810
:1026A0003ED0284621460022394B1AF067FE0546E7
:1026B0008CE70B461AF062FE0546284604B0BDE8DA
:1026C000F0872DA3D3E90023104619461BF00CF820
:1026D0000546284604B0BDE8F0873046394600225A
:1026E0004FF080431AF048FE02460B4640464946EA
:1026F0001BF024F92A4623461AF03EFE02460B46FA
:10270000002023491AF038FE0546284604B0BDE8EB
:10271000F087054601EB0A51284604B0BDE8F08772
:102720008246E2E6AFF30080D0A4BE726937663E0F
:10273000F16BD2C541BDBB3E2CDE25AF6A56113FC1
:1027400093BDBE166CC1663F3E5555555555C53FA8
:10275000EF39FAFE422E864051302DD5104987C000
:10276000FE822B654715F73F0000E0FE422EE63F54
:10277000763C7935EF39EA3D9C7500883CE4377E3C
:10278000412E8640FFFFEF7F422ED63FFFFF2F3EB8
:102790000000F03F78170308B1A2F03F8817030844
:1027A00098170308000000002DE9F04FB1F5801FD5
:1027B00085B006460F460B4680F2D08021F00042DD
:1027C000024300F0DA800029C0F2E9800022D64BF3
:1027D0001AF08AFFD54A0B46934206460F466FF021
:1027E000350E00F3C180C3F3130505F5152C0CF667
:1027F000647C0CF4801C8CF07F5282F440121C1517
:1028000042EA0507A4F2FF3474440022C84B304664
:10281000394604EB1C541AF0AFFDAB1CC3F3130391
:10282000022B82468B464FF0000240F3AF804FF000
:1028300080431AF0A3FD02460B46504659461BF052
:102840007DF8064620460F461AF0E4FE3246CDE9F2
:1028500002013B4630463946CDE900671AF044FF95
:1028600002460B46804689461AF03EFF9AA3D3E9FA
:10287000002306460F461AF037FF99A3D3E9002339
:102880001AF07CFD32463B461AF02EFF96A3D3E9A0
:1028900000231AF073FD32463B461AF025FF94A33D
:1028A000D3E900231AF06AFD42464B461AF01CFF9A
:1028B00091A3D3E9002380468946304639461AF071
:1028C00013FF8FA3D3E900231AF058FD32463B468D
:1028D0001AF00AFF8CA3D3E900231AF04FFD324609
:1028E0003B461AF001FF0B460246494640461AF0A5
:1028F00045FDA5F5C223C5F5D725A3F27A43513589
:102900001D43002D06460F4640F387800022894B69
:10291000504659461AF0E8FE52465B461AF0E4FE6D
:1029200002460B4680468946304639461AF026FD57
:10293000DDE900231AF0D8FE06460F46002C40F0D1
:10294000818002460B46404649461AF015FD024674
:102950000B46504659461AF00FFD0BE0734A93425E
:102960004FF0000E7FF73FAF32463B4630463946C8
:102970001AF004FD05B0BDE8F08F0022002300200E
:102980006D491AF0DBFF05B0BDE8F08F00231BF0A6
:1029900013F960B1002C7CD100200021EAE7024647
:1029A0001AF0EAFC002200231AF0C8FFE2E758A35D
:1029B000D3E90023504659461AF096FE02460B46CC
:1029C00000205C491AF0D8FC524606460F465B468A
:1029D000504659461AF088FE02460B4630463946A4
:1029E0001AF082FE06460F462CB320461AF012FE5D
:1029F00049A3D3E90023804689461AF075FE48A30F
:102A0000D3E9002304460D46404649461AF06CFEC1
:102A100002460B46304639462CE002460B465046ED
:102A200059461AF0A9FCDDE900231AF05DFE0646BE
:102A30000F46002C47D132463B46504659461AF0C5
:102A40009BFC97E734A3D3E90023DDE902011AF0E8
:102A50004BFE33A3D3E9002304460D46DDE9020112
:102A60001AF042FE32463B461AF088FC02460B46FC
:102A7000404649461AF080FC52465B461AF07CFC00
:102A800002460B46204629461AF076FC05B0BDE802
:102A9000F08F20461AF0BEFD1FA3D3E9002306469F
:102AA0000F461AF021FE1EA3D3E9002304460D466B
:102AB000304639461AF018FE02460B462046294693
:102AC0001AF05CFC56E7DDE9028913A3D3E9002381
:102AD0004046494691E700BF44523EDF12F1C23FF3
:102AE000DE03CB966446C73F599322942449D23FD4
:102AF000935555555555E53F9FC678D0099AC33F24
:102B0000AF788E1DC571CC3F04FA97999999D93F3A
:102B1000555555555555D53F0000E0FE422EE63F30
:102B2000763C7935EF39EA3D00005043FFFFEF7FF7
:102B30000000F03F0000E03F000050C30000000034
:102B4000B1F5801F2DE9F84304460D460B4619DA0E
:102B500021F00042024359D000295FDB00223A4BAA
:102B60001AF0C2FD394A0B4693420D4604466FF0F7
:102B700035010CDD22462B46204629461AF0FEFB85
:102B8000BDE8F883314A93424FF00001F2DC18159A
:102B9000A0F2FF3008444FEAD0794844C3F3130849
:102BA0001AF038FDC9F57F73033348EA035506462A
:102BB0000F4620462946FFF7F7FD1DA3D3E9002362
:102BC00080468946304639461AF08EFD1AA3D3E96D
:102BD000002304460D46404649461AF085FD02464C
:102BE0000B46204629461AF0C9FB15A3D3E900235A
:102BF00004460D46304639461AF076FD02460B462D
:102C0000204629461AF0BAFBBDE8F88300220023CB
:102C100000200F491AF092FEBDE8F88302461AF030
:102C2000ABFB002200231AF089FEA9E7AFF3008076
:102C3000362BF111F3FE593D0EE526157BCBDB3F1C
:102C400000609F501344D33F00005043FFFFEF7FCD
:102C5000000050C3000000002DE9F04F23F00045B4
:102C600055EA020493B00DD0794E21F00044B442ED
:102C70000F4682460FDD04F1404404F5801454EA07
:102C80000A035BD1734C0023CDE90034DDE9000178
:102C900013B0BDE8F08F984694464ED0B542EADCBA
:102CA0006B4EB54266D0002F8B468146CDE902239C
:102CB00064DB0026BCF1000F0ED1654B9D4246D06F
:102CC000644B9D4200F09780B8F1804F00F0B280D5
:102CD000614B984500F0CC83484659461BF0C4FA36
:102CE000CDE90001BAF1000F06D1002C60D0594B9C
:102CF00027F040429A425BD0FF0F013F56EA07039C
:102D000000F08280554B9D4240F3B08003F1047384
:102D10009D4240F34184524B9C4240F38280B8F183
:102D2000000F40F3828048A3D3E9002310461946E0
:102D30001AF0DAFCCDE90001A8E728B1494813B040
:102D4000BDE8F04F1DF07EBBA542F7DCA8E704F11B
:102D5000404303F5801353EA0A0393D0404B9C424F
:102D600040F39083B8F1000F5FDBDDE90234CDE979
:102D700000348BE7BCF1000F95D07CE73A4B9D42C5
:102D800037DCA3F154739D4293DD2B15A3F2FF337F
:102D9000142B40F3E983C3F134032CFA03F202FA53
:102DA00003F3634585D102F00102C2F1020681E717
:102DB000B8F1000F07DADDE90023002025491AF0F9
:102DC000BDFDCDE90001002FBFF660AF04F1404426
:102DD00004F5801454EA060300F03C84012E7FF4CD
:102DE00055AFDDE90045224605F10043CDE900235A
:102DF0004CE702265EE7B8F1000FC0F24F83484669
:102E00005946CDE9000141E74A4648465B465946E6
:102E10001AF0B2FA02460B461AF090FDCDE9000115
:102E200034E7B8F1000FFFF67EAF00230024CDE9B0
:102E300000342BE74A4648465B4659461AF054FC94
:102E4000CDE9000122E700BF9C7500883CE4377E95
:102E50000000F07F0000F03F0000E03F0000E04194
:102E6000FFFFEF3F98200308FFFF3F43B4F5801FAB
:102E700080F28F83DDE900010022CF4B1AF034FC91
:102E8000CDE900010C466FF0340C2315CB4DC4F393
:102E90001302A3F2FF3342F07F5403EB0C01AA426A
:102EA0000B9144F4401440F36F83C54B9A4240F3B6
:102EB000F38300220023CDE9082301310B91A4F50F
:102EC0008014CDE91023BF4B0022CDE90623002555
:102ED000DDE90001DDE90623214682461AF04CFABD
:102EE000A346DDE906238046894650462146CDE9C2
:102EF0000CAB1AF043FA02460B460020B1491AF017
:102F00001DFD0A460146CDE90E121346494602460A
:102F100040461AF0E9FB631043F0005382468B46AB
:102F200003F500238C46CDE904AB5919D3460023A1
:102F3000CDE900BC0093DDE900AB002004460D465E
:102F400002460B46504659461AF0CEFB02460B4647
:102F5000404649461AF010FADDE9062380468946C4
:102F6000204629461AF008FA02460B46DDE90C0114
:102F70001AF002FA52465B461AF0B6FB02460B46BE
:102F8000404649461AF0F8F9DDE90E231AF0ACFB89
:102F9000DDE90445CDE9060122462B4620462946B7
:102FA0001AF0A2FB72A3D3E9002304460D461AF0DF
:102FB0009BFB71A3D3E900231AF0E0F922462B46CC
:102FC0001AF092FB6EA3D3E900231AF0D7F9224638
:102FD0002B461AF089FB6CA3D3E900231AF0CEF933
:102FE00022462B461AF080FB69A3D3E900231AF08E
:102FF000C5F922462B461AF077FB67A3D3E90023D5
:103000001AF0BCF92246804689462B4620462946BE
:103010001AF06AFB02460B46404649461AF064FB2A
:10302000524604460D465B46DDE904011AF0A6F956
:10303000DDE906231AF058FB22462B461AF09EF9CA
:103040005246804689465B46504659461AF04CFB2C
:1030500000225D4BCDE90C011AF090F942464B4637
:103060001AF08CF900980D46044622462B4650462D
:1030700059461AF039FB002282468B46524B2046B5
:1030800029461AF079F9DDE90C231AF075F90246A0
:103090000B46404649461AF06FF9DDE904231AF061
:1030A00023FB2246804689462B46DDE906011AF0BD
:1030B0001BFB02460B46404649461AF05FF9804624
:1030C000894602460B46504659461AF057F9009871
:1030D00033A3D3E9002304460D461AF005FB5246FC
:1030E000CDE904015B46204629461AF045F902461F
:1030F0000B46404649461AF03FF92BA3D3E900237B
:103100001AF0F2FA2AA3D3E9002380468946204622
:1031100029461AF0E9FA02460B46404649461AF09B
:103120002DF9DDE910231AF029F980460B9889461C
:103130001AF070FA424682468B464B46DDE904019E
:103140001AF01CF9DDE908231AF018F952465B461B
:103150001AF014F9009852465B4604460D461AF0E0
:103160000BF9DDE908231AF007F9DDE904232DE066
:10317000EF4E454A287ECA3F65DBC9934A86CD3F5C
:1031800001411DA96074D13F4D268F515555D53F42
:10319000FFAB6FDBB66DDB3F033333333333E33FDA
:1031A000000000E009C7EE3FFD033ADC09C7EE3F2F
:1031B000F5015B14E02F3EBE000040438E980300F3
:1031C00079B60B000000F03F000008401AF0D4F878
:1031D0000B460246494640461AF0CEF8013E56EAF2
:1031E000070382468B46DDE9020114BFD84BD94B59
:1031F0000022CDE9042302460B46CDE9002300233B
:103200000093DDE9006732463B461AF0B5F82246E6
:103210002B461AF069FADDE90223804689465046BA
:1032200059461AF061FA02460B46404649461AF0E2
:10323000A5F83246804689463B4620462946CDE9D8
:1032400002891AF051FA0B46024606460F464046DE
:1032500049461AF093F8C04B994204460D468A46F7
:1032600040F3268101F13F4303F5E003034340F0BF
:10327000F781A3A3D3E90023DDE902011AF07EF868
:103280003246804689463B46204629461AF074F865
:1032900002460B46404649461AF0B6FC002840F06C
:1032A000DF81A8464FEA2853A3F2FE324FF4801381
:1032B00013415344C3F30A52A84DA2F2FF32154101
:1032C000C3F3130423EA05010020C2F1140B44F4F4
:1032D0008014BAF1000F02460B4644FA0BFB30464D
:1032E0003946B8BFCBF1000B1AF046F802460B4640
:1032F00006460F46DDE902011AF040F84FEA0B5A84
:103300000D46002480A3D3E90023204629461AF065
:10331000EBF93246804689463B46204629461AF05C
:103320002BF802460B46DDE902011AF025F878A3D6
:10333000D3E900231AF0D8F977A3D3E9002306468E
:103340000F46204629461AF0CFF902460B46304672
:1033500039461AF013F806460F4602460B46404619
:1033600049461AF00BF842464B4604460D461AF001
:1033700003F802460B463046394619F0FDFF224657
:10338000804689462B46204629461AF0ADF964A3AB
:10339000D3E9002306460F461AF0A6F962A3D3E943
:1033A000002319F0E9FF32463B461AF09DF960A36D
:1033B000D3E9002319F0E2FF32463B461AF094F9B4
:1033C0005DA3D3E9002319F0D7FF32463B461AF03C
:1033D0008BF95BA3D3E9002319F0D0FF32463B46BB
:1033E0001AF082F902460B462046294619F0C4FF1E
:1033F00006460F4602460B46204629461AF074F947
:103400000022CDE900014FF080433046394619F0E3
:10341000B3FF02460B46DDE900011AF08FFA42467F
:1034200006460F464B46204629461AF05DF94246AD
:103430004B4619F0A3FF02460B463046394619F0B9
:103440009BFF22462B4619F097FF02460B460020B1
:103450003F4919F091FF8A44BAF5801FC0F22D81CF
:103460005146DDE904231AF03FF9CDE900010DE4EE
:10347000002FFFF631AC4846594613B0BDE8F04F77
:103480001BF086BFB8F1000FBFF6CFACDDE9023408
:10349000009304F100430193FFF7F8BB4A465B46F3
:1034A00000202B491AF04AFACDE90001FFF7EEBBE4
:1034B0002B4B21F00048984540F3E280294B0B4408
:1034C00003430AD132463B4619F056FFDDE9022399
:1034D0001AF090FB00283FF4E5AE1BA3D3E90023CC
:1034E000DDE904011AF000F917A3D3E900231AF06B
:1034F000FBF8CDE90001FFF7C9BB00BFAFF30080C7
:10350000FE822B654715973C00000000432EE63FE6
:10351000EF39FAFE422EE63F396CA80C615C20BE02
:10352000D0A4BE726937663EF16BD2C541BDBB3EC9
:103530002CDE25AF6A56113F93BDBE166CC1663FA7
:103540003E5555555555C53F59F3F8C21F6EA50157
:103550000000F03F0000F0BFFFFF8F40FFFF0F00B3
:10356000FFCB904000346F3FBCF1000F40F09180E2
:10357000C3F1140345FA03F202FA03F3AB4200F07D
:10358000A0806646FFF79CBB00220023CDE90823FC
:1035900097E44FF0000C78E45B4B9C427FF741AC22
:1035A0005A4B9C423FF7BBABDDE900010022574B71
:1035B00019F0E2FE46A3D3E9002304460D461AF0B3
:1035C00093F845A3D3E9002382468B46204629463B
:1035D0001AF08AF80022CDE900014D4B2046294619
:1035E0001AF082F802460B463DA1D1E9000119F01C
:1035F000C3FE22462B461AF077F802460B460020FF
:10360000444919F0B9FE2246804689462B46204699
:1036100029461AF069F802460B46404649461AF018
:1036200063F831A3D3E900231AF05EF802460B4693
:10363000DDE9000119F0A0FE02460B4680468946EE
:103640005046594619F09AFE002004460D4652464F
:103650005B46BBE5DDE9002310461946FFF7D8BB02
:1036600023A3D3E90023DDE904011AF03DF820A3E8
:10367000D3E900231AF038F8CDE90001FFF706BBC3
:10368000244B98453FF70EAEDDE900239246934662
:1036900037E60026FFF720BB17A3D3E90023CDE9C7
:1036A000082317A3D3E90023CDE910231A4B0022E6
:1036B0004FF48025CDE906230AE45A4601F02CFD9B
:1036C000CFE602F00102C2F10206FFF7F9BA00BF2D
:1036D000000000604715F73F44DF5DF80BAE543E35
:1036E000555555555555D53FFE822B654715F73F26
:1036F0009C7500883CE4377E0000004003B8E23F40
:1037000006D0CF43EBFD4C3EFEFFEF3F0000F03F05
:103710000000D03F0000E03F0000F83F0000000044
:103720002DE9F04FC84E21F00047B7428FB00B464D
:1037300040F38F809246C54A97420C4626DC00290A
:10374000B7A3D3E9002340F38F8019F015FEC04BD7
:103750009F4204460D4600F04681B3A3D3E90023FF
:1037600019F00AFE02460B46CAE900232046294604
:1037700019F002FEACA3D3E9002319F0FDFD0125E9
:10378000CAE9020128460FB0BDE8F08FB14A97425E
:1037900040F38980B04A974200F31C813D15A5F2A1
:1037A0001645A7EB055319461F4606461AF04CFA74
:1037B00019F030FF8046894602460B4630463946AE
:1037C000CDE9088919F0D8FD0022A44B19F08CFF2F
:1037D000894680461AF038FA19F01CFF02460B465B
:1037E00006460F4640464946CDE90A6719F0C4FD32
:1037F00000229A4B19F078FF00220023CDE90C013A
:103800001AF0DAF9002800F05D81002330463946CD
:1038100000221AF0D1F9002814BF01230223904A94
:10382000019202212A46009108A8514600F080FB2F
:10383000002C054614DADAF80420DAF80C3002F12C
:10384000004203F100434542CAF80420CAF80C3094
:1038500006E0C2E9000100250024C2E90245002576
:1038600028460FB0BDE8F08F19F088FD784B9F42D5
:1038700004460D4600F008816BA3D3E9002319F03C
:103880007DFD02460B46CAE900232946204619F071
:1038900073FD65A3D3E9002319F070FD4FF0FF35E8
:1038A000CAE90201DCE71AF0DFFC61A3D3E90023D7
:1038B0008046894619F018FF00226A4B19F05EFD18
:1038C0001AF0C2F9054619F0A5FE55A3D3E9002365
:1038D000CDE9040119F008FF02460B46404649466F
:1038E00019F04AFD50A3D3E90023CDE90201DDE937
:1038F000040119F0F9FE1F2D8046894602460B4649
:10390000DDE9020140F3B08019F036FD83460E4632
:103910003F15C6F30A53FB1A102B40F3B08046A3A1
:10392000D3E90023DDE9040119F0DEFE8046894673
:1039300002460B46DDE9020119F01EFD02460B4668
:10394000DDE90201CDE9062319F016FD42464B469A
:1039500019F012FD3AA3D3E9002380468946DDE938
:10396000040119F0C1FE42464B4619F005FD0B4615
:10397000024680468946DDE9060119F0FDFCC1F3E7
:103980000A53FF1A312F83460E4600F39D800246EC
:103990000B46CAE90023DDE90623CDE902235A4696
:1039A0003346DDE9020119F0E7FC42464B4619F0C7
:1039B000E3FC002C02460B46CAE90223BFF650AFD7
:1039C00006F1004601F10041CAE900B6CAE9020168
:1039D0006D4245E7024619F0CFFC0025CAE9020115
:1039E000CAE900013CE714A3D3E9002319F0C4FCA1
:1039F00013A3D3E900230D46044619F0BDFC02468B
:103A00000B46CAE900232946204619F0B5FC0CA351
:103A1000D3E9002319F0B0FC0125CAE902011FE730
:103A200000004054FB21F93F3163621A61B4D03D7C
:103A300083C8C96D305FE43F0000601A61B4D03DB7
:103A40007370032E8A19A33BFB21E93F7BD9024007
:103A5000FB21F93FFB213941FFFFEF7F000070415F
:103A6000143403080000E03F19F086FC3A4B6A1E4C
:103A7000834653F82230BB420E463FF449AF5A46C4
:103A80003346CAE900238AE72BA3D3E9002319F0C0
:103A900075FC2BA3D3E900230D46044619F06EFCF8
:103AA00002460B46CAE900232946204619F064FC69
:103AB00023A3D3E9002319F061FC4FF0FF35CAE9D5
:103AC0000201CDE60323AAE61FA3D3E90023DDE923
:103AD000040119F009FEDDE9068906460F46024693
:103AE0000B464046494619F047FC02460B46404605
:103AF0004946CDE9022319F03FFC32463B4619F016
:103B00003BFC13A3D3E9002306460F46DDE904017D
:103B100019F0EAFD32463B4619F02EFC02460B46F0
:103B200080468946DDE9020119F026FC83460E46EF
:103B3000A5E700BFAFF300800000601A61B4D03D7C
:103B40007370032E8A19A33B0000002E8A19A33B31
:103B5000C14920259A837B39943303080000000073
:103B6000574A2DE9F84F21F0004890450E46074688
:103B70002CDC544B0029B4BF534D544D98454FF0A5
:103B8000000411DC524B984526DC4BA3D3E90023FB
:103B900019F0F4FB00224F4B1AF036F8002840D001
:103BA00038463146BDE8F88F4B4B984530DD4B4BDE
:103BB000984568DD0133984562D0384631463EA3CA
:103BC000D3E9002319F090FDBDE8F88F02460B46BB
:103BD00019F0D4FBBDE8F88F1AF046FB01F054F859
:103BE0003F4B984506460F4623DD0022394B19F01E
:103BF000C5FB02460B463046394619F09FFE324659
:103C00003B4619F0BBFB22462B4619F06DFDE1E760
:103C10001AF02AFBFEF740FC22462B4619F064FD01
:103C2000D8E7384631461AF01FFB01F02DF806465A
:103C30000F4632463B463046394619F09FFB324626
:103C400082468B463B463046394619F04DFD0022F0
:103C5000804689461F4B3046394619F08FFB024695
:103C60000B464046494619F069FE02460B4650464F
:103C7000594619F081FB22462B4619F035FDA9E77C
:103C8000184B984299D8384631461AF0EDFA00227E
:103C90000E4B19F029FDFEF7FFFB06460F460246C4
:103CA0000B462046294619F01FFD32463B4619F0C7
:103CB0001BFD8FE7AFF300803374AC3C1F7BAC7F00
:103CC000FFFFEF7FFFFF35400000E0BF0000E03F57
:103CD000FFFF2F3E0000F03F412E8640CD3386404F
:103CE000FFFFEF3F7DF8B98F2DE9F04F21F000463F
:103CF000B6F1795F85B00C4692469B4605466BDA75
:103D000019F0A2FF002800F0E2802A462346284648
:103D1000214619F0E9FC74A3D3E9002380468946C3
:103D200019F0E2FC72A3D3E9002319F027FB424605
:103D30004B4619F0D9FC70A3D3E9002319F01CFB02
:103D400042464B4619F0D0FC6DA3D3E9002319F08D
:103D500015FB42464B4619F0C7FC6BA3D3E9002381
:103D600019F00AFB42464B4619F0BEFC68A3D3E9A2
:103D7000002319F003FB42464B4619F0B5FCCDE990
:103D800000010022644B4046494619F0ADFCDDE9D4
:103D9000002306460F464046494619F0A5FC524608
:103DA000804689465B462846214619F09DFC02461E
:103DB0000B464046494619F0DFFA02460B463046AC
:103DC000394619F0D9FA02460B460020534919F03A
:103DD000D3FA05B0BDE8F08F02460B4619F084FC1B
:103DE00041A3D3E900238046894619F07DFC40A316
:103DF000D3E9002319F0C2FA42464B4619F074FC8D
:103E00003DA3D3E9002319F0B7FA42464B4619F017
:103E10006BFC3BA3D3E9002319F0B0FA42464B46B2
:103E200019F062FC38A3D3E9002319F0A5FA424641
:103E30004B4619F059FC36A3D3E9002319F09EFA3A
:103E40004B46424619F050FC354B9E42CDE90001ED
:103E500097DD344B9E424FF000023DDCA6F5001387
:103E600000202E4916461F4619F086FACDE90201B8
:103E70000022294B4046494619F036FC32463B4663
:103E800019F07AFADDE9002306460F464046494616
:103E900019F02AFC5246804689465B462846214650
:103EA00019F022FC02460B464046494619F064FAD6
:103EB00002460B463046394619F05EFA02460B467A
:103EC000DDE9020119F058FA05B0BDE8F08F134999
:103ED000002005B0BDE8F08F134B144FCDE902234D
:103EE0000026C5E7AFF30080D43888BEE9FAA8BD44
:103EF000C4B1B4BD9EEE213EAD529C804F7E923E39
:103F00009015CB19A001FA3E7751C1166CC1563FEE
:103F10004C5555555555A53F0000E03F0000F03F7A
:103F20003233D33F0000E93F0000E73F0000D23FBB
:103F30002DE9F04FADF5197DBE4CA29EBE4D54F853
:103F400026700793D41E85FB0465E417C4EBA50413
:103F500024EAE4741D46631CA3EB8303013D02EBDA
:103F6000C30305937B1909940497019506460B91A9
:103F7000A4EB05041BD423445D1C20AF4FF00008C4
:103F80004FF00009DDF88CA208E05AF8240019F07F
:103F900041FB0134AC42E7E8020108D0002CF4DA1E
:103FA000013440464946AC42E7E80201F6D1049BA1
:103FB000002BC0F2B083079BA6F10802DB0011467C
:103FC000039220AA02EB0309029301EB0308049B6E
:103FD00072AA02EBC30B0DF5E07A019B002BC0F235
:103FE0009581039C4D460026002775E90223F4E9DC
:103FF000020119F079FB02460B463046394619F0AA
:10400000BDF9444506460F46EFD1EAE80267DA45B6
:1040100009F10809E1D1DDE90204049920448B008B
:1040200082460BA8A3F10802C31808930CAB1344F3
:104030000A938B4698AB03EBCB03BBF1000F53E91C
:10404000284529DD70AB03EBCB080DF130090022C8
:104050007A4B2046294619F047FB19F0F5FD19F077
:10406000D9FA0022764B06460F4619F03DFB024670
:104070000B462046294619F07FF919F0E5FD78E94D
:10408000022349F8040B3946304619F077F970AB32
:10409000984504460D46DAD1DDF8149020462946AD
:1040A0004A4601F039F800224FF07F5304460D468E
:1040B00019F01AFBFCF724FF0022624B19F014FBE5
:1040C00002460B462046294619F056F90D4604468D
:1040D00019F0BAFD804619F09DFA0B4602462946B2
:1040E000204619F049F94B46002B06460F4640F38F
:1040F000E1800BF1FF320CA9C9F1180351F82250ED
:1041000045FA03F101FA03F30CA8EB1A40F8223048
:10411000C9F11705884443FA05F5002D2CDDBBF1E4
:10412000000F08F1010840F394820C9C002C40F031
:10413000A780BBF1010F0AD00CA9012251F8044F4E
:10414000531C002C40F09E809B451A46F6D1059BDF
:10415000002B0EDD012B00F09C81022B09D10BF10D
:10416000FF320CAB0CA953F82230C3F3150341F80E
:104170002230022D00F0AF80002200233046394665
:1041800019F01AFD002800F06682049B0BF1FF393C
:104190004B4510DC0BF180430CAA013B089802EB65
:1041A0008303002253F80419834242EA0102F9D141
:1041B000002A40F0B580049B0CAA013B52F8233042
:1041C000002B40F0A1800A9A012352F80419013310
:1041D0000029FAD05B440BF101099945069349DCAB
:1041E000099A079909EB020801EB0B0508F18048D1
:1041F00002EB030BA39B08F1FF3803EB880870ABBD
:1042000003EBC909A39B20A903EB8B0301EBC505B5
:10421000029358F8040F19F0FDF9019B002BC5E932
:10422000000105F1080B28DB083D039C0026002750
:104230000CE000BFB4380308ABAAAA2A0000703E05
:10424000000070410000204075E80201F4E90223FB
:1042500019F04AFA02460B463046394619F08EF8F4
:10426000544506460F46EFD1029B9845E9E80267A0
:104270005D46CED1DDF818B0DCE600260027F3E776
:10428000012300220CA9C4F180749B4541F822400F
:104290000EDD51F8232001EB8B0001EB83036FF05F
:1042A0007F4100E01A688A1A43F8042B8342F9D14F
:1042B00001244CE706D10BF1FF330CAA52F823502E
:1042C000ED152AE70022BE4B19F094FC002840F0BF
:1042D000B981054650E732463B460020B94919F0FE
:1042E0004BF806460F46002C3FF446AF059AB549F9
:1042F000002000F011FF02460B463046394619F007
:104300003BF806460F4637E7012363E70026002700
:10431000EAE80267DA4509F108097FF45EAE7AE659
:104320000CAB059A53F82930183ACDE90685059269
:104330006BB909F18043013B0CA901EB830353F8EE
:10434000041909F1FF39183A0029F8D00592059AA5
:104350009C49002000F0E0FEB9F1000F04460D4634
:10436000C0F2E0814FEAC90370AA02EB0308089388
:104370000CAB03EB8906DFF850B208F108070436EE
:104380004FF0000A56F8040D19F044F922462B4666
:1043900019F0AAF95B4667E9020152462046294610
:1043A00019F0A2F90CAB9E4204460D46EAD148AB87
:1043B00003930193CDF8149009F10103DDF81090F7
:1043C0000293C3464FF0000AB9F1000FC0F23781E3
:1043D000DFF8F8815D4678A3D3E9002300260027A3
:1043E000002403E0544510DCF8E80223F5E802015C
:1043F00019F07AF902460B463046394618F0BEFFEE
:104400000134A14506460F46ECDA019BE3E802675A
:104410000193029B0AF1010A9A45ABF1080BD3D133
:10442000A29BDDF81490032B2CD8DFE813F0E800F2
:10443000D300D3003F00079B00200146002B40F033
:1044400043810D460B460B990446C1E9004503998B
:104450000246D1E9000118F08FFFB9F1000F0CDD21
:10446000039D0124F5E90223013418F087FFA145DB
:10447000F8DA079B002B40F037810B460B99024678
:10448000C1E90223069B03F007000DF5197DBDE885
:10449000F08F0BF1FF320CAB0CA953F82230C3F3B1
:1044A000160341F8223064E648AB0393B9F1000FDC
:1044B00040F35581039ACDF808904FEAC90302EB07
:1044C0000308D8E900AB0193914658E902675246C8
:1044D0005B463046394618F051FF04460D46024609
:1044E0000B463046394618F047FF52465B4618F0F7
:1044F00045FFC8E9000168E90245C145A246AB464F
:10450000E3D1DDF80890B9F1010F40F32881019B58
:10451000039A1344D3E9006701939A460DF5947BFF
:104520005AE9028932463B464046494618F026FF82
:1045300004460D4602460B464046494618F01CFF0D
:1045400032463B4618F01AFFCAE900016AE9024503
:10455000D34526462F46E3D10399019C002301F160
:104560001005083419461E46304674E9022318F037
:1045700005FFA5420346F6D10A460399D1E9008C0E
:10458000D1E902E90799002900F0B1800B9C236171
:10459000069BC4F800800CF1004009F1004102F1D3
:1045A0000042606003F00700E1606261C4F808E067
:1045B0000DF5197DBDE8F08F00000040FB21F93FAB
:1045C0000000E03F0000F03F0000703EC01703080D
:1045D00048AB0393B9F1000FFFF62DAF039F002006
:1045E00007EBC9060836014676E9022318F0C6FE35
:1045F000B742F9D1079B002B3FF423AF64E0089C3E
:10460000039D083400222C4411461646304674E9B6
:10461000022318F0B3FEA5420246F6D10B460799D5
:1046200009B103F1004319460B9B1046C3E9000191
:10463000069B03F007000DF5197DBDE8F08F0026FD
:104640000027E2E6BBF1000F08F101087DDD02253D
:104650006BE500247BE5CDE90685059D30463946AE
:104660006A4200F059FD00223E4B06460F4619F003
:10467000C1FA00B300223C4B3046394619F034F8F9
:1046800019F0E2FA044618F0C5FF0022354B19F084
:104690002BF80B4602463946304618F06DFE19F0ED
:1046A000D3FA0BF101090CAB183543F82B00059533
:1046B00043F829404BE63046394619F0C5FA0CABB1
:1046C000D94643F82B0042E60B9C0B4601F1004112
:1046D000C4E9000103990246D1E9000118F04CFE3B
:1046E000B9F1000F3FF7BCAE01F10041C5E6184635
:1046F0000B9B4646744667464D461146C3E9040186
:10470000C3E90067C3E90245069B03F007000DF506
:10471000197DBDE8F08FA6F108030393079BDB002A
:10472000029378E4A29B032B3FF6ACAE01A252F8B1
:1047300023F000BF45470108D1450108D1450108D4
:10474000A94401080022134669E732463B4600208F
:10475000064918F011FE022506460F460CE5002317
:104760001A460AE7000070410000703E0000F03F6A
:104770002DE9F04F21F00046B6F1795F85B00C4687
:1047800090469946054604DA19F05EFA002800F0D2
:1047900085802A4623462846214618F0A5FF06466E
:1047A0000F4602460B462846214618F09DFF3EA3C1
:1047B000D3E9002382468B463046394618F094FFF1
:1047C0003BA3D3E9002318F0D7FD32463B4618F04F
:1047D0008BFF39A3D3E9002318F0D0FD32463B46C6
:1047E00018F082FF36A3D3E9002318F0C5FD324646
:1047F0003B4618F079FF34A3D3E9002318F0BEFD3F
:104800000E9BCDE900019BB30022334B4046494645
:1048100018F06AFFDDE90023CDE902015046594650
:1048200018F062FF02460B46DDE9020118F0A4FD14
:1048300032463B4618F058FF42464B4618F09CFD66
:1048400023A3D3E9002306460F465046594618F0E5
:104850004BFF02460B463046394618F08FFD0246A4
:104860000B462846214618F087FD05B0BDE8F08FBD
:1048700002460B463046394618F036FF14A3D3E9FA
:10488000002318F079FD52465B4618F02DFF2A46AA
:10489000234618F073FD05B0BDE8F08F2846214689
:1048A00005B0BDE8F08F00BF7CD5CF5A3AD9E53DC1
:1048B000EB9C2B8AE6E55A3E7DFEB157E31DC73ED1
:1048C000D561C119A0012A3FA6F810111111813F2D
:1048D000495555555555C53F0000E03F00000000C3
:1048E0002DE9F04FDA4C21F00046A64287B08A4607
:1048F00089461746984683461BDC19F0A5F900281F
:1049000039D1109B5A4601331343334300F0A88139
:10491000109B012B00F0B1815A4653460020CD492F
:1049200019F00CF804460D462046294607B0BDE8AC
:10493000F08FC94B9E421EDD002904DA01F10043CD
:1049400008F100489A465A465346A3A1D1E900010E
:1049500018F012FD3A46434604460D46A0A1D1E99F
:10496000000118F009FD22462B4618F007FD00272C
:1049700083468A46B8465A4653465846514618F02A
:10498000B3FE03460C46CDE9003402460B4618F050
:10499000ABFEDDE9002304460D465846514618F0AB
:1049A000A3FE91A3D3E90023CDE9020120462946C5
:1049B00018F09AFE8EA3D3E9002318F0DFFC2246FC
:1049C0002B4618F091FE8CA3D3E9002318F0D6FCF7
:1049D00022462B4618F088FE89A3D3E9002318F05D
:1049E000CDFC22462B4618F07FFE87A3D3E9002397
:1049F00018F0C4FC22462B4618F076FE84A3D3E9B7
:104A0000002318F0BBFCDDE9002318F06DFE82A343
:104A1000D3E90023CDE904012046294618F064FEBD
:104A20007FA3D3E9002318F0A9FC22462B4618F0F7
:104A30005BFE7DA3D3E9002318F0A0FC22462B46A1
:104A400018F052FE7AA3D3E9002318F097FC22460F
:104A50002B4618F049FE78A3D3E9002318F08EFC0A
:104A600022462B4618F040FE75A3D3E9002318F028
:104A700085FC02460B46DDE9040118F07FFCDDE908
:104A8000022318F031FE3A46434618F077FCDDE980
:104A9000002318F029FE3A46434618F06FFC6AA33B
:104AA000D3E9002304460D46DDE9020118F01CFE9F
:104AB00022462B4618F062FCCDE900010B46024667
:104AC0005146584618F05AFC634B9E4204460D4628
:104AD0003EDC109B012B36D002460B4600205D4980
:104AE00018F02CFF00240F4606465A46534620462F
:104AF000294618F041FCA04602460B46DDE90001BC
:104B000018F03AFC42463B4618F0EEFDA946044632
:104B10000D4642463B464046494618F0E5FD002218
:104B20004E4B18F02BFC02460B462046294618F047
:104B300025FC32463B4618F0D7FD42463B4618F06E
:104B40001DFC04460D462046294607B0BDE8F08FFF
:104B5000109818F05FFD224606460F462B46204669
:104B6000294618F0C1FD3246CDE902013B462046F8
:104B7000294618F003FC02460B46DDE9020118F055
:104B8000DDFEDDE9002318F0F7FB02460B46584630
:104B9000514618F0F1FB02460B4618F0EFFB0246B7
:104BA0000B463046394618F0E7FB04464FEAA97039
:104BB00000F00200C0F101000D4618F02BFD024686
:104BC0000B462046294618F08FFD04460D46204628
:104BD000294607B0BDE8F08F182D4454FB21E93F6A
:104BE000075C143326A6813CD47ABF74702AFB3E3E
:104BF000E9A7F0320FB8123F68108D1AF726303F40
:104C00001583E0FEC8DB573F93846EE9E326823FBD
:104C1000FE41B31BBAA1AB3F735360DBCB75F3BE50
:104C2000A69237A0887E143F0165F2F2D844433F34
:104C3000280356C9226D6D3F37D60684F464963F2B
:104C40007AFE10111111C13F635555555555D53F89
:104C5000FFFF2F3E0000F0BF2794E53F0000F03F2C
:104C60005846514619F000FB02460B460020044905
:104C700018F064FE04460D4665E75C46554662E75B
:104C80000000F03F000000002DE9F04FCA4A21F07B
:104C90000043934285B00C460E46054620D9C74ACC
:104CA000934200F2D480002E80F2A081AAA3D3E91F
:104CB00000232846214618F061FB0022002318F04B
:104CC00085FF002840F0CE80A5A3D3E90023284625
:104CD000214618F009FD02460B460020B84990E134
:104CE000B84A934200F2E280B74A934240F22B81E5
:104CF000002301930022B54B2846214618F0F4FC0E
:104D000006460F4602460B462846214618F0ECFCA4
:104D100095A3D3E9002382468B4618F0E5FC94A3C3
:104D2000D3E9002318F02AFB52465B4618F0DCFC5E
:104D300091A3D3E9002318F01FFB52465B4618F0FD
:104D4000D3FC8FA3D3E9002318F018FB52465B462F
:104D500018F0CAFC8CA3D3E9002318F00DFB5246CF
:104D60005B4618F0C1FC0022994B18F007FB804607
:104D7000894602460B463046394618F0B5FC0246D5
:104D80000B460020934918F0F7FA064602460B46F8
:104D90000F464046494618F0EFFA324680468946AB
:104DA0003B462846214618F09FFC02460B46002051
:104DB000894918F0E1FA02460B464046494618F088
:104DC000BDFD52465B4618F08FFC019E02460B4625
:104DD000002E4AD0DDE9026732463B4618F0CCFA95
:104DE0002A46234618F080FC32463B4618F0C4FAA7
:104DF0005B46524618F0C0FA019B013306460F4647
:104E000000F01F81019B012B78D0019A531C392B94
:104E10004FEA025600F22481019F132F40F3518183
:104E2000019BC3F57F7A0AF1030A00224FEA0A5375
:104E300018F0A4FA02460B462846214618F09CFAC0
:104E40000022634B18F09AFA731819461BE0634A64
:104E500093421BD9C1F313030343024640F011816F
:104E6000002910DA00205E490DE02846214618F09E
:104E70003BFC52465B4618F07FFA02460B4628463A
:104E8000214618F079FA05B0BDE8F08F40A3D3E9C8
:104E9000002318F0B9FE00283FF405AF3EA3D3E984
:104EA00000231046194618F01FFCECE74D4A9342C8
:104EB00000F2EB8000293AA3D3E9002339DA18F095
:104EC0005DFA39A7D7E900674FF0FF33804689467E
:104ED000019332463B464046494618F04DFA024699
:104EE0000B4605460C464046494618F045FA324600
:104EF0003B4618F041FACDE90201FBE6284621467F
:104F00000022394B18F062FE002800F0CB802846C2
:104F1000214600222D4B18F031FA02460B4630464E
:104F2000394618F029FA00224FF0404318F0DCFB14
:104F3000A9E718F021FA01238046894601931CA7AE
:104F4000D7E90067C5E714A3D3E9002318F016FAE0
:104F500002460B468FE700BF59F3F8C21F6EA5014A
:104F6000FE822B654715F73F2DC3096EB7FD8ABE3C
:104F70003952E686CACFD03EB7DBAA9E19CE143F7F
:104F80008555FE19A0015A3FF41011111111A13FCE
:104F9000EF39FAFE422E86409C7500883CE4377E4D
:104FA0000000E0FE422EE63F763C7935EF39EABD5F
:104FB000763C7935EF39EA3D79684340412E8640A9
:104FC0000000E0BF422ED63FFFFF8F3C0000E03FD5
:104FD0000000F03F0000084000001840FFFFEF7F96
:104FE0000000F0BFB1A2F03F0000D0BF40A3D3E962
:104FF00000232846214618F077FB02460B46002086
:10500000414918F0BBF918F01FFE019018F002FB9F
:1050100039A3D3E9002306460F4618F065FB024684
:105020000B462846214618F0A7F935A3D3E90023FB
:10503000804689463046394618F056FB06460F46EC
:1050400047E732463B462846214618F095F90022AC
:105050002D4B18F049FB00222B4B18F08DF912E76D
:105060002A46234618F088F902460B4600202749B5
:1050700018F082F9731819460022244B18F07CF9B5
:1050800001E70B4618F07AF9FDE619A3D3E90023EE
:1050900018F02AFB002C02460B464FF00000AFDA56
:1050A0001B49AEE732463B462846214618F064F9D4
:1050B00002460B4618F062F90022144B18F05EF914
:1050C000E1E64FF4001C2A4623464CFA07FA18F092
:1050D00053F9CAF17F594FF0000809F5401902460B
:1050E0000B464046494618F047F9ADE6AFF300805D
:1050F000FE822B654715F73F0000E0FE422EE63F9B
:10510000763C7935EF39EA3D0000E03F0000F03FA2
:105110000000E0BF00000000F8B5C1F30A530446E8
:105120000D460E4617460BBB21F00046034633439F
:105130001BD0354B002218F0D7FA344B9F4204465F
:105140000D4635DBC1F30A530E46363B3B4440F275
:10515000FE72934232DC002B11DD26F0FF4626F46E
:10516000E00646EA035520462946F8BD40F2FF72A4
:105170009342EBD102460B4618F000F9F8BD13F14B
:10518000350F28DA4CF250339F4222462B460ADD77
:1051900019A1D1E900011BF087FA17A3D3E9002375
:1051A00018F0A2FAF8BD16A1D1E900011BF07CFAB3
:1051B00013A3D3E9002318F097FAF8BD22462B4633
:1051C0000DA1D1E900011BF06FFA0BA3D3E9002375
:1051D00018F08AFAF8BD26F0FF4626F4E0063633CA
:1051E00046EA0355204629460022094B18F07CFA6E
:1051F000F8BD00BFAFF300809C7500883CE4377EAB
:1052000059F3F8C21F6EA50100005043B03CFFFFE8
:105210000000903C10B5054C237833B9044B13B112
:105220000448AFF300800123237010BDC0030020A9
:1052300000000000343E030808B5034B1BB10349CE
:105240000348AFF3008008BD00000000C403002045
:10525000343E030870B504460E4600F043FA88B1A8
:105260000368DB6A05469847082C0CD0A4F10903B3
:10527000012B14D93246214610230D20BDE8704081
:1052800004F074B870BD2B6828465B6A9847022802
:10529000F0DC2B6828461B6A04219847EAE72B6854
:1052A00028465B6A98470528E4DC2B6828461B6A79
:1052B00008219847DEE700BF38B52DED028B054683
:1052C00000F010FA044640B10368DB6A9847032DEA
:1052D00003D8DFE805F02F363D06BDEC028B002039
:1052E00038BD20460DF09EFB07EE900A2046F8EEF2
:1052F000E78A0DF0A5FB07EE900A2046B8EEE78A94
:105300000DF0ACFB68EE087A07EE100AE8EEA87A1A
:10531000B8EEC77AE7EE077AF5EE407AF1EE10FACA
:10532000B1EEE78A1BD4FDEEC87ABDEC028B17EE16
:10533000900A38BDBDEC028B2046BDE838400DF028
:1053400071BBBDEC028B2046BDE838400DF078BB48
:10535000BDEC028B2046BDE838400DF07FBB17EE58
:10536000900A19F0ADFEDEE738B5044600F0BAF950
:1053700058B10368DB6A0546984744B1012C04D153
:105380002846BDE83840FBF7DBBA002038BD284688
:10539000BDE83840FBF7B4BA10B5044600F0A2F9F6
:1053A00028B1036821461B6ABDE81040184710BDAC
:1053B0000048704716FCFFFF704700BF10B5034B55
:1053C000036004460DF02AF9204610BDE0270308CB
:1053D00010B5054B036004460DF020F920461BF084
:1053E00092FD204610BD00BFE02703082DE9F041E3
:1053F0004FF0FF3184B00546462001F0D3FC682809
:105400000CBF33210321512001F0CCFCDFF8D0C2C6
:10541000A84B044604F00F06C4F3031714F4807479
:1054200008BF6346A44831463A460CF0E7FA221C0E
:1054300018BF012231463B4628460FF0D3FF002318
:10544000AB609E480CF0DAFA4FF0FF31032001F018
:10545000A9FC04F0E9FE4FF0FF310446022001F000
:10546000A1FC04F0E1FE002C39D0002837D0014621
:10547000204604F07DFB0646002849D0382146200E
:1054800001F090FC322804464BD048DD382800F06B
:10549000AC8068285BD14FF0FF31012001F082FC25
:1054A00004F0C2FE80465C201BF036FD052301930C
:1054B0004246009431462B4607460EF07BFFAF6014
:1054C0003B6838469B6A9847A8680368DB6A984738
:1054D0007B480CF093FA284604B0BDE8F081794887
:1054E0000CF08CFA4FF0FF31192001F05BFC04F056
:1054F0009BFE4FF0FF310446182001F053FC04F0EE
:1055000093FE0146204604F033FB06460028B5D141
:105510006D480CF073FA284604B0BDE8F0813028DD
:1055200015D14FF0FF31012001F03CFC04F07CFE6E
:10553000804650201BF0F0FCA4B2074605230193DF
:105540004246009431462B460EF0DEFCB7E70124BC
:105550003268CDE900440023576AAB600F220DF199
:105560000F0332213046B847002800F081803368AD
:10557000CDE900440F225F6A30210DF10F03304660
:10558000B847002848D03368CDE900440D225F6A4F
:1055900038210DF10F033046B84700286ED032682D
:1055A000CDE900440DF10F03576A6821752230469A
:1055B000B847002842D1682144480CF01FFA4FF048
:1055C000FF31204601F0EEFB04F02EFE80465C2009
:1055D0001BF0A2FC05246823CDE900344246314685
:1055E0002B4607460EF0E6FE69E74FF0FF3101203B
:1055F00001F0D8FB04F018FE804650201BF08CFC14
:1056000005230746019342462B46009431460EF08F
:10561000B1FD2F4B3B6052E730212C480CF0EEF9E6
:1056200030244FF0FF31012001F0BCFB04F0FCFD01
:10563000804650201BF070FC07467FE725480CF0A1
:10564000DDF9AF68002F7FF43BAF4FF0FF3103204F
:1056500001F0A8FB04F0E8FD30B11F480CF0CEF9D2
:10566000284604B0BDE8F0811C480CF0C7F952E7A9
:10567000322116480CF0C2F93224D2E738211348FF
:105680000CF0BCF94FF0FF31204601F08BFB04F029
:10569000CBFD804650201BF03FFC052438230746F5
:1056A000CDE9003442462B4631460EF063FD084BEF
:1056B0003B6004E7441803085418030874180308EF
:1056C000341903088418030898180308C418030839
:1056D00010180308B0180308D81803081419030891
:1056E0004C18030838B5104C23680BB1986838BDC6
:1056F0004FF0FF31012001F055FB04F095FD40B162
:105700000C201BF009FC0546FFF770FE2560A86819
:1057100038BD4FF0FF31032001F044FB04F084FD5D
:105720000028EDD138BD00BFDC03002008B501F032
:105730006BFCFBF795FEBDE8084001F0C5B900BF62
:1057400008B501F061FCFBF7FBFEBDE8084001F085
:10575000BBB900BF08B501F057FC18F0FBFDBDE870
:10576000084001F0B1B900BF08B501F04DFC19F0D7
:105770006FFBBDE8084001F0A7B900BF08B501F014
:1057800043FCFBF77DFEBDE8084001F09DB900BF7A
:1057900008B501F039FC19F00BF8BDE8084001F03C
:1057A00093B900BF08B501F02FFCFBF7E9F8BDE89D
:1057B000084001F089B900BF08B501F025FC18F0D8
:1057C0004DFFBDE8084001F07FB900BF70B5049EF1
:1057D00096420C4624DB15466BB9042A19D0022ADE
:1057E00002D110F0010310D001462A46204608F0ED
:1057F0006BFB002070BD10440D4410F8013D01F812
:10580000013B8D42F9D1002070BD02880A80184604
:1058100070BD10F00303E7D102680A60184670BD3E
:105820000846002109F0E2FC4FF0FF3070BD00BFD8
:105830000830704740B1002905DB43688B4202DD28
:105840000844007A70470020704700BF30B100293B
:1058500004DB43688B42C4BF40180272704700BF2C
:1058600040B1002905DB4368994202DA0844007A16
:1058700070470020704700BF830704D1030F0CBF9F
:105880000120002070470120704700BF30B100297F
:1058900004DB43689942BCBF40180272704700BFE6
:1058A000F8B5002B20DB00291EDB46688E421BDB8F
:1058B0005468761AE51AB542A8BF3546002D13DBA9
:1058C000824202F108070C4600F108062A4605D07C
:1058D000F918301908F0F8FA0020F8BDF118381955
:1058E0001BF04DFB0020F8BD4FF0FF30F8BD00BFAE
:1058F0004068704710B4141E10DB4268A2420DDBF2
:1059000033EA230328BF1346121B08309A4220446F
:10591000A8BF1A465DF8044B09F068BC5DF8044B5B
:10592000704700BF10B443688B4200F1080418466A
:10593000A8BF084632EA220128BF19461B1A99421D
:105940002044A8BF19465DF8044B00F0B5BE00BF67
:1059500070B5002BBCBF43689B1A002A0E4620DBA3
:1059600044689918A1421CDC91421ADBCBB136F095
:10597000004116D05942B14214DAB34212DD083068
:10598000002E00EB020515DB9C1B2246A9192846B8
:105990001BF0F5FA324628190021BDE8704009F0E5
:1059A00025BC70BD002211464FF0FF33BDE87040AA
:1059B000FFF7A0BF74429A19294628191BF0DFFA95
:1059C000224628460021BDE8704009F00FBC00BF08
:1059D00003460830596800F0EBBD00BF70B50546BE
:1059E00000206968490000F069FD6B68002B14DD38
:1059F0000A4EEB1D02465C782411991F345D9471A8
:105A00005C7804F00F04491B345DD4716C688C42DF
:105A100002F1020203F10103EDDC70BD4419030839
:105A2000002BBCBF43689B1A002A30DB70B445686A
:105A30009C18AC4229DC944227DB33B331F000449C
:105A400023D00029B8BF01EB032191FBF3F403FB42
:105A50001411002900F10800B8BFC918024411440C
:105A60008A42134411D00C4604E08A4204460FD007
:105A700094420AD02046157810F8016B02F8016BA9
:105A800083422570F1D10C46F2E770BC7047704735
:105A90000146EDE700B583B04FF0FF3300930023DC
:105AA000FFF7FEFE03B05DF804FB00BF10B50C1E4F
:105AB0000EDD4168083002F0CFF81F2C07DC01230F
:105AC000A34020FA04F4013B444004EA030010BD63
:105AD000002010BD0146002000F0EEBD38B50021C9
