:1000000000000220496A0100716A0100736A010060
:10001000756A0100776A0100796A0100000000003A
:100020000000000000000000000000007B6A0100EA
:100030007D6A0100000000007F6A0100816A010002
:10004000836A0100836A0100E9680100AD6801006C
:10005000C1680100836A010091590100A17001008B
:10006000856401008D64010095640100836A0100CC
:10007000836A0100836A0100836A0100836A0100C8
:10008000836A0100836A0100836A0100836A0100B8
:10009000836A0100836A0100836A0100836A0100A8
:1000A000836A0100836A01009D640100A564010068
:1000B000836A0100836A0100000000000000000064
:1000C000836A0100836A0100836A0100D568010028
:1000D000836A0100836A0100836A0100836A010068
:1000E0001169010000000000000000000000000095
:1000F00000000000836A010000000000FD680100AC
:1001000000000000000000000000000000000000EF
:1001100000000000000000000000000000000000DF
:1001200000000000000000000000000000000000CF
:1001300000000000000000000000000000000000BF
:1001400000000000000000000000000000000000AF
:10015000000000000000000000000000000000009F
:10016000000000000000000000000000000000008F
:10017000000000000000000000000000000000007F
:10018000000000000000000000000000000000006F
:10019000000000000000000000000000000000005F
:1001A000000000000000000000000000000000004F
:1001B000000000000000000000000000000000003F
:1001C000000000000000000000000000000000002F
:1001D000000000000000000000000000000000001F
:1001E000000000000000000000000000000000000F
:1001F00000000000000000000000000000000000FF
:100200007CB0EE877CB0EE87FF00FF00FF00FF00B0
:10021000FF00FF00FF00FF00FF00FF00FF00FF00E6
:10022000FF00FF00FF00FF00FF00FF00FF00FF00D6
:10023000FF00FF00FF00FF002DE9F04F85B00391A4
:100240000778A7F10903042B044607F07F0200F1A9
:100250000100F5D9202AF3D02B2F04BF677804467C
:100260002D2F75D09FED427B8DED007B4FF0000868
:100270004FF000099FB34FF0000C25464FF0000AE5
:10028000DFF8FCB0644619E019F0CAFC80468946E4
:10029000304619F05BFC42464B4619F00BFB5246C8
:1002A000804689465B46DDE900013CB319F0E2FD7A
:1002B000CDE90001A44615F8017F7FB1A7F1300612
:1002C000092E52465B4640464946DDD9CCB92E2F11
:1002D00017D115F8017F0124002FEFD12C4642469B
:1002E0004B46DDE9000119F09BFC80468946039BE3
:1002F000404649461C6005B0BDE8F08F4FF0010C48
:10030000D9E72C46BCF1000F29D042464B46DDE927
:10031000000119F085FC07F0DF07452F804689466C
:10032000E5D10399681C0A2219F0A8FA144902467B
:1003300000201AF025F802460B464046494619F0BF
:100340006FFC804689464046494605B0BDE8F08FBF
:100350009FED097B67788DED007B013486E7DFF840
:1003600024904FF000084046494605B0BDE8F08FA4
:10037000000000000000F03F000000000000F0BF9F
:10038000000024400000F87F2DE9F04700231446C8
:1003900000228046894619F0B5FE28B109F10043D4
:1003A00099462D23237001340022002340464946FC
:1003B00019F09EFE28B13022002322706370BDE840
:1003C000F0874046494617F09DFF19F0D9FE73A308
:1003D000D3E9002307464946404619F093FE00281A
:1003E0004ED170A3D3E900234046494619F0A8FE38
:1003F000002845D10E2F07F1010540F3B980A7F180
:100400000E0632460020624919F0BAFF02460B463A
:100410004046494619F02EFD00225E4B19F04AFA7B
:1004200019F0EAFF002DA7F10F0E4FF0010C4DDD82
:10043000594FDFF87881012245F6F3294FF02E0A53
:10044000494508BF40454FF030030AD3B0EB0800E0
:1004500061EB0901494508BF404503F10103F5D2AD
:10046000DBB2237050EA010304F101084AD195423E
:1004700052DD0132102A4FD0444677E90289DFE786
:10048000002F33DB3A460020414919F079FF02463C
:100490000B464046494619F0EDFC3BA3D3E9002347
:1004A00080468946012500264046494619F0B8FB9A
:1004B0000022384B19F0FEF919F09EFF002DBC46C2
:1004C0004FF0FF3E37464FF00006B1DC23463022A6
:1004D0004FF02E0803F8022B84F80180FC4345D02E
:1004E0001C4403F8012BA342FBD1A1E77A42002070
:1004F000274919F045FF02460B464046494619F088
:100500008FFBCAE7954202F1010204BF84F801A003
:1005100004F10208102AAFD16EB14246302102F830
:10052000011BC2F1010373444344002BF7DC2EEAA4
:10053000EE7301339844BCF1010F12D0BCF1000FEF
:100540004FF0650388F80030C5BF2B2388F80130D1
:1005500008F1010108F102016046BDE8F04710F022
:1005600009BD002388F80030BDE8F0871C465FE72E
:10057000C7F10E020020064919F002FF3E4602466E
:100580000B46012790E700BF0000901EC4BCD64276
:10059000000024400000E03F00AF01008DEDB5A059
:1005A000F7C6B03E50EFE2D6E41A4B4400407A1052
:1005B00070B54FF0FF3006F097FA04466FF07F40B9
:1005C00006F092FA0646204619F0B0FA00220C4BCB
:1005D00019F026FB044630460D4619F0A7FA06A38B
:1005E000D3E9002319F046FC02460B462046294673
:1005F00019F060F970BD00BF0000E0DFFFFF6F433E
:100600000000F03D000000002DE9F04F1D46138969
:10061000AB4288BF536885B004468CBF53F82500B1
:10062000002090468A4606F0D3FE0022904B19F037
:10063000F7FA19F0A5FDB8F808206B1C9A4288BF9C
:10064000D8F8042006468CBF52F82300002006F09C
:10065000BFFE0022864B19F0E3FA19F091FDB8F8BD
:1006600008300235AB4288BFD8F8043007468CBF4B
:1006700053F82500002006F0ABFE002EC4E9006709
:1006800040F3E280002F40F3DF8071A3D3E9002321
:10069000002584F8285017F057FD002200238046DB
:1006A000894619F02FFD40B14046494668A3D3E979
:1006B000002319F0FFF88046894667A3D3E9002399
:1006C0004046494619F03CFDC0B165A3D3E900237B
:1006D0004046494619F020FD80B101234046494675
:1006E00084F8283060A3D3E9002319F0E3F858A375
:1006F000D3E9002317F028FD8046894600225D4B90
:100700004046494619F08CFA17F052FA01F10043BD
:1007100000221946564B19F083FA19F031FD49466B
:100720000546404617F000FA0022514B19F078FABE
:1007300019F026FDDAF804304F49B3F80CB0B3F8DD
:100740000AA0A56007FB0BF303EB010806FB0AF602
:10075000019388FB05234FEA124C00960E444CEAA5
:10076000034C06EA010383FB009A06EB0C0E0EEA2B
:10077000010ED346CA468EFB00675246CDE902679A
:10078000120C42EA0B42DDE902AB0CEA010C8CFBD5
:1007900000674FEA164956460A40360C46EA0B46B1
:1007A00049EA074982FB05AB5F46C144B04456465F
:1007B000CDE90267039FE060360C09EA010908EA07
:1007C000010846EA074689FB05AB334488FB05561A
:1007D000CDE9025655462D0C45EA0B45DDE902AB45
:1007E0000B40AC4403EAE3770CEA010C554623EADC
:1007F000E37367454FEA154502EAE276A8BF67460C
:1008000045EA0B45634522EAE272B8BF6346AE444F
:100810004E450EEA010EA8BF4E464A45B8BF4A46AD
:100820007745A8BF77467345B8BF73464645A8BF0E
:100830004646C4E905634245B8BF4246009801995F
:10084000206261622761E261204605B0BDE8F08F59
:10085000EA2E4454FB211940F4D64354FB21F93FBE
:10086000320D337F7CD91240EA2E4454FB210940DB
:100870000000F0400000E03F0000FFFF000000002B
:100880002DE9F04F2DED028B044683B0C06819F0BE
:100890005DF980462069894619F058F982466069F9
:1008A0008B4619F053F9024601F1004306460F4604
:1008B0004046494617F0DAFB19F0AAFCE06205460B
:1008C00017F08CFA0190284617F03CFA019B054678
:1008D000184619F04DF942464B4619F0A1F98046E9
:1008E0002846894619F044F932463B4619F098F9F2
:1008F00002460B464046494618F0DAFF02460B46D0
:100900005046594617F0B2FB19F082FC002208EE5F
:10091000100A00233046394619F012FC28B3B5EE10
:10092000C08AF1EE10FA1CDD11A7D7E9006718EEB6
:10093000100A19F01DF902460B463046394618F0E8
:10094000B7FF32463B4618F0B5FF19F061FCA062D4
:10095000E38843F00203E38003B0BDEC028BBDE803
:10096000F08F05A7D7E90067E1E784ED0A8AEFE792
:10097000EA2E4454FB21F93FEA2E4454FB21F9BFEF
:1009800008B511F0EBFDDFED0C7A07EE100A67EE0B
:10099000277A17EE900A19F0EBF805A3D3E90023A4
:1009A00019F068FA19F0ECFB08BD00BFAFF3008046
:1009B000EA2E4454FB2119400000B443000000001B
:1009C00008B511F0DFFDDFED0C7A07EE100A67EED7
:1009D000277A17EE900A19F0CBF805A3D3E9002384
:1009E00019F048FA19F0CCFB08BD00BFAFF3008046
:1009F000EA2E4454FB2119400000B44300000000DB
:100A0000494A21F0004393422DE9704304460D46C4
:100A100049DC464A93420E460EDC3FA3D3E900234D
:100A200018F048FF0022424B19F08AFB00284AD0F8
:100A300020462946BDE870833E4A934239DCB3F133
:100A4000804F40DD17F06CF82246804689462B46E1
:100A50002046294619F0E4F80022354B18F02AFF09
:100A600017F0FAFE42464B4618F024FF02460B46AA
:100A700000202F4919F0FEF9424604460D464B4628
:100A80004046494618F016FF02460B4620462946C6
:100A900018F010FF02F040F8002E08DC01F10043CE
:100AA0001946BDE8708302460B4618F003FFBDE807
:100AB000708317F035F802F02FF819A3D3E900235B
:100AC00018F0F8FEE8E722462B462046294619F0A2
:100AD000A7F8804689462046294617F021F80022CB
:100AE00004460D46124B4046494618F0E3FE17F007
:100AF000B3FE00220E4B18F0DDFE02460B464046C8
:100B0000494619F0B7F922462B4618F0D3FE00F0FB
:100B1000A7FAC1E7AFF300809C7500883CE4377EFC
:100B2000EF39FAFE422EE63FFFFFEF7FFFFF2F3E39
:100B30000000F03F0000B0412DE9F84FBE4B21F01E
:100B400000469E4204460D468A460EDDBB4B9E4241
:100B500000F3B18000F0AC80BAF1000F40F3EA80FE
:100B600099A1D1E90001BDE8F88FB54B9E4200F391
:100B7000BA80A3F1DE739E4240F3A5804FF0FF3BA5
:100B800022462B462046294619F04AF802460B46D3
:100B90008046894619F044F88DA3D3E90023064620
:100BA0000F4619F03DF88CA3D3E9002318F082FE1C
:100BB00032463B4619F034F889A3D3E9002318F0F4
:100BC00079FE32463B4619F02BF887A3D3E9002380
:100BD00018F070FE32463B4619F022F884A3D3E9A0
:100BE000002318F067FE32463B4619F019F882A33D
:100BF000D3E9002318F05EFE42464B4619F010F888
:100C00007FA3D3E90023804689463046394619F050
:100C100007F87DA3D3E9002318F04AFE32463B468D
:100C200018F0FEFF7AA3D3E9002318F041FE324604
:100C30003B4618F0F5FF78A3D3E9002318F038FEFF
:100C400032463B4618F0ECFF75A3D3E9002318F0B9
:100C50002FFE32463B4618F0E3FF02460B46404665
:100C6000494618F027FE22462B4618F0D9FFBBF163
:100C7000FF3F02460B4661D0724B734E4FEACB0BDF
:100C80005B44D3E9002318F013FE22462B4618F0EC
:100C90000FFEB34402460B46DBE9000118F008FEE4
:100CA000BAF1000F0DDA01F100431946BDE8F88FE3
:100CB00000283FF451AF22462B462046294618F023
:100CC000F9FDBDE8F88F58A3D3E9002318F0F2FD31
:100CD00000225E4B19F034FA00283FF44FAF204653
:100CE0002946BDE8F88F16F01BFF594B9E4204467B
:100CF0000D4629DCA3F550239E424EDC02460B46EE
:100D000018F0D8FD0022514B18F0D2FD0022064603
:100D10000F464FF080432046294618F0CBFD02468F
:100D20000B463046394619F0A5F84FF0000B044643
:100D30000D4625E73EA1D1E90001C2E7204629463C
:100D400018F0B6FDBDE8F88F424B9E421ADC002237
:100D5000414B18F0ADFD002206460F463E4B2046A3
:100D6000294618F05DFF0022384B18F0A3FD02461B
:100D70000B463046394619F07DF84FF0020B044619
:100D80000D46FDE602460B460020344919F072F884
:100D90004FF0030B04460D46F2E600222B4B18F0F1
:100DA00087FD002206460F46284B2046294618F0AC
:100DB00081FD02460B463046394619F05BF84FF08C
:100DC000010B04460D46DBE6182D4454FB21F93F88
:100DD00011DA22E33AAD903FEB0D76244B7BA93F2D
:100DE000513DD0A0660DB13F6E204CC5CD45B73FFB
:100DF000FF8300922449C23F0D5555555555D53FA7
:100E00002F6C6A2C44B4A2BF9AFDDE522DDEAD3F9A
:100E10006D9A74AFF2B0B33F711623FEC671BC3F3A
:100E2000C4EB98999999C93F9C7500883CE4377E3A
:100E3000182D4454FB21F9BFFFFF0F440000F07F41
:100E4000FFFFDB3F28AF010008AF01000000F03FCB
:100E5000FFFFF23FFF7F03400000F83F0000F0BFBC
:100E60002DE9F041C1F30A57A7F2FF35132D0246D1
:100E70000B460C468846064620DC002D4ADB364FE2
:100E80002F4101EA070C5CEA000C1CD030A3D3E927
:100E9000002318F00FFD0022002319F051F948B18A
:100EA000002C04DD4FF4801343FA05F5A84428EA2A
:100EB0000704002621463046BDE8F081332D06DDCB
:100EC000B5F5806F38D010461946BDE8F081A7F21D
:100ED00013474FF0FF3C2CFA07F70742F3D01CA34F
:100EE000D3E9002318F0E6FC0022002319F028F9CA
:100EF0000028DFD0002C09DD142D22D00123C5F1FC
:100F0000340503FA05F5AE1928BF984426EA07060A
:100F10004446CFE70EA3D3E9002318F0CBFC002210
:100F2000002319F00DF90028C4D0002C0CDB264357
:100F300005D00026094CBDE718F0BCFCC5E73446D7
:100F4000B8E704F10108E1E700264FF00044B1E7FB
:100F50009C7500883CE4377EFFFF0F000000F03FE7
:100F60002DE9F041C1F30A57A7F2FF35132D0246D0
:100F70000B460C46884606461DDC002D3CDB364FF2
:100F80002F4101EA070C5CEA000C19D030A3D3E929
:100F9000002318F08FFC0022002319F0D1F8C8B309
:100FA000002C04DA4FF4801343FA05F5A84428EA2C
:100FB000070400262EE0332D06DDB5F5806F2DD019
:100FC00010461946BDE8F081A7F213474FF0FF3CE9
:100FD0002CFA07F70742F3D01DA3D3E9002318F03A
:100FE00069FC0022002319F0ABF898B1002C21DB3A
:100FF00026EA070644460DE015A3D3E9002318F0BE
:1010000059FC0022002319F09BF818B1002C08DBD2
:101010000026344621463046BDE8F08118F04AFCEF
:10102000D0E724F000430D4A1E43002E18BF14469B
:101030000026EFE7142D08D00123C5F1340503FA8B
:1010400005F5AE1928BF9844D2E704F10108CFE7AF
:101050009C7500883CE4377EFFFF0F000000F0BF66
:101060002DE9F04FD84B994287B08046894643DD41
:10107000D64B99420E4600F3F480D54B994240F38B
:101080002D819FEDBB7B8DED047B4FEA215A0446F9
:10109000AAF2FF3ACF4BC6F313069E4246F07F55A5
:1010A00000F3128145F44015204629460022CA4B20
:1010B00018F0FEFB002204460D46C84B18F0B0FDA8
:1010C00022462B4618F0ACFDA046CDE90201A94608
:1010D000CDE90001002E3AD1002200232046294606
:1010E00019F006F8002800F01B81BAF1000F40F05B
:1010F000858100200021B8E0B94B21F000449C42DA
:101100000A460FDD0022B74B18F0F2FF002800F06E
:10111000AF80002200230020B34918F0ABFE07B0D7
:10112000BDE8F08FB14B9C4240F3AF80B04B1A4406
:101130009A4240F2D3800022A84B18F071FD42463B
:101140004B4618F06DFDCDE900014FF0000A00227A
:101150004FF080434046494618F0ACFB02460B4630
:101160004046494618F086FE02460B4606460F46A4
:1011700018F056FD80A3D3E9002304460D4618F06D
:101180004FFD7FA3D3E9002318F094FB22462B46A2
:1011900018F046FD7CA3D3E9002318F08BFB224610
:1011A0002B4618F03DFD7AA3D3E9002318F082FB0B
:1011B00022462B4618F034FD77A3D3E9002318F01C
:1011C00079FB22462B4618F02BFD75A3D3E90023AB
:1011D00018F070FB22462B4618F022FD72A3D3E9CB
:1011E000002318F067FB22462B4618F019FDDDE9B5
:1011F000002318F05FFB32463B4618F011FD044611
:101200000D46BAF1000F00F0A880504618F09EFC81
:1012100067A3D3E9002382468B4618F001FD66A33D
:10122000D3E9002306460F465046594618F0F8FC0D
:10123000DDE9042318F03EFB22462B4618F03AFB6A
:1012400002460B46DDE9000118F032FB42464B46F0
:1012500018F02EFB02460B463046394618F028FBA4
:1012600003E002460B4618F025FB07B0BDE8F08FFF
:1012700042464B464046494618F01AFB02460B468A
:1012800018F0F8FD07B0BDE8F08F0022594B18F0B8
:1012900011FB0022002318F053FF10B1564B9C4263
:1012A00062DD42464B464046494618F0B9FC0022F2
:1012B0004A4B18F0B5FC02460B464046494618F02A
:1012C000F7FA07B0BDE8F08F45F40015C6F58016B3
:1012D00020462946B6100AF1010AE7E600223E4BF5
:1012E0004046494618F0E6FA4FEA215AAAF2FF3A78
:1012F000BAF1000F04460D460E4640F3BD8042464B
:101300004B4618F0D5FA02460B460020324918F039
:10131000CFFA22462B4618F0ADFDCDE90401B9E61F
:1013200027A3D3E900232046294618F079FC02467A
:101330000B460020284918F0BBFADDE9022318F01B
:101340006FFC06460F46BAF1000F75D102460B46F8
:101350002046294618F0ACFA87E702460B46DDE93D
:10136000000118F0A5FAA6E7404649467DE700BF10
:10137000000000000000000044523EDF12F1C23FB6
:101380009FC678D0099AC33FDE03CB966446C73F19
:10139000AF788E1DC571CC3F599322942449D23F1A
:1013A00004FA97999999D93F935555555555E53F65
:1013B0000000E0FE422EE63F763C7935EF39EA3D0B
:1013C000555555555555E53F7982DA3FFFFFEF7F7B
:1013D000FFFF3F439DA006000000F03F0000E03FFC
:1013E000FFFFEF3F0000F0BF000050C3FFFF1F3EB4
:1013F0003C412D4000005043FFFF8F3C504618F009
:10140000A5FB24A3D3E9002306460F4618F008FCE9
:10141000DDE9042318F04EFA20A3D3E900230446A3
:101420000D463046394618F0FBFB02460B46204677
:10143000294618F03FFA18E7504618F087FB17A323
:10144000D3E9002382468B4618F0EAFB11A3D3E9C7
:101450000023804689465046594618F0E1FBDDE9F5
:10146000042318F027FA02460B463046394618F096
:101470001FFA22462B4674E70022054B18F018FA93
:1014800002460B464046494618F012FA41E700BFB3
:101490000000F03F763C7935EF39EA3D0000E0FE90
:1014A000422EE63F0000000008B516F0ADFE04A392
:1014B000D3E9002318F0DEFC08BD00BFAFF30080C5
:1014C000EF39FAFE422EE63F2DE9F043DFF8B48013
:1014D0008BB004460D4601F0F7F898F9003001335F
:1014E00006460F462CD022462B462046294618F0A9
:1014F00031FE814620BB2046294616F011FB1FA372
:10150000D3E9002318F01CFED0B1194A98F9003035
:10151000CDF820900321CDE90445CDE90245CDE980
:10152000001293B113490020022BCDE9060111D11D
:1015300018F04CF922230360089B9BB9DDE906678C
:10154000304639460BB0BDE8F0830B4B4FF060429C
:10155000CDE90623684617F0B5FF0028E8D0089BC0
:10156000002BEBD018F032F9089B0360E6E700BFD0
:1015700070C101000000F07FFFFFEF477DF8B98FD9
:10158000CE338640FB0100202DE9F043DFF8E480F4
:101590008BB004460D4601F047F998F9003001334D
:1015A00006460F4633D02046294617F085FF70B314
:1015B0002CA3D3E900232046294618F0C1FD81461B
:1015C00050BB2AA3D3E900232046294618F09AFDF0
:1015D000E8B198F90030204ACDF820900020002191
:1015E0000426022BCDE90445CDE902450096CDE95C
:1015F0000601019229D0684617F064FF28B3089BC2
:101600001BB118F0E3F8089B0360DDE9066730467C
:1016100039460BB0BDE8F0830F4A98F900300192CB
:1016200003210022CDE90445CDE90245009108924D
:101630002BB90A4B4FF06042CDE90623DBE708499E
:101640000020022BCDE90601D5D118F0BFF82223E6
:101650000360D4E7AFF3008078C10100FFFFEF47DC
:101660000000F07FEF39FAFE422E864051302DD532
:10167000104987C0FB0100202DE9F04FDFF82C93C3
:101680008DB006460F4614461D4601F09DFC99F9A3
:101690000080B8F1FF3FCDE9000136D022462B464D
:1016A0002046294618F056FD834670BB32463B461D
:1016B0003046394618F04EFD8246002840F0A280A0
:1016C000304639460022002318F012FD10B30022E4
:1016D00000232046294618F00BFD8346002867D0DA
:1016E0009FEDA77B0122AC4BCDF828A00292CDE95B
:1016F0000467CDE906458DED087B0393B8F1000F33
:1017000041D09FEDA17B8DED007BDDE900010DB0A7
:10171000BDE8F08FDDE9000117F0CEFE804600281D
:1017200000F08D804FF0000A4FF0000BDDE9000162
:1017300052465B4618F0DCFC0028E6D030463946BD
:1017400017F0BAFE0028E0D02046294617F0B4FE74
:101750000028DAD099F900308F4A03920421002240
:10176000022BCDE90467CDE90645CDE908AB02912E
:101770000A9203D002A817F0A5FE50B918F026F877
:101780002223036005E002A817F09CFE002800F069
:101790009B800A9B1BB118F019F80A9B03609DED12
:1017A000087B8DED007BDDE900010DB0BDE8F08F19
:1017B0002046294617F080FE0028A6D000220023EC
:1017C0002046294618F09EFC00289ED0724A99F9BE
:1017D0000030CDF828B00121CDE90467CDE90645F8
:1017E000CDE90212002B74D06C490020022BCDE908
:1017F000080172D117F0EAFF212303600A9B002B36
:10180000CDD0C8E7002200232046294618F070FCFE
:1018100000283FF47AAF624B5F49CDF828B0002230
:101820000120B8F1020FCDE904670290CDE9064529
:10183000CDE908230391A6D1CDE9002365E7304621
:10184000394617F039FE00283FF46CAF2046294690
:1018500017F032FE00283FF465AFDDE900231046A3
:10186000194618F077FC99F900A000286BD10323E2
:10187000DFF824C10A902946204602930022494BF2
:10188000CDF80CC0CDE90645CDE9046718F0C8F9DC
:1018900004460D46BAF1000F25D1DFF814B14FF020
:1018A000604A0022002330463946CDE908AB18F0E3
:1018B00029FC38BB02A817F005FE00289ED117F0BE
:1018C00085FF2223036099E717F080FF212303603F
:1018D0005FE79FED2B7B8DED087B02A817F0F2FDF3
:1018E00000288BD186E79FED2A7B0022002330461B
:1018F00039468DED087B18F005FCA0B9BAF1020F4E
:10190000DDD0D7E72046294617F0E4FD22462B46D6
:1019100018F0EEFBA0B9244B99F900A04FF06042FB
:10192000CDE90823EAE72046294617F0D3FD2246F1
:101930002B4618F0DDFB18B9184B0022CDE908231F
:1019400099F900A0DAE70122134BCDF82880029222
:10195000CDE90467CDE906450393BAF1000FB8D08D
:10196000002200231046194618F084FABAF1020F3B
:10197000CDE908013FF43EAFAFE700BFAFF3008011
:101980000000000000000000000000000000F03F28
:10199000000000000000F07F90C101000000F0FF97
:1019A0000000F03F0000E03FFFFFEFC7FB01002019
:1019B000FFFFEF47000000002DE9F84FC44E21F073
:1019C0000043B34204460D460DDD03F1404303F5E9
:1019D0008013034340F0B980002940F34081002088
:1019E0000021BDE8F88FBB4EB34208DCBA4A9342EF
:1019F00000F3B5809CA1D1E90001BDE8F88F002972
:101A0000C0F2708102460B460020B44917F050FF27
:101A10000022B34B18F004F904460D4616F01CFFE3
:101A200093A3D3E90023894680462946204618F02F
:101A3000F7F891A3D3E9002317F03CFF22462B4689
:101A400018F0EEF88EA3D3E9002317F031FF2246F9
:101A50002B4618F0E5F88CA3D3E9002317F02AFFF2
:101A600022462B4618F0DCF889A3D3E9002317F0AF
:101A70001FFF22462B4618F0D3F887A3D3E9002393
:101A800017F018FF22462B4618F0CAF884A3D3E9B2
:101A9000002382468B462046294618F0C1F882A3CF
:101AA000D3E9002317F004FF22462B4618F0B8F8BC
:101AB0007FA3D3E9002317F0FDFE22462B4618F042
:101AC000AFF87DA3D3E9002317F0F2FE22462B46A0
:101AD00018F0A6F80022814B17F0ECFE02460B46E8
:101AE0005046594618F0C6F942464B4618F098F849
:101AF000002682468B4632464B463046494618F011
:101B00008FF802460B462046294617F0D1FE324692
:101B100004460D464B464046494617F0CBFE02466A
:101B20000B462046294618F0A5F902460B465046BA
:101B3000594617F0BFFE32464B4617F0BBFE024631
:101B40000B4617F0B7FEBDE8F88F02460B4617F0BC
:101B5000AFFE02460B4618F08DF9BDE8F88F02463D
:101B60000B4618F05DF842A3D3E9002306460F4662
:101B700018F056F840A3D3E9002317F09BFE324635
:101B80003B4618F04DF83EA3D3E9002317F090FE32
:101B900032463B4618F044F83BA3D3E9002317F044
:101BA00089FE32463B4618F03BF839A3D3E90023BF
:101BB00017F07EFE32463B4618F032F836A3D3E9E2
:101BC000002317F077FE32463B4618F029F834A37D
:101BD000D3E90023804689463046394618F020F87C
:101BE00031A3D3E9002317F063FE32463B4618F0D9
:101BF00017F82FA3D3E9002317F05CFE32463B46CB
:101C000018F00EF82CA3D3E9002317F051FE32464A
:101C10003B4618F005F80022304B17F04BFE024609
:101C20000B464046494618F025F922462B4617F048
:101C3000F7FF02460B4622A1D1E9000117F038FE5A
:101C400002460B462046294617F032FE02460B4656
:101C500005A1D1E9000117F02BFEBDE8F88F1AA10C
:101C6000D1E9000179E700BF182D4454FB21F93F69
:101C700009F7FD0DE13D023F88B20175E0EF493FF4
:101C80003B8F68B52882A43F5544880E55C1C93F93
:101C90007D6FEB0312D6D43F555555555555C53F6D
:101CA00082922EB1C5B8B33F59018D1B6C06E63F39
:101CB000C88A599CE52A00404B2D8A1C273A0340CC
:101CC000075C143326A6913C182D4454FB2109408F
:101CD000FFFFEF3FFFFFDF3F0000603C0000F03FF1
:101CE0000000E03F00225C4B17F0E4FD00225B4B5C
:101CF00017F096FF40A3D3E9002304460D4617F0E2
:101D00008FFF3FA3D3E9002317F0D4FD22462B46D3
:101D100017F086FF3CA3D3E9002317F0C9FD224644
:101D20002B4617F07DFF3AA3D3E9002317F0C2FD3D
:101D300022462B4617F074FF37A3D3E9002317F090
:101D4000B7FD22462B4617F06BFF35A3D3E90023DE
:101D500017F0B0FD22462B4617F062FF80468946F9
:101D60002046294616F078FD2FA3D3E90023064626
:101D70000F462046294617F053FF2DA3D3E9002331
:101D800017F096FD22462B4617F04AFF2AA3D3E907
:101D9000002317F08FFD22462B4617F041FF28A3A2
:101DA000D3E9002317F084FD22462B4617F038FFB5
:101DB0000022294B17F07EFD02460B46404649465D
:101DC00018F058F832463B4617F02AFF1EA3D3E915
:101DD000002317F06DFD32463B4617F06BFD0246BF
:101DE0000B4617F067FD02460B4619A1D1E9000129
:101DF00017F05EFDB1E600BF09F7FD0DE13D023FC2
:101E000088B20175E0EF493F3B8F68B52882A43F57
:101E10005544880E55C1C93F7D6FEB0312D6D43FA0
:101E2000555555555555C53F82922EB1C5B8B33F4E
:101E300059018D1B6C06E63FC88A599CE52A004073
:101E40004B2D8A1C273A0340075C143326A6913C8D
:101E5000182D4454FB2109400000F03F0000E03FF2
:101E6000414A91422DE9F84304460D4637DD3F4A89
:101E700091420B4608DD02F1795291423DDD024666
:101E800017F018FDBDE8F88301F1404202F5801219
:101E900002432ED0B1F1804F37DC0022344B17F0D3
:101EA00007FD02460B4604460D4617F003FD224689
:101EB00006460F462B462046294617F0B1FE02463D
:101EC0000B463046394617F0F5FC16F0C5FC2246A5
:101ED0002B4617F0EFFCBDE8F843FFF7C1B8024608
:101EE0000B4617F0E5FC02460B4617F0C3FFBDE8B2
:101EF000F88300200021BDE8F88300F00DFE18A350
:101F0000D3E9002317F0D6FCF1E7024617F088FE6C
:101F10000022174B17F0CCFC16F09EFC22468046A0
:101F200089462B462046294617F0C4FC2246064621
:101F30000F462B464046494617F0BCFC02460B466E
:101F400000200B4917F096FF0B46024639463046F3
:101F500017F0AEFCBDE8F84300F0DEBDAFF3008043
:101F6000EF39FAFE422EE63FFFFFEF3FFFFFAF41A2
:101F70000000F03F000000002DE9F04FAE4B21F0D3
:101F800000479F4287B004460D4611DD07F14047E8
:101F900007F5801703463B4321D002460B4617F056
:101FA00087FC02460B4617F065FF07B0BDE8F08FCF
:101FB000A24B9F420E4629DCB7F1795F80F2468141
:101FC00081A3D3E9002317F075FC00229C4B18F085
:101FD000B7F8D8B12046294607B0BDE8F08F7CA3FA
:101FE000D3E9002317F01CFE7BA3D3E900230646A8
:101FF0000F462046294617F013FE02460B46304690
:10200000394617F057FC07B0BDE8F08F2046294647
:1020100015F086FD02460B460020894917F048FC62
:102020000022884B17F0FCFD6DA3D3E90023044682
:102030000D4617F0F5FD6CA3D3E9002317F03AFC29
:1020400022462B4617F0ECFD69A3D3E9002317F0D5
:102050002FFC22462B4617F0E3FD67A3D3E90023AC
:1020600017F028FC22462B4617F0DAFD64A3D3E9CB
:10207000002317F01DFC22462B4617F0D1FD62A36A
:10208000D3E9002317F016FC22462B4617F0C8FDB3
:102090005FA3D3E90023CDE900012046294617F0CC
:1020A000BFFD5DA3D3E9002317F002FC22462B46B7
:1020B00017F0B6FD5AA3D3E9002317F0FBFB224625
:1020C0002B4617F0ADFD58A3D3E9002317F0F0FB22
:1020D00022462B4617F0A4FD594B002217F0EAFBCD
:1020E00082468B4620462946CDE902AB16F0B4FB6A
:1020F000554B9F428046894600F3198102460B46A4
:1021000017F0D8FBDDE90223CDE90401DDE9000188
:1021100017F0B0FE02460B46DDE9040117F080FD22
:102120004FF0000ACDE9000152464B465046494661
:1021300017F076FD02460B462046294617F0B8FBFD
:10214000524604460D464B464046494617F0B2FB00
:1021500002460B462046294617F08CFE02460B46E7
:1021600017F0A8FB02460B461BA1D1E9000117F0AE
:102170009FFB02460B46DDE9000117F099FB524632
:1021800004460D464B465046494617F093FB02461F
:102190000B4627A1D1E9000117F08AFB02460B4646
:1021A0002046294617F084FB02460B4620A1D1E9C0
:1021B000000117F07DFB002E3FF7F7AE01F1004361
:1021C0001946F2E6AFF300809C7500883CE4377E48
:1021D000182D4454FB21F93F075C143326A6913C8B
:1021E00009F7FD0DE13D023F88B20175E0EF493F7F
:1021F0003B8F68B52882A43F5544880E55C1C93F1E
:102200007D6FEB0312D6D43F555555555555C53FF7
:1022100082922EB1C5B8B33F59018D1B6C06E63FC3
:10222000C88A599CE52A00404B2D8A1C273A034056
:10223000182D4454FB21E93FFFFFEF3FFFFFDF3F35
:102240000000F03F0000E03F3233EF3F02460B4614
:1022500017F0E6FC4BA3D3E9002306460F4617F020
:10226000DFFC4AA3D3E9002317F024FB32463B46A8
:1022700017F0D6FC47A3D3E9002317F019FB324629
:102280003B4617F0CDFC45A3D3E9002317F012FB22
:1022900032463B4617F0C4FC42A3D3E9002317F0B3
:1022A00007FB32463B4617F0BBFC40A3D3E90023B3
:1022B00017F000FB32463B4617F0B2FC3DA3D3E9D2
:1022C0000023804689463046394617F0A9FC3BA3D7
:1022D000D3E9002317F0ECFA32463B4617F0A0FC96
:1022E00038A3D3E9002317F0E5FA32463B4617F04E
:1022F00097FC36A3D3E9002317F0DAFA32463B46BF
:1023000017F08EFC00221E4B17F0D4FA02460B4643
:102310004046494617F0AEFD22462B4617F080FC9A
:1023200022462B4617F0C6FA07B0BDE8F08F52469A
:102330005B46DDE9000117F09DFD42464B4617F074
:102340006FFC42464B4617F0B5FA02460B4617F0B3
:10235000B1FA07A3D3E9002317F0AAFA02460B4605
:1023600005A1D1E9000117F0A3FA24E7AFF300803B
:10237000075C143326A6913C182D4454FB21F93FE9
:102380000000F03F09F7FD0DE13D023F88B2017505
:10239000E0EF493F3B8F68B52882A43F5544880E43
:1023A00055C1C93F7D6FEB0312D6D43F55555555E6
:1023B0005555C53F82922EB1C5B8B33F59018D1B0B
:1023C0006C06E63FC88A599CE52A00404B2D8A1CC2
:1023D000273A0340000000002DE9F84F1D46534204
:1023E000134325F00049DFF8C8C149EAD3736345B8
:1023F000144606460F4626D8C0F1000848EA0008F1
:1024000021F0004A4AEAD878E04503468B461AD8BC
:1024100005F1404808F5801858EA0208AE4643D056
:102420004FEAA57808F002085AEA030348EAD1788F
:1024300011D1B8F1020F55D0B8F1030F09D14AA15B
:10244000D1E9000105E032463B462046294617F017
:1024500031FABDE8F88F59EA020329D0E1452ED0C0
:10246000E24525D0AAEB09094FEA2959B9F13C0FF9
:102470003CDC002D3EDA19F13C0F3BDA0020002154
:10248000B8F1010F4ED0B8F1020F3ED0B8F1000FF5
:10249000DFD037A3D3E9002317F00AFA36A3D3E934
:1024A000002317F005FAD4E7BDE8F84FFEF744BB68
:1024B000BBF1000F12DB32A1D1E90001C9E7CA4527
:1024C00034D0B8F1020F0DD0B8F1030FB7D0B8F186
:1024D000010F4FF0000036D00021BAE72AA1D1E960
:1024E0000001B6E724A1D1E90001B2E724A1D1E9B6
:1024F0000001C5E722462B463046394617F0BAFCA4
:1025000015F00EFBFEF718FBBAE719A3D3E9002379
:1025100017F0CEF902460B4617A1D1E9000117F0DA
:10252000C7F996E701F10043194692E7B8F1020FA7
:1025300014D0B8F1030F0DD0B8F1010F06D014A1DB
:10254000D1E9000185E74FF0004182E712A1D1E90E
:1025500000017EE712A1D1E900017AE712A1D1E9D9
:10256000000176E7AFF30080182D4454FB2109C029
:10257000075C143326A6A13C182D4454FB210940C6
:10258000182D4454FB21F93F182D4454FB21F9BF69
:10259000182D4454FB21E93F182D4454FB21E9BF79
:1025A000D221337F7CD902C0D221337F7CD9024033
:1025B0000000F07F0000000043422DE9F047034394
:1025C00021F000463C4A46EAD373934204460D4646
:1025D0002AD8964240D0394B9E428A462EDD384B4F
:1025E0009E4235463FDD33460246314617F062F9DA
:1025F000224606460F462B4600202F4917F058F971
:1026000002460B463046394617F034FCFEF728FDEB
:1026100000222C4B17F004FBBAF1000F0CDA01F189
:1026200000431946BDE8F08702460B4617F040F913
:1026300002460B4617F01EFCBDE8F0871CA3D3E949
:10264000002317F037F90022002317F079FD48B175
:1026500020462946BDE8F0870022002317F00AFC37
:10266000BDE8F087354622462B462046294617F01E
:1026700021F922462B4606460F4617F0D1FA22468C
:10268000804689462B4600200B4917F011F9024677
:102690000B464046494617F0EDFB32463B4617F0E5
:1026A00009F9FEF7DDFC0022064B17F0B9FAB3E793
:1026B0009C7500883CE4377E0000F03FFFFF2F3E12
:1026C000FFFFDF3F0000E03F2DE9F8434E4B21F0D4
:1026D00000449C4206460F461BDC4C4B9C4222DDCC
:1026E0004B4B9C4254DD4B4B9C4246DD4A4B9C423B
:1026F0006FDD01339C4269D041A3D3E9002310462A
:10270000194617F08DFA06460F4630463946BDE8A1
:10271000F88302460B4617F083FA06460F4630460A
:102720003946BDE8F88315F0FBF902F04DFC0022B4
:102730003A4B8046894617F0BDF8B4F1725F064601
:102740000F46ECDB42464B464046494617F068FAD6
:1027500032463B4604460D463046394617F0AAF845
:1027600002460B462046294617F084FB00222B4BDD
:1027700017F0A0F806460F46D1E715F0D1F900F0A2
:1027800053F80022264B17F04BFA06460F46C6E7D1
:1027900015F0C6F900F048F80022214B06460F4616
:1027A00017F03EFA324604460D463B4600201C49CF
:1027B00017F060FB02460B462046294617F07AF8D0
:1027C00006460F4630463946BDE8F883154B984219
:1027D00092D83046394615F0A3F90022104B17F075
:1027E0001FFA00F021F8002204460D460C4B17F0AA
:1027F00017FA22462B4617F013FA06460F468EE7C5
:102800009C7500883CE4377EFFFFEF7F422ED63F69
:10281000FFFF3540412E8640CD3386400000F03F1B
:102820000000E03F7DF8B98F2DE9F047B04F21F06F
:102830000042BA4284B004460D464FEAD17610D920
:10284000AC4FBA4240F28A80C1F3130303430246FD
:1028500040F0F180002E7ED00020002104B0BDE8C1
:10286000F087A54B9A4200F2B680A44B9A4240F200
:10287000D1804FF0000A22462B462046294617F009
:10288000CFF985A3D3E9002306460F4617F0C8F910
:1028900083A3D3E9002317F00BF832463B4617F029
:1028A000BFF981A3D3E9002317F004F832463B4671
:1028B00017F0B6F97EA3D3E9002316F0F9FF3246EC
:1028C0003B4617F0ADF97CA3D3E9002316F0F2FFE5
:1028D00032463B4617F0A4F902460B4620462946ED
:1028E00016F0E6FF02460B4606460F4620462946EE
:1028F00017F096F980468946BAF1000F00F0AB80D8
:1029000032463B4600204FF0804116F0D1FF024690
:102910000B464046494617F0ADFA02460B46DDE944
:10292000020116F0C5FFDDE9002316F0C1FF0B46DA
:1029300002467349002016F0BBFF6FF47F739A457F
:1029400080F2A3800AF57A7A01EB0A5100224FF057
:10295000B87317F065F904B0BDE8F08758A3D3E960
:10296000002317F0EDFB00286BD157A3D3E9002318
:102970002046294617F0C6FB00287FF46DAF614959
:1029800053A3D3E9002301EBC6062046294617F0DE
:1029900047F9D6E9002316F08DFF17F0F1FB8246C8
:1029A00017F0D4F84CA3D3E9002306460F4617F0DE
:1029B00037F902460B462046294616F079FF48A310
:1029C000D3E90023CDE900013046394617F028F954
:1029D000CDE9020115E04C4B9A42D0D84B4BF400A4
:1029E0002344D3E9002316F063FF494B234493EDBE
:1029F000007BCDE900018DED027BC6F1010AAAEB57
:102A0000060ADDE90223DDE9000116F051FF044664
:102A10000D4630E734A3D3E9002316F04BFF002224
:102A2000374B17F08DFBA8B3204629460022344BC4
:102A300016F040FF8FE70B4616F03CFF04B0BDE8F0
:102A4000F08729A3D3E900231046194617F0E8F8C8
:102A500004B0BDE8F0873046394600224FF080438D
:102A600016F026FF02460B464046494617F002FA8A
:102A700022462B4616F01CFF02460B46002020493A
:102A800016F016FF04B0BDE8F08701EB0A5104B060
:102A9000BDE8F0878246EEE6D0A4BE726937663E96
:102AA000F16BD2C541BDBB3E2CDE25AF6A56113F4E
:102AB00093BDBE166CC1663F3E5555555555C53F35
:102AC000EF39FAFE422E864051302DD5104987C08D
:102AD000FE822B654715F73F0000E0FE422EE63FE1
:102AE000763C7935EF39EA3D9C7500883CE4377EC9
:102AF000412E8640FFFFEF7F422ED63FFFFF2F3E45
:102B00000000F03F48AF0100B1A2F03F58AF010014
:102B100068AF0100000000002DE9F04FB1F5801F03
:102B200085B006460F460B4680F2D08021F0004269
:102B3000024300F0DA800029C0F2E9800022D64B7F
:102B400017F06EF8D54A0B46934206460F466FF0D3
:102B5000350E00F3C180C3F3130505F5152C0CF6F3
:102B6000647C0CF4801C8CF07F5282F440121C15A3
:102B700042EA0507A4F2FF3474440022C84B3046F1
:102B8000394604EB1C5416F093FEAB1CC3F313033D
:102B9000022B82468B464FF0000240F3AF804FF08D
:102BA000804316F087FE02460B465046594617F002
:102BB00061F9064620460F4616F0C8FF3246CDE9B9
:102BC00002013B4630463946CDE9006717F028F848
:102BD00002460B468046894617F022F89AA3D3E9AD
:102BE000002306460F4617F01BF899A3D3E90023EC
:102BF00016F060FE32463B4617F012F896A3D3E972
:102C0000002316F057FE32463B4617F009F894A30E
:102C1000D3E9002316F04EFE42464B4617F000F86B
:102C200091A3D3E90023804689463046394616F001
:102C3000F7FF8FA3D3E9002316F03CFE32463B4654
:102C400016F0EEFF8CA3D3E9002316F033FE3246D4
:102C50003B4616F0E5FF0B4602464946404616F055
:102C600029FEA5F5C223C5F5D725A3F27A43513530
:102C70001D43002D06460F4640F387800022894BF6
:102C80005046594616F0CCFF52465B4616F0C8FF38
:102C900002460B46804689463046394616F00AFE03
:102CA000DDE9002316F0BCFF06460F46002C40F07D
:102CB000818002460B464046494616F0F9FD024621
:102CC0000B465046594616F0F3FD0BE0734A93420B
:102CD0004FF0000E7FF73FAF32463B463046394655
:102CE00016F0E8FD05B0BDE8F08F002200230020BB
:102CF0006D4917F0BFF805B0BDE8F08F002317F05D
:102D0000F7F960B1002C7CD100200021EAE70246EF
:102D100016F0CEFD0022002317F0ACF8E2E758A32E
:102D2000D3E900235046594616F07AFF02460B4677
:102D300000205C4916F0BCFD524606460F465B4635
:102D40005046594616F06CFF02460B46304639464F
:102D500016F066FF06460F462CB3204616F0F6FE28
:102D600049A3D3E900238046894616F059FF48A3BA
:102D7000D3E9002304460D464046494616F050FF6D
:102D800002460B46304639462CE002460B4650467A
:102D9000594616F08DFDDDE9002316F041FF064689
:102DA0000F46002C47D132463B465046594616F056
:102DB0007FFD97E734A3D3E90023DDE9020116F094
:102DC0002FFF33A3D3E9002304460D46DDE90201BA
:102DD00016F026FF32463B4616F06CFD02460B46C7
:102DE0004046494616F064FD52465B4616F060FDCB
:102DF00002460B462046294616F05AFD05B0BDE8AE
:102E0000F08F204616F0A2FE1FA3D3E9002306464A
:102E10000F4616F005FF1EA3D3E9002304460D4616
:102E20003046394616F0FCFE02460B46204629463F
:102E300016F040FD56E7DDE9028913A3D3E900232C
:102E40004046494691E700BF44523EDF12F1C23F7F
:102E5000DE03CB966446C73F599322942449D23F60
:102E6000935555555555E53F9FC678D0099AC33FB0
:102E7000AF788E1DC571CC3F04FA97999999D93FC7
:102E8000555555555555D53F0000E0FE422EE63FBD
:102E9000763C7935EF39EA3D00005043FFFFEF7F84
:102EA0000000F03F0000E03F000050C300000000C1
:102EB000B1F5801F2DE9F84304460D460B4619DA9B
:102EC00021F00042024359D000295FDB00223A4B37
:102ED00016F0A6FE394A0D462B46934204466FF083
:102EE00035010CDD22462B462046294616F0E2FC31
:102EF000BDE8F883314A93424FF00001F2DC181527
:102F0000A0F2FF3008444FEAD0794844C3F31308D5
:102F100016F01CFEC9F57F73033348EA03550646D5
:102F20000F4620462946FFF7F7FD1DA3D3E90023EE
:102F3000804689463046394616F072FE1AA3D3E918
:102F4000002304460D464046494616F069FE0246F7
:102F50000B462046294616F0ADFC15A3D3E9002305
:102F600004460D463046394616F05AFE02460B46D8
:102F70002046294616F09EFCBDE8F8830022002377
:102F800000200F4916F076FFBDE8F883024616F0E0
:102F90008FFC0022002316F06DFFA9E7AFF300803D
:102FA000362BF111F3FE593D0EE526157BCBDB3FA9
:102FB00000609F501344D33F00005043FFFFEF7F5A
:102FC000000050C3000000002DE9F04F23F0004541
:102FD00055EA020493B00DD06B4E21F00044B44288
:102FE0000F4682460BDD04F1404404F5801454EA98
:102FF0000A0350D16549002013B0BDE8F08F9B460D
:10300000944647D0B542EEDC5F4EB5425DD0002F0E
:1030100080468946CDE900235BDB0026BCF1000F2A
:103020000ED1594B9D423FD0584B9D4200F08880B5
:10303000BBF1804F00F09C80554B9B4500F0B8835E
:103040004046494614F06CFDBAF1000F06D1002C41
:1030500059D04E4B27F040429A4254D0FF0F013FC7
:1030600056EA070373D04B4B9D4240F39B8003F11C
:1030700004739D4240F33E84474B9C4272DDBBF19A
:10308000000F72DD3EA3D3E900231046194616F067
:10309000C7FDB1E728B1414813B0BDE8F04F16F0C5
:1030A00013BAA542F7DCAFE704F1404303F5801300
:1030B00053EA0A039ED0384B9C4240F38383BBF112
:1030C000000F52DBDDE9000196E7BCF1000F9ED056
:1030D00089E7334B9D4231DCA3F154739D429CDD63
:1030E0002B15A3F2FF33142B40F3A583C3F1340354
:1030F0002CFA03F202FA03F363458ED102F00102C7
:10310000C2F102068AE7BBF1000F05DA02460B4660
:1031100000201E4916F0AEFE002FBFF66DAF04F181
:10312000404404F5801454EA060300F03F84012E65
:103130007FF462AF01F1004319465DE702266DE7B7
:10314000BBF1000FC0F248834046494654E742466F
:103150004B461046194616F0ABFB02460B4616F0DE
:1031600089FE49E7BBF1000F8CDB0020002143E71B
:1031700042464B464046494616F052FD3CE700BFEA
:103180009C7500883CE4377E0000F07F0000F03F33
:103190000000E03F0000E041FFFFEF3F70B701009B
:1031A000FFFF3F43B4F5801F80F261830022D24BC2
:1031B00016F036FD6FF0340C0C462315CF4DC4F3DA
:1031C0001302A3F2FF3342F07F546344AA420B93ED
:1031D00044F4401440F33F83C94B9A4240F30484C3
:1031E0009FEDAF7B8DED087B8DED107B9FEDAE7B72
:1031F0000B9B8DED067B01330B93A4F5801400250A
:10320000DDE906232146824616F052FBA346DDE99E
:1032100006238046894650462146CDE90CAB16F080
:1032200049FB02460B460020B64916F023FE0A462B
:103230000146CDE90E12134649460246404616F0B5
:10324000EFFC631043F0005382468B4603F50023E6
:103250008C46CDE904AB5919D3460023CDE902BC15
:103260000293DDE902AB002004460D4602460B4600
:103270005046594616F0D4FC02460B464046494695
:1032800016F016FBDDE906238046894620462946CE
:1032900016F00EFB02460B46DDE90C0116F008FBAA
:1032A00052465B4616F0BCFC02460B464046494679
:1032B00016F0FEFADDE90E2316F0B2FCDDE9044556
:1032C000CDE9060122462B462046294616F0A8FCE9
:1032D00077A3D3E9002304460D4616F0A1FC76A39C
:1032E000D3E9002316F0E6FA22462B4616F098FCA6
:1032F00073A3D3E9002316F0DDFA22462B4616F01D
:103300008FFC71A3D3E9002316F0D4FA22462B4692
:1033100016F086FC6EA3D3E9002316F0CBFA224602
:103320002B4616F07DFC6CA3D3E9002316F0C2FAFD
:103330002246804689462B462046294616F070FCD8
:1033400002460B464046494616F06AFC5246044681
:103350000D465B46DDE9040116F0ACFADDE9062313
:1033600016F05EFC22462B4616F0A4FA5246804622
:1033700089465B465046594616F052FC0022624B85
:10338000CDE90C0116F096FA42464B4616F092FA39
:1033900002980D46044622462B465046594616F0E2
:1033A0003FFC002282468B46574B2046294616F0AA
:1033B0007FFADDE90C2316F07BFA02460B46404605
:1033C000494616F075FADDE9042316F029FC224679
:1033D000804689462B46DDE9060116F021FC0246AF
:1033E0000B464046494616F065FA80468946024635
:1033F0000B465046594616F05DFA029838A3D3E9B9
:10340000002304460D4616F00BFC5246CDE904019C
:103410005B462046294616F04BFA02460B464046CC
:10342000494616F045FA30A3D3E9002316F0F8FB1D
:103430002FA3D3E90023804689462046294616F06B
:10344000EFFB02460B464046494616F033FADDE9EB
:10345000102316F02FFA80460B98894616F076FB5B
:10346000424682468B464B46DDE9040116F022FABD
:10347000DDE9082316F01EFA52465B4616F01AFAEA
:10348000029852465B4604460D4616F011FADDE9F5
:10349000082316F00DFADDE9042337E0AFF30080CE
:1034A0000000000000000000000000000000F03FED
:1034B000EF4E454A287ECA3F65DBC9934A86CD3F19
:1034C00001411DA96074D13F4D268F515555D53FFF
:1034D000FFAB6FDBB66DDB3F033333333333E33F97
:1034E000000000E009C7EE3FFD033ADC09C7EE3FEC
:1034F000F5015B14E02F3EBE000040438E980300B0
:1035000079B60B000000F03F0000084016F0D0F93B
:103510000B4602464946404616F0CAF9013E56EAB5
:10352000070382468B4600F05E819FEDD37B8DEDD5
:10353000047BDDE9001200230E461746CDE9026741
:103540000293DDE9026708463B461146324616F013
:10355000AFF922462B4616F063FBDDE900238046D7
:1035600089465046594616F05BFB02460B464046DC
:10357000494616F09FF93246804689463B4620462A
:103580002946CDE9008916F04BFB0B46024606465C
:103590000F464046494616F08DF9D14B99420446F4
:1035A0000D468A4640F3248101F13F4303F5E003D1
:1035B000034340F0FF81B2A3D3E90023DDE900011A
:1035C00016F078F93246804689463B462046294621
:1035D00016F06EF902460B464046494616F0B0FD1D
:1035E000002840F0E781A8464FEA2853A3F2FE32B4
:1035F0004FF4801313415344C3F30A52B94DA2F25E
:10360000FF321541C3F3130423EA05010020C2F180
:10361000140B44F48014BAF1000F02460B4644FA2E
:103620000BFB30463946B8BFCBF1000B16F040F922
:1036300006460F463246DDE900013B4616F03AF9F0
:103640004FEA0B5A0D4600248FA3D3E900232046EE
:10365000294616F0E5FA3246804689463B46204622
:10366000294616F025F902460B46DDE9000116F061
:103670001FF987A3D3E9002316F0D2FA86A3D3E972
:10368000002306460F462046294616F0C9FA024690
:103690000B463046394616F00DF906460F460246EF
:1036A0000B464046494616F005F942464B4604464D
:1036B0000D4616F0FDF802460B463046394616F028
:1036C000F7F82246804689462B462046294616F0C2
:1036D000A7FA73A3D3E9002306460F4616F0A0FA13
:1036E00071A3D3E9002316F0E3F832463B4616F007
:1036F00097FA6FA3D3E9002316F0DCF832463B4675
:1037000016F08EFA6CA3D3E9002316F0D1F83246F6
:103710003B4616F085FA6AA3D3E9002316F0CAF8EF
:1037200032463B4616F07CFA02460B4620462946B6
:1037300016F0BEF806460F4602460B4620462946BE
:1037400016F06EFA0022CDE900014FF080433046BA
:10375000394616F0ADF802460B46DDE9000116F0D9
:1037600089FB424606460F464B462046294616F040
:1037700057FA42464B4616F09DF802460B46304635
:10378000394616F095F822462B4616F091F8024677
:103790000B460020544916F08BF88A44BAF5801F76
:1037A000C0F232815146DDE9042316F039FA23E4F0
:1037B000002FFFF645AC4046494613B0BDE8F04F38
:1037C00015F04AB8BBF1000FBFF6CFACDDE900340D
:1037D000184604F100410FE442464B46002042499E
:1037E00016F048FB08E49FED387B8DED047BA0E6E6
:1037F0003E4B21F00048984540F3EA803C4B0B4497
:1038000003430AD132463B4616F052F8DDE9002365
:1038100016F08CFC00283FF4E7AEDDE904012CA390
:10382000D3E9002316F0FCF929A3D3E9002316F00D
:10383000F7F9FFF7E1BBBCF1000F40F0D280C3F114
:10384000140345FA03F202FA03F3AB4200F0E080FE
:103850006646FFF7E9BB9FED207B8DED087B8DED84
:10386000107B9FED057B00258DED067BC8E44FF0B6
:10387000000CA2E4AFF30080000000000000F03F65
:10388000FE822B654715973C00000000432EE63F63
:10389000EF39FAFE422EE63F396CA80C615C20BE7F
:1038A000D0A4BE726937663EF16BD2C541BDBB3E46
:1038B0002CDE25AF6A56113F93BDBE166CC1663F24
:1038C0003E5555555555C53F000000000000F0BF5E
:1038D00059F3F8C21F6EA5010000000000000000AF
:1038E000FFFF8F40FFFF0F000000F03FFFCB904035
:1038F00000346F3F5A4B9C427FF734AC594B9C428B
:103900003FF7BDAB0022574B15F0D2FF44A3D3E9DC
:10391000002304460D4616F083F943A3D3E90023A0
:1039200082468B462046294616F07AF90022CDE9D8
:1039300002014D4B2046294616F072F902460B460D
:103940003BA1D1E9000115F0B3FF22462B4616F04A
:1039500067F902460B460020444915F0A9FF2246AC
:10396000804689462B462046294616F059F90246DC
:103970000B464046494616F053F92FA3D3E90023DE
:1039800016F04EF902460B46DDE9020115F090FFF4
:1039900002460B46804689465046594615F08AFF36
:1039A000002004460D4652465B46AFE502460B46F4
:1039B000FFF7CFBBDDE9040121A3D3E9002316F013
:1039C0002FF91FA3D3E9002316F02AF9FFF714BB40
:1039D000264B98453FF708AEDDE902239246934611
:1039E00031E60026FFF72CBB9FED177B8DED087BA2
:1039F0009FED177B8DED107B9FED177B4FF480259E
:103A00008DED067BFFF7FCBB5A4601F029FDCAE6A7
:103A100002F00102C2F10206FFF706BBAFF300801D
:103A2000000000604715F73F44DF5DF80BAE543EE1
:103A3000555555555555D53FFE822B654715F73FD2
:103A40009C7500883CE4377E0000004003B8E23FEC
:103A500006D0CF43EBFD4C3E000000000000F83FD5
:103A6000FEFFEF3F0000F03F0000D03F0000E03FCE
:103A70002DE9F047CA4B21F000479F4290B08046A5
:103A8000894640F38F80C74B9F420C46924626DC06
:103A90000029B9A3D3E9002340F38F8015F008FF74
:103AA000C14B9F4204460D4600F04781B4A3D3E9C1
:103AB000002315F0FDFE02460B46CAE9002320460E
:103AC000294615F0F5FEAEA3D3E9002315F0F0FE6C
:103AD0000125CAE90201284610B0BDE8F087B34BC2
:103AE0009F4240F38980B24B9F4200F31C813D15F9
:103AF000A5F21645A7EB055319461F46064616F0D4
:103B00003FFB16F023F88046894642464B46304636
:103B10003946CDE90A8915F0CBFE0022A54B16F0F7
:103B20007FF88946804616F02BFB16F00FF8064604
:103B30000F4632463B4640464946CDE90C6715F0F4
:103B4000B7FE00229B4B16F06BF800220023CDE954
:103B50000E0116F0CDFA002800F0608100233046F7
:103B60003946002216F0C4FA002814BF01230223AC
:103B7000914A019202212A4600910AA8514600F07A
:103B800087FB002C054614DADAF80420DAF80C304A
:103B900002F1004203F100434542CAF80420CAF88A
:103BA0000C3006E000200021C2E90089C2E90201D0
:103BB0000025284610B0BDE8F08715F07BFE7A4B53
:103BC0009F4204460D4600F00B816DA3D3E900230C
:103BD00015F070FE02460B46CAE90023294620462E
:103BE00015F066FE66A3D3E9002315F063FE4FF0DF
:103BF000FF35CAE90201DCE713F092FF62A3D3E9C3
:103C000000238046894616F00BF800226B4B15F016
:103C100051FE16F0B5FA054615F098FF56A3D3E904
:103C20000023CDE9060115F0FBFF02460B46404696
:103C3000494615F03DFE52A3D3E90023804689464C
:103C4000DDE90601CDE9028915F0EAFF1F2D0246E4
:103C50000B46CDE9042340F3B380DDE90423DDE91D
:103C6000020115F025FE804689463F15C9F30A5327
:103C7000FB1A102B40F3B18045A3D3E90023DDE903
:103C8000060115F0CDFF8046894602460B46DDE968
:103C9000020115F00DFE02460B46DDE90201CDE9F9
:103CA000082315F005FE42464B4615F001FE3AA3E7
:103CB000D3E9002380468946DDE9060115F0B0FF0F
:103CC00042464B4615F0F4FD0B46CDE90401024691
:103CD000DDE9080115F0ECFDC1F30A53FF1A312F9D
:103CE0008046894600F39C809DED087BCAE90089E7
:103CF0008DED027B42464B46DDE9020115F0D8FD11
:103D0000DDE9042315F0D4FD002CCAE90201BFF659
:103D100050AF09F1004401F100436D42CAE900844B
:103D2000CAE9020345E702460B4615F0C1FD00252E
:103D3000CAE90201CAE900013BE715A3D3E9002360
:103D400015F0B6FD14A3D3E900230D46044615F083
:103D5000AFFD02460B46CAE900232946204615F06E
:103D6000A7FD0DA3D3E9002315F0A2FD0125CAE9A3
:103D700002011EE7AFF3008000004054FB21F93F31
:103D80003163621A61B4D03D83C8C96D305FE43FCE
:103D90000000601A61B4D03D7370032E8A19A33BF2
:103DA000FB21E93F7BD90240FB21F93FFB2139414F
:103DB000FFFFEF7F000070412CC201000000E03FD8
:103DC0004046494615F074FD394B6A1E804653F84B
:103DD0002230BB4289463FF448AFCAE9008989E7EF
:103DE0002BA3D3E9002315F065FD2BA3D3E9002312
:103DF0000D46044615F05EFD02460B46CAE9002357
:103E00002946204615F054FD23A3D3E9002315F0DD
:103E100051FD4FF0FF35CAE90201CAE60323A7E6C8
:103E20001FA3D3E90023DDE9060115F0F9FE0646DC
:103E30000F4602460B46DDE9080115F039FD8046C4
:103E4000894602460B46DDE90801CDE9028915F0F5
:103E50002FFD32463B4615F02BFD13A3D3E900237B
:103E600006460F46DDE9060115F0DAFE32463B460E
:103E700015F01EFD02460B4640464946CDE9042397
:103E800015F016FD80468946A7E700BFAFF3008016
:103E90000000601A61B4D03D7370032E8A19A33BF1
:103EA0000000002E8A19A33BC14920259A837B3943
:103EB000ACC1010000000000574A2DE9F84F21F085
:103EC0000048904506460F462CDC544B0029B4BFF1
:103ED000534D544D98454FF0000411DC524B98451A
:103EE00026DC4BA3D3E9002315F0E4FC00224F4B62
:103EF00016F026F9002840D030463946BDE8F88F44
:103F00004B4B984530DD4B4B984568DD0133984568
:103F100062D0304639463EA3D3E9002315F080FE37
:103F2000BDE8F88F02460B4615F0C4FCBDE8F88FDB
:103F300013F0F6FD01F048F83F4B984506460F4652
:103F400023DD0022394B15F0B5FC02460B46304606
:103F5000394615F08FFF32463B4615F0ABFC224642
:103F60002B4615F05DFEE1E713F0DAFDFEF75CFC91
:103F700022462B4615F054FED8E73046394613F05A
:103F8000CFFD01F021F806460F4632463B4630464B
:103F9000394615F08FFC324682468B463B4630460A
:103FA000394615F03DFE0022804689461F4B3046BB
:103FB000394615F07FFC02460B464046494615F04F
:103FC00059FF02460B465046594615F071FC2246F1
:103FD0002B4615F025FEA9E7184B984299D8304694
:103FE000394613F09DFD00220E4B15F019FEFEF729
:103FF0001BFC06460F4602460B462046294615F096
:104000000FFE32463B4615F00BFE8FE7AFF3008004
:104010003374AC3C1F7BAC7FFFFFEF7FFFFF35406D
:104020000000E0BF0000E03FFFFF2F3E0000F03F38
:10403000412E8640CD338640FFFFEF3F7DF8B98F9C
:104040002DE9F04F21F00048B8F1795F85B00646C0
:104050000F4692469B466BDA16F092F8002800F065
:10406000E18032463B463046394615F0D9FD74A30F
:10407000D3E9002304460D4615F0D2FD72A3D3E91F
:10408000002315F017FC22462B4615F0C9FD70A33E
:10409000D3E9002315F00CFC22462B4615F0C0FD99
:1040A0006DA3D3E9002315F005FC22462B4615F03D
:1040B000B7FD6BA3D3E9002315F0FAFB22462B468C
:1040C00015F0AEFD68A3D3E9002315F0F3FB2246FB
:1040D0002B4615F0A5FDCDE900010022664B2046D8
:1040E000294615F09DFDDDE90023804689462046DE
:1040F000294615F095FD524604460D465B4630466E
:10410000394615F08DFD02460B462046294615F02E
:10411000CFFB02460B464046494615F0C9FB024616
:104120000B460020554915F0C3FB05B0BDE8F08FE4
:1041300002460B4615F074FD41A3D3E90023044663
:104140000D4615F06DFD40A3D3E9002315F0B2FB39
:1041500022462B4615F064FD3DA3D3E9002315F05C
:10416000A7FB22462B4615F05BFD3BA3D3E90023BA
:1041700015F0A0FB22462B4615F052FD38A3D3E9DB
:10418000002315F095FB22462B4615F049FD36A37A
:10419000D3E9002315F08EFB2B46224615F040FD97
:1041A000374B9845CDE9000197DD364B98453EDC0D
:1041B000A8F500130022002030499046994615F0DA
:1041C00077FBCDE9020100222B4B2046294615F052
:1041D00027FD42464B4615F06BFBDDE90023804688
:1041E00089462046294615F01BFD524604460D46D9
:1041F0005B463046394615F013FD02460B46204615
:10420000294615F055FB02460B464046494615F037
:104210004FFB02460B46DDE9020115F049FB05B0F4
:10422000BDE8F08F1549002005B0BDE8F08F9FED87
:10423000107B4FF000088DED027BDFF84C90C2E759
:10424000D43888BEE9FAA8BDC4B1B4BD9EEE213E03
:10425000AD529C804F7E923E9015CB19A001FA3E44
:104260007751C1166CC1563F4C5555555555A53F14
:10427000000000000000E73F0000E03F0000F03FCA
:104280003233D33F0000E93F0000D23F000000007E
:104290002DE9F04FADF5197DBE4CA29EBE4D54F8F0
:1042A00026600793D41E85FB0475E417C4EBA504B0
:1042B00024EAE4741D46631CA3EB8303013D02EB77
:1042C000C3030593731904960994019503900B9108
:1042D000A4EB05071AD43B44002400255E1C0DF115
:1042E0008008DDF88C9208E059F8270015F02EFCC4
:1042F0000137B742E8E8020108D0002FF4DA0137AD
:1043000020462946B742E8E80201F6D1049B002B7B
:10431000079B4FEAC30302932ADB039A20A902EB0F
:10432000030801EB0309049B72AA02EBC30B0DF512
:10433000E07A019B002B4FF000064FF0000711DBE5
:10434000039C4D4675E90223F4E8020115F068FC70
:1043500002460B463046394615F0ACFA444506464F
:104360000F46EFD1EAE80267DA4509F10809E0D122
:10437000DDE90204049920448B0082460BA8A3F1D6
:104380000802C31808930CAB13440A938B4698ABEE
:1043900003EBCB03BBF1000F53E9284529DD70ABDC
:1043A00003EBCB080DF1300900227C4B2046294657
:1043B00015F036FC15F0E4FE15F0C8FB0022784B32
:1043C00006460F4615F02CFC02460B4620462946B1
:1043D00015F06EFA15F0D4FE78E9022349F8040BC3
:1043E0003946304615F066FA70AB984504460D46DE
:1043F000DAD1DDF81490204629464A4601F030F81B
:1044000000224FF07F5304460D4615F009FCFCF7DF
:10441000A7FD0022634B15F003FC02460B46204625
:10442000294615F045FA0D46044615F0A9FE8046CA
:1044300015F08CFB0B4602462946204615F038FA4B
:104440004B46002B06460F4640F3E1800BF1FF324E
:104450000CA9C9F1180351F8225045FA03F101FAE9
:1044600003F30CA8EB1A40F82230C9F11705884471
:1044700043FA05F5002D2CDDBBF1000F08F1010812
:1044800040F381820C9C002C40F0A780BBF1010F0F
:104490000AD00CA9012251F8044F531C002C40F003
:1044A0009E809B451A46F6D1059B002B0EDD012B05
:1044B00000F0D980022B09D10BF1FF320CAB0CA913
:1044C00053F82230C3F3150341F82230022D00F0D7
:1044D000AF80002200233046394615F009FE00283F
:1044E00000F05382049B0BF1FF394B4510DC0BF1BC
:1044F00080430CAA013B089802EB8303002253F887
:104500000419834242EA0102F9D1002A40F0B68040
:10451000049B0CAA013B52F82330002B40F0A180F1
:104520000A9A012352F8041901330029FAD05B4496
:104530000BF10109994506934CDC099A079909EB9F
:10454000020801EB0B0508F1804802EB030BA39B6B
:1045500008F1FF3803EB880870AB03EBC909A39B94
:1045600020A903EB8B0301EBC505029358F8040F58
:1045700015F0ECFA0B4601990246002905F1080BEB
:10458000C5E900234FF000064FF000071CDB039C39
:104590000CE000BFCCC60100ABAAAA2A0000703E06
:1045A000000070410000204075E90223F4E8020198
:1045B00015F036FB02460B463046394615F07AF9BF
:1045C000544506460F46EFD1029B9845E9E802673D
:1045D0005D46CBD1DDF818B0D9E6012300220CA945
:1045E000C4F180749B4541F822400EDD51F8232030
:1045F00001EB8B0001EB83036FF07F4100E01A6851
:104600008A1A43F8042B8342F9D101244CE706D1DE
:104610000BF1FF330CAA52F82350ED152AE70022C4
:104620007B4B15F083FD002840F0A381054650E741
:1046300032463B460020774915F03AF906460F46C8
:10464000002C3FF446AF059A7249002000F008FFA5
:1046500002460B463046394615F02AF906460F4603
:1046600037E7012363E70BF1FF320CAB0CA953F8DA
:104670002230C3F3160341F8223027E70CAB059A2A
:1046800053F82930183ACDE9068505926BB909F13E
:104690008043013B0CA901EB830353F8041909F192
:1046A000FF39183A0029F8D00592059A5949002097
:1046B00000F0D6FEB9F1000F04460D46C0F2C081ED
:1046C0004FEAC90370AA02EB030808930CAB03EB93
:1046D0008906DFF844B14FF0000A08F108070436F4
:1046E00056F8040D15F032FA22462B4615F098FACA
:1046F0005B4667E9020152462046294615F090FACA
:104700000CAB9E4204460D46EAD148AB039301939D
:10471000CDF8149009F10103DDF810900293C3461F
:104720004FF0000AB9F1000FC0F22A81DFF8EC80E7
:104730005D4635A3D3E9002300260027002403E0CB
:10474000544510DCF8E80223F5E8020115F068FA98
:1047500002460B463046394615F0ACF80134A14507
:1047600006460F46ECDA019BE3E802670193029BE1
:104770000AF1010A9A45ABF1080BD3D1A29BDDF8EF
:104780001490032B39D8DFE813F0D9000600060097
:104790004D0048AB0393B9F1000F4FF000004FF00C
:1047A000000109DB039D05EBC904083474E9022309
:1047B00015F080F8A542F9D1079B002B40F01E812F
:1047C0000B9BC3E900010B4603990246D1E90001A6
:1047D00015F06EF8B9F1000F0CDD4AAD012401347B
:1047E000F5E8022315F066F8A145F8DA079B002BDF
:1047F00040F014810B9BC3E90201069B03F0070004
:104800000DF5197DBDE8F08F00000040FB21F93F58
:104810000000E03F0000F03F0000703E90AF01005C
:1048200048AB0393B9F1000F40F32781039ACDF809
:1048300010904FEAC9030193D318D3E900AB09F1F3
:104840000053013B02EBC9080293914678E90267E5
:1048500052465B463046394615F02CF804460D4664
:1048600002460B463046394615F022F852465B4662
:1048700015F020F8C145A246AB46C8E90201C8E9D7
:104880000045E3D1DDF81090B9F1010F40F3F58058
:10489000019B039A02991344C900D3E9006701F10F
:1048A000080A019192440DF5947B7AE90289324617
:1048B0003B464046494614F0FDFF04460D4602467D
:1048C0000B464046494614F0F3FF32463B4614F08F
:1048D000F1FFD34526462F46CAE90201CAE9004541
:1048E000E3D1019C039B1034002000211C4403F100
:1048F000100574E9022314F0DDFFA542F9D1039CF1
:10490000079ED4E90023D4E90245002E00F08A80F6
:1049100003F1004701F100430B99C1E90403069B31
:104920002646944605F1004403F00700C1E900C79C
:10493000C1E902640DF5197DBDE8F08F089C039D67
:104940000834002000212C4474E9022314F0B2FF43
:10495000A542F9D1079B13B101F1004319460B9B06
:10496000C3E90001069B03F007000DF5197DBDE8C2
:10497000F08FBBF1000F08F1010874DD022581E51D
:1049800000260027EFE600248EE5CDE90685059D8B
:10499000304639466A4200F063FD0022384B064635
:1049A0000F4615F0C3FB00B30022364B30463946A4
:1049B00015F036F915F0E4FB044615F0C7F80022AF
:1049C0002F4B15F02DF90B4602463946304614F0B0
:1049D0006FFF15F0D5FB0BF101090CAB183543F84F
:1049E0002B00059543F829405FE63046394615F01F
:1049F000C7FB0CABD94643F82B0056E60B9C01F1E4
:104A00000043C4E900030B4603990246D1E90001C3
:104A100014F04EFFB9F1000F3FF7DFAE01F1004394
:104A20001946E7E60B9EC6E90023069BC6E904018A
:104A300003F00700C6E902450DF5197DBDE8F08FCA
:104A4000A29B032B3FF6D9AE01A252F823F000BF80
:104A5000614A00009347000093470000214800008E
:104A60000020002176E732463B460020064914F03C
:104A70001FFF022506460F462BE5002000213EE7DA
:104A8000000070410000703E0000F03F0000000098
:104A90002DE9F04F21F00046B6F1795F85B004466C
:104AA0000D469046994604DA15F06AFB002800F09E
:104AB000858022462B462046294615F0B1F8064649
:104AC0000F4602460B462046294615F0A9F841A399
:104AD000D3E9002382468B463046394615F0A0F8CC
:104AE0003EA3D3E9002314F0E3FE32463B4615F023
:104AF00097F83CA3D3E9002314F0DCFE32463B4692
:104B000015F08EF839A3D3E9002314F0D1FE324614
:104B10003B4615F085F837A3D3E9002314F0CAFE0D
:104B20000E9BCDE900019BB30022294B404649462C
:104B300015F076F8DDE90023CDE90201504659462B
:104B400015F06EF802460B46DDE9020114F0B0FEE6
:104B500032463B4615F064F842464B4614F0A8FE38
:104B600019A3D3E9002306460F465046594615F0CF
:104B700057F802460B463046394614F09BFE024673
:104B80000B462046294614F093FE05B0BDE8F08F91
:104B900002460B463046394615F042F80AA3D3E9DF
:104BA000002314F085FE52465B4615F039F8224684
:104BB0002B4614F07FFE05B0BDE8F08F2046294655
:104BC00005B0BDE8F08F00BF495555555555C53F57
:104BD0000000E03F7CD5CF5A3AD9E53DEB9C2B8ACB
:104BE000E6E55A3E7DFEB157E31DC73ED561C119CA
:104BF000A0012A3FA6F810111111813F000000000A
:104C00002DE9F04FC04C21F0004687B0A642824605
:104C10008B460F46CDE900231ADC15F0B1FA0028C7
:104C20003FD1109B524601331343334300F0B78109
:104C3000109B012B00F0C0815B460020B34915F0AA
:104C400019F904460D462046294607B0BDE8F08F05
:104C5000AF4B9E4225DD002909DADDE900452246F9
:104C600005F10043CDE900230BF100418B4652468C
:104C70005B4685A1D1E9000114F01AFEDDE90023AD
:104C800004460D4682A1D1E9000114F011FE9FED0A
:104C9000827B22462B468DED007B14F00BFE824674
:104CA0008B4652465B465046594614F0B9FF0246C1
:104CB0000B468046894614F0B3FF424604460D4633
:104CC0004B465046594614F0ABFF75A3D3E9002379
:104CD000CDE902012046294614F0A2FF72A3D3E9D0
:104CE000002314F0E7FD22462B4614F099FF70A331
:104CF000D3E9002314F0DEFD22462B4614F090FF8A
:104D00006DA3D3E9002314F0D5FD22462B4614F001
:104D100087FF6BA3D3E9002314F0CCFD22462B467A
:104D200014F07EFF68A3D3E9002314F0C3FD4246CC
:104D30004B4614F075FF66A3D3E90023CDE90401C7
:104D40002046294614F06CFF63A3D3E9002314F036
:104D5000B1FD22462B4614F063FF61A3D3E9002383
:104D600014F0A8FD22462B4614F05AFF5EA3D3E9A7
:104D7000002314F09FFD22462B4614F051FF5CA344
:104D8000D3E9002314F096FD22462B4614F048FF89
:104D900059A3D3E9002314F08DFD02460B46DDE94B
:104DA000040114F087FDDDE9022314F039FFDDE989
:104DB000004522462B4614F07DFD42464B4614F03A
:104DC0002FFF22462B4614F075FD4DA3D3E9002397
:104DD00004460D46DDE9020114F022FF22462B466F
:104DE00014F068FD0B4602468046894650465946F7
:104DF00014F060FD464B9E4204460D4600F38C8045
:104E0000109B012B3BD002460B4600203F4915F07A
:104E100031F8002406460F462046294652465B4696
:104E2000CDE90067CDE90201009414F041FDDDE910
:104E300000AB02460B464046494614F039FD524647
:104E40005B4614F0EDFE524604460D465B46DDE936
:104E5000020114F0E5FE00222E4B14F02BFD024659
:104E60000B462046294614F025FD32463B4614F0F9
:104E7000D7FE52465B4614F01DFD04460D46204603
:104E8000294607B0BDE8F08F182D4454FB21E93FB7
:104E9000075C143326A6813C0000000000000000DF
:104EA000D47ABF74702AFB3EE9A7F0320FB8123FE4
:104EB00068108D1AF726303F1583E0FEC8DB573F98
:104EC00093846EE9E326823FFE41B31BBAA1AB3F58
:104ED000735360DBCB75F3BEA69237A0887E143F78
:104EE0000165F2F2D844433F280356C9226D6D3F55
:104EF00037D60684F464963F7AFE10111111C13F33
:104F0000635555555555D53FFFFF2F3E0000F0BF67
:104F10002794E53F0000F03F109814F017FE22465A
:104F2000CDE900012B462046294614F079FEDDE943
:104F30000023CDE902012046294614F0BBFC0246BD
:104F40000B46DDE9020114F095FF42464B4614F092
:104F5000AFFC02460B465046594614F0A9FC0246E7
:104F60000B4614F0A7FC02460B46DDE9000114F0E5
:104F70009FFC0446B81700F00200C0F101000D4686
:104F800014F0E4FD02460B462046294614F048FE84
:104F900004460D462046294607B0BDE8F08F50462E
:104FA000594612F0BDFD02460B460020044914F09C
:104FB00061FF04460D4662E754465D465FE700BF69
:104FC0000000F03F000000002DE9F04FCC4A21F036
:104FD0000043934285B082468B460C4620D9C94A8D
:104FE000934200F2D780002C80F2A481ACA3D3E9D5
:104FF00000235046594614F05DFC0022002315F0B2
:1050000081F8002840F0D180A7A3D3E900235046BF
:10501000594614F005FE02460B460020BA4994E1B9
:10502000BA4A934200F2E580B94A934240F22E8197
:10503000002301930022B74B5046594614F0F0FD6F
:1050400006460F4602460B465046594614F0E8FD08
:1050500097A3D3E9002304460D4614F0E1FD96A37F
:10506000D3E9002314F026FC22462B4614F0D8FD89
:1050700093A3D3E9002314F01BFC22462B4614F023
:10508000CFFD91A3D3E9002314F014FC22462B4654
:1050900014F0C6FD8EA3D3E9002314F009FC2246C8
:1050A0002B4614F0BDFD00229B4B14F003FC804600
:1050B000894602460B463046394614F0B1FD024699
:1050C0000B460020954914F0F3FB064602460B46BA
:1050D0000F464046494614F0EBFB3246804689466F
:1050E0003B465046594614F09BFD02460B460020B5
:1050F0008B4914F0DDFB02460B464046494614F04E
:10510000B9FE22462B4614F08BFD019E02460B464B
:10511000002E4DD0DDE9026732463B4614F0C8FB55
:1051200052465B4614F07CFD32463B4614F0C0FB11
:105130002B46224614F0BCFB019B013306460F466A
:1051400000F02381019B012B7BD0019A531C392B4A
:105150004FEA025500F22881019A132A40F3558143
:10516000019BC3F57F7403340022230514F0A2FBD6
:1051700002460B465046594614F09AFB0022664BF5
:1051800014F098FB824605EB010B5046594605B0DA
:10519000BDE8F08F634A93421BD9C1F31303034365
:1051A000024640F012810029EFDA00205E490DE04E
:1051B0005046594614F034FD22462B4614F078FB35
:1051C00002460B465046594614F072FB05B0BDE846
:1051D000F08F41A3D3E9002314F0B2FF00283FF47D
:1051E00002AF3FA3D3E900231046194614F018FD7F
:1051F000ECE74E4A934200F2EC8000293AA3D3E94F
:10520000002339DA14F056FB39A7D7E900674FF0CD
:10521000FF3380468946019332463B464046494625
:1052200014F046FB02460B4682468B4640464946F2
:1052300014F03EFB32463B4614F03AFBCDE9020146
:10524000F8E600223A4B5046594614F05BFF00281E
:1052500000F0CC805046594600222E4B14F02AFB19
:1052600002460B463046394614F022FB00224FF02E
:10527000404314F0D5FCA9E714F01AFB0123804643
:10528000894601931CA7D7E90067C5E714A3D3E9B2
:10529000002314F00FFB02460B468FE7AFF30080AC
:1052A00059F3F8C21F6EA501FE822B654715F73F23
:1052B0002DC3096EB7FD8ABE3952E686CACFD03EED
:1052C000B7DBAA9E19CE143F8555FE19A0015A3F9F
:1052D000F41011111111A13FEF39FAFE422E864050
:1052E0009C7500883CE4377E0000E0FE422EE63FDD
:1052F000763C7935EF39EABD763C7935EF39EA3DD0
:1053000079684340412E86400000E0BF422ED63FE0
:10531000FFFF8F3C0000E03F0000F03F000008402E
:1053200000001840FFFFEF7F0000F0BFB1A2F03F88
:105330000000D0BF44A3D3E900235046594614F0DF
:105340006FFC02460B460020414914F0B3FA14F0FA
:1053500017FF019014F0FAFB37A3D3E900230646A8
:105360000F4614F05DFC02460B465046594614F0B9
:105370009FFA33A3D3E90023804689463046394655
:1053800014F04EFC06460F4646E702460B465046D2
:10539000594614F08DFA00222D4B14F041FC0022E6
:1053A0002B4B14F085FA11E752465B4614F080FA55
:1053B00002460B460020274914F07AFA6B1819466A
:1053C0000022244B14F074FA00E70B4614F072FA32
:1053D000FCE61DA3D3E9002314F022FC002C0246B6
:1053E0000B464FF00000AFDA1B49AEE732463B46B2
:1053F0005046594614F05CFA02460B4614F05AFA2D
:105400000022144B14F056FAE0E64FF4001343FA6E
:1054100002F452465B4614F04BFAC4F17F57002663
:1054200007F5401702460B463046394614F040FA5D
:10543000A8E600BFAFF300800000E0FE422EE63F8A
:10544000763C7935EF39EA3DFE822B654715F73F0B
:105450000000E03F0000F03F0000E0BF000000005F
:10546000F8B5C1F30A5304460D460E4617460BBB6A
:1054700021F00046034633431BD0354B002214F085
:10548000CFFB344B9F4204460D4635DBC1F30A5334
:105490000E46363B3B4440F2FE72934232DC002B18
:1054A00011DD26F0FF4626F4E00646EA03552046C5
:1054B0002946F8BD40F2FF729342EBD102460B46FB
:1054C00014F0F8F9F8BD13F1350F28DA4CF2503327
:1054D0009F4222462B460ADD19A1D1E9000114F0B2
:1054E00059F917A3D3E9002314F09AFBF8BD16A1CC
:1054F000D1E9000114F04EF913A3D3E9002314F00D
:105500008FFBF8BD22462B460DA1D1E9000114F016
:1055100041F90BA3D3E9002314F082FBF8BD26F078
:10552000FF4626F4E006363346EA03552046294670
:105530000022094B14F074FBF8BD00BFAFF30080EC
:105540009C7500883CE4377E59F3F8C21F6EA501B4
:1055500000005043B03CFFFF0000903C10B5054CEC
:10556000237833B9044B13B10448AFF3008001230F
:10557000237010BD100500200000000024C80100A9
:1055800008B5034B1BB103490348AFF3008008BDC6
:10559000000000001405002024C80100154B002B5A
:1055A00008BF134B9D46A3F5803A00218B460F465A
:1055B0001348144A121A09F0A7F80F4B002B00D019
:1055C00098470E4B002B00D0984700200021040084
:1055D0000D000D48002802D00C48AFF3008014F0F5
:1055E0000FF92000290005F0B9F814F0F5F800BF14
:1055F0000000080000000220000000000000000081
:10560000000400209C0C00200000000000000000AE
:1056100070B504460E4600F047FA88B103681B6B6C
:1056200005469847082C0CD0A4F10903012B14D986
:105630003246214610230D20BDE8704004F07AB8B0
:1056400070BD2B6828469B6A98470228F0DC2B68BF
:1056500028465B6A04219847EAE72B6828469B6A3C
:1056600098470528E4DC2B6828465B6A08219847A0
:10567000DEE700BF38B52DED028B054600F014FAC9
:10568000044640B103681B6B9847032D03D8DFE83D
:1056900005F02F363D06BDEC028B002038BD2046BC
:1056A0000CF032FF07EE900A2046F8EEE78A0CF085
:1056B00039FF07EE900A2046B8EEE78A0CF040FF6B
:1056C00068EE087A07EE100AE8EEA87AB8EEC77A14
:1056D000E7EE077AF5EE407AF1EE10FAB1EEE78ADE
:1056E0001BD4FDEEC87ABDEC028B17EE900A38BDD4
:1056F000BDEC028B2046BDE838400CF005BFBDEC88
:10570000028B2046BDE838400CF00CBFBDEC028B8C
:105710002046BDE838400CF013BF17EE900A12F097
:1057200035FFDEE738B5044600F0BEF958B103682E
:105730001B6B0546984744B1012C04D12846BDE8AF
:105740003840FBF73DB9002038BD2846BDE8384059
:10575000FBF716B910B5044600F0A6F928B10368A6
:1057600021465B6ABDE81040184710BD00487047ED
:1057700016FCFFFF704700BF10B5034B03600446E3
:105780000CF0BEFC204610BD14BD010010B5054B49
:10579000036004460CF0B4FC204614F0C9FF204618
:1057A00010BD00BF14BD01002DE9F041032184B0FC
:1057B0000546512001F0DAFCDFF8E8C2AE4B0446A2
:1057C00004F00F06C4F3031714F4807408BF634693
:1057D000AA4831463A460BF01DFE221C18BF012292
:1057E00031463B4628460EF0C5FD0023AB60A44879
:1057F0000BF010FE4FF0FF31032001F0B7FCC0B2F8
:1058000004F052FA4FF0FF310446022001F0AEFCE2
:10581000C0B204F049FA002C3BD0002839D0014630
:10582000204604F063F8064600284DD04FF0FF31C3
:10583000462001F09BFC322804464ED04BDD382830
:1058400000F0B18068285FD14FF0FF31012001F0F6
:105850008DFCC0B204F028FA80465C2014F071FF81
:10586000052301934246009431462B4607460DF02E
:1058700083FDAF603B683846DB6A9847A8680368D9
:105880001B6B98477F480BF0C5FD284604B0BDE868
:10589000F0817D480BF0BEFD4FF0FF31192001F083
:1058A00065FCC0B204F000FA4FF0FF310446182046
:1058B00001F05CFCC0B204F0F7F90146204604F0A8
:1058C00015F806460028B1D170480BF0A3FD284614
:1058D00004B0BDE8F081302816D14FF0FF3101202F
:1058E00001F044FCC0B204F0DFF98046502014F00F
:1058F00028FFA4B20746052301934246009431468F
:105900002B460DF0E3FAB4E701243268CDE90044F8
:105910000023576AAB600F220DF10F03322130468E
:10592000B847002800F085803368CDE900440F2295
:105930005F6A30210DF10F033046B84700284AD086
:105940003368CDE900440D225F6A38210DF10F0361
:105950003046B847002872D03268CDE900440DF1D6
:105960000F03576A682175223046B847002845D191
:10597000682147480BF04EFD4FF0FF31204601F003
:10598000F5FBC0B204F090F980465C2014F0D9FE1B
:1059900005246823CDE90034424631462B460746AC
:1059A0000DF0EAFC65E74FF0FF31012001F0DEFB6E
:1059B000C0B204F079F98046502014F0C2FE0523ED
:1059C0000746019342462B46009431460DF0B4FB46
:1059D000304B3B604DE730212D480BF01BFD302450
:1059E0004FF0FF31012001F0C1FBC0B204F05CF9BF
:1059F0008046502014F0A5FE07467CE726480BF0B1
:105A000009FDAF68002F7FF435AF4FF0FF31032061
:105A100001F0ACFBC0B204F047F930B11F480BF005
:105A2000F9FC284604B0BDE8F0811D480BF0F2FCFB
:105A30004DE7322116480BF0EDFC3224D0E7382137
:105A400013480BF0E7FC4FF0FF31204601F08EFBCE
:105A5000C0B204F029F98046502014F072FE0524EB
:105A600038230746CDE9003442462B4631460DF037
:105A700063FB084B3B60FCE618B0010028B0010056
:105A800048B0010008B1010058B001006CB001003D
:105A900098B00100E0AF010084B00100ACB001009B
:105AA000E8B0010020B0010038B5114C23680BB1FB
:105AB000986838BD4FF0FF31012001F057FBC0B2AC
:105AC00004F0F2F840B10C2014F03BFE0546FFF75D
:105AD0006BFE2560A86838BD4FF0FF31032001F050
